{
  "_format": "hh-sol-artifact-1",
  "contractName": "SubscriptionV1",
  "sourceName": "contracts/SubscriptionV1.sol",
  "abi": [
    {
      "inputs": [],
      "stateMutability": "nonpayable",
      "type": "constructor"
    },
    {
      "anonymous": false,
      "inputs": [
        {
          "indexed": true,
          "internalType": "address",
          "name": "account",
          "type": "address"
        },
        {
          "indexed": true,
          "internalType": "address",
          "name": "operator",
          "type": "address"
        },
        {
          "indexed": false,
          "internalType": "bool",
          "name": "approved",
          "type": "bool"
        }
      ],
      "name": "ApprovalForAll",
      "type": "event"
    },
    {
      "anonymous": false,
      "inputs": [
        {
          "indexed": false,
          "internalType": "uint256",
          "name": "id",
          "type": "uint256"
        }
      ],
      "name": "NFTevent",
      "type": "event"
    },
    {
      "anonymous": false,
      "inputs": [
        {
          "indexed": true,
          "internalType": "address",
          "name": "operator",
          "type": "address"
        },
        {
          "indexed": true,
          "internalType": "address",
          "name": "from",
          "type": "address"
        },
        {
          "indexed": true,
          "internalType": "address",
          "name": "to",
          "type": "address"
        },
        {
          "indexed": false,
          "internalType": "uint256[]",
          "name": "ids",
          "type": "uint256[]"
        },
        {
          "indexed": false,
          "internalType": "uint256[]",
          "name": "values",
          "type": "uint256[]"
        }
      ],
      "name": "TransferBatch",
      "type": "event"
    },
    {
      "anonymous": false,
      "inputs": [
        {
          "indexed": true,
          "internalType": "address",
          "name": "operator",
          "type": "address"
        },
        {
          "indexed": true,
          "internalType": "address",
          "name": "from",
          "type": "address"
        },
        {
          "indexed": true,
          "internalType": "address",
          "name": "to",
          "type": "address"
        },
        {
          "indexed": false,
          "internalType": "uint256",
          "name": "id",
          "type": "uint256"
        },
        {
          "indexed": false,
          "internalType": "uint256",
          "name": "value",
          "type": "uint256"
        }
      ],
      "name": "TransferSingle",
      "type": "event"
    },
    {
      "anonymous": false,
      "inputs": [
        {
          "indexed": false,
          "internalType": "string",
          "name": "value",
          "type": "string"
        },
        {
          "indexed": true,
          "internalType": "uint256",
          "name": "id",
          "type": "uint256"
        }
      ],
      "name": "URI",
      "type": "event"
    },
    {
      "anonymous": false,
      "inputs": [
        {
          "indexed": false,
          "internalType": "address",
          "name": "master",
          "type": "address"
        },
        {
          "indexed": false,
          "internalType": "uint256",
          "name": "fee",
          "type": "uint256"
        }
      ],
      "name": "contractModified",
      "type": "event"
    },
    {
      "inputs": [],
      "name": "DOMAIN_SEPARATOR",
      "outputs": [
        {
          "internalType": "bytes32",
          "name": "",
          "type": "bytes32"
        }
      ],
      "stateMutability": "view",
      "type": "function"
    },
    {
      "inputs": [],
      "name": "USER_TYPEHASH",
      "outputs": [
        {
          "internalType": "bytes32",
          "name": "",
          "type": "bytes32"
        }
      ],
      "stateMutability": "view",
      "type": "function"
    },
    {
      "inputs": [
        {
          "internalType": "address",
          "name": "account",
          "type": "address"
        },
        {
          "internalType": "uint256",
          "name": "id",
          "type": "uint256"
        }
      ],
      "name": "balanceOf",
      "outputs": [
        {
          "internalType": "uint256",
          "name": "",
          "type": "uint256"
        }
      ],
      "stateMutability": "view",
      "type": "function"
    },
    {
      "inputs": [
        {
          "internalType": "address[]",
          "name": "accounts",
          "type": "address[]"
        },
        {
          "internalType": "uint256[]",
          "name": "ids",
          "type": "uint256[]"
        }
      ],
      "name": "balanceOfBatch",
      "outputs": [
        {
          "internalType": "uint256[]",
          "name": "",
          "type": "uint256[]"
        }
      ],
      "stateMutability": "view",
      "type": "function"
    },
    {
      "inputs": [
        {
          "internalType": "uint256",
          "name": "id",
          "type": "uint256"
        },
        {
          "internalType": "uint256",
          "name": "amount",
          "type": "uint256"
        },
        {
          "internalType": "uint8",
          "name": "v",
          "type": "uint8"
        },
        {
          "internalType": "bytes32",
          "name": "r",
          "type": "bytes32"
        },
        {
          "internalType": "bytes32",
          "name": "s",
          "type": "bytes32"
        }
      ],
      "name": "burnSubscription",
      "outputs": [],
      "stateMutability": "nonpayable",
      "type": "function"
    },
    {
      "inputs": [
        {
          "internalType": "address",
          "name": "subscriber",
          "type": "address"
        },
        {
          "internalType": "uint256",
          "name": "id",
          "type": "uint256"
        },
        {
          "internalType": "uint8",
          "name": "v",
          "type": "uint8"
        },
        {
          "internalType": "bytes32",
          "name": "r",
          "type": "bytes32"
        },
        {
          "internalType": "bytes32",
          "name": "s",
          "type": "bytes32"
        }
      ],
      "name": "buySubscription",
      "outputs": [],
      "stateMutability": "nonpayable",
      "type": "function"
    },
    {
      "inputs": [],
      "name": "chainId",
      "outputs": [
        {
          "internalType": "uint256",
          "name": "",
          "type": "uint256"
        }
      ],
      "stateMutability": "view",
      "type": "function"
    },
    {
      "inputs": [
        {
          "internalType": "uint256",
          "name": "id_",
          "type": "uint256"
        },
        {
          "internalType": "address",
          "name": "subscriber",
          "type": "address"
        }
      ],
      "name": "executeSubscription",
      "outputs": [],
      "stateMutability": "nonpayable",
      "type": "function"
    },
    {
      "inputs": [],
      "name": "fee",
      "outputs": [
        {
          "internalType": "uint256",
          "name": "",
          "type": "uint256"
        }
      ],
      "stateMutability": "view",
      "type": "function"
    },
    {
      "inputs": [
        {
          "internalType": "uint256",
          "name": "id_",
          "type": "uint256"
        }
      ],
      "name": "getBaseIdFromToken",
      "outputs": [
        {
          "internalType": "uint256",
          "name": "id",
          "type": "uint256"
        }
      ],
      "stateMutability": "pure",
      "type": "function"
    },
    {
      "inputs": [
        {
          "internalType": "address",
          "name": "account",
          "type": "address"
        },
        {
          "internalType": "address",
          "name": "operator",
          "type": "address"
        }
      ],
      "name": "isApprovedForAll",
      "outputs": [
        {
          "internalType": "bool",
          "name": "",
          "type": "bool"
        }
      ],
      "stateMutability": "view",
      "type": "function"
    },
    {
      "inputs": [
        {
          "internalType": "address",
          "name": "creator",
          "type": "address"
        },
        {
          "internalType": "uint256[]",
          "name": "amounts",
          "type": "uint256[]"
        },
        {
          "internalType": "uint8",
          "name": "v",
          "type": "uint8"
        },
        {
          "internalType": "bytes32",
          "name": "r",
          "type": "bytes32"
        },
        {
          "internalType": "bytes32",
          "name": "s",
          "type": "bytes32"
        },
        {
          "internalType": "bytes",
          "name": "data",
          "type": "bytes"
        }
      ],
      "name": "mintBatchSubscription",
      "outputs": [],
      "stateMutability": "nonpayable",
      "type": "function"
    },
    {
      "inputs": [],
      "name": "mintNFT",
      "outputs": [],
      "stateMutability": "nonpayable",
      "type": "function"
    },
    {
      "inputs": [
        {
          "internalType": "address",
          "name": "creator",
          "type": "address"
        },
        {
          "internalType": "uint256",
          "name": "amount",
          "type": "uint256"
        },
        {
          "internalType": "uint8",
          "name": "v",
          "type": "uint8"
        },
        {
          "internalType": "bytes32",
          "name": "r",
          "type": "bytes32"
        },
        {
          "internalType": "bytes32",
          "name": "s",
          "type": "bytes32"
        },
        {
          "internalType": "bytes",
          "name": "data",
          "type": "bytes"
        }
      ],
      "name": "mintSubscription",
      "outputs": [],
      "stateMutability": "nonpayable",
      "type": "function"
    },
    {
      "inputs": [],
      "name": "name",
      "outputs": [
        {
          "internalType": "string",
          "name": "",
          "type": "string"
        }
      ],
      "stateMutability": "view",
      "type": "function"
    },
    {
      "inputs": [
        {
          "internalType": "address",
          "name": "from",
          "type": "address"
        },
        {
          "internalType": "address",
          "name": "to",
          "type": "address"
        },
        {
          "internalType": "uint256[]",
          "name": "ids",
          "type": "uint256[]"
        },
        {
          "internalType": "uint256[]",
          "name": "amounts",
          "type": "uint256[]"
        },
        {
          "internalType": "bytes",
          "name": "data",
          "type": "bytes"
        }
      ],
      "name": "safeBatchTransferFrom",
      "outputs": [],
      "stateMutability": "nonpayable",
      "type": "function"
    },
    {
      "inputs": [
        {
          "internalType": "address",
          "name": "from",
          "type": "address"
        },
        {
          "internalType": "address",
          "name": "to",
          "type": "address"
        },
        {
          "internalType": "uint256",
          "name": "id",
          "type": "uint256"
        },
        {
          "internalType": "uint256",
          "name": "amount",
          "type": "uint256"
        },
        {
          "internalType": "bytes",
          "name": "data",
          "type": "bytes"
        }
      ],
      "name": "safeTransferFrom",
      "outputs": [],
      "stateMutability": "nonpayable",
      "type": "function"
    },
    {
      "inputs": [
        {
          "internalType": "address",
          "name": "operator",
          "type": "address"
        },
        {
          "internalType": "bool",
          "name": "approved",
          "type": "bool"
        }
      ],
      "name": "setApprovalForAll",
      "outputs": [],
      "stateMutability": "nonpayable",
      "type": "function"
    },
    {
      "inputs": [
        {
          "internalType": "uint256",
          "name": "_fee",
          "type": "uint256"
        }
      ],
      "name": "setFee",
      "outputs": [],
      "stateMutability": "nonpayable",
      "type": "function"
    },
    {
      "inputs": [
        {
          "internalType": "address",
          "name": "_master",
          "type": "address"
        }
      ],
      "name": "setMaster",
      "outputs": [],
      "stateMutability": "nonpayable",
      "type": "function"
    },
    {
      "inputs": [
        {
          "internalType": "bytes4",
          "name": "interfaceId",
          "type": "bytes4"
        }
      ],
      "name": "supportsInterface",
      "outputs": [
        {
          "internalType": "bool",
          "name": "",
          "type": "bool"
        }
      ],
      "stateMutability": "view",
      "type": "function"
    },
    {
      "inputs": [
        {
          "internalType": "uint256",
          "name": "",
          "type": "uint256"
        }
      ],
      "name": "tokenIdToCreator",
      "outputs": [
        {
          "internalType": "address",
          "name": "",
          "type": "address"
        }
      ],
      "stateMutability": "view",
      "type": "function"
    },
    {
      "inputs": [
        {
          "internalType": "uint256",
          "name": "",
          "type": "uint256"
        }
      ],
      "name": "tokenIdToNextIndex",
      "outputs": [
        {
          "internalType": "uint256",
          "name": "",
          "type": "uint256"
        }
      ],
      "stateMutability": "view",
      "type": "function"
    },
    {
      "inputs": [
        {
          "internalType": "uint256",
          "name": "",
          "type": "uint256"
        }
      ],
      "name": "tokenIdToPaymentToken",
      "outputs": [
        {
          "internalType": "address",
          "name": "",
          "type": "address"
        }
      ],
      "stateMutability": "view",
      "type": "function"
    },
    {
      "inputs": [
        {
          "internalType": "uint256",
          "name": "",
          "type": "uint256"
        }
      ],
      "name": "tokenIdToPaymentValue",
      "outputs": [
        {
          "internalType": "uint256",
          "name": "",
          "type": "uint256"
        }
      ],
      "stateMutability": "view",
      "type": "function"
    },
    {
      "inputs": [
        {
          "internalType": "uint256",
          "name": "",
          "type": "uint256"
        }
      ],
      "name": "tokenId_ToExectuedNonce",
      "outputs": [
        {
          "internalType": "uint256",
          "name": "",
          "type": "uint256"
        }
      ],
      "stateMutability": "view",
      "type": "function"
    },
    {
      "inputs": [
        {
          "internalType": "uint256",
          "name": "",
          "type": "uint256"
        }
      ],
      "name": "tokenId_ToNextWithdraw",
      "outputs": [
        {
          "internalType": "uint256",
          "name": "",
          "type": "uint256"
        }
      ],
      "stateMutability": "view",
      "type": "function"
    },
    {
      "inputs": [],
      "name": "tokenNonce",
      "outputs": [
        {
          "internalType": "uint256",
          "name": "",
          "type": "uint256"
        }
      ],
      "stateMutability": "view",
      "type": "function"
    },
    {
      "inputs": [
        {
          "internalType": "address",
          "name": "subscriber",
          "type": "address"
        },
        {
          "internalType": "uint256",
          "name": "id_",
          "type": "uint256"
        },
        {
          "internalType": "uint8",
          "name": "v",
          "type": "uint8"
        },
        {
          "internalType": "bytes32",
          "name": "r",
          "type": "bytes32"
        },
        {
          "internalType": "bytes32",
          "name": "s",
          "type": "bytes32"
        }
      ],
      "name": "unSubscribe",
      "outputs": [],
      "stateMutability": "nonpayable",
      "type": "function"
    },
    {
      "inputs": [
        {
          "internalType": "address",
          "name": "newCreator",
          "type": "address"
        },
        {
          "internalType": "uint256",
          "name": "id",
          "type": "uint256"
        },
        {
          "internalType": "uint8",
          "name": "v",
          "type": "uint8"
        },
        {
          "internalType": "bytes32",
          "name": "r",
          "type": "bytes32"
        },
        {
          "internalType": "bytes32",
          "name": "s",
          "type": "bytes32"
        }
      ],
      "name": "updateSubscriptionCreator",
      "outputs": [],
      "stateMutability": "nonpayable",
      "type": "function"
    },
    {
      "inputs": [
        {
          "internalType": "uint256",
          "name": "",
          "type": "uint256"
        }
      ],
      "name": "uri",
      "outputs": [
        {
          "internalType": "string",
          "name": "",
          "type": "string"
        }
      ],
      "stateMutability": "view",
      "type": "function"
    },
    {
      "inputs": [
        {
          "internalType": "address",
          "name": "",
          "type": "address"
        }
      ],
      "name": "userNonce",
      "outputs": [
        {
          "internalType": "uint256",
          "name": "",
          "type": "uint256"
        }
      ],
      "stateMutability": "view",
      "type": "function"
    },
    {
      "inputs": [],
      "name": "version",
      "outputs": [
        {
          "internalType": "string",
          "name": "",
          "type": "string"
        }
      ],
      "stateMutability": "view",
      "type": "function"
    }
  ],
  "bytecode": "0x608060405260056004556001600655617a696008553480156200002157600080fd5b506040518060400160405280600381526020017f5552490000000000000000000000000000000000000000000000000000000000815250620000706301ffc9a760e01b6200022660201b60201c565b62000081816200032f60201b60201c565b6200009963d9b67a2660e01b6200022660201b60201c565b620000b1630e89341c60e01b6200022660201b60201c565b50620000ca63d9b67a2660e01b6200022660201b60201c565b620000e2630e89341c60e01b6200022660201b60201c565b7f8b73c3c69bb8fe3d512ecc4cf759cc79239f7b179b0ffacaa9a75d522b39400f6040518060400160405280601381526020017f5175616c6c6120537562736372697074696f6e00000000000000000000000000815250805190602001206040518060400160405280600181526020017f31000000000000000000000000000000000000000000000000000000000000008152508051906020012060085430604051602001808681526020018581526020018481526020018381526020018273ffffffffffffffffffffffffffffffffffffffff168152602001955050505050506040516020818303038152906040528051906020012060078190555033600560006101000a81548173ffffffffffffffffffffffffffffffffffffffff021916908373ffffffffffffffffffffffffffffffffffffffff160217905550620003f1565b63ffffffff60e01b817bffffffffffffffffffffffffffffffffffffffffffffffffffffffff19161415620002c3576040517f08c379a000000000000000000000000000000000000000000000000000000000815260040180806020018281038252601c8152602001807f4552433136353a20696e76616c696420696e746572666163652069640000000081525060200191505060405180910390fd5b6001600080837bffffffffffffffffffffffffffffffffffffffffffffffffffffffff19167bffffffffffffffffffffffffffffffffffffffffffffffffffffffff1916815260200190815260200160002060006101000a81548160ff02191690831515021790555050565b8060039080519060200190620003479291906200034b565b5050565b828054600181600116156101000203166002900490600052602060002090601f016020900481019282601f106200038e57805160ff1916838001178555620003bf565b82800160010185558215620003bf579182015b82811115620003be578251825591602001919060010190620003a1565b5b509050620003ce9190620003d2565b5090565b5b80821115620003ed576000816000905550600101620003d3565b5090565b61530480620004016000396000f3fe608060405234801561001057600080fd5b50600436106101fa5760003560e01c806354fd4d501161011a578063a22cb465116100ad578063e1c7bc0a1161007c578063e1c7bc0a14610f6a578063e985e9c514610fac578063ede54d0214611026578063f242432a1461107e578063f73b43a81461118d576101fa565b8063a22cb46514610e4b578063b166acd114610e9b578063ddca3f4314610f0a578063e0be313f14610f28576101fa565b806395fbbf50116100e957806395fbbf5014610d4457806397cf700314610d9d5780639a8a059214610ddf5780639eb9abde14610dfd576101fa565b806354fd4d5014610ae557806369fe0e2d14610b6857806377b7b88d14610b9657806390f71b4414610d26576101fa565b806326fae0d311610192578063366c392911610161578063366c3929146107ba5780633fbde260146108c05780634e1273f41461090257806353e2717314610aa3576101fa565b806326fae0d3146104dd5780632e04b8e7146105215780632eb2c2d6146105795780633644e5151461079c576101fa565b80630e89341c116101ce5780630e89341c146103b657806314f710fe1461045d5780631add3108146104675780631d059bbb14610485576101fa565b8062fdd58e146101ff57806301ffc9a71461026157806302c561d8146102c457806306fdde0314610333575b600080fd5b61024b6004803603604081101561021557600080fd5b81019080803573ffffffffffffffffffffffffffffffffffffffff169060200190929190803590602001909291905050506111fc565b6040518082815260200191505060405180910390f35b6102ac6004803603602081101561027757600080fd5b8101908080357bffffffffffffffffffffffffffffffffffffffffffffffffffffffff191690602001909291905050506112dc565b60405180821515815260200191505060405180910390f35b610331600480360360a08110156102da57600080fd5b81019080803573ffffffffffffffffffffffffffffffffffffffff16906020019092919080359060200190929190803560ff1690602001909291908035906020019092919080359060200190929190505050611343565b005b61033b6115a8565b6040518080602001828103825283818151815260200191508051906020019080838360005b8381101561037b578082015181840152602081019050610360565b50505050905090810190601f1680156103a85780820380516001836020036101000a031916815260200191505b509250505060405180910390f35b6103e2600480360360208110156103cc57600080fd5b81019080803590602001909291905050506115e1565b6040518080602001828103825283818151815260200191508051906020019080838360005b83811015610422578082015181840152602081019050610407565b50505050905090810190601f16801561044f5780820380516001836020036101000a031916815260200191505b509250505060405180910390f35b610465611685565b005b61046f6116f8565b6040518082815260200191505060405180910390f35b6104b16004803603602081101561049b57600080fd5b810190808035906020019092919050505061171c565b604051808273ffffffffffffffffffffffffffffffffffffffff16815260200191505060405180910390f35b61051f600480360360208110156104f357600080fd5b81019080803573ffffffffffffffffffffffffffffffffffffffff16906020019092919050505061174f565b005b6105636004803603602081101561053757600080fd5b81019080803573ffffffffffffffffffffffffffffffffffffffff1690602001909291905050506118cf565b6040518082815260200191505060405180910390f35b61079a600480360360a081101561058f57600080fd5b81019080803573ffffffffffffffffffffffffffffffffffffffff169060200190929190803573ffffffffffffffffffffffffffffffffffffffff169060200190929190803590602001906401000000008111156105ec57600080fd5b8201836020820111156105fe57600080fd5b8035906020019184602083028401116401000000008311171561062057600080fd5b919080806020026020016040519081016040528093929190818152602001838360200280828437600081840152601f19601f8201169050808301925050505050505091929192908035906020019064010000000081111561068057600080fd5b82018360208201111561069257600080fd5b803590602001918460208302840111640100000000831117156106b457600080fd5b919080806020026020016040519081016040528093929190818152602001838360200280828437600081840152601f19601f8201169050808301925050505050505091929192908035906020019064010000000081111561071457600080fd5b82018360208201111561072657600080fd5b8035906020019184600183028401116401000000008311171561074857600080fd5b91908080601f016020809104026020016040519081016040528093929190818152602001838380828437600081840152601f19601f8201169050808301925050505050505091929192905050506118e7565b005b6107a4611ccf565b6040518082815260200191505060405180910390f35b6108be600480360360c08110156107d057600080fd5b81019080803573ffffffffffffffffffffffffffffffffffffffff16906020019092919080359060200190929190803560ff16906020019092919080359060200190929190803590602001909291908035906020019064010000000081111561083857600080fd5b82018360208201111561084a57600080fd5b8035906020019184600183028401116401000000008311171561086c57600080fd5b91908080601f016020809104026020016040519081016040528093929190818152602001838380828437600081840152601f19601f820116905080830192505050505050509192919290505050611cd5565b005b6108ec600480360360208110156108d657600080fd5b8101908080359060200190929190505050611dab565b6040518082815260200191505060405180910390f35b610a4c6004803603604081101561091857600080fd5b810190808035906020019064010000000081111561093557600080fd5b82018360208201111561094757600080fd5b8035906020019184602083028401116401000000008311171561096957600080fd5b919080806020026020016040519081016040528093929190818152602001838360200280828437600081840152601f19601f820116905080830192505050505050509192919290803590602001906401000000008111156109c957600080fd5b8201836020820111156109db57600080fd5b803590602001918460208302840111640100000000831117156109fd57600080fd5b919080806020026020016040519081016040528093929190818152602001838360200280828437600081840152601f19601f820116905080830192505050505050509192919290505050611dc3565b6040518080602001828103825283818151815260200191508051906020019060200280838360005b83811015610a8f578082015181840152602081019050610a74565b505050509050019250505060405180910390f35b610acf60048036036020811015610ab957600080fd5b8101908080359060200190929190505050611fb5565b6040518082815260200191505060405180910390f35b610aed61211b565b6040518080602001828103825283818151815260200191508051906020019080838360005b83811015610b2d578082015181840152602081019050610b12565b50505050905090810190601f168015610b5a5780820380516001836020036101000a031916815260200191505b509250505060405180910390f35b610b9460048036036020811015610b7e57600080fd5b8101908080359060200190929190505050612154565b005b610d24600480360360c0811015610bac57600080fd5b81019080803573ffffffffffffffffffffffffffffffffffffffff16906020019092919080359060200190640100000000811115610be957600080fd5b820183602082011115610bfb57600080fd5b80359060200191846020830284011164010000000083111715610c1d57600080fd5b919080806020026020016040519081016040528093929190818152602001838360200280828437600081840152601f19601f820116905080830192505050505050509192919290803560ff169060200190929190803590602001909291908035906020019092919080359060200190640100000000811115610c9e57600080fd5b820183602082011115610cb057600080fd5b80359060200191846001830284011164010000000083111715610cd257600080fd5b91908080601f016020809104026020016040519081016040528093929190818152602001838380828437600081840152601f19601f820116905080830192505050505050509192919290505050612311565b005b610d2e61248d565b6040518082815260200191505060405180910390f35b610d9b600480360360a0811015610d5a57600080fd5b810190808035906020019092919080359060200190929190803560ff1690602001909291908035906020019092919080359060200190929190505050612493565b005b610dc960048036036020811015610db357600080fd5b8101908080359060200190929190505050612645565b6040518082815260200191505060405180910390f35b610de761265d565b6040518082815260200191505060405180910390f35b610e4960048036036040811015610e1357600080fd5b8101908080359060200190929190803573ffffffffffffffffffffffffffffffffffffffff169060200190929190505050612663565b005b610e9960048036036040811015610e6157600080fd5b81019080803573ffffffffffffffffffffffffffffffffffffffff169060200190929190803515159060200190929190505050612ca6565b005b610f08600480360360a0811015610eb157600080fd5b81019080803573ffffffffffffffffffffffffffffffffffffffff16906020019092919080359060200190929190803560ff1690602001909291908035906020019092919080359060200190929190505050612e3f565b005b610f12613046565b6040518082815260200191505060405180910390f35b610f5460048036036020811015610f3e57600080fd5b810190808035906020019092919050505061304c565b6040518082815260200191505060405180910390f35b610f9660048036036020811015610f8057600080fd5b8101908080359060200190929190505050613064565b6040518082815260200191505060405180910390f35b61100e60048036036040811015610fc257600080fd5b81019080803573ffffffffffffffffffffffffffffffffffffffff169060200190929190803573ffffffffffffffffffffffffffffffffffffffff16906020019092919050505061307c565b60405180821515815260200191505060405180910390f35b6110526004803603602081101561103c57600080fd5b8101908080359060200190929190505050613110565b604051808273ffffffffffffffffffffffffffffffffffffffff16815260200191505060405180910390f35b61118b600480360360a081101561109457600080fd5b81019080803573ffffffffffffffffffffffffffffffffffffffff169060200190929190803573ffffffffffffffffffffffffffffffffffffffff16906020019092919080359060200190929190803590602001909291908035906020019064010000000081111561110557600080fd5b82018360208201111561111757600080fd5b8035906020019184600183028401116401000000008311171561113957600080fd5b91908080601f016020809104026020016040519081016040528093929190818152602001838380828437600081840152601f19601f820116905080830192505050505050509192919290505050613143565b005b6111fa600480360360a08110156111a357600080fd5b81019080803573ffffffffffffffffffffffffffffffffffffffff16906020019092919080359060200190929190803560ff1690602001909291908035906020019092919080359060200190929190505050613415565b005b60008073ffffffffffffffffffffffffffffffffffffffff168373ffffffffffffffffffffffffffffffffffffffff161415611283576040517f08c379a000000000000000000000000000000000000000000000000000000000815260040180806020018281038252602b815260200180615100602b913960400191505060405180910390fd5b6001600083815260200190815260200160002060008473ffffffffffffffffffffffffffffffffffffffff1673ffffffffffffffffffffffffffffffffffffffff16815260200190815260200160002054905092915050565b6000806000837bffffffffffffffffffffffffffffffffffffffffffffffffffffffff19167bffffffffffffffffffffffffffffffffffffffffffffffffffffffff1916815260200190815260200160002060009054906101000a900460ff169050919050565b60007f80000000000000000000000000000000000000000000000000000000000000008516146113db576040517f08c379a00000000000000000000000000000000000000000000000000000000081526004018080602001828103825260178152602001807f5175616c6c612f57726f6e672d546f6b656e2d5479706500000000000000000081525060200191505060405180910390fd5b60007fffffffffffffffffffffffffffffffffffffffffffffffffffffffffffffffff6fffffffffffffffffffffffffffffffff16851614611468576040517f08c379a00000000000000000000000000000000000000000000000000000000081526004018080602001828103825260218152602001806152136021913960400191505060405180910390fd5b6000600d600086815260200190815260200160002060009054906101000a900473ffffffffffffffffffffffffffffffffffffffff1690506114e2816040518060400160405280600681526020017f7570646174650000000000000000000000000000000000000000000000000000815250868686613902565b61154e818787600160008a815260200190815260200160002060008673ffffffffffffffffffffffffffffffffffffffff1673ffffffffffffffffffffffffffffffffffffffff1681526020019081526020016000205460405180602001604052806000815250613143565b85600d600087815260200190815260200160002060006101000a81548173ffffffffffffffffffffffffffffffffffffffff021916908373ffffffffffffffffffffffffffffffffffffffff160217905550505050505050565b6040518060400160405280601381526020017f5175616c6c6120537562736372697074696f6e0000000000000000000000000081525081565b606060038054600181600116156101000203166002900480601f0160208091040260200160405190810160405280929190818152602001828054600181600116156101000203166002900480156116795780601f1061164e57610100808354040283529160200191611679565b820191906000526020600020905b81548152906001019060200180831161165c57829003601f168201915b50505050509050919050565b60006080600654901b90507fffffffffffffffffffffffffffffffffffffffffffffffffffffffffffffffff6fffffffffffffffffffffffffffffffff16811790506116e33382600160405180602001604052806000815250613b74565b60066000815480929190600101919050555050565b7f58110846b49f70e49168dab9f7743d70e8da96a3773a194c36bcb67faf9bbdc581565b600d6020528060005260406000206000915054906101000a900473ffffffffffffffffffffffffffffffffffffffff1681565b600560009054906101000a900473ffffffffffffffffffffffffffffffffffffffff1673ffffffffffffffffffffffffffffffffffffffff163373ffffffffffffffffffffffffffffffffffffffff1614611812576040517f08c379a00000000000000000000000000000000000000000000000000000000081526004018080602001828103825260098152602001807f464f5242494444454e000000000000000000000000000000000000000000000081525060200191505060405180910390fd5b80600560006101000a81548173ffffffffffffffffffffffffffffffffffffffff021916908373ffffffffffffffffffffffffffffffffffffffff1602179055507f7e0a74b35d445065e31b4bb43f5c458582046e0b718b9a56e261d5b1b22a3fc3600560009054906101000a900473ffffffffffffffffffffffffffffffffffffffff16600454604051808373ffffffffffffffffffffffffffffffffffffffff1681526020018281526020019250505060405180910390a150565b600e6020528060005260406000206000915090505481565b8151835114611941576040517f08c379a00000000000000000000000000000000000000000000000000000000081526004018080602001828103825260288152602001806152866028913960400191505060405180910390fd5b600073ffffffffffffffffffffffffffffffffffffffff168473ffffffffffffffffffffffffffffffffffffffff1614156119c7576040517f08c379a00000000000000000000000000000000000000000000000000000000081526004018080602001828103825260258152602001806151806025913960400191505060405180910390fd5b60006119d1613d68565b90506119e1818787878787613d70565b60005b8451811015611bb25760008582815181106119fb57fe5b602002602001015190506000858381518110611a1357fe5b60200260200101519050611a9a816040518060600160405280602a81526020016151c8602a91396001600086815260200190815260200160002060008d73ffffffffffffffffffffffffffffffffffffffff1673ffffffffffffffffffffffffffffffffffffffff16815260200190815260200160002054613d789092919063ffffffff16565b6001600084815260200190815260200160002060008b73ffffffffffffffffffffffffffffffffffffffff1673ffffffffffffffffffffffffffffffffffffffff16815260200190815260200160002081905550611b51816001600085815260200190815260200160002060008b73ffffffffffffffffffffffffffffffffffffffff1673ffffffffffffffffffffffffffffffffffffffff16815260200190815260200160002054613e3890919063ffffffff16565b6001600084815260200190815260200160002060008a73ffffffffffffffffffffffffffffffffffffffff1673ffffffffffffffffffffffffffffffffffffffff1681526020019081526020016000208190555050508060010190506119e4565b508473ffffffffffffffffffffffffffffffffffffffff168673ffffffffffffffffffffffffffffffffffffffff168273ffffffffffffffffffffffffffffffffffffffff167f4a39dc06d4c0dbc64b70af90fd698a233a518aa5d07e595d983b8c0526c8f7fb8787604051808060200180602001838103835285818151815260200191508051906020019060200280838360005b83811015611c62578082015181840152602081019050611c47565b50505050905001838103825284818151815260200191508051906020019060200280838360005b83811015611ca4578082015181840152602081019050611c89565b5050505090500194505050505060405180910390a4611cc7818787878787613ec0565b505050505050565b60075481565b611d17866040518060400160405280600481526020017f6d696e7400000000000000000000000000000000000000000000000000000000815250868686613902565b6000851415611d44577fffffffffffffffffffffffffffffffffffffffffffffffffffffffffffffffff94505b60006080600654901b9050611d6b611d5b8261424f565b88611d658961424f565b856142bf565b611d7787828885613b74565b6006600081548092919060010191905055506001600c60008381526020019081526020016000208190555050505050505050565b600c6020528060005260406000206000915090505481565b60608151835114611e1f576040517f08c379a000000000000000000000000000000000000000000000000000000000815260040180806020018281038252602981526020018061525d6029913960400191505060405180910390fd5b6060835167ffffffffffffffff81118015611e3957600080fd5b50604051908082528060200260200182016040528015611e685781602001602082028036833780820191505090505b50905060005b8451811015611faa57600073ffffffffffffffffffffffffffffffffffffffff16858281518110611e9b57fe5b602002602001015173ffffffffffffffffffffffffffffffffffffffff161415611f10576040517f08c379a000000000000000000000000000000000000000000000000000000000815260040180806020018281038252603181526020018061512b6031913960400191505060405180910390fd5b60016000858381518110611f2057fe5b602002602001015181526020019081526020016000206000868381518110611f4457fe5b602002602001015173ffffffffffffffffffffffffffffffffffffffff1673ffffffffffffffffffffffffffffffffffffffff16815260200190815260200160002054828281518110611f9357fe5b602002602001018181525050806001019050611e6e565b508091505092915050565b6000807f800000000000000000000000000000000000000000000000000000000000000083161461204e576040517f08c379a00000000000000000000000000000000000000000000000000000000081526004018080602001828103825260178152602001807f5175616c6c612f57726f6e672d546f6b656e2d5479706500000000000000000081525060200191505060405180910390fd5b60007fffffffffffffffffffffffffffffffffffffffffffffffffffffffffffffffff6fffffffffffffffffffffffffffffffff168316116120db576040517f08c379a00000000000000000000000000000000000000000000000000000000081526004018080602001828103825260218152602001806152136021913960400191505060405180910390fd5b60807fffffffffffffffffffffffffffffffffffffffffffffffffffffffffffffffff6fffffffffffffffffffffffffffffffff16901b82169050919050565b6040518060400160405280600181526020017f310000000000000000000000000000000000000000000000000000000000000081525081565b600560009054906101000a900473ffffffffffffffffffffffffffffffffffffffff1673ffffffffffffffffffffffffffffffffffffffff163373ffffffffffffffffffffffffffffffffffffffff1614612217576040517f08c379a00000000000000000000000000000000000000000000000000000000081526004018080602001828103825260098152602001807f464f5242494444454e000000000000000000000000000000000000000000000081525060200191505060405180910390fd5b600454811061228e576040517f08c379a00000000000000000000000000000000000000000000000000000000081526004018080602001828103825260148152602001807f494e56414c49442046454520494e43524541534500000000000000000000000081525060200191505060405180910390fd5b806004819055507f7e0a74b35d445065e31b4bb43f5c458582046e0b718b9a56e261d5b1b22a3fc3600560009054906101000a900473ffffffffffffffffffffffffffffffffffffffff16600454604051808373ffffffffffffffffffffffffffffffffffffffff1681526020018281526020019250505060405180910390a150565b612353866040518060400160405280600481526020017f6d696e7400000000000000000000000000000000000000000000000000000000815250868686613902565b6060855167ffffffffffffffff8111801561236d57600080fd5b5060405190808252806020026020018201604052801561239c5781602001602082028036833780820191505090505b50905060005b865181101561246b5760008782815181106123b957fe5b60200260200101511415612401577fffffffffffffffffffffffffffffffffffffffffffffffffffffffffffffffff8782815181106123f457fe5b6020026020010181815250505b6080600654901b82828151811061241457fe5b6020026020010181815250506006600081548092919060010191905055506001600c600084848151811061244457fe5b602002602001015181526020019081526020016000208190555080806001019150506123a2565b50612478818888856142bf565b612484878288856145db565b50505050505050565b60065481565b60007f800000000000000000000000000000000000000000000000000000000000000086161461252b576040517f08c379a00000000000000000000000000000000000000000000000000000000081526004018080602001828103825260178152602001807f5175616c6c612f57726f6e672d546f6b656e2d5479706500000000000000000081525060200191505060405180910390fd5b60007fffffffffffffffffffffffffffffffffffffffffffffffffffffffffffffffff6fffffffffffffffffffffffffffffffff168616146125b8576040517f08c379a00000000000000000000000000000000000000000000000000000000081526004018080602001828103825260218152602001806152136021913960400191505060405180910390fd5b6000600d600087815260200190815260200160002060009054906101000a900473ffffffffffffffffffffffffffffffffffffffff169050612632816040518060400160405280600481526020017f6275726e00000000000000000000000000000000000000000000000000000000815250868686613902565b61263d8187876148fd565b505050505050565b600f6020528060005260406000206000915090505481565b60085481565b60007f80000000000000000000000000000000000000000000000000000000000000008316146126fb576040517f08c379a00000000000000000000000000000000000000000000000000000000081526004018080602001828103825260178152602001807f5175616c6c612f57726f6e672d546f6b656e2d5479706500000000000000000081525060200191505060405180910390fd5b60007fffffffffffffffffffffffffffffffffffffffffffffffffffffffffffffffff6fffffffffffffffffffffffffffffffff16831611612788576040517f08c379a00000000000000000000000000000000000000000000000000000000081526004018080602001828103825260218152602001806152136021913960400191505060405180910390fd5b600180600084815260200190815260200160002060008373ffffffffffffffffffffffffffffffffffffffff1673ffffffffffffffffffffffffffffffffffffffff168152602001908152602001600020541461284d576040517f08c379a00000000000000000000000000000000000000000000000000000000081526004018080602001828103825260198152602001807f5175616c6c612f496e76616c69642d537562736372696265720000000000000081525060200191505060405180910390fd5b42600b600084815260200190815260200160002054106128d5576040517f08c379a000000000000000000000000000000000000000000000000000000000815260040180806020018281038252601d8152602001807f5175616c6c612f537562736372697074696f6e2d4e6f742d526561647900000081525060200191505060405180910390fd5b600060807fffffffffffffffffffffffffffffffffffffffffffffffffffffffffffffffff6fffffffffffffffffffffffffffffffff16901b831690506000600d600083815260200190815260200160002060009054906101000a900473ffffffffffffffffffffffffffffffffffffffff1690506000600a600084815260200190815260200160002060009054906101000a900473ffffffffffffffffffffffffffffffffffffffff1690506000600960008581526020019081526020016000205490506000600f6000888152602001908152602001600020549050600481106129e7576129c6868860016148fd565b6129e28486600160405180602001604052806000815250613b74565b612a0b565b600f6000868152602001908152602001600020600081548092919060010191905055505b600060045460640390508373ffffffffffffffffffffffffffffffffffffffff166323b872dd8887612a596064612a4b878a614b1990919063ffffffff16565b614b9f90919063ffffffff16565b6040518463ffffffff1660e01b8152600401808473ffffffffffffffffffffffffffffffffffffffff1681526020018373ffffffffffffffffffffffffffffffffffffffff1681526020018281526020019350505050602060405180830381600087803b158015612ac957600080fd5b505af1925050508015612afd57506040513d6020811015612ae957600080fd5b810190808051906020019092919050505060015b612b3457612b0d878960016148fd565b612b298587600160405180602001604052806000815250613b74565b505050505050612ca2565b508373ffffffffffffffffffffffffffffffffffffffff166323b872dd88600560009054906101000a900473ffffffffffffffffffffffffffffffffffffffff16612b9d6064612b8f6004548a614b1990919063ffffffff16565b614b9f90919063ffffffff16565b6040518463ffffffff1660e01b8152600401808473ffffffffffffffffffffffffffffffffffffffff1681526020018373ffffffffffffffffffffffffffffffffffffffff1681526020018281526020019350505050602060405180830381600087803b158015612c0d57600080fd5b505af1925050508015612c4157506040513d6020811015612c2d57600080fd5b810190808051906020019092919050505060015b612c7857612c51878960016148fd565b612c6d8587600160405180602001604052806000815250613b74565b505050505050612ca2565b50600f600b60008a8152602001908152602001600020600082825401925050819055505050505050505b5050565b8173ffffffffffffffffffffffffffffffffffffffff16612cc5613d68565b73ffffffffffffffffffffffffffffffffffffffff161415612d32576040517f08c379a00000000000000000000000000000000000000000000000000000000081526004018080602001828103825260298152602001806152346029913960400191505060405180910390fd5b8060026000612d3f613d68565b73ffffffffffffffffffffffffffffffffffffffff1673ffffffffffffffffffffffffffffffffffffffff16815260200190815260200160002060008473ffffffffffffffffffffffffffffffffffffffff1673ffffffffffffffffffffffffffffffffffffffff16815260200190815260200160002060006101000a81548160ff0219169083151502179055508173ffffffffffffffffffffffffffffffffffffffff16612dec613d68565b73ffffffffffffffffffffffffffffffffffffffff167f17307eab39ab6107e8899845ad3d59bd9653f200f220920489ca2b5937696c318360405180821515815260200191505060405180910390a35050565b60007f8000000000000000000000000000000000000000000000000000000000000000851614612ed7576040517f08c379a00000000000000000000000000000000000000000000000000000000081526004018080602001828103825260178152602001807f5175616c6c612f57726f6e672d546f6b656e2d5479706500000000000000000081525060200191505060405180910390fd5b60007fffffffffffffffffffffffffffffffffffffffffffffffffffffffffffffffff6fffffffffffffffffffffffffffffffff16851611612f64576040517f08c379a00000000000000000000000000000000000000000000000000000000081526004018080602001828103825260218152602001806152136021913960400191505060405180910390fd5b612fa6856040518060400160405280600b81526020017f756e737562736372696265000000000000000000000000000000000000000000815250858585613902565b600060807fffffffffffffffffffffffffffffffffffffffffffffffffffffffffffffffff6fffffffffffffffffffffffffffffffff16901b85169050612fef868660016148fd565b61303e600d600083815260200190815260200160002060009054906101000a900473ffffffffffffffffffffffffffffffffffffffff1682600160405180602001604052806000815250613b74565b505050505050565b60045481565b60096020528060005260406000206000915090505481565b600b6020528060005260406000206000915090505481565b6000600260008473ffffffffffffffffffffffffffffffffffffffff1673ffffffffffffffffffffffffffffffffffffffff16815260200190815260200160002060008373ffffffffffffffffffffffffffffffffffffffff1673ffffffffffffffffffffffffffffffffffffffff16815260200190815260200160002060009054906101000a900460ff16905092915050565b600a6020528060005260406000206000915054906101000a900473ffffffffffffffffffffffffffffffffffffffff1681565b600073ffffffffffffffffffffffffffffffffffffffff168473ffffffffffffffffffffffffffffffffffffffff1614156131c9576040517f08c379a00000000000000000000000000000000000000000000000000000000081526004018080602001828103825260258152602001806151806025913960400191505060405180910390fd5b60006131d3613d68565b90506131f38187876131e48861424f565b6131ed8861424f565b87613d70565b613270836040518060600160405280602a81526020016151c8602a91396001600088815260200190815260200160002060008a73ffffffffffffffffffffffffffffffffffffffff1673ffffffffffffffffffffffffffffffffffffffff16815260200190815260200160002054613d789092919063ffffffff16565b6001600086815260200190815260200160002060008873ffffffffffffffffffffffffffffffffffffffff1673ffffffffffffffffffffffffffffffffffffffff16815260200190815260200160002081905550613327836001600087815260200190815260200160002060008873ffffffffffffffffffffffffffffffffffffffff1673ffffffffffffffffffffffffffffffffffffffff16815260200190815260200160002054613e3890919063ffffffff16565b6001600086815260200190815260200160002060008773ffffffffffffffffffffffffffffffffffffffff1673ffffffffffffffffffffffffffffffffffffffff168152602001908152602001600020819055508473ffffffffffffffffffffffffffffffffffffffff168673ffffffffffffffffffffffffffffffffffffffff168273ffffffffffffffffffffffffffffffffffffffff167fc3d58168c5ae7397731d063d5bbf3d657854427343f4c083240f7aacaa2d0f628787604051808381526020018281526020019250505060405180910390a461340d818787878787614be9565b505050505050565b60007f80000000000000000000000000000000000000000000000000000000000000008516146134ad576040517f08c379a00000000000000000000000000000000000000000000000000000000081526004018080602001828103825260178152602001807f5175616c6c612f57726f6e672d546f6b656e2d5479706500000000000000000081525060200191505060405180910390fd5b60007fffffffffffffffffffffffffffffffffffffffffffffffffffffffffffffffff6fffffffffffffffffffffffffffffffff1685161461353a576040517f08c379a00000000000000000000000000000000000000000000000000000000081526004018080602001828103825260218152602001806152136021913960400191505060405180910390fd5b6009600085815260200190815260200160002054600a600086815260200190815260200160002060009054906101000a900473ffffffffffffffffffffffffffffffffffffffff1673ffffffffffffffffffffffffffffffffffffffff166370a08231876040518263ffffffff1660e01b8152600401808273ffffffffffffffffffffffffffffffffffffffff16815260200191505060206040518083038186803b1580156135e857600080fd5b505afa1580156135fc573d6000803e3d6000fd5b505050506040513d602081101561361257600080fd5b810190808051906020019092919050505011613696576040517f08c379a000000000000000000000000000000000000000000000000000000000815260040180806020018281038252601b8152602001807f5175616c6c612f496e73756666696369656e742d42616c616e6365000000000081525060200191505060405180910390fd5b6009600085815260200190815260200160002054600a600086815260200190815260200160002060009054906101000a900473ffffffffffffffffffffffffffffffffffffffff1673ffffffffffffffffffffffffffffffffffffffff1663dd62ed3e87306040518363ffffffff1660e01b8152600401808373ffffffffffffffffffffffffffffffffffffffff1681526020018273ffffffffffffffffffffffffffffffffffffffff1681526020019250505060206040518083038186803b15801561376257600080fd5b505afa158015613776573d6000803e3d6000fd5b505050506040513d602081101561378c57600080fd5b810190808051906020019092919050505011613810576040517f08c379a000000000000000000000000000000000000000000000000000000000815260040180806020018281038252601d8152602001807f5175616c6c612f496e73756666696369656e742d416c6c6f77616e636500000081525060200191505060405180910390fd5b613852856040518060400160405280600981526020017f7375627363726962650000000000000000000000000000000000000000000000815250858585613902565b6000600c6000868152602001908152602001600020549050600081861790506138b0600d600088815260200190815260200160002060009054906101000a900473ffffffffffffffffffffffffffffffffffffffff168760016148fd565b6138cc8782600160405180602001604052806000815250613b74565b600c6000878152602001908152602001600020600081548092919060010191905055506138f98188612663565b50505050505050565b60006007547f58110846b49f70e49168dab9f7743d70e8da96a3773a194c36bcb67faf9bbdc587600e60008a73ffffffffffffffffffffffffffffffffffffffff1673ffffffffffffffffffffffffffffffffffffffff168152602001908152602001600020548880519060200120604051602001808581526020018473ffffffffffffffffffffffffffffffffffffffff1681526020018381526020018281526020019450505050506040516020818303038152906040528051906020012060405160200180807f19010000000000000000000000000000000000000000000000000000000000008152506002018381526020018281526020019250505060405160208183030381529060405280519060200120905060018185858560405160008152602001604052604051808581526020018460ff1681526020018381526020018281526020019450505050506020604051602081039080840390855afa158015613a73573d6000803e3d6000fd5b5050506020604051035173ffffffffffffffffffffffffffffffffffffffff168673ffffffffffffffffffffffffffffffffffffffff1614613b1d576040517f08c379a00000000000000000000000000000000000000000000000000000000081526004018080602001828103825260158152602001807f5175616c6c612f696e76616c69642d7065726d6974000000000000000000000081525060200191505060405180910390fd5b600e60008773ffffffffffffffffffffffffffffffffffffffff1673ffffffffffffffffffffffffffffffffffffffff16815260200190815260200160002060008154809291906001019190505550505050505050565b600073ffffffffffffffffffffffffffffffffffffffff168473ffffffffffffffffffffffffffffffffffffffff161415613bfa576040517f08c379a00000000000000000000000000000000000000000000000000000000081526004018080602001828103825260218152602001806152ae6021913960400191505060405180910390fd5b6000613c04613d68565b9050613c2581600087613c168861424f565b613c1f8861424f565b87613d70565b613c88836001600087815260200190815260200160002060008873ffffffffffffffffffffffffffffffffffffffff1673ffffffffffffffffffffffffffffffffffffffff16815260200190815260200160002054613e3890919063ffffffff16565b6001600086815260200190815260200160002060008773ffffffffffffffffffffffffffffffffffffffff1673ffffffffffffffffffffffffffffffffffffffff168152602001908152602001600020819055508473ffffffffffffffffffffffffffffffffffffffff16600073ffffffffffffffffffffffffffffffffffffffff168273ffffffffffffffffffffffffffffffffffffffff167fc3d58168c5ae7397731d063d5bbf3d657854427343f4c083240f7aacaa2d0f628787604051808381526020018281526020019250505060405180910390a45050505050565b600033905090565b505050505050565b6000838311158290613e25576040517f08c379a00000000000000000000000000000000000000000000000000000000081526004018080602001828103825283818151815260200191508051906020019080838360005b83811015613dea578082015181840152602081019050613dcf565b50505050905090810190601f168015613e175780820380516001836020036101000a031916815260200191505b509250505060405180910390fd5b5060008385039050809150509392505050565b600080828401905083811015613eb6576040517f08c379a000000000000000000000000000000000000000000000000000000000815260040180806020018281038252601b8152602001807f536166654d6174683a206164646974696f6e206f766572666c6f77000000000081525060200191505060405180910390fd5b8091505092915050565b613edf8473ffffffffffffffffffffffffffffffffffffffff16614ef6565b15614247578373ffffffffffffffffffffffffffffffffffffffff1663bc197c8187878686866040518663ffffffff1660e01b8152600401808673ffffffffffffffffffffffffffffffffffffffff1681526020018573ffffffffffffffffffffffffffffffffffffffff168152602001806020018060200180602001848103845287818151815260200191508051906020019060200280838360005b83811015613f97578082015181840152602081019050613f7c565b50505050905001848103835286818151815260200191508051906020019060200280838360005b83811015613fd9578082015181840152602081019050613fbe565b50505050905001848103825285818151815260200191508051906020019080838360005b83811015614018578082015181840152602081019050613ffd565b50505050905090810190601f1680156140455780820380516001836020036101000a031916815260200191505b5098505050505050505050602060405180830381600087803b15801561406a57600080fd5b505af192505050801561409e57506040513d602081101561408a57600080fd5b810190808051906020019092919050505060015b6141a8576140aa614fed565b806140b55750614157565b806040517f08c379a00000000000000000000000000000000000000000000000000000000081526004018080602001828103825283818151815260200191508051906020019080838360005b8381101561411c578082015181840152602081019050614101565b50505050905090810190601f1680156141495780820380516001836020036101000a031916815260200191505b509250505060405180910390fd5b6040517f08c379a00000000000000000000000000000000000000000000000000000000081526004018080602001828103825260348152602001806150a46034913960400191505060405180910390fd5b63bc197c8160e01b7bffffffffffffffffffffffffffffffffffffffffffffffffffffffff1916817bffffffffffffffffffffffffffffffffffffffffffffffffffffffff191614614245576040517f08c379a00000000000000000000000000000000000000000000000000000000081526004018080602001828103825260288152602001806150d86028913960400191505060405180910390fd5b505b505050505050565b606080600167ffffffffffffffff8111801561426a57600080fd5b506040519080825280602002602001820160405280156142995781602001602082028036833780820191505090505b50905082816000815181106142aa57fe5b60200260200101818152505080915050919050565b6060845167ffffffffffffffff811180156142d957600080fd5b506040519080825280602002602001820160405280156143085781602001602082028036833780820191505090505b5090506060855167ffffffffffffffff8111801561432557600080fd5b506040519080825280602002602001820160405280156143545781602001602082028036833780820191505090505b50905082806020019051604081101561436c57600080fd5b810190808051604051939291908464010000000082111561438c57600080fd5b838201915060208201858111156143a257600080fd5b82518660208202830111640100000000821117156143bf57600080fd5b8083526020830192505050908051906020019060200280838360005b838110156143f65780820151818401526020810190506143db565b505050509050016040526020018051604051939291908464010000000082111561441f57600080fd5b8382019150602082018581111561443557600080fd5b825186602082028301116401000000008211171561445257600080fd5b8083526020830192505050908051906020019060200280838360005b8381101561448957808201518184015260208101905061446e565b50505050905001604052505050809250819350505060005b86518110156145d2578181815181106144b657fe5b6020026020010151600960008984815181106144ce57fe5b60200260200101518152602001908152602001600020819055508281815181106144f457fe5b6020026020010151600a600089848151811061450c57fe5b6020026020010151815260200190815260200160002060006101000a81548173ffffffffffffffffffffffffffffffffffffffff021916908373ffffffffffffffffffffffffffffffffffffffff16021790555085600d600089848151811061457157fe5b6020026020010151815260200190815260200160002060006101000a81548173ffffffffffffffffffffffffffffffffffffffff021916908373ffffffffffffffffffffffffffffffffffffffff16021790555080806001019150506144a1565b50505050505050565b600073ffffffffffffffffffffffffffffffffffffffff168473ffffffffffffffffffffffffffffffffffffffff161415614661576040517f08c379a00000000000000000000000000000000000000000000000000000000081526004018080602001828103825260218152602001806152ae6021913960400191505060405180910390fd5b81518351146146bb576040517f08c379a00000000000000000000000000000000000000000000000000000000081526004018080602001828103825260288152602001806152866028913960400191505060405180910390fd5b60006146c5613d68565b90506146d681600087878787613d70565b60005b84518110156147df5761476b600160008784815181106146f557fe5b6020026020010151815260200190815260200160002060008873ffffffffffffffffffffffffffffffffffffffff1673ffffffffffffffffffffffffffffffffffffffff1681526020019081526020016000205485838151811061475557fe5b6020026020010151613e3890919063ffffffff16565b6001600087848151811061477b57fe5b6020026020010151815260200190815260200160002060008873ffffffffffffffffffffffffffffffffffffffff1673ffffffffffffffffffffffffffffffffffffffff1681526020019081526020016000208190555080806001019150506146d9565b508473ffffffffffffffffffffffffffffffffffffffff16600073ffffffffffffffffffffffffffffffffffffffff168273ffffffffffffffffffffffffffffffffffffffff167f4a39dc06d4c0dbc64b70af90fd698a233a518aa5d07e595d983b8c0526c8f7fb8787604051808060200180602001838103835285818151815260200191508051906020019060200280838360005b83811015614890578082015181840152602081019050614875565b50505050905001838103825284818151815260200191508051906020019060200280838360005b838110156148d25780820151818401526020810190506148b7565b5050505090500194505050505060405180910390a46148f681600087878787613ec0565b5050505050565b600073ffffffffffffffffffffffffffffffffffffffff168373ffffffffffffffffffffffffffffffffffffffff161415614983576040517f08c379a00000000000000000000000000000000000000000000000000000000081526004018080602001828103825260238152602001806151a56023913960400191505060405180910390fd5b600061498d613d68565b90506149bd8185600061499f8761424f565b6149a88761424f565b60405180602001604052806000815250613d70565b614a3a8260405180606001604052806024815260200161515c602491396001600087815260200190815260200160002060008873ffffffffffffffffffffffffffffffffffffffff1673ffffffffffffffffffffffffffffffffffffffff16815260200190815260200160002054613d789092919063ffffffff16565b6001600085815260200190815260200160002060008673ffffffffffffffffffffffffffffffffffffffff1673ffffffffffffffffffffffffffffffffffffffff16815260200190815260200160002081905550600073ffffffffffffffffffffffffffffffffffffffff168473ffffffffffffffffffffffffffffffffffffffff168273ffffffffffffffffffffffffffffffffffffffff167fc3d58168c5ae7397731d063d5bbf3d657854427343f4c083240f7aacaa2d0f628686604051808381526020018281526020019250505060405180910390a450505050565b600080831415614b2c5760009050614b99565b6000828402905082848281614b3d57fe5b0414614b94576040517f08c379a00000000000000000000000000000000000000000000000000000000081526004018080602001828103825260218152602001806151f26021913960400191505060405180910390fd5b809150505b92915050565b6000614be183836040518060400160405280601a81526020017f536166654d6174683a206469766973696f6e206279207a65726f000000000000815250614f09565b905092915050565b614c088473ffffffffffffffffffffffffffffffffffffffff16614ef6565b15614eee578373ffffffffffffffffffffffffffffffffffffffff1663f23a6e6187878686866040518663ffffffff1660e01b8152600401808673ffffffffffffffffffffffffffffffffffffffff1681526020018573ffffffffffffffffffffffffffffffffffffffff16815260200184815260200183815260200180602001828103825283818151815260200191508051906020019080838360005b83811015614cc1578082015181840152602081019050614ca6565b50505050905090810190601f168015614cee5780820380516001836020036101000a031916815260200191505b509650505050505050602060405180830381600087803b158015614d1157600080fd5b505af1925050508015614d4557506040513d6020811015614d3157600080fd5b810190808051906020019092919050505060015b614e4f57614d51614fed565b80614d5c5750614dfe565b806040517f08c379a00000000000000000000000000000000000000000000000000000000081526004018080602001828103825283818151815260200191508051906020019080838360005b83811015614dc3578082015181840152602081019050614da8565b50505050905090810190601f168015614df05780820380516001836020036101000a031916815260200191505b509250505060405180910390fd5b6040517f08c379a00000000000000000000000000000000000000000000000000000000081526004018080602001828103825260348152602001806150a46034913960400191505060405180910390fd5b63f23a6e6160e01b7bffffffffffffffffffffffffffffffffffffffffffffffffffffffff1916817bffffffffffffffffffffffffffffffffffffffffffffffffffffffff191614614eec576040517f08c379a00000000000000000000000000000000000000000000000000000000081526004018080602001828103825260288152602001806150d86028913960400191505060405180910390fd5b505b505050505050565b600080823b905060008111915050919050565b60008083118290614fb5576040517f08c379a00000000000000000000000000000000000000000000000000000000081526004018080602001828103825283818151815260200191508051906020019080838360005b83811015614f7a578082015181840152602081019050614f5f565b50505050905090810190601f168015614fa75780820380516001836020036101000a031916815260200191505b509250505060405180910390fd5b506000838581614fc157fe5b049050809150509392505050565b6000601f19601f8301169050919050565b60008160e01c9050919050565b600060443d1015614ffd576150a0565b60046000803e61500e600051614fe0565b6308c379a0811461501f57506150a0565b60405160043d036004823e80513d602482011167ffffffffffffffff8211171561504b575050506150a0565b808201805167ffffffffffffffff81111561506a5750505050506150a0565b8060208301013d8501811115615085575050505050506150a0565b61508e82614fcf565b60208401016040528296505050505050505b9056fe455243313135353a207472616e7366657220746f206e6f6e2045524331313535526563656976657220696d706c656d656e746572455243313135353a204552433131353552656365697665722072656a656374656420746f6b656e73455243313135353a2062616c616e636520717565727920666f7220746865207a65726f2061646472657373455243313135353a2062617463682062616c616e636520717565727920666f7220746865207a65726f2061646472657373455243313135353a206275726e20616d6f756e7420657863656564732062616c616e6365455243313135353a207472616e7366657220746f20746865207a65726f2061646472657373455243313135353a206275726e2066726f6d20746865207a65726f2061646472657373455243313135353a20696e73756666696369656e742062616c616e636520666f72207472616e73666572536166654d6174683a206d756c7469706c69636174696f6e206f766572666c6f775175616c6c612f496e76616c69642d537562736372697074696f6e2d496e646578455243313135353a2073657474696e6720617070726f76616c2073746174757320666f722073656c66455243313135353a206163636f756e747320616e6420696473206c656e677468206d69736d61746368455243313135353a2069647320616e6420616d6f756e7473206c656e677468206d69736d61746368455243313135353a206d696e7420746f20746865207a65726f2061646472657373a2646970667358221220a7f3b24cffc20a06deba5ad7520b140a289e7d26a2e9a9ad219e15a46ba2631464736f6c63430007030033",
  "linkReferences": {},
  "deployedLinkReferences": {}
}