{
  "_format": "hh-sol-artifact-1",
  "contractName": "SubscriptionV1",
  "sourceName": "contracts/SubscriptionV1.sol",
  "abi": [
    {
      "inputs": [],
      "stateMutability": "nonpayable",
      "type": "constructor"
    },
    {
      "anonymous": false,
      "inputs": [
        {
          "indexed": true,
          "internalType": "address",
          "name": "account",
          "type": "address"
        },
        {
          "indexed": true,
          "internalType": "address",
          "name": "operator",
          "type": "address"
        },
        {
          "indexed": false,
          "internalType": "bool",
          "name": "approved",
          "type": "bool"
        }
      ],
      "name": "ApprovalForAll",
      "type": "event"
    },
    {
      "anonymous": false,
      "inputs": [
        {
          "indexed": false,
          "internalType": "uint256",
          "name": "id",
          "type": "uint256"
        }
      ],
      "name": "NFTevent",
      "type": "event"
    },
    {
      "anonymous": false,
      "inputs": [
        {
          "indexed": true,
          "internalType": "address",
          "name": "operator",
          "type": "address"
        },
        {
          "indexed": true,
          "internalType": "address",
          "name": "from",
          "type": "address"
        },
        {
          "indexed": true,
          "internalType": "address",
          "name": "to",
          "type": "address"
        },
        {
          "indexed": false,
          "internalType": "uint256[]",
          "name": "ids",
          "type": "uint256[]"
        },
        {
          "indexed": false,
          "internalType": "uint256[]",
          "name": "values",
          "type": "uint256[]"
        }
      ],
      "name": "TransferBatch",
      "type": "event"
    },
    {
      "anonymous": false,
      "inputs": [
        {
          "indexed": true,
          "internalType": "address",
          "name": "operator",
          "type": "address"
        },
        {
          "indexed": true,
          "internalType": "address",
          "name": "from",
          "type": "address"
        },
        {
          "indexed": true,
          "internalType": "address",
          "name": "to",
          "type": "address"
        },
        {
          "indexed": false,
          "internalType": "uint256",
          "name": "id",
          "type": "uint256"
        },
        {
          "indexed": false,
          "internalType": "uint256",
          "name": "value",
          "type": "uint256"
        }
      ],
      "name": "TransferSingle",
      "type": "event"
    },
    {
      "anonymous": false,
      "inputs": [
        {
          "indexed": false,
          "internalType": "string",
          "name": "value",
          "type": "string"
        },
        {
          "indexed": true,
          "internalType": "uint256",
          "name": "id",
          "type": "uint256"
        }
      ],
      "name": "URI",
      "type": "event"
    },
    {
      "inputs": [],
      "name": "DOMAIN_SEPARATOR",
      "outputs": [
        {
          "internalType": "bytes32",
          "name": "",
          "type": "bytes32"
        }
      ],
      "stateMutability": "view",
      "type": "function"
    },
    {
      "inputs": [],
      "name": "USER_TYPEHASH",
      "outputs": [
        {
          "internalType": "bytes32",
          "name": "",
          "type": "bytes32"
        }
      ],
      "stateMutability": "view",
      "type": "function"
    },
    {
      "inputs": [
        {
          "internalType": "address",
          "name": "account",
          "type": "address"
        },
        {
          "internalType": "uint256",
          "name": "id",
          "type": "uint256"
        }
      ],
      "name": "balanceOf",
      "outputs": [
        {
          "internalType": "uint256",
          "name": "",
          "type": "uint256"
        }
      ],
      "stateMutability": "view",
      "type": "function"
    },
    {
      "inputs": [
        {
          "internalType": "address[]",
          "name": "accounts",
          "type": "address[]"
        },
        {
          "internalType": "uint256[]",
          "name": "ids",
          "type": "uint256[]"
        }
      ],
      "name": "balanceOfBatch",
      "outputs": [
        {
          "internalType": "uint256[]",
          "name": "",
          "type": "uint256[]"
        }
      ],
      "stateMutability": "view",
      "type": "function"
    },
    {
      "inputs": [
        {
          "internalType": "uint256",
          "name": "id",
          "type": "uint256"
        },
        {
          "internalType": "uint256",
          "name": "amount",
          "type": "uint256"
        },
        {
          "internalType": "uint8",
          "name": "v",
          "type": "uint8"
        },
        {
          "internalType": "bytes32",
          "name": "r",
          "type": "bytes32"
        },
        {
          "internalType": "bytes32",
          "name": "s",
          "type": "bytes32"
        }
      ],
      "name": "burnSubscription",
      "outputs": [],
      "stateMutability": "nonpayable",
      "type": "function"
    },
    {
      "inputs": [
        {
          "internalType": "address",
          "name": "subscriber",
          "type": "address"
        },
        {
          "internalType": "uint256",
          "name": "id",
          "type": "uint256"
        },
        {
          "internalType": "uint8",
          "name": "v",
          "type": "uint8"
        },
        {
          "internalType": "bytes32",
          "name": "r",
          "type": "bytes32"
        },
        {
          "internalType": "bytes32",
          "name": "s",
          "type": "bytes32"
        }
      ],
      "name": "buySubscription",
      "outputs": [],
      "stateMutability": "nonpayable",
      "type": "function"
    },
    {
      "inputs": [],
      "name": "chainId",
      "outputs": [
        {
          "internalType": "uint256",
          "name": "",
          "type": "uint256"
        }
      ],
      "stateMutability": "view",
      "type": "function"
    },
    {
      "inputs": [
        {
          "internalType": "uint256",
          "name": "id_",
          "type": "uint256"
        },
        {
          "internalType": "address",
          "name": "subscriber",
          "type": "address"
        }
      ],
      "name": "executeSubscription",
      "outputs": [],
      "stateMutability": "nonpayable",
      "type": "function"
    },
    {
      "inputs": [
        {
          "internalType": "uint256",
          "name": "id_",
          "type": "uint256"
        }
      ],
      "name": "getBaseIdFromToken",
      "outputs": [
        {
          "internalType": "uint256",
          "name": "id",
          "type": "uint256"
        }
      ],
      "stateMutability": "pure",
      "type": "function"
    },
    {
      "inputs": [
        {
          "internalType": "address",
          "name": "account",
          "type": "address"
        },
        {
          "internalType": "address",
          "name": "operator",
          "type": "address"
        }
      ],
      "name": "isApprovedForAll",
      "outputs": [
        {
          "internalType": "bool",
          "name": "",
          "type": "bool"
        }
      ],
      "stateMutability": "view",
      "type": "function"
    },
    {
      "inputs": [
        {
          "internalType": "address",
          "name": "creator",
          "type": "address"
        },
        {
          "internalType": "uint256[]",
          "name": "amounts",
          "type": "uint256[]"
        },
        {
          "internalType": "uint8",
          "name": "v",
          "type": "uint8"
        },
        {
          "internalType": "bytes32",
          "name": "r",
          "type": "bytes32"
        },
        {
          "internalType": "bytes32",
          "name": "s",
          "type": "bytes32"
        },
        {
          "internalType": "bytes",
          "name": "data",
          "type": "bytes"
        }
      ],
      "name": "mintBatchSubscription",
      "outputs": [],
      "stateMutability": "nonpayable",
      "type": "function"
    },
    {
      "inputs": [],
      "name": "mintNFT",
      "outputs": [],
      "stateMutability": "nonpayable",
      "type": "function"
    },
    {
      "inputs": [
        {
          "internalType": "address",
          "name": "creator",
          "type": "address"
        },
        {
          "internalType": "uint256",
          "name": "amount",
          "type": "uint256"
        },
        {
          "internalType": "uint8",
          "name": "v",
          "type": "uint8"
        },
        {
          "internalType": "bytes32",
          "name": "r",
          "type": "bytes32"
        },
        {
          "internalType": "bytes32",
          "name": "s",
          "type": "bytes32"
        },
        {
          "internalType": "bytes",
          "name": "data",
          "type": "bytes"
        }
      ],
      "name": "mintSubscription",
      "outputs": [],
      "stateMutability": "nonpayable",
      "type": "function"
    },
    {
      "inputs": [],
      "name": "name",
      "outputs": [
        {
          "internalType": "string",
          "name": "",
          "type": "string"
        }
      ],
      "stateMutability": "view",
      "type": "function"
    },
    {
      "inputs": [
        {
          "internalType": "address",
          "name": "from",
          "type": "address"
        },
        {
          "internalType": "address",
          "name": "to",
          "type": "address"
        },
        {
          "internalType": "uint256[]",
          "name": "ids",
          "type": "uint256[]"
        },
        {
          "internalType": "uint256[]",
          "name": "amounts",
          "type": "uint256[]"
        },
        {
          "internalType": "bytes",
          "name": "data",
          "type": "bytes"
        }
      ],
      "name": "safeBatchTransferFrom",
      "outputs": [],
      "stateMutability": "nonpayable",
      "type": "function"
    },
    {
      "inputs": [
        {
          "internalType": "address",
          "name": "from",
          "type": "address"
        },
        {
          "internalType": "address",
          "name": "to",
          "type": "address"
        },
        {
          "internalType": "uint256",
          "name": "id",
          "type": "uint256"
        },
        {
          "internalType": "uint256",
          "name": "amount",
          "type": "uint256"
        },
        {
          "internalType": "bytes",
          "name": "data",
          "type": "bytes"
        }
      ],
      "name": "safeTransferFrom",
      "outputs": [],
      "stateMutability": "nonpayable",
      "type": "function"
    },
    {
      "inputs": [
        {
          "internalType": "address",
          "name": "operator",
          "type": "address"
        },
        {
          "internalType": "bool",
          "name": "approved",
          "type": "bool"
        }
      ],
      "name": "setApprovalForAll",
      "outputs": [],
      "stateMutability": "nonpayable",
      "type": "function"
    },
    {
      "inputs": [
        {
          "internalType": "bytes4",
          "name": "interfaceId",
          "type": "bytes4"
        }
      ],
      "name": "supportsInterface",
      "outputs": [
        {
          "internalType": "bool",
          "name": "",
          "type": "bool"
        }
      ],
      "stateMutability": "view",
      "type": "function"
    },
    {
      "inputs": [
        {
          "internalType": "uint256",
          "name": "",
          "type": "uint256"
        }
      ],
      "name": "tokenIdToCreator",
      "outputs": [
        {
          "internalType": "address",
          "name": "",
          "type": "address"
        }
      ],
      "stateMutability": "view",
      "type": "function"
    },
    {
      "inputs": [
        {
          "internalType": "uint256",
          "name": "",
          "type": "uint256"
        }
      ],
      "name": "tokenIdToNextIndex",
      "outputs": [
        {
          "internalType": "uint256",
          "name": "",
          "type": "uint256"
        }
      ],
      "stateMutability": "view",
      "type": "function"
    },
    {
      "inputs": [
        {
          "internalType": "uint256",
          "name": "",
          "type": "uint256"
        }
      ],
      "name": "tokenIdToPaymentToken",
      "outputs": [
        {
          "internalType": "address",
          "name": "",
          "type": "address"
        }
      ],
      "stateMutability": "view",
      "type": "function"
    },
    {
      "inputs": [
        {
          "internalType": "uint256",
          "name": "",
          "type": "uint256"
        }
      ],
      "name": "tokenIdToPaymentValue",
      "outputs": [
        {
          "internalType": "uint256",
          "name": "",
          "type": "uint256"
        }
      ],
      "stateMutability": "view",
      "type": "function"
    },
    {
      "inputs": [
        {
          "internalType": "uint256",
          "name": "",
          "type": "uint256"
        }
      ],
      "name": "tokenId_ToNextWithdraw",
      "outputs": [
        {
          "internalType": "uint256",
          "name": "",
          "type": "uint256"
        }
      ],
      "stateMutability": "view",
      "type": "function"
    },
    {
      "inputs": [],
      "name": "tokenNonce",
      "outputs": [
        {
          "internalType": "uint256",
          "name": "",
          "type": "uint256"
        }
      ],
      "stateMutability": "view",
      "type": "function"
    },
    {
      "inputs": [
        {
          "internalType": "address",
          "name": "subscriber",
          "type": "address"
        },
        {
          "internalType": "uint256",
          "name": "id_",
          "type": "uint256"
        },
        {
          "internalType": "uint8",
          "name": "v",
          "type": "uint8"
        },
        {
          "internalType": "bytes32",
          "name": "r",
          "type": "bytes32"
        },
        {
          "internalType": "bytes32",
          "name": "s",
          "type": "bytes32"
        }
      ],
      "name": "unSubscribe",
      "outputs": [],
      "stateMutability": "nonpayable",
      "type": "function"
    },
    {
      "inputs": [
        {
          "internalType": "address",
          "name": "newCreator",
          "type": "address"
        },
        {
          "internalType": "uint256",
          "name": "id",
          "type": "uint256"
        },
        {
          "internalType": "uint8",
          "name": "v",
          "type": "uint8"
        },
        {
          "internalType": "bytes32",
          "name": "r",
          "type": "bytes32"
        },
        {
          "internalType": "bytes32",
          "name": "s",
          "type": "bytes32"
        }
      ],
      "name": "updateSubscriptionCreator",
      "outputs": [],
      "stateMutability": "nonpayable",
      "type": "function"
    },
    {
      "inputs": [
        {
          "internalType": "uint256",
          "name": "",
          "type": "uint256"
        }
      ],
      "name": "uri",
      "outputs": [
        {
          "internalType": "string",
          "name": "",
          "type": "string"
        }
      ],
      "stateMutability": "view",
      "type": "function"
    },
    {
      "inputs": [
        {
          "internalType": "address",
          "name": "",
          "type": "address"
        }
      ],
      "name": "userNonce",
      "outputs": [
        {
          "internalType": "uint256",
          "name": "",
          "type": "uint256"
        }
      ],
      "stateMutability": "view",
      "type": "function"
    },
    {
      "inputs": [],
      "name": "version",
      "outputs": [
        {
          "internalType": "string",
          "name": "",
          "type": "string"
        }
      ],
      "stateMutability": "view",
      "type": "function"
    }
  ],
  "bytecode": "0x608060405260056004556001600555617a696007553480156200002157600080fd5b506040518060400160405280600381526020017f5552490000000000000000000000000000000000000000000000000000000000815250620000706301ffc9a760e01b620001e560201b60201c565b6200008181620002ee60201b60201c565b6200009963d9b67a2660e01b620001e560201b60201c565b620000b1630e89341c60e01b620001e560201b60201c565b50620000ca63d9b67a2660e01b620001e560201b60201c565b620000e2630e89341c60e01b620001e560201b60201c565b7f8b73c3c69bb8fe3d512ecc4cf759cc79239f7b179b0ffacaa9a75d522b39400f6040518060400160405280601381526020017f5175616c6c6120537562736372697074696f6e00000000000000000000000000815250805190602001206040518060400160405280600181526020017f31000000000000000000000000000000000000000000000000000000000000008152508051906020012060075430604051602001808681526020018581526020018481526020018381526020018273ffffffffffffffffffffffffffffffffffffffff1681526020019550505050505060405160208183030381529060405280519060200120600681905550620003b0565b63ffffffff60e01b817bffffffffffffffffffffffffffffffffffffffffffffffffffffffff1916141562000282576040517f08c379a000000000000000000000000000000000000000000000000000000000815260040180806020018281038252601c8152602001807f4552433136353a20696e76616c696420696e746572666163652069640000000081525060200191505060405180910390fd5b6001600080837bffffffffffffffffffffffffffffffffffffffffffffffffffffffff19167bffffffffffffffffffffffffffffffffffffffffffffffffffffffff1916815260200190815260200160002060006101000a81548160ff02191690831515021790555050565b8060039080519060200190620003069291906200030a565b5050565b828054600181600116156101000203166002900490600052602060002090601f016020900481019282601f106200034d57805160ff19168380011785556200037e565b828001600101855582156200037e579182015b828111156200037d57825182559160200191906001019062000360565b5b5090506200038d919062000391565b5090565b5b80821115620003ac57600081600090555060010162000392565b5090565b614b4180620003c06000396000f3fe608060405234801561001057600080fd5b50600436106101ce5760003560e01c806353e2717311610104578063a22cb465116100a2578063e985e9c511610071578063e985e9c514610eae578063ede54d0214610f28578063f242432a14610f80578063f73b43a81461108f576101ce565b8063a22cb46514610d6b578063b166acd114610dbb578063e0be313f14610e2a578063e1c7bc0a14610e6c576101ce565b806390f71b44116100de57806390f71b4414610c8857806395fbbf5014610ca65780639a8a059214610cff5780639eb9abde14610d1d576101ce565b806353e2717314610a3357806354fd4d5014610a7557806377b7b88d14610af8576101ce565b80631d059bbb116101715780633644e5151161014b5780633644e5151461072c578063366c39291461074a5780633fbde260146108505780634e1273f414610892576101ce565b80631d059bbb146104595780632e04b8e7146104b15780632eb2c2d614610509576101ce565b806306fdde03116101ad57806306fdde03146103075780630e89341c1461038a57806314f710fe146104315780631add31081461043b576101ce565b8062fdd58e146101d357806301ffc9a71461023557806302c561d814610298575b600080fd5b61021f600480360360408110156101e957600080fd5b81019080803573ffffffffffffffffffffffffffffffffffffffff169060200190929190803590602001909291905050506110fe565b6040518082815260200191505060405180910390f35b6102806004803603602081101561024b57600080fd5b8101908080357bffffffffffffffffffffffffffffffffffffffffffffffffffffffff191690602001909291905050506111de565b60405180821515815260200191505060405180910390f35b610305600480360360a08110156102ae57600080fd5b81019080803573ffffffffffffffffffffffffffffffffffffffff16906020019092919080359060200190929190803560ff1690602001909291908035906020019092919080359060200190929190505050611245565b005b61030f6114aa565b6040518080602001828103825283818151815260200191508051906020019080838360005b8381101561034f578082015181840152602081019050610334565b50505050905090810190601f16801561037c5780820380516001836020036101000a031916815260200191505b509250505060405180910390f35b6103b6600480360360208110156103a057600080fd5b81019080803590602001909291905050506114e3565b6040518080602001828103825283818151815260200191508051906020019080838360005b838110156103f65780820151818401526020810190506103db565b50505050905090810190601f1680156104235780820380516001836020036101000a031916815260200191505b509250505060405180910390f35b610439611587565b005b6104436115fa565b6040518082815260200191505060405180910390f35b6104856004803603602081101561046f57600080fd5b810190808035906020019092919050505061161e565b604051808273ffffffffffffffffffffffffffffffffffffffff16815260200191505060405180910390f35b6104f3600480360360208110156104c757600080fd5b81019080803573ffffffffffffffffffffffffffffffffffffffff169060200190929190505050611651565b6040518082815260200191505060405180910390f35b61072a600480360360a081101561051f57600080fd5b81019080803573ffffffffffffffffffffffffffffffffffffffff169060200190929190803573ffffffffffffffffffffffffffffffffffffffff1690602001909291908035906020019064010000000081111561057c57600080fd5b82018360208201111561058e57600080fd5b803590602001918460208302840111640100000000831117156105b057600080fd5b919080806020026020016040519081016040528093929190818152602001838360200280828437600081840152601f19601f8201169050808301925050505050505091929192908035906020019064010000000081111561061057600080fd5b82018360208201111561062257600080fd5b8035906020019184602083028401116401000000008311171561064457600080fd5b919080806020026020016040519081016040528093929190818152602001838360200280828437600081840152601f19601f820116905080830192505050505050509192919290803590602001906401000000008111156106a457600080fd5b8201836020820111156106b657600080fd5b803590602001918460018302840111640100000000831117156106d857600080fd5b91908080601f016020809104026020016040519081016040528093929190818152602001838380828437600081840152601f19601f820116905080830192505050505050509192919290505050611669565b005b610734611a51565b6040518082815260200191505060405180910390f35b61084e600480360360c081101561076057600080fd5b81019080803573ffffffffffffffffffffffffffffffffffffffff16906020019092919080359060200190929190803560ff1690602001909291908035906020019092919080359060200190929190803590602001906401000000008111156107c857600080fd5b8201836020820111156107da57600080fd5b803590602001918460018302840111640100000000831117156107fc57600080fd5b91908080601f016020809104026020016040519081016040528093929190818152602001838380828437600081840152601f19601f820116905080830192505050505050509192919290505050611a57565b005b61087c6004803603602081101561086657600080fd5b8101908080359060200190929190505050611b2d565b6040518082815260200191505060405180910390f35b6109dc600480360360408110156108a857600080fd5b81019080803590602001906401000000008111156108c557600080fd5b8201836020820111156108d757600080fd5b803590602001918460208302840111640100000000831117156108f957600080fd5b919080806020026020016040519081016040528093929190818152602001838360200280828437600081840152601f19601f8201169050808301925050505050505091929192908035906020019064010000000081111561095957600080fd5b82018360208201111561096b57600080fd5b8035906020019184602083028401116401000000008311171561098d57600080fd5b919080806020026020016040519081016040528093929190818152602001838360200280828437600081840152601f19601f820116905080830192505050505050509192919290505050611b45565b6040518080602001828103825283818151815260200191508051906020019060200280838360005b83811015610a1f578082015181840152602081019050610a04565b505050509050019250505060405180910390f35b610a5f60048036036020811015610a4957600080fd5b8101908080359060200190929190505050611d37565b6040518082815260200191505060405180910390f35b610a7d611e9d565b6040518080602001828103825283818151815260200191508051906020019080838360005b83811015610abd578082015181840152602081019050610aa2565b50505050905090810190601f168015610aea5780820380516001836020036101000a031916815260200191505b509250505060405180910390f35b610c86600480360360c0811015610b0e57600080fd5b81019080803573ffffffffffffffffffffffffffffffffffffffff16906020019092919080359060200190640100000000811115610b4b57600080fd5b820183602082011115610b5d57600080fd5b80359060200191846020830284011164010000000083111715610b7f57600080fd5b919080806020026020016040519081016040528093929190818152602001838360200280828437600081840152601f19601f820116905080830192505050505050509192919290803560ff169060200190929190803590602001909291908035906020019092919080359060200190640100000000811115610c0057600080fd5b820183602082011115610c1257600080fd5b80359060200191846001830284011164010000000083111715610c3457600080fd5b91908080601f016020809104026020016040519081016040528093929190818152602001838380828437600081840152601f19601f820116905080830192505050505050509192919290505050611ed6565b005b610c90612052565b6040518082815260200191505060405180910390f35b610cfd600480360360a0811015610cbc57600080fd5b810190808035906020019092919080359060200190929190803560ff1690602001909291908035906020019092919080359060200190929190505050612058565b005b610d0761220a565b6040518082815260200191505060405180910390f35b610d6960048036036040811015610d3357600080fd5b8101908080359060200190929190803573ffffffffffffffffffffffffffffffffffffffff169060200190929190505050612210565b005b610db960048036036040811015610d8157600080fd5b81019080803573ffffffffffffffffffffffffffffffffffffffff1690602001909291908035151590602001909291905050506127bf565b005b610e28600480360360a0811015610dd157600080fd5b81019080803573ffffffffffffffffffffffffffffffffffffffff16906020019092919080359060200190929190803560ff1690602001909291908035906020019092919080359060200190929190505050612958565b005b610e5660048036036020811015610e4057600080fd5b8101908080359060200190929190505050612b5f565b6040518082815260200191505060405180910390f35b610e9860048036036020811015610e8257600080fd5b8101908080359060200190929190505050612b77565b6040518082815260200191505060405180910390f35b610f1060048036036040811015610ec457600080fd5b81019080803573ffffffffffffffffffffffffffffffffffffffff169060200190929190803573ffffffffffffffffffffffffffffffffffffffff169060200190929190505050612b8f565b60405180821515815260200191505060405180910390f35b610f5460048036036020811015610f3e57600080fd5b8101908080359060200190929190505050612c23565b604051808273ffffffffffffffffffffffffffffffffffffffff16815260200191505060405180910390f35b61108d600480360360a0811015610f9657600080fd5b81019080803573ffffffffffffffffffffffffffffffffffffffff169060200190929190803573ffffffffffffffffffffffffffffffffffffffff16906020019092919080359060200190929190803590602001909291908035906020019064010000000081111561100757600080fd5b82018360208201111561101957600080fd5b8035906020019184600183028401116401000000008311171561103b57600080fd5b91908080601f016020809104026020016040519081016040528093929190818152602001838380828437600081840152601f19601f820116905080830192505050505050509192919290505050612c56565b005b6110fc600480360360a08110156110a557600080fd5b81019080803573ffffffffffffffffffffffffffffffffffffffff16906020019092919080359060200190929190803560ff1690602001909291908035906020019092919080359060200190929190505050612f28565b005b60008073ffffffffffffffffffffffffffffffffffffffff168373ffffffffffffffffffffffffffffffffffffffff161415611185576040517f08c379a000000000000000000000000000000000000000000000000000000000815260040180806020018281038252602b81526020018061493d602b913960400191505060405180910390fd5b6001600083815260200190815260200160002060008473ffffffffffffffffffffffffffffffffffffffff1673ffffffffffffffffffffffffffffffffffffffff16815260200190815260200160002054905092915050565b6000806000837bffffffffffffffffffffffffffffffffffffffffffffffffffffffff19167bffffffffffffffffffffffffffffffffffffffffffffffffffffffff1916815260200190815260200160002060009054906101000a900460ff169050919050565b60007f80000000000000000000000000000000000000000000000000000000000000008516146112dd576040517f08c379a00000000000000000000000000000000000000000000000000000000081526004018080602001828103825260178152602001807f5175616c6c612f57726f6e672d546f6b656e2d5479706500000000000000000081525060200191505060405180910390fd5b60007fffffffffffffffffffffffffffffffffffffffffffffffffffffffffffffffff6fffffffffffffffffffffffffffffffff1685161461136a576040517f08c379a0000000000000000000000000000000000000000000000000000000008152600401808060200182810382526021815260200180614a506021913960400191505060405180910390fd5b6000600c600086815260200190815260200160002060009054906101000a900473ffffffffffffffffffffffffffffffffffffffff1690506113e4816040518060400160405280600681526020017f757064617465000000000000000000000000000000000000000000000000000081525086868661313f565b611450818787600160008a815260200190815260200160002060008673ffffffffffffffffffffffffffffffffffffffff1673ffffffffffffffffffffffffffffffffffffffff1681526020019081526020016000205460405180602001604052806000815250612c56565b85600c600087815260200190815260200160002060006101000a81548173ffffffffffffffffffffffffffffffffffffffff021916908373ffffffffffffffffffffffffffffffffffffffff160217905550505050505050565b6040518060400160405280601381526020017f5175616c6c6120537562736372697074696f6e0000000000000000000000000081525081565b606060038054600181600116156101000203166002900480601f01602080910402602001604051908101604052809291908181526020018280546001816001161561010002031660029004801561157b5780601f106115505761010080835404028352916020019161157b565b820191906000526020600020905b81548152906001019060200180831161155e57829003601f168201915b50505050509050919050565b60006080600554901b90507fffffffffffffffffffffffffffffffffffffffffffffffffffffffffffffffff6fffffffffffffffffffffffffffffffff16811790506115e533826001604051806020016040528060008152506133b1565b60056000815480929190600101919050555050565b7f58110846b49f70e49168dab9f7743d70e8da96a3773a194c36bcb67faf9bbdc581565b600c6020528060005260406000206000915054906101000a900473ffffffffffffffffffffffffffffffffffffffff1681565b600d6020528060005260406000206000915090505481565b81518351146116c3576040517f08c379a0000000000000000000000000000000000000000000000000000000008152600401808060200182810382526028815260200180614ac36028913960400191505060405180910390fd5b600073ffffffffffffffffffffffffffffffffffffffff168473ffffffffffffffffffffffffffffffffffffffff161415611749576040517f08c379a00000000000000000000000000000000000000000000000000000000081526004018080602001828103825260258152602001806149bd6025913960400191505060405180910390fd5b60006117536135a5565b90506117638187878787876135ad565b60005b845181101561193457600085828151811061177d57fe5b60200260200101519050600085838151811061179557fe5b6020026020010151905061181c816040518060600160405280602a8152602001614a05602a91396001600086815260200190815260200160002060008d73ffffffffffffffffffffffffffffffffffffffff1673ffffffffffffffffffffffffffffffffffffffff168152602001908152602001600020546135b59092919063ffffffff16565b6001600084815260200190815260200160002060008b73ffffffffffffffffffffffffffffffffffffffff1673ffffffffffffffffffffffffffffffffffffffff168152602001908152602001600020819055506118d3816001600085815260200190815260200160002060008b73ffffffffffffffffffffffffffffffffffffffff1673ffffffffffffffffffffffffffffffffffffffff1681526020019081526020016000205461367590919063ffffffff16565b6001600084815260200190815260200160002060008a73ffffffffffffffffffffffffffffffffffffffff1673ffffffffffffffffffffffffffffffffffffffff168152602001908152602001600020819055505050806001019050611766565b508473ffffffffffffffffffffffffffffffffffffffff168673ffffffffffffffffffffffffffffffffffffffff168273ffffffffffffffffffffffffffffffffffffffff167f4a39dc06d4c0dbc64b70af90fd698a233a518aa5d07e595d983b8c0526c8f7fb8787604051808060200180602001838103835285818151815260200191508051906020019060200280838360005b838110156119e45780820151818401526020810190506119c9565b50505050905001838103825284818151815260200191508051906020019060200280838360005b83811015611a26578082015181840152602081019050611a0b565b5050505090500194505050505060405180910390a4611a498187878787876136fd565b505050505050565b60065481565b611a99866040518060400160405280600481526020017f6d696e740000000000000000000000000000000000000000000000000000000081525086868661313f565b6000851415611ac6577fffffffffffffffffffffffffffffffffffffffffffffffffffffffffffffffff94505b60006080600554901b9050611aed611add82613a8c565b88611ae789613a8c565b85613afc565b611af9878288856133b1565b6005600081548092919060010191905055506001600b60008381526020019081526020016000208190555050505050505050565b600b6020528060005260406000206000915090505481565b60608151835114611ba1576040517f08c379a0000000000000000000000000000000000000000000000000000000008152600401808060200182810382526029815260200180614a9a6029913960400191505060405180910390fd5b6060835167ffffffffffffffff81118015611bbb57600080fd5b50604051908082528060200260200182016040528015611bea5781602001602082028036833780820191505090505b50905060005b8451811015611d2c57600073ffffffffffffffffffffffffffffffffffffffff16858281518110611c1d57fe5b602002602001015173ffffffffffffffffffffffffffffffffffffffff161415611c92576040517f08c379a00000000000000000000000000000000000000000000000000000000081526004018080602001828103825260318152602001806149686031913960400191505060405180910390fd5b60016000858381518110611ca257fe5b602002602001015181526020019081526020016000206000868381518110611cc657fe5b602002602001015173ffffffffffffffffffffffffffffffffffffffff1673ffffffffffffffffffffffffffffffffffffffff16815260200190815260200160002054828281518110611d1557fe5b602002602001018181525050806001019050611bf0565b508091505092915050565b6000807f8000000000000000000000000000000000000000000000000000000000000000831614611dd0576040517f08c379a00000000000000000000000000000000000000000000000000000000081526004018080602001828103825260178152602001807f5175616c6c612f57726f6e672d546f6b656e2d5479706500000000000000000081525060200191505060405180910390fd5b60007fffffffffffffffffffffffffffffffffffffffffffffffffffffffffffffffff6fffffffffffffffffffffffffffffffff16831611611e5d576040517f08c379a0000000000000000000000000000000000000000000000000000000008152600401808060200182810382526021815260200180614a506021913960400191505060405180910390fd5b60807fffffffffffffffffffffffffffffffffffffffffffffffffffffffffffffffff6fffffffffffffffffffffffffffffffff16901b82169050919050565b6040518060400160405280600181526020017f310000000000000000000000000000000000000000000000000000000000000081525081565b611f18866040518060400160405280600481526020017f6d696e740000000000000000000000000000000000000000000000000000000081525086868661313f565b6060855167ffffffffffffffff81118015611f3257600080fd5b50604051908082528060200260200182016040528015611f615781602001602082028036833780820191505090505b50905060005b8651811015612030576000878281518110611f7e57fe5b60200260200101511415611fc6577fffffffffffffffffffffffffffffffffffffffffffffffffffffffffffffffff878281518110611fb957fe5b6020026020010181815250505b6080600554901b828281518110611fd957fe5b6020026020010181815250506005600081548092919060010191905055506001600b600084848151811061200957fe5b60200260200101518152602001908152602001600020819055508080600101915050611f67565b5061203d81888885613afc565b61204987828885613e18565b50505050505050565b60055481565b60007f80000000000000000000000000000000000000000000000000000000000000008616146120f0576040517f08c379a00000000000000000000000000000000000000000000000000000000081526004018080602001828103825260178152602001807f5175616c6c612f57726f6e672d546f6b656e2d5479706500000000000000000081525060200191505060405180910390fd5b60007fffffffffffffffffffffffffffffffffffffffffffffffffffffffffffffffff6fffffffffffffffffffffffffffffffff1686161461217d576040517f08c379a0000000000000000000000000000000000000000000000000000000008152600401808060200182810382526021815260200180614a506021913960400191505060405180910390fd5b6000600c600087815260200190815260200160002060009054906101000a900473ffffffffffffffffffffffffffffffffffffffff1690506121f7816040518060400160405280600481526020017f6275726e0000000000000000000000000000000000000000000000000000000081525086868661313f565b61220281878761413a565b505050505050565b60075481565b60007f80000000000000000000000000000000000000000000000000000000000000008316146122a8576040517f08c379a00000000000000000000000000000000000000000000000000000000081526004018080602001828103825260178152602001807f5175616c6c612f57726f6e672d546f6b656e2d5479706500000000000000000081525060200191505060405180910390fd5b60007fffffffffffffffffffffffffffffffffffffffffffffffffffffffffffffffff6fffffffffffffffffffffffffffffffff16831611612335576040517f08c379a0000000000000000000000000000000000000000000000000000000008152600401808060200182810382526021815260200180614a506021913960400191505060405180910390fd5b600180600084815260200190815260200160002060008373ffffffffffffffffffffffffffffffffffffffff1673ffffffffffffffffffffffffffffffffffffffff16815260200190815260200160002054146123fa576040517f08c379a00000000000000000000000000000000000000000000000000000000081526004018080602001828103825260198152602001807f5175616c6c612f496e76616c69642d537562736372696265720000000000000081525060200191505060405180910390fd5b42600a60008481526020019081526020016000205410612482576040517f08c379a000000000000000000000000000000000000000000000000000000000815260040180806020018281038252601d8152602001807f5175616c6c612f537562736372697074696f6e2d4e6f742d526561647900000081525060200191505060405180910390fd5b600060807fffffffffffffffffffffffffffffffffffffffffffffffffffffffffffffffff6fffffffffffffffffffffffffffffffff16901b831690506000600c600083815260200190815260200160002060009054906101000a900473ffffffffffffffffffffffffffffffffffffffff16905060006009600084815260200190815260200160002060009054906101000a900473ffffffffffffffffffffffffffffffffffffffff169050600060086000858152602001908152602001600020549050600060045460640390508273ffffffffffffffffffffffffffffffffffffffff166323b872dd87866125956064612587878961435690919063ffffffff16565b6143dc90919063ffffffff16565b6040518463ffffffff1660e01b8152600401808473ffffffffffffffffffffffffffffffffffffffff1681526020018373ffffffffffffffffffffffffffffffffffffffff1681526020018281526020019350505050602060405180830381600087803b15801561260557600080fd5b505af192505050801561263957506040513d602081101561262557600080fd5b810190808051906020019092919050505060015b61266f576126498688600161413a565b61266584866001604051806020016040528060008152506133b1565b50505050506127bb565b508273ffffffffffffffffffffffffffffffffffffffff166323b872dd87306126b660646126a86004548961435690919063ffffffff16565b6143dc90919063ffffffff16565b6040518463ffffffff1660e01b8152600401808473ffffffffffffffffffffffffffffffffffffffff1681526020018373ffffffffffffffffffffffffffffffffffffffff1681526020018281526020019350505050602060405180830381600087803b15801561272657600080fd5b505af192505050801561275a57506040513d602081101561274657600080fd5b810190808051906020019092919050505060015b6127905761276a8688600161413a565b61278684866001604051806020016040528060008152506133b1565b50505050506127bb565b5062278d00600a60008981526020019081526020016000206000828254019250508190555050505050505b5050565b8173ffffffffffffffffffffffffffffffffffffffff166127de6135a5565b73ffffffffffffffffffffffffffffffffffffffff16141561284b576040517f08c379a0000000000000000000000000000000000000000000000000000000008152600401808060200182810382526029815260200180614a716029913960400191505060405180910390fd5b80600260006128586135a5565b73ffffffffffffffffffffffffffffffffffffffff1673ffffffffffffffffffffffffffffffffffffffff16815260200190815260200160002060008473ffffffffffffffffffffffffffffffffffffffff1673ffffffffffffffffffffffffffffffffffffffff16815260200190815260200160002060006101000a81548160ff0219169083151502179055508173ffffffffffffffffffffffffffffffffffffffff166129056135a5565b73ffffffffffffffffffffffffffffffffffffffff167f17307eab39ab6107e8899845ad3d59bd9653f200f220920489ca2b5937696c318360405180821515815260200191505060405180910390a35050565b60007f80000000000000000000000000000000000000000000000000000000000000008516146129f0576040517f08c379a00000000000000000000000000000000000000000000000000000000081526004018080602001828103825260178152602001807f5175616c6c612f57726f6e672d546f6b656e2d5479706500000000000000000081525060200191505060405180910390fd5b60007fffffffffffffffffffffffffffffffffffffffffffffffffffffffffffffffff6fffffffffffffffffffffffffffffffff16851611612a7d576040517f08c379a0000000000000000000000000000000000000000000000000000000008152600401808060200182810382526021815260200180614a506021913960400191505060405180910390fd5b612abf856040518060400160405280600b81526020017f756e73756273637269626500000000000000000000000000000000000000000081525085858561313f565b600060807fffffffffffffffffffffffffffffffffffffffffffffffffffffffffffffffff6fffffffffffffffffffffffffffffffff16901b85169050612b088686600161413a565b612b57600c600083815260200190815260200160002060009054906101000a900473ffffffffffffffffffffffffffffffffffffffff16826001604051806020016040528060008152506133b1565b505050505050565b60086020528060005260406000206000915090505481565b600a6020528060005260406000206000915090505481565b6000600260008473ffffffffffffffffffffffffffffffffffffffff1673ffffffffffffffffffffffffffffffffffffffff16815260200190815260200160002060008373ffffffffffffffffffffffffffffffffffffffff1673ffffffffffffffffffffffffffffffffffffffff16815260200190815260200160002060009054906101000a900460ff16905092915050565b60096020528060005260406000206000915054906101000a900473ffffffffffffffffffffffffffffffffffffffff1681565b600073ffffffffffffffffffffffffffffffffffffffff168473ffffffffffffffffffffffffffffffffffffffff161415612cdc576040517f08c379a00000000000000000000000000000000000000000000000000000000081526004018080602001828103825260258152602001806149bd6025913960400191505060405180910390fd5b6000612ce66135a5565b9050612d06818787612cf788613a8c565b612d0088613a8c565b876135ad565b612d83836040518060600160405280602a8152602001614a05602a91396001600088815260200190815260200160002060008a73ffffffffffffffffffffffffffffffffffffffff1673ffffffffffffffffffffffffffffffffffffffff168152602001908152602001600020546135b59092919063ffffffff16565b6001600086815260200190815260200160002060008873ffffffffffffffffffffffffffffffffffffffff1673ffffffffffffffffffffffffffffffffffffffff16815260200190815260200160002081905550612e3a836001600087815260200190815260200160002060008873ffffffffffffffffffffffffffffffffffffffff1673ffffffffffffffffffffffffffffffffffffffff1681526020019081526020016000205461367590919063ffffffff16565b6001600086815260200190815260200160002060008773ffffffffffffffffffffffffffffffffffffffff1673ffffffffffffffffffffffffffffffffffffffff168152602001908152602001600020819055508473ffffffffffffffffffffffffffffffffffffffff168673ffffffffffffffffffffffffffffffffffffffff168273ffffffffffffffffffffffffffffffffffffffff167fc3d58168c5ae7397731d063d5bbf3d657854427343f4c083240f7aacaa2d0f628787604051808381526020018281526020019250505060405180910390a4612f20818787878787614426565b505050505050565b60007f8000000000000000000000000000000000000000000000000000000000000000851614612fc0576040517f08c379a00000000000000000000000000000000000000000000000000000000081526004018080602001828103825260178152602001807f5175616c6c612f57726f6e672d546f6b656e2d5479706500000000000000000081525060200191505060405180910390fd5b60007fffffffffffffffffffffffffffffffffffffffffffffffffffffffffffffffff6fffffffffffffffffffffffffffffffff1685161461304d576040517f08c379a0000000000000000000000000000000000000000000000000000000008152600401808060200182810382526021815260200180614a506021913960400191505060405180910390fd5b61308f856040518060400160405280600981526020017f737562736372696265000000000000000000000000000000000000000000000081525085858561313f565b6000600b6000868152602001908152602001600020549050600081861790506130ed600c600088815260200190815260200160002060009054906101000a900473ffffffffffffffffffffffffffffffffffffffff1687600161413a565b61310987826001604051806020016040528060008152506133b1565b600b6000878152602001908152602001600020600081548092919060010191905055506131368188612210565b50505050505050565b60006006547f58110846b49f70e49168dab9f7743d70e8da96a3773a194c36bcb67faf9bbdc587600d60008a73ffffffffffffffffffffffffffffffffffffffff1673ffffffffffffffffffffffffffffffffffffffff168152602001908152602001600020548880519060200120604051602001808581526020018473ffffffffffffffffffffffffffffffffffffffff1681526020018381526020018281526020019450505050506040516020818303038152906040528051906020012060405160200180807f19010000000000000000000000000000000000000000000000000000000000008152506002018381526020018281526020019250505060405160208183030381529060405280519060200120905060018185858560405160008152602001604052604051808581526020018460ff1681526020018381526020018281526020019450505050506020604051602081039080840390855afa1580156132b0573d6000803e3d6000fd5b5050506020604051035173ffffffffffffffffffffffffffffffffffffffff168673ffffffffffffffffffffffffffffffffffffffff161461335a576040517f08c379a00000000000000000000000000000000000000000000000000000000081526004018080602001828103825260158152602001807f5175616c6c612f696e76616c69642d7065726d6974000000000000000000000081525060200191505060405180910390fd5b600d60008773ffffffffffffffffffffffffffffffffffffffff1673ffffffffffffffffffffffffffffffffffffffff16815260200190815260200160002060008154809291906001019190505550505050505050565b600073ffffffffffffffffffffffffffffffffffffffff168473ffffffffffffffffffffffffffffffffffffffff161415613437576040517f08c379a0000000000000000000000000000000000000000000000000000000008152600401808060200182810382526021815260200180614aeb6021913960400191505060405180910390fd5b60006134416135a5565b90506134628160008761345388613a8c565b61345c88613a8c565b876135ad565b6134c5836001600087815260200190815260200160002060008873ffffffffffffffffffffffffffffffffffffffff1673ffffffffffffffffffffffffffffffffffffffff1681526020019081526020016000205461367590919063ffffffff16565b6001600086815260200190815260200160002060008773ffffffffffffffffffffffffffffffffffffffff1673ffffffffffffffffffffffffffffffffffffffff168152602001908152602001600020819055508473ffffffffffffffffffffffffffffffffffffffff16600073ffffffffffffffffffffffffffffffffffffffff168273ffffffffffffffffffffffffffffffffffffffff167fc3d58168c5ae7397731d063d5bbf3d657854427343f4c083240f7aacaa2d0f628787604051808381526020018281526020019250505060405180910390a45050505050565b600033905090565b505050505050565b6000838311158290613662576040517f08c379a00000000000000000000000000000000000000000000000000000000081526004018080602001828103825283818151815260200191508051906020019080838360005b8381101561362757808201518184015260208101905061360c565b50505050905090810190601f1680156136545780820380516001836020036101000a031916815260200191505b509250505060405180910390fd5b5060008385039050809150509392505050565b6000808284019050838110156136f3576040517f08c379a000000000000000000000000000000000000000000000000000000000815260040180806020018281038252601b8152602001807f536166654d6174683a206164646974696f6e206f766572666c6f77000000000081525060200191505060405180910390fd5b8091505092915050565b61371c8473ffffffffffffffffffffffffffffffffffffffff16614733565b15613a84578373ffffffffffffffffffffffffffffffffffffffff1663bc197c8187878686866040518663ffffffff1660e01b8152600401808673ffffffffffffffffffffffffffffffffffffffff1681526020018573ffffffffffffffffffffffffffffffffffffffff168152602001806020018060200180602001848103845287818151815260200191508051906020019060200280838360005b838110156137d45780820151818401526020810190506137b9565b50505050905001848103835286818151815260200191508051906020019060200280838360005b838110156138165780820151818401526020810190506137fb565b50505050905001848103825285818151815260200191508051906020019080838360005b8381101561385557808201518184015260208101905061383a565b50505050905090810190601f1680156138825780820380516001836020036101000a031916815260200191505b5098505050505050505050602060405180830381600087803b1580156138a757600080fd5b505af19250505080156138db57506040513d60208110156138c757600080fd5b810190808051906020019092919050505060015b6139e5576138e761482a565b806138f25750613994565b806040517f08c379a00000000000000000000000000000000000000000000000000000000081526004018080602001828103825283818151815260200191508051906020019080838360005b8381101561395957808201518184015260208101905061393e565b50505050905090810190601f1680156139865780820380516001836020036101000a031916815260200191505b509250505060405180910390fd5b6040517f08c379a00000000000000000000000000000000000000000000000000000000081526004018080602001828103825260348152602001806148e16034913960400191505060405180910390fd5b63bc197c8160e01b7bffffffffffffffffffffffffffffffffffffffffffffffffffffffff1916817bffffffffffffffffffffffffffffffffffffffffffffffffffffffff191614613a82576040517f08c379a00000000000000000000000000000000000000000000000000000000081526004018080602001828103825260288152602001806149156028913960400191505060405180910390fd5b505b505050505050565b606080600167ffffffffffffffff81118015613aa757600080fd5b50604051908082528060200260200182016040528015613ad65781602001602082028036833780820191505090505b5090508281600081518110613ae757fe5b60200260200101818152505080915050919050565b6060845167ffffffffffffffff81118015613b1657600080fd5b50604051908082528060200260200182016040528015613b455781602001602082028036833780820191505090505b5090506060855167ffffffffffffffff81118015613b6257600080fd5b50604051908082528060200260200182016040528015613b915781602001602082028036833780820191505090505b509050828060200190516040811015613ba957600080fd5b8101908080516040519392919084640100000000821115613bc957600080fd5b83820191506020820185811115613bdf57600080fd5b8251866020820283011164010000000082111715613bfc57600080fd5b8083526020830192505050908051906020019060200280838360005b83811015613c33578082015181840152602081019050613c18565b5050505090500160405260200180516040519392919084640100000000821115613c5c57600080fd5b83820191506020820185811115613c7257600080fd5b8251866020820283011164010000000082111715613c8f57600080fd5b8083526020830192505050908051906020019060200280838360005b83811015613cc6578082015181840152602081019050613cab565b50505050905001604052505050809250819350505060005b8651811015613e0f57818181518110613cf357fe5b602002602001015160086000898481518110613d0b57fe5b6020026020010151815260200190815260200160002081905550828181518110613d3157fe5b602002602001015160096000898481518110613d4957fe5b6020026020010151815260200190815260200160002060006101000a81548173ffffffffffffffffffffffffffffffffffffffff021916908373ffffffffffffffffffffffffffffffffffffffff16021790555085600c6000898481518110613dae57fe5b6020026020010151815260200190815260200160002060006101000a81548173ffffffffffffffffffffffffffffffffffffffff021916908373ffffffffffffffffffffffffffffffffffffffff1602179055508080600101915050613cde565b50505050505050565b600073ffffffffffffffffffffffffffffffffffffffff168473ffffffffffffffffffffffffffffffffffffffff161415613e9e576040517f08c379a0000000000000000000000000000000000000000000000000000000008152600401808060200182810382526021815260200180614aeb6021913960400191505060405180910390fd5b8151835114613ef8576040517f08c379a0000000000000000000000000000000000000000000000000000000008152600401808060200182810382526028815260200180614ac36028913960400191505060405180910390fd5b6000613f026135a5565b9050613f13816000878787876135ad565b60005b845181101561401c57613fa860016000878481518110613f3257fe5b6020026020010151815260200190815260200160002060008873ffffffffffffffffffffffffffffffffffffffff1673ffffffffffffffffffffffffffffffffffffffff16815260200190815260200160002054858381518110613f9257fe5b602002602001015161367590919063ffffffff16565b60016000878481518110613fb857fe5b6020026020010151815260200190815260200160002060008873ffffffffffffffffffffffffffffffffffffffff1673ffffffffffffffffffffffffffffffffffffffff168152602001908152602001600020819055508080600101915050613f16565b508473ffffffffffffffffffffffffffffffffffffffff16600073ffffffffffffffffffffffffffffffffffffffff168273ffffffffffffffffffffffffffffffffffffffff167f4a39dc06d4c0dbc64b70af90fd698a233a518aa5d07e595d983b8c0526c8f7fb8787604051808060200180602001838103835285818151815260200191508051906020019060200280838360005b838110156140cd5780820151818401526020810190506140b2565b50505050905001838103825284818151815260200191508051906020019060200280838360005b8381101561410f5780820151818401526020810190506140f4565b5050505090500194505050505060405180910390a4614133816000878787876136fd565b5050505050565b600073ffffffffffffffffffffffffffffffffffffffff168373ffffffffffffffffffffffffffffffffffffffff1614156141c0576040517f08c379a00000000000000000000000000000000000000000000000000000000081526004018080602001828103825260238152602001806149e26023913960400191505060405180910390fd5b60006141ca6135a5565b90506141fa818560006141dc87613a8c565b6141e587613a8c565b604051806020016040528060008152506135ad565b61427782604051806060016040528060248152602001614999602491396001600087815260200190815260200160002060008873ffffffffffffffffffffffffffffffffffffffff1673ffffffffffffffffffffffffffffffffffffffff168152602001908152602001600020546135b59092919063ffffffff16565b6001600085815260200190815260200160002060008673ffffffffffffffffffffffffffffffffffffffff1673ffffffffffffffffffffffffffffffffffffffff16815260200190815260200160002081905550600073ffffffffffffffffffffffffffffffffffffffff168473ffffffffffffffffffffffffffffffffffffffff168273ffffffffffffffffffffffffffffffffffffffff167fc3d58168c5ae7397731d063d5bbf3d657854427343f4c083240f7aacaa2d0f628686604051808381526020018281526020019250505060405180910390a450505050565b60008083141561436957600090506143d6565b600082840290508284828161437a57fe5b04146143d1576040517f08c379a0000000000000000000000000000000000000000000000000000000008152600401808060200182810382526021815260200180614a2f6021913960400191505060405180910390fd5b809150505b92915050565b600061441e83836040518060400160405280601a81526020017f536166654d6174683a206469766973696f6e206279207a65726f000000000000815250614746565b905092915050565b6144458473ffffffffffffffffffffffffffffffffffffffff16614733565b1561472b578373ffffffffffffffffffffffffffffffffffffffff1663f23a6e6187878686866040518663ffffffff1660e01b8152600401808673ffffffffffffffffffffffffffffffffffffffff1681526020018573ffffffffffffffffffffffffffffffffffffffff16815260200184815260200183815260200180602001828103825283818151815260200191508051906020019080838360005b838110156144fe5780820151818401526020810190506144e3565b50505050905090810190601f16801561452b5780820380516001836020036101000a031916815260200191505b509650505050505050602060405180830381600087803b15801561454e57600080fd5b505af192505050801561458257506040513d602081101561456e57600080fd5b810190808051906020019092919050505060015b61468c5761458e61482a565b80614599575061463b565b806040517f08c379a00000000000000000000000000000000000000000000000000000000081526004018080602001828103825283818151815260200191508051906020019080838360005b838110156146005780820151818401526020810190506145e5565b50505050905090810190601f16801561462d5780820380516001836020036101000a031916815260200191505b509250505060405180910390fd5b6040517f08c379a00000000000000000000000000000000000000000000000000000000081526004018080602001828103825260348152602001806148e16034913960400191505060405180910390fd5b63f23a6e6160e01b7bffffffffffffffffffffffffffffffffffffffffffffffffffffffff1916817bffffffffffffffffffffffffffffffffffffffffffffffffffffffff191614614729576040517f08c379a00000000000000000000000000000000000000000000000000000000081526004018080602001828103825260288152602001806149156028913960400191505060405180910390fd5b505b505050505050565b600080823b905060008111915050919050565b600080831182906147f2576040517f08c379a00000000000000000000000000000000000000000000000000000000081526004018080602001828103825283818151815260200191508051906020019080838360005b838110156147b757808201518184015260208101905061479c565b50505050905090810190601f1680156147e45780820380516001836020036101000a031916815260200191505b509250505060405180910390fd5b5060008385816147fe57fe5b049050809150509392505050565b6000601f19601f8301169050919050565b60008160e01c9050919050565b600060443d101561483a576148dd565b60046000803e61484b60005161481d565b6308c379a0811461485c57506148dd565b60405160043d036004823e80513d602482011167ffffffffffffffff82111715614888575050506148dd565b808201805167ffffffffffffffff8111156148a75750505050506148dd565b8060208301013d85018111156148c2575050505050506148dd565b6148cb8261480c565b60208401016040528296505050505050505b9056fe455243313135353a207472616e7366657220746f206e6f6e2045524331313535526563656976657220696d706c656d656e746572455243313135353a204552433131353552656365697665722072656a656374656420746f6b656e73455243313135353a2062616c616e636520717565727920666f7220746865207a65726f2061646472657373455243313135353a2062617463682062616c616e636520717565727920666f7220746865207a65726f2061646472657373455243313135353a206275726e20616d6f756e7420657863656564732062616c616e6365455243313135353a207472616e7366657220746f20746865207a65726f2061646472657373455243313135353a206275726e2066726f6d20746865207a65726f2061646472657373455243313135353a20696e73756666696369656e742062616c616e636520666f72207472616e73666572536166654d6174683a206d756c7469706c69636174696f6e206f766572666c6f775175616c6c612f496e76616c69642d537562736372697074696f6e2d496e646578455243313135353a2073657474696e6720617070726f76616c2073746174757320666f722073656c66455243313135353a206163636f756e747320616e6420696473206c656e677468206d69736d61746368455243313135353a2069647320616e6420616d6f756e7473206c656e677468206d69736d61746368455243313135353a206d696e7420746f20746865207a65726f2061646472657373a2646970667358221220f7d179ddd3b755d9d501818d8b4bd8ea9e0d59e9ce03e8996b8a8dcdfee8a2fd64736f6c63430007030033",
  "linkReferences": {},
  "deployedLinkReferences": {}
}