{
  "_format": "hh-sol-artifact-1",
  "contractName": "QuallaSubscriptionsFacet",
  "sourceName": "contracts/facets/QuallaSubscriptionFacet.sol",
  "abi": [
    {
      "anonymous": false,
      "inputs": [
        {
          "indexed": true,
          "internalType": "address",
          "name": "account",
          "type": "address"
        },
        {
          "indexed": true,
          "internalType": "address",
          "name": "operator",
          "type": "address"
        },
        {
          "indexed": false,
          "internalType": "bool",
          "name": "approved",
          "type": "bool"
        }
      ],
      "name": "ApprovalForAll",
      "type": "event"
    },
    {
      "anonymous": false,
      "inputs": [
        {
          "indexed": true,
          "internalType": "address",
          "name": "operator",
          "type": "address"
        },
        {
          "indexed": true,
          "internalType": "address",
          "name": "from",
          "type": "address"
        },
        {
          "indexed": true,
          "internalType": "address",
          "name": "to",
          "type": "address"
        },
        {
          "indexed": false,
          "internalType": "uint256[]",
          "name": "ids",
          "type": "uint256[]"
        },
        {
          "indexed": false,
          "internalType": "uint256[]",
          "name": "values",
          "type": "uint256[]"
        }
      ],
      "name": "TransferBatch",
      "type": "event"
    },
    {
      "anonymous": false,
      "inputs": [
        {
          "indexed": true,
          "internalType": "address",
          "name": "operator",
          "type": "address"
        },
        {
          "indexed": true,
          "internalType": "address",
          "name": "from",
          "type": "address"
        },
        {
          "indexed": true,
          "internalType": "address",
          "name": "to",
          "type": "address"
        },
        {
          "indexed": false,
          "internalType": "uint256",
          "name": "id",
          "type": "uint256"
        },
        {
          "indexed": false,
          "internalType": "uint256",
          "name": "value",
          "type": "uint256"
        }
      ],
      "name": "TransferSingle",
      "type": "event"
    },
    {
      "anonymous": false,
      "inputs": [
        {
          "indexed": false,
          "internalType": "string",
          "name": "value",
          "type": "string"
        },
        {
          "indexed": true,
          "internalType": "uint256",
          "name": "id",
          "type": "uint256"
        }
      ],
      "name": "URI",
      "type": "event"
    },
    {
      "inputs": [
        {
          "internalType": "address",
          "name": "account",
          "type": "address"
        },
        {
          "internalType": "uint256",
          "name": "id",
          "type": "uint256"
        }
      ],
      "name": "balanceOf",
      "outputs": [
        {
          "internalType": "uint256",
          "name": "",
          "type": "uint256"
        }
      ],
      "stateMutability": "view",
      "type": "function"
    },
    {
      "inputs": [
        {
          "internalType": "address[]",
          "name": "accounts",
          "type": "address[]"
        },
        {
          "internalType": "uint256[]",
          "name": "ids",
          "type": "uint256[]"
        }
      ],
      "name": "balanceOfBatch",
      "outputs": [
        {
          "internalType": "uint256[]",
          "name": "",
          "type": "uint256[]"
        }
      ],
      "stateMutability": "view",
      "type": "function"
    },
    {
      "inputs": [
        {
          "internalType": "uint256",
          "name": "id",
          "type": "uint256"
        },
        {
          "internalType": "uint256",
          "name": "amount",
          "type": "uint256"
        },
        {
          "internalType": "uint8",
          "name": "v",
          "type": "uint8"
        },
        {
          "internalType": "bytes32",
          "name": "r",
          "type": "bytes32"
        },
        {
          "internalType": "bytes32",
          "name": "s",
          "type": "bytes32"
        }
      ],
      "name": "burnSubscription",
      "outputs": [],
      "stateMutability": "nonpayable",
      "type": "function"
    },
    {
      "inputs": [
        {
          "internalType": "address",
          "name": "subscriber",
          "type": "address"
        },
        {
          "internalType": "uint256",
          "name": "id",
          "type": "uint256"
        },
        {
          "internalType": "uint8",
          "name": "v",
          "type": "uint8"
        },
        {
          "internalType": "bytes32",
          "name": "r",
          "type": "bytes32"
        },
        {
          "internalType": "bytes32",
          "name": "s",
          "type": "bytes32"
        }
      ],
      "name": "buySubscription",
      "outputs": [],
      "stateMutability": "nonpayable",
      "type": "function"
    },
    {
      "inputs": [
        {
          "internalType": "address",
          "name": "user",
          "type": "address"
        },
        {
          "internalType": "uint256",
          "name": "subTokenId",
          "type": "uint256"
        },
        {
          "internalType": "uint256",
          "name": "nftTokenId",
          "type": "uint256"
        },
        {
          "internalType": "uint8",
          "name": "v",
          "type": "uint8"
        },
        {
          "internalType": "bytes32",
          "name": "r",
          "type": "bytes32"
        },
        {
          "internalType": "bytes32",
          "name": "s",
          "type": "bytes32"
        }
      ],
      "name": "claimNFT",
      "outputs": [],
      "stateMutability": "nonpayable",
      "type": "function"
    },
    {
      "inputs": [
        {
          "internalType": "uint256",
          "name": "id_",
          "type": "uint256"
        },
        {
          "internalType": "address",
          "name": "subscriber",
          "type": "address"
        }
      ],
      "name": "executeSubscription",
      "outputs": [],
      "stateMutability": "nonpayable",
      "type": "function"
    },
    {
      "inputs": [
        {
          "internalType": "uint256",
          "name": "id",
          "type": "uint256"
        }
      ],
      "name": "getBaseToken",
      "outputs": [
        {
          "components": [
            {
              "internalType": "address",
              "name": "creator",
              "type": "address"
            },
            {
              "internalType": "contract IERC20",
              "name": "paymentToken",
              "type": "address"
            },
            {
              "internalType": "uint256",
              "name": "paymentValue",
              "type": "uint256"
            },
            {
              "internalType": "uint256",
              "name": "nonce",
              "type": "uint256"
            }
          ],
          "internalType": "struct LibSubscriptions.BaseToken",
          "name": "",
          "type": "tuple"
        }
      ],
      "stateMutability": "view",
      "type": "function"
    },
    {
      "inputs": [
        {
          "internalType": "uint256",
          "name": "id",
          "type": "uint256"
        }
      ],
      "name": "getSubToken",
      "outputs": [
        {
          "components": [
            {
              "internalType": "uint256",
              "name": "nonce",
              "type": "uint256"
            },
            {
              "internalType": "uint256",
              "name": "nextWidthdraw",
              "type": "uint256"
            },
            {
              "internalType": "uint256",
              "name": "mintStamp",
              "type": "uint256"
            }
          ],
          "internalType": "struct LibSubscriptions.SubToken",
          "name": "",
          "type": "tuple"
        }
      ],
      "stateMutability": "view",
      "type": "function"
    },
    {
      "inputs": [],
      "name": "getTest",
      "outputs": [
        {
          "internalType": "uint256",
          "name": "",
          "type": "uint256"
        }
      ],
      "stateMutability": "view",
      "type": "function"
    },
    {
      "inputs": [
        {
          "internalType": "address",
          "name": "account",
          "type": "address"
        },
        {
          "internalType": "address",
          "name": "operator",
          "type": "address"
        }
      ],
      "name": "isApprovedForAll",
      "outputs": [
        {
          "internalType": "bool",
          "name": "",
          "type": "bool"
        }
      ],
      "stateMutability": "view",
      "type": "function"
    },
    {
      "inputs": [
        {
          "internalType": "address",
          "name": "creator",
          "type": "address"
        },
        {
          "internalType": "uint256[]",
          "name": "amounts",
          "type": "uint256[]"
        },
        {
          "internalType": "address[]",
          "name": "paymentTokens",
          "type": "address[]"
        },
        {
          "internalType": "uint256[]",
          "name": "paymentValues",
          "type": "uint256[]"
        },
        {
          "internalType": "uint8",
          "name": "v",
          "type": "uint8"
        },
        {
          "internalType": "bytes32",
          "name": "r",
          "type": "bytes32"
        },
        {
          "internalType": "bytes32",
          "name": "s",
          "type": "bytes32"
        }
      ],
      "name": "mintBatchSubscription",
      "outputs": [],
      "stateMutability": "nonpayable",
      "type": "function"
    },
    {
      "inputs": [
        {
          "internalType": "uint256",
          "name": "baseTokenId",
          "type": "uint256"
        },
        {
          "internalType": "string",
          "name": "_uri",
          "type": "string"
        },
        {
          "internalType": "uint8",
          "name": "v",
          "type": "uint8"
        },
        {
          "internalType": "bytes32",
          "name": "r",
          "type": "bytes32"
        },
        {
          "internalType": "bytes32",
          "name": "s",
          "type": "bytes32"
        }
      ],
      "name": "mintNFTtoSubscribers",
      "outputs": [],
      "stateMutability": "nonpayable",
      "type": "function"
    },
    {
      "inputs": [
        {
          "internalType": "uint256[]",
          "name": "baseTokenId",
          "type": "uint256[]"
        },
        {
          "internalType": "string",
          "name": "_uri",
          "type": "string"
        },
        {
          "internalType": "uint8",
          "name": "v",
          "type": "uint8"
        },
        {
          "internalType": "bytes32",
          "name": "r",
          "type": "bytes32"
        },
        {
          "internalType": "bytes32",
          "name": "s",
          "type": "bytes32"
        }
      ],
      "name": "mintNFTtoSubscribersBatch",
      "outputs": [],
      "stateMutability": "nonpayable",
      "type": "function"
    },
    {
      "inputs": [
        {
          "internalType": "address",
          "name": "creator",
          "type": "address"
        },
        {
          "internalType": "uint256",
          "name": "amount",
          "type": "uint256"
        },
        {
          "internalType": "address",
          "name": "paymentToken",
          "type": "address"
        },
        {
          "internalType": "uint256",
          "name": "paymentValue",
          "type": "uint256"
        },
        {
          "internalType": "uint8",
          "name": "v",
          "type": "uint8"
        },
        {
          "internalType": "bytes32",
          "name": "r",
          "type": "bytes32"
        },
        {
          "internalType": "bytes32",
          "name": "s",
          "type": "bytes32"
        }
      ],
      "name": "mintSubscription",
      "outputs": [],
      "stateMutability": "nonpayable",
      "type": "function"
    },
    {
      "inputs": [
        {
          "internalType": "address",
          "name": "from",
          "type": "address"
        },
        {
          "internalType": "address",
          "name": "to",
          "type": "address"
        },
        {
          "internalType": "uint256[]",
          "name": "ids",
          "type": "uint256[]"
        },
        {
          "internalType": "uint256[]",
          "name": "amounts",
          "type": "uint256[]"
        },
        {
          "internalType": "bytes",
          "name": "data",
          "type": "bytes"
        }
      ],
      "name": "safeBatchTransferFrom",
      "outputs": [],
      "stateMutability": "nonpayable",
      "type": "function"
    },
    {
      "inputs": [
        {
          "internalType": "address",
          "name": "from",
          "type": "address"
        },
        {
          "internalType": "address",
          "name": "to",
          "type": "address"
        },
        {
          "internalType": "uint256",
          "name": "id",
          "type": "uint256"
        },
        {
          "internalType": "uint256",
          "name": "amount",
          "type": "uint256"
        },
        {
          "internalType": "bytes",
          "name": "data",
          "type": "bytes"
        }
      ],
      "name": "safeTransferFrom",
      "outputs": [],
      "stateMutability": "nonpayable",
      "type": "function"
    },
    {
      "inputs": [
        {
          "internalType": "address",
          "name": "operator",
          "type": "address"
        },
        {
          "internalType": "bool",
          "name": "approved",
          "type": "bool"
        }
      ],
      "name": "setApprovalForAll",
      "outputs": [],
      "stateMutability": "nonpayable",
      "type": "function"
    },
    {
      "inputs": [
        {
          "internalType": "address",
          "name": "subscriber",
          "type": "address"
        },
        {
          "internalType": "uint256",
          "name": "id_",
          "type": "uint256"
        },
        {
          "internalType": "uint8",
          "name": "v",
          "type": "uint8"
        },
        {
          "internalType": "bytes32",
          "name": "r",
          "type": "bytes32"
        },
        {
          "internalType": "bytes32",
          "name": "s",
          "type": "bytes32"
        }
      ],
      "name": "unSubscribe",
      "outputs": [],
      "stateMutability": "nonpayable",
      "type": "function"
    }
  ],
  "bytecode": "0x608060405234801561001057600080fd5b50615e7980620000216000396000f3fe608060405234801561001057600080fd5b50600436106101155760003560e01c80639eb9abde116100a2578063e985e9c511610071578063e985e9c5146102c4578063ef783f11146102f4578063f242432a14610310578063f73b43a81461032c578063ffb651e01461034857610115565b80639eb9abde14610252578063a22cb4651461026e578063a8cd0a801461028a578063b166acd1146102a857610115565b80634e1273f4116100e95780634e1273f41461019e5780634f43da73146101ce5780634fce9474146101fe5780635b50b69d1461021a57806395fbbf501461023657610115565b8062fdd58e1461011a5780632eb2c2d61461014a5780633a9e6e44146101665780634938005614610182575b600080fd5b610134600480360381019061012f9190614771565b610378565b6040516101419190615b41565b60405180910390f35b610164600480360381019061015f91906144e9565b6103e1565b005b610180600480360381019061017b91906147ad565b610887565b005b61019c600480360381019061019791906149c0565b610a70565b005b6101b860048036038101906101b3919061494b565b610ed0565b6040516101c5919061570d565b60405180910390f35b6101e860048036038101906101e39190614a90565b6110c8565b6040516101f59190615b26565b60405180910390f35b61021860048036038101906102139190614647565b611154565b005b610234600480360381019061022f919061484b565b6114b3565b005b610250600480360381019061024b9190614bad565b6117dc565b005b61026c60048036038101906102679190614ae2565b611957565b005b61028860048036038101906102839190614735565b612079565b005b610292612209565b60405161029f9190615b41565b60405180910390f35b6102c260048036038101906102bd91906148d4565b612221565b005b6102de60048036038101906102d991906144ad565b612423565b6040516102eb9190615766565b60405180910390f35b61030e60048036038101906103099190614b1e565b6124c5565b005b61032a600480360381019061032591906145b5565b61273d565b005b610346600480360381019061034191906148d4565b612abc565b005b610362600480360381019061035d9190614a90565b612fc0565b60405161036f9190615b0b565b60405180910390f35b60008061038361310a565b905080600401600084815260200190815260200160002060008573ffffffffffffffffffffffffffffffffffffffff1673ffffffffffffffffffffffffffffffffffffffff1681526020019081526020016000205491505092915050565b838390508686905014610429576040517f08c379a000000000000000000000000000000000000000000000000000000000815260040161042090615acb565b60405180910390fd5b600073ffffffffffffffffffffffffffffffffffffffff168773ffffffffffffffffffffffffffffffffffffffff161415610499576040517f08c379a0000000000000000000000000000000000000000000000000000000008152600401610490906159cb565b60405180910390fd5b6104a1613137565b73ffffffffffffffffffffffffffffffffffffffff168873ffffffffffffffffffffffffffffffffffffffff1614806104e757506104e6886104e1613137565b612423565b5b610526576040517f08c379a000000000000000000000000000000000000000000000000000000000815260040161051d906159eb565b60405180910390fd5b600061053061310a565b905060005b8787905081101561071757600088888381811061054e57fe5b9050602002013590506105e887878481811061056657fe5b905060200201356040518060600160405280602a8152602001615df9602a913985600401600085815260200190815260200160002060008f73ffffffffffffffffffffffffffffffffffffffff1673ffffffffffffffffffffffffffffffffffffffff1681526020019081526020016000205461313f9092919063ffffffff16565b83600401600083815260200190815260200160002060008d73ffffffffffffffffffffffffffffffffffffffff1673ffffffffffffffffffffffffffffffffffffffff168152602001908152602001600020819055506106b587878481811061064d57fe5b9050602002013584600401600084815260200190815260200160002060008d73ffffffffffffffffffffffffffffffffffffffff1673ffffffffffffffffffffffffffffffffffffffff168152602001908152602001600020546131ff90919063ffffffff16565b83600401600083815260200190815260200160002060008c73ffffffffffffffffffffffffffffffffffffffff1673ffffffffffffffffffffffffffffffffffffffff1681526020019081526020016000208190555050806001019050610535565b508773ffffffffffffffffffffffffffffffffffffffff168973ffffffffffffffffffffffffffffffffffffffff1661074e613137565b73ffffffffffffffffffffffffffffffffffffffff167f4a39dc06d4c0dbc64b70af90fd698a233a518aa5d07e595d983b8c0526c8f7fb8a8a8a8a60405161079994939291906156d2565b60405180910390a461087c6107ac613137565b8a8a8a8a80806020026020016040519081016040528093929190818152602001838360200280828437600081840152601f19601f82011690508083019250505050505050898980806020026020016040519081016040528093929190818152602001838360200280828437600081840152601f19601f8201169050808301925050505050505088888080601f016020809104026020016040519081016040528093929190818152602001838380828437600081840152601f19601f82011690508083019250505050505050613287565b505050505050505050565b6108c9876040518060400160405280600481526020017f6d696e74000000000000000000000000000000000000000000000000000000008152508585856134fd565b60006108d361310a565b90506000871415610902577fffffffffffffffffffffffffffffffffffffffffffffffffffffffffffffffff96505b6000608061091e600184600701546131ff90919063ffffffff16565b901b905060405180608001604052808a73ffffffffffffffffffffffffffffffffffffffff1681526020018873ffffffffffffffffffffffffffffffffffffffff168152602001878152602001600181525082600001600083815260200190815260200160002060008201518160000160006101000a81548173ffffffffffffffffffffffffffffffffffffffff021916908373ffffffffffffffffffffffffffffffffffffffff16021790555060208201518160010160006101000a81548173ffffffffffffffffffffffffffffffffffffffff021916908373ffffffffffffffffffffffffffffffffffffffff1602179055506040820151816002015560608201518160030155905050610a42600183600701546131ff90919063ffffffff16565b8260070181905550610a6589828a6040518060200160405280600081525061356c565b505050505050505050565b6000610a7a61310a565b9050600081600001600088600081518110610a9157fe5b6020026020010151815260200190815260200160002060000160009054906101000a900473ffffffffffffffffffffffffffffffffffffffff169050610b0f816040518060400160405280600381526020017f6e667400000000000000000000000000000000000000000000000000000000008152508787876134fd565b6000875167ffffffffffffffff81118015610b2957600080fd5b50604051908082528060200260200182016040528015610b585781602001602082028036833780820191505090505b5090506000885167ffffffffffffffff81118015610b7557600080fd5b50604051908082528060200260200182016040528015610ba45781602001602082028036833780820191505090505b50905060005b8951811015610e5d578373ffffffffffffffffffffffffffffffffffffffff168560000160008c8481518110610bdc57fe5b6020026020010151815260200190815260200160002060000160009054906101000a900473ffffffffffffffffffffffffffffffffffffffff1673ffffffffffffffffffffffffffffffffffffffff1614610c6c576040517f08c379a0000000000000000000000000000000000000000000000000000000008152600401610c63906159ab565b60405180910390fd5b6080610c86600187600701546131ff90919063ffffffff16565b901b838281518110610c9457fe5b6020026020010181815250507f8000000000000000000000000000000000000000000000000000000000000000838281518110610ccd57fe5b602002602001015117838281518110610ce257fe5b6020026020010181815250508460000160008b8381518110610d0057fe5b6020026020010151815260200190815260200160002060030154828281518110610d2657fe5b6020026020010181815250506040518060a001604052808a81526020014281526020018b8381518110610d5557fe5b60200260200101518152602001600181526020018573ffffffffffffffffffffffffffffffffffffffff16815250856002016000858481518110610d9557fe5b602002602001015181526020019081526020016000206000820151816000019080519060200190610dc79291906140f5565b5060208201518160010155604082015181600201556060820151816003015560808201518160040160006101000a81548173ffffffffffffffffffffffffffffffffffffffff021916908373ffffffffffffffffffffffffffffffffffffffff160217905550905050610e48600186600701546131ff90919063ffffffff16565b85600701819055508080600101915050610baa565b50610ec58460000160008b600081518110610e7457fe5b6020026020010151815260200190815260200160002060000160009054906101000a900473ffffffffffffffffffffffffffffffffffffffff16838360405180602001604052806000815250613745565b505050505050505050565b6060828290508585905014610f1a576040517f08c379a0000000000000000000000000000000000000000000000000000000008152600401610f1190615aab565b60405180910390fd5b6000610f2461310a565b905060008686905067ffffffffffffffff81118015610f4257600080fd5b50604051908082528060200260200182016040528015610f715781602001602082028036833780820191505090505b50905060005b878790508110156110ba57600073ffffffffffffffffffffffffffffffffffffffff16888883818110610fa657fe5b9050602002016020810190610fbb9190614484565b73ffffffffffffffffffffffffffffffffffffffff161415611012576040517f08c379a0000000000000000000000000000000000000000000000000000000008152600401611009906158ab565b60405180910390fd5b82600401600087878481811061102457fe5b905060200201358152602001908152602001600020600089898481811061104757fe5b905060200201602081019061105c9190614484565b73ffffffffffffffffffffffffffffffffffffffff1673ffffffffffffffffffffffffffffffffffffffff168152602001908152602001600020548282815181106110a357fe5b602002602001018181525050806001019050610f77565b508092505050949350505050565b6110d0614183565b60006110da61310a565b90506110e4614183565b8160010160008581526020019081526020016000206000015481600001818152505081600101600085815260200190815260200160002060010154816020018181525050816001016000858152602001908152602001600020600201548160400181815250508092505050919050565b8686905088511461119a576040517f08c379a0000000000000000000000000000000000000000000000000000000008152600401611191906158cb565b60405180910390fd5b848490508851146111e0576040517f08c379a00000000000000000000000000000000000000000000000000000000081526004016111d79061592b565b60405180910390fd5b611222896040518060400160405280600481526020017f6d696e74000000000000000000000000000000000000000000000000000000008152508585856134fd565b600061122c61310a565b90506000895167ffffffffffffffff8111801561124857600080fd5b506040519080825280602002602001820160405280156112775781602001602082028036833780820191505090505b50905060005b8a5181101561148a5760008b828151811061129457fe5b602002602001015114156112dc577fffffffffffffffffffffffffffffffffffffffffffffffffffffffffffffffff8b82815181106112cf57fe5b6020026020010181815250505b60806112f6600185600701546131ff90919063ffffffff16565b901b82828151811061130457fe5b60200260200101818152505060405180608001604052808d73ffffffffffffffffffffffffffffffffffffffff1681526020018b8b8481811061134357fe5b90506020020160208101906113589190614484565b73ffffffffffffffffffffffffffffffffffffffff16815260200189898481811061137f57fe5b90506020020135815260200160018152508360000160008484815181106113a257fe5b6020026020010151815260200190815260200160002060008201518160000160006101000a81548173ffffffffffffffffffffffffffffffffffffffff021916908373ffffffffffffffffffffffffffffffffffffffff16021790555060208201518160010160006101000a81548173ffffffffffffffffffffffffffffffffffffffff021916908373ffffffffffffffffffffffffffffffffffffffff1602179055506040820151816002015560608201518160030155905050611475600184600701546131ff90919063ffffffff16565b8360070181905550808060010191505061127d565b506114a68b828c60405180602001604052806000815250613745565b5050505050505050505050565b6114f5866040518060400160405280600581526020017f636c61696d0000000000000000000000000000000000000000000000000000008152508585856134fd565b60006114ff61310a565b9050600081600401600088815260200190815260200160002060008973ffffffffffffffffffffffffffffffffffffffff1673ffffffffffffffffffffffffffffffffffffffff1681526020019081526020016000205411611596576040517f08c379a000000000000000000000000000000000000000000000000000000000815260040161158d9061586b565b60405180910390fd5b8060020160008681526020019081526020016000206002015460807fffffffffffffffffffffffffffffffffffffffffffffffffffffffffffffffff6fffffffffffffffffffffffffffffffff16901b871614611628576040517f08c379a000000000000000000000000000000000000000000000000000000000815260040161161f90615a0b565b60405180910390fd5b80600201600086815260200190815260200160002060010154816001016000888152602001908152602001600020600201541061169a576040517f08c379a00000000000000000000000000000000000000000000000000000000081526004016116919061594b565b60405180910390fd5b60001515816003016000878152602001908152602001600020600088815260200190815260200160002060009054906101000a900460ff16151514611714576040517f08c379a000000000000000000000000000000000000000000000000000000000815260040161170b9061588b565b60405180910390fd5b6000816002016000878152602001908152602001600020600301548617905061174f888260016040518060200160405280600081525061356c565b61179382600201600088815260200190815260200160002060040160009054906101000a900473ffffffffffffffffffffffffffffffffffffffff16876001613971565b6001826003016000888152602001908152602001600020600089815260200190815260200160002060006101000a81548160ff0219169083151502179055505050505050505050565b60007f8000000000000000000000000000000000000000000000000000000000000000861614611841576040517f08c379a000000000000000000000000000000000000000000000000000000000815260040161183890615a4b565b60405180910390fd5b60007fffffffffffffffffffffffffffffffffffffffffffffffffffffffffffffffff6fffffffffffffffffffffffffffffffff168616146118b8576040517f08c379a00000000000000000000000000000000000000000000000000000000081526004016118af90615a6b565b60405180910390fd5b60006118c261310a565b9050600081600001600088815260200190815260200160002060000160009054906101000a900473ffffffffffffffffffffffffffffffffffffffff169050611943816040518060400160405280600481526020017f6275726e000000000000000000000000000000000000000000000000000000008152508787876134fd565b61194e818888613971565b50505050505050565b60007f80000000000000000000000000000000000000000000000000000000000000008316146119bc576040517f08c379a00000000000000000000000000000000000000000000000000000000081526004016119b390615a4b565b60405180910390fd5b60007fffffffffffffffffffffffffffffffffffffffffffffffffffffffffffffffff6fffffffffffffffffffffffffffffffff16831611611a33576040517f08c379a0000000000000000000000000000000000000000000000000000000008152600401611a2a90615a6b565b60405180910390fd5b6000611a3d61310a565b9050600181600401600085815260200190815260200160002060008473ffffffffffffffffffffffffffffffffffffffff1673ffffffffffffffffffffffffffffffffffffffff1681526020019081526020016000205414611ad4576040517f08c379a0000000000000000000000000000000000000000000000000000000008152600401611acb9061582b565b60405180910390fd5b428160010160008581526020019081526020016000206001015410611b2e576040517f08c379a0000000000000000000000000000000000000000000000000000000008152600401611b25906158eb565b60405180910390fd5b600060807fffffffffffffffffffffffffffffffffffffffffffffffffffffffffffffffff6fffffffffffffffffffffffffffffffff16901b8416905060008260000160008381526020019081526020016000206040518060800160405290816000820160009054906101000a900473ffffffffffffffffffffffffffffffffffffffff1673ffffffffffffffffffffffffffffffffffffffff1673ffffffffffffffffffffffffffffffffffffffff1681526020016001820160009054906101000a900473ffffffffffffffffffffffffffffffffffffffff1673ffffffffffffffffffffffffffffffffffffffff1673ffffffffffffffffffffffffffffffffffffffff16815260200160028201548152602001600382015481525050905060048360010160008781526020019081526020016000206000015410611ca057611c7b84866001613971565b611c9b81600001518360016040518060200160405280600081525061356c565b611ce9565b611ccc6001846001016000888152602001908152602001600020600001546131ff90919063ffffffff16565b836001016000878152602001908152602001600020600001819055505b6000611cf3613b54565b905060008160080160009054906101000a900460ff1660640360ff1690508260400151836020015173ffffffffffffffffffffffffffffffffffffffff1663dd62ed3e88306040518363ffffffff1660e01b8152600401611d55929190615672565b60206040518083038186803b158015611d6d57600080fd5b505afa158015611d81573d6000803e3d6000fd5b505050506040513d601f19601f82011682018060405250810190611da59190614ab9565b1080611e4057508260400151836020015173ffffffffffffffffffffffffffffffffffffffff166370a08231886040518263ffffffff1660e01b8152600401611dee9190615657565b60206040518083038186803b158015611e0657600080fd5b505afa158015611e1a573d6000803e3d6000fd5b505050506040513d601f19601f82011682018060405250810190611e3e9190614ab9565b105b15611e7257611e5186886001613971565b611e7183600001518560016040518060200160405280600081525061356c565b5b826020015173ffffffffffffffffffffffffffffffffffffffff166323b872dd878460030160009054906101000a900473ffffffffffffffffffffffffffffffffffffffff16611ef66064611ee88860080160009054906101000a900460ff1660ff168a60400151613b8190919063ffffffff16565b613c0790919063ffffffff16565b6040518463ffffffff1660e01b8152600401611f149392919061569b565b602060405180830381600087803b158015611f2e57600080fd5b505af1158015611f42573d6000803e3d6000fd5b505050506040513d601f19601f82011682018060405250810190611f669190614a67565b50826020015173ffffffffffffffffffffffffffffffffffffffff166323b872dd878560000151611fb76064611fa9878a60400151613b8190919063ffffffff16565b613c0790919063ffffffff16565b6040518463ffffffff1660e01b8152600401611fd59392919061569b565b602060405180830381600087803b158015611fef57600080fd5b505af1158015612003573d6000803e3d6000fd5b505050506040513d601f19601f820116820180604052508101906120279190614a67565b50612054600f8660010160008a8152602001908152602001600020600101546131ff90919063ffffffff16565b8560010160008981526020019081526020016000206001018190555050505050505050565b8173ffffffffffffffffffffffffffffffffffffffff16612098613137565b73ffffffffffffffffffffffffffffffffffffffff1614156120ef576040517f08c379a00000000000000000000000000000000000000000000000000000000081526004016120e690615a8b565b60405180910390fd5b60006120f961310a565b90508181600501600061210a613137565b73ffffffffffffffffffffffffffffffffffffffff1673ffffffffffffffffffffffffffffffffffffffff16815260200190815260200160002060008573ffffffffffffffffffffffffffffffffffffffff1673ffffffffffffffffffffffffffffffffffffffff16815260200190815260200160002060006101000a81548160ff0219169083151502179055508273ffffffffffffffffffffffffffffffffffffffff166121b7613137565b73ffffffffffffffffffffffffffffffffffffffff167f17307eab39ab6107e8899845ad3d59bd9653f200f220920489ca2b5937696c31846040516121fc9190615766565b60405180910390a3505050565b60008061221461310a565b9050806008015491505090565b60007f8000000000000000000000000000000000000000000000000000000000000000851614612286576040517f08c379a000000000000000000000000000000000000000000000000000000000815260040161227d90615a4b565b60405180910390fd5b60007fffffffffffffffffffffffffffffffffffffffffffffffffffffffffffffffff6fffffffffffffffffffffffffffffffff168516116122fd576040517f08c379a00000000000000000000000000000000000000000000000000000000081526004016122f490615a6b565b60405180910390fd5b61233f856040518060400160405280600b81526020017f756e7375627363726962650000000000000000000000000000000000000000008152508585856134fd565b600061234961310a565b905061235786866001613971565b61241b81600001600060807fffffffffffffffffffffffffffffffffffffffffffffffffffffffffffffffff6fffffffffffffffffffffffffffffffff16901b8816815260200190815260200160002060000160009054906101000a900473ffffffffffffffffffffffffffffffffffffffff1660807fffffffffffffffffffffffffffffffffffffffffffffffffffffffffffffffff6fffffffffffffffffffffffffffffffff16901b871660016040518060200160405280600081525061356c565b505050505050565b60008061242e61310a565b90508060050160008573ffffffffffffffffffffffffffffffffffffffff1673ffffffffffffffffffffffffffffffffffffffff16815260200190815260200160002060008473ffffffffffffffffffffffffffffffffffffffff1673ffffffffffffffffffffffffffffffffffffffff16815260200190815260200160002060009054906101000a900460ff1691505092915050565b60006124cf61310a565b905061254b81600001600088815260200190815260200160002060000160009054906101000a900473ffffffffffffffffffffffffffffffffffffffff166040518060400160405280600381526020017f6e667400000000000000000000000000000000000000000000000000000000008152508686866134fd565b60006080612567600184600701546131ff90919063ffffffff16565b901b90507f8000000000000000000000000000000000000000000000000000000000000000811790508082600801819055506040518060a00160405280878152602001428152602001888152602001600181526020018360000160008a815260200190815260200160002060000160009054906101000a900473ffffffffffffffffffffffffffffffffffffffff1673ffffffffffffffffffffffffffffffffffffffff1681525082600201600083815260200190815260200160002060008201518160000190805190602001906126409291906140f5565b5060208201518160010155604082015181600201556060820151816003015560808201518160040160006101000a81548173ffffffffffffffffffffffffffffffffffffffff021916908373ffffffffffffffffffffffffffffffffffffffff16021790555090505061271482600001600089815260200190815260200160002060000160009054906101000a900473ffffffffffffffffffffffffffffffffffffffff16828460000160008b8152602001908152602001600020600301546040518060200160405280600081525061356c565b61272c600183600701546131ff90919063ffffffff16565b826007018190555050505050505050565b600073ffffffffffffffffffffffffffffffffffffffff168573ffffffffffffffffffffffffffffffffffffffff1614156127ad576040517f08c379a00000000000000000000000000000000000000000000000000000000081526004016127a4906159cb565b60405180910390fd5b6127b5613137565b73ffffffffffffffffffffffffffffffffffffffff168673ffffffffffffffffffffffffffffffffffffffff1614806127fb57506127fa866127f5613137565b612423565b5b61283a576040517f08c379a00000000000000000000000000000000000000000000000000000000081526004016128319061590b565b60405180910390fd5b600061284461310a565b90506000612850613137565b90506128d1856040518060600160405280602a8152602001615df9602a91398460040160008a815260200190815260200160002060008c73ffffffffffffffffffffffffffffffffffffffff1673ffffffffffffffffffffffffffffffffffffffff1681526020019081526020016000205461313f9092919063ffffffff16565b82600401600088815260200190815260200160002060008a73ffffffffffffffffffffffffffffffffffffffff1673ffffffffffffffffffffffffffffffffffffffff1681526020019081526020016000208190555061298c8583600401600089815260200190815260200160002060008a73ffffffffffffffffffffffffffffffffffffffff1673ffffffffffffffffffffffffffffffffffffffff168152602001908152602001600020546131ff90919063ffffffff16565b82600401600088815260200190815260200160002060008973ffffffffffffffffffffffffffffffffffffffff1673ffffffffffffffffffffffffffffffffffffffff168152602001908152602001600020819055508673ffffffffffffffffffffffffffffffffffffffff168873ffffffffffffffffffffffffffffffffffffffff168273ffffffffffffffffffffffffffffffffffffffff167fc3d58168c5ae7397731d063d5bbf3d657854427343f4c083240f7aacaa2d0f628989604051612a58929190615b5c565b60405180910390a4612ab2818989898989898080601f016020809104026020016040519081016040528093929190818152602001838380828437600081840152601f19601f82011690508083019250505050505050613c51565b5050505050505050565b60007f8000000000000000000000000000000000000000000000000000000000000000851614612b21576040517f08c379a0000000000000000000000000000000000000000000000000000000008152600401612b1890615a4b565b60405180910390fd5b60007fffffffffffffffffffffffffffffffffffffffffffffffffffffffffffffffff6fffffffffffffffffffffffffffffffff16851614612b98576040517f08c379a0000000000000000000000000000000000000000000000000000000008152600401612b8f90615a6b565b60405180910390fd5b6000612ba261310a565b905060008160000160008781526020019081526020016000206040518060800160405290816000820160009054906101000a900473ffffffffffffffffffffffffffffffffffffffff1673ffffffffffffffffffffffffffffffffffffffff1673ffffffffffffffffffffffffffffffffffffffff1681526020016001820160009054906101000a900473ffffffffffffffffffffffffffffffffffffffff1673ffffffffffffffffffffffffffffffffffffffff1673ffffffffffffffffffffffffffffffffffffffff168152602001600282015481526020016003820154815250509050600073ffffffffffffffffffffffffffffffffffffffff16816000015173ffffffffffffffffffffffffffffffffffffffff161415612cfc576040517f08c379a0000000000000000000000000000000000000000000000000000000008152600401612cf39061598b565b60405180910390fd5b8060400151816020015173ffffffffffffffffffffffffffffffffffffffff166370a08231896040518263ffffffff1660e01b8152600401612d3e9190615657565b60206040518083038186803b158015612d5657600080fd5b505afa158015612d6a573d6000803e3d6000fd5b505050506040513d601f19601f82011682018060405250810190612d8e9190614ab9565b11612dce576040517f08c379a0000000000000000000000000000000000000000000000000000000008152600401612dc59061596b565b60405180910390fd5b8060400151816020015173ffffffffffffffffffffffffffffffffffffffff1663dd62ed3e89306040518363ffffffff1660e01b8152600401612e12929190615672565b60206040518083038186803b158015612e2a57600080fd5b505afa158015612e3e573d6000803e3d6000fd5b505050506040513d601f19601f82011682018060405250810190612e629190614ab9565b11612ea2576040517f08c379a0000000000000000000000000000000000000000000000000000000008152600401612e999061584b565b60405180910390fd5b612ee4876040518060400160405280600981526020017f73756273637269626500000000000000000000000000000000000000000000008152508787876134fd565b60008160600151871790506040518060600160405280600081526020016000815260200142815250836001016000838152602001908152602001600020600082015181600001556020820151816001015560408201518160020155905050612f528260000151886001613971565b612f6e888260016040518060200160405280600081525061356c565b612f9a60018460000160008a8152602001908152602001600020600301546131ff90919063ffffffff16565b836000016000898152602001908152602001600020600301819055505050505050505050565b612fc86141a4565b6000612fd261310a565b9050612fdc6141a4565b81600001600085815260200190815260200160002060000160009054906101000a900473ffffffffffffffffffffffffffffffffffffffff16816000019073ffffffffffffffffffffffffffffffffffffffff16908173ffffffffffffffffffffffffffffffffffffffff168152505081600001600085815260200190815260200160002060010160009054906101000a900473ffffffffffffffffffffffffffffffffffffffff16816020019073ffffffffffffffffffffffffffffffffffffffff16908173ffffffffffffffffffffffffffffffffffffffff168152505081600001600085815260200190815260200160002060020154816040018181525050816000016000858152602001908152602001600020600301548160600181815250508092505050919050565b6000807f8011e08e256fd2a672b7720b7587378b9f27bfa5a95803a3cee7cf21a0a3def890508091505090565b600033905090565b60008383111582906131ec576040517f08c379a00000000000000000000000000000000000000000000000000000000081526004018080602001828103825283818151815260200191508051906020019080838360005b838110156131b1578082015181840152602081019050613196565b50505050905090810190601f1680156131de5780820380516001836020036101000a031916815260200191505b509250505060405180910390fd5b5060008385039050809150509392505050565b60008082840190508381101561327d576040517f08c379a000000000000000000000000000000000000000000000000000000000815260040180806020018281038252601b8152602001807f536166654d6174683a206164646974696f6e206f766572666c6f77000000000081525060200191505060405180910390fd5b8091505092915050565b6000843b905060008111156134f4578473ffffffffffffffffffffffffffffffffffffffff1663bc197c8188888787876040518663ffffffff1660e01b8152600401808673ffffffffffffffffffffffffffffffffffffffff1681526020018573ffffffffffffffffffffffffffffffffffffffff168152602001806020018060200180602001848103845287818151815260200191508051906020019060200280838360005b8381101561334957808201518184015260208101905061332e565b50505050905001848103835286818151815260200191508051906020019060200280838360005b8381101561338b578082015181840152602081019050613370565b50505050905001848103825285818151815260200191508051906020019080838360005b838110156133ca5780820151818401526020810190506133af565b50505050905090810190601f1680156133f75780820380516001836020036101000a031916815260200191505b5098505050505050505050602060405180830381600087803b15801561341c57600080fd5b505af1158015613430573d6000803e3d6000fd5b505050506040513d602081101561344657600080fd5b81019080805190602001909291905050507bffffffffffffffffffffffffffffffffffffffffffffffffffffffff191663bc197c8160e01b7bffffffffffffffffffffffffffffffffffffffffffffffffffffffff1916146134f3576040517f08c379a0000000000000000000000000000000000000000000000000000000008152600401808060200182810382526028815260200180615dad6028913960400191505060405180910390fd5b5b50505050505050565b600061350761310a565b905061355b868260060160008973ffffffffffffffffffffffffffffffffffffffff1673ffffffffffffffffffffffffffffffffffffffff1681526020019081526020016000206000015487878787613e45565b61356486613f7f565b505050505050565b600073ffffffffffffffffffffffffffffffffffffffff168473ffffffffffffffffffffffffffffffffffffffff1614156135dc576040517f08c379a00000000000000000000000000000000000000000000000000000000081526004016135d390615aeb565b60405180910390fd5b60006135e6613137565b905060006135f261310a565b90506136598482600401600088815260200190815260200160002060008973ffffffffffffffffffffffffffffffffffffffff1673ffffffffffffffffffffffffffffffffffffffff168152602001908152602001600020546131ff90919063ffffffff16565b81600401600087815260200190815260200160002060008873ffffffffffffffffffffffffffffffffffffffff1673ffffffffffffffffffffffffffffffffffffffff168152602001908152602001600020819055508573ffffffffffffffffffffffffffffffffffffffff16600073ffffffffffffffffffffffffffffffffffffffff168373ffffffffffffffffffffffffffffffffffffffff167fc3d58168c5ae7397731d063d5bbf3d657854427343f4c083240f7aacaa2d0f628888604051613726929190615b5c565b60405180910390a461373d82600088888888613c51565b505050505050565b600073ffffffffffffffffffffffffffffffffffffffff168473ffffffffffffffffffffffffffffffffffffffff1614156137b5576040517f08c379a00000000000000000000000000000000000000000000000000000000081526004016137ac90615aeb565b60405180910390fd5b60006137bf613137565b905060006137cb61310a565b905060005b85518110156138da576138648260040160008884815181106137ee57fe5b6020026020010151815260200190815260200160002060008973ffffffffffffffffffffffffffffffffffffffff1673ffffffffffffffffffffffffffffffffffffffff1681526020019081526020016000205486838151811061384e57fe5b60200260200101516131ff90919063ffffffff16565b82600401600088848151811061387657fe5b6020026020010151815260200190815260200160002060008973ffffffffffffffffffffffffffffffffffffffff1673ffffffffffffffffffffffffffffffffffffffff1681526020019081526020016000208190555080806001019150506137d0565b508573ffffffffffffffffffffffffffffffffffffffff16600073ffffffffffffffffffffffffffffffffffffffff168373ffffffffffffffffffffffffffffffffffffffff167f4a39dc06d4c0dbc64b70af90fd698a233a518aa5d07e595d983b8c0526c8f7fb888860405161395292919061572f565b60405180910390a461396982600088888888613287565b505050505050565b600073ffffffffffffffffffffffffffffffffffffffff168373ffffffffffffffffffffffffffffffffffffffff1614156139e1576040517f08c379a00000000000000000000000000000000000000000000000000000000081526004016139d890615a2b565b60405180910390fd5b60006139eb613137565b905060006139f761310a565b9050613a7883604051806060016040528060248152602001615dd56024913983600401600088815260200190815260200160002060008973ffffffffffffffffffffffffffffffffffffffff1673ffffffffffffffffffffffffffffffffffffffff1681526020019081526020016000205461313f9092919063ffffffff16565b81600401600086815260200190815260200160002060008773ffffffffffffffffffffffffffffffffffffffff1673ffffffffffffffffffffffffffffffffffffffff16815260200190815260200160002081905550600073ffffffffffffffffffffffffffffffffffffffff168573ffffffffffffffffffffffffffffffffffffffff168373ffffffffffffffffffffffffffffffffffffffff167fc3d58168c5ae7397731d063d5bbf3d657854427343f4c083240f7aacaa2d0f628787604051613b45929190615b5c565b60405180910390a45050505050565b6000807fc8fcad8db84d3cc18b4c41d551ea0ee66dd599cde068d998e57d5e09332c131c90508091505090565b600080831415613b945760009050613c01565b6000828402905082848281613ba557fe5b0414613bfc576040517f08c379a0000000000000000000000000000000000000000000000000000000008152600401808060200182810382526021815260200180615e236021913960400191505060405180910390fd5b809150505b92915050565b6000613c4983836040518060400160405280601a81526020017f536166654d6174683a206469766973696f6e206279207a65726f00000000000081525061402f565b905092915050565b6000843b90506000811115613e3c578473ffffffffffffffffffffffffffffffffffffffff1663f23a6e6188888787876040518663ffffffff1660e01b8152600401808673ffffffffffffffffffffffffffffffffffffffff1681526020018573ffffffffffffffffffffffffffffffffffffffff16815260200184815260200183815260200180602001828103825283818151815260200191508051906020019080838360005b83811015613d14578082015181840152602081019050613cf9565b50505050905090810190601f168015613d415780820380516001836020036101000a031916815260200191505b509650505050505050602060405180830381600087803b158015613d6457600080fd5b505af1158015613d78573d6000803e3d6000fd5b505050506040513d6020811015613d8e57600080fd5b81019080805190602001909291905050507bffffffffffffffffffffffffffffffffffffffffffffffffffffffff191663f23a6e6160e01b7bffffffffffffffffffffffffffffffffffffffffffffffffffffffff191614613e3b576040517f08c379a0000000000000000000000000000000000000000000000000000000008152600401808060200182810382526034815260200180615d796034913960400191505060405180910390fd5b5b50505050505050565b6000613e4f613b54565b905060008160050154826006015489898980519060200120604051602001613e7a9493929190615781565b60405160208183030381529060405280519060200120604051602001613ea1929190615620565b60405160208183030381529060405280519060200120905060018186868660405160008152602001604052604051613edc94939291906157c6565b6020604051602081039080840390855afa158015613efe573d6000803e3d6000fd5b5050506020604051035173ffffffffffffffffffffffffffffffffffffffff168873ffffffffffffffffffffffffffffffffffffffff1614613f75576040517f08c379a0000000000000000000000000000000000000000000000000000000008152600401613f6c9061580b565b60405180910390fd5b5050505050505050565b6000613f8961310a565b9050613fe360018260060160008573ffffffffffffffffffffffffffffffffffffffff1673ffffffffffffffffffffffffffffffffffffffff168152602001908152602001600020600001546131ff90919063ffffffff16565b8160060160008473ffffffffffffffffffffffffffffffffffffffff1673ffffffffffffffffffffffffffffffffffffffff168152602001908152602001600020600001819055505050565b600080831182906140db576040517f08c379a00000000000000000000000000000000000000000000000000000000081526004018080602001828103825283818151815260200191508051906020019080838360005b838110156140a0578082015181840152602081019050614085565b50505050905090810190601f1680156140cd5780820380516001836020036101000a031916815260200191505b509250505060405180910390fd5b5060008385816140e757fe5b049050809150509392505050565b828054600181600116156101000203166002900490600052602060002090601f01602090048101928261412b5760008555614172565b82601f1061414457805160ff1916838001178555614172565b82800160010185558215614172579182015b82811115614171578251825591602001919060010190614156565b5b50905061417f91906141f8565b5090565b60405180606001604052806000815260200160008152602001600081525090565b6040518060800160405280600073ffffffffffffffffffffffffffffffffffffffff168152602001600073ffffffffffffffffffffffffffffffffffffffff16815260200160008152602001600081525090565b5b808211156142115760008160009055506001016141f9565b5090565b600061422861422384615bb6565b615b85565b9050808382526020820190508285602086028201111561424757600080fd5b60005b85811015614277578161425d8882614445565b84526020840193506020830192505060018101905061424a565b5050509392505050565b600061429461428f84615be2565b615b85565b9050828152602081018484840111156142ac57600080fd5b6142b7848285615cea565b509392505050565b6000813590506142ce81615d05565b92915050565b60008083601f8401126142e657600080fd5b8235905067ffffffffffffffff8111156142ff57600080fd5b60208301915083602082028301111561431757600080fd5b9250929050565b60008083601f84011261433057600080fd5b8235905067ffffffffffffffff81111561434957600080fd5b60208301915083602082028301111561436157600080fd5b9250929050565b600082601f83011261437957600080fd5b8135614389848260208601614215565b91505092915050565b6000813590506143a181615d1c565b92915050565b6000815190506143b681615d1c565b92915050565b6000813590506143cb81615d33565b92915050565b60008083601f8401126143e357600080fd5b8235905067ffffffffffffffff8111156143fc57600080fd5b60208301915083600182028301111561441457600080fd5b9250929050565b600082601f83011261442c57600080fd5b813561443c848260208601614281565b91505092915050565b60008135905061445481615d4a565b92915050565b60008151905061446981615d4a565b92915050565b60008135905061447e81615d61565b92915050565b60006020828403121561449657600080fd5b60006144a4848285016142bf565b91505092915050565b600080604083850312156144c057600080fd5b60006144ce858286016142bf565b92505060206144df858286016142bf565b9150509250929050565b60008060008060008060008060a0898b03121561450557600080fd5b60006145138b828c016142bf565b98505060206145248b828c016142bf565b975050604089013567ffffffffffffffff81111561454157600080fd5b61454d8b828c0161431e565b9650965050606089013567ffffffffffffffff81111561456c57600080fd5b6145788b828c0161431e565b9450945050608089013567ffffffffffffffff81111561459757600080fd5b6145a38b828c016143d1565b92509250509295985092959890939650565b60008060008060008060a087890312156145ce57600080fd5b60006145dc89828a016142bf565b96505060206145ed89828a016142bf565b95505060406145fe89828a01614445565b945050606061460f89828a01614445565b935050608087013567ffffffffffffffff81111561462c57600080fd5b61463889828a016143d1565b92509250509295509295509295565b600080600080600080600080600060e08a8c03121561466557600080fd5b60006146738c828d016142bf565b99505060208a013567ffffffffffffffff81111561469057600080fd5b61469c8c828d01614368565b98505060408a013567ffffffffffffffff8111156146b957600080fd5b6146c58c828d016142d4565b975097505060608a013567ffffffffffffffff8111156146e457600080fd5b6146f08c828d0161431e565b955095505060806147038c828d0161446f565b93505060a06147148c828d016143bc565b92505060c06147258c828d016143bc565b9150509295985092959850929598565b6000806040838503121561474857600080fd5b6000614756858286016142bf565b925050602061476785828601614392565b9150509250929050565b6000806040838503121561478457600080fd5b6000614792858286016142bf565b92505060206147a385828601614445565b9150509250929050565b600080600080600080600060e0888a0312156147c857600080fd5b60006147d68a828b016142bf565b97505060206147e78a828b01614445565b96505060406147f88a828b016142bf565b95505060606148098a828b01614445565b945050608061481a8a828b0161446f565b93505060a061482b8a828b016143bc565b92505060c061483c8a828b016143bc565b91505092959891949750929550565b60008060008060008060c0878903121561486457600080fd5b600061487289828a016142bf565b965050602061488389828a01614445565b955050604061489489828a01614445565b94505060606148a589828a0161446f565b93505060806148b689828a016143bc565b92505060a06148c789828a016143bc565b9150509295509295509295565b600080600080600060a086880312156148ec57600080fd5b60006148fa888289016142bf565b955050602061490b88828901614445565b945050604061491c8882890161446f565b935050606061492d888289016143bc565b925050608061493e888289016143bc565b9150509295509295909350565b6000806000806040858703121561496157600080fd5b600085013567ffffffffffffffff81111561497b57600080fd5b614987878288016142d4565b9450945050602085013567ffffffffffffffff8111156149a657600080fd5b6149b28782880161431e565b925092505092959194509250565b600080600080600060a086880312156149d857600080fd5b600086013567ffffffffffffffff8111156149f257600080fd5b6149fe88828901614368565b955050602086013567ffffffffffffffff811115614a1b57600080fd5b614a278882890161441b565b9450506040614a388882890161446f565b9350506060614a49888289016143bc565b9250506080614a5a888289016143bc565b9150509295509295909350565b600060208284031215614a7957600080fd5b6000614a87848285016143a7565b91505092915050565b600060208284031215614aa257600080fd5b6000614ab084828501614445565b91505092915050565b600060208284031215614acb57600080fd5b6000614ad98482850161445a565b91505092915050565b60008060408385031215614af557600080fd5b6000614b0385828601614445565b9250506020614b14858286016142bf565b9150509250929050565b600080600080600060a08688031215614b3657600080fd5b6000614b4488828901614445565b955050602086013567ffffffffffffffff811115614b6157600080fd5b614b6d8882890161441b565b9450506040614b7e8882890161446f565b9350506060614b8f888289016143bc565b9250506080614ba0888289016143bc565b9150509295509295909350565b600080600080600060a08688031215614bc557600080fd5b6000614bd388828901614445565b9550506020614be488828901614445565b9450506040614bf58882890161446f565b9350506060614c06888289016143bc565b9250506080614c17888289016143bc565b9150509295509295909350565b6000614c3083836155f3565b60208301905092915050565b614c4581615c67565b82525050565b614c5481615c67565b82525050565b6000614c668385615c3a565b93507f07ffffffffffffffffffffffffffffffffffffffffffffffffffffffffffffff831115614c9557600080fd5b602083029250614ca6838584615cea565b82840190509392505050565b6000614cbd82615c22565b614cc78185615c3a565b9350614cd283615c12565b8060005b83811015614d03578151614cea8882614c24565b9750614cf583615c2d565b925050600181019050614cd6565b5085935050505092915050565b614d1981615c79565b82525050565b614d2881615c85565b82525050565b614d3f614d3a82615c85565b615cf9565b82525050565b614d4e81615cc6565b82525050565b6000614d61601583615c4b565b91507f5175616c6c612f696e76616c69642d7065726d697400000000000000000000006000830152602082019050919050565b6000614da1601983615c4b565b91507f5175616c6c612f496e76616c69642d53756273637269626572000000000000006000830152602082019050919050565b6000614de1601d83615c4b565b91507f5175616c6c612f496e73756666696369656e742d416c6c6f77616e63650000006000830152602082019050919050565b6000614e21601383615c4b565b91507f5175616c6c612f496e76616c69642055736572000000000000000000000000006000830152602082019050919050565b6000614e61601783615c4b565b91507f5175616c6c612f416c72656164792052656465656d65640000000000000000006000830152602082019050919050565b6000614ea1603183615c4b565b91507f455243313135353a2062617463682062616c616e636520717565727920666f7260008301527f20746865207a65726f20616464726573730000000000000000000000000000006020830152604082019050919050565b6000614f07603183615c4b565b91507f5175616c6c613a20616d6f756e747320616e64207061796d656e74546f6b656e60008301527f73206c656e677468206d69736d617463680000000000000000000000000000006020830152604082019050919050565b6000614f6d600283615c5c565b91507f19010000000000000000000000000000000000000000000000000000000000006000830152600282019050919050565b6000614fad601d83615c4b565b91507f5175616c6c612f537562736372697074696f6e2d4e6f742d52656164790000006000830152602082019050919050565b6000614fed602983615c4b565b91507f455243313135353a2063616c6c6572206973206e6f74206f776e6572206e6f7260008301527f20617070726f76656400000000000000000000000000000000000000000000006020830152604082019050919050565b6000615053603283615c4b565b91507f455243313135353a20616d6f756e747320616e64207061796d656e7456616c7560008301527f6573206c656e677468206d69736d6174636800000000000000000000000000006020830152604082019050919050565b60006150b9601883615c4b565b91507f5175616c6c612f496e76616c6964206d696e747374616d7000000000000000006000830152602082019050919050565b60006150f9601b83615c4b565b91507f5175616c6c612f496e73756666696369656e742d42616c616e636500000000006000830152602082019050919050565b6000615139601783615c4b565b91507f5175616c6c612f496e76616c69642d546f6b656e2d49640000000000000000006000830152602082019050919050565b6000615179601683615c4b565b91507f5175616c6c612f496e76616c69642043726561746f72000000000000000000006000830152602082019050919050565b60006151b9602583615c4b565b91507f455243313135353a207472616e7366657220746f20746865207a65726f20616460008301527f64726573730000000000000000000000000000000000000000000000000000006020830152604082019050919050565b600061521f603283615c4b565b91507f455243313135353a207472616e736665722063616c6c6572206973206e6f742060008301527f6f776e6572206e6f7220617070726f76656400000000000000000000000000006020830152604082019050919050565b6000615285601583615c4b565b91507f5175616c6c612f496e76616c69642052656465656d00000000000000000000006000830152602082019050919050565b60006152c5602383615c4b565b91507f455243313135353a206275726e2066726f6d20746865207a65726f206164647260008301527f65737300000000000000000000000000000000000000000000000000000000006020830152604082019050919050565b600061532b601783615c4b565b91507f5175616c6c612f57726f6e672d546f6b656e2d547970650000000000000000006000830152602082019050919050565b600061536b602183615c4b565b91507f5175616c6c612f496e76616c69642d537562736372697074696f6e2d496e646560008301527f78000000000000000000000000000000000000000000000000000000000000006020830152604082019050919050565b60006153d1602983615c4b565b91507f455243313135353a2073657474696e6720617070726f76616c2073746174757360008301527f20666f722073656c6600000000000000000000000000000000000000000000006020830152604082019050919050565b6000615437602983615c4b565b91507f455243313135353a206163636f756e747320616e6420696473206c656e67746860008301527f206d69736d6174636800000000000000000000000000000000000000000000006020830152604082019050919050565b600061549d602883615c4b565b91507f455243313135353a2069647320616e6420616d6f756e7473206c656e6774682060008301527f6d69736d617463680000000000000000000000000000000000000000000000006020830152604082019050919050565b6000615503602183615c4b565b91507f455243313135353a206d696e7420746f20746865207a65726f2061646472657360008301527f73000000000000000000000000000000000000000000000000000000000000006020830152604082019050919050565b6080820160008201516155726000850182614c3c565b5060208201516155856020850182614d45565b50604082015161559860408501826155f3565b5060608201516155ab60608501826155f3565b50505050565b6060820160008201516155c760008501826155f3565b5060208201516155da60208501826155f3565b5060408201516155ed60408501826155f3565b50505050565b6155fc81615caf565b82525050565b61560b81615caf565b82525050565b61561a81615cb9565b82525050565b600061562b82614f60565b91506156378285614d2e565b6020820191506156478284614d2e565b6020820191508190509392505050565b600060208201905061566c6000830184614c4b565b92915050565b60006040820190506156876000830185614c4b565b6156946020830184614c4b565b9392505050565b60006060820190506156b06000830186614c4b565b6156bd6020830185614c4b565b6156ca6040830184615602565b949350505050565b600060408201905081810360008301526156ed818688614c5a565b90508181036020830152615702818486614c5a565b905095945050505050565b600060208201905081810360008301526157278184614cb2565b905092915050565b600060408201905081810360008301526157498185614cb2565b9050818103602083015261575d8184614cb2565b90509392505050565b600060208201905061577b6000830184614d10565b92915050565b60006080820190506157966000830187614d1f565b6157a36020830186614c4b565b6157b06040830185615602565b6157bd6060830184614d1f565b95945050505050565b60006080820190506157db6000830187614d1f565b6157e86020830186615611565b6157f56040830185614d1f565b6158026060830184614d1f565b95945050505050565b6000602082019050818103600083015261582481614d54565b9050919050565b6000602082019050818103600083015261584481614d94565b9050919050565b6000602082019050818103600083015261586481614dd4565b9050919050565b6000602082019050818103600083015261588481614e14565b9050919050565b600060208201905081810360008301526158a481614e54565b9050919050565b600060208201905081810360008301526158c481614e94565b9050919050565b600060208201905081810360008301526158e481614efa565b9050919050565b6000602082019050818103600083015261590481614fa0565b9050919050565b6000602082019050818103600083015261592481614fe0565b9050919050565b6000602082019050818103600083015261594481615046565b9050919050565b60006020820190508181036000830152615964816150ac565b9050919050565b60006020820190508181036000830152615984816150ec565b9050919050565b600060208201905081810360008301526159a48161512c565b9050919050565b600060208201905081810360008301526159c48161516c565b9050919050565b600060208201905081810360008301526159e4816151ac565b9050919050565b60006020820190508181036000830152615a0481615212565b9050919050565b60006020820190508181036000830152615a2481615278565b9050919050565b60006020820190508181036000830152615a44816152b8565b9050919050565b60006020820190508181036000830152615a648161531e565b9050919050565b60006020820190508181036000830152615a848161535e565b9050919050565b60006020820190508181036000830152615aa4816153c4565b9050919050565b60006020820190508181036000830152615ac48161542a565b9050919050565b60006020820190508181036000830152615ae481615490565b9050919050565b60006020820190508181036000830152615b04816154f6565b9050919050565b6000608082019050615b20600083018461555c565b92915050565b6000606082019050615b3b60008301846155b1565b92915050565b6000602082019050615b566000830184615602565b92915050565b6000604082019050615b716000830185615602565b615b7e6020830184615602565b9392505050565b6000604051905081810181811067ffffffffffffffff82111715615bac57615bab615d03565b5b8060405250919050565b600067ffffffffffffffff821115615bd157615bd0615d03565b5b602082029050602081019050919050565b600067ffffffffffffffff821115615bfd57615bfc615d03565b5b601f19601f8301169050602081019050919050565b6000819050602082019050919050565b600081519050919050565b6000602082019050919050565b600082825260208201905092915050565b600082825260208201905092915050565b600081905092915050565b6000615c7282615c8f565b9050919050565b60008115159050919050565b6000819050919050565b600073ffffffffffffffffffffffffffffffffffffffff82169050919050565b6000819050919050565b600060ff82169050919050565b6000615cd182615cd8565b9050919050565b6000615ce382615c8f565b9050919050565b82818337600083830152505050565b6000819050919050565bfe5b615d0e81615c67565b8114615d1957600080fd5b50565b615d2581615c79565b8114615d3057600080fd5b50565b615d3c81615c85565b8114615d4757600080fd5b50565b615d5381615caf565b8114615d5e57600080fd5b50565b615d6a81615cb9565b8114615d7557600080fd5b5056fe455243313135353a207472616e7366657220746f206e6f6e2045524331313535526563656976657220696d706c656d656e746572455243313135353a204552433131353552656365697665722072656a656374656420746f6b656e73455243313135353a206275726e20616d6f756e7420657863656564732062616c616e6365455243313135353a20696e73756666696369656e742062616c616e636520666f72207472616e73666572536166654d6174683a206d756c7469706c69636174696f6e206f766572666c6f77a26469706673582212200ab2d8f81307c9e155c98aef2dee9c348ad091629f0aa15db1458f67c9d7231f64736f6c63430007060033",
  "linkReferences": {},
  "deployedLinkReferences": {}
}