{
  "_format": "hh-sol-artifact-1",
  "contractName": "QuallaSubscriptionsFacet",
  "sourceName": "contracts/facets/QuallaSubscriptionFacet.sol",
  "abi": [
    {
      "anonymous": false,
      "inputs": [
        {
          "indexed": true,
          "internalType": "address",
          "name": "account",
          "type": "address"
        },
        {
          "indexed": true,
          "internalType": "address",
          "name": "operator",
          "type": "address"
        },
        {
          "indexed": false,
          "internalType": "bool",
          "name": "approved",
          "type": "bool"
        }
      ],
      "name": "ApprovalForAll",
      "type": "event"
    },
    {
      "anonymous": false,
      "inputs": [
        {
          "indexed": true,
          "internalType": "address",
          "name": "operator",
          "type": "address"
        },
        {
          "indexed": true,
          "internalType": "address",
          "name": "from",
          "type": "address"
        },
        {
          "indexed": true,
          "internalType": "address",
          "name": "to",
          "type": "address"
        },
        {
          "indexed": false,
          "internalType": "uint256[]",
          "name": "ids",
          "type": "uint256[]"
        },
        {
          "indexed": false,
          "internalType": "uint256[]",
          "name": "values",
          "type": "uint256[]"
        }
      ],
      "name": "TransferBatch",
      "type": "event"
    },
    {
      "anonymous": false,
      "inputs": [
        {
          "indexed": true,
          "internalType": "address",
          "name": "operator",
          "type": "address"
        },
        {
          "indexed": true,
          "internalType": "address",
          "name": "from",
          "type": "address"
        },
        {
          "indexed": true,
          "internalType": "address",
          "name": "to",
          "type": "address"
        },
        {
          "indexed": false,
          "internalType": "uint256",
          "name": "id",
          "type": "uint256"
        },
        {
          "indexed": false,
          "internalType": "uint256",
          "name": "value",
          "type": "uint256"
        }
      ],
      "name": "TransferSingle",
      "type": "event"
    },
    {
      "anonymous": false,
      "inputs": [
        {
          "indexed": false,
          "internalType": "string",
          "name": "value",
          "type": "string"
        },
        {
          "indexed": true,
          "internalType": "uint256",
          "name": "id",
          "type": "uint256"
        }
      ],
      "name": "URI",
      "type": "event"
    },
    {
      "inputs": [
        {
          "internalType": "address",
          "name": "account",
          "type": "address"
        },
        {
          "internalType": "uint256",
          "name": "id",
          "type": "uint256"
        }
      ],
      "name": "balanceOf",
      "outputs": [
        {
          "internalType": "uint256",
          "name": "",
          "type": "uint256"
        }
      ],
      "stateMutability": "view",
      "type": "function"
    },
    {
      "inputs": [
        {
          "internalType": "address[]",
          "name": "accounts",
          "type": "address[]"
        },
        {
          "internalType": "uint256[]",
          "name": "ids",
          "type": "uint256[]"
        }
      ],
      "name": "balanceOfBatch",
      "outputs": [
        {
          "internalType": "uint256[]",
          "name": "",
          "type": "uint256[]"
        }
      ],
      "stateMutability": "view",
      "type": "function"
    },
    {
      "inputs": [
        {
          "internalType": "uint256",
          "name": "id",
          "type": "uint256"
        },
        {
          "internalType": "uint256",
          "name": "amount",
          "type": "uint256"
        },
        {
          "internalType": "uint8",
          "name": "v",
          "type": "uint8"
        },
        {
          "internalType": "bytes32",
          "name": "r",
          "type": "bytes32"
        },
        {
          "internalType": "bytes32",
          "name": "s",
          "type": "bytes32"
        }
      ],
      "name": "burnSubscription",
      "outputs": [],
      "stateMutability": "nonpayable",
      "type": "function"
    },
    {
      "inputs": [
        {
          "internalType": "address",
          "name": "subscriber",
          "type": "address"
        },
        {
          "internalType": "uint256",
          "name": "id",
          "type": "uint256"
        },
        {
          "internalType": "uint8",
          "name": "v",
          "type": "uint8"
        },
        {
          "internalType": "bytes32",
          "name": "r",
          "type": "bytes32"
        },
        {
          "internalType": "bytes32",
          "name": "s",
          "type": "bytes32"
        }
      ],
      "name": "buySubscription",
      "outputs": [],
      "stateMutability": "nonpayable",
      "type": "function"
    },
    {
      "inputs": [
        {
          "internalType": "uint256",
          "name": "id_",
          "type": "uint256"
        },
        {
          "internalType": "address",
          "name": "subscriber",
          "type": "address"
        }
      ],
      "name": "executeSubscription",
      "outputs": [],
      "stateMutability": "nonpayable",
      "type": "function"
    },
    {
      "inputs": [
        {
          "internalType": "uint256",
          "name": "id",
          "type": "uint256"
        }
      ],
      "name": "getBaseToken",
      "outputs": [
        {
          "components": [
            {
              "internalType": "address",
              "name": "creator",
              "type": "address"
            },
            {
              "internalType": "address",
              "name": "paymentToken",
              "type": "address"
            },
            {
              "internalType": "uint256",
              "name": "paymentValue",
              "type": "uint256"
            },
            {
              "internalType": "uint256",
              "name": "nonce",
              "type": "uint256"
            }
          ],
          "internalType": "struct LibSubscriptions.BaseToken",
          "name": "",
          "type": "tuple"
        }
      ],
      "stateMutability": "view",
      "type": "function"
    },
    {
      "inputs": [
        {
          "internalType": "uint256",
          "name": "id",
          "type": "uint256"
        }
      ],
      "name": "getSubToken",
      "outputs": [
        {
          "components": [
            {
              "internalType": "uint256",
              "name": "nonce",
              "type": "uint256"
            },
            {
              "internalType": "uint256",
              "name": "nextWidthdraw",
              "type": "uint256"
            },
            {
              "internalType": "uint256",
              "name": "mintStamp",
              "type": "uint256"
            }
          ],
          "internalType": "struct LibSubscriptions.SubToken",
          "name": "",
          "type": "tuple"
        }
      ],
      "stateMutability": "view",
      "type": "function"
    },
    {
      "inputs": [
        {
          "internalType": "address",
          "name": "account",
          "type": "address"
        },
        {
          "internalType": "address",
          "name": "operator",
          "type": "address"
        }
      ],
      "name": "isApprovedForAll",
      "outputs": [
        {
          "internalType": "bool",
          "name": "",
          "type": "bool"
        }
      ],
      "stateMutability": "view",
      "type": "function"
    },
    {
      "inputs": [
        {
          "internalType": "address",
          "name": "creator",
          "type": "address"
        },
        {
          "internalType": "uint256[]",
          "name": "amounts",
          "type": "uint256[]"
        },
        {
          "internalType": "address[]",
          "name": "paymentTokens",
          "type": "address[]"
        },
        {
          "internalType": "uint256[]",
          "name": "paymentValues",
          "type": "uint256[]"
        },
        {
          "internalType": "uint8",
          "name": "v",
          "type": "uint8"
        },
        {
          "internalType": "bytes32",
          "name": "r",
          "type": "bytes32"
        },
        {
          "internalType": "bytes32",
          "name": "s",
          "type": "bytes32"
        }
      ],
      "name": "mintBatchSubscription",
      "outputs": [],
      "stateMutability": "nonpayable",
      "type": "function"
    },
    {
      "inputs": [
        {
          "internalType": "address",
          "name": "creator",
          "type": "address"
        },
        {
          "internalType": "uint256",
          "name": "amount",
          "type": "uint256"
        },
        {
          "internalType": "address",
          "name": "paymentToken",
          "type": "address"
        },
        {
          "internalType": "uint256",
          "name": "paymentValue",
          "type": "uint256"
        },
        {
          "internalType": "uint8",
          "name": "v",
          "type": "uint8"
        },
        {
          "internalType": "bytes32",
          "name": "r",
          "type": "bytes32"
        },
        {
          "internalType": "bytes32",
          "name": "s",
          "type": "bytes32"
        }
      ],
      "name": "mintSubscription",
      "outputs": [],
      "stateMutability": "nonpayable",
      "type": "function"
    },
    {
      "inputs": [
        {
          "internalType": "address",
          "name": "from",
          "type": "address"
        },
        {
          "internalType": "address",
          "name": "to",
          "type": "address"
        },
        {
          "internalType": "uint256[]",
          "name": "ids",
          "type": "uint256[]"
        },
        {
          "internalType": "uint256[]",
          "name": "amounts",
          "type": "uint256[]"
        },
        {
          "internalType": "bytes",
          "name": "data",
          "type": "bytes"
        }
      ],
      "name": "safeBatchTransferFrom",
      "outputs": [],
      "stateMutability": "nonpayable",
      "type": "function"
    },
    {
      "inputs": [
        {
          "internalType": "address",
          "name": "from",
          "type": "address"
        },
        {
          "internalType": "address",
          "name": "to",
          "type": "address"
        },
        {
          "internalType": "uint256",
          "name": "id",
          "type": "uint256"
        },
        {
          "internalType": "uint256",
          "name": "amount",
          "type": "uint256"
        },
        {
          "internalType": "bytes",
          "name": "data",
          "type": "bytes"
        }
      ],
      "name": "safeTransferFrom",
      "outputs": [],
      "stateMutability": "nonpayable",
      "type": "function"
    },
    {
      "inputs": [
        {
          "internalType": "address",
          "name": "operator",
          "type": "address"
        },
        {
          "internalType": "bool",
          "name": "approved",
          "type": "bool"
        }
      ],
      "name": "setApprovalForAll",
      "outputs": [],
      "stateMutability": "nonpayable",
      "type": "function"
    },
    {
      "inputs": [
        {
          "internalType": "address",
          "name": "subscriber",
          "type": "address"
        },
        {
          "internalType": "uint256",
          "name": "id_",
          "type": "uint256"
        },
        {
          "internalType": "uint8",
          "name": "v",
          "type": "uint8"
        },
        {
          "internalType": "bytes32",
          "name": "r",
          "type": "bytes32"
        },
        {
          "internalType": "bytes32",
          "name": "s",
          "type": "bytes32"
        }
      ],
      "name": "unSubscribe",
      "outputs": [],
      "stateMutability": "nonpayable",
      "type": "function"
    }
  ],
  "bytecode": "0x608060405234801561001057600080fd5b50614eda806100206000396000f3fe608060405234801561001057600080fd5b50600436106100e95760003560e01c80639eb9abde1161008c578063e985e9c511610066578063e985e9c514610242578063f242432a14610272578063f73b43a81461028e578063ffb651e0146102aa576100e9565b80639eb9abde146101ee578063a22cb4651461020a578063b166acd114610226576100e9565b80634e1273f4116100c85780634e1273f4146101565780634f43da73146101865780634fce9474146101b657806395fbbf50146101d2576100e9565b8062fdd58e146100ee5780632eb2c2d61461011e5780633a9e6e441461013a575b600080fd5b61010860048036038101906101039190613bd4565b6102da565b6040516101159190614bf6565b60405180910390f35b6101386004803603810190610133919061394c565b610343565b005b610154600480360381019061014f9190613c10565b6107e9565b005b610170600480360381019061016b9190613d25565b6109d2565b60405161017d9190614862565b60405180910390f35b6101a0600480360381019061019b9190613dc3565b610bca565b6040516101ad9190614bdb565b60405180910390f35b6101d060048036038101906101cb9190613aaa565b610c56565b005b6101ec60048036038101906101e79190613e51565b610fb5565b005b61020860048036038101906102039190613e15565b611130565b005b610224600480360381019061021f9190613b98565b611852565b005b610240600480360381019061023b9190613cae565b6119e2565b005b61025c60048036038101906102579190613910565b611be4565b60405161026991906148bb565b60405180910390f35b61028c60048036038101906102879190613a18565b611c86565b005b6102a860048036038101906102a39190613cae565b612005565b005b6102c460048036038101906102bf9190613dc3565b612509565b6040516102d19190614bc0565b60405180910390f35b6000806102e5612653565b905080600201600084815260200190815260200160002060008573ffffffffffffffffffffffffffffffffffffffff1673ffffffffffffffffffffffffffffffffffffffff1681526020019081526020016000205491505092915050565b83839050868690501461038b576040517f08c379a000000000000000000000000000000000000000000000000000000000815260040161038290614b80565b60405180910390fd5b600073ffffffffffffffffffffffffffffffffffffffff168773ffffffffffffffffffffffffffffffffffffffff1614156103fb576040517f08c379a00000000000000000000000000000000000000000000000000000000081526004016103f290614aa0565b60405180910390fd5b610403612680565b73ffffffffffffffffffffffffffffffffffffffff168873ffffffffffffffffffffffffffffffffffffffff161480610449575061044888610443612680565b611be4565b5b610488576040517f08c379a000000000000000000000000000000000000000000000000000000000815260040161047f90614ac0565b60405180910390fd5b6000610492612653565b905060005b878790508110156106795760008888838181106104b057fe5b90506020020135905061054a8787848181106104c857fe5b905060200201356040518060600160405280602a8152602001614e5a602a913985600201600085815260200190815260200160002060008f73ffffffffffffffffffffffffffffffffffffffff1673ffffffffffffffffffffffffffffffffffffffff168152602001908152602001600020546126889092919063ffffffff16565b83600201600083815260200190815260200160002060008d73ffffffffffffffffffffffffffffffffffffffff1673ffffffffffffffffffffffffffffffffffffffff168152602001908152602001600020819055506106178787848181106105af57fe5b9050602002013584600201600084815260200190815260200160002060008d73ffffffffffffffffffffffffffffffffffffffff1673ffffffffffffffffffffffffffffffffffffffff1681526020019081526020016000205461274890919063ffffffff16565b83600201600083815260200190815260200160002060008c73ffffffffffffffffffffffffffffffffffffffff1673ffffffffffffffffffffffffffffffffffffffff1681526020019081526020016000208190555050806001019050610497565b508773ffffffffffffffffffffffffffffffffffffffff168973ffffffffffffffffffffffffffffffffffffffff166106b0612680565b73ffffffffffffffffffffffffffffffffffffffff167f4a39dc06d4c0dbc64b70af90fd698a233a518aa5d07e595d983b8c0526c8f7fb8a8a8a8a6040516106fb9493929190614827565b60405180910390a46107de61070e612680565b8a8a8a8a80806020026020016040519081016040528093929190818152602001838360200280828437600081840152601f19601f82011690508083019250505050505050898980806020026020016040519081016040528093929190818152602001838360200280828437600081840152601f19601f8201169050808301925050505050505088888080601f016020809104026020016040519081016040528093929190818152602001838380828437600081840152601f19601f820116905080830192505050505050506127d0565b505050505050505050565b61082b876040518060400160405280600481526020017f6d696e7400000000000000000000000000000000000000000000000000000000815250858585612a46565b6000610835612653565b90506000871415610864577fffffffffffffffffffffffffffffffffffffffffffffffffffffffffffffffff96505b600060806108806001846004015461274890919063ffffffff16565b901b905060405180608001604052808a73ffffffffffffffffffffffffffffffffffffffff1681526020018873ffffffffffffffffffffffffffffffffffffffff168152602001878152602001600181525082600001600083815260200190815260200160002060008201518160000160006101000a81548173ffffffffffffffffffffffffffffffffffffffff021916908373ffffffffffffffffffffffffffffffffffffffff16021790555060208201518160010160006101000a81548173ffffffffffffffffffffffffffffffffffffffff021916908373ffffffffffffffffffffffffffffffffffffffff16021790555060408201518160020155606082015181600301559050506109a46001836004015461274890919063ffffffff16565b82600401819055506109c789828a60405180602001604052806000815250612ab5565b505050505050505050565b6060828290508585905014610a1c576040517f08c379a0000000000000000000000000000000000000000000000000000000008152600401610a1390614b60565b60405180910390fd5b6000610a26612653565b905060008686905067ffffffffffffffff81118015610a4457600080fd5b50604051908082528060200260200182016040528015610a735781602001602082028036833780820191505090505b50905060005b87879050811015610bbc57600073ffffffffffffffffffffffffffffffffffffffff16888883818110610aa857fe5b9050602002016020810190610abd91906138e7565b73ffffffffffffffffffffffffffffffffffffffff161415610b14576040517f08c379a0000000000000000000000000000000000000000000000000000000008152600401610b0b906149c0565b60405180910390fd5b826002016000878784818110610b2657fe5b9050602002013581526020019081526020016000206000898984818110610b4957fe5b9050602002016020810190610b5e91906138e7565b73ffffffffffffffffffffffffffffffffffffffff1673ffffffffffffffffffffffffffffffffffffffff16815260200190815260200160002054828281518110610ba557fe5b602002602001018181525050806001019050610a79565b508092505050949350505050565b610bd261366b565b6000610bdc612653565b9050610be661366b565b8160010160008581526020019081526020016000206000015481600001818152505081600101600085815260200190815260200160002060010154816020018181525050816001016000858152602001908152602001600020600201548160400181815250508092505050919050565b86869050885114610c9c576040517f08c379a0000000000000000000000000000000000000000000000000000000008152600401610c93906149e0565b60405180910390fd5b84849050885114610ce2576040517f08c379a0000000000000000000000000000000000000000000000000000000008152600401610cd990614a40565b60405180910390fd5b610d24896040518060400160405280600481526020017f6d696e7400000000000000000000000000000000000000000000000000000000815250858585612a46565b6000610d2e612653565b90506000895167ffffffffffffffff81118015610d4a57600080fd5b50604051908082528060200260200182016040528015610d795781602001602082028036833780820191505090505b50905060005b8a51811015610f8c5760008b8281518110610d9657fe5b60200260200101511415610dde577fffffffffffffffffffffffffffffffffffffffffffffffffffffffffffffffff8b8281518110610dd157fe5b6020026020010181815250505b6080610df86001856004015461274890919063ffffffff16565b901b828281518110610e0657fe5b60200260200101818152505060405180608001604052808d73ffffffffffffffffffffffffffffffffffffffff1681526020018b8b84818110610e4557fe5b9050602002016020810190610e5a91906138e7565b73ffffffffffffffffffffffffffffffffffffffff168152602001898984818110610e8157fe5b9050602002013581526020016001815250836000016000848481518110610ea457fe5b6020026020010151815260200190815260200160002060008201518160000160006101000a81548173ffffffffffffffffffffffffffffffffffffffff021916908373ffffffffffffffffffffffffffffffffffffffff16021790555060208201518160010160006101000a81548173ffffffffffffffffffffffffffffffffffffffff021916908373ffffffffffffffffffffffffffffffffffffffff1602179055506040820151816002015560608201518160030155905050610f776001846004015461274890919063ffffffff16565b83600401819055508080600101915050610d7f565b50610fa88b828c60405180602001604052806000815250612c8e565b5050505050505050505050565b60007f800000000000000000000000000000000000000000000000000000000000000086161461101a576040517f08c379a000000000000000000000000000000000000000000000000000000000815260040161101190614b00565b60405180910390fd5b60007fffffffffffffffffffffffffffffffffffffffffffffffffffffffffffffffff6fffffffffffffffffffffffffffffffff16861614611091576040517f08c379a000000000000000000000000000000000000000000000000000000000815260040161108890614b20565b60405180910390fd5b600061109b612653565b9050600081600001600088815260200190815260200160002060000160009054906101000a900473ffffffffffffffffffffffffffffffffffffffff16905061111c816040518060400160405280600481526020017f6275726e00000000000000000000000000000000000000000000000000000000815250878787612a46565b611127818888612eba565b50505050505050565b60007f8000000000000000000000000000000000000000000000000000000000000000831614611195576040517f08c379a000000000000000000000000000000000000000000000000000000000815260040161118c90614b00565b60405180910390fd5b60007fffffffffffffffffffffffffffffffffffffffffffffffffffffffffffffffff6fffffffffffffffffffffffffffffffff1683161161120c576040517f08c379a000000000000000000000000000000000000000000000000000000000815260040161120390614b20565b60405180910390fd5b6000611216612653565b9050600181600201600085815260200190815260200160002060008473ffffffffffffffffffffffffffffffffffffffff1673ffffffffffffffffffffffffffffffffffffffff16815260200190815260200160002054146112ad576040517f08c379a00000000000000000000000000000000000000000000000000000000081526004016112a490614980565b60405180910390fd5b428160010160008581526020019081526020016000206001015410611307576040517f08c379a00000000000000000000000000000000000000000000000000000000081526004016112fe90614a00565b60405180910390fd5b600060807fffffffffffffffffffffffffffffffffffffffffffffffffffffffffffffffff6fffffffffffffffffffffffffffffffff16901b8416905060008260000160008381526020019081526020016000206040518060800160405290816000820160009054906101000a900473ffffffffffffffffffffffffffffffffffffffff1673ffffffffffffffffffffffffffffffffffffffff1673ffffffffffffffffffffffffffffffffffffffff1681526020016001820160009054906101000a900473ffffffffffffffffffffffffffffffffffffffff1673ffffffffffffffffffffffffffffffffffffffff1673ffffffffffffffffffffffffffffffffffffffff168152602001600282015481526020016003820154815250509050600483600101600087815260200190815260200160002060000154106114795761145484866001612eba565b611474816000015183600160405180602001604052806000815250612ab5565b6114c2565b6114a560018460010160008881526020019081526020016000206000015461274890919063ffffffff16565b836001016000878152602001908152602001600020600001819055505b60006114cc61309d565b905060008160080160009054906101000a900460ff1660640360ff1690508260400151836020015173ffffffffffffffffffffffffffffffffffffffff1663dd62ed3e88306040518363ffffffff1660e01b815260040161152e9291906147c7565b60206040518083038186803b15801561154657600080fd5b505afa15801561155a573d6000803e3d6000fd5b505050506040513d601f19601f8201168201806040525081019061157e9190613dec565b108061161957508260400151836020015173ffffffffffffffffffffffffffffffffffffffff166370a08231886040518263ffffffff1660e01b81526004016115c791906147ac565b60206040518083038186803b1580156115df57600080fd5b505afa1580156115f3573d6000803e3d6000fd5b505050506040513d601f19601f820116820180604052508101906116179190613dec565b105b1561164b5761162a86886001612eba565b61164a836000015185600160405180602001604052806000815250612ab5565b5b826020015173ffffffffffffffffffffffffffffffffffffffff166323b872dd878460030160009054906101000a900473ffffffffffffffffffffffffffffffffffffffff166116cf60646116c18860080160009054906101000a900460ff1660ff168a604001516130ca90919063ffffffff16565b61315090919063ffffffff16565b6040518463ffffffff1660e01b81526004016116ed939291906147f0565b602060405180830381600087803b15801561170757600080fd5b505af115801561171b573d6000803e3d6000fd5b505050506040513d601f19601f8201168201806040525081019061173f9190613d9a565b50826020015173ffffffffffffffffffffffffffffffffffffffff166323b872dd8785600001516117906064611782878a604001516130ca90919063ffffffff16565b61315090919063ffffffff16565b6040518463ffffffff1660e01b81526004016117ae939291906147f0565b602060405180830381600087803b1580156117c857600080fd5b505af11580156117dc573d6000803e3d6000fd5b505050506040513d601f19601f820116820180604052508101906118009190613d9a565b5061182d600f8660010160008a81526020019081526020016000206001015461274890919063ffffffff16565b8560010160008981526020019081526020016000206001018190555050505050505050565b8173ffffffffffffffffffffffffffffffffffffffff16611871612680565b73ffffffffffffffffffffffffffffffffffffffff1614156118c8576040517f08c379a00000000000000000000000000000000000000000000000000000000081526004016118bf90614b40565b60405180910390fd5b60006118d2612653565b9050818160030160006118e3612680565b73ffffffffffffffffffffffffffffffffffffffff1673ffffffffffffffffffffffffffffffffffffffff16815260200190815260200160002060008573ffffffffffffffffffffffffffffffffffffffff1673ffffffffffffffffffffffffffffffffffffffff16815260200190815260200160002060006101000a81548160ff0219169083151502179055508273ffffffffffffffffffffffffffffffffffffffff16611990612680565b73ffffffffffffffffffffffffffffffffffffffff167f17307eab39ab6107e8899845ad3d59bd9653f200f220920489ca2b5937696c31846040516119d591906148bb565b60405180910390a3505050565b60007f8000000000000000000000000000000000000000000000000000000000000000851614611a47576040517f08c379a0000000000000000000000000000000000000000000000000000000008152600401611a3e90614b00565b60405180910390fd5b60007fffffffffffffffffffffffffffffffffffffffffffffffffffffffffffffffff6fffffffffffffffffffffffffffffffff16851611611abe576040517f08c379a0000000000000000000000000000000000000000000000000000000008152600401611ab590614b20565b60405180910390fd5b611b00856040518060400160405280600b81526020017f756e737562736372696265000000000000000000000000000000000000000000815250858585612a46565b6000611b0a612653565b9050611b1886866001612eba565b611bdc81600001600060807fffffffffffffffffffffffffffffffffffffffffffffffffffffffffffffffff6fffffffffffffffffffffffffffffffff16901b8816815260200190815260200160002060000160009054906101000a900473ffffffffffffffffffffffffffffffffffffffff1660807fffffffffffffffffffffffffffffffffffffffffffffffffffffffffffffffff6fffffffffffffffffffffffffffffffff16901b8716600160405180602001604052806000815250612ab5565b505050505050565b600080611bef612653565b90508060030160008573ffffffffffffffffffffffffffffffffffffffff1673ffffffffffffffffffffffffffffffffffffffff16815260200190815260200160002060008473ffffffffffffffffffffffffffffffffffffffff1673ffffffffffffffffffffffffffffffffffffffff16815260200190815260200160002060009054906101000a900460ff1691505092915050565b600073ffffffffffffffffffffffffffffffffffffffff168573ffffffffffffffffffffffffffffffffffffffff161415611cf6576040517f08c379a0000000000000000000000000000000000000000000000000000000008152600401611ced90614aa0565b60405180910390fd5b611cfe612680565b73ffffffffffffffffffffffffffffffffffffffff168673ffffffffffffffffffffffffffffffffffffffff161480611d445750611d4386611d3e612680565b611be4565b5b611d83576040517f08c379a0000000000000000000000000000000000000000000000000000000008152600401611d7a90614a20565b60405180910390fd5b6000611d8d612653565b90506000611d99612680565b9050611e1a856040518060600160405280602a8152602001614e5a602a91398460020160008a815260200190815260200160002060008c73ffffffffffffffffffffffffffffffffffffffff1673ffffffffffffffffffffffffffffffffffffffff168152602001908152602001600020546126889092919063ffffffff16565b82600201600088815260200190815260200160002060008a73ffffffffffffffffffffffffffffffffffffffff1673ffffffffffffffffffffffffffffffffffffffff16815260200190815260200160002081905550611ed58583600201600089815260200190815260200160002060008a73ffffffffffffffffffffffffffffffffffffffff1673ffffffffffffffffffffffffffffffffffffffff1681526020019081526020016000205461274890919063ffffffff16565b82600201600088815260200190815260200160002060008973ffffffffffffffffffffffffffffffffffffffff1673ffffffffffffffffffffffffffffffffffffffff168152602001908152602001600020819055508673ffffffffffffffffffffffffffffffffffffffff168873ffffffffffffffffffffffffffffffffffffffff168273ffffffffffffffffffffffffffffffffffffffff167fc3d58168c5ae7397731d063d5bbf3d657854427343f4c083240f7aacaa2d0f628989604051611fa1929190614c11565b60405180910390a4611ffb818989898989898080601f016020809104026020016040519081016040528093929190818152602001838380828437600081840152601f19601f8201169050808301925050505050505061319a565b5050505050505050565b60007f800000000000000000000000000000000000000000000000000000000000000085161461206a576040517f08c379a000000000000000000000000000000000000000000000000000000000815260040161206190614b00565b60405180910390fd5b60007fffffffffffffffffffffffffffffffffffffffffffffffffffffffffffffffff6fffffffffffffffffffffffffffffffff168516146120e1576040517f08c379a00000000000000000000000000000000000000000000000000000000081526004016120d890614b20565b60405180910390fd5b60006120eb612653565b905060008160000160008781526020019081526020016000206040518060800160405290816000820160009054906101000a900473ffffffffffffffffffffffffffffffffffffffff1673ffffffffffffffffffffffffffffffffffffffff1673ffffffffffffffffffffffffffffffffffffffff1681526020016001820160009054906101000a900473ffffffffffffffffffffffffffffffffffffffff1673ffffffffffffffffffffffffffffffffffffffff1673ffffffffffffffffffffffffffffffffffffffff168152602001600282015481526020016003820154815250509050600073ffffffffffffffffffffffffffffffffffffffff16816000015173ffffffffffffffffffffffffffffffffffffffff161415612245576040517f08c379a000000000000000000000000000000000000000000000000000000000815260040161223c90614a80565b60405180910390fd5b8060400151816020015173ffffffffffffffffffffffffffffffffffffffff166370a08231896040518263ffffffff1660e01b815260040161228791906147ac565b60206040518083038186803b15801561229f57600080fd5b505afa1580156122b3573d6000803e3d6000fd5b505050506040513d601f19601f820116820180604052508101906122d79190613dec565b11612317576040517f08c379a000000000000000000000000000000000000000000000000000000000815260040161230e90614a60565b60405180910390fd5b8060400151816020015173ffffffffffffffffffffffffffffffffffffffff1663dd62ed3e89306040518363ffffffff1660e01b815260040161235b9291906147c7565b60206040518083038186803b15801561237357600080fd5b505afa158015612387573d6000803e3d6000fd5b505050506040513d601f19601f820116820180604052508101906123ab9190613dec565b116123eb576040517f08c379a00000000000000000000000000000000000000000000000000000000081526004016123e2906149a0565b60405180910390fd5b61242d876040518060400160405280600981526020017f7375627363726962650000000000000000000000000000000000000000000000815250878787612a46565b6000816060015187179050604051806060016040528060008152602001600081526020014281525083600101600083815260200190815260200160002060008201518160000155602082015181600101556040820151816002015590505061249b8260000151886001612eba565b6124b78882600160405180602001604052806000815250612ab5565b6124e360018460000160008a81526020019081526020016000206003015461274890919063ffffffff16565b836000016000898152602001908152602001600020600301819055505050505050505050565b61251161368c565b600061251b612653565b905061252561368c565b81600001600085815260200190815260200160002060000160009054906101000a900473ffffffffffffffffffffffffffffffffffffffff16816000019073ffffffffffffffffffffffffffffffffffffffff16908173ffffffffffffffffffffffffffffffffffffffff168152505081600001600085815260200190815260200160002060010160009054906101000a900473ffffffffffffffffffffffffffffffffffffffff16816020019073ffffffffffffffffffffffffffffffffffffffff16908173ffffffffffffffffffffffffffffffffffffffff168152505081600001600085815260200190815260200160002060020154816040018181525050816000016000858152602001908152602001600020600301548160600181815250508092505050919050565b6000807f8011e08e256fd2a672b7720b7587378b9f27bfa5a95803a3cee7cf21a0a3def890508091505090565b600033905090565b6000838311158290612735576040517f08c379a00000000000000000000000000000000000000000000000000000000081526004018080602001828103825283818151815260200191508051906020019080838360005b838110156126fa5780820151818401526020810190506126df565b50505050905090810190601f1680156127275780820380516001836020036101000a031916815260200191505b509250505060405180910390fd5b5060008385039050809150509392505050565b6000808284019050838110156127c6576040517f08c379a000000000000000000000000000000000000000000000000000000000815260040180806020018281038252601b8152602001807f536166654d6174683a206164646974696f6e206f766572666c6f77000000000081525060200191505060405180910390fd5b8091505092915050565b6000843b90506000811115612a3d578473ffffffffffffffffffffffffffffffffffffffff1663bc197c8188888787876040518663ffffffff1660e01b8152600401808673ffffffffffffffffffffffffffffffffffffffff1681526020018573ffffffffffffffffffffffffffffffffffffffff168152602001806020018060200180602001848103845287818151815260200191508051906020019060200280838360005b83811015612892578082015181840152602081019050612877565b50505050905001848103835286818151815260200191508051906020019060200280838360005b838110156128d45780820151818401526020810190506128b9565b50505050905001848103825285818151815260200191508051906020019080838360005b838110156129135780820151818401526020810190506128f8565b50505050905090810190601f1680156129405780820380516001836020036101000a031916815260200191505b5098505050505050505050602060405180830381600087803b15801561296557600080fd5b505af1158015612979573d6000803e3d6000fd5b505050506040513d602081101561298f57600080fd5b81019080805190602001909291905050507bffffffffffffffffffffffffffffffffffffffffffffffffffffffff191663bc197c8160e01b7bffffffffffffffffffffffffffffffffffffffffffffffffffffffff191614612a3c576040517f08c379a0000000000000000000000000000000000000000000000000000000008152600401808060200182810382526028815260200180614e0e6028913960400191505060405180910390fd5b5b50505050505050565b6000612a5061338e565b9050612aa4868260000160008973ffffffffffffffffffffffffffffffffffffffff1673ffffffffffffffffffffffffffffffffffffffff16815260200190815260200160002060000154878787876133bb565b612aad866134f5565b505050505050565b600073ffffffffffffffffffffffffffffffffffffffff168473ffffffffffffffffffffffffffffffffffffffff161415612b25576040517f08c379a0000000000000000000000000000000000000000000000000000000008152600401612b1c90614ba0565b60405180910390fd5b6000612b2f612680565b90506000612b3b612653565b9050612ba28482600201600088815260200190815260200160002060008973ffffffffffffffffffffffffffffffffffffffff1673ffffffffffffffffffffffffffffffffffffffff1681526020019081526020016000205461274890919063ffffffff16565b81600201600087815260200190815260200160002060008873ffffffffffffffffffffffffffffffffffffffff1673ffffffffffffffffffffffffffffffffffffffff168152602001908152602001600020819055508573ffffffffffffffffffffffffffffffffffffffff16600073ffffffffffffffffffffffffffffffffffffffff168373ffffffffffffffffffffffffffffffffffffffff167fc3d58168c5ae7397731d063d5bbf3d657854427343f4c083240f7aacaa2d0f628888604051612c6f929190614c11565b60405180910390a4612c868260008888888861319a565b505050505050565b600073ffffffffffffffffffffffffffffffffffffffff168473ffffffffffffffffffffffffffffffffffffffff161415612cfe576040517f08c379a0000000000000000000000000000000000000000000000000000000008152600401612cf590614ba0565b60405180910390fd5b6000612d08612680565b90506000612d14612653565b905060005b8551811015612e2357612dad826002016000888481518110612d3757fe5b6020026020010151815260200190815260200160002060008973ffffffffffffffffffffffffffffffffffffffff1673ffffffffffffffffffffffffffffffffffffffff16815260200190815260200160002054868381518110612d9757fe5b602002602001015161274890919063ffffffff16565b826002016000888481518110612dbf57fe5b6020026020010151815260200190815260200160002060008973ffffffffffffffffffffffffffffffffffffffff1673ffffffffffffffffffffffffffffffffffffffff168152602001908152602001600020819055508080600101915050612d19565b508573ffffffffffffffffffffffffffffffffffffffff16600073ffffffffffffffffffffffffffffffffffffffff168373ffffffffffffffffffffffffffffffffffffffff167f4a39dc06d4c0dbc64b70af90fd698a233a518aa5d07e595d983b8c0526c8f7fb8888604051612e9b929190614884565b60405180910390a4612eb2826000888888886127d0565b505050505050565b600073ffffffffffffffffffffffffffffffffffffffff168373ffffffffffffffffffffffffffffffffffffffff161415612f2a576040517f08c379a0000000000000000000000000000000000000000000000000000000008152600401612f2190614ae0565b60405180910390fd5b6000612f34612680565b90506000612f40612653565b9050612fc183604051806060016040528060248152602001614e366024913983600201600088815260200190815260200160002060008973ffffffffffffffffffffffffffffffffffffffff1673ffffffffffffffffffffffffffffffffffffffff168152602001908152602001600020546126889092919063ffffffff16565b81600201600086815260200190815260200160002060008773ffffffffffffffffffffffffffffffffffffffff1673ffffffffffffffffffffffffffffffffffffffff16815260200190815260200160002081905550600073ffffffffffffffffffffffffffffffffffffffff168573ffffffffffffffffffffffffffffffffffffffff168373ffffffffffffffffffffffffffffffffffffffff167fc3d58168c5ae7397731d063d5bbf3d657854427343f4c083240f7aacaa2d0f62878760405161308e929190614c11565b60405180910390a45050505050565b6000807fc8fcad8db84d3cc18b4c41d551ea0ee66dd599cde068d998e57d5e09332c131c90508091505090565b6000808314156130dd576000905061314a565b60008284029050828482816130ee57fe5b0414613145576040517f08c379a0000000000000000000000000000000000000000000000000000000008152600401808060200182810382526021815260200180614e846021913960400191505060405180910390fd5b809150505b92915050565b600061319283836040518060400160405280601a81526020017f536166654d6174683a206469766973696f6e206279207a65726f0000000000008152506135a5565b905092915050565b6000843b90506000811115613385578473ffffffffffffffffffffffffffffffffffffffff1663f23a6e6188888787876040518663ffffffff1660e01b8152600401808673ffffffffffffffffffffffffffffffffffffffff1681526020018573ffffffffffffffffffffffffffffffffffffffff16815260200184815260200183815260200180602001828103825283818151815260200191508051906020019080838360005b8381101561325d578082015181840152602081019050613242565b50505050905090810190601f16801561328a5780820380516001836020036101000a031916815260200191505b509650505050505050602060405180830381600087803b1580156132ad57600080fd5b505af11580156132c1573d6000803e3d6000fd5b505050506040513d60208110156132d757600080fd5b81019080805190602001909291905050507bffffffffffffffffffffffffffffffffffffffffffffffffffffffff191663f23a6e6160e01b7bffffffffffffffffffffffffffffffffffffffffffffffffffffffff191614613384576040517f08c379a0000000000000000000000000000000000000000000000000000000008152600401808060200182810382526034815260200180614dda6034913960400191505060405180910390fd5b5b50505050505050565b6000807f17b10bd0ad65a8530f8f103d7bd5779987ee8fe308559ab60690c7746ace31a290508091505090565b60006133c561309d565b9050600081600501548260060154898989805190602001206040516020016133f094939291906148d6565b60405160208183030381529060405280519060200120604051602001613417929190614775565b60405160208183030381529060405280519060200120905060018186868660405160008152602001604052604051613452949392919061491b565b6020604051602081039080840390855afa158015613474573d6000803e3d6000fd5b5050506020604051035173ffffffffffffffffffffffffffffffffffffffff168873ffffffffffffffffffffffffffffffffffffffff16146134eb576040517f08c379a00000000000000000000000000000000000000000000000000000000081526004016134e290614960565b60405180910390fd5b5050505050505050565b60006134ff61338e565b905061355960018260000160008573ffffffffffffffffffffffffffffffffffffffff1673ffffffffffffffffffffffffffffffffffffffff1681526020019081526020016000206000015461274890919063ffffffff16565b8160000160008473ffffffffffffffffffffffffffffffffffffffff1673ffffffffffffffffffffffffffffffffffffffff168152602001908152602001600020600001819055505050565b60008083118290613651576040517f08c379a00000000000000000000000000000000000000000000000000000000081526004018080602001828103825283818151815260200191508051906020019080838360005b838110156136165780820151818401526020810190506135fb565b50505050905090810190601f1680156136435780820380516001836020036101000a031916815260200191505b509250505060405180910390fd5b50600083858161365d57fe5b049050809150509392505050565b60405180606001604052806000815260200160008152602001600081525090565b6040518060800160405280600073ffffffffffffffffffffffffffffffffffffffff168152602001600073ffffffffffffffffffffffffffffffffffffffff16815260200160008152602001600081525090565b60006136f36136ee84614c6b565b614c3a565b9050808382526020820190508285602086028201111561371257600080fd5b60005b85811015613742578161372888826138a8565b845260208401935060208301925050600181019050613715565b5050509392505050565b60008135905061375b81614d66565b92915050565b60008083601f84011261377357600080fd5b8235905067ffffffffffffffff81111561378c57600080fd5b6020830191508360208202830111156137a457600080fd5b9250929050565b60008083601f8401126137bd57600080fd5b8235905067ffffffffffffffff8111156137d657600080fd5b6020830191508360208202830111156137ee57600080fd5b9250929050565b600082601f83011261380657600080fd5b81356138168482602086016136e0565b91505092915050565b60008135905061382e81614d7d565b92915050565b60008151905061384381614d7d565b92915050565b60008135905061385881614d94565b92915050565b60008083601f84011261387057600080fd5b8235905067ffffffffffffffff81111561388957600080fd5b6020830191508360018202830111156138a157600080fd5b9250929050565b6000813590506138b781614dab565b92915050565b6000815190506138cc81614dab565b92915050565b6000813590506138e181614dc2565b92915050565b6000602082840312156138f957600080fd5b60006139078482850161374c565b91505092915050565b6000806040838503121561392357600080fd5b60006139318582860161374c565b92505060206139428582860161374c565b9150509250929050565b60008060008060008060008060a0898b03121561396857600080fd5b60006139768b828c0161374c565b98505060206139878b828c0161374c565b975050604089013567ffffffffffffffff8111156139a457600080fd5b6139b08b828c016137ab565b9650965050606089013567ffffffffffffffff8111156139cf57600080fd5b6139db8b828c016137ab565b9450945050608089013567ffffffffffffffff8111156139fa57600080fd5b613a068b828c0161385e565b92509250509295985092959890939650565b60008060008060008060a08789031215613a3157600080fd5b6000613a3f89828a0161374c565b9650506020613a5089828a0161374c565b9550506040613a6189828a016138a8565b9450506060613a7289828a016138a8565b935050608087013567ffffffffffffffff811115613a8f57600080fd5b613a9b89828a0161385e565b92509250509295509295509295565b600080600080600080600080600060e08a8c031215613ac857600080fd5b6000613ad68c828d0161374c565b99505060208a013567ffffffffffffffff811115613af357600080fd5b613aff8c828d016137f5565b98505060408a013567ffffffffffffffff811115613b1c57600080fd5b613b288c828d01613761565b975097505060608a013567ffffffffffffffff811115613b4757600080fd5b613b538c828d016137ab565b95509550506080613b668c828d016138d2565b93505060a0613b778c828d01613849565b92505060c0613b888c828d01613849565b9150509295985092959850929598565b60008060408385031215613bab57600080fd5b6000613bb98582860161374c565b9250506020613bca8582860161381f565b9150509250929050565b60008060408385031215613be757600080fd5b6000613bf58582860161374c565b9250506020613c06858286016138a8565b9150509250929050565b600080600080600080600060e0888a031215613c2b57600080fd5b6000613c398a828b0161374c565b9750506020613c4a8a828b016138a8565b9650506040613c5b8a828b0161374c565b9550506060613c6c8a828b016138a8565b9450506080613c7d8a828b016138d2565b93505060a0613c8e8a828b01613849565b92505060c0613c9f8a828b01613849565b91505092959891949750929550565b600080600080600060a08688031215613cc657600080fd5b6000613cd48882890161374c565b9550506020613ce5888289016138a8565b9450506040613cf6888289016138d2565b9350506060613d0788828901613849565b9250506080613d1888828901613849565b9150509295509295909350565b60008060008060408587031215613d3b57600080fd5b600085013567ffffffffffffffff811115613d5557600080fd5b613d6187828801613761565b9450945050602085013567ffffffffffffffff811115613d8057600080fd5b613d8c878288016137ab565b925092505092959194509250565b600060208284031215613dac57600080fd5b6000613dba84828501613834565b91505092915050565b600060208284031215613dd557600080fd5b6000613de3848285016138a8565b91505092915050565b600060208284031215613dfe57600080fd5b6000613e0c848285016138bd565b91505092915050565b60008060408385031215613e2857600080fd5b6000613e36858286016138a8565b9250506020613e478582860161374c565b9150509250929050565b600080600080600060a08688031215613e6957600080fd5b6000613e77888289016138a8565b9550506020613e88888289016138a8565b9450506040613e99888289016138d2565b9350506060613eaa88828901613849565b9250506080613ebb88828901613849565b9150509295509295909350565b6000613ed48383614748565b60208301905092915050565b613ee981614cec565b82525050565b613ef881614cec565b82525050565b6000613f0a8385614cbf565b93507f07ffffffffffffffffffffffffffffffffffffffffffffffffffffffffffffff831115613f3957600080fd5b602083029250613f4a838584614d4b565b82840190509392505050565b6000613f6182614ca7565b613f6b8185614cbf565b9350613f7683614c97565b8060005b83811015613fa7578151613f8e8882613ec8565b9750613f9983614cb2565b925050600181019050613f7a565b5085935050505092915050565b613fbd81614cfe565b82525050565b613fcc81614d0a565b82525050565b613fe3613fde82614d0a565b614d5a565b82525050565b6000613ff6601583614cd0565b91507f5175616c6c612f696e76616c69642d7065726d697400000000000000000000006000830152602082019050919050565b6000614036601983614cd0565b91507f5175616c6c612f496e76616c69642d53756273637269626572000000000000006000830152602082019050919050565b6000614076601d83614cd0565b91507f5175616c6c612f496e73756666696369656e742d416c6c6f77616e63650000006000830152602082019050919050565b60006140b6603183614cd0565b91507f455243313135353a2062617463682062616c616e636520717565727920666f7260008301527f20746865207a65726f20616464726573730000000000000000000000000000006020830152604082019050919050565b600061411c603183614cd0565b91507f5175616c6c613a20616d6f756e747320616e64207061796d656e74546f6b656e60008301527f73206c656e677468206d69736d617463680000000000000000000000000000006020830152604082019050919050565b6000614182600283614ce1565b91507f19010000000000000000000000000000000000000000000000000000000000006000830152600282019050919050565b60006141c2601d83614cd0565b91507f5175616c6c612f537562736372697074696f6e2d4e6f742d52656164790000006000830152602082019050919050565b6000614202602983614cd0565b91507f455243313135353a2063616c6c6572206973206e6f74206f776e6572206e6f7260008301527f20617070726f76656400000000000000000000000000000000000000000000006020830152604082019050919050565b6000614268603283614cd0565b91507f455243313135353a20616d6f756e747320616e64207061796d656e7456616c7560008301527f6573206c656e677468206d69736d6174636800000000000000000000000000006020830152604082019050919050565b60006142ce601b83614cd0565b91507f5175616c6c612f496e73756666696369656e742d42616c616e636500000000006000830152602082019050919050565b600061430e601783614cd0565b91507f5175616c6c612f496e76616c69642d546f6b656e2d49640000000000000000006000830152602082019050919050565b600061434e602583614cd0565b91507f455243313135353a207472616e7366657220746f20746865207a65726f20616460008301527f64726573730000000000000000000000000000000000000000000000000000006020830152604082019050919050565b60006143b4603283614cd0565b91507f455243313135353a207472616e736665722063616c6c6572206973206e6f742060008301527f6f776e6572206e6f7220617070726f76656400000000000000000000000000006020830152604082019050919050565b600061441a602383614cd0565b91507f455243313135353a206275726e2066726f6d20746865207a65726f206164647260008301527f65737300000000000000000000000000000000000000000000000000000000006020830152604082019050919050565b6000614480601783614cd0565b91507f5175616c6c612f57726f6e672d546f6b656e2d547970650000000000000000006000830152602082019050919050565b60006144c0602183614cd0565b91507f5175616c6c612f496e76616c69642d537562736372697074696f6e2d496e646560008301527f78000000000000000000000000000000000000000000000000000000000000006020830152604082019050919050565b6000614526602983614cd0565b91507f455243313135353a2073657474696e6720617070726f76616c2073746174757360008301527f20666f722073656c6600000000000000000000000000000000000000000000006020830152604082019050919050565b600061458c602983614cd0565b91507f455243313135353a206163636f756e747320616e6420696473206c656e67746860008301527f206d69736d6174636800000000000000000000000000000000000000000000006020830152604082019050919050565b60006145f2602883614cd0565b91507f455243313135353a2069647320616e6420616d6f756e7473206c656e6774682060008301527f6d69736d617463680000000000000000000000000000000000000000000000006020830152604082019050919050565b6000614658602183614cd0565b91507f455243313135353a206d696e7420746f20746865207a65726f2061646472657360008301527f73000000000000000000000000000000000000000000000000000000000000006020830152604082019050919050565b6080820160008201516146c76000850182613ee0565b5060208201516146da6020850182613ee0565b5060408201516146ed6040850182614748565b5060608201516147006060850182614748565b50505050565b60608201600082015161471c6000850182614748565b50602082015161472f6020850182614748565b5060408201516147426040850182614748565b50505050565b61475181614d34565b82525050565b61476081614d34565b82525050565b61476f81614d3e565b82525050565b600061478082614175565b915061478c8285613fd2565b60208201915061479c8284613fd2565b6020820191508190509392505050565b60006020820190506147c16000830184613eef565b92915050565b60006040820190506147dc6000830185613eef565b6147e96020830184613eef565b9392505050565b60006060820190506148056000830186613eef565b6148126020830185613eef565b61481f6040830184614757565b949350505050565b60006040820190508181036000830152614842818688613efe565b90508181036020830152614857818486613efe565b905095945050505050565b6000602082019050818103600083015261487c8184613f56565b905092915050565b6000604082019050818103600083015261489e8185613f56565b905081810360208301526148b28184613f56565b90509392505050565b60006020820190506148d06000830184613fb4565b92915050565b60006080820190506148eb6000830187613fc3565b6148f86020830186613eef565b6149056040830185614757565b6149126060830184613fc3565b95945050505050565b60006080820190506149306000830187613fc3565b61493d6020830186614766565b61494a6040830185613fc3565b6149576060830184613fc3565b95945050505050565b6000602082019050818103600083015261497981613fe9565b9050919050565b6000602082019050818103600083015261499981614029565b9050919050565b600060208201905081810360008301526149b981614069565b9050919050565b600060208201905081810360008301526149d9816140a9565b9050919050565b600060208201905081810360008301526149f98161410f565b9050919050565b60006020820190508181036000830152614a19816141b5565b9050919050565b60006020820190508181036000830152614a39816141f5565b9050919050565b60006020820190508181036000830152614a598161425b565b9050919050565b60006020820190508181036000830152614a79816142c1565b9050919050565b60006020820190508181036000830152614a9981614301565b9050919050565b60006020820190508181036000830152614ab981614341565b9050919050565b60006020820190508181036000830152614ad9816143a7565b9050919050565b60006020820190508181036000830152614af98161440d565b9050919050565b60006020820190508181036000830152614b1981614473565b9050919050565b60006020820190508181036000830152614b39816144b3565b9050919050565b60006020820190508181036000830152614b5981614519565b9050919050565b60006020820190508181036000830152614b798161457f565b9050919050565b60006020820190508181036000830152614b99816145e5565b9050919050565b60006020820190508181036000830152614bb98161464b565b9050919050565b6000608082019050614bd560008301846146b1565b92915050565b6000606082019050614bf06000830184614706565b92915050565b6000602082019050614c0b6000830184614757565b92915050565b6000604082019050614c266000830185614757565b614c336020830184614757565b9392505050565b6000604051905081810181811067ffffffffffffffff82111715614c6157614c60614d64565b5b8060405250919050565b600067ffffffffffffffff821115614c8657614c85614d64565b5b602082029050602081019050919050565b6000819050602082019050919050565b600081519050919050565b6000602082019050919050565b600082825260208201905092915050565b600082825260208201905092915050565b600081905092915050565b6000614cf782614d14565b9050919050565b60008115159050919050565b6000819050919050565b600073ffffffffffffffffffffffffffffffffffffffff82169050919050565b6000819050919050565b600060ff82169050919050565b82818337600083830152505050565b6000819050919050565bfe5b614d6f81614cec565b8114614d7a57600080fd5b50565b614d8681614cfe565b8114614d9157600080fd5b50565b614d9d81614d0a565b8114614da857600080fd5b50565b614db481614d34565b8114614dbf57600080fd5b50565b614dcb81614d3e565b8114614dd657600080fd5b5056fe455243313135353a207472616e7366657220746f206e6f6e2045524331313535526563656976657220696d706c656d656e746572455243313135353a204552433131353552656365697665722072656a656374656420746f6b656e73455243313135353a206275726e20616d6f756e7420657863656564732062616c616e6365455243313135353a20696e73756666696369656e742062616c616e636520666f72207472616e73666572536166654d6174683a206d756c7469706c69636174696f6e206f766572666c6f77a2646970667358221220b6a43375fb013492f699f7b7aae0189165bb4ea6956bf3e83c1b45e41584057764736f6c63430007060033",
  "linkReferences": {},
  "deployedLinkReferences": {}
}