{
  "_format": "hh-sol-artifact-1",
  "contractName": "QuallaSubscriptionsFacet",
  "sourceName": "contracts/facets/QuallaSubscriptionFacet.sol",
  "abi": [
    {
      "inputs": [
        {
          "internalType": "uint256",
          "name": "id",
          "type": "uint256"
        },
        {
          "internalType": "uint256",
          "name": "amount",
          "type": "uint256"
        },
        {
          "internalType": "uint8",
          "name": "v",
          "type": "uint8"
        },
        {
          "internalType": "bytes32",
          "name": "r",
          "type": "bytes32"
        },
        {
          "internalType": "bytes32",
          "name": "s",
          "type": "bytes32"
        }
      ],
      "name": "burnSubscription",
      "outputs": [],
      "stateMutability": "nonpayable",
      "type": "function"
    },
    {
      "inputs": [
        {
          "internalType": "address",
          "name": "subscriber",
          "type": "address"
        },
        {
          "internalType": "uint256",
          "name": "id",
          "type": "uint256"
        },
        {
          "internalType": "uint8",
          "name": "v",
          "type": "uint8"
        },
        {
          "internalType": "bytes32",
          "name": "r",
          "type": "bytes32"
        },
        {
          "internalType": "bytes32",
          "name": "s",
          "type": "bytes32"
        }
      ],
      "name": "buySubscription",
      "outputs": [],
      "stateMutability": "nonpayable",
      "type": "function"
    },
    {
      "inputs": [
        {
          "internalType": "uint256",
          "name": "id_",
          "type": "uint256"
        },
        {
          "internalType": "address",
          "name": "subscriber",
          "type": "address"
        }
      ],
      "name": "executeSubscription",
      "outputs": [],
      "stateMutability": "nonpayable",
      "type": "function"
    },
    {
      "inputs": [
        {
          "internalType": "uint256",
          "name": "id",
          "type": "uint256"
        }
      ],
      "name": "getBaseToken",
      "outputs": [
        {
          "components": [
            {
              "internalType": "address",
              "name": "creator",
              "type": "address"
            },
            {
              "internalType": "contract IERC20",
              "name": "paymentToken",
              "type": "address"
            },
            {
              "internalType": "uint256",
              "name": "paymentValue",
              "type": "uint256"
            },
            {
              "internalType": "uint256",
              "name": "nonce",
              "type": "uint256"
            }
          ],
          "internalType": "struct LibSubscriptions.BaseToken",
          "name": "",
          "type": "tuple"
        }
      ],
      "stateMutability": "view",
      "type": "function"
    },
    {
      "inputs": [
        {
          "internalType": "uint256",
          "name": "id",
          "type": "uint256"
        }
      ],
      "name": "getSubToken",
      "outputs": [
        {
          "components": [
            {
              "internalType": "uint256",
              "name": "nonce",
              "type": "uint256"
            },
            {
              "internalType": "uint256",
              "name": "nextWidthdraw",
              "type": "uint256"
            },
            {
              "internalType": "uint256",
              "name": "mintStamp",
              "type": "uint256"
            }
          ],
          "internalType": "struct LibSubscriptions.SubToken",
          "name": "",
          "type": "tuple"
        }
      ],
      "stateMutability": "view",
      "type": "function"
    },
    {
      "inputs": [
        {
          "internalType": "address",
          "name": "creator",
          "type": "address"
        },
        {
          "internalType": "uint256[]",
          "name": "amounts",
          "type": "uint256[]"
        },
        {
          "internalType": "address[]",
          "name": "paymentTokens",
          "type": "address[]"
        },
        {
          "internalType": "uint256[]",
          "name": "paymentValues",
          "type": "uint256[]"
        },
        {
          "internalType": "uint8",
          "name": "v",
          "type": "uint8"
        },
        {
          "internalType": "bytes32",
          "name": "r",
          "type": "bytes32"
        },
        {
          "internalType": "bytes32",
          "name": "s",
          "type": "bytes32"
        }
      ],
      "name": "mintBatchSubscription",
      "outputs": [],
      "stateMutability": "nonpayable",
      "type": "function"
    },
    {
      "inputs": [
        {
          "internalType": "address",
          "name": "creator",
          "type": "address"
        },
        {
          "internalType": "uint256",
          "name": "amount",
          "type": "uint256"
        },
        {
          "internalType": "address",
          "name": "paymentToken",
          "type": "address"
        },
        {
          "internalType": "uint256",
          "name": "paymentValue",
          "type": "uint256"
        },
        {
          "internalType": "uint8",
          "name": "v",
          "type": "uint8"
        },
        {
          "internalType": "bytes32",
          "name": "r",
          "type": "bytes32"
        },
        {
          "internalType": "bytes32",
          "name": "s",
          "type": "bytes32"
        }
      ],
      "name": "mintSubscription",
      "outputs": [],
      "stateMutability": "nonpayable",
      "type": "function"
    },
    {
      "inputs": [
        {
          "internalType": "address",
          "name": "subscriber",
          "type": "address"
        },
        {
          "internalType": "uint256",
          "name": "id_",
          "type": "uint256"
        },
        {
          "internalType": "uint8",
          "name": "v",
          "type": "uint8"
        },
        {
          "internalType": "bytes32",
          "name": "r",
          "type": "bytes32"
        },
        {
          "internalType": "bytes32",
          "name": "s",
          "type": "bytes32"
        }
      ],
      "name": "unSubscribe",
      "outputs": [],
      "stateMutability": "nonpayable",
      "type": "function"
    }
  ],
  "bytecode": "0x608060405234801561001057600080fd5b50613875806100206000396000f3fe608060405234801561001057600080fd5b50600436106100885760003560e01c80639eb9abde1161005b5780639eb9abde14610111578063b166acd11461012d578063f73b43a814610149578063ffb651e01461016557610088565b80633a9e6e441461008d5780634f43da73146100a95780634fce9474146100d957806395fbbf50146100f5575b600080fd5b6100a760048036038101906100a29190612853565b610195565b005b6100c360048036038101906100be91906129ba565b61037e565b6040516100d0919061355f565b60405180910390f35b6100f360048036038101906100ee9190612765565b61040a565b005b61010f600480360381019061010a9190612a48565b610769565b005b61012b60048036038101906101269190612a0c565b6108e4565b005b610147600480360381019061014291906128f1565b610f11565b005b610163600480360381019061015e91906128f1565b611113565b005b61017f600480360381019061017a91906129ba565b611617565b60405161018c9190613544565b60405180910390f35b6101d7876040518060400160405280600481526020017f6d696e7400000000000000000000000000000000000000000000000000000000815250858585611761565b60006101e161197e565b90506000871415610210577fffffffffffffffffffffffffffffffffffffffffffffffffffffffffffffffff96505b6000608061022c600184600401546119ab90919063ffffffff16565b901b905060405180608001604052808a73ffffffffffffffffffffffffffffffffffffffff1681526020018873ffffffffffffffffffffffffffffffffffffffff168152602001878152602001600181525082600001600083815260200190815260200160002060008201518160000160006101000a81548173ffffffffffffffffffffffffffffffffffffffff021916908373ffffffffffffffffffffffffffffffffffffffff16021790555060208201518160010160006101000a81548173ffffffffffffffffffffffffffffffffffffffff021916908373ffffffffffffffffffffffffffffffffffffffff1602179055506040820151816002015560608201518160030155905050610350600183600401546119ab90919063ffffffff16565b826004018190555061037389828a60405180602001604052806000815250611a33565b505050505050505050565b61038661250a565b600061039061197e565b905061039a61250a565b8160010160008581526020019081526020016000206000015481600001818152505081600101600085815260200190815260200160002060010154816020018181525050816001016000858152602001908152602001600020600201548160400181815250508092505050919050565b86869050885114610450576040517f08c379a000000000000000000000000000000000000000000000000000000000815260040161044790613424565b60405180910390fd5b84849050885114610496576040517f08c379a000000000000000000000000000000000000000000000000000000000815260040161048d90613464565b60405180910390fd5b6104d8896040518060400160405280600481526020017f6d696e7400000000000000000000000000000000000000000000000000000000815250858585611761565b60006104e261197e565b90506000895167ffffffffffffffff811180156104fe57600080fd5b5060405190808252806020026020018201604052801561052d5781602001602082028036833780820191505090505b50905060005b8a518110156107405760008b828151811061054a57fe5b60200260200101511415610592577fffffffffffffffffffffffffffffffffffffffffffffffffffffffffffffffff8b828151811061058557fe5b6020026020010181815250505b60806105ac600185600401546119ab90919063ffffffff16565b901b8282815181106105ba57fe5b60200260200101818152505060405180608001604052808d73ffffffffffffffffffffffffffffffffffffffff1681526020018b8b848181106105f957fe5b905060200201602081019061060e919061273c565b73ffffffffffffffffffffffffffffffffffffffff16815260200189898481811061063557fe5b905060200201358152602001600181525083600001600084848151811061065857fe5b6020026020010151815260200190815260200160002060008201518160000160006101000a81548173ffffffffffffffffffffffffffffffffffffffff021916908373ffffffffffffffffffffffffffffffffffffffff16021790555060208201518160010160006101000a81548173ffffffffffffffffffffffffffffffffffffffff021916908373ffffffffffffffffffffffffffffffffffffffff160217905550604082015181600201556060820151816003015590505061072b600184600401546119ab90919063ffffffff16565b83600401819055508080600101915050610533565b5061075c8b828c60405180602001604052806000815250611c0c565b5050505050505050505050565b60007f80000000000000000000000000000000000000000000000000000000000000008616146107ce576040517f08c379a00000000000000000000000000000000000000000000000000000000081526004016107c5906134e4565b60405180910390fd5b60007fffffffffffffffffffffffffffffffffffffffffffffffffffffffffffffffff6fffffffffffffffffffffffffffffffff16861614610845576040517f08c379a000000000000000000000000000000000000000000000000000000000815260040161083c90613504565b60405180910390fd5b600061084f61197e565b9050600081600001600088815260200190815260200160002060000160009054906101000a900473ffffffffffffffffffffffffffffffffffffffff1690506108d0816040518060400160405280600481526020017f6275726e00000000000000000000000000000000000000000000000000000000815250878787611761565b6108db818888611e38565b50505050505050565b60007f8000000000000000000000000000000000000000000000000000000000000000831614610949576040517f08c379a0000000000000000000000000000000000000000000000000000000008152600401610940906134e4565b60405180910390fd5b60007fffffffffffffffffffffffffffffffffffffffffffffffffffffffffffffffff6fffffffffffffffffffffffffffffffff168316116109c0576040517f08c379a00000000000000000000000000000000000000000000000000000000081526004016109b790613504565b60405180910390fd5b60006109ca61197e565b905060006109d661201b565b9050600181600001600086815260200190815260200160002060008573ffffffffffffffffffffffffffffffffffffffff1673ffffffffffffffffffffffffffffffffffffffff1681526020019081526020016000205414610a6d576040517f08c379a0000000000000000000000000000000000000000000000000000000008152600401610a64906133c4565b60405180910390fd5b428260010160008681526020019081526020016000206001015410610ac7576040517f08c379a0000000000000000000000000000000000000000000000000000000008152600401610abe90613444565b60405180910390fd5b600060807fffffffffffffffffffffffffffffffffffffffffffffffffffffffffffffffff6fffffffffffffffffffffffffffffffff16901b8516905060008360000160008381526020019081526020016000206040518060800160405290816000820160009054906101000a900473ffffffffffffffffffffffffffffffffffffffff1673ffffffffffffffffffffffffffffffffffffffff1673ffffffffffffffffffffffffffffffffffffffff1681526020016001820160009054906101000a900473ffffffffffffffffffffffffffffffffffffffff1673ffffffffffffffffffffffffffffffffffffffff1673ffffffffffffffffffffffffffffffffffffffff16815260200160028201548152602001600382015481525050905060048460010160008881526020019081526020016000206000015410610c3957610c1485876001611e38565b610c34816000015183600160405180602001604052806000815250611a33565b610c82565b610c656001856001016000898152602001908152602001600020600001546119ab90919063ffffffff16565b846001016000888152602001908152602001600020600001819055505b60008360050160009054906101000a900460ff1660640360ff1690508160400151826020015173ffffffffffffffffffffffffffffffffffffffff1663dd62ed3e88306040518363ffffffff1660e01b8152600401610ce29291906131a1565b60206040518083038186803b158015610cfa57600080fd5b505afa158015610d0e573d6000803e3d6000fd5b505050506040513d601f19601f82011682018060405250810190610d3291906129e3565b1080610dcd57508160400151826020015173ffffffffffffffffffffffffffffffffffffffff166370a08231886040518263ffffffff1660e01b8152600401610d7b9190613186565b60206040518083038186803b158015610d9357600080fd5b505afa158015610da7573d6000803e3d6000fd5b505050506040513d601f19601f82011682018060405250810190610dcb91906129e3565b105b15610dff57610dde86886001611e38565b610dfe826000015184600160405180602001604052806000815250611a33565b5b816020015173ffffffffffffffffffffffffffffffffffffffff166323b872dd878460000151610e4f6064610e4187896040015161204890919063ffffffff16565b6120ce90919063ffffffff16565b6040518463ffffffff1660e01b8152600401610e6d93929190613232565b602060405180830381600087803b158015610e8757600080fd5b505af1158015610e9b573d6000803e3d6000fd5b505050506040513d601f19601f82011682018060405250810190610ebf9190612968565b50610eec600f8660010160008a8152602001908152602001600020600101546119ab90919063ffffffff16565b8560010160008981526020019081526020016000206001018190555050505050505050565b60007f8000000000000000000000000000000000000000000000000000000000000000851614610f76576040517f08c379a0000000000000000000000000000000000000000000000000000000008152600401610f6d906134e4565b60405180910390fd5b60007fffffffffffffffffffffffffffffffffffffffffffffffffffffffffffffffff6fffffffffffffffffffffffffffffffff16851611610fed576040517f08c379a0000000000000000000000000000000000000000000000000000000008152600401610fe490613504565b60405180910390fd5b61102f856040518060400160405280600b81526020017f756e737562736372696265000000000000000000000000000000000000000000815250858585611761565b600061103961197e565b905061104786866001611e38565b61110b81600001600060807fffffffffffffffffffffffffffffffffffffffffffffffffffffffffffffffff6fffffffffffffffffffffffffffffffff16901b8816815260200190815260200160002060000160009054906101000a900473ffffffffffffffffffffffffffffffffffffffff1660807fffffffffffffffffffffffffffffffffffffffffffffffffffffffffffffffff6fffffffffffffffffffffffffffffffff16901b8716600160405180602001604052806000815250611a33565b505050505050565b60007f8000000000000000000000000000000000000000000000000000000000000000851614611178576040517f08c379a000000000000000000000000000000000000000000000000000000000815260040161116f906134e4565b60405180910390fd5b60007fffffffffffffffffffffffffffffffffffffffffffffffffffffffffffffffff6fffffffffffffffffffffffffffffffff168516146111ef576040517f08c379a00000000000000000000000000000000000000000000000000000000081526004016111e690613504565b60405180910390fd5b60006111f961197e565b905060008160000160008781526020019081526020016000206040518060800160405290816000820160009054906101000a900473ffffffffffffffffffffffffffffffffffffffff1673ffffffffffffffffffffffffffffffffffffffff1673ffffffffffffffffffffffffffffffffffffffff1681526020016001820160009054906101000a900473ffffffffffffffffffffffffffffffffffffffff1673ffffffffffffffffffffffffffffffffffffffff1673ffffffffffffffffffffffffffffffffffffffff168152602001600282015481526020016003820154815250509050600073ffffffffffffffffffffffffffffffffffffffff16816000015173ffffffffffffffffffffffffffffffffffffffff161415611353576040517f08c379a000000000000000000000000000000000000000000000000000000000815260040161134a906134a4565b60405180910390fd5b8060400151816020015173ffffffffffffffffffffffffffffffffffffffff166370a08231896040518263ffffffff1660e01b81526004016113959190613186565b60206040518083038186803b1580156113ad57600080fd5b505afa1580156113c1573d6000803e3d6000fd5b505050506040513d601f19601f820116820180604052508101906113e591906129e3565b11611425576040517f08c379a000000000000000000000000000000000000000000000000000000000815260040161141c90613484565b60405180910390fd5b8060400151816020015173ffffffffffffffffffffffffffffffffffffffff1663dd62ed3e89306040518363ffffffff1660e01b81526004016114699291906131a1565b60206040518083038186803b15801561148157600080fd5b505afa158015611495573d6000803e3d6000fd5b505050506040513d601f19601f820116820180604052508101906114b991906129e3565b116114f9576040517f08c379a00000000000000000000000000000000000000000000000000000000081526004016114f090613404565b60405180910390fd5b61153b876040518060400160405280600981526020017f7375627363726962650000000000000000000000000000000000000000000000815250878787611761565b600081606001518717905060405180606001604052806000815260200160008152602001428152508360010160008381526020019081526020016000206000820151816000015560208201518160010155604082015181600201559050506115a98260000151886001611e38565b6115c58882600160405180602001604052806000815250611a33565b6115f160018460000160008a8152602001908152602001600020600301546119ab90919063ffffffff16565b836000016000898152602001908152602001600020600301819055505050505050505050565b61161f61252b565b600061162961197e565b905061163361252b565b81600001600085815260200190815260200160002060000160009054906101000a900473ffffffffffffffffffffffffffffffffffffffff16816000019073ffffffffffffffffffffffffffffffffffffffff16908173ffffffffffffffffffffffffffffffffffffffff168152505081600001600085815260200190815260200160002060010160009054906101000a900473ffffffffffffffffffffffffffffffffffffffff16816020019073ffffffffffffffffffffffffffffffffffffffff16908173ffffffffffffffffffffffffffffffffffffffff168152505081600001600085815260200190815260200160002060020154816040018181525050816000016000858152602001908152602001600020600301548160600181815250508092505050919050565b600061176b61201b565b9050600081600301548260040154888460020160008b73ffffffffffffffffffffffffffffffffffffffff1673ffffffffffffffffffffffffffffffffffffffff1681526020019081526020016000206000015489805190602001206040516020016117da94939291906132fa565b6040516020818303038152906040528051906020012060405160200161180192919061314f565b6040516020818303038152906040528051906020012090506001818686866040516000815260200160405260405161183c949392919061333f565b6020604051602081039080840390855afa15801561185e573d6000803e3d6000fd5b5050506020604051035173ffffffffffffffffffffffffffffffffffffffff168773ffffffffffffffffffffffffffffffffffffffff16146118d5576040517f08c379a00000000000000000000000000000000000000000000000000000000081526004016118cc906133a4565b60405180910390fd5b61192d60018360020160008a73ffffffffffffffffffffffffffffffffffffffff1673ffffffffffffffffffffffffffffffffffffffff168152602001908152602001600020600001546119ab90919063ffffffff16565b8260020160008973ffffffffffffffffffffffffffffffffffffffff1673ffffffffffffffffffffffffffffffffffffffff1681526020019081526020016000206000018190555050505050505050565b6000807f8011e08e256fd2a672b7720b7587378b9f27bfa5a95803a3cee7cf21a0a3def890508091505090565b600080828401905083811015611a29576040517f08c379a000000000000000000000000000000000000000000000000000000000815260040180806020018281038252601b8152602001807f536166654d6174683a206164646974696f6e206f766572666c6f77000000000081525060200191505060405180910390fd5b8091505092915050565b600073ffffffffffffffffffffffffffffffffffffffff168473ffffffffffffffffffffffffffffffffffffffff161415611aa3576040517f08c379a0000000000000000000000000000000000000000000000000000000008152600401611a9a90613524565b60405180910390fd5b6000611aad612118565b90506000611ab961201b565b9050611b208482600001600088815260200190815260200160002060008973ffffffffffffffffffffffffffffffffffffffff1673ffffffffffffffffffffffffffffffffffffffff168152602001908152602001600020546119ab90919063ffffffff16565b81600001600087815260200190815260200160002060008873ffffffffffffffffffffffffffffffffffffffff1673ffffffffffffffffffffffffffffffffffffffff168152602001908152602001600020819055508573ffffffffffffffffffffffffffffffffffffffff16600073ffffffffffffffffffffffffffffffffffffffff168373ffffffffffffffffffffffffffffffffffffffff167fc3d58168c5ae7397731d063d5bbf3d657854427343f4c083240f7aacaa2d0f628888604051611bed92919061357a565b60405180910390a4611c0482600088888888612120565b505050505050565b600073ffffffffffffffffffffffffffffffffffffffff168473ffffffffffffffffffffffffffffffffffffffff161415611c7c576040517f08c379a0000000000000000000000000000000000000000000000000000000008152600401611c7390613524565b60405180910390fd5b6000611c86612118565b90506000611c9261201b565b905060005b8551811015611da157611d2b826000016000888481518110611cb557fe5b6020026020010151815260200190815260200160002060008973ffffffffffffffffffffffffffffffffffffffff1673ffffffffffffffffffffffffffffffffffffffff16815260200190815260200160002054868381518110611d1557fe5b60200260200101516119ab90919063ffffffff16565b826000016000888481518110611d3d57fe5b6020026020010151815260200190815260200160002060008973ffffffffffffffffffffffffffffffffffffffff1673ffffffffffffffffffffffffffffffffffffffff168152602001908152602001600020819055508080600101915050611c97565b508573ffffffffffffffffffffffffffffffffffffffff16600073ffffffffffffffffffffffffffffffffffffffff168373ffffffffffffffffffffffffffffffffffffffff167f4a39dc06d4c0dbc64b70af90fd698a233a518aa5d07e595d983b8c0526c8f7fb8888604051611e199291906132c3565b60405180910390a4611e3082600088888888612252565b505050505050565b600073ffffffffffffffffffffffffffffffffffffffff168373ffffffffffffffffffffffffffffffffffffffff161415611ea8576040517f08c379a0000000000000000000000000000000000000000000000000000000008152600401611e9f906134c4565b60405180910390fd5b6000611eb2612118565b90506000611ebe61201b565b9050611f3f836040518060600160405280602481526020016137fb6024913983600001600088815260200190815260200160002060008973ffffffffffffffffffffffffffffffffffffffff1673ffffffffffffffffffffffffffffffffffffffff168152602001908152602001600020546123849092919063ffffffff16565b81600001600086815260200190815260200160002060008773ffffffffffffffffffffffffffffffffffffffff1673ffffffffffffffffffffffffffffffffffffffff16815260200190815260200160002081905550600073ffffffffffffffffffffffffffffffffffffffff168573ffffffffffffffffffffffffffffffffffffffff168373ffffffffffffffffffffffffffffffffffffffff167fc3d58168c5ae7397731d063d5bbf3d657854427343f4c083240f7aacaa2d0f62878760405161200c92919061357a565b60405180910390a45050505050565b6000807fd1fd1ec9eb6f457e5e32da0d2921ff6daf7fd2085ec060a076b391ca2400b28290508091505090565b60008083141561205b57600090506120c8565b600082840290508284828161206c57fe5b04146120c3576040517f08c379a000000000000000000000000000000000000000000000000000000000815260040180806020018281038252602181526020018061381f6021913960400191505060405180910390fd5b809150505b92915050565b600061211083836040518060400160405280601a81526020017f536166654d6174683a206469766973696f6e206279207a65726f000000000000815250612444565b905092915050565b600033905090565b6000843b90506000811115612249578473ffffffffffffffffffffffffffffffffffffffff1663f23a6e6188888787876040518663ffffffff1660e01b8152600401612170959493929190613269565b602060405180830381600087803b15801561218a57600080fd5b505af115801561219e573d6000803e3d6000fd5b505050506040513d601f19601f820116820180604052508101906121c29190612991565b7bffffffffffffffffffffffffffffffffffffffffffffffffffffffff191663f23a6e6160e01b7bffffffffffffffffffffffffffffffffffffffffffffffffffffffff191614612248576040517f08c379a000000000000000000000000000000000000000000000000000000000815260040161223f90613384565b60405180910390fd5b5b50505050505050565b6000843b9050600081111561237b578473ffffffffffffffffffffffffffffffffffffffff1663bc197c8188888787876040518663ffffffff1660e01b81526004016122a29594939291906131ca565b602060405180830381600087803b1580156122bc57600080fd5b505af11580156122d0573d6000803e3d6000fd5b505050506040513d601f19601f820116820180604052508101906122f49190612991565b7bffffffffffffffffffffffffffffffffffffffffffffffffffffffff191663bc197c8160e01b7bffffffffffffffffffffffffffffffffffffffffffffffffffffffff19161461237a576040517f08c379a0000000000000000000000000000000000000000000000000000000008152600401612371906133e4565b60405180910390fd5b5b50505050505050565b6000838311158290612431576040517f08c379a00000000000000000000000000000000000000000000000000000000081526004018080602001828103825283818151815260200191508051906020019080838360005b838110156123f65780820151818401526020810190506123db565b50505050905090810190601f1680156124235780820380516001836020036101000a031916815260200191505b509250505060405180910390fd5b5060008385039050809150509392505050565b600080831182906124f0576040517f08c379a00000000000000000000000000000000000000000000000000000000081526004018080602001828103825283818151815260200191508051906020019080838360005b838110156124b557808201518184015260208101905061249a565b50505050905090810190601f1680156124e25780820380516001836020036101000a031916815260200191505b509250505060405180910390fd5b5060008385816124fc57fe5b049050809150509392505050565b60405180606001604052806000815260200160008152602001600081525090565b6040518060800160405280600073ffffffffffffffffffffffffffffffffffffffff168152602001600073ffffffffffffffffffffffffffffffffffffffff16815260200160008152602001600081525090565b600061259261258d846135d4565b6135a3565b905080838252602082019050828560208602820111156125b157600080fd5b60005b858110156125e157816125c788826126fd565b8452602084019350602083019250506001810190506125b4565b5050509392505050565b6000813590506125fa81613770565b92915050565b60008083601f84011261261257600080fd5b8235905067ffffffffffffffff81111561262b57600080fd5b60208301915083602082028301111561264357600080fd5b9250929050565b60008083601f84011261265c57600080fd5b8235905067ffffffffffffffff81111561267557600080fd5b60208301915083602082028301111561268d57600080fd5b9250929050565b600082601f8301126126a557600080fd5b81356126b584826020860161257f565b91505092915050565b6000815190506126cd81613787565b92915050565b6000813590506126e28161379e565b92915050565b6000815190506126f7816137b5565b92915050565b60008135905061270c816137cc565b92915050565b600081519050612721816137cc565b92915050565b600081359050612736816137e3565b92915050565b60006020828403121561274e57600080fd5b600061275c848285016125eb565b91505092915050565b600080600080600080600080600060e08a8c03121561278357600080fd5b60006127918c828d016125eb565b99505060208a013567ffffffffffffffff8111156127ae57600080fd5b6127ba8c828d01612694565b98505060408a013567ffffffffffffffff8111156127d757600080fd5b6127e38c828d01612600565b975097505060608a013567ffffffffffffffff81111561280257600080fd5b61280e8c828d0161264a565b955095505060806128218c828d01612727565b93505060a06128328c828d016126d3565b92505060c06128438c828d016126d3565b9150509295985092959850929598565b600080600080600080600060e0888a03121561286e57600080fd5b600061287c8a828b016125eb565b975050602061288d8a828b016126fd565b965050604061289e8a828b016125eb565b95505060606128af8a828b016126fd565b94505060806128c08a828b01612727565b93505060a06128d18a828b016126d3565b92505060c06128e28a828b016126d3565b91505092959891949750929550565b600080600080600060a0868803121561290957600080fd5b6000612917888289016125eb565b9550506020612928888289016126fd565b945050604061293988828901612727565b935050606061294a888289016126d3565b925050608061295b888289016126d3565b9150509295509295909350565b60006020828403121561297a57600080fd5b6000612988848285016126be565b91505092915050565b6000602082840312156129a357600080fd5b60006129b1848285016126e8565b91505092915050565b6000602082840312156129cc57600080fd5b60006129da848285016126fd565b91505092915050565b6000602082840312156129f557600080fd5b6000612a0384828501612712565b91505092915050565b60008060408385031215612a1f57600080fd5b6000612a2d858286016126fd565b9250506020612a3e858286016125eb565b9150509250929050565b600080600080600060a08688031215612a6057600080fd5b6000612a6e888289016126fd565b9550506020612a7f888289016126fd565b9450506040612a9088828901612727565b9350506060612aa1888289016126d3565b9250506080612ab2888289016126d3565b9150509295509295909350565b6000612acb8383613122565b60208301905092915050565b612ae081613671565b82525050565b612aef81613671565b82525050565b6000612b0082613610565b612b0a8185613633565b9350612b1583613600565b8060005b83811015612b46578151612b2d8882612abf565b9750612b3883613626565b925050600181019050612b19565b5085935050505092915050565b612b5c8161368f565b82525050565b612b73612b6e8261368f565b613753565b82525050565b6000612b848261361b565b612b8e8185613644565b9350612b9e818560208601613720565b612ba78161375f565b840191505092915050565b612bbb816136fc565b82525050565b6000612bce603483613655565b91507f455243313135353a207472616e7366657220746f206e6f6e204552433131353560008301527f526563656976657220696d706c656d656e7465720000000000000000000000006020830152604082019050919050565b6000612c34601583613655565b91507f5175616c6c612f696e76616c69642d7065726d697400000000000000000000006000830152602082019050919050565b6000612c74601983613655565b91507f5175616c6c612f496e76616c69642d53756273637269626572000000000000006000830152602082019050919050565b6000612cb4602883613655565b91507f455243313135353a204552433131353552656365697665722072656a6563746560008301527f6420746f6b656e730000000000000000000000000000000000000000000000006020830152604082019050919050565b6000612d1a601d83613655565b91507f5175616c6c612f496e73756666696369656e742d416c6c6f77616e63650000006000830152602082019050919050565b6000612d5a603183613655565b91507f5175616c6c613a20616d6f756e747320616e64207061796d656e74546f6b656e60008301527f73206c656e677468206d69736d617463680000000000000000000000000000006020830152604082019050919050565b6000612dc0600283613666565b91507f19010000000000000000000000000000000000000000000000000000000000006000830152600282019050919050565b6000612e00601d83613655565b91507f5175616c6c612f537562736372697074696f6e2d4e6f742d52656164790000006000830152602082019050919050565b6000612e40603283613655565b91507f455243313135353a20616d6f756e747320616e64207061796d656e7456616c7560008301527f6573206c656e677468206d69736d6174636800000000000000000000000000006020830152604082019050919050565b6000612ea6601b83613655565b91507f5175616c6c612f496e73756666696369656e742d42616c616e636500000000006000830152602082019050919050565b6000612ee6601783613655565b91507f5175616c6c612f496e76616c69642d546f6b656e2d49640000000000000000006000830152602082019050919050565b6000612f26602383613655565b91507f455243313135353a206275726e2066726f6d20746865207a65726f206164647260008301527f65737300000000000000000000000000000000000000000000000000000000006020830152604082019050919050565b6000612f8c601783613655565b91507f5175616c6c612f57726f6e672d546f6b656e2d547970650000000000000000006000830152602082019050919050565b6000612fcc602183613655565b91507f5175616c6c612f496e76616c69642d537562736372697074696f6e2d496e646560008301527f78000000000000000000000000000000000000000000000000000000000000006020830152604082019050919050565b6000613032602183613655565b91507f455243313135353a206d696e7420746f20746865207a65726f2061646472657360008301527f73000000000000000000000000000000000000000000000000000000000000006020830152604082019050919050565b6080820160008201516130a16000850182612ad7565b5060208201516130b46020850182612bb2565b5060408201516130c76040850182613122565b5060608201516130da6060850182613122565b50505050565b6060820160008201516130f66000850182613122565b5060208201516131096020850182613122565b50604082015161311c6040850182613122565b50505050565b61312b816136e5565b82525050565b61313a816136e5565b82525050565b613149816136ef565b82525050565b600061315a82612db3565b91506131668285612b62565b6020820191506131768284612b62565b6020820191508190509392505050565b600060208201905061319b6000830184612ae6565b92915050565b60006040820190506131b66000830185612ae6565b6131c36020830184612ae6565b9392505050565b600060a0820190506131df6000830188612ae6565b6131ec6020830187612ae6565b81810360408301526131fe8186612af5565b905081810360608301526132128185612af5565b905081810360808301526132268184612b79565b90509695505050505050565b60006060820190506132476000830186612ae6565b6132546020830185612ae6565b6132616040830184613131565b949350505050565b600060a08201905061327e6000830188612ae6565b61328b6020830187612ae6565b6132986040830186613131565b6132a56060830185613131565b81810360808301526132b78184612b79565b90509695505050505050565b600060408201905081810360008301526132dd8185612af5565b905081810360208301526132f18184612af5565b90509392505050565b600060808201905061330f6000830187612b53565b61331c6020830186612ae6565b6133296040830185613131565b6133366060830184612b53565b95945050505050565b60006080820190506133546000830187612b53565b6133616020830186613140565b61336e6040830185612b53565b61337b6060830184612b53565b95945050505050565b6000602082019050818103600083015261339d81612bc1565b9050919050565b600060208201905081810360008301526133bd81612c27565b9050919050565b600060208201905081810360008301526133dd81612c67565b9050919050565b600060208201905081810360008301526133fd81612ca7565b9050919050565b6000602082019050818103600083015261341d81612d0d565b9050919050565b6000602082019050818103600083015261343d81612d4d565b9050919050565b6000602082019050818103600083015261345d81612df3565b9050919050565b6000602082019050818103600083015261347d81612e33565b9050919050565b6000602082019050818103600083015261349d81612e99565b9050919050565b600060208201905081810360008301526134bd81612ed9565b9050919050565b600060208201905081810360008301526134dd81612f19565b9050919050565b600060208201905081810360008301526134fd81612f7f565b9050919050565b6000602082019050818103600083015261351d81612fbf565b9050919050565b6000602082019050818103600083015261353d81613025565b9050919050565b6000608082019050613559600083018461308b565b92915050565b600060608201905061357460008301846130e0565b92915050565b600060408201905061358f6000830185613131565b61359c6020830184613131565b9392505050565b6000604051905081810181811067ffffffffffffffff821117156135ca576135c961375d565b5b8060405250919050565b600067ffffffffffffffff8211156135ef576135ee61375d565b5b602082029050602081019050919050565b6000819050602082019050919050565b600081519050919050565b600081519050919050565b6000602082019050919050565b600082825260208201905092915050565b600082825260208201905092915050565b600082825260208201905092915050565b600081905092915050565b600061367c826136c5565b9050919050565b60008115159050919050565b6000819050919050565b60007fffffffff0000000000000000000000000000000000000000000000000000000082169050919050565b600073ffffffffffffffffffffffffffffffffffffffff82169050919050565b6000819050919050565b600060ff82169050919050565b60006137078261370e565b9050919050565b6000613719826136c5565b9050919050565b60005b8381101561373e578082015181840152602081019050613723565b8381111561374d576000848401525b50505050565b6000819050919050565bfe5b6000601f19601f8301169050919050565b61377981613671565b811461378457600080fd5b50565b61379081613683565b811461379b57600080fd5b50565b6137a78161368f565b81146137b257600080fd5b50565b6137be81613699565b81146137c957600080fd5b50565b6137d5816136e5565b81146137e057600080fd5b50565b6137ec816136ef565b81146137f757600080fd5b5056fe455243313135353a206275726e20616d6f756e7420657863656564732062616c616e6365536166654d6174683a206d756c7469706c69636174696f6e206f766572666c6f77a2646970667358221220f6e24f9071d4942cc7b73b6fe5d4e209e3fb5ed98d77c0f1eb41bbe8a2db9d9364736f6c63430007060033",
  "linkReferences": {},
  "deployedLinkReferences": {}
}