{
  "_format": "hh-sol-artifact-1",
  "contractName": "BeamTokenFacet",
  "sourceName": "contracts/facets/BeamTokenFacet.sol",
  "abi": [
    {
      "anonymous": false,
      "inputs": [
        {
          "indexed": true,
          "internalType": "address",
          "name": "to",
          "type": "address"
        },
        {
          "indexed": true,
          "internalType": "address",
          "name": "from",
          "type": "address"
        },
        {
          "indexed": false,
          "internalType": "uint256",
          "name": "id",
          "type": "uint256"
        },
        {
          "indexed": false,
          "internalType": "uint256",
          "name": "tierId",
          "type": "uint256"
        },
        {
          "indexed": false,
          "internalType": "uint256",
          "name": "flowRate",
          "type": "uint256"
        },
        {
          "indexed": false,
          "internalType": "uint256",
          "name": "deposit",
          "type": "uint256"
        },
        {
          "indexed": false,
          "internalType": "uint256",
          "name": "timestamp",
          "type": "uint256"
        }
      ],
      "name": "BeamTransfer",
      "type": "event"
    },
    {
      "anonymous": false,
      "inputs": [
        {
          "indexed": true,
          "internalType": "address",
          "name": "account",
          "type": "address"
        },
        {
          "indexed": true,
          "internalType": "address",
          "name": "token",
          "type": "address"
        },
        {
          "indexed": false,
          "internalType": "int256",
          "name": "netFlow",
          "type": "int256"
        },
        {
          "indexed": false,
          "internalType": "uint256",
          "name": "netDeposit",
          "type": "uint256"
        },
        {
          "indexed": false,
          "internalType": "uint256",
          "name": "timestamp",
          "type": "uint256"
        }
      ],
      "name": "FlowUpdated",
      "type": "event"
    },
    {
      "inputs": [
        {
          "internalType": "uint256",
          "name": "id",
          "type": "uint256"
        }
      ],
      "name": "getBeamToken",
      "outputs": [
        {
          "components": [
            {
              "internalType": "address",
              "name": "to",
              "type": "address"
            },
            {
              "internalType": "address",
              "name": "from",
              "type": "address"
            },
            {
              "internalType": "uint256",
              "name": "flowRate",
              "type": "uint256"
            },
            {
              "internalType": "uint256",
              "name": "deposit",
              "type": "uint256"
            },
            {
              "internalType": "uint256",
              "name": "mintStamp",
              "type": "uint256"
            },
            {
              "internalType": "contract IQtoken",
              "name": "paymentToken",
              "type": "address"
            }
          ],
          "internalType": "struct BeamToken",
          "name": "",
          "type": "tuple"
        }
      ],
      "stateMutability": "view",
      "type": "function"
    },
    {
      "inputs": [
        {
          "internalType": "uint256",
          "name": "id_",
          "type": "uint256"
        }
      ],
      "name": "getTierIdFromBeamToken",
      "outputs": [
        {
          "internalType": "uint256",
          "name": "id",
          "type": "uint256"
        }
      ],
      "stateMutability": "pure",
      "type": "function"
    },
    {
      "inputs": [
        {
          "internalType": "address",
          "name": "user",
          "type": "address"
        }
      ],
      "name": "getUserBeams",
      "outputs": [
        {
          "components": [
            {
              "internalType": "address",
              "name": "to",
              "type": "address"
            },
            {
              "internalType": "address",
              "name": "from",
              "type": "address"
            },
            {
              "internalType": "uint256",
              "name": "flowRate",
              "type": "uint256"
            },
            {
              "internalType": "uint256",
              "name": "deposit",
              "type": "uint256"
            },
            {
              "internalType": "uint256",
              "name": "mintStamp",
              "type": "uint256"
            },
            {
              "internalType": "contract IQtoken",
              "name": "paymentToken",
              "type": "address"
            }
          ],
          "internalType": "struct BeamToken[]",
          "name": "",
          "type": "tuple[]"
        }
      ],
      "stateMutability": "view",
      "type": "function"
    },
    {
      "inputs": [
        {
          "internalType": "uint256",
          "name": "id_",
          "type": "uint256"
        }
      ],
      "name": "liquidateBeam",
      "outputs": [],
      "stateMutability": "nonpayable",
      "type": "function"
    },
    {
      "inputs": [
        {
          "internalType": "address",
          "name": "subscriber",
          "type": "address"
        },
        {
          "internalType": "uint256",
          "name": "id",
          "type": "uint256"
        },
        {
          "internalType": "uint8",
          "name": "v",
          "type": "uint8"
        },
        {
          "internalType": "bytes32",
          "name": "r",
          "type": "bytes32"
        },
        {
          "internalType": "bytes32",
          "name": "s",
          "type": "bytes32"
        }
      ],
      "name": "mintBeam",
      "outputs": [],
      "stateMutability": "nonpayable",
      "type": "function"
    },
    {
      "inputs": [
        {
          "internalType": "contract IQtoken",
          "name": "token",
          "type": "address"
        },
        {
          "internalType": "address",
          "name": "account",
          "type": "address"
        },
        {
          "internalType": "uint256",
          "name": "timestamp",
          "type": "uint256"
        }
      ],
      "name": "realtimeBalanceOf",
      "outputs": [
        {
          "internalType": "int256",
          "name": "dynamicBal",
          "type": "int256"
        },
        {
          "internalType": "uint256",
          "name": "deposit",
          "type": "uint256"
        }
      ],
      "stateMutability": "view",
      "type": "function"
    },
    {
      "inputs": [
        {
          "internalType": "contract IQtoken",
          "name": "token",
          "type": "address"
        },
        {
          "internalType": "address",
          "name": "account",
          "type": "address"
        }
      ],
      "name": "reatimeBalanceNow",
      "outputs": [
        {
          "internalType": "int256",
          "name": "dynamicBal",
          "type": "int256"
        },
        {
          "internalType": "uint256",
          "name": "deposit",
          "type": "uint256"
        }
      ],
      "stateMutability": "view",
      "type": "function"
    },
    {
      "inputs": [
        {
          "internalType": "address",
          "name": "subscriber",
          "type": "address"
        },
        {
          "internalType": "uint256",
          "name": "id_",
          "type": "uint256"
        },
        {
          "internalType": "uint8",
          "name": "v",
          "type": "uint8"
        },
        {
          "internalType": "bytes32",
          "name": "r",
          "type": "bytes32"
        },
        {
          "internalType": "bytes32",
          "name": "s",
          "type": "bytes32"
        }
      ],
      "name": "unSubscribe",
      "outputs": [],
      "stateMutability": "nonpayable",
      "type": "function"
    }
  ],
  "bytecode": "0x608060405234801561001057600080fd5b506134d3806100206000396000f3fe608060405234801561001057600080fd5b50600436106100885760003560e01c80639b2e48bc1161005b5780639b2e48bc14610139578063b166acd11461016a578063b356115c14610186578063bd1ada50146101a257610088565b8063125f21dc1461008d57806377bdc8f3146100bd5780637934714b146100ed57806385d4474014610109575b600080fd5b6100a760048036038101906100a29190612599565b6101d3565b6040516100b49190612e1f565b60405180910390f35b6100d760048036038101906100d29190612752565b6101da565b6040516100e49190613086565b60405180910390f35b610107600480360381019061010291906125c2565b6102f7565b005b610123600480360381019061011e9190612752565b610b93565b604051610130919061306b565b60405180910390f35b610153600480360381019061014e91906126c7565b610bcf565b604051610161929190612ecb565b60405180910390f35b610184600480360381019061017f91906125c2565b610d92565b005b6101a0600480360381019061019b9190612752565b61129e565b005b6101bc60048036038101906101b7919061268b565b6113de565b6040516101ca929190612ecb565b60405180910390f35b6060919050565b6000807f8000000000000000000000000000000000000000000000000000000000000000831614610240576040517f08c379a00000000000000000000000000000000000000000000000000000000081526004016102379061300b565b60405180910390fd5b60007fffffffffffffffffffffffffffffffffffffffffffffffffffffffffffffffff6fffffffffffffffffffffffffffffffff168316116102b7576040517f08c379a00000000000000000000000000000000000000000000000000000000081526004016102ae9061302b565b60405180910390fd5b60807fffffffffffffffffffffffffffffffffffffffffffffffffffffffffffffffff6fffffffffffffffffffffffffffffffff16901b82169050919050565b60007f800000000000000000000000000000000000000000000000000000000000000085161461035c576040517f08c379a00000000000000000000000000000000000000000000000000000000081526004016103539061300b565b60405180910390fd5b60007fffffffffffffffffffffffffffffffffffffffffffffffffffffffffffffffff6fffffffffffffffffffffffffffffffff168516146103d3576040517f08c379a00000000000000000000000000000000000000000000000000000000081526004016103ca9061302b565b60405180910390fd5b60008060000160008681526020019081526020016000206040518060a00160405290816000820160009054906101000a900473ffffffffffffffffffffffffffffffffffffffff1673ffffffffffffffffffffffffffffffffffffffff1673ffffffffffffffffffffffffffffffffffffffff1681526020016001820160009054906101000a900473ffffffffffffffffffffffffffffffffffffffff1673ffffffffffffffffffffffffffffffffffffffff1673ffffffffffffffffffffffffffffffffffffffff16815260200160028201548152602001600382015481526020016004820154815250509050600073ffffffffffffffffffffffffffffffffffffffff16816000015173ffffffffffffffffffffffffffffffffffffffff161415610535576040517f08c379a000000000000000000000000000000000000000000000000000000000815260040161052c90612fcb565b60405180910390fd5b610577866040518060400160405280600981526020017f73756273637269626500000000000000000000000000000000000000000000008152508686866113f7565b600081606001518617905060006105a06000600b0154846040015161161490919063ffffffff16565b905060006040518060c00160405280856000015173ffffffffffffffffffffffffffffffffffffffff1681526020018a73ffffffffffffffffffffffffffffffffffffffff16815260200185604001518152602001838152602001428152602001856020015173ffffffffffffffffffffffffffffffffffffffff168152509050806000600101600085815260200190815260200160002060008201518160000160006101000a81548173ffffffffffffffffffffffffffffffffffffffff021916908373ffffffffffffffffffffffffffffffffffffffff16021790555060208201518160010160006101000a81548173ffffffffffffffffffffffffffffffffffffffff021916908373ffffffffffffffffffffffffffffffffffffffff16021790555060408201518160020155606082015181600301556080820151816004015560a08201518160050160006101000a81548173ffffffffffffffffffffffffffffffffffffffff021916908373ffffffffffffffffffffffffffffffffffffffff16021790555090505061074f84602001518560000151610748876040015161169a565b600061171c565b61078684602001518a610778610768886040015161169a565b6000611a1190919063ffffffff16565b6107818661169a565b61171c565b6107968460000151896001611a9f565b6107b28984600160405180602001604052806000815250611c82565b6107de60016000800160008b815260200190815260200160002060030154611e5b90919063ffffffff16565b6000800160008a81526020019081526020016000206003018190555061082660016000800160008b815260200190815260200160002060040154611e5b90919063ffffffff16565b6000800160008a81526020019081526020016000206004018190555060006002016000856000015173ffffffffffffffffffffffffffffffffffffffff1673ffffffffffffffffffffffffffffffffffffffff16815260200190815260200160002081908060018154018082558091505060019003906000526020600020906006020160009091909190915060008201518160000160006101000a81548173ffffffffffffffffffffffffffffffffffffffff021916908373ffffffffffffffffffffffffffffffffffffffff16021790555060208201518160010160006101000a81548173ffffffffffffffffffffffffffffffffffffffff021916908373ffffffffffffffffffffffffffffffffffffffff16021790555060408201518160020155606082015181600301556080820151816004015560a08201518160050160006101000a81548173ffffffffffffffffffffffffffffffffffffffff021916908373ffffffffffffffffffffffffffffffffffffffff1602179055505050600060020160008a73ffffffffffffffffffffffffffffffffffffffff1673ffffffffffffffffffffffffffffffffffffffff16815260200190815260200160002081908060018154018082558091505060019003906000526020600020906006020160009091909190915060008201518160000160006101000a81548173ffffffffffffffffffffffffffffffffffffffff021916908373ffffffffffffffffffffffffffffffffffffffff16021790555060208201518160010160006101000a81548173ffffffffffffffffffffffffffffffffffffffff021916908373ffffffffffffffffffffffffffffffffffffffff16021790555060408201518160020155606082015181600301556080820151816004015560a08201518160050160006101000a81548173ffffffffffffffffffffffffffffffffffffffff021916908373ffffffffffffffffffffffffffffffffffffffff1602179055505050610b1684602001518a611ee3565b600073ffffffffffffffffffffffffffffffffffffffff168973ffffffffffffffffffffffffffffffffffffffff167fa0860c2624a5d5a93938848cb689f8eece9045550d625fcb02cb6239f3296fd0858b88604001518742604051610b8095949392919061311d565b60405180910390a3505050505050505050565b610b9b612464565b610ba3612464565b600060010160008481526020019081526020016000206004015481608001818152505080915050919050565b600080610d03600060060160008773ffffffffffffffffffffffffffffffffffffffff1673ffffffffffffffffffffffffffffffffffffffff16815260200190815260200160002060008673ffffffffffffffffffffffffffffffffffffffff1673ffffffffffffffffffffffffffffffffffffffff16815260200190815260200160002060000154610cf5610cf0600060060160008a73ffffffffffffffffffffffffffffffffffffffff1673ffffffffffffffffffffffffffffffffffffffff16815260200190815260200160002060008973ffffffffffffffffffffffffffffffffffffffff1673ffffffffffffffffffffffffffffffffffffffff1681526020019081526020016000206002015487611fbb90919063ffffffff16565b61169a565b61200590919063ffffffff16565b9150600060060160008673ffffffffffffffffffffffffffffffffffffffff1673ffffffffffffffffffffffffffffffffffffffff16815260200190815260200160002060008573ffffffffffffffffffffffffffffffffffffffff1673ffffffffffffffffffffffffffffffffffffffff168152602001908152602001600020600101549050935093915050565b60007f8000000000000000000000000000000000000000000000000000000000000000851614610df7576040517f08c379a0000000000000000000000000000000000000000000000000000000008152600401610dee9061300b565b60405180910390fd5b60007fffffffffffffffffffffffffffffffffffffffffffffffffffffffffffffffff6fffffffffffffffffffffffffffffffff16851611610e6e576040517f08c379a0000000000000000000000000000000000000000000000000000000008152600401610e659061302b565b60405180910390fd5b6000610e7861212f565b9050600081600001600087815260200190815260200160002060008873ffffffffffffffffffffffffffffffffffffffff1673ffffffffffffffffffffffffffffffffffffffff1681526020019081526020016000205411610f0f576040517f08c379a0000000000000000000000000000000000000000000000000000000008152600401610f0690612f6b565b60405180910390fd5b610f51866040518060400160405280600b81526020017f756e7375627363726962650000000000000000000000000000000000000000008152508686866113f7565b610f5d86866001611a9f565b610fea6000600101600087815260200190815260200160002060000160009054906101000a900473ffffffffffffffffffffffffffffffffffffffff1660807fffffffffffffffffffffffffffffffffffffffffffffffffffffffffffffffff6fffffffffffffffffffffffffffffffff16901b8716600160405180602001604052806000815250611c82565b61104e600160008001600060807fffffffffffffffffffffffffffffffffffffffffffffffffffffffffffffffff6fffffffffffffffffffffffffffffffff16901b8916815260200190815260200160002060040154611e5b90919063ffffffff16565b60008001600060807fffffffffffffffffffffffffffffffffffffffffffffffffffffffffffffffff6fffffffffffffffffffffffffffffffff16901b88168152602001908152602001600020600401819055506111556000600101600087815260200190815260200160002060050160009054906101000a900473ffffffffffffffffffffffffffffffffffffffff166000600101600088815260200190815260200160002060000160009054906101000a900473ffffffffffffffffffffffffffffffffffffffff1661114e61113e600060010160008b81526020019081526020016000206002015461169a565b6000611a1190919063ffffffff16565b600061171c565b6111ef6000600101600087815260200190815260200160002060050160009054906101000a900473ffffffffffffffffffffffffffffffffffffffff16876111b5600060010160008a81526020019081526020016000206002015461169a565b6111ea6111da600060010160008c81526020019081526020016000206003015461169a565b6000611a1190919063ffffffff16565b61171c565b8573ffffffffffffffffffffffffffffffffffffffff16600073ffffffffffffffffffffffffffffffffffffffff167fa0860c2624a5d5a93938848cb689f8eece9045550d625fcb02cb6239f3296fd08760807fffffffffffffffffffffffffffffffffffffffffffffffffffffffffffffffff6fffffffffffffffffffffffffffffffff16901b89166000804260405161128e9594939291906130ca565b60405180910390a3505050505050565b6000600101600082815260200190815260200160002060050160009054906101000a900473ffffffffffffffffffffffffffffffffffffffff1673ffffffffffffffffffffffffffffffffffffffff1663e165f1ae6000600101600084815260200190815260200160002060010160009054906101000a900473ffffffffffffffffffffffffffffffffffffffff16426040518363ffffffff1660e01b815260040161134b929190612df6565b60206040518083038186803b15801561136357600080fd5b505afa158015611377573d6000803e3d6000fd5b505050506040513d601f19601f8201168201806040525081019061139b9190612639565b156113db576040517f08c379a00000000000000000000000000000000000000000000000000000000081526004016113d290612fab565b60405180910390fd5b50565b6000806113ec848442610bcf565b915091509250929050565b600061140161212f565b9050600081600301548260040154888460020160008b73ffffffffffffffffffffffffffffffffffffffff1673ffffffffffffffffffffffffffffffffffffffff1681526020019081526020016000206000015489805190602001206040516020016114709493929190612e41565b60405160208183030381529060405280519060200120604051602001611497929190612d3c565b604051602081830303815290604052805190602001209050600181868686604051600081526020016040526040516114d29493929190612e86565b6020604051602081039080840390855afa1580156114f4573d6000803e3d6000fd5b5050506020604051035173ffffffffffffffffffffffffffffffffffffffff168773ffffffffffffffffffffffffffffffffffffffff161461156b576040517f08c379a000000000000000000000000000000000000000000000000000000000815260040161156290612f4b565b60405180910390fd5b6115c360018360020160008a73ffffffffffffffffffffffffffffffffffffffff1673ffffffffffffffffffffffffffffffffffffffff16815260200190815260200160002060000154611e5b90919063ffffffff16565b8260020160008973ffffffffffffffffffffffffffffffffffffffff1673ffffffffffffffffffffffffffffffffffffffff1681526020019081526020016000206000018190555050505050505050565b6000808314156116275760009050611694565b600082840290508284828161163857fe5b041461168f576040517f08c379a000000000000000000000000000000000000000000000000000000000815260040180806020018281038252602181526020018061340a6021913960400191505060405180910390fd5b809150505b92915050565b60007f80000000000000000000000000000000000000000000000000000000000000008210611714576040517f08c379a00000000000000000000000000000000000000000000000000000000081526004018080602001828103825260288152602001806134526028913960400191505060405180910390fd5b819050919050565b60008060060160008673ffffffffffffffffffffffffffffffffffffffff1673ffffffffffffffffffffffffffffffffffffffff16815260200190815260200160002060008573ffffffffffffffffffffffffffffffffffffffff1673ffffffffffffffffffffffffffffffffffffffff1681526020019081526020016000206040518060600160405290816000820154815260200160018201548152602001600282015481525050905060006117fe82600001516117f06117eb856040015142611fbb90919063ffffffff16565b61169a565b61200590919063ffffffff16565b90508573ffffffffffffffffffffffffffffffffffffffff1663cf97256d86836040518363ffffffff1660e01b815260040161183b929190612dcd565b600060405180830381600087803b15801561185557600080fd5b505af1158015611869573d6000803e3d6000fd5b50505050604051806060016040528061188f86856000015161215c90919063ffffffff16565b81526020016118bb6118b6866118a8876020015161169a565b61215c90919063ffffffff16565b6121ea565b815260200142815250600060060160008873ffffffffffffffffffffffffffffffffffffffff1673ffffffffffffffffffffffffffffffffffffffff16815260200190815260200160002060008773ffffffffffffffffffffffffffffffffffffffff1673ffffffffffffffffffffffffffffffffffffffff1681526020019081526020016000206000820151816000015560208201518160010155604082015181600201559050508573ffffffffffffffffffffffffffffffffffffffff168573ffffffffffffffffffffffffffffffffffffffff167f85fcb97745a6119f2f31b68364801c574ea0a30f3d063724c9d285e78be644dd6119ca87866000015161215c90919063ffffffff16565b6119f16119ec886119de896020015161169a565b61215c90919063ffffffff16565b6121ea565b42604051611a0193929190612ef4565b60405180910390a3505050505050565b600080828403905060008312158015611a2a5750838113155b80611a405750600083128015611a3f57508381135b5b611a95576040517f08c379a000000000000000000000000000000000000000000000000000000000815260040180806020018281038252602481526020018061347a6024913960400191505060405180910390fd5b8091505092915050565b600073ffffffffffffffffffffffffffffffffffffffff168373ffffffffffffffffffffffffffffffffffffffff161415611b0f576040517f08c379a0000000000000000000000000000000000000000000000000000000008152600401611b0690612feb565b60405180910390fd5b6000611b1961226a565b90506000611b2561212f565b9050611ba6836040518060600160405280602481526020016133c56024913983600001600088815260200190815260200160002060008973ffffffffffffffffffffffffffffffffffffffff1673ffffffffffffffffffffffffffffffffffffffff168152602001908152602001600020546122729092919063ffffffff16565b81600001600086815260200190815260200160002060008773ffffffffffffffffffffffffffffffffffffffff1673ffffffffffffffffffffffffffffffffffffffff16815260200190815260200160002081905550600073ffffffffffffffffffffffffffffffffffffffff168573ffffffffffffffffffffffffffffffffffffffff168373ffffffffffffffffffffffffffffffffffffffff167fc3d58168c5ae7397731d063d5bbf3d657854427343f4c083240f7aacaa2d0f628787604051611c739291906130a1565b60405180910390a45050505050565b600073ffffffffffffffffffffffffffffffffffffffff168473ffffffffffffffffffffffffffffffffffffffff161415611cf2576040517f08c379a0000000000000000000000000000000000000000000000000000000008152600401611ce99061304b565b60405180910390fd5b6000611cfc61226a565b90506000611d0861212f565b9050611d6f8482600001600088815260200190815260200160002060008973ffffffffffffffffffffffffffffffffffffffff1673ffffffffffffffffffffffffffffffffffffffff16815260200190815260200160002054611e5b90919063ffffffff16565b81600001600087815260200190815260200160002060008873ffffffffffffffffffffffffffffffffffffffff1673ffffffffffffffffffffffffffffffffffffffff168152602001908152602001600020819055508573ffffffffffffffffffffffffffffffffffffffff16600073ffffffffffffffffffffffffffffffffffffffff168373ffffffffffffffffffffffffffffffffffffffff167fc3d58168c5ae7397731d063d5bbf3d657854427343f4c083240f7aacaa2d0f628888604051611e3c9291906130a1565b60405180910390a4611e5382600088888888612332565b505050505050565b600080828401905083811015611ed9576040517f08c379a000000000000000000000000000000000000000000000000000000000815260040180806020018281038252601b8152602001807f536166654d6174683a206164646974696f6e206f766572666c6f77000000000081525060200191505060405180910390fd5b8091505092915050565b60008273ffffffffffffffffffffffffffffffffffffffff1663eb3537cc83426040518363ffffffff1660e01b8152600401611f20929190612df6565b604080518083038186803b158015611f3757600080fd5b505afa158015611f4b573d6000803e3d6000fd5b505050506040513d601f19601f82011682018060405250810190611f6f9190612716565b5090506000811215611fb6576040517f08c379a0000000000000000000000000000000000000000000000000000000008152600401611fad90612f8b565b60405180910390fd5b505050565b6000611ffd83836040518060400160405280601e81526020017f536166654d6174683a207375627472616374696f6e206f766572666c6f770000815250612272565b905092915050565b6000808314156120185760009050612129565b7fffffffffffffffffffffffffffffffffffffffffffffffffffffffffffffffff8314801561206657507f800000000000000000000000000000000000000000000000000000000000000082145b156120bc576040517f08c379a000000000000000000000000000000000000000000000000000000000815260040180806020018281038252602781526020018061342b6027913960400191505060405180910390fd5b60008284029050828482816120cd57fe5b0514612124576040517f08c379a000000000000000000000000000000000000000000000000000000000815260040180806020018281038252602781526020018061342b6027913960400191505060405180910390fd5b809150505b92915050565b6000807fd1fd1ec9eb6f457e5e32da0d2921ff6daf7fd2085ec060a076b391ca2400b28290508091505090565b6000808284019050600083121580156121755750838112155b8061218b575060008312801561218a57508381125b5b6121e0576040517f08c379a00000000000000000000000000000000000000000000000000000000081526004018080602001828103825260218152602001806133e96021913960400191505060405180910390fd5b8091505092915050565b600080821215612262576040517f08c379a00000000000000000000000000000000000000000000000000000000081526004018080602001828103825260208152602001807f53616665436173743a2076616c7565206d75737420626520706f73697469766581525060200191505060405180910390fd5b819050919050565b600033905090565b600083831115829061231f576040517f08c379a00000000000000000000000000000000000000000000000000000000081526004018080602001828103825283818151815260200191508051906020019080838360005b838110156122e45780820151818401526020810190506122c9565b50505050905090810190601f1680156123115780820380516001836020036101000a031916815260200191505b509250505060405180910390fd5b5060008385039050809150509392505050565b6000843b9050600081111561245b578473ffffffffffffffffffffffffffffffffffffffff1663f23a6e6188888787876040518663ffffffff1660e01b8152600401612382959493929190612d73565b602060405180830381600087803b15801561239c57600080fd5b505af11580156123b0573d6000803e3d6000fd5b505050506040513d601f19601f820116820180604052508101906123d49190612662565b7bffffffffffffffffffffffffffffffffffffffffffffffffffffffff191663f23a6e6160e01b7bffffffffffffffffffffffffffffffffffffffffffffffffffffffff19161461245a576040517f08c379a000000000000000000000000000000000000000000000000000000000815260040161245190612f2b565b60405180910390fd5b5b50505050505050565b6040518060c00160405280600073ffffffffffffffffffffffffffffffffffffffff168152602001600073ffffffffffffffffffffffffffffffffffffffff168152602001600081526020016000815260200160008152602001600073ffffffffffffffffffffffffffffffffffffffff1681525090565b6000813590506124eb8161330c565b92915050565b60008151905061250081613323565b92915050565b6000813590506125158161333a565b92915050565b60008151905061252a81613351565b92915050565b60008135905061253f81613368565b92915050565b6000815190506125548161337f565b92915050565b60008135905061256981613396565b92915050565b60008151905061257e81613396565b92915050565b600081359050612593816133ad565b92915050565b6000602082840312156125ab57600080fd5b60006125b9848285016124dc565b91505092915050565b600080600080600060a086880312156125da57600080fd5b60006125e8888289016124dc565b95505060206125f98882890161255a565b945050604061260a88828901612584565b935050606061261b88828901612506565b925050608061262c88828901612506565b9150509295509295909350565b60006020828403121561264b57600080fd5b6000612659848285016124f1565b91505092915050565b60006020828403121561267457600080fd5b60006126828482850161251b565b91505092915050565b6000806040838503121561269e57600080fd5b60006126ac85828601612530565b92505060206126bd858286016124dc565b9150509250929050565b6000806000606084860312156126dc57600080fd5b60006126ea86828701612530565b93505060206126fb868287016124dc565b925050604061270c8682870161255a565b9150509250925092565b6000806040838503121561272957600080fd5b600061273785828601612545565b92505060206127488582860161256f565b9150509250929050565b60006020828403121561276457600080fd5b60006127728482850161255a565b91505092915050565b60006127878383612c19565b60c08301905092915050565b61279c816131e1565b82525050565b6127ab816131e1565b82525050565b60006127bc82613180565b6127c681856131a3565b93506127d183613170565b8060005b838110156128025781516127e9888261277b565b97506127f483613196565b9250506001810190506127d5565b5085935050505092915050565b612818816131ff565b82525050565b61282f61282a826131ff565b6132f1565b82525050565b60006128408261318b565b61284a81856131b4565b935061285a8185602086016132be565b612863816132fb565b840191505092915050565b61287781613288565b82525050565b61288681613247565b82525050565b612895816132ac565b82525050565b60006128a86034836131c5565b91507f455243313135353a207472616e7366657220746f206e6f6e204552433131353560008301527f526563656976657220696d706c656d656e7465720000000000000000000000006020830152604082019050919050565b600061290e6015836131c5565b91507f5175616c6c612f696e76616c69642d7065726d697400000000000000000000006000830152602082019050919050565b600061294e6019836131c5565b91507f5175616c6c612f496e76616c69642d53756273637269626572000000000000006000830152602082019050919050565b600061298e6022836131c5565b91507f5175616c6c612f496e73756666696369656e742d7265616c74696d652d66756e60008301527f64730000000000000000000000000000000000000000000000000000000000006020830152604082019050919050565b60006129f46002836131d6565b91507f19010000000000000000000000000000000000000000000000000000000000006000830152600282019050919050565b6000612a346012836131c5565b91507f5175616c6c612f4c69717569642d4265616d00000000000000000000000000006000830152602082019050919050565b6000612a746017836131c5565b91507f5175616c6c612f496e76616c69642d546f6b656e2d49640000000000000000006000830152602082019050919050565b6000612ab46023836131c5565b91507f455243313135353a206275726e2066726f6d20746865207a65726f206164647260008301527f65737300000000000000000000000000000000000000000000000000000000006020830152604082019050919050565b6000612b1a6017836131c5565b91507f5175616c6c612f57726f6e672d546f6b656e2d547970650000000000000000006000830152602082019050919050565b6000612b5a6021836131c5565b91507f5175616c6c612f496e76616c69642d537562736372697074696f6e2d496e646560008301527f78000000000000000000000000000000000000000000000000000000000000006020830152604082019050919050565b6000612bc06021836131c5565b91507f455243313135353a206d696e7420746f20746865207a65726f2061646472657360008301527f73000000000000000000000000000000000000000000000000000000000000006020830152604082019050919050565b60c082016000820151612c2f6000850182612793565b506020820151612c426020850182612793565b506040820151612c556040850182612d0f565b506060820151612c686060850182612d0f565b506080820151612c7b6080850182612d0f565b5060a0820151612c8e60a085018261286e565b50505050565b60c082016000820151612caa6000850182612793565b506020820151612cbd6020850182612793565b506040820151612cd06040850182612d0f565b506060820151612ce36060850182612d0f565b506080820151612cf66080850182612d0f565b5060a0820151612d0960a085018261286e565b50505050565b612d1881613271565b82525050565b612d2781613271565b82525050565b612d368161327b565b82525050565b6000612d47826129e7565b9150612d53828561281e565b602082019150612d63828461281e565b6020820191508190509392505050565b600060a082019050612d8860008301886127a2565b612d9560208301876127a2565b612da26040830186612d1e565b612daf6060830185612d1e565b8181036080830152612dc18184612835565b90509695505050505050565b6000604082019050612de260008301856127a2565b612def602083018461287d565b9392505050565b6000604082019050612e0b60008301856127a2565b612e186020830184612d1e565b9392505050565b60006020820190508181036000830152612e3981846127b1565b905092915050565b6000608082019050612e56600083018761280f565b612e6360208301866127a2565b612e706040830185612d1e565b612e7d606083018461280f565b95945050505050565b6000608082019050612e9b600083018761280f565b612ea86020830186612d2d565b612eb5604083018561280f565b612ec2606083018461280f565b95945050505050565b6000604082019050612ee0600083018561287d565b612eed6020830184612d1e565b9392505050565b6000606082019050612f09600083018661287d565b612f166020830185612d1e565b612f236040830184612d1e565b949350505050565b60006020820190508181036000830152612f448161289b565b9050919050565b60006020820190508181036000830152612f6481612901565b9050919050565b60006020820190508181036000830152612f8481612941565b9050919050565b60006020820190508181036000830152612fa481612981565b9050919050565b60006020820190508181036000830152612fc481612a27565b9050919050565b60006020820190508181036000830152612fe481612a67565b9050919050565b6000602082019050818103600083015261300481612aa7565b9050919050565b6000602082019050818103600083015261302481612b0d565b9050919050565b6000602082019050818103600083015261304481612b4d565b9050919050565b6000602082019050818103600083015261306481612bb3565b9050919050565b600060c0820190506130806000830184612c94565b92915050565b600060208201905061309b6000830184612d1e565b92915050565b60006040820190506130b66000830185612d1e565b6130c36020830184612d1e565b9392505050565b600060a0820190506130df6000830188612d1e565b6130ec6020830187612d1e565b6130f9604083018661288c565b613106606083018561288c565b6131136080830184612d1e565b9695505050505050565b600060a0820190506131326000830188612d1e565b61313f6020830187612d1e565b61314c6040830186612d1e565b6131596060830185612d1e565b6131666080830184612d1e565b9695505050505050565b6000819050602082019050919050565b600081519050919050565b600081519050919050565b6000602082019050919050565b600082825260208201905092915050565b600082825260208201905092915050565b600082825260208201905092915050565b600081905092915050565b60006131ec82613251565b9050919050565b60008115159050919050565b6000819050919050565b60007fffffffff0000000000000000000000000000000000000000000000000000000082169050919050565b6000613240826131e1565b9050919050565b6000819050919050565b600073ffffffffffffffffffffffffffffffffffffffff82169050919050565b6000819050919050565b600060ff82169050919050565b60006132938261329a565b9050919050565b60006132a582613251565b9050919050565b60006132b782613271565b9050919050565b60005b838110156132dc5780820151818401526020810190506132c1565b838111156132eb576000848401525b50505050565b6000819050919050565b6000601f19601f8301169050919050565b613315816131e1565b811461332057600080fd5b50565b61332c816131f3565b811461333757600080fd5b50565b613343816131ff565b811461334e57600080fd5b50565b61335a81613209565b811461336557600080fd5b50565b61337181613235565b811461337c57600080fd5b50565b61338881613247565b811461339357600080fd5b50565b61339f81613271565b81146133aa57600080fd5b50565b6133b68161327b565b81146133c157600080fd5b5056fe455243313135353a206275726e20616d6f756e7420657863656564732062616c616e63655369676e6564536166654d6174683a206164646974696f6e206f766572666c6f77536166654d6174683a206d756c7469706c69636174696f6e206f766572666c6f775369676e6564536166654d6174683a206d756c7469706c69636174696f6e206f766572666c6f7753616665436173743a2076616c756520646f65736e27742066697420696e20616e20696e743235365369676e6564536166654d6174683a207375627472616374696f6e206f766572666c6f77a26469706673582212209758aa26bd29be8de54b93f8150decaca90f0c1e302c54645f7dec12d3c2a27064736f6c63430007060033",
  "linkReferences": {},
  "deployedLinkReferences": {}
}