{
  "_format": "hh-sol-artifact-1",
  "contractName": "QuallaSubscriptionsFacet",
  "sourceName": "contracts/facets/QuallaSubscriptionFacet.sol",
  "abi": [
    {
      "inputs": [
        {
          "internalType": "uint256",
          "name": "id",
          "type": "uint256"
        },
        {
          "internalType": "uint256",
          "name": "amount",
          "type": "uint256"
        },
        {
          "internalType": "uint8",
          "name": "v",
          "type": "uint8"
        },
        {
          "internalType": "bytes32",
          "name": "r",
          "type": "bytes32"
        },
        {
          "internalType": "bytes32",
          "name": "s",
          "type": "bytes32"
        }
      ],
      "name": "burnSubscription",
      "outputs": [],
      "stateMutability": "nonpayable",
      "type": "function"
    },
    {
      "inputs": [
        {
          "internalType": "address",
          "name": "subscriber",
          "type": "address"
        },
        {
          "internalType": "uint256",
          "name": "id",
          "type": "uint256"
        },
        {
          "internalType": "uint8",
          "name": "v",
          "type": "uint8"
        },
        {
          "internalType": "bytes32",
          "name": "r",
          "type": "bytes32"
        },
        {
          "internalType": "bytes32",
          "name": "s",
          "type": "bytes32"
        }
      ],
      "name": "buySubscription",
      "outputs": [],
      "stateMutability": "nonpayable",
      "type": "function"
    },
    {
      "inputs": [
        {
          "internalType": "uint256",
          "name": "id_",
          "type": "uint256"
        },
        {
          "internalType": "address",
          "name": "subscriber",
          "type": "address"
        }
      ],
      "name": "executeSubscription",
      "outputs": [],
      "stateMutability": "nonpayable",
      "type": "function"
    },
    {
      "inputs": [
        {
          "internalType": "uint256",
          "name": "id_",
          "type": "uint256"
        }
      ],
      "name": "getBaseIdFromToken",
      "outputs": [
        {
          "internalType": "uint256",
          "name": "id",
          "type": "uint256"
        }
      ],
      "stateMutability": "pure",
      "type": "function"
    },
    {
      "inputs": [
        {
          "internalType": "uint256",
          "name": "id",
          "type": "uint256"
        }
      ],
      "name": "getBaseToken",
      "outputs": [
        {
          "components": [
            {
              "internalType": "address",
              "name": "creator",
              "type": "address"
            },
            {
              "internalType": "contract IERC20",
              "name": "paymentToken",
              "type": "address"
            },
            {
              "internalType": "uint256",
              "name": "paymentValue",
              "type": "uint256"
            },
            {
              "internalType": "uint256",
              "name": "nonce",
              "type": "uint256"
            }
          ],
          "internalType": "struct LibSubscriptions.BaseToken",
          "name": "",
          "type": "tuple"
        }
      ],
      "stateMutability": "view",
      "type": "function"
    },
    {
      "inputs": [
        {
          "internalType": "uint256",
          "name": "id",
          "type": "uint256"
        }
      ],
      "name": "getSubToken",
      "outputs": [
        {
          "components": [
            {
              "internalType": "uint256",
              "name": "nonce",
              "type": "uint256"
            },
            {
              "internalType": "uint256",
              "name": "nextWidthdraw",
              "type": "uint256"
            },
            {
              "internalType": "uint256",
              "name": "mintStamp",
              "type": "uint256"
            }
          ],
          "internalType": "struct LibSubscriptions.SubToken",
          "name": "",
          "type": "tuple"
        }
      ],
      "stateMutability": "view",
      "type": "function"
    },
    {
      "inputs": [
        {
          "internalType": "address",
          "name": "creator",
          "type": "address"
        },
        {
          "internalType": "uint256[]",
          "name": "amounts",
          "type": "uint256[]"
        },
        {
          "internalType": "address[]",
          "name": "paymentTokens",
          "type": "address[]"
        },
        {
          "internalType": "uint256[]",
          "name": "paymentValues",
          "type": "uint256[]"
        },
        {
          "internalType": "uint8",
          "name": "v",
          "type": "uint8"
        },
        {
          "internalType": "bytes32",
          "name": "r",
          "type": "bytes32"
        },
        {
          "internalType": "bytes32",
          "name": "s",
          "type": "bytes32"
        }
      ],
      "name": "mintBatchSubscription",
      "outputs": [],
      "stateMutability": "nonpayable",
      "type": "function"
    },
    {
      "inputs": [
        {
          "internalType": "address",
          "name": "creator",
          "type": "address"
        },
        {
          "internalType": "uint256",
          "name": "amount",
          "type": "uint256"
        },
        {
          "internalType": "address",
          "name": "paymentToken",
          "type": "address"
        },
        {
          "internalType": "uint256",
          "name": "paymentValue",
          "type": "uint256"
        },
        {
          "internalType": "uint8",
          "name": "v",
          "type": "uint8"
        },
        {
          "internalType": "bytes32",
          "name": "r",
          "type": "bytes32"
        },
        {
          "internalType": "bytes32",
          "name": "s",
          "type": "bytes32"
        }
      ],
      "name": "mintSubscription",
      "outputs": [],
      "stateMutability": "nonpayable",
      "type": "function"
    },
    {
      "inputs": [
        {
          "internalType": "address",
          "name": "subscriber",
          "type": "address"
        },
        {
          "internalType": "uint256",
          "name": "id_",
          "type": "uint256"
        },
        {
          "internalType": "uint8",
          "name": "v",
          "type": "uint8"
        },
        {
          "internalType": "bytes32",
          "name": "r",
          "type": "bytes32"
        },
        {
          "internalType": "bytes32",
          "name": "s",
          "type": "bytes32"
        }
      ],
      "name": "unSubscribe",
      "outputs": [],
      "stateMutability": "nonpayable",
      "type": "function"
    }
  ],
  "bytecode": "0x608060405234801561001057600080fd5b506139e8806100206000396000f3fe608060405234801561001057600080fd5b50600436106100935760003560e01c806395fbbf501161006657806395fbbf50146101305780639eb9abde1461014c578063b166acd114610168578063f73b43a814610184578063ffb651e0146101a057610093565b80633a9e6e44146100985780634f43da73146100b45780634fce9474146100e457806353e2717314610100575b600080fd5b6100b260048036038101906100ad91906129ab565b6101d0565b005b6100ce60048036038101906100c99190612b12565b6103b9565b6040516100db91906136b7565b60405180910390f35b6100fe60048036038101906100f991906128bd565b610445565b005b61011a60048036038101906101159190612b12565b6107a4565b60405161012791906136d2565b60405180910390f35b61014a60048036038101906101459190612ba0565b6108c1565b005b61016660048036038101906101619190612b64565b610a3c565b005b610182600480360381019061017d9190612a49565b611069565b005b61019e60048036038101906101999190612a49565b61126b565b005b6101ba60048036038101906101b59190612b12565b61176f565b6040516101c7919061369c565b60405180910390f35b610212876040518060400160405280600481526020017f6d696e74000000000000000000000000000000000000000000000000000000008152508585856118b9565b600061021c611ad6565b9050600087141561024b577fffffffffffffffffffffffffffffffffffffffffffffffffffffffffffffffff96505b6000608061026760018460040154611b0390919063ffffffff16565b901b905060405180608001604052808a73ffffffffffffffffffffffffffffffffffffffff1681526020018873ffffffffffffffffffffffffffffffffffffffff168152602001878152602001600181525082600001600083815260200190815260200160002060008201518160000160006101000a81548173ffffffffffffffffffffffffffffffffffffffff021916908373ffffffffffffffffffffffffffffffffffffffff16021790555060208201518160010160006101000a81548173ffffffffffffffffffffffffffffffffffffffff021916908373ffffffffffffffffffffffffffffffffffffffff160217905550604082015181600201556060820151816003015590505061038b60018360040154611b0390919063ffffffff16565b82600401819055506103ae89828a60405180602001604052806000815250611b8b565b505050505050505050565b6103c1612662565b60006103cb611ad6565b90506103d5612662565b8160010160008581526020019081526020016000206000015481600001818152505081600101600085815260200190815260200160002060010154816020018181525050816001016000858152602001908152602001600020600201548160400181815250508092505050919050565b8686905088511461048b576040517f08c379a00000000000000000000000000000000000000000000000000000000081526004016104829061357c565b60405180910390fd5b848490508851146104d1576040517f08c379a00000000000000000000000000000000000000000000000000000000081526004016104c8906135bc565b60405180910390fd5b610513896040518060400160405280600481526020017f6d696e74000000000000000000000000000000000000000000000000000000008152508585856118b9565b600061051d611ad6565b90506000895167ffffffffffffffff8111801561053957600080fd5b506040519080825280602002602001820160405280156105685781602001602082028036833780820191505090505b50905060005b8a5181101561077b5760008b828151811061058557fe5b602002602001015114156105cd577fffffffffffffffffffffffffffffffffffffffffffffffffffffffffffffffff8b82815181106105c057fe5b6020026020010181815250505b60806105e760018560040154611b0390919063ffffffff16565b901b8282815181106105f557fe5b60200260200101818152505060405180608001604052808d73ffffffffffffffffffffffffffffffffffffffff1681526020018b8b8481811061063457fe5b90506020020160208101906106499190612894565b73ffffffffffffffffffffffffffffffffffffffff16815260200189898481811061067057fe5b905060200201358152602001600181525083600001600084848151811061069357fe5b6020026020010151815260200190815260200160002060008201518160000160006101000a81548173ffffffffffffffffffffffffffffffffffffffff021916908373ffffffffffffffffffffffffffffffffffffffff16021790555060208201518160010160006101000a81548173ffffffffffffffffffffffffffffffffffffffff021916908373ffffffffffffffffffffffffffffffffffffffff160217905550604082015181600201556060820151816003015590505061076660018460040154611b0390919063ffffffff16565b8360040181905550808060010191505061056e565b506107978b828c60405180602001604052806000815250611d64565b5050505050505050505050565b6000807f800000000000000000000000000000000000000000000000000000000000000083161461080a576040517f08c379a00000000000000000000000000000000000000000000000000000000081526004016108019061363c565b60405180910390fd5b60007fffffffffffffffffffffffffffffffffffffffffffffffffffffffffffffffff6fffffffffffffffffffffffffffffffff16831611610881576040517f08c379a00000000000000000000000000000000000000000000000000000000081526004016108789061365c565b60405180910390fd5b60807fffffffffffffffffffffffffffffffffffffffffffffffffffffffffffffffff6fffffffffffffffffffffffffffffffff16901b82169050919050565b60007f8000000000000000000000000000000000000000000000000000000000000000861614610926576040517f08c379a000000000000000000000000000000000000000000000000000000000815260040161091d9061363c565b60405180910390fd5b60007fffffffffffffffffffffffffffffffffffffffffffffffffffffffffffffffff6fffffffffffffffffffffffffffffffff1686161461099d576040517f08c379a00000000000000000000000000000000000000000000000000000000081526004016109949061365c565b60405180910390fd5b60006109a7611ad6565b9050600081600001600088815260200190815260200160002060000160009054906101000a900473ffffffffffffffffffffffffffffffffffffffff169050610a28816040518060400160405280600481526020017f6275726e000000000000000000000000000000000000000000000000000000008152508787876118b9565b610a33818888611f90565b50505050505050565b60007f8000000000000000000000000000000000000000000000000000000000000000831614610aa1576040517f08c379a0000000000000000000000000000000000000000000000000000000008152600401610a989061363c565b60405180910390fd5b60007fffffffffffffffffffffffffffffffffffffffffffffffffffffffffffffffff6fffffffffffffffffffffffffffffffff16831611610b18576040517f08c379a0000000000000000000000000000000000000000000000000000000008152600401610b0f9061365c565b60405180910390fd5b6000610b22611ad6565b90506000610b2e612173565b9050600181600001600086815260200190815260200160002060008573ffffffffffffffffffffffffffffffffffffffff1673ffffffffffffffffffffffffffffffffffffffff1681526020019081526020016000205414610bc5576040517f08c379a0000000000000000000000000000000000000000000000000000000008152600401610bbc9061351c565b60405180910390fd5b428260010160008681526020019081526020016000206001015410610c1f576040517f08c379a0000000000000000000000000000000000000000000000000000000008152600401610c169061359c565b60405180910390fd5b600060807fffffffffffffffffffffffffffffffffffffffffffffffffffffffffffffffff6fffffffffffffffffffffffffffffffff16901b8516905060008360000160008381526020019081526020016000206040518060800160405290816000820160009054906101000a900473ffffffffffffffffffffffffffffffffffffffff1673ffffffffffffffffffffffffffffffffffffffff1673ffffffffffffffffffffffffffffffffffffffff1681526020016001820160009054906101000a900473ffffffffffffffffffffffffffffffffffffffff1673ffffffffffffffffffffffffffffffffffffffff1673ffffffffffffffffffffffffffffffffffffffff16815260200160028201548152602001600382015481525050905060048460010160008881526020019081526020016000206000015410610d9157610d6c85876001611f90565b610d8c816000015183600160405180602001604052806000815250611b8b565b610dda565b610dbd600185600101600089815260200190815260200160002060000154611b0390919063ffffffff16565b846001016000888152602001908152602001600020600001819055505b60008360050160009054906101000a900460ff1660640360ff1690508160400151826020015173ffffffffffffffffffffffffffffffffffffffff1663dd62ed3e88306040518363ffffffff1660e01b8152600401610e3a9291906132f9565b60206040518083038186803b158015610e5257600080fd5b505afa158015610e66573d6000803e3d6000fd5b505050506040513d601f19601f82011682018060405250810190610e8a9190612b3b565b1080610f2557508160400151826020015173ffffffffffffffffffffffffffffffffffffffff166370a08231886040518263ffffffff1660e01b8152600401610ed391906132de565b60206040518083038186803b158015610eeb57600080fd5b505afa158015610eff573d6000803e3d6000fd5b505050506040513d601f19601f82011682018060405250810190610f239190612b3b565b105b15610f5757610f3686886001611f90565b610f56826000015184600160405180602001604052806000815250611b8b565b5b816020015173ffffffffffffffffffffffffffffffffffffffff166323b872dd878460000151610fa76064610f998789604001516121a090919063ffffffff16565b61222690919063ffffffff16565b6040518463ffffffff1660e01b8152600401610fc59392919061338a565b602060405180830381600087803b158015610fdf57600080fd5b505af1158015610ff3573d6000803e3d6000fd5b505050506040513d601f19601f820116820180604052508101906110179190612ac0565b50611044600f8660010160008a815260200190815260200160002060010154611b0390919063ffffffff16565b8560010160008981526020019081526020016000206001018190555050505050505050565b60007f80000000000000000000000000000000000000000000000000000000000000008516146110ce576040517f08c379a00000000000000000000000000000000000000000000000000000000081526004016110c59061363c565b60405180910390fd5b60007fffffffffffffffffffffffffffffffffffffffffffffffffffffffffffffffff6fffffffffffffffffffffffffffffffff16851611611145576040517f08c379a000000000000000000000000000000000000000000000000000000000815260040161113c9061365c565b60405180910390fd5b611187856040518060400160405280600b81526020017f756e7375627363726962650000000000000000000000000000000000000000008152508585856118b9565b6000611191611ad6565b905061119f86866001611f90565b61126381600001600060807fffffffffffffffffffffffffffffffffffffffffffffffffffffffffffffffff6fffffffffffffffffffffffffffffffff16901b8816815260200190815260200160002060000160009054906101000a900473ffffffffffffffffffffffffffffffffffffffff1660807fffffffffffffffffffffffffffffffffffffffffffffffffffffffffffffffff6fffffffffffffffffffffffffffffffff16901b8716600160405180602001604052806000815250611b8b565b505050505050565b60007f80000000000000000000000000000000000000000000000000000000000000008516146112d0576040517f08c379a00000000000000000000000000000000000000000000000000000000081526004016112c79061363c565b60405180910390fd5b60007fffffffffffffffffffffffffffffffffffffffffffffffffffffffffffffffff6fffffffffffffffffffffffffffffffff16851614611347576040517f08c379a000000000000000000000000000000000000000000000000000000000815260040161133e9061365c565b60405180910390fd5b6000611351611ad6565b905060008160000160008781526020019081526020016000206040518060800160405290816000820160009054906101000a900473ffffffffffffffffffffffffffffffffffffffff1673ffffffffffffffffffffffffffffffffffffffff1673ffffffffffffffffffffffffffffffffffffffff1681526020016001820160009054906101000a900473ffffffffffffffffffffffffffffffffffffffff1673ffffffffffffffffffffffffffffffffffffffff1673ffffffffffffffffffffffffffffffffffffffff168152602001600282015481526020016003820154815250509050600073ffffffffffffffffffffffffffffffffffffffff16816000015173ffffffffffffffffffffffffffffffffffffffff1614156114ab576040517f08c379a00000000000000000000000000000000000000000000000000000000081526004016114a2906135fc565b60405180910390fd5b8060400151816020015173ffffffffffffffffffffffffffffffffffffffff166370a08231896040518263ffffffff1660e01b81526004016114ed91906132de565b60206040518083038186803b15801561150557600080fd5b505afa158015611519573d6000803e3d6000fd5b505050506040513d601f19601f8201168201806040525081019061153d9190612b3b565b1161157d576040517f08c379a0000000000000000000000000000000000000000000000000000000008152600401611574906135dc565b60405180910390fd5b8060400151816020015173ffffffffffffffffffffffffffffffffffffffff1663dd62ed3e89306040518363ffffffff1660e01b81526004016115c19291906132f9565b60206040518083038186803b1580156115d957600080fd5b505afa1580156115ed573d6000803e3d6000fd5b505050506040513d601f19601f820116820180604052508101906116119190612b3b565b11611651576040517f08c379a00000000000000000000000000000000000000000000000000000000081526004016116489061355c565b60405180910390fd5b611693876040518060400160405280600981526020017f73756273637269626500000000000000000000000000000000000000000000008152508787876118b9565b600081606001518717905060405180606001604052806000815260200160008152602001428152508360010160008381526020019081526020016000206000820151816000015560208201518160010155604082015181600201559050506117018260000151886001611f90565b61171d8882600160405180602001604052806000815250611b8b565b61174960018460000160008a815260200190815260200160002060030154611b0390919063ffffffff16565b836000016000898152602001908152602001600020600301819055505050505050505050565b611777612683565b6000611781611ad6565b905061178b612683565b81600001600085815260200190815260200160002060000160009054906101000a900473ffffffffffffffffffffffffffffffffffffffff16816000019073ffffffffffffffffffffffffffffffffffffffff16908173ffffffffffffffffffffffffffffffffffffffff168152505081600001600085815260200190815260200160002060010160009054906101000a900473ffffffffffffffffffffffffffffffffffffffff16816020019073ffffffffffffffffffffffffffffffffffffffff16908173ffffffffffffffffffffffffffffffffffffffff168152505081600001600085815260200190815260200160002060020154816040018181525050816000016000858152602001908152602001600020600301548160600181815250508092505050919050565b60006118c3612173565b9050600081600301548260040154888460020160008b73ffffffffffffffffffffffffffffffffffffffff1673ffffffffffffffffffffffffffffffffffffffff1681526020019081526020016000206000015489805190602001206040516020016119329493929190613452565b604051602081830303815290604052805190602001206040516020016119599291906132a7565b604051602081830303815290604052805190602001209050600181868686604051600081526020016040526040516119949493929190613497565b6020604051602081039080840390855afa1580156119b6573d6000803e3d6000fd5b5050506020604051035173ffffffffffffffffffffffffffffffffffffffff168773ffffffffffffffffffffffffffffffffffffffff1614611a2d576040517f08c379a0000000000000000000000000000000000000000000000000000000008152600401611a24906134fc565b60405180910390fd5b611a8560018360020160008a73ffffffffffffffffffffffffffffffffffffffff1673ffffffffffffffffffffffffffffffffffffffff16815260200190815260200160002060000154611b0390919063ffffffff16565b8260020160008973ffffffffffffffffffffffffffffffffffffffff1673ffffffffffffffffffffffffffffffffffffffff1681526020019081526020016000206000018190555050505050505050565b6000807f8011e08e256fd2a672b7720b7587378b9f27bfa5a95803a3cee7cf21a0a3def890508091505090565b600080828401905083811015611b81576040517f08c379a000000000000000000000000000000000000000000000000000000000815260040180806020018281038252601b8152602001807f536166654d6174683a206164646974696f6e206f766572666c6f77000000000081525060200191505060405180910390fd5b8091505092915050565b600073ffffffffffffffffffffffffffffffffffffffff168473ffffffffffffffffffffffffffffffffffffffff161415611bfb576040517f08c379a0000000000000000000000000000000000000000000000000000000008152600401611bf29061367c565b60405180910390fd5b6000611c05612270565b90506000611c11612173565b9050611c788482600001600088815260200190815260200160002060008973ffffffffffffffffffffffffffffffffffffffff1673ffffffffffffffffffffffffffffffffffffffff16815260200190815260200160002054611b0390919063ffffffff16565b81600001600087815260200190815260200160002060008873ffffffffffffffffffffffffffffffffffffffff1673ffffffffffffffffffffffffffffffffffffffff168152602001908152602001600020819055508573ffffffffffffffffffffffffffffffffffffffff16600073ffffffffffffffffffffffffffffffffffffffff168373ffffffffffffffffffffffffffffffffffffffff167fc3d58168c5ae7397731d063d5bbf3d657854427343f4c083240f7aacaa2d0f628888604051611d459291906136ed565b60405180910390a4611d5c82600088888888612278565b505050505050565b600073ffffffffffffffffffffffffffffffffffffffff168473ffffffffffffffffffffffffffffffffffffffff161415611dd4576040517f08c379a0000000000000000000000000000000000000000000000000000000008152600401611dcb9061367c565b60405180910390fd5b6000611dde612270565b90506000611dea612173565b905060005b8551811015611ef957611e83826000016000888481518110611e0d57fe5b6020026020010151815260200190815260200160002060008973ffffffffffffffffffffffffffffffffffffffff1673ffffffffffffffffffffffffffffffffffffffff16815260200190815260200160002054868381518110611e6d57fe5b6020026020010151611b0390919063ffffffff16565b826000016000888481518110611e9557fe5b6020026020010151815260200190815260200160002060008973ffffffffffffffffffffffffffffffffffffffff1673ffffffffffffffffffffffffffffffffffffffff168152602001908152602001600020819055508080600101915050611def565b508573ffffffffffffffffffffffffffffffffffffffff16600073ffffffffffffffffffffffffffffffffffffffff168373ffffffffffffffffffffffffffffffffffffffff167f4a39dc06d4c0dbc64b70af90fd698a233a518aa5d07e595d983b8c0526c8f7fb8888604051611f7192919061341b565b60405180910390a4611f88826000888888886123aa565b505050505050565b600073ffffffffffffffffffffffffffffffffffffffff168373ffffffffffffffffffffffffffffffffffffffff161415612000576040517f08c379a0000000000000000000000000000000000000000000000000000000008152600401611ff79061361c565b60405180910390fd5b600061200a612270565b90506000612016612173565b90506120978360405180606001604052806024815260200161396e6024913983600001600088815260200190815260200160002060008973ffffffffffffffffffffffffffffffffffffffff1673ffffffffffffffffffffffffffffffffffffffff168152602001908152602001600020546124dc9092919063ffffffff16565b81600001600086815260200190815260200160002060008773ffffffffffffffffffffffffffffffffffffffff1673ffffffffffffffffffffffffffffffffffffffff16815260200190815260200160002081905550600073ffffffffffffffffffffffffffffffffffffffff168573ffffffffffffffffffffffffffffffffffffffff168373ffffffffffffffffffffffffffffffffffffffff167fc3d58168c5ae7397731d063d5bbf3d657854427343f4c083240f7aacaa2d0f6287876040516121649291906136ed565b60405180910390a45050505050565b6000807fd1fd1ec9eb6f457e5e32da0d2921ff6daf7fd2085ec060a076b391ca2400b28290508091505090565b6000808314156121b35760009050612220565b60008284029050828482816121c457fe5b041461221b576040517f08c379a00000000000000000000000000000000000000000000000000000000081526004018080602001828103825260218152602001806139926021913960400191505060405180910390fd5b809150505b92915050565b600061226883836040518060400160405280601a81526020017f536166654d6174683a206469766973696f6e206279207a65726f00000000000081525061259c565b905092915050565b600033905090565b6000843b905060008111156123a1578473ffffffffffffffffffffffffffffffffffffffff1663f23a6e6188888787876040518663ffffffff1660e01b81526004016122c89594939291906133c1565b602060405180830381600087803b1580156122e257600080fd5b505af11580156122f6573d6000803e3d6000fd5b505050506040513d601f19601f8201168201806040525081019061231a9190612ae9565b7bffffffffffffffffffffffffffffffffffffffffffffffffffffffff191663f23a6e6160e01b7bffffffffffffffffffffffffffffffffffffffffffffffffffffffff1916146123a0576040517f08c379a0000000000000000000000000000000000000000000000000000000008152600401612397906134dc565b60405180910390fd5b5b50505050505050565b6000843b905060008111156124d3578473ffffffffffffffffffffffffffffffffffffffff1663bc197c8188888787876040518663ffffffff1660e01b81526004016123fa959493929190613322565b602060405180830381600087803b15801561241457600080fd5b505af1158015612428573d6000803e3d6000fd5b505050506040513d601f19601f8201168201806040525081019061244c9190612ae9565b7bffffffffffffffffffffffffffffffffffffffffffffffffffffffff191663bc197c8160e01b7bffffffffffffffffffffffffffffffffffffffffffffffffffffffff1916146124d2576040517f08c379a00000000000000000000000000000000000000000000000000000000081526004016124c99061353c565b60405180910390fd5b5b50505050505050565b6000838311158290612589576040517f08c379a00000000000000000000000000000000000000000000000000000000081526004018080602001828103825283818151815260200191508051906020019080838360005b8381101561254e578082015181840152602081019050612533565b50505050905090810190601f16801561257b5780820380516001836020036101000a031916815260200191505b509250505060405180910390fd5b5060008385039050809150509392505050565b60008083118290612648576040517f08c379a00000000000000000000000000000000000000000000000000000000081526004018080602001828103825283818151815260200191508051906020019080838360005b8381101561260d5780820151818401526020810190506125f2565b50505050905090810190601f16801561263a5780820380516001836020036101000a031916815260200191505b509250505060405180910390fd5b50600083858161265457fe5b049050809150509392505050565b60405180606001604052806000815260200160008152602001600081525090565b6040518060800160405280600073ffffffffffffffffffffffffffffffffffffffff168152602001600073ffffffffffffffffffffffffffffffffffffffff16815260200160008152602001600081525090565b60006126ea6126e584613747565b613716565b9050808382526020820190508285602086028201111561270957600080fd5b60005b85811015612739578161271f8882612855565b84526020840193506020830192505060018101905061270c565b5050509392505050565b600081359050612752816138e3565b92915050565b60008083601f84011261276a57600080fd5b8235905067ffffffffffffffff81111561278357600080fd5b60208301915083602082028301111561279b57600080fd5b9250929050565b60008083601f8401126127b457600080fd5b8235905067ffffffffffffffff8111156127cd57600080fd5b6020830191508360208202830111156127e557600080fd5b9250929050565b600082601f8301126127fd57600080fd5b813561280d8482602086016126d7565b91505092915050565b600081519050612825816138fa565b92915050565b60008135905061283a81613911565b92915050565b60008151905061284f81613928565b92915050565b6000813590506128648161393f565b92915050565b6000815190506128798161393f565b92915050565b60008135905061288e81613956565b92915050565b6000602082840312156128a657600080fd5b60006128b484828501612743565b91505092915050565b600080600080600080600080600060e08a8c0312156128db57600080fd5b60006128e98c828d01612743565b99505060208a013567ffffffffffffffff81111561290657600080fd5b6129128c828d016127ec565b98505060408a013567ffffffffffffffff81111561292f57600080fd5b61293b8c828d01612758565b975097505060608a013567ffffffffffffffff81111561295a57600080fd5b6129668c828d016127a2565b955095505060806129798c828d0161287f565b93505060a061298a8c828d0161282b565b92505060c061299b8c828d0161282b565b9150509295985092959850929598565b600080600080600080600060e0888a0312156129c657600080fd5b60006129d48a828b01612743565b97505060206129e58a828b01612855565b96505060406129f68a828b01612743565b9550506060612a078a828b01612855565b9450506080612a188a828b0161287f565b93505060a0612a298a828b0161282b565b92505060c0612a3a8a828b0161282b565b91505092959891949750929550565b600080600080600060a08688031215612a6157600080fd5b6000612a6f88828901612743565b9550506020612a8088828901612855565b9450506040612a918882890161287f565b9350506060612aa28882890161282b565b9250506080612ab38882890161282b565b9150509295509295909350565b600060208284031215612ad257600080fd5b6000612ae084828501612816565b91505092915050565b600060208284031215612afb57600080fd5b6000612b0984828501612840565b91505092915050565b600060208284031215612b2457600080fd5b6000612b3284828501612855565b91505092915050565b600060208284031215612b4d57600080fd5b6000612b5b8482850161286a565b91505092915050565b60008060408385031215612b7757600080fd5b6000612b8585828601612855565b9250506020612b9685828601612743565b9150509250929050565b600080600080600060a08688031215612bb857600080fd5b6000612bc688828901612855565b9550506020612bd788828901612855565b9450506040612be88882890161287f565b9350506060612bf98882890161282b565b9250506080612c0a8882890161282b565b9150509295509295909350565b6000612c23838361327a565b60208301905092915050565b612c38816137e4565b82525050565b612c47816137e4565b82525050565b6000612c5882613783565b612c6281856137a6565b9350612c6d83613773565b8060005b83811015612c9e578151612c858882612c17565b9750612c9083613799565b925050600181019050612c71565b5085935050505092915050565b612cb481613802565b82525050565b612ccb612cc682613802565b6138c6565b82525050565b6000612cdc8261378e565b612ce681856137b7565b9350612cf6818560208601613893565b612cff816138d2565b840191505092915050565b612d138161386f565b82525050565b6000612d266034836137c8565b91507f455243313135353a207472616e7366657220746f206e6f6e204552433131353560008301527f526563656976657220696d706c656d656e7465720000000000000000000000006020830152604082019050919050565b6000612d8c6015836137c8565b91507f5175616c6c612f696e76616c69642d7065726d697400000000000000000000006000830152602082019050919050565b6000612dcc6019836137c8565b91507f5175616c6c612f496e76616c69642d53756273637269626572000000000000006000830152602082019050919050565b6000612e0c6028836137c8565b91507f455243313135353a204552433131353552656365697665722072656a6563746560008301527f6420746f6b656e730000000000000000000000000000000000000000000000006020830152604082019050919050565b6000612e72601d836137c8565b91507f5175616c6c612f496e73756666696369656e742d416c6c6f77616e63650000006000830152602082019050919050565b6000612eb26031836137c8565b91507f5175616c6c613a20616d6f756e747320616e64207061796d656e74546f6b656e60008301527f73206c656e677468206d69736d617463680000000000000000000000000000006020830152604082019050919050565b6000612f186002836137d9565b91507f19010000000000000000000000000000000000000000000000000000000000006000830152600282019050919050565b6000612f58601d836137c8565b91507f5175616c6c612f537562736372697074696f6e2d4e6f742d52656164790000006000830152602082019050919050565b6000612f986032836137c8565b91507f455243313135353a20616d6f756e747320616e64207061796d656e7456616c7560008301527f6573206c656e677468206d69736d6174636800000000000000000000000000006020830152604082019050919050565b6000612ffe601b836137c8565b91507f5175616c6c612f496e73756666696369656e742d42616c616e636500000000006000830152602082019050919050565b600061303e6017836137c8565b91507f5175616c6c612f496e76616c69642d546f6b656e2d49640000000000000000006000830152602082019050919050565b600061307e6023836137c8565b91507f455243313135353a206275726e2066726f6d20746865207a65726f206164647260008301527f65737300000000000000000000000000000000000000000000000000000000006020830152604082019050919050565b60006130e46017836137c8565b91507f5175616c6c612f57726f6e672d546f6b656e2d547970650000000000000000006000830152602082019050919050565b60006131246021836137c8565b91507f5175616c6c612f496e76616c69642d537562736372697074696f6e2d496e646560008301527f78000000000000000000000000000000000000000000000000000000000000006020830152604082019050919050565b600061318a6021836137c8565b91507f455243313135353a206d696e7420746f20746865207a65726f2061646472657360008301527f73000000000000000000000000000000000000000000000000000000000000006020830152604082019050919050565b6080820160008201516131f96000850182612c2f565b50602082015161320c6020850182612d0a565b50604082015161321f604085018261327a565b506060820151613232606085018261327a565b50505050565b60608201600082015161324e600085018261327a565b506020820151613261602085018261327a565b506040820151613274604085018261327a565b50505050565b61328381613858565b82525050565b61329281613858565b82525050565b6132a181613862565b82525050565b60006132b282612f0b565b91506132be8285612cba565b6020820191506132ce8284612cba565b6020820191508190509392505050565b60006020820190506132f36000830184612c3e565b92915050565b600060408201905061330e6000830185612c3e565b61331b6020830184612c3e565b9392505050565b600060a0820190506133376000830188612c3e565b6133446020830187612c3e565b81810360408301526133568186612c4d565b9050818103606083015261336a8185612c4d565b9050818103608083015261337e8184612cd1565b90509695505050505050565b600060608201905061339f6000830186612c3e565b6133ac6020830185612c3e565b6133b96040830184613289565b949350505050565b600060a0820190506133d66000830188612c3e565b6133e36020830187612c3e565b6133f06040830186613289565b6133fd6060830185613289565b818103608083015261340f8184612cd1565b90509695505050505050565b600060408201905081810360008301526134358185612c4d565b905081810360208301526134498184612c4d565b90509392505050565b60006080820190506134676000830187612cab565b6134746020830186612c3e565b6134816040830185613289565b61348e6060830184612cab565b95945050505050565b60006080820190506134ac6000830187612cab565b6134b96020830186613298565b6134c66040830185612cab565b6134d36060830184612cab565b95945050505050565b600060208201905081810360008301526134f581612d19565b9050919050565b6000602082019050818103600083015261351581612d7f565b9050919050565b6000602082019050818103600083015261353581612dbf565b9050919050565b6000602082019050818103600083015261355581612dff565b9050919050565b6000602082019050818103600083015261357581612e65565b9050919050565b6000602082019050818103600083015261359581612ea5565b9050919050565b600060208201905081810360008301526135b581612f4b565b9050919050565b600060208201905081810360008301526135d581612f8b565b9050919050565b600060208201905081810360008301526135f581612ff1565b9050919050565b6000602082019050818103600083015261361581613031565b9050919050565b6000602082019050818103600083015261363581613071565b9050919050565b60006020820190508181036000830152613655816130d7565b9050919050565b6000602082019050818103600083015261367581613117565b9050919050565b600060208201905081810360008301526136958161317d565b9050919050565b60006080820190506136b160008301846131e3565b92915050565b60006060820190506136cc6000830184613238565b92915050565b60006020820190506136e76000830184613289565b92915050565b60006040820190506137026000830185613289565b61370f6020830184613289565b9392505050565b6000604051905081810181811067ffffffffffffffff8211171561373d5761373c6138d0565b5b8060405250919050565b600067ffffffffffffffff821115613762576137616138d0565b5b602082029050602081019050919050565b6000819050602082019050919050565b600081519050919050565b600081519050919050565b6000602082019050919050565b600082825260208201905092915050565b600082825260208201905092915050565b600082825260208201905092915050565b600081905092915050565b60006137ef82613838565b9050919050565b60008115159050919050565b6000819050919050565b60007fffffffff0000000000000000000000000000000000000000000000000000000082169050919050565b600073ffffffffffffffffffffffffffffffffffffffff82169050919050565b6000819050919050565b600060ff82169050919050565b600061387a82613881565b9050919050565b600061388c82613838565b9050919050565b60005b838110156138b1578082015181840152602081019050613896565b838111156138c0576000848401525b50505050565b6000819050919050565bfe5b6000601f19601f8301169050919050565b6138ec816137e4565b81146138f757600080fd5b50565b613903816137f6565b811461390e57600080fd5b50565b61391a81613802565b811461392557600080fd5b50565b6139318161380c565b811461393c57600080fd5b50565b61394881613858565b811461395357600080fd5b50565b61395f81613862565b811461396a57600080fd5b5056fe455243313135353a206275726e20616d6f756e7420657863656564732062616c616e6365536166654d6174683a206d756c7469706c69636174696f6e206f766572666c6f77a2646970667358221220de598c0968fe7ced429a10da636fe21fc7677e45e35507d60fa7205a84590f6564736f6c63430007060033",
  "linkReferences": {},
  "deployedLinkReferences": {}
}