{
  "_format": "hh-sol-artifact-1",
  "contractName": "TierTokenFacet",
  "sourceName": "contracts/facets/TierTokenFacet.sol",
  "abi": [
    {
      "anonymous": false,
      "inputs": [
        {
          "indexed": true,
          "internalType": "address",
          "name": "to",
          "type": "address"
        },
        {
          "indexed": true,
          "internalType": "address",
          "name": "from",
          "type": "address"
        },
        {
          "indexed": false,
          "internalType": "address[]",
          "name": "paymentTokens",
          "type": "address[]"
        },
        {
          "indexed": false,
          "internalType": "uint256[]",
          "name": "ids",
          "type": "uint256[]"
        },
        {
          "indexed": false,
          "internalType": "uint256[]",
          "name": "flowRates",
          "type": "uint256[]"
        },
        {
          "indexed": false,
          "internalType": "uint256[]",
          "name": "amounts",
          "type": "uint256[]"
        }
      ],
      "name": "BatchTierTransfer",
      "type": "event"
    },
    {
      "anonymous": false,
      "inputs": [
        {
          "indexed": true,
          "internalType": "address",
          "name": "to",
          "type": "address"
        },
        {
          "indexed": true,
          "internalType": "address",
          "name": "from",
          "type": "address"
        },
        {
          "indexed": true,
          "internalType": "address",
          "name": "paymentToken",
          "type": "address"
        },
        {
          "indexed": false,
          "internalType": "uint256",
          "name": "id",
          "type": "uint256"
        },
        {
          "indexed": false,
          "internalType": "uint256",
          "name": "flowRate",
          "type": "uint256"
        },
        {
          "indexed": false,
          "internalType": "uint256",
          "name": "amount",
          "type": "uint256"
        }
      ],
      "name": "TierTransfer",
      "type": "event"
    },
    {
      "inputs": [
        {
          "internalType": "uint256",
          "name": "id",
          "type": "uint256"
        },
        {
          "internalType": "uint256",
          "name": "amount",
          "type": "uint256"
        },
        {
          "internalType": "uint8",
          "name": "v",
          "type": "uint8"
        },
        {
          "internalType": "bytes32",
          "name": "r",
          "type": "bytes32"
        },
        {
          "internalType": "bytes32",
          "name": "s",
          "type": "bytes32"
        }
      ],
      "name": "burnTier",
      "outputs": [],
      "stateMutability": "nonpayable",
      "type": "function"
    },
    {
      "inputs": [
        {
          "internalType": "uint256",
          "name": "id",
          "type": "uint256"
        }
      ],
      "name": "getTierToken",
      "outputs": [
        {
          "components": [
            {
              "internalType": "address",
              "name": "creator",
              "type": "address"
            },
            {
              "internalType": "contract IQtoken",
              "name": "paymentToken",
              "type": "address"
            },
            {
              "internalType": "uint256",
              "name": "flowRate",
              "type": "uint256"
            },
            {
              "internalType": "uint256",
              "name": "nonce",
              "type": "uint256"
            },
            {
              "internalType": "uint256",
              "name": "activeBeams",
              "type": "uint256"
            }
          ],
          "internalType": "struct TierToken",
          "name": "",
          "type": "tuple"
        }
      ],
      "stateMutability": "view",
      "type": "function"
    },
    {
      "inputs": [
        {
          "internalType": "address",
          "name": "creator",
          "type": "address"
        },
        {
          "internalType": "uint256[]",
          "name": "amounts",
          "type": "uint256[]"
        },
        {
          "internalType": "address[]",
          "name": "paymentTokens",
          "type": "address[]"
        },
        {
          "internalType": "uint256[]",
          "name": "flowRates",
          "type": "uint256[]"
        },
        {
          "internalType": "uint8",
          "name": "v",
          "type": "uint8"
        },
        {
          "internalType": "bytes32",
          "name": "r",
          "type": "bytes32"
        },
        {
          "internalType": "bytes32",
          "name": "s",
          "type": "bytes32"
        }
      ],
      "name": "mintBatchTier",
      "outputs": [],
      "stateMutability": "nonpayable",
      "type": "function"
    },
    {
      "inputs": [
        {
          "internalType": "address",
          "name": "creator",
          "type": "address"
        },
        {
          "internalType": "uint256",
          "name": "amount",
          "type": "uint256"
        },
        {
          "internalType": "address",
          "name": "paymentToken",
          "type": "address"
        },
        {
          "internalType": "uint256",
          "name": "flowRate",
          "type": "uint256"
        },
        {
          "internalType": "uint8",
          "name": "v",
          "type": "uint8"
        },
        {
          "internalType": "bytes32",
          "name": "r",
          "type": "bytes32"
        },
        {
          "internalType": "bytes32",
          "name": "s",
          "type": "bytes32"
        }
      ],
      "name": "mintTier",
      "outputs": [],
      "stateMutability": "nonpayable",
      "type": "function"
    }
  ],
  "bytecode": "0x608060405234801561001057600080fd5b506128a2806100206000396000f3fe608060405234801561001057600080fd5b506004361061004c5760003560e01c80636a97284e1461005157806395b5f6bb1461006d578063aea83deb14610089578063b0231f2c146100a5575b600080fd5b61006b60048036038101906100669190611a43565b6100d5565b005b6100876004803603810190610082919061195d565b6103d5565b005b6100a3600480360381019061009e9190611b33565b610837565b005b6100bf60048036038101906100ba9190611b0a565b610a28565b6040516100cc91906124eb565b60405180910390f35b610117876040518060400160405280600481526020017f6d696e7400000000000000000000000000000000000000000000000000000000815250858585610b87565b600060070160008673ffffffffffffffffffffffffffffffffffffffff1673ffffffffffffffffffffffffffffffffffffffff16815260200190815260200160002060009054906101000a900460ff166101a6576040517f08c379a000000000000000000000000000000000000000000000000000000000815260040161019d9061242b565b60405180910390fd5b60008614156101d3577fffffffffffffffffffffffffffffffffffffffffffffffffffffffffffffffff95505b600060806101f06001600060090154610da490919063ffffffff16565b901b90506040518060a001604052808973ffffffffffffffffffffffffffffffffffffffff1681526020018773ffffffffffffffffffffffffffffffffffffffff16815260200186815260200160018152602001600081525060008001600083815260200190815260200160002060008201518160000160006101000a81548173ffffffffffffffffffffffffffffffffffffffff021916908373ffffffffffffffffffffffffffffffffffffffff16021790555060208201518160010160006101000a81548173ffffffffffffffffffffffffffffffffffffffff021916908373ffffffffffffffffffffffffffffffffffffffff1602179055506040820151816002015560608201518160030155608082015181600401559050506103266001600060090154610da490919063ffffffff16565b60006009018190555061034a88828960405180602001604052806000815250610e2c565b8573ffffffffffffffffffffffffffffffffffffffff16600073ffffffffffffffffffffffffffffffffffffffff168973ffffffffffffffffffffffffffffffffffffffff167f7374421adc32aed59ee1c1a58004ddbad1d7dbf65ffad073c1dfb222b4e4f97c84898c6040516103c393929190612566565b60405180910390a45050505050505050565b8451865114610419576040517f08c379a00000000000000000000000000000000000000000000000000000000081526004016104109061240b565b60405180910390fd5b835186511461045d576040517f08c379a0000000000000000000000000000000000000000000000000000000008152600401610454906124ab565b60405180910390fd5b61049f876040518060400160405280600481526020017f6d696e7400000000000000000000000000000000000000000000000000000000815250858585610b87565b6000865167ffffffffffffffff811180156104b957600080fd5b506040519080825280602002602001820160405280156104e85781602001602082028036833780820191505090505b50905060005b87518110156107a5576000600701600088838151811061050a57fe5b602002602001015173ffffffffffffffffffffffffffffffffffffffff1673ffffffffffffffffffffffffffffffffffffffff16815260200190815260200160002060009054906101000a900460ff16610599576040517f08c379a00000000000000000000000000000000000000000000000000000000081526004016105909061242b565b60405180910390fd5b60008882815181106105a757fe5b602002602001015114156105ef577fffffffffffffffffffffffffffffffffffffffffffffffffffffffffffffffff8882815181106105e257fe5b6020026020010181815250505b608061060a6001600060090154610da490919063ffffffff16565b901b82828151811061061857fe5b6020026020010181815250506040518060a001604052808a73ffffffffffffffffffffffffffffffffffffffff16815260200188838151811061065757fe5b602002602001015173ffffffffffffffffffffffffffffffffffffffff16815260200187838151811061068657fe5b602002602001015181526020016001815260200160008152506000800160008484815181106106b157fe5b6020026020010151815260200190815260200160002060008201518160000160006101000a81548173ffffffffffffffffffffffffffffffffffffffff021916908373ffffffffffffffffffffffffffffffffffffffff16021790555060208201518160010160006101000a81548173ffffffffffffffffffffffffffffffffffffffff021916908373ffffffffffffffffffffffffffffffffffffffff16021790555060408201518160020155606082015181600301556080820151816004015590505061078f6001600060090154610da490919063ffffffff16565b60006009018190555080806001019150506104ee565b506107c188828960405180602001604052806000815250611005565b600073ffffffffffffffffffffffffffffffffffffffff168873ffffffffffffffffffffffffffffffffffffffff167f03dea1797ac594e99b424f8baa4c13f1a17a912f5583e32257d218ebfd15e5e38884898c6040516108259493929190612289565b60405180910390a35050505050505050565b60007f800000000000000000000000000000000000000000000000000000000000000086161461089c576040517f08c379a00000000000000000000000000000000000000000000000000000000081526004016108939061246b565b60405180910390fd5b60007fffffffffffffffffffffffffffffffffffffffffffffffffffffffffffffffff6fffffffffffffffffffffffffffffffff16861614610913576040517f08c379a000000000000000000000000000000000000000000000000000000000815260040161090a9061248b565b60405180910390fd5b600080600001600087815260200190815260200160002060000160009054906101000a900473ffffffffffffffffffffffffffffffffffffffff169050610992816040518060400160405280600481526020017f6275726e00000000000000000000000000000000000000000000000000000000815250868686610b87565b61099d818787611231565b600073ffffffffffffffffffffffffffffffffffffffff168173ffffffffffffffffffffffffffffffffffffffff16600073ffffffffffffffffffffffffffffffffffffffff167f7374421adc32aed59ee1c1a58004ddbad1d7dbf65ffad073c1dfb222b4e4f97c8960008a604051610a1893929190612506565b60405180910390a4505050505050565b610a3061176d565b610a3861176d565b60008001600084815260200190815260200160002060000160009054906101000a900473ffffffffffffffffffffffffffffffffffffffff16816000019073ffffffffffffffffffffffffffffffffffffffff16908173ffffffffffffffffffffffffffffffffffffffff168152505060008001600084815260200190815260200160002060010160009054906101000a900473ffffffffffffffffffffffffffffffffffffffff16816020019073ffffffffffffffffffffffffffffffffffffffff16908173ffffffffffffffffffffffffffffffffffffffff168152505060008001600084815260200190815260200160002060020154816040018181525050600080016000848152602001908152602001600020600301548160600181815250506000800160008481526020019081526020016000206004015481608001818152505080915050919050565b6000610b91611414565b9050600081600301548260040154888460020160008b73ffffffffffffffffffffffffffffffffffffffff1673ffffffffffffffffffffffffffffffffffffffff168152602001908152602001600020600001548980519060200120604051602001610c009493929190612321565b60405160208183030381529060405280519060200120604051602001610c27929190612190565b60405160208183030381529060405280519060200120905060018186868660405160008152602001604052604051610c629493929190612366565b6020604051602081039080840390855afa158015610c84573d6000803e3d6000fd5b5050506020604051035173ffffffffffffffffffffffffffffffffffffffff168773ffffffffffffffffffffffffffffffffffffffff1614610cfb576040517f08c379a0000000000000000000000000000000000000000000000000000000008152600401610cf2906123cb565b60405180910390fd5b610d5360018360020160008a73ffffffffffffffffffffffffffffffffffffffff1673ffffffffffffffffffffffffffffffffffffffff16815260200190815260200160002060000154610da490919063ffffffff16565b8260020160008973ffffffffffffffffffffffffffffffffffffffff1673ffffffffffffffffffffffffffffffffffffffff1681526020019081526020016000206000018190555050505050505050565b600080828401905083811015610e22576040517f08c379a000000000000000000000000000000000000000000000000000000000815260040180806020018281038252601b8152602001807f536166654d6174683a206164646974696f6e206f766572666c6f77000000000081525060200191505060405180910390fd5b8091505092915050565b600073ffffffffffffffffffffffffffffffffffffffff168473ffffffffffffffffffffffffffffffffffffffff161415610e9c576040517f08c379a0000000000000000000000000000000000000000000000000000000008152600401610e93906124cb565b60405180910390fd5b6000610ea6611441565b90506000610eb2611414565b9050610f198482600001600088815260200190815260200160002060008973ffffffffffffffffffffffffffffffffffffffff1673ffffffffffffffffffffffffffffffffffffffff16815260200190815260200160002054610da490919063ffffffff16565b81600001600087815260200190815260200160002060008873ffffffffffffffffffffffffffffffffffffffff1673ffffffffffffffffffffffffffffffffffffffff168152602001908152602001600020819055508573ffffffffffffffffffffffffffffffffffffffff16600073ffffffffffffffffffffffffffffffffffffffff168373ffffffffffffffffffffffffffffffffffffffff167fc3d58168c5ae7397731d063d5bbf3d657854427343f4c083240f7aacaa2d0f628888604051610fe692919061253d565b60405180910390a4610ffd82600088888888611449565b505050505050565b600073ffffffffffffffffffffffffffffffffffffffff168473ffffffffffffffffffffffffffffffffffffffff161415611075576040517f08c379a000000000000000000000000000000000000000000000000000000000815260040161106c906124cb565b60405180910390fd5b600061107f611441565b9050600061108b611414565b905060005b855181101561119a576111248260000160008884815181106110ae57fe5b6020026020010151815260200190815260200160002060008973ffffffffffffffffffffffffffffffffffffffff1673ffffffffffffffffffffffffffffffffffffffff1681526020019081526020016000205486838151811061110e57fe5b6020026020010151610da490919063ffffffff16565b82600001600088848151811061113657fe5b6020026020010151815260200190815260200160002060008973ffffffffffffffffffffffffffffffffffffffff1673ffffffffffffffffffffffffffffffffffffffff168152602001908152602001600020819055508080600101915050611090565b508573ffffffffffffffffffffffffffffffffffffffff16600073ffffffffffffffffffffffffffffffffffffffff168373ffffffffffffffffffffffffffffffffffffffff167f4a39dc06d4c0dbc64b70af90fd698a233a518aa5d07e595d983b8c0526c8f7fb88886040516112129291906122ea565b60405180910390a46112298260008888888861157b565b505050505050565b600073ffffffffffffffffffffffffffffffffffffffff168373ffffffffffffffffffffffffffffffffffffffff1614156112a1576040517f08c379a00000000000000000000000000000000000000000000000000000000081526004016112989061244b565b60405180910390fd5b60006112ab611441565b905060006112b7611414565b9050611338836040518060600160405280602481526020016128496024913983600001600088815260200190815260200160002060008973ffffffffffffffffffffffffffffffffffffffff1673ffffffffffffffffffffffffffffffffffffffff168152602001908152602001600020546116ad9092919063ffffffff16565b81600001600086815260200190815260200160002060008773ffffffffffffffffffffffffffffffffffffffff1673ffffffffffffffffffffffffffffffffffffffff16815260200190815260200160002081905550600073ffffffffffffffffffffffffffffffffffffffff168573ffffffffffffffffffffffffffffffffffffffff168373ffffffffffffffffffffffffffffffffffffffff167fc3d58168c5ae7397731d063d5bbf3d657854427343f4c083240f7aacaa2d0f62878760405161140592919061253d565b60405180910390a45050505050565b6000807fd1fd1ec9eb6f457e5e32da0d2921ff6daf7fd2085ec060a076b391ca2400b28290508091505090565b600033905090565b6000843b90506000811115611572578473ffffffffffffffffffffffffffffffffffffffff1663f23a6e6188888787876040518663ffffffff1660e01b815260040161149995949392919061222f565b602060405180830381600087803b1580156114b357600080fd5b505af11580156114c7573d6000803e3d6000fd5b505050506040513d601f19601f820116820180604052508101906114eb9190611ae1565b7bffffffffffffffffffffffffffffffffffffffffffffffffffffffff191663f23a6e6160e01b7bffffffffffffffffffffffffffffffffffffffffffffffffffffffff191614611571576040517f08c379a0000000000000000000000000000000000000000000000000000000008152600401611568906123ab565b60405180910390fd5b5b50505050505050565b6000843b905060008111156116a4578473ffffffffffffffffffffffffffffffffffffffff1663bc197c8188888787876040518663ffffffff1660e01b81526004016115cb9594939291906121c7565b602060405180830381600087803b1580156115e557600080fd5b505af11580156115f9573d6000803e3d6000fd5b505050506040513d601f19601f8201168201806040525081019061161d9190611ae1565b7bffffffffffffffffffffffffffffffffffffffffffffffffffffffff191663bc197c8160e01b7bffffffffffffffffffffffffffffffffffffffffffffffffffffffff1916146116a3576040517f08c379a000000000000000000000000000000000000000000000000000000000815260040161169a906123eb565b60405180910390fd5b5b50505050505050565b600083831115829061175a576040517f08c379a00000000000000000000000000000000000000000000000000000000081526004018080602001828103825283818151815260200191508051906020019080838360005b8381101561171f578082015181840152602081019050611704565b50505050905090810190601f16801561174c5780820380516001836020036101000a031916815260200191505b509250505060405180910390fd5b5060008385039050809150509392505050565b6040518060a00160405280600073ffffffffffffffffffffffffffffffffffffffff168152602001600073ffffffffffffffffffffffffffffffffffffffff1681526020016000815260200160008152602001600081525090565b60006117db6117d6846125ce565b61259d565b905080838252602082019050828560208602820111156117fa57600080fd5b60005b8581101561182a578161181088826118a0565b8452602084019350602083019250506001810190506117fd565b5050509392505050565b6000611847611842846125fa565b61259d565b9050808382526020820190508285602086028201111561186657600080fd5b60005b85811015611896578161187c8882611933565b845260208401935060208301925050600181019050611869565b5050509392505050565b6000813590506118af816127d5565b92915050565b600082601f8301126118c657600080fd5b81356118d68482602086016117c8565b91505092915050565b600082601f8301126118f057600080fd5b8135611900848260208601611834565b91505092915050565b600081359050611918816127ec565b92915050565b60008151905061192d81612803565b92915050565b6000813590506119428161281a565b92915050565b60008135905061195781612831565b92915050565b600080600080600080600060e0888a03121561197857600080fd5b60006119868a828b016118a0565b975050602088013567ffffffffffffffff8111156119a357600080fd5b6119af8a828b016118df565b965050604088013567ffffffffffffffff8111156119cc57600080fd5b6119d88a828b016118b5565b955050606088013567ffffffffffffffff8111156119f557600080fd5b611a018a828b016118df565b9450506080611a128a828b01611948565b93505060a0611a238a828b01611909565b92505060c0611a348a828b01611909565b91505092959891949750929550565b600080600080600080600060e0888a031215611a5e57600080fd5b6000611a6c8a828b016118a0565b9750506020611a7d8a828b01611933565b9650506040611a8e8a828b016118a0565b9550506060611a9f8a828b01611933565b9450506080611ab08a828b01611948565b93505060a0611ac18a828b01611909565b92505060c0611ad28a828b01611909565b91505092959891949750929550565b600060208284031215611af357600080fd5b6000611b018482850161191e565b91505092915050565b600060208284031215611b1c57600080fd5b6000611b2a84828501611933565b91505092915050565b600080600080600060a08688031215611b4b57600080fd5b6000611b5988828901611933565b9550506020611b6a88828901611933565b9450506040611b7b88828901611948565b9350506060611b8c88828901611909565b9250506080611b9d88828901611909565b9150509295509295909350565b6000611bb68383611bda565b60208301905092915050565b6000611bce8383612163565b60208301905092915050565b611be3816126d0565b82525050565b611bf2816126d0565b82525050565b6000611c0382612646565b611c0d8185612681565b9350611c1883612626565b8060005b83811015611c49578151611c308882611baa565b9750611c3b83612667565b925050600181019050611c1c565b5085935050505092915050565b6000611c6182612651565b611c6b8185612692565b9350611c7683612636565b8060005b83811015611ca7578151611c8e8882611bc2565b9750611c9983612674565b925050600181019050611c7a565b5085935050505092915050565b611cbd816126e2565b82525050565b611cd4611ccf826126e2565b6127b8565b82525050565b6000611ce58261265c565b611cef81856126a3565b9350611cff818560208601612785565b611d08816127c4565b840191505092915050565b611d1c8161274f565b82525050565b611d2b81612773565b82525050565b6000611d3e6034836126b4565b91507f455243313135353a207472616e7366657220746f206e6f6e204552433131353560008301527f526563656976657220696d706c656d656e7465720000000000000000000000006020830152604082019050919050565b6000611da46015836126b4565b91507f5175616c6c612f696e76616c69642d7065726d697400000000000000000000006000830152602082019050919050565b6000611de46028836126b4565b91507f455243313135353a204552433131353552656365697665722072656a6563746560008301527f6420746f6b656e730000000000000000000000000000000000000000000000006020830152604082019050919050565b6000611e4a6031836126b4565b91507f5175616c6c613a20616d6f756e747320616e64207061796d656e74546f6b656e60008301527f73206c656e677468206d69736d617463680000000000000000000000000000006020830152604082019050919050565b6000611eb06002836126c5565b91507f19010000000000000000000000000000000000000000000000000000000000006000830152600282019050919050565b6000611ef0601b836126b4565b91507f5175616c6c612f496e76616c69642d7061796d656e74546f6b656e00000000006000830152602082019050919050565b6000611f306023836126b4565b91507f455243313135353a206275726e2066726f6d20746865207a65726f206164647260008301527f65737300000000000000000000000000000000000000000000000000000000006020830152604082019050919050565b6000611f966017836126b4565b91507f5175616c6c612f57726f6e672d546f6b656e2d547970650000000000000000006000830152602082019050919050565b6000611fd66021836126b4565b91507f5175616c6c612f496e76616c69642d537562736372697074696f6e2d496e646560008301527f78000000000000000000000000000000000000000000000000000000000000006020830152604082019050919050565b600061203c6031836126b4565b91507f5175616c6c613a20616d6f756e747320616e64207061796d656e7456616c756560008301527f73206c656e677468206d69736d617463680000000000000000000000000000006020830152604082019050919050565b60006120a26021836126b4565b91507f455243313135353a206d696e7420746f20746865207a65726f2061646472657360008301527f73000000000000000000000000000000000000000000000000000000000000006020830152604082019050919050565b60a0820160008201516121116000850182611bda565b5060208201516121246020850182611d13565b5060408201516121376040850182612163565b50606082015161214a6060850182612163565b50608082015161215d6080850182612163565b50505050565b61216c81612738565b82525050565b61217b81612738565b82525050565b61218a81612742565b82525050565b600061219b82611ea3565b91506121a78285611cc3565b6020820191506121b78284611cc3565b6020820191508190509392505050565b600060a0820190506121dc6000830188611be9565b6121e96020830187611be9565b81810360408301526121fb8186611c56565b9050818103606083015261220f8185611c56565b905081810360808301526122238184611cda565b90509695505050505050565b600060a0820190506122446000830188611be9565b6122516020830187611be9565b61225e6040830186612172565b61226b6060830185612172565b818103608083015261227d8184611cda565b90509695505050505050565b600060808201905081810360008301526122a38187611bf8565b905081810360208301526122b78186611c56565b905081810360408301526122cb8185611c56565b905081810360608301526122df8184611c56565b905095945050505050565b600060408201905081810360008301526123048185611c56565b905081810360208301526123188184611c56565b90509392505050565b60006080820190506123366000830187611cb4565b6123436020830186611be9565b6123506040830185612172565b61235d6060830184611cb4565b95945050505050565b600060808201905061237b6000830187611cb4565b6123886020830186612181565b6123956040830185611cb4565b6123a26060830184611cb4565b95945050505050565b600060208201905081810360008301526123c481611d31565b9050919050565b600060208201905081810360008301526123e481611d97565b9050919050565b6000602082019050818103600083015261240481611dd7565b9050919050565b6000602082019050818103600083015261242481611e3d565b9050919050565b6000602082019050818103600083015261244481611ee3565b9050919050565b6000602082019050818103600083015261246481611f23565b9050919050565b6000602082019050818103600083015261248481611f89565b9050919050565b600060208201905081810360008301526124a481611fc9565b9050919050565b600060208201905081810360008301526124c48161202f565b9050919050565b600060208201905081810360008301526124e481612095565b9050919050565b600060a08201905061250060008301846120fb565b92915050565b600060608201905061251b6000830186612172565b6125286020830185611d22565b6125356040830184612172565b949350505050565b60006040820190506125526000830185612172565b61255f6020830184612172565b9392505050565b600060608201905061257b6000830186612172565b6125886020830185612172565b6125956040830184612172565b949350505050565b6000604051905081810181811067ffffffffffffffff821117156125c4576125c36127c2565b5b8060405250919050565b600067ffffffffffffffff8211156125e9576125e86127c2565b5b602082029050602081019050919050565b600067ffffffffffffffff821115612615576126146127c2565b5b602082029050602081019050919050565b6000819050602082019050919050565b6000819050602082019050919050565b600081519050919050565b600081519050919050565b600081519050919050565b6000602082019050919050565b6000602082019050919050565b600082825260208201905092915050565b600082825260208201905092915050565b600082825260208201905092915050565b600082825260208201905092915050565b600081905092915050565b60006126db82612718565b9050919050565b6000819050919050565b60007fffffffff0000000000000000000000000000000000000000000000000000000082169050919050565b600073ffffffffffffffffffffffffffffffffffffffff82169050919050565b6000819050919050565b600060ff82169050919050565b600061275a82612761565b9050919050565b600061276c82612718565b9050919050565b600061277e82612738565b9050919050565b60005b838110156127a3578082015181840152602081019050612788565b838111156127b2576000848401525b50505050565b6000819050919050565bfe5b6000601f19601f8301169050919050565b6127de816126d0565b81146127e957600080fd5b50565b6127f5816126e2565b811461280057600080fd5b50565b61280c816126ec565b811461281757600080fd5b50565b61282381612738565b811461282e57600080fd5b50565b61283a81612742565b811461284557600080fd5b5056fe455243313135353a206275726e20616d6f756e7420657863656564732062616c616e6365a26469706673582212200400e722d332ecf825edae2c2c86dbf83bb01ecab59e1663be30f29ec41e02fa64736f6c63430007060033",
  "linkReferences": {},
  "deployedLinkReferences": {}
}