{
  "_format": "hh-sol-artifact-1",
  "contractName": "TokenManagementFacet",
  "sourceName": "contracts/facets/TokenManagementFacet.sol",
  "abi": [
    {
      "inputs": [],
      "name": "getAllBalances",
      "outputs": [
        {
          "components": [
            {
              "internalType": "contract IERC20",
              "name": "token",
              "type": "address"
            },
            {
              "internalType": "uint256",
              "name": "balance",
              "type": "uint256"
            }
          ],
          "internalType": "struct TokenManagementFacet.TokenBalances[]",
          "name": "",
          "type": "tuple[]"
        }
      ],
      "stateMutability": "view",
      "type": "function"
    }
  ],
  "bytecode": "0x608060405234801561001057600080fd5b506104a9806100206000396000f3fe608060405234801561001057600080fd5b506004361061002b5760003560e01c8063867e7c2714610030575b600080fd5b61003861004e565b60405161004591906103a1565b60405180910390f35b60606000806008018054806020026020016040519081016040528092919081815260200182805480156100d657602002820191906000526020600020905b8160009054906101000a900473ffffffffffffffffffffffffffffffffffffffff1673ffffffffffffffffffffffffffffffffffffffff168152602001906001019080831161008c575b505050505090506000815167ffffffffffffffff811180156100f757600080fd5b5060405190808252806020026020018201604052801561013157816020015b61011e610246565b8152602001906001900390816101165790505b50905060005b825181101561023d57604051806040016040528084838151811061015757fe5b602002602001015173ffffffffffffffffffffffffffffffffffffffff16815260200184838151811061018657fe5b602002602001015173ffffffffffffffffffffffffffffffffffffffff166370a08231306040518263ffffffff1660e01b81526004016101c69190610386565b60206040518083038186803b1580156101de57600080fd5b505afa1580156101f2573d6000803e3d6000fd5b505050506040513d601f19601f82011682018060405250810190610216919061028b565b81525082828151811061022557fe5b60200260200101819052508080600101915050610137565b50809250505090565b6040518060400160405280600073ffffffffffffffffffffffffffffffffffffffff168152602001600081525090565b6000815190506102858161045c565b92915050565b60006020828403121561029d57600080fd5b60006102ab84828501610276565b91505092915050565b60006102c08383610348565b60408301905092915050565b6102d5816103fc565b82525050565b60006102e6826103d3565b6102f081856103eb565b93506102fb836103c3565b8060005b8381101561032c57815161031388826102b4565b975061031e836103de565b9250506001810190506102ff565b5085935050505092915050565b61034281610438565b82525050565b60408201600082015161035e6000850182610339565b5060208201516103716020850182610377565b50505050565b6103808161042e565b82525050565b600060208201905061039b60008301846102cc565b92915050565b600060208201905081810360008301526103bb81846102db565b905092915050565b6000819050602082019050919050565b600081519050919050565b6000602082019050919050565b600082825260208201905092915050565b60006104078261040e565b9050919050565b600073ffffffffffffffffffffffffffffffffffffffff82169050919050565b6000819050919050565b60006104438261044a565b9050919050565b60006104558261040e565b9050919050565b6104658161042e565b811461047057600080fd5b5056fea2646970667358221220ef2f892f34e0669c0e6c893c2304cc2daf160060a9f5c303a1d64ebdaf1d6ab764736f6c63430007060033",
  "linkReferences": {},
  "deployedLinkReferences": {}
}