{
  "_format": "hh-sol-artifact-1",
  "contractName": "TokenManagementFacet",
  "sourceName": "contracts/facets/TokenManagementFacet.sol",
  "abi": [
    {
      "inputs": [],
      "name": "getAllBalances",
      "outputs": [
        {
          "components": [
            {
              "internalType": "contract IERC20",
              "name": "token",
              "type": "address"
            },
            {
              "internalType": "uint256",
              "name": "balance",
              "type": "uint256"
            }
          ],
          "internalType": "struct TokenManagementFacet.TokenBalances[]",
          "name": "",
          "type": "tuple[]"
        }
      ],
      "stateMutability": "view",
      "type": "function"
    }
  ],
  "bytecode": "0x608060405234801561001057600080fd5b506104e3806100206000396000f3fe608060405234801561001057600080fd5b506004361061002b5760003560e01c8063867e7c2714610030575b600080fd5b61003861004e565b60405161004591906103db565b60405180910390f35b6060600061005a610253565b90506000816005018054806020026020016040519081016040528092919081815260200182805480156100e257602002820191906000526020600020905b8160009054906101000a900473ffffffffffffffffffffffffffffffffffffffff1673ffffffffffffffffffffffffffffffffffffffff1681526020019060010190808311610098575b505050505090506000815167ffffffffffffffff8111801561010357600080fd5b5060405190808252806020026020018201604052801561013d57816020015b61012a610280565b8152602001906001900390816101225790505b50905060005b825181101561024957604051806040016040528084838151811061016357fe5b602002602001015173ffffffffffffffffffffffffffffffffffffffff16815260200184838151811061019257fe5b602002602001015173ffffffffffffffffffffffffffffffffffffffff166370a08231306040518263ffffffff1660e01b81526004016101d291906103c0565b60206040518083038186803b1580156101ea57600080fd5b505afa1580156101fe573d6000803e3d6000fd5b505050506040513d601f19601f8201168201806040525081019061022291906102c5565b81525082828151811061023157fe5b60200260200101819052508080600101915050610143565b5080935050505090565b6000807f8011e08e256fd2a672b7720b7587378b9f27bfa5a95803a3cee7cf21a0a3def890508091505090565b6040518060400160405280600073ffffffffffffffffffffffffffffffffffffffff168152602001600081525090565b6000815190506102bf81610496565b92915050565b6000602082840312156102d757600080fd5b60006102e5848285016102b0565b91505092915050565b60006102fa8383610382565b60408301905092915050565b61030f81610436565b82525050565b60006103208261040d565b61032a8185610425565b9350610335836103fd565b8060005b8381101561036657815161034d88826102ee565b975061035883610418565b925050600181019050610339565b5085935050505092915050565b61037c81610472565b82525050565b6040820160008201516103986000850182610373565b5060208201516103ab60208501826103b1565b50505050565b6103ba81610468565b82525050565b60006020820190506103d56000830184610306565b92915050565b600060208201905081810360008301526103f58184610315565b905092915050565b6000819050602082019050919050565b600081519050919050565b6000602082019050919050565b600082825260208201905092915050565b600061044182610448565b9050919050565b600073ffffffffffffffffffffffffffffffffffffffff82169050919050565b6000819050919050565b600061047d82610484565b9050919050565b600061048f82610448565b9050919050565b61049f81610468565b81146104aa57600080fd5b5056fea2646970667358221220203dc65e547524816f7f7df28a8a6dab6d63d966e1ad8b2b924b7f03cc93377064736f6c63430007060033",
  "linkReferences": {},
  "deployedLinkReferences": {}
}