{
  "_format": "hh-sol-artifact-1",
  "contractName": "QuallaStorage",
  "sourceName": "contracts/QuallaStorage.sol",
  "abi": [
    {
      "inputs": [
        {
          "internalType": "address[]",
          "name": "quallaContracts",
          "type": "address[]"
        }
      ],
      "stateMutability": "nonpayable",
      "type": "constructor"
    },
    {
      "anonymous": false,
      "inputs": [
        {
          "indexed": true,
          "internalType": "address",
          "name": "previousOwner",
          "type": "address"
        },
        {
          "indexed": true,
          "internalType": "address",
          "name": "newOwner",
          "type": "address"
        }
      ],
      "name": "OwnershipTransferred",
      "type": "event"
    },
    {
      "inputs": [
        {
          "internalType": "bytes32",
          "name": "_key",
          "type": "bytes32"
        }
      ],
      "name": "deleteAddress",
      "outputs": [],
      "stateMutability": "nonpayable",
      "type": "function"
    },
    {
      "inputs": [
        {
          "internalType": "bytes32",
          "name": "_key",
          "type": "bytes32"
        }
      ],
      "name": "deleteBool",
      "outputs": [],
      "stateMutability": "nonpayable",
      "type": "function"
    },
    {
      "inputs": [
        {
          "internalType": "bytes32",
          "name": "_key",
          "type": "bytes32"
        }
      ],
      "name": "deleteBytes",
      "outputs": [],
      "stateMutability": "nonpayable",
      "type": "function"
    },
    {
      "inputs": [
        {
          "internalType": "bytes32",
          "name": "_key",
          "type": "bytes32"
        }
      ],
      "name": "deleteInt",
      "outputs": [],
      "stateMutability": "nonpayable",
      "type": "function"
    },
    {
      "inputs": [
        {
          "internalType": "bytes32",
          "name": "_key",
          "type": "bytes32"
        }
      ],
      "name": "deleteString",
      "outputs": [],
      "stateMutability": "nonpayable",
      "type": "function"
    },
    {
      "inputs": [
        {
          "internalType": "bytes32",
          "name": "_key",
          "type": "bytes32"
        }
      ],
      "name": "deleteUint",
      "outputs": [],
      "stateMutability": "nonpayable",
      "type": "function"
    },
    {
      "inputs": [
        {
          "internalType": "bytes32",
          "name": "_key",
          "type": "bytes32"
        }
      ],
      "name": "getAddress",
      "outputs": [
        {
          "internalType": "address",
          "name": "",
          "type": "address"
        }
      ],
      "stateMutability": "view",
      "type": "function"
    },
    {
      "inputs": [
        {
          "internalType": "bytes32",
          "name": "_key",
          "type": "bytes32"
        }
      ],
      "name": "getBool",
      "outputs": [
        {
          "internalType": "bool",
          "name": "",
          "type": "bool"
        }
      ],
      "stateMutability": "view",
      "type": "function"
    },
    {
      "inputs": [
        {
          "internalType": "bytes32",
          "name": "_key",
          "type": "bytes32"
        }
      ],
      "name": "getBytes",
      "outputs": [
        {
          "internalType": "bytes",
          "name": "",
          "type": "bytes"
        }
      ],
      "stateMutability": "view",
      "type": "function"
    },
    {
      "inputs": [
        {
          "internalType": "bytes32",
          "name": "_key",
          "type": "bytes32"
        }
      ],
      "name": "getInt",
      "outputs": [
        {
          "internalType": "int256",
          "name": "",
          "type": "int256"
        }
      ],
      "stateMutability": "view",
      "type": "function"
    },
    {
      "inputs": [
        {
          "internalType": "bytes32",
          "name": "_key",
          "type": "bytes32"
        }
      ],
      "name": "getString",
      "outputs": [
        {
          "internalType": "string",
          "name": "",
          "type": "string"
        }
      ],
      "stateMutability": "view",
      "type": "function"
    },
    {
      "inputs": [
        {
          "internalType": "bytes32",
          "name": "_key",
          "type": "bytes32"
        }
      ],
      "name": "getUint",
      "outputs": [
        {
          "internalType": "uint256",
          "name": "",
          "type": "uint256"
        }
      ],
      "stateMutability": "view",
      "type": "function"
    },
    {
      "inputs": [],
      "name": "owner",
      "outputs": [
        {
          "internalType": "address",
          "name": "",
          "type": "address"
        }
      ],
      "stateMutability": "view",
      "type": "function"
    },
    {
      "inputs": [],
      "name": "renounceOwnership",
      "outputs": [],
      "stateMutability": "nonpayable",
      "type": "function"
    },
    {
      "inputs": [
        {
          "internalType": "bytes32",
          "name": "_key",
          "type": "bytes32"
        },
        {
          "internalType": "address",
          "name": "_value",
          "type": "address"
        }
      ],
      "name": "setAddress",
      "outputs": [],
      "stateMutability": "nonpayable",
      "type": "function"
    },
    {
      "inputs": [
        {
          "internalType": "bytes32",
          "name": "_key",
          "type": "bytes32"
        },
        {
          "internalType": "bool",
          "name": "_value",
          "type": "bool"
        }
      ],
      "name": "setBool",
      "outputs": [],
      "stateMutability": "nonpayable",
      "type": "function"
    },
    {
      "inputs": [
        {
          "internalType": "bytes32",
          "name": "_key",
          "type": "bytes32"
        },
        {
          "internalType": "bytes",
          "name": "_value",
          "type": "bytes"
        }
      ],
      "name": "setBytes",
      "outputs": [],
      "stateMutability": "nonpayable",
      "type": "function"
    },
    {
      "inputs": [
        {
          "internalType": "bytes32",
          "name": "_key",
          "type": "bytes32"
        },
        {
          "internalType": "int256",
          "name": "_value",
          "type": "int256"
        }
      ],
      "name": "setInt",
      "outputs": [],
      "stateMutability": "nonpayable",
      "type": "function"
    },
    {
      "inputs": [
        {
          "internalType": "bytes32",
          "name": "_key",
          "type": "bytes32"
        },
        {
          "internalType": "string",
          "name": "_value",
          "type": "string"
        }
      ],
      "name": "setString",
      "outputs": [],
      "stateMutability": "nonpayable",
      "type": "function"
    },
    {
      "inputs": [
        {
          "internalType": "bytes32",
          "name": "_key",
          "type": "bytes32"
        },
        {
          "internalType": "uint256",
          "name": "_value",
          "type": "uint256"
        }
      ],
      "name": "setUint",
      "outputs": [],
      "stateMutability": "nonpayable",
      "type": "function"
    },
    {
      "inputs": [
        {
          "internalType": "address",
          "name": "newOwner",
          "type": "address"
        }
      ],
      "name": "transferOwnership",
      "outputs": [],
      "stateMutability": "nonpayable",
      "type": "function"
    }
  ],
  "bytecode": "0x60806040523480156200001157600080fd5b506040516200218d3803806200218d833981810160405260208110156200003757600080fd5b81019080805160405193929190846401000000008211156200005857600080fd5b838201915060208201858111156200006f57600080fd5b82518660208202830111640100000000821117156200008d57600080fd5b8083526020830192505050908051906020019060200280838360005b83811015620000c6578082015181840152602081019050620000a9565b505050509050016040525050506000620000e56200029560201b60201c565b9050806000806101000a81548173ffffffffffffffffffffffffffffffffffffffff021916908373ffffffffffffffffffffffffffffffffffffffff1602179055508073ffffffffffffffffffffffffffffffffffffffff16600073ffffffffffffffffffffffffffffffffffffffff167f8be0079c531659141344cd1fd0a4f28419497f9722a3daafe3b4186f6b6457e060405160405180910390a35060005b81518110156200028d578181815181106200019d57fe5b602002602001015160036000848481518110620001b657fe5b602002602001015160405160200180806020018373ffffffffffffffffffffffffffffffffffffffff168152602001828103825260108152602001807f636f6e74726163742e61646472657373000000000000000000000000000000008152506020019250505060405160208183030381529060405280519060200120815260200190815260200160002060006101000a81548173ffffffffffffffffffffffffffffffffffffffff021916908373ffffffffffffffffffffffffffffffffffffffff160217905550808060010191505062000186565b50506200029d565b600033905090565b611ee080620002ad6000396000f3fe608060405234801561001057600080fd5b50600436106101375760003560e01c80638da5cb5b116100b8578063ca446dd91161007c578063ca446dd91461065a578063dc97d962146106a8578063e2a4853a146106ea578063e2b202bf14610722578063f2fde38b14610750578063f6bb3cc41461079457610137565b80638da5cb5b1461045c578063986e791a14610490578063abfdcced14610537578063bd02d0f514610571578063c031a180146105b357610137565b8063616b59f6116100ff578063616b59f6146102ed5780636e8995501461031b578063715018a6146103e05780637ae1cfca146103ea5780638c1600951461042e57610137565b80630e14a3761461013c57806321f8a7211461016a5780632c62ff2d146101c25780632e28d084146101f05780633e49bed0146102b5575b600080fd5b6101686004803603602081101561015257600080fd5b81019080803590602001909291905050506107c2565b005b6101966004803603602081101561018057600080fd5b8101908080359060200190929190505050610918565b604051808273ffffffffffffffffffffffffffffffffffffffff16815260200191505060405180910390f35b6101ee600480360360208110156101d857600080fd5b8101908080359060200190929190505050610955565b005b6102b36004803603604081101561020657600080fd5b81019080803590602001909291908035906020019064010000000081111561022d57600080fd5b82018360208201111561023f57600080fd5b8035906020019184600183028401116401000000008311171561026157600080fd5b91908080601f016020809104026020016040519081016040528093929190818152602001838380828437600081840152601f19601f820116905080830192505050505050509192919290505050610a98565b005b6102eb600480360360408110156102cb57600080fd5b810190808035906020019092919080359060200190929190505050610be1565b005b6103196004803603602081101561030357600080fd5b8101908080359060200190929190505050610d1a565b005b6103de6004803603604081101561033157600080fd5b81019080803590602001909291908035906020019064010000000081111561035857600080fd5b82018360208201111561036a57600080fd5b8035906020019184600183028401116401000000008311171561038c57600080fd5b91908080601f016020809104026020016040519081016040528093929190818152602001838380828437600081840152601f19601f820116905080830192505050505050509192919290505050610e59565b005b6103e8610fa2565b005b6104166004803603602081101561040057600080fd5b8101908080359060200190929190505050611128565b60405180821515815260200191505060405180910390f35b61045a6004803603602081101561044457600080fd5b8101908080359060200190929190505050611152565b005b610464611289565b604051808273ffffffffffffffffffffffffffffffffffffffff16815260200191505060405180910390f35b6104bc600480360360208110156104a657600080fd5b81019080803590602001909291905050506112b2565b6040518080602001828103825283818151815260200191508051906020019080838360005b838110156104fc5780820151818401526020810190506104e1565b50505050905090810190601f1680156105295780820380516001836020036101000a031916815260200191505b509250505060405180910390f35b61056f6004803603604081101561054d57600080fd5b8101908080359060200190929190803515159060200190929190505050611367565b005b61059d6004803603602081101561058757600080fd5b81019080803590602001909291905050506114b3565b6040518082815260200191505060405180910390f35b6105df600480360360208110156105c957600080fd5b81019080803590602001909291905050506114d0565b6040518080602001828103825283818151815260200191508051906020019080838360005b8381101561061f578082015181840152602081019050610604565b50505050905090810190601f16801561064c5780820380516001836020036101000a031916815260200191505b509250505060405180910390f35b6106a66004803603604081101561067057600080fd5b8101908080359060200190929190803573ffffffffffffffffffffffffffffffffffffffff169060200190929190505050611585565b005b6106d4600480360360208110156106be57600080fd5b81019080803590602001909291905050506116f8565b6040518082815260200191505060405180910390f35b6107206004803603604081101561070057600080fd5b810190808035906020019092919080359060200190929190505050611715565b005b61074e6004803603602081101561073857600080fd5b810190808035906020019092919050505061184e565b005b6107926004803603602081101561076657600080fd5b81019080803573ffffffffffffffffffffffffffffffffffffffff169060200190929190505050611985565b005b6107c0600480360360208110156107aa57600080fd5b8101908080359060200190929190505050611b90565b005b6107ca611289565b73ffffffffffffffffffffffffffffffffffffffff163373ffffffffffffffffffffffffffffffffffffffff16146108df57600073ffffffffffffffffffffffffffffffffffffffff16600360003360405160200180806020018373ffffffffffffffffffffffffffffffffffffffff168152602001828103825260108152602001807f636f6e74726163742e61646472657373000000000000000000000000000000008152506020019250505060405160208183030381529060405280519060200120815260200190815260200160002060009054906101000a900473ffffffffffffffffffffffffffffffffffffffff1673ffffffffffffffffffffffffffffffffffffffff1614156108de57600080fd5b5b6003600082815260200190815260200160002060006101000a81549073ffffffffffffffffffffffffffffffffffffffff021916905550565b60006003600083815260200190815260200160002060009054906101000a900473ffffffffffffffffffffffffffffffffffffffff169050919050565b61095d611289565b73ffffffffffffffffffffffffffffffffffffffff163373ffffffffffffffffffffffffffffffffffffffff1614610a7257600073ffffffffffffffffffffffffffffffffffffffff16600360003360405160200180806020018373ffffffffffffffffffffffffffffffffffffffff168152602001828103825260108152602001807f636f6e74726163742e61646472657373000000000000000000000000000000008152506020019250505060405160208183030381529060405280519060200120815260200190815260200160002060009054906101000a900473ffffffffffffffffffffffffffffffffffffffff1673ffffffffffffffffffffffffffffffffffffffff161415610a7157600080fd5b5b6005600082815260200190815260200160002060006101000a81549060ff021916905550565b610aa0611289565b73ffffffffffffffffffffffffffffffffffffffff163373ffffffffffffffffffffffffffffffffffffffff1614610bb557600073ffffffffffffffffffffffffffffffffffffffff16600360003360405160200180806020018373ffffffffffffffffffffffffffffffffffffffff168152602001828103825260108152602001807f636f6e74726163742e61646472657373000000000000000000000000000000008152506020019250505060405160208183030381529060405280519060200120815260200190815260200160002060009054906101000a900473ffffffffffffffffffffffffffffffffffffffff1673ffffffffffffffffffffffffffffffffffffffff161415610bb457600080fd5b5b80600460008481526020019081526020016000209080519060200190610bdc929190611cd7565b505050565b610be9611289565b73ffffffffffffffffffffffffffffffffffffffff163373ffffffffffffffffffffffffffffffffffffffff1614610cfe57600073ffffffffffffffffffffffffffffffffffffffff16600360003360405160200180806020018373ffffffffffffffffffffffffffffffffffffffff168152602001828103825260108152602001807f636f6e74726163742e61646472657373000000000000000000000000000000008152506020019250505060405160208183030381529060405280519060200120815260200190815260200160002060009054906101000a900473ffffffffffffffffffffffffffffffffffffffff1673ffffffffffffffffffffffffffffffffffffffff161415610cfd57600080fd5b5b8060066000848152602001908152602001600020819055505050565b610d22611289565b73ffffffffffffffffffffffffffffffffffffffff163373ffffffffffffffffffffffffffffffffffffffff1614610e3757600073ffffffffffffffffffffffffffffffffffffffff16600360003360405160200180806020018373ffffffffffffffffffffffffffffffffffffffff168152602001828103825260108152602001807f636f6e74726163742e61646472657373000000000000000000000000000000008152506020019250505060405160208183030381529060405280519060200120815260200190815260200160002060009054906101000a900473ffffffffffffffffffffffffffffffffffffffff1673ffffffffffffffffffffffffffffffffffffffff161415610e3657600080fd5b5b600460008281526020019081526020016000206000610e569190611d57565b50565b610e61611289565b73ffffffffffffffffffffffffffffffffffffffff163373ffffffffffffffffffffffffffffffffffffffff1614610f7657600073ffffffffffffffffffffffffffffffffffffffff16600360003360405160200180806020018373ffffffffffffffffffffffffffffffffffffffff168152602001828103825260108152602001807f636f6e74726163742e61646472657373000000000000000000000000000000008152506020019250505060405160208183030381529060405280519060200120815260200190815260200160002060009054906101000a900473ffffffffffffffffffffffffffffffffffffffff1673ffffffffffffffffffffffffffffffffffffffff161415610f7557600080fd5b5b80600260008481526020019081526020016000209080519060200190610f9d929190611d9f565b505050565b610faa611ccf565b73ffffffffffffffffffffffffffffffffffffffff1660008054906101000a900473ffffffffffffffffffffffffffffffffffffffff1673ffffffffffffffffffffffffffffffffffffffff161461106a576040517f08c379a00000000000000000000000000000000000000000000000000000000081526004018080602001828103825260208152602001807f4f776e61626c653a2063616c6c6572206973206e6f7420746865206f776e657281525060200191505060405180910390fd5b600073ffffffffffffffffffffffffffffffffffffffff1660008054906101000a900473ffffffffffffffffffffffffffffffffffffffff1673ffffffffffffffffffffffffffffffffffffffff167f8be0079c531659141344cd1fd0a4f28419497f9722a3daafe3b4186f6b6457e060405160405180910390a360008060006101000a81548173ffffffffffffffffffffffffffffffffffffffff021916908373ffffffffffffffffffffffffffffffffffffffff160217905550565b60006005600083815260200190815260200160002060009054906101000a900460ff169050919050565b61115a611289565b73ffffffffffffffffffffffffffffffffffffffff163373ffffffffffffffffffffffffffffffffffffffff161461126f57600073ffffffffffffffffffffffffffffffffffffffff16600360003360405160200180806020018373ffffffffffffffffffffffffffffffffffffffff168152602001828103825260108152602001807f636f6e74726163742e61646472657373000000000000000000000000000000008152506020019250505060405160208183030381529060405280519060200120815260200190815260200160002060009054906101000a900473ffffffffffffffffffffffffffffffffffffffff1673ffffffffffffffffffffffffffffffffffffffff16141561126e57600080fd5b5b600660008281526020019081526020016000206000905550565b60008060009054906101000a900473ffffffffffffffffffffffffffffffffffffffff16905090565b6060600260008381526020019081526020016000208054600181600116156101000203166002900480601f01602080910402602001604051908101604052809291908181526020018280546001816001161561010002031660029004801561135b5780601f106113305761010080835404028352916020019161135b565b820191906000526020600020905b81548152906001019060200180831161133e57829003601f168201915b50505050509050919050565b61136f611289565b73ffffffffffffffffffffffffffffffffffffffff163373ffffffffffffffffffffffffffffffffffffffff161461148457600073ffffffffffffffffffffffffffffffffffffffff16600360003360405160200180806020018373ffffffffffffffffffffffffffffffffffffffff168152602001828103825260108152602001807f636f6e74726163742e61646472657373000000000000000000000000000000008152506020019250505060405160208183030381529060405280519060200120815260200190815260200160002060009054906101000a900473ffffffffffffffffffffffffffffffffffffffff1673ffffffffffffffffffffffffffffffffffffffff16141561148357600080fd5b5b806005600084815260200190815260200160002060006101000a81548160ff0219169083151502179055505050565b600060016000838152602001908152602001600020549050919050565b6060600460008381526020019081526020016000208054600181600116156101000203166002900480601f0160208091040260200160405190810160405280929190818152602001828054600181600116156101000203166002900480156115795780601f1061154e57610100808354040283529160200191611579565b820191906000526020600020905b81548152906001019060200180831161155c57829003601f168201915b50505050509050919050565b61158d611289565b73ffffffffffffffffffffffffffffffffffffffff163373ffffffffffffffffffffffffffffffffffffffff16146116a257600073ffffffffffffffffffffffffffffffffffffffff16600360003360405160200180806020018373ffffffffffffffffffffffffffffffffffffffff168152602001828103825260108152602001807f636f6e74726163742e61646472657373000000000000000000000000000000008152506020019250505060405160208183030381529060405280519060200120815260200190815260200160002060009054906101000a900473ffffffffffffffffffffffffffffffffffffffff1673ffffffffffffffffffffffffffffffffffffffff1614156116a157600080fd5b5b806003600084815260200190815260200160002060006101000a81548173ffffffffffffffffffffffffffffffffffffffff021916908373ffffffffffffffffffffffffffffffffffffffff1602179055505050565b600060066000838152602001908152602001600020549050919050565b61171d611289565b73ffffffffffffffffffffffffffffffffffffffff163373ffffffffffffffffffffffffffffffffffffffff161461183257600073ffffffffffffffffffffffffffffffffffffffff16600360003360405160200180806020018373ffffffffffffffffffffffffffffffffffffffff168152602001828103825260108152602001807f636f6e74726163742e61646472657373000000000000000000000000000000008152506020019250505060405160208183030381529060405280519060200120815260200190815260200160002060009054906101000a900473ffffffffffffffffffffffffffffffffffffffff1673ffffffffffffffffffffffffffffffffffffffff16141561183157600080fd5b5b8060016000848152602001908152602001600020819055505050565b611856611289565b73ffffffffffffffffffffffffffffffffffffffff163373ffffffffffffffffffffffffffffffffffffffff161461196b57600073ffffffffffffffffffffffffffffffffffffffff16600360003360405160200180806020018373ffffffffffffffffffffffffffffffffffffffff168152602001828103825260108152602001807f636f6e74726163742e61646472657373000000000000000000000000000000008152506020019250505060405160208183030381529060405280519060200120815260200190815260200160002060009054906101000a900473ffffffffffffffffffffffffffffffffffffffff1673ffffffffffffffffffffffffffffffffffffffff16141561196a57600080fd5b5b600160008281526020019081526020016000206000905550565b61198d611ccf565b73ffffffffffffffffffffffffffffffffffffffff1660008054906101000a900473ffffffffffffffffffffffffffffffffffffffff1673ffffffffffffffffffffffffffffffffffffffff1614611a4d576040517f08c379a00000000000000000000000000000000000000000000000000000000081526004018080602001828103825260208152602001807f4f776e61626c653a2063616c6c6572206973206e6f7420746865206f776e657281525060200191505060405180910390fd5b600073ffffffffffffffffffffffffffffffffffffffff168173ffffffffffffffffffffffffffffffffffffffff161415611ad3576040517f08c379a0000000000000000000000000000000000000000000000000000000008152600401808060200182810382526026815260200180611e856026913960400191505060405180910390fd5b8073ffffffffffffffffffffffffffffffffffffffff1660008054906101000a900473ffffffffffffffffffffffffffffffffffffffff1673ffffffffffffffffffffffffffffffffffffffff167f8be0079c531659141344cd1fd0a4f28419497f9722a3daafe3b4186f6b6457e060405160405180910390a3806000806101000a81548173ffffffffffffffffffffffffffffffffffffffff021916908373ffffffffffffffffffffffffffffffffffffffff16021790555050565b611b98611289565b73ffffffffffffffffffffffffffffffffffffffff163373ffffffffffffffffffffffffffffffffffffffff1614611cad57600073ffffffffffffffffffffffffffffffffffffffff16600360003360405160200180806020018373ffffffffffffffffffffffffffffffffffffffff168152602001828103825260108152602001807f636f6e74726163742e61646472657373000000000000000000000000000000008152506020019250505060405160208183030381529060405280519060200120815260200190815260200160002060009054906101000a900473ffffffffffffffffffffffffffffffffffffffff1673ffffffffffffffffffffffffffffffffffffffff161415611cac57600080fd5b5b600260008281526020019081526020016000206000611ccc9190611e1f565b50565b600033905090565b828054600181600116156101000203166002900490600052602060002090601f016020900481019282601f10611d1857805160ff1916838001178555611d46565b82800160010185558215611d46579182015b82811115611d45578251825591602001919060010190611d2a565b5b509050611d539190611e67565b5090565b50805460018160011615610100020316600290046000825580601f10611d7d5750611d9c565b601f016020900490600052602060002090810190611d9b9190611e67565b5b50565b828054600181600116156101000203166002900490600052602060002090601f016020900481019282601f10611de057805160ff1916838001178555611e0e565b82800160010185558215611e0e579182015b82811115611e0d578251825591602001919060010190611df2565b5b509050611e1b9190611e67565b5090565b50805460018160011615610100020316600290046000825580601f10611e455750611e64565b601f016020900490600052602060002090810190611e639190611e67565b5b50565b5b80821115611e80576000816000905550600101611e68565b509056fe4f776e61626c653a206e6577206f776e657220697320746865207a65726f2061646472657373a26469706673582212201abc751a21b212f7b67440bd5f4b6c4f33beff5c4000592dbdf11f81d741265664736f6c63430007030033",
  "linkReferences": {},
  "deployedLinkReferences": {}
}