{
  "_format": "hh-sol-artifact-1",
  "contractName": "QuallaSubscription",
  "sourceName": "contracts/QuallaSubscription.sol",
  "abi": [
    {
      "inputs": [
        {
          "internalType": "string",
          "name": "uri_",
          "type": "string"
        },
        {
          "internalType": "uint256",
          "name": "chainId_",
          "type": "uint256"
        }
      ],
      "stateMutability": "nonpayable",
      "type": "constructor"
    },
    {
      "anonymous": false,
      "inputs": [
        {
          "indexed": true,
          "internalType": "address",
          "name": "account",
          "type": "address"
        },
        {
          "indexed": true,
          "internalType": "address",
          "name": "operator",
          "type": "address"
        },
        {
          "indexed": false,
          "internalType": "bool",
          "name": "approved",
          "type": "bool"
        }
      ],
      "name": "ApprovalForAll",
      "type": "event"
    },
    {
      "anonymous": false,
      "inputs": [
        {
          "indexed": true,
          "internalType": "address",
          "name": "operator",
          "type": "address"
        },
        {
          "indexed": true,
          "internalType": "address",
          "name": "from",
          "type": "address"
        },
        {
          "indexed": true,
          "internalType": "address",
          "name": "to",
          "type": "address"
        },
        {
          "indexed": false,
          "internalType": "uint256[]",
          "name": "ids",
          "type": "uint256[]"
        },
        {
          "indexed": false,
          "internalType": "uint256[]",
          "name": "values",
          "type": "uint256[]"
        }
      ],
      "name": "TransferBatch",
      "type": "event"
    },
    {
      "anonymous": false,
      "inputs": [
        {
          "indexed": true,
          "internalType": "address",
          "name": "operator",
          "type": "address"
        },
        {
          "indexed": true,
          "internalType": "address",
          "name": "from",
          "type": "address"
        },
        {
          "indexed": true,
          "internalType": "address",
          "name": "to",
          "type": "address"
        },
        {
          "indexed": false,
          "internalType": "uint256",
          "name": "id",
          "type": "uint256"
        },
        {
          "indexed": false,
          "internalType": "uint256",
          "name": "value",
          "type": "uint256"
        }
      ],
      "name": "TransferSingle",
      "type": "event"
    },
    {
      "anonymous": false,
      "inputs": [
        {
          "indexed": false,
          "internalType": "string",
          "name": "value",
          "type": "string"
        },
        {
          "indexed": true,
          "internalType": "uint256",
          "name": "id",
          "type": "uint256"
        }
      ],
      "name": "URI",
      "type": "event"
    },
    {
      "anonymous": false,
      "inputs": [
        {
          "indexed": false,
          "internalType": "address",
          "name": "master",
          "type": "address"
        },
        {
          "indexed": false,
          "internalType": "uint256",
          "name": "fee",
          "type": "uint256"
        }
      ],
      "name": "contractModified",
      "type": "event"
    },
    {
      "inputs": [],
      "name": "DOMAIN_SEPARATOR",
      "outputs": [
        {
          "internalType": "bytes32",
          "name": "",
          "type": "bytes32"
        }
      ],
      "stateMutability": "view",
      "type": "function"
    },
    {
      "inputs": [],
      "name": "USER_TYPEHASH",
      "outputs": [
        {
          "internalType": "bytes32",
          "name": "",
          "type": "bytes32"
        }
      ],
      "stateMutability": "view",
      "type": "function"
    },
    {
      "inputs": [
        {
          "internalType": "address",
          "name": "account",
          "type": "address"
        },
        {
          "internalType": "uint256",
          "name": "id",
          "type": "uint256"
        }
      ],
      "name": "balanceOf",
      "outputs": [
        {
          "internalType": "uint256",
          "name": "",
          "type": "uint256"
        }
      ],
      "stateMutability": "view",
      "type": "function"
    },
    {
      "inputs": [
        {
          "internalType": "address[]",
          "name": "accounts",
          "type": "address[]"
        },
        {
          "internalType": "uint256[]",
          "name": "ids",
          "type": "uint256[]"
        }
      ],
      "name": "balanceOfBatch",
      "outputs": [
        {
          "internalType": "uint256[]",
          "name": "",
          "type": "uint256[]"
        }
      ],
      "stateMutability": "view",
      "type": "function"
    },
    {
      "inputs": [
        {
          "internalType": "uint256",
          "name": "",
          "type": "uint256"
        }
      ],
      "name": "baseTokenToIndex",
      "outputs": [
        {
          "internalType": "uint256",
          "name": "",
          "type": "uint256"
        }
      ],
      "stateMutability": "view",
      "type": "function"
    },
    {
      "inputs": [
        {
          "internalType": "uint256",
          "name": "",
          "type": "uint256"
        }
      ],
      "name": "baseTokens",
      "outputs": [
        {
          "internalType": "uint256",
          "name": "paymentValue",
          "type": "uint256"
        },
        {
          "internalType": "uint256",
          "name": "index",
          "type": "uint256"
        },
        {
          "internalType": "address",
          "name": "paymentToken",
          "type": "address"
        },
        {
          "internalType": "address",
          "name": "creator",
          "type": "address"
        }
      ],
      "stateMutability": "view",
      "type": "function"
    },
    {
      "inputs": [
        {
          "internalType": "uint256",
          "name": "id",
          "type": "uint256"
        },
        {
          "internalType": "uint256",
          "name": "amount",
          "type": "uint256"
        },
        {
          "internalType": "uint8",
          "name": "v",
          "type": "uint8"
        },
        {
          "internalType": "bytes32",
          "name": "r",
          "type": "bytes32"
        },
        {
          "internalType": "bytes32",
          "name": "s",
          "type": "bytes32"
        }
      ],
      "name": "burnSubscription",
      "outputs": [],
      "stateMutability": "nonpayable",
      "type": "function"
    },
    {
      "inputs": [
        {
          "internalType": "address",
          "name": "subscriber",
          "type": "address"
        },
        {
          "internalType": "uint256",
          "name": "id",
          "type": "uint256"
        },
        {
          "internalType": "uint8",
          "name": "v",
          "type": "uint8"
        },
        {
          "internalType": "bytes32",
          "name": "r",
          "type": "bytes32"
        },
        {
          "internalType": "bytes32",
          "name": "s",
          "type": "bytes32"
        }
      ],
      "name": "buySubscription",
      "outputs": [],
      "stateMutability": "nonpayable",
      "type": "function"
    },
    {
      "inputs": [],
      "name": "chainId",
      "outputs": [
        {
          "internalType": "uint256",
          "name": "",
          "type": "uint256"
        }
      ],
      "stateMutability": "view",
      "type": "function"
    },
    {
      "inputs": [
        {
          "internalType": "uint256",
          "name": "id_",
          "type": "uint256"
        },
        {
          "internalType": "address",
          "name": "subscriber",
          "type": "address"
        }
      ],
      "name": "executeSubscription",
      "outputs": [],
      "stateMutability": "nonpayable",
      "type": "function"
    },
    {
      "inputs": [],
      "name": "fee",
      "outputs": [
        {
          "internalType": "uint256",
          "name": "",
          "type": "uint256"
        }
      ],
      "stateMutability": "view",
      "type": "function"
    },
    {
      "inputs": [
        {
          "internalType": "address",
          "name": "account",
          "type": "address"
        },
        {
          "internalType": "address",
          "name": "operator",
          "type": "address"
        }
      ],
      "name": "isApprovedForAll",
      "outputs": [
        {
          "internalType": "bool",
          "name": "",
          "type": "bool"
        }
      ],
      "stateMutability": "view",
      "type": "function"
    },
    {
      "inputs": [
        {
          "internalType": "address",
          "name": "creator",
          "type": "address"
        },
        {
          "internalType": "uint256[]",
          "name": "amounts",
          "type": "uint256[]"
        },
        {
          "internalType": "address[]",
          "name": "paymentTokens",
          "type": "address[]"
        },
        {
          "internalType": "uint256[]",
          "name": "paymentValues",
          "type": "uint256[]"
        },
        {
          "internalType": "uint8",
          "name": "v",
          "type": "uint8"
        },
        {
          "internalType": "bytes32",
          "name": "r",
          "type": "bytes32"
        },
        {
          "internalType": "bytes32",
          "name": "s",
          "type": "bytes32"
        }
      ],
      "name": "mintBatchSubscription",
      "outputs": [],
      "stateMutability": "nonpayable",
      "type": "function"
    },
    {
      "inputs": [
        {
          "internalType": "address",
          "name": "creator",
          "type": "address"
        },
        {
          "internalType": "uint256",
          "name": "amount",
          "type": "uint256"
        },
        {
          "internalType": "address",
          "name": "paymentToken",
          "type": "address"
        },
        {
          "internalType": "uint256",
          "name": "paymentValue",
          "type": "uint256"
        },
        {
          "internalType": "uint8",
          "name": "v",
          "type": "uint8"
        },
        {
          "internalType": "bytes32",
          "name": "r",
          "type": "bytes32"
        },
        {
          "internalType": "bytes32",
          "name": "s",
          "type": "bytes32"
        }
      ],
      "name": "mintSubscription",
      "outputs": [],
      "stateMutability": "nonpayable",
      "type": "function"
    },
    {
      "inputs": [],
      "name": "name",
      "outputs": [
        {
          "internalType": "string",
          "name": "",
          "type": "string"
        }
      ],
      "stateMutability": "view",
      "type": "function"
    },
    {
      "inputs": [
        {
          "internalType": "address",
          "name": "from",
          "type": "address"
        },
        {
          "internalType": "address",
          "name": "to",
          "type": "address"
        },
        {
          "internalType": "uint256[]",
          "name": "ids",
          "type": "uint256[]"
        },
        {
          "internalType": "uint256[]",
          "name": "amounts",
          "type": "uint256[]"
        },
        {
          "internalType": "bytes",
          "name": "data",
          "type": "bytes"
        }
      ],
      "name": "safeBatchTransferFrom",
      "outputs": [],
      "stateMutability": "nonpayable",
      "type": "function"
    },
    {
      "inputs": [
        {
          "internalType": "address",
          "name": "from",
          "type": "address"
        },
        {
          "internalType": "address",
          "name": "to",
          "type": "address"
        },
        {
          "internalType": "uint256",
          "name": "id",
          "type": "uint256"
        },
        {
          "internalType": "uint256",
          "name": "amount",
          "type": "uint256"
        },
        {
          "internalType": "bytes",
          "name": "data",
          "type": "bytes"
        }
      ],
      "name": "safeTransferFrom",
      "outputs": [],
      "stateMutability": "nonpayable",
      "type": "function"
    },
    {
      "inputs": [
        {
          "internalType": "address",
          "name": "operator",
          "type": "address"
        },
        {
          "internalType": "bool",
          "name": "approved",
          "type": "bool"
        }
      ],
      "name": "setApprovalForAll",
      "outputs": [],
      "stateMutability": "nonpayable",
      "type": "function"
    },
    {
      "inputs": [
        {
          "internalType": "uint256",
          "name": "_fee",
          "type": "uint256"
        }
      ],
      "name": "setFee",
      "outputs": [],
      "stateMutability": "nonpayable",
      "type": "function"
    },
    {
      "inputs": [
        {
          "internalType": "address",
          "name": "_master",
          "type": "address"
        }
      ],
      "name": "setMaster",
      "outputs": [],
      "stateMutability": "nonpayable",
      "type": "function"
    },
    {
      "inputs": [
        {
          "internalType": "uint256",
          "name": "",
          "type": "uint256"
        }
      ],
      "name": "subTokenToIndex",
      "outputs": [
        {
          "internalType": "uint256",
          "name": "",
          "type": "uint256"
        }
      ],
      "stateMutability": "view",
      "type": "function"
    },
    {
      "inputs": [
        {
          "internalType": "uint256",
          "name": "",
          "type": "uint256"
        }
      ],
      "name": "subTokens",
      "outputs": [
        {
          "internalType": "uint64",
          "name": "nextWithdraw",
          "type": "uint64"
        },
        {
          "internalType": "uint64",
          "name": "mintStamp",
          "type": "uint64"
        },
        {
          "internalType": "uint8",
          "name": "nonce",
          "type": "uint8"
        }
      ],
      "stateMutability": "view",
      "type": "function"
    },
    {
      "inputs": [
        {
          "internalType": "bytes4",
          "name": "interfaceId",
          "type": "bytes4"
        }
      ],
      "name": "supportsInterface",
      "outputs": [
        {
          "internalType": "bool",
          "name": "",
          "type": "bool"
        }
      ],
      "stateMutability": "view",
      "type": "function"
    },
    {
      "inputs": [],
      "name": "tokenNonce",
      "outputs": [
        {
          "internalType": "uint256",
          "name": "",
          "type": "uint256"
        }
      ],
      "stateMutability": "view",
      "type": "function"
    },
    {
      "inputs": [
        {
          "internalType": "address",
          "name": "subscriber",
          "type": "address"
        },
        {
          "internalType": "uint256",
          "name": "id_",
          "type": "uint256"
        },
        {
          "internalType": "uint8",
          "name": "v",
          "type": "uint8"
        },
        {
          "internalType": "bytes32",
          "name": "r",
          "type": "bytes32"
        },
        {
          "internalType": "bytes32",
          "name": "s",
          "type": "bytes32"
        }
      ],
      "name": "unSubscribe",
      "outputs": [],
      "stateMutability": "nonpayable",
      "type": "function"
    },
    {
      "inputs": [
        {
          "internalType": "uint256",
          "name": "",
          "type": "uint256"
        }
      ],
      "name": "uri",
      "outputs": [
        {
          "internalType": "string",
          "name": "",
          "type": "string"
        }
      ],
      "stateMutability": "view",
      "type": "function"
    },
    {
      "inputs": [
        {
          "internalType": "address",
          "name": "",
          "type": "address"
        }
      ],
      "name": "userNonce",
      "outputs": [
        {
          "internalType": "uint256",
          "name": "",
          "type": "uint256"
        }
      ],
      "stateMutability": "view",
      "type": "function"
    },
    {
      "inputs": [],
      "name": "version",
      "outputs": [
        {
          "internalType": "string",
          "name": "",
          "type": "string"
        }
      ],
      "stateMutability": "view",
      "type": "function"
    }
  ],
  "bytecode": "0x6080604052600560065560016008553480156200001b57600080fd5b506040516200591438038062005914833981810160405260408110156200004157600080fd5b81019080805160405193929190846401000000008211156200006257600080fd5b838201915060208201858111156200007957600080fd5b82518660018202830111640100000000821117156200009757600080fd5b8083526020830192505050908051906020019080838360005b83811015620000cd578082015181840152602081019050620000b0565b50505050905090810190601f168015620000fb5780820380516001836020036101000a031916815260200191505b50604052602001805190602001909291905050508181816200012a6301ffc9a760e01b620002eb60201b60201c565b6200013b81620003f460201b60201c565b6200015363d9b67a2660e01b620002eb60201b60201c565b6200016b630e89341c60e01b620002eb60201b60201c565b506200018463d9b67a2660e01b620002eb60201b60201c565b6200019c630e89341c60e01b620002eb60201b60201c565b806005819055507f8b73c3c69bb8fe3d512ecc4cf759cc79239f7b179b0ffacaa9a75d522b39400f6040518060400160405280601381526020017f5175616c6c6120537562736372697074696f6e00000000000000000000000000815250805190602001206040518060400160405280600181526020017f31000000000000000000000000000000000000000000000000000000000000008152508051906020012060055430604051602001808681526020018581526020018481526020018381526020018273ffffffffffffffffffffffffffffffffffffffff168152602001955050505050506040516020818303038152906040528051906020012060048190555033600760006101000a81548173ffffffffffffffffffffffffffffffffffffffff021916908373ffffffffffffffffffffffffffffffffffffffff16021790555050505050620004b6565b63ffffffff60e01b817bffffffffffffffffffffffffffffffffffffffffffffffffffffffff1916141562000388576040517f08c379a000000000000000000000000000000000000000000000000000000000815260040180806020018281038252601c8152602001807f4552433136353a20696e76616c696420696e746572666163652069640000000081525060200191505060405180910390fd5b6001600080837bffffffffffffffffffffffffffffffffffffffffffffffffffffffff19167bffffffffffffffffffffffffffffffffffffffffffffffffffffffff1916815260200190815260200160002060006101000a81548160ff02191690831515021790555050565b80600390805190602001906200040c92919062000410565b5050565b828054600181600116156101000203166002900490600052602060002090601f016020900481019282601f106200045357805160ff191683800117855562000484565b8280016001018555821562000484579182015b828111156200048357825182559160200191906001019062000466565b5b50905062000493919062000497565b5090565b5b80821115620004b257600081600090555060010162000498565b5090565b61544e80620004c66000396000f3fe608060405234801561001057600080fd5b50600436106101c35760003560e01c806354fd4d50116100f9578063a22cb46511610097578063e985e9c511610071578063e985e9c514610e85578063f242432a14610eff578063f52ce4251461100e578063f73b43a814611075576101c3565b8063a22cb46514610da8578063b166acd114610df8578063ddca3f4314610e67576101c3565b806390f71b44116100d357806390f71b4414610cc557806395fbbf5014610ce35780639a8a059214610d3c5780639eb9abde14610d5a576101c3565b806354fd4d5014610bd257806369fe0e2d14610c555780636abfa50514610c83576101c3565b80632e04b8e7116101665780633644e515116101405780633644e515146107595780633a9e6e44146107775780634e1273f4146108105780634fce9474146109b1576101c3565b80632e04b8e71461045b5780632eb2c2d6146104b3578063328123a2146106d6576101c3565b806306fdde03116101a257806306fdde03146102cf5780630e89341c146103525780631add3108146103f957806326fae0d314610417576101c3565b8062fdd58e146101c857806301ffc9a71461022a5780630560b37d1461028d575b600080fd5b610214600480360360408110156101de57600080fd5b81019080803573ffffffffffffffffffffffffffffffffffffffff169060200190929190803590602001909291905050506110e4565b6040518082815260200191505060405180910390f35b6102756004803603602081101561024057600080fd5b8101908080357bffffffffffffffffffffffffffffffffffffffffffffffffffffffff191690602001909291905050506111c4565b60405180821515815260200191505060405180910390f35b6102b9600480360360208110156102a357600080fd5b810190808035906020019092919050505061122b565b6040518082815260200191505060405180910390f35b6102d7611243565b6040518080602001828103825283818151815260200191508051906020019080838360005b838110156103175780820151818401526020810190506102fc565b50505050905090810190601f1680156103445780820380516001836020036101000a031916815260200191505b509250505060405180910390f35b61037e6004803603602081101561036857600080fd5b810190808035906020019092919050505061127c565b6040518080602001828103825283818151815260200191508051906020019080838360005b838110156103be5780820151818401526020810190506103a3565b50505050905090810190601f1680156103eb5780820380516001836020036101000a031916815260200191505b509250505060405180910390f35b610401611320565b6040518082815260200191505060405180910390f35b6104596004803603602081101561042d57600080fd5b81019080803573ffffffffffffffffffffffffffffffffffffffff169060200190929190505050611344565b005b61049d6004803603602081101561047157600080fd5b81019080803573ffffffffffffffffffffffffffffffffffffffff1690602001909291905050506114c4565b6040518082815260200191505060405180910390f35b6106d4600480360360a08110156104c957600080fd5b81019080803573ffffffffffffffffffffffffffffffffffffffff169060200190929190803573ffffffffffffffffffffffffffffffffffffffff1690602001909291908035906020019064010000000081111561052657600080fd5b82018360208201111561053857600080fd5b8035906020019184602083028401116401000000008311171561055a57600080fd5b919080806020026020016040519081016040528093929190818152602001838360200280828437600081840152601f19601f820116905080830192505050505050509192919290803590602001906401000000008111156105ba57600080fd5b8201836020820111156105cc57600080fd5b803590602001918460208302840111640100000000831117156105ee57600080fd5b919080806020026020016040519081016040528093929190818152602001838360200280828437600081840152601f19601f8201169050808301925050505050505091929192908035906020019064010000000081111561064e57600080fd5b82018360208201111561066057600080fd5b8035906020019184600183028401116401000000008311171561068257600080fd5b91908080601f016020809104026020016040519081016040528093929190818152602001838380828437600081840152601f19601f8201169050808301925050505050505091929192905050506114dc565b005b610702600480360360208110156106ec57600080fd5b81019080803590602001909291905050506118c4565b604051808581526020018481526020018373ffffffffffffffffffffffffffffffffffffffff1681526020018273ffffffffffffffffffffffffffffffffffffffff16815260200194505050505060405180910390f35b610761611941565b6040518082815260200191505060405180910390f35b61080e600480360360e081101561078d57600080fd5b81019080803573ffffffffffffffffffffffffffffffffffffffff16906020019092919080359060200190929190803573ffffffffffffffffffffffffffffffffffffffff16906020019092919080359060200190929190803560ff1690602001909291908035906020019092919080359060200190929190505050611947565b005b61095a6004803603604081101561082657600080fd5b810190808035906020019064010000000081111561084357600080fd5b82018360208201111561085557600080fd5b8035906020019184602083028401116401000000008311171561087757600080fd5b919080806020026020016040519081016040528093929190818152602001838360200280828437600081840152601f19601f820116905080830192505050505050509192919290803590602001906401000000008111156108d757600080fd5b8201836020820111156108e957600080fd5b8035906020019184602083028401116401000000008311171561090b57600080fd5b919080806020026020016040519081016040528093929190818152602001838360200280828437600081840152601f19601f820116905080830192505050505050509192919290505050611b35565b6040518080602001828103825283818151815260200191508051906020019060200280838360005b8381101561099d578082015181840152602081019050610982565b505050509050019250505060405180910390f35b610bd0600480360360e08110156109c757600080fd5b81019080803573ffffffffffffffffffffffffffffffffffffffff16906020019092919080359060200190640100000000811115610a0457600080fd5b820183602082011115610a1657600080fd5b80359060200191846020830284011164010000000083111715610a3857600080fd5b919080806020026020016040519081016040528093929190818152602001838360200280828437600081840152601f19601f82011690508083019250505050505050919291929080359060200190640100000000811115610a9857600080fd5b820183602082011115610aaa57600080fd5b80359060200191846020830284011164010000000083111715610acc57600080fd5b919080806020026020016040519081016040528093929190818152602001838360200280828437600081840152601f19601f82011690508083019250505050505050919291929080359060200190640100000000811115610b2c57600080fd5b820183602082011115610b3e57600080fd5b80359060200191846020830284011164010000000083111715610b6057600080fd5b919080806020026020016040519081016040528093929190818152602001838360200280828437600081840152601f19601f820116905080830192505050505050509192919290803560ff1690602001909291908035906020019092919080359060200190929190505050611d27565b005b610bda611ff1565b6040518080602001828103825283818151815260200191508051906020019080838360005b83811015610c1a578082015181840152602081019050610bff565b50505050905090810190601f168015610c475780820380516001836020036101000a031916815260200191505b509250505060405180910390f35b610c8160048036036020811015610c6b57600080fd5b810190808035906020019092919050505061202a565b005b610caf60048036036020811015610c9957600080fd5b81019080803590602001909291905050506121e7565b6040518082815260200191505060405180910390f35b610ccd6121ff565b6040518082815260200191505060405180910390f35b610d3a600480360360a0811015610cf957600080fd5b810190808035906020019092919080359060200190929190803560ff1690602001909291908035906020019092919080359060200190929190505050612205565b005b610d44612420565b6040518082815260200191505060405180910390f35b610da660048036036040811015610d7057600080fd5b8101908080359060200190929190803573ffffffffffffffffffffffffffffffffffffffff169060200190929190505050612426565b005b610df660048036036040811015610dbe57600080fd5b81019080803573ffffffffffffffffffffffffffffffffffffffff169060200190929190803515159060200190929190505050612eef565b005b610e65600480360360a0811015610e0e57600080fd5b81019080803573ffffffffffffffffffffffffffffffffffffffff16906020019092919080359060200190929190803560ff1690602001909291908035906020019092919080359060200190929190505050613088565b005b610e6f6132df565b6040518082815260200191505060405180910390f35b610ee760048036036040811015610e9b57600080fd5b81019080803573ffffffffffffffffffffffffffffffffffffffff169060200190929190803573ffffffffffffffffffffffffffffffffffffffff1690602001909291905050506132e5565b60405180821515815260200191505060405180910390f35b61100c600480360360a0811015610f1557600080fd5b81019080803573ffffffffffffffffffffffffffffffffffffffff169060200190929190803573ffffffffffffffffffffffffffffffffffffffff169060200190929190803590602001909291908035906020019092919080359060200190640100000000811115610f8657600080fd5b820183602082011115610f9857600080fd5b80359060200191846001830284011164010000000083111715610fba57600080fd5b91908080601f016020809104026020016040519081016040528093929190818152602001838380828437600081840152601f19601f820116905080830192505050505050509192919290505050613379565b005b61103a6004803603602081101561102457600080fd5b810190808035906020019092919050505061364b565b604051808467ffffffffffffffff1681526020018367ffffffffffffffff1681526020018260ff168152602001935050505060405180910390f35b6110e2600480360360a081101561108b57600080fd5b81019080803573ffffffffffffffffffffffffffffffffffffffff16906020019092919080359060200190929190803560ff16906020019092919080359060200190929190803590602001909291905050506136b3565b005b60008073ffffffffffffffffffffffffffffffffffffffff168373ffffffffffffffffffffffffffffffffffffffff16141561116b576040517f08c379a000000000000000000000000000000000000000000000000000000000815260040180806020018281038252602b81526020018061524a602b913960400191505060405180910390fd5b6001600083815260200190815260200160002060008473ffffffffffffffffffffffffffffffffffffffff1673ffffffffffffffffffffffffffffffffffffffff16815260200190815260200160002054905092915050565b6000806000837bffffffffffffffffffffffffffffffffffffffffffffffffffffffff19167bffffffffffffffffffffffffffffffffffffffffffffffffffffffff1916815260200190815260200160002060009054906101000a900460ff169050919050565b600b6020528060005260406000206000915090505481565b6040518060400160405280601381526020017f5175616c6c6120537562736372697074696f6e0000000000000000000000000081525081565b606060038054600181600116156101000203166002900480601f0160208091040260200160405190810160405280929190818152602001828054600181600116156101000203166002900480156113145780601f106112e957610100808354040283529160200191611314565b820191906000526020600020905b8154815290600101906020018083116112f757829003601f168201915b50505050509050919050565b7f58110846b49f70e49168dab9f7743d70e8da96a3773a194c36bcb67faf9bbdc581565b600760009054906101000a900473ffffffffffffffffffffffffffffffffffffffff1673ffffffffffffffffffffffffffffffffffffffff163373ffffffffffffffffffffffffffffffffffffffff1614611407576040517f08c379a00000000000000000000000000000000000000000000000000000000081526004018080602001828103825260098152602001807f464f5242494444454e000000000000000000000000000000000000000000000081525060200191505060405180910390fd5b80600760006101000a81548173ffffffffffffffffffffffffffffffffffffffff021916908373ffffffffffffffffffffffffffffffffffffffff1602179055507f7e0a74b35d445065e31b4bb43f5c458582046e0b718b9a56e261d5b1b22a3fc3600760009054906101000a900473ffffffffffffffffffffffffffffffffffffffff16600654604051808373ffffffffffffffffffffffffffffffffffffffff1681526020018281526020019250505060405180910390a150565b60096020528060005260406000206000915090505481565b8151835114611536576040517f08c379a00000000000000000000000000000000000000000000000000000000081526004018080602001828103825260288152602001806153d06028913960400191505060405180910390fd5b600073ffffffffffffffffffffffffffffffffffffffff168473ffffffffffffffffffffffffffffffffffffffff1614156115bc576040517f08c379a00000000000000000000000000000000000000000000000000000000081526004018080602001828103825260258152602001806152ca6025913960400191505060405180910390fd5b60006115c6613d68565b90506115d6818787878787613d70565b60005b84518110156117a75760008582815181106115f057fe5b60200260200101519050600085838151811061160857fe5b6020026020010151905061168f816040518060600160405280602a8152602001615312602a91396001600086815260200190815260200160002060008d73ffffffffffffffffffffffffffffffffffffffff1673ffffffffffffffffffffffffffffffffffffffff16815260200190815260200160002054613d789092919063ffffffff16565b6001600084815260200190815260200160002060008b73ffffffffffffffffffffffffffffffffffffffff1673ffffffffffffffffffffffffffffffffffffffff16815260200190815260200160002081905550611746816001600085815260200190815260200160002060008b73ffffffffffffffffffffffffffffffffffffffff1673ffffffffffffffffffffffffffffffffffffffff16815260200190815260200160002054613e3890919063ffffffff16565b6001600084815260200190815260200160002060008a73ffffffffffffffffffffffffffffffffffffffff1673ffffffffffffffffffffffffffffffffffffffff1681526020019081526020016000208190555050508060010190506115d9565b508473ffffffffffffffffffffffffffffffffffffffff168673ffffffffffffffffffffffffffffffffffffffff168273ffffffffffffffffffffffffffffffffffffffff167f4a39dc06d4c0dbc64b70af90fd698a233a518aa5d07e595d983b8c0526c8f7fb8787604051808060200180602001838103835285818151815260200191508051906020019060200280838360005b8381101561185757808201518184015260208101905061183c565b50505050905001838103825284818151815260200191508051906020019060200280838360005b8381101561189957808201518184015260208101905061187e565b5050505090500194505050505060405180910390a46118bc818787878787613ec0565b505050505050565b600a81815481106118d157fe5b90600052602060002090600402016000915090508060000154908060010154908060020160009054906101000a900473ffffffffffffffffffffffffffffffffffffffff16908060030160009054906101000a900473ffffffffffffffffffffffffffffffffffffffff16905084565b60045481565b611989876040518060400160405280600481526020017f6d696e740000000000000000000000000000000000000000000000000000000081525085858561424f565b60008614156119b6577fffffffffffffffffffffffffffffffffffffffffffffffffffffffffffffffff95505b60006080600854901b9050600a6040518060800160405280878152602001600181526020018873ffffffffffffffffffffffffffffffffffffffff1681526020018a73ffffffffffffffffffffffffffffffffffffffff168152509080600181540180825580915050600190039060005260206000209060040201600090919091909150600082015181600001556020820151816001015560408201518160020160006101000a81548173ffffffffffffffffffffffffffffffffffffffff021916908373ffffffffffffffffffffffffffffffffffffffff16021790555060608201518160030160006101000a81548173ffffffffffffffffffffffffffffffffffffffff021916908373ffffffffffffffffffffffffffffffffffffffff16021790555050506001600a8054905003600b600083815260200190815260200160002081905550611b19888289604051806020016040528060008152506144c1565b6008600081548092919060010191905055505050505050505050565b60608151835114611b91576040517f08c379a00000000000000000000000000000000000000000000000000000000081526004018080602001828103825260298152602001806153a76029913960400191505060405180910390fd5b6060835167ffffffffffffffff81118015611bab57600080fd5b50604051908082528060200260200182016040528015611bda5781602001602082028036833780820191505090505b50905060005b8451811015611d1c57600073ffffffffffffffffffffffffffffffffffffffff16858281518110611c0d57fe5b602002602001015173ffffffffffffffffffffffffffffffffffffffff161415611c82576040517f08c379a00000000000000000000000000000000000000000000000000000000081526004018080602001828103825260318152602001806152756031913960400191505060405180910390fd5b60016000858381518110611c9257fe5b602002602001015181526020019081526020016000206000868381518110611cb657fe5b602002602001015173ffffffffffffffffffffffffffffffffffffffff1673ffffffffffffffffffffffffffffffffffffffff16815260200190815260200160002054828281518110611d0557fe5b602002602001018181525050806001019050611be0565b508091505092915050565b611d69876040518060400160405280600481526020017f6d696e740000000000000000000000000000000000000000000000000000000081525085858561424f565b6060865167ffffffffffffffff81118015611d8357600080fd5b50604051908082528060200260200182016040528015611db25781602001602082028036833780820191505090505b50905060005b8751811015611fcb576000888281518110611dcf57fe5b60200260200101511415611e17577fffffffffffffffffffffffffffffffffffffffffffffffffffffffffffffffff888281518110611e0a57fe5b6020026020010181815250505b600a6040518060800160405280888481518110611e3057fe5b6020026020010151815260200160018152602001898481518110611e5057fe5b602002602001015173ffffffffffffffffffffffffffffffffffffffff1681526020018b73ffffffffffffffffffffffffffffffffffffffff168152509080600181540180825580915050600190039060005260206000209060040201600090919091909150600082015181600001556020820151816001015560408201518160020160006101000a81548173ffffffffffffffffffffffffffffffffffffffff021916908373ffffffffffffffffffffffffffffffffffffffff16021790555060608201518160030160006101000a81548173ffffffffffffffffffffffffffffffffffffffff021916908373ffffffffffffffffffffffffffffffffffffffff16021790555050506080600854901b828281518110611f6d57fe5b6020026020010181815250506001600a8054905003600b6000848481518110611f9257fe5b60200260200101518152602001908152602001600020819055506008600081548092919060010191905055508080600101915050611db8565b50611fe7888289604051806020016040528060008152506146b5565b5050505050505050565b6040518060400160405280600181526020017f310000000000000000000000000000000000000000000000000000000000000081525081565b600760009054906101000a900473ffffffffffffffffffffffffffffffffffffffff1673ffffffffffffffffffffffffffffffffffffffff163373ffffffffffffffffffffffffffffffffffffffff16146120ed576040517f08c379a00000000000000000000000000000000000000000000000000000000081526004018080602001828103825260098152602001807f464f5242494444454e000000000000000000000000000000000000000000000081525060200191505060405180910390fd5b6006548110612164576040517f08c379a00000000000000000000000000000000000000000000000000000000081526004018080602001828103825260148152602001807f494e56414c49442046454520494e43524541534500000000000000000000000081525060200191505060405180910390fd5b806006819055507f7e0a74b35d445065e31b4bb43f5c458582046e0b718b9a56e261d5b1b22a3fc3600760009054906101000a900473ffffffffffffffffffffffffffffffffffffffff16600654604051808373ffffffffffffffffffffffffffffffffffffffff1681526020018281526020019250505060405180910390a150565b600d6020528060005260406000206000915090505481565b60085481565b60007f800000000000000000000000000000000000000000000000000000000000000086161461229d576040517f08c379a00000000000000000000000000000000000000000000000000000000081526004018080602001828103825260178152602001807f5175616c6c612f57726f6e672d546f6b656e2d5479706500000000000000000081525060200191505060405180910390fd5b60007fffffffffffffffffffffffffffffffffffffffffffffffffffffffffffffffff6fffffffffffffffffffffffffffffffff1686161461232a576040517f08c379a000000000000000000000000000000000000000000000000000000000815260040180806020018281038252602181526020018061535d6021913960400191505060405180910390fd5b6123bd600a600b6000888152602001908152602001600020548154811061234d57fe5b906000526020600020906004020160030160009054906101000a900473ffffffffffffffffffffffffffffffffffffffff166040518060400160405280600481526020017f6275726e0000000000000000000000000000000000000000000000000000000081525085858561424f565b612419600a600b600088815260200190815260200160002054815481106123e057fe5b906000526020600020906004020160030160009054906101000a900473ffffffffffffffffffffffffffffffffffffffff1686866149d7565b5050505050565b60055481565b60007f80000000000000000000000000000000000000000000000000000000000000008316146124be576040517f08c379a00000000000000000000000000000000000000000000000000000000081526004018080602001828103825260178152602001807f5175616c6c612f57726f6e672d546f6b656e2d5479706500000000000000000081525060200191505060405180910390fd5b60007fffffffffffffffffffffffffffffffffffffffffffffffffffffffffffffffff6fffffffffffffffffffffffffffffffff1683161161254b576040517f08c379a000000000000000000000000000000000000000000000000000000000815260040180806020018281038252602181526020018061535d6021913960400191505060405180910390fd5b600180600084815260200190815260200160002060008373ffffffffffffffffffffffffffffffffffffffff1673ffffffffffffffffffffffffffffffffffffffff1681526020019081526020016000205414612610576040517f08c379a00000000000000000000000000000000000000000000000000000000081526004018080602001828103825260198152602001807f5175616c6c612f496e76616c69642d537562736372696265720000000000000081525060200191505060405180910390fd5b42600c600d6000858152602001908152602001600020548154811061263157fe5b9060005260206000200160000160009054906101000a900467ffffffffffffffff1667ffffffffffffffff16106126d0576040517f08c379a000000000000000000000000000000000000000000000000000000000815260040180806020018281038252601d8152602001807f5175616c6c612f537562736372697074696f6e2d4e6f742d526561647900000081525060200191505060405180910390fd5b600060807fffffffffffffffffffffffffffffffffffffffffffffffffffffffffffffffff6fffffffffffffffffffffffffffffffff16901b831690506004600c600d6000868152602001908152602001600020548154811061272f57fe5b9060005260206000200160000160109054906101000a900460ff1660ff16106127d05761275e828460016149d7565b6127cb600a600b6000848152602001908152602001600020548154811061278157fe5b906000526020600020906004020160030160009054906101000a900473ffffffffffffffffffffffffffffffffffffffff16826001604051806020016040528060008152506144c1565b61282e565b600c600d600085815260200190815260200160002054815481106127f057fe5b90600052602060002001600001601081819054906101000a900460ff168092919060010191906101000a81548160ff021916908360ff160217905550505b600a600b6000838152602001908152602001600020548154811061284e57fe5b906000526020600020906004020160000154600a600b6000848152602001908152602001600020548154811061288057fe5b906000526020600020906004020160020160009054906101000a900473ffffffffffffffffffffffffffffffffffffffff1673ffffffffffffffffffffffffffffffffffffffff1663dd62ed3e84306040518363ffffffff1660e01b8152600401808373ffffffffffffffffffffffffffffffffffffffff1681526020018273ffffffffffffffffffffffffffffffffffffffff1681526020019250505060206040518083038186803b15801561293657600080fd5b505afa15801561294a573d6000803e3d6000fd5b505050506040513d602081101561296057600080fd5b81019080805190602001909291905050501080612a9f5750600a600b6000838152602001908152602001600020548154811061299857fe5b906000526020600020906004020160000154600a600b600084815260200190815260200160002054815481106129ca57fe5b906000526020600020906004020160020160009054906101000a900473ffffffffffffffffffffffffffffffffffffffff1673ffffffffffffffffffffffffffffffffffffffff166370a08231846040518263ffffffff1660e01b8152600401808273ffffffffffffffffffffffffffffffffffffffff16815260200191505060206040518083038186803b158015612a6257600080fd5b505afa158015612a76573d6000803e3d6000fd5b505050506040513d6020811015612a8c57600080fd5b8101908080519060200190929190505050105b15612b1e57612ab0828460016149d7565b612b1d600a600b60008481526020019081526020016000205481548110612ad357fe5b906000526020600020906004020160030160009054906101000a900473ffffffffffffffffffffffffffffffffffffffff16826001604051806020016040528060008152506144c1565b5b600a600b60008381526020019081526020016000205481548110612b3e57fe5b906000526020600020906004020160020160009054906101000a900473ffffffffffffffffffffffffffffffffffffffff1673ffffffffffffffffffffffffffffffffffffffff166323b872dd83600760009054906101000a900473ffffffffffffffffffffffffffffffffffffffff16612c086064612bfa600654600a600b60008b81526020019081526020016000205481548110612bda57fe5b906000526020600020906004020160000154614bf390919063ffffffff16565b614c7990919063ffffffff16565b6040518463ffffffff1660e01b8152600401808473ffffffffffffffffffffffffffffffffffffffff1681526020018373ffffffffffffffffffffffffffffffffffffffff1681526020018281526020019350505050602060405180830381600087803b158015612c7857600080fd5b505af1158015612c8c573d6000803e3d6000fd5b505050506040513d6020811015612ca257600080fd5b810190808051906020019092919050505050600a600b60008381526020019081526020016000205481548110612cd457fe5b906000526020600020906004020160020160009054906101000a900473ffffffffffffffffffffffffffffffffffffffff1673ffffffffffffffffffffffffffffffffffffffff166323b872dd83600a600b60008681526020019081526020016000205481548110612d4257fe5b906000526020600020906004020160030160009054906101000a900473ffffffffffffffffffffffffffffffffffffffff16612dd06064612dc2600654606403600a600b60008b81526020019081526020016000205481548110612da257fe5b906000526020600020906004020160000154614bf390919063ffffffff16565b614c7990919063ffffffff16565b6040518463ffffffff1660e01b8152600401808473ffffffffffffffffffffffffffffffffffffffff1681526020018373ffffffffffffffffffffffffffffffffffffffff1681526020018281526020019350505050602060405180830381600087803b158015612e4057600080fd5b505af1158015612e54573d6000803e3d6000fd5b505050506040513d6020811015612e6a57600080fd5b810190808051906020019092919050505050600f600c600d60008681526020019081526020016000205481548110612e9e57fe5b9060005260206000200160000160008282829054906101000a900467ffffffffffffffff160192506101000a81548167ffffffffffffffff021916908367ffffffffffffffff160217905550505050565b8173ffffffffffffffffffffffffffffffffffffffff16612f0e613d68565b73ffffffffffffffffffffffffffffffffffffffff161415612f7b576040517f08c379a000000000000000000000000000000000000000000000000000000000815260040180806020018281038252602981526020018061537e6029913960400191505060405180910390fd5b8060026000612f88613d68565b73ffffffffffffffffffffffffffffffffffffffff1673ffffffffffffffffffffffffffffffffffffffff16815260200190815260200160002060008473ffffffffffffffffffffffffffffffffffffffff1673ffffffffffffffffffffffffffffffffffffffff16815260200190815260200160002060006101000a81548160ff0219169083151502179055508173ffffffffffffffffffffffffffffffffffffffff16613035613d68565b73ffffffffffffffffffffffffffffffffffffffff167f17307eab39ab6107e8899845ad3d59bd9653f200f220920489ca2b5937696c318360405180821515815260200191505060405180910390a35050565b60007f8000000000000000000000000000000000000000000000000000000000000000851614613120576040517f08c379a00000000000000000000000000000000000000000000000000000000081526004018080602001828103825260178152602001807f5175616c6c612f57726f6e672d546f6b656e2d5479706500000000000000000081525060200191505060405180910390fd5b60007fffffffffffffffffffffffffffffffffffffffffffffffffffffffffffffffff6fffffffffffffffffffffffffffffffff168516116131ad576040517f08c379a000000000000000000000000000000000000000000000000000000000815260040180806020018281038252602181526020018061535d6021913960400191505060405180910390fd5b6131ef856040518060400160405280600b81526020017f756e73756273637269626500000000000000000000000000000000000000000081525085858561424f565b6131fb858560016149d7565b6132d8600a600b600060807fffffffffffffffffffffffffffffffffffffffffffffffffffffffffffffffff6fffffffffffffffffffffffffffffffff16901b88168152602001908152602001600020548154811061325657fe5b906000526020600020906004020160030160009054906101000a900473ffffffffffffffffffffffffffffffffffffffff1660807fffffffffffffffffffffffffffffffffffffffffffffffffffffffffffffffff6fffffffffffffffffffffffffffffffff16901b86166001604051806020016040528060008152506144c1565b5050505050565b60065481565b6000600260008473ffffffffffffffffffffffffffffffffffffffff1673ffffffffffffffffffffffffffffffffffffffff16815260200190815260200160002060008373ffffffffffffffffffffffffffffffffffffffff1673ffffffffffffffffffffffffffffffffffffffff16815260200190815260200160002060009054906101000a900460ff16905092915050565b600073ffffffffffffffffffffffffffffffffffffffff168473ffffffffffffffffffffffffffffffffffffffff1614156133ff576040517f08c379a00000000000000000000000000000000000000000000000000000000081526004018080602001828103825260258152602001806152ca6025913960400191505060405180910390fd5b6000613409613d68565b905061342981878761341a88614cc3565b61342388614cc3565b87613d70565b6134a6836040518060600160405280602a8152602001615312602a91396001600088815260200190815260200160002060008a73ffffffffffffffffffffffffffffffffffffffff1673ffffffffffffffffffffffffffffffffffffffff16815260200190815260200160002054613d789092919063ffffffff16565b6001600086815260200190815260200160002060008873ffffffffffffffffffffffffffffffffffffffff1673ffffffffffffffffffffffffffffffffffffffff1681526020019081526020016000208190555061355d836001600087815260200190815260200160002060008873ffffffffffffffffffffffffffffffffffffffff1673ffffffffffffffffffffffffffffffffffffffff16815260200190815260200160002054613e3890919063ffffffff16565b6001600086815260200190815260200160002060008773ffffffffffffffffffffffffffffffffffffffff1673ffffffffffffffffffffffffffffffffffffffff168152602001908152602001600020819055508473ffffffffffffffffffffffffffffffffffffffff168673ffffffffffffffffffffffffffffffffffffffff168273ffffffffffffffffffffffffffffffffffffffff167fc3d58168c5ae7397731d063d5bbf3d657854427343f4c083240f7aacaa2d0f628787604051808381526020018281526020019250505060405180910390a4613643818787878787614d33565b505050505050565b600c818154811061365857fe5b906000526020600020016000915090508060000160009054906101000a900467ffffffffffffffff16908060000160089054906101000a900467ffffffffffffffff16908060000160109054906101000a900460ff16905083565b60007f800000000000000000000000000000000000000000000000000000000000000085161461374b576040517f08c379a00000000000000000000000000000000000000000000000000000000081526004018080602001828103825260178152602001807f5175616c6c612f57726f6e672d546f6b656e2d5479706500000000000000000081525060200191505060405180910390fd5b60007fffffffffffffffffffffffffffffffffffffffffffffffffffffffffffffffff6fffffffffffffffffffffffffffffffff168516146137d8576040517f08c379a000000000000000000000000000000000000000000000000000000000815260040180806020018281038252602181526020018061535d6021913960400191505060405180910390fd5b600a600b600086815260200190815260200160002054815481106137f857fe5b906000526020600020906004020160000154600a600b6000878152602001908152602001600020548154811061382a57fe5b906000526020600020906004020160020160009054906101000a900473ffffffffffffffffffffffffffffffffffffffff1673ffffffffffffffffffffffffffffffffffffffff166370a08231876040518263ffffffff1660e01b8152600401808273ffffffffffffffffffffffffffffffffffffffff16815260200191505060206040518083038186803b1580156138c257600080fd5b505afa1580156138d6573d6000803e3d6000fd5b505050506040513d60208110156138ec57600080fd5b810190808051906020019092919050505011613970576040517f08c379a000000000000000000000000000000000000000000000000000000000815260040180806020018281038252601b8152602001807f5175616c6c612f496e73756666696369656e742d42616c616e6365000000000081525060200191505060405180910390fd5b600a600b6000868152602001908152602001600020548154811061399057fe5b906000526020600020906004020160000154600a600b600087815260200190815260200160002054815481106139c257fe5b906000526020600020906004020160020160009054906101000a900473ffffffffffffffffffffffffffffffffffffffff1673ffffffffffffffffffffffffffffffffffffffff1663dd62ed3e87306040518363ffffffff1660e01b8152600401808373ffffffffffffffffffffffffffffffffffffffff1681526020018273ffffffffffffffffffffffffffffffffffffffff1681526020019250505060206040518083038186803b158015613a7857600080fd5b505afa158015613a8c573d6000803e3d6000fd5b505050506040513d6020811015613aa257600080fd5b810190808051906020019092919050505011613b26576040517f08c379a000000000000000000000000000000000000000000000000000000000815260040180806020018281038252601d8152602001807f5175616c6c612f496e73756666696369656e742d416c6c6f77616e636500000081525060200191505060405180910390fd5b613b68856040518060400160405280600981526020017f737562736372696265000000000000000000000000000000000000000000000081525085858561424f565b6000600a600b60008781526020019081526020016000205481548110613b8a57fe5b90600052602060002090600402016001015485179050600c6040518060600160405280600067ffffffffffffffff1681526020014267ffffffffffffffff168152602001600060ff168152509080600181540180825580915050600190039060005260206000200160009091909190915060008201518160000160006101000a81548167ffffffffffffffff021916908367ffffffffffffffff16021790555060208201518160000160086101000a81548167ffffffffffffffff021916908367ffffffffffffffff16021790555060408201518160000160106101000a81548160ff021916908360ff16021790555050506001600c8054905003600d600083815260200190815260200160002081905550613cf9600a600b60008881526020019081526020016000205481548110613cbf57fe5b906000526020600020906004020160030160009054906101000a900473ffffffffffffffffffffffffffffffffffffffff168660016149d7565b613d1586826001604051806020016040528060008152506144c1565b600a600b60008781526020019081526020016000205481548110613d3557fe5b906000526020600020906004020160010160008154809291906001019190505550613d608187612426565b505050505050565b600033905090565b505050505050565b6000838311158290613e25576040517f08c379a00000000000000000000000000000000000000000000000000000000081526004018080602001828103825283818151815260200191508051906020019080838360005b83811015613dea578082015181840152602081019050613dcf565b50505050905090810190601f168015613e175780820380516001836020036101000a031916815260200191505b509250505060405180910390fd5b5060008385039050809150509392505050565b600080828401905083811015613eb6576040517f08c379a000000000000000000000000000000000000000000000000000000000815260040180806020018281038252601b8152602001807f536166654d6174683a206164646974696f6e206f766572666c6f77000000000081525060200191505060405180910390fd5b8091505092915050565b613edf8473ffffffffffffffffffffffffffffffffffffffff16615040565b15614247578373ffffffffffffffffffffffffffffffffffffffff1663bc197c8187878686866040518663ffffffff1660e01b8152600401808673ffffffffffffffffffffffffffffffffffffffff1681526020018573ffffffffffffffffffffffffffffffffffffffff168152602001806020018060200180602001848103845287818151815260200191508051906020019060200280838360005b83811015613f97578082015181840152602081019050613f7c565b50505050905001848103835286818151815260200191508051906020019060200280838360005b83811015613fd9578082015181840152602081019050613fbe565b50505050905001848103825285818151815260200191508051906020019080838360005b83811015614018578082015181840152602081019050613ffd565b50505050905090810190601f1680156140455780820380516001836020036101000a031916815260200191505b5098505050505050505050602060405180830381600087803b15801561406a57600080fd5b505af192505050801561409e57506040513d602081101561408a57600080fd5b810190808051906020019092919050505060015b6141a8576140aa615137565b806140b55750614157565b806040517f08c379a00000000000000000000000000000000000000000000000000000000081526004018080602001828103825283818151815260200191508051906020019080838360005b8381101561411c578082015181840152602081019050614101565b50505050905090810190601f1680156141495780820380516001836020036101000a031916815260200191505b509250505060405180910390fd5b6040517f08c379a00000000000000000000000000000000000000000000000000000000081526004018080602001828103825260348152602001806151ee6034913960400191505060405180910390fd5b63bc197c8160e01b7bffffffffffffffffffffffffffffffffffffffffffffffffffffffff1916817bffffffffffffffffffffffffffffffffffffffffffffffffffffffff191614614245576040517f08c379a00000000000000000000000000000000000000000000000000000000081526004018080602001828103825260288152602001806152226028913960400191505060405180910390fd5b505b505050505050565b60006004547f58110846b49f70e49168dab9f7743d70e8da96a3773a194c36bcb67faf9bbdc587600960008a73ffffffffffffffffffffffffffffffffffffffff1673ffffffffffffffffffffffffffffffffffffffff168152602001908152602001600020548880519060200120604051602001808581526020018473ffffffffffffffffffffffffffffffffffffffff1681526020018381526020018281526020019450505050506040516020818303038152906040528051906020012060405160200180807f19010000000000000000000000000000000000000000000000000000000000008152506002018381526020018281526020019250505060405160208183030381529060405280519060200120905060018185858560405160008152602001604052604051808581526020018460ff1681526020018381526020018281526020019450505050506020604051602081039080840390855afa1580156143c0573d6000803e3d6000fd5b5050506020604051035173ffffffffffffffffffffffffffffffffffffffff168673ffffffffffffffffffffffffffffffffffffffff161461446a576040517f08c379a00000000000000000000000000000000000000000000000000000000081526004018080602001828103825260158152602001807f5175616c6c612f696e76616c69642d7065726d6974000000000000000000000081525060200191505060405180910390fd5b600960008773ffffffffffffffffffffffffffffffffffffffff1673ffffffffffffffffffffffffffffffffffffffff16815260200190815260200160002060008154809291906001019190505550505050505050565b600073ffffffffffffffffffffffffffffffffffffffff168473ffffffffffffffffffffffffffffffffffffffff161415614547576040517f08c379a00000000000000000000000000000000000000000000000000000000081526004018080602001828103825260218152602001806153f86021913960400191505060405180910390fd5b6000614551613d68565b90506145728160008761456388614cc3565b61456c88614cc3565b87613d70565b6145d5836001600087815260200190815260200160002060008873ffffffffffffffffffffffffffffffffffffffff1673ffffffffffffffffffffffffffffffffffffffff16815260200190815260200160002054613e3890919063ffffffff16565b6001600086815260200190815260200160002060008773ffffffffffffffffffffffffffffffffffffffff1673ffffffffffffffffffffffffffffffffffffffff168152602001908152602001600020819055508473ffffffffffffffffffffffffffffffffffffffff16600073ffffffffffffffffffffffffffffffffffffffff168273ffffffffffffffffffffffffffffffffffffffff167fc3d58168c5ae7397731d063d5bbf3d657854427343f4c083240f7aacaa2d0f628787604051808381526020018281526020019250505060405180910390a45050505050565b600073ffffffffffffffffffffffffffffffffffffffff168473ffffffffffffffffffffffffffffffffffffffff16141561473b576040517f08c379a00000000000000000000000000000000000000000000000000000000081526004018080602001828103825260218152602001806153f86021913960400191505060405180910390fd5b8151835114614795576040517f08c379a00000000000000000000000000000000000000000000000000000000081526004018080602001828103825260288152602001806153d06028913960400191505060405180910390fd5b600061479f613d68565b90506147b081600087878787613d70565b60005b84518110156148b957614845600160008784815181106147cf57fe5b6020026020010151815260200190815260200160002060008873ffffffffffffffffffffffffffffffffffffffff1673ffffffffffffffffffffffffffffffffffffffff1681526020019081526020016000205485838151811061482f57fe5b6020026020010151613e3890919063ffffffff16565b6001600087848151811061485557fe5b6020026020010151815260200190815260200160002060008873ffffffffffffffffffffffffffffffffffffffff1673ffffffffffffffffffffffffffffffffffffffff1681526020019081526020016000208190555080806001019150506147b3565b508473ffffffffffffffffffffffffffffffffffffffff16600073ffffffffffffffffffffffffffffffffffffffff168273ffffffffffffffffffffffffffffffffffffffff167f4a39dc06d4c0dbc64b70af90fd698a233a518aa5d07e595d983b8c0526c8f7fb8787604051808060200180602001838103835285818151815260200191508051906020019060200280838360005b8381101561496a57808201518184015260208101905061494f565b50505050905001838103825284818151815260200191508051906020019060200280838360005b838110156149ac578082015181840152602081019050614991565b5050505090500194505050505060405180910390a46149d081600087878787613ec0565b5050505050565b600073ffffffffffffffffffffffffffffffffffffffff168373ffffffffffffffffffffffffffffffffffffffff161415614a5d576040517f08c379a00000000000000000000000000000000000000000000000000000000081526004018080602001828103825260238152602001806152ef6023913960400191505060405180910390fd5b6000614a67613d68565b9050614a9781856000614a7987614cc3565b614a8287614cc3565b60405180602001604052806000815250613d70565b614b14826040518060600160405280602481526020016152a6602491396001600087815260200190815260200160002060008873ffffffffffffffffffffffffffffffffffffffff1673ffffffffffffffffffffffffffffffffffffffff16815260200190815260200160002054613d789092919063ffffffff16565b6001600085815260200190815260200160002060008673ffffffffffffffffffffffffffffffffffffffff1673ffffffffffffffffffffffffffffffffffffffff16815260200190815260200160002081905550600073ffffffffffffffffffffffffffffffffffffffff168473ffffffffffffffffffffffffffffffffffffffff168273ffffffffffffffffffffffffffffffffffffffff167fc3d58168c5ae7397731d063d5bbf3d657854427343f4c083240f7aacaa2d0f628686604051808381526020018281526020019250505060405180910390a450505050565b600080831415614c065760009050614c73565b6000828402905082848281614c1757fe5b0414614c6e576040517f08c379a000000000000000000000000000000000000000000000000000000000815260040180806020018281038252602181526020018061533c6021913960400191505060405180910390fd5b809150505b92915050565b6000614cbb83836040518060400160405280601a81526020017f536166654d6174683a206469766973696f6e206279207a65726f000000000000815250615053565b905092915050565b606080600167ffffffffffffffff81118015614cde57600080fd5b50604051908082528060200260200182016040528015614d0d5781602001602082028036833780820191505090505b5090508281600081518110614d1e57fe5b60200260200101818152505080915050919050565b614d528473ffffffffffffffffffffffffffffffffffffffff16615040565b15615038578373ffffffffffffffffffffffffffffffffffffffff1663f23a6e6187878686866040518663ffffffff1660e01b8152600401808673ffffffffffffffffffffffffffffffffffffffff1681526020018573ffffffffffffffffffffffffffffffffffffffff16815260200184815260200183815260200180602001828103825283818151815260200191508051906020019080838360005b83811015614e0b578082015181840152602081019050614df0565b50505050905090810190601f168015614e385780820380516001836020036101000a031916815260200191505b509650505050505050602060405180830381600087803b158015614e5b57600080fd5b505af1925050508015614e8f57506040513d6020811015614e7b57600080fd5b810190808051906020019092919050505060015b614f9957614e9b615137565b80614ea65750614f48565b806040517f08c379a00000000000000000000000000000000000000000000000000000000081526004018080602001828103825283818151815260200191508051906020019080838360005b83811015614f0d578082015181840152602081019050614ef2565b50505050905090810190601f168015614f3a5780820380516001836020036101000a031916815260200191505b509250505060405180910390fd5b6040517f08c379a00000000000000000000000000000000000000000000000000000000081526004018080602001828103825260348152602001806151ee6034913960400191505060405180910390fd5b63f23a6e6160e01b7bffffffffffffffffffffffffffffffffffffffffffffffffffffffff1916817bffffffffffffffffffffffffffffffffffffffffffffffffffffffff191614615036576040517f08c379a00000000000000000000000000000000000000000000000000000000081526004018080602001828103825260288152602001806152226028913960400191505060405180910390fd5b505b505050505050565b600080823b905060008111915050919050565b600080831182906150ff576040517f08c379a00000000000000000000000000000000000000000000000000000000081526004018080602001828103825283818151815260200191508051906020019080838360005b838110156150c45780820151818401526020810190506150a9565b50505050905090810190601f1680156150f15780820380516001836020036101000a031916815260200191505b509250505060405180910390fd5b50600083858161510b57fe5b049050809150509392505050565b6000601f19601f8301169050919050565b60008160e01c9050919050565b600060443d1015615147576151ea565b60046000803e61515860005161512a565b6308c379a0811461516957506151ea565b60405160043d036004823e80513d602482011167ffffffffffffffff82111715615195575050506151ea565b808201805167ffffffffffffffff8111156151b45750505050506151ea565b8060208301013d85018111156151cf575050505050506151ea565b6151d882615119565b60208401016040528296505050505050505b9056fe455243313135353a207472616e7366657220746f206e6f6e2045524331313535526563656976657220696d706c656d656e746572455243313135353a204552433131353552656365697665722072656a656374656420746f6b656e73455243313135353a2062616c616e636520717565727920666f7220746865207a65726f2061646472657373455243313135353a2062617463682062616c616e636520717565727920666f7220746865207a65726f2061646472657373455243313135353a206275726e20616d6f756e7420657863656564732062616c616e6365455243313135353a207472616e7366657220746f20746865207a65726f2061646472657373455243313135353a206275726e2066726f6d20746865207a65726f2061646472657373455243313135353a20696e73756666696369656e742062616c616e636520666f72207472616e73666572536166654d6174683a206d756c7469706c69636174696f6e206f766572666c6f775175616c6c612f496e76616c69642d537562736372697074696f6e2d496e646578455243313135353a2073657474696e6720617070726f76616c2073746174757320666f722073656c66455243313135353a206163636f756e747320616e6420696473206c656e677468206d69736d61746368455243313135353a2069647320616e6420616d6f756e7473206c656e677468206d69736d61746368455243313135353a206d696e7420746f20746865207a65726f2061646472657373a26469706673582212203bfe3be291f0a7f2f93c613115ae2607e964f7cca582a287bc577e90e9a696b064736f6c63430007030033",
  "linkReferences": {},
  "deployedLinkReferences": {}
}