{
  "_format": "hh-sol-artifact-1",
  "contractName": "QuallaSubscription",
  "sourceName": "contracts/QuallaSubscription.sol",
  "abi": [
    {
      "inputs": [
        {
          "internalType": "string",
          "name": "uri_",
          "type": "string"
        },
        {
          "internalType": "uint256",
          "name": "chainId_",
          "type": "uint256"
        }
      ],
      "stateMutability": "nonpayable",
      "type": "constructor"
    },
    {
      "anonymous": false,
      "inputs": [
        {
          "indexed": true,
          "internalType": "address",
          "name": "account",
          "type": "address"
        },
        {
          "indexed": true,
          "internalType": "address",
          "name": "operator",
          "type": "address"
        },
        {
          "indexed": false,
          "internalType": "bool",
          "name": "approved",
          "type": "bool"
        }
      ],
      "name": "ApprovalForAll",
      "type": "event"
    },
    {
      "anonymous": false,
      "inputs": [
        {
          "indexed": true,
          "internalType": "address",
          "name": "operator",
          "type": "address"
        },
        {
          "indexed": true,
          "internalType": "address",
          "name": "from",
          "type": "address"
        },
        {
          "indexed": true,
          "internalType": "address",
          "name": "to",
          "type": "address"
        },
        {
          "indexed": false,
          "internalType": "uint256[]",
          "name": "ids",
          "type": "uint256[]"
        },
        {
          "indexed": false,
          "internalType": "uint256[]",
          "name": "values",
          "type": "uint256[]"
        }
      ],
      "name": "TransferBatch",
      "type": "event"
    },
    {
      "anonymous": false,
      "inputs": [
        {
          "indexed": true,
          "internalType": "address",
          "name": "operator",
          "type": "address"
        },
        {
          "indexed": true,
          "internalType": "address",
          "name": "from",
          "type": "address"
        },
        {
          "indexed": true,
          "internalType": "address",
          "name": "to",
          "type": "address"
        },
        {
          "indexed": false,
          "internalType": "uint256",
          "name": "id",
          "type": "uint256"
        },
        {
          "indexed": false,
          "internalType": "uint256",
          "name": "value",
          "type": "uint256"
        }
      ],
      "name": "TransferSingle",
      "type": "event"
    },
    {
      "anonymous": false,
      "inputs": [
        {
          "indexed": false,
          "internalType": "string",
          "name": "value",
          "type": "string"
        },
        {
          "indexed": true,
          "internalType": "uint256",
          "name": "id",
          "type": "uint256"
        }
      ],
      "name": "URI",
      "type": "event"
    },
    {
      "anonymous": false,
      "inputs": [
        {
          "indexed": false,
          "internalType": "address",
          "name": "master",
          "type": "address"
        },
        {
          "indexed": false,
          "internalType": "uint256",
          "name": "fee",
          "type": "uint256"
        }
      ],
      "name": "contractModified",
      "type": "event"
    },
    {
      "inputs": [],
      "name": "DOMAIN_SEPARATOR",
      "outputs": [
        {
          "internalType": "bytes32",
          "name": "",
          "type": "bytes32"
        }
      ],
      "stateMutability": "view",
      "type": "function"
    },
    {
      "inputs": [],
      "name": "USER_TYPEHASH",
      "outputs": [
        {
          "internalType": "bytes32",
          "name": "",
          "type": "bytes32"
        }
      ],
      "stateMutability": "view",
      "type": "function"
    },
    {
      "inputs": [
        {
          "internalType": "address",
          "name": "account",
          "type": "address"
        },
        {
          "internalType": "uint256",
          "name": "id",
          "type": "uint256"
        }
      ],
      "name": "balanceOf",
      "outputs": [
        {
          "internalType": "uint256",
          "name": "",
          "type": "uint256"
        }
      ],
      "stateMutability": "view",
      "type": "function"
    },
    {
      "inputs": [
        {
          "internalType": "address[]",
          "name": "accounts",
          "type": "address[]"
        },
        {
          "internalType": "uint256[]",
          "name": "ids",
          "type": "uint256[]"
        }
      ],
      "name": "balanceOfBatch",
      "outputs": [
        {
          "internalType": "uint256[]",
          "name": "",
          "type": "uint256[]"
        }
      ],
      "stateMutability": "view",
      "type": "function"
    },
    {
      "inputs": [
        {
          "internalType": "uint256",
          "name": "id",
          "type": "uint256"
        },
        {
          "internalType": "uint256",
          "name": "amount",
          "type": "uint256"
        },
        {
          "internalType": "uint8",
          "name": "v",
          "type": "uint8"
        },
        {
          "internalType": "bytes32",
          "name": "r",
          "type": "bytes32"
        },
        {
          "internalType": "bytes32",
          "name": "s",
          "type": "bytes32"
        }
      ],
      "name": "burnSubscription",
      "outputs": [],
      "stateMutability": "nonpayable",
      "type": "function"
    },
    {
      "inputs": [
        {
          "internalType": "address",
          "name": "subscriber",
          "type": "address"
        },
        {
          "internalType": "uint256",
          "name": "id",
          "type": "uint256"
        },
        {
          "internalType": "uint8",
          "name": "v",
          "type": "uint8"
        },
        {
          "internalType": "bytes32",
          "name": "r",
          "type": "bytes32"
        },
        {
          "internalType": "bytes32",
          "name": "s",
          "type": "bytes32"
        }
      ],
      "name": "buySubscription",
      "outputs": [],
      "stateMutability": "nonpayable",
      "type": "function"
    },
    {
      "inputs": [],
      "name": "chainId",
      "outputs": [
        {
          "internalType": "uint256",
          "name": "",
          "type": "uint256"
        }
      ],
      "stateMutability": "view",
      "type": "function"
    },
    {
      "inputs": [
        {
          "internalType": "uint256",
          "name": "id_",
          "type": "uint256"
        },
        {
          "internalType": "address",
          "name": "subscriber",
          "type": "address"
        }
      ],
      "name": "executeSubscription",
      "outputs": [],
      "stateMutability": "nonpayable",
      "type": "function"
    },
    {
      "inputs": [],
      "name": "fee",
      "outputs": [
        {
          "internalType": "uint256",
          "name": "",
          "type": "uint256"
        }
      ],
      "stateMutability": "view",
      "type": "function"
    },
    {
      "inputs": [
        {
          "internalType": "uint256",
          "name": "id_",
          "type": "uint256"
        }
      ],
      "name": "getBaseIdFromToken",
      "outputs": [
        {
          "internalType": "uint256",
          "name": "id",
          "type": "uint256"
        }
      ],
      "stateMutability": "pure",
      "type": "function"
    },
    {
      "inputs": [
        {
          "internalType": "address",
          "name": "account",
          "type": "address"
        },
        {
          "internalType": "address",
          "name": "operator",
          "type": "address"
        }
      ],
      "name": "isApprovedForAll",
      "outputs": [
        {
          "internalType": "bool",
          "name": "",
          "type": "bool"
        }
      ],
      "stateMutability": "view",
      "type": "function"
    },
    {
      "inputs": [
        {
          "internalType": "address",
          "name": "creator",
          "type": "address"
        },
        {
          "internalType": "uint256[]",
          "name": "amounts",
          "type": "uint256[]"
        },
        {
          "internalType": "address[]",
          "name": "paymentTokens",
          "type": "address[]"
        },
        {
          "internalType": "uint256[]",
          "name": "paymentValues",
          "type": "uint256[]"
        },
        {
          "internalType": "uint8",
          "name": "v",
          "type": "uint8"
        },
        {
          "internalType": "bytes32",
          "name": "r",
          "type": "bytes32"
        },
        {
          "internalType": "bytes32",
          "name": "s",
          "type": "bytes32"
        }
      ],
      "name": "mintBatchSubscription",
      "outputs": [],
      "stateMutability": "nonpayable",
      "type": "function"
    },
    {
      "inputs": [
        {
          "internalType": "address",
          "name": "creator",
          "type": "address"
        },
        {
          "internalType": "uint256",
          "name": "amount",
          "type": "uint256"
        },
        {
          "internalType": "address",
          "name": "paymentToken",
          "type": "address"
        },
        {
          "internalType": "uint256",
          "name": "paymentValue",
          "type": "uint256"
        },
        {
          "internalType": "uint8",
          "name": "v",
          "type": "uint8"
        },
        {
          "internalType": "bytes32",
          "name": "r",
          "type": "bytes32"
        },
        {
          "internalType": "bytes32",
          "name": "s",
          "type": "bytes32"
        }
      ],
      "name": "mintSubscription",
      "outputs": [],
      "stateMutability": "nonpayable",
      "type": "function"
    },
    {
      "inputs": [],
      "name": "name",
      "outputs": [
        {
          "internalType": "string",
          "name": "",
          "type": "string"
        }
      ],
      "stateMutability": "view",
      "type": "function"
    },
    {
      "inputs": [
        {
          "internalType": "address",
          "name": "from",
          "type": "address"
        },
        {
          "internalType": "address",
          "name": "to",
          "type": "address"
        },
        {
          "internalType": "uint256[]",
          "name": "ids",
          "type": "uint256[]"
        },
        {
          "internalType": "uint256[]",
          "name": "amounts",
          "type": "uint256[]"
        },
        {
          "internalType": "bytes",
          "name": "data",
          "type": "bytes"
        }
      ],
      "name": "safeBatchTransferFrom",
      "outputs": [],
      "stateMutability": "nonpayable",
      "type": "function"
    },
    {
      "inputs": [
        {
          "internalType": "address",
          "name": "from",
          "type": "address"
        },
        {
          "internalType": "address",
          "name": "to",
          "type": "address"
        },
        {
          "internalType": "uint256",
          "name": "id",
          "type": "uint256"
        },
        {
          "internalType": "uint256",
          "name": "amount",
          "type": "uint256"
        },
        {
          "internalType": "bytes",
          "name": "data",
          "type": "bytes"
        }
      ],
      "name": "safeTransferFrom",
      "outputs": [],
      "stateMutability": "nonpayable",
      "type": "function"
    },
    {
      "inputs": [
        {
          "internalType": "address",
          "name": "operator",
          "type": "address"
        },
        {
          "internalType": "bool",
          "name": "approved",
          "type": "bool"
        }
      ],
      "name": "setApprovalForAll",
      "outputs": [],
      "stateMutability": "nonpayable",
      "type": "function"
    },
    {
      "inputs": [
        {
          "internalType": "uint256",
          "name": "_fee",
          "type": "uint256"
        }
      ],
      "name": "setFee",
      "outputs": [],
      "stateMutability": "nonpayable",
      "type": "function"
    },
    {
      "inputs": [
        {
          "internalType": "address",
          "name": "_master",
          "type": "address"
        }
      ],
      "name": "setMaster",
      "outputs": [],
      "stateMutability": "nonpayable",
      "type": "function"
    },
    {
      "inputs": [
        {
          "internalType": "bytes4",
          "name": "interfaceId",
          "type": "bytes4"
        }
      ],
      "name": "supportsInterface",
      "outputs": [
        {
          "internalType": "bool",
          "name": "",
          "type": "bool"
        }
      ],
      "stateMutability": "view",
      "type": "function"
    },
    {
      "inputs": [
        {
          "internalType": "uint256",
          "name": "",
          "type": "uint256"
        }
      ],
      "name": "tokenIdToCreator",
      "outputs": [
        {
          "internalType": "address",
          "name": "",
          "type": "address"
        }
      ],
      "stateMutability": "view",
      "type": "function"
    },
    {
      "inputs": [
        {
          "internalType": "uint256",
          "name": "",
          "type": "uint256"
        }
      ],
      "name": "tokenIdToNextIndex",
      "outputs": [
        {
          "internalType": "uint256",
          "name": "",
          "type": "uint256"
        }
      ],
      "stateMutability": "view",
      "type": "function"
    },
    {
      "inputs": [
        {
          "internalType": "uint256",
          "name": "",
          "type": "uint256"
        }
      ],
      "name": "tokenIdToPaymentToken",
      "outputs": [
        {
          "internalType": "address",
          "name": "",
          "type": "address"
        }
      ],
      "stateMutability": "view",
      "type": "function"
    },
    {
      "inputs": [
        {
          "internalType": "uint256",
          "name": "",
          "type": "uint256"
        }
      ],
      "name": "tokenIdToPaymentValue",
      "outputs": [
        {
          "internalType": "uint256",
          "name": "",
          "type": "uint256"
        }
      ],
      "stateMutability": "view",
      "type": "function"
    },
    {
      "inputs": [
        {
          "internalType": "uint256",
          "name": "",
          "type": "uint256"
        }
      ],
      "name": "tokenId_ToExectuedNonce",
      "outputs": [
        {
          "internalType": "uint256",
          "name": "",
          "type": "uint256"
        }
      ],
      "stateMutability": "view",
      "type": "function"
    },
    {
      "inputs": [
        {
          "internalType": "uint256",
          "name": "",
          "type": "uint256"
        }
      ],
      "name": "tokenId_ToNextWithdraw",
      "outputs": [
        {
          "internalType": "uint256",
          "name": "",
          "type": "uint256"
        }
      ],
      "stateMutability": "view",
      "type": "function"
    },
    {
      "inputs": [],
      "name": "tokenNonce",
      "outputs": [
        {
          "internalType": "uint256",
          "name": "",
          "type": "uint256"
        }
      ],
      "stateMutability": "view",
      "type": "function"
    },
    {
      "inputs": [
        {
          "internalType": "address",
          "name": "subscriber",
          "type": "address"
        },
        {
          "internalType": "uint256",
          "name": "id_",
          "type": "uint256"
        },
        {
          "internalType": "uint8",
          "name": "v",
          "type": "uint8"
        },
        {
          "internalType": "bytes32",
          "name": "r",
          "type": "bytes32"
        },
        {
          "internalType": "bytes32",
          "name": "s",
          "type": "bytes32"
        }
      ],
      "name": "unSubscribe",
      "outputs": [],
      "stateMutability": "nonpayable",
      "type": "function"
    },
    {
      "inputs": [
        {
          "internalType": "address",
          "name": "newCreator",
          "type": "address"
        },
        {
          "internalType": "uint256",
          "name": "id",
          "type": "uint256"
        },
        {
          "internalType": "uint8",
          "name": "v",
          "type": "uint8"
        },
        {
          "internalType": "bytes32",
          "name": "r",
          "type": "bytes32"
        },
        {
          "internalType": "bytes32",
          "name": "s",
          "type": "bytes32"
        }
      ],
      "name": "updateSubscriptionCreator",
      "outputs": [],
      "stateMutability": "nonpayable",
      "type": "function"
    },
    {
      "inputs": [
        {
          "internalType": "uint256",
          "name": "",
          "type": "uint256"
        }
      ],
      "name": "uri",
      "outputs": [
        {
          "internalType": "string",
          "name": "",
          "type": "string"
        }
      ],
      "stateMutability": "view",
      "type": "function"
    },
    {
      "inputs": [
        {
          "internalType": "address",
          "name": "",
          "type": "address"
        }
      ],
      "name": "userNonce",
      "outputs": [
        {
          "internalType": "uint256",
          "name": "",
          "type": "uint256"
        }
      ],
      "stateMutability": "view",
      "type": "function"
    },
    {
      "inputs": [],
      "name": "version",
      "outputs": [
        {
          "internalType": "string",
          "name": "",
          "type": "string"
        }
      ],
      "stateMutability": "view",
      "type": "function"
    }
  ],
  "bytecode": "0x6080604052600560065560016008553480156200001b57600080fd5b506040516200581038038062005810833981810160405260408110156200004157600080fd5b81019080805160405193929190846401000000008211156200006257600080fd5b838201915060208201858111156200007957600080fd5b82518660018202830111640100000000821117156200009757600080fd5b8083526020830192505050908051906020019080838360005b83811015620000cd578082015181840152602081019050620000b0565b50505050905090810190601f168015620000fb5780820380516001836020036101000a031916815260200191505b50604052602001805190602001909291905050508181816200012a6301ffc9a760e01b620002eb60201b60201c565b6200013b81620003f460201b60201c565b6200015363d9b67a2660e01b620002eb60201b60201c565b6200016b630e89341c60e01b620002eb60201b60201c565b506200018463d9b67a2660e01b620002eb60201b60201c565b6200019c630e89341c60e01b620002eb60201b60201c565b806005819055507f8b73c3c69bb8fe3d512ecc4cf759cc79239f7b179b0ffacaa9a75d522b39400f6040518060400160405280601381526020017f5175616c6c6120537562736372697074696f6e00000000000000000000000000815250805190602001206040518060400160405280600181526020017f31000000000000000000000000000000000000000000000000000000000000008152508051906020012060055430604051602001808681526020018581526020018481526020018381526020018273ffffffffffffffffffffffffffffffffffffffff168152602001955050505050506040516020818303038152906040528051906020012060048190555033600760006101000a81548173ffffffffffffffffffffffffffffffffffffffff021916908373ffffffffffffffffffffffffffffffffffffffff16021790555050505050620004b6565b63ffffffff60e01b817bffffffffffffffffffffffffffffffffffffffffffffffffffffffff1916141562000388576040517f08c379a000000000000000000000000000000000000000000000000000000000815260040180806020018281038252601c8152602001807f4552433136353a20696e76616c696420696e746572666163652069640000000081525060200191505060405180910390fd5b6001600080837bffffffffffffffffffffffffffffffffffffffffffffffffffffffff19167bffffffffffffffffffffffffffffffffffffffffffffffffffffffff1916815260200190815260200160002060006101000a81548160ff02191690831515021790555050565b80600390805190602001906200040c92919062000410565b5050565b828054600181600116156101000203166002900490600052602060002090601f016020900481019282601f106200045357805160ff191683800117855562000484565b8280016001018555821562000484579182015b828111156200048357825182559160200191906001019062000466565b5b50905062000493919062000497565b5090565b5b80821115620004b257600081600090555060010162000498565b5090565b61534a80620004c66000396000f3fe608060405234801561001057600080fd5b50600436106101ef5760003560e01c806354fd4d501161010f578063b166acd1116100a2578063e985e9c511610071578063e985e9c514610fbb578063ede54d0214611035578063f242432a1461108d578063f73b43a81461119c576101ef565b8063b166acd114610eaa578063ddca3f4314610f19578063e0be313f14610f37578063e1c7bc0a14610f79576101ef565b806397cf7003116100de57806397cf700314610dac5780639a8a059214610dee5780639eb9abde14610e0c578063a22cb46514610e5a576101ef565b806354fd4d5014610c8457806369fe0e2d14610d0757806390f71b4414610d3557806395fbbf5014610d53576101ef565b80632e04b8e7116101875780633fbde260116101565780633fbde2601461083e5780634e1273f4146108805780634fce947414610a2157806353e2717314610c42576101ef565b80632e04b8e71461050c5780632eb2c2d6146105645780633644e515146107875780633a9e6e44146107a5576101ef565b80630e89341c116101c35780630e89341c146103ab5780631add3108146104525780631d059bbb1461047057806326fae0d3146104c8576101ef565b8062fdd58e146101f457806301ffc9a71461025657806302c561d8146102b957806306fdde0314610328575b600080fd5b6102406004803603604081101561020a57600080fd5b81019080803573ffffffffffffffffffffffffffffffffffffffff1690602001909291908035906020019092919050505061120b565b6040518082815260200191505060405180910390f35b6102a16004803603602081101561026c57600080fd5b8101908080357bffffffffffffffffffffffffffffffffffffffffffffffffffffffff191690602001909291905050506112eb565b60405180821515815260200191505060405180910390f35b610326600480360360a08110156102cf57600080fd5b81019080803573ffffffffffffffffffffffffffffffffffffffff16906020019092919080359060200190929190803560ff1690602001909291908035906020019092919080359060200190929190505050611352565b005b6103306115b7565b6040518080602001828103825283818151815260200191508051906020019080838360005b83811015610370578082015181840152602081019050610355565b50505050905090810190601f16801561039d5780820380516001836020036101000a031916815260200191505b509250505060405180910390f35b6103d7600480360360208110156103c157600080fd5b81019080803590602001909291905050506115f0565b6040518080602001828103825283818151815260200191508051906020019080838360005b838110156104175780820151818401526020810190506103fc565b50505050905090810190601f1680156104445780820380516001836020036101000a031916815260200191505b509250505060405180910390f35b61045a611694565b6040518082815260200191505060405180910390f35b61049c6004803603602081101561048657600080fd5b81019080803590602001909291905050506116b8565b604051808273ffffffffffffffffffffffffffffffffffffffff16815260200191505060405180910390f35b61050a600480360360208110156104de57600080fd5b81019080803573ffffffffffffffffffffffffffffffffffffffff1690602001909291905050506116eb565b005b61054e6004803603602081101561052257600080fd5b81019080803573ffffffffffffffffffffffffffffffffffffffff16906020019092919050505061186b565b6040518082815260200191505060405180910390f35b610785600480360360a081101561057a57600080fd5b81019080803573ffffffffffffffffffffffffffffffffffffffff169060200190929190803573ffffffffffffffffffffffffffffffffffffffff169060200190929190803590602001906401000000008111156105d757600080fd5b8201836020820111156105e957600080fd5b8035906020019184602083028401116401000000008311171561060b57600080fd5b919080806020026020016040519081016040528093929190818152602001838360200280828437600081840152601f19601f8201169050808301925050505050505091929192908035906020019064010000000081111561066b57600080fd5b82018360208201111561067d57600080fd5b8035906020019184602083028401116401000000008311171561069f57600080fd5b919080806020026020016040519081016040528093929190818152602001838360200280828437600081840152601f19601f820116905080830192505050505050509192919290803590602001906401000000008111156106ff57600080fd5b82018360208201111561071157600080fd5b8035906020019184600183028401116401000000008311171561073357600080fd5b91908080601f016020809104026020016040519081016040528093929190818152602001838380828437600081840152601f19601f820116905080830192505050505050509192919290505050611883565b005b61078f611c6b565b6040518082815260200191505060405180910390f35b61083c600480360360e08110156107bb57600080fd5b81019080803573ffffffffffffffffffffffffffffffffffffffff16906020019092919080359060200190929190803573ffffffffffffffffffffffffffffffffffffffff16906020019092919080359060200190929190803560ff1690602001909291908035906020019092919080359060200190929190505050611c71565b005b61086a6004803603602081101561085457600080fd5b8101908080359060200190929190505050611d5f565b6040518082815260200191505060405180910390f35b6109ca6004803603604081101561089657600080fd5b81019080803590602001906401000000008111156108b357600080fd5b8201836020820111156108c557600080fd5b803590602001918460208302840111640100000000831117156108e757600080fd5b919080806020026020016040519081016040528093929190818152602001838360200280828437600081840152601f19601f8201169050808301925050505050505091929192908035906020019064010000000081111561094757600080fd5b82018360208201111561095957600080fd5b8035906020019184602083028401116401000000008311171561097b57600080fd5b919080806020026020016040519081016040528093929190818152602001838360200280828437600081840152601f19601f820116905080830192505050505050509192919290505050611d77565b6040518080602001828103825283818151815260200191508051906020019060200280838360005b83811015610a0d5780820151818401526020810190506109f2565b505050509050019250505060405180910390f35b610c40600480360360e0811015610a3757600080fd5b81019080803573ffffffffffffffffffffffffffffffffffffffff16906020019092919080359060200190640100000000811115610a7457600080fd5b820183602082011115610a8657600080fd5b80359060200191846020830284011164010000000083111715610aa857600080fd5b919080806020026020016040519081016040528093929190818152602001838360200280828437600081840152601f19601f82011690508083019250505050505050919291929080359060200190640100000000811115610b0857600080fd5b820183602082011115610b1a57600080fd5b80359060200191846020830284011164010000000083111715610b3c57600080fd5b919080806020026020016040519081016040528093929190818152602001838360200280828437600081840152601f19601f82011690508083019250505050505050919291929080359060200190640100000000811115610b9c57600080fd5b820183602082011115610bae57600080fd5b80359060200191846020830284011164010000000083111715610bd057600080fd5b919080806020026020016040519081016040528093929190818152602001838360200280828437600081840152601f19601f820116905080830192505050505050509192919290803560ff1690602001909291908035906020019092919080359060200190929190505050611f69565b005b610c6e60048036036020811015610c5857600080fd5b81019080803590602001909291905050506120f5565b6040518082815260200191505060405180910390f35b610c8c61225b565b6040518080602001828103825283818151815260200191508051906020019080838360005b83811015610ccc578082015181840152602081019050610cb1565b50505050905090810190601f168015610cf95780820380516001836020036101000a031916815260200191505b509250505060405180910390f35b610d3360048036036020811015610d1d57600080fd5b8101908080359060200190929190505050612294565b005b610d3d612451565b6040518082815260200191505060405180910390f35b610daa600480360360a0811015610d6957600080fd5b810190808035906020019092919080359060200190929190803560ff1690602001909291908035906020019092919080359060200190929190505050612457565b005b610dd860048036036020811015610dc257600080fd5b8101908080359060200190929190505050612609565b6040518082815260200191505060405180910390f35b610df6612621565b6040518082815260200191505060405180910390f35b610e5860048036036040811015610e2257600080fd5b8101908080359060200190929190803573ffffffffffffffffffffffffffffffffffffffff169060200190929190505050612627565b005b610ea860048036036040811015610e7057600080fd5b81019080803573ffffffffffffffffffffffffffffffffffffffff169060200190929190803515159060200190929190505050612e2f565b005b610f17600480360360a0811015610ec057600080fd5b81019080803573ffffffffffffffffffffffffffffffffffffffff16906020019092919080359060200190929190803560ff1690602001909291908035906020019092919080359060200190929190505050612fc8565b005b610f216131cf565b6040518082815260200191505060405180910390f35b610f6360048036036020811015610f4d57600080fd5b81019080803590602001909291905050506131d5565b6040518082815260200191505060405180910390f35b610fa560048036036020811015610f8f57600080fd5b81019080803590602001909291905050506131ed565b6040518082815260200191505060405180910390f35b61101d60048036036040811015610fd157600080fd5b81019080803573ffffffffffffffffffffffffffffffffffffffff169060200190929190803573ffffffffffffffffffffffffffffffffffffffff169060200190929190505050613205565b60405180821515815260200191505060405180910390f35b6110616004803603602081101561104b57600080fd5b8101908080359060200190929190505050613299565b604051808273ffffffffffffffffffffffffffffffffffffffff16815260200191505060405180910390f35b61119a600480360360a08110156110a357600080fd5b81019080803573ffffffffffffffffffffffffffffffffffffffff169060200190929190803573ffffffffffffffffffffffffffffffffffffffff16906020019092919080359060200190929190803590602001909291908035906020019064010000000081111561111457600080fd5b82018360208201111561112657600080fd5b8035906020019184600183028401116401000000008311171561114857600080fd5b91908080601f016020809104026020016040519081016040528093929190818152602001838380828437600081840152601f19601f8201169050808301925050505050505091929192905050506132cc565b005b611209600480360360a08110156111b257600080fd5b81019080803573ffffffffffffffffffffffffffffffffffffffff16906020019092919080359060200190929190803560ff169060200190929190803590602001909291908035906020019092919050505061359e565b005b60008073ffffffffffffffffffffffffffffffffffffffff168373ffffffffffffffffffffffffffffffffffffffff161415611292576040517f08c379a000000000000000000000000000000000000000000000000000000000815260040180806020018281038252602b815260200180615146602b913960400191505060405180910390fd5b6001600083815260200190815260200160002060008473ffffffffffffffffffffffffffffffffffffffff1673ffffffffffffffffffffffffffffffffffffffff16815260200190815260200160002054905092915050565b6000806000837bffffffffffffffffffffffffffffffffffffffffffffffffffffffff19167bffffffffffffffffffffffffffffffffffffffffffffffffffffffff1916815260200190815260200160002060009054906101000a900460ff169050919050565b60007f80000000000000000000000000000000000000000000000000000000000000008516146113ea576040517f08c379a00000000000000000000000000000000000000000000000000000000081526004018080602001828103825260178152602001807f5175616c6c612f57726f6e672d546f6b656e2d5479706500000000000000000081525060200191505060405180910390fd5b60007fffffffffffffffffffffffffffffffffffffffffffffffffffffffffffffffff6fffffffffffffffffffffffffffffffff16851614611477576040517f08c379a00000000000000000000000000000000000000000000000000000000081526004018080602001828103825260218152602001806152596021913960400191505060405180910390fd5b6000600e600086815260200190815260200160002060009054906101000a900473ffffffffffffffffffffffffffffffffffffffff1690506114f1816040518060400160405280600681526020017f7570646174650000000000000000000000000000000000000000000000000000815250868686613a8b565b61155d818787600160008a815260200190815260200160002060008673ffffffffffffffffffffffffffffffffffffffff1673ffffffffffffffffffffffffffffffffffffffff16815260200190815260200160002054604051806020016040528060008152506132cc565b85600e600087815260200190815260200160002060006101000a81548173ffffffffffffffffffffffffffffffffffffffff021916908373ffffffffffffffffffffffffffffffffffffffff160217905550505050505050565b6040518060400160405280601381526020017f5175616c6c6120537562736372697074696f6e0000000000000000000000000081525081565b606060038054600181600116156101000203166002900480601f0160208091040260200160405190810160405280929190818152602001828054600181600116156101000203166002900480156116885780601f1061165d57610100808354040283529160200191611688565b820191906000526020600020905b81548152906001019060200180831161166b57829003601f168201915b50505050509050919050565b7f58110846b49f70e49168dab9f7743d70e8da96a3773a194c36bcb67faf9bbdc581565b600e6020528060005260406000206000915054906101000a900473ffffffffffffffffffffffffffffffffffffffff1681565b600760009054906101000a900473ffffffffffffffffffffffffffffffffffffffff1673ffffffffffffffffffffffffffffffffffffffff163373ffffffffffffffffffffffffffffffffffffffff16146117ae576040517f08c379a00000000000000000000000000000000000000000000000000000000081526004018080602001828103825260098152602001807f464f5242494444454e000000000000000000000000000000000000000000000081525060200191505060405180910390fd5b80600760006101000a81548173ffffffffffffffffffffffffffffffffffffffff021916908373ffffffffffffffffffffffffffffffffffffffff1602179055507f7e0a74b35d445065e31b4bb43f5c458582046e0b718b9a56e261d5b1b22a3fc3600760009054906101000a900473ffffffffffffffffffffffffffffffffffffffff16600654604051808373ffffffffffffffffffffffffffffffffffffffff1681526020018281526020019250505060405180910390a150565b60096020528060005260406000206000915090505481565b81518351146118dd576040517f08c379a00000000000000000000000000000000000000000000000000000000081526004018080602001828103825260288152602001806152cc6028913960400191505060405180910390fd5b600073ffffffffffffffffffffffffffffffffffffffff168473ffffffffffffffffffffffffffffffffffffffff161415611963576040517f08c379a00000000000000000000000000000000000000000000000000000000081526004018080602001828103825260258152602001806151c66025913960400191505060405180910390fd5b600061196d613cfd565b905061197d818787878787613d05565b60005b8451811015611b4e57600085828151811061199757fe5b6020026020010151905060008583815181106119af57fe5b60200260200101519050611a36816040518060600160405280602a815260200161520e602a91396001600086815260200190815260200160002060008d73ffffffffffffffffffffffffffffffffffffffff1673ffffffffffffffffffffffffffffffffffffffff16815260200190815260200160002054613d0d9092919063ffffffff16565b6001600084815260200190815260200160002060008b73ffffffffffffffffffffffffffffffffffffffff1673ffffffffffffffffffffffffffffffffffffffff16815260200190815260200160002081905550611aed816001600085815260200190815260200160002060008b73ffffffffffffffffffffffffffffffffffffffff1673ffffffffffffffffffffffffffffffffffffffff16815260200190815260200160002054613dcd90919063ffffffff16565b6001600084815260200190815260200160002060008a73ffffffffffffffffffffffffffffffffffffffff1673ffffffffffffffffffffffffffffffffffffffff168152602001908152602001600020819055505050806001019050611980565b508473ffffffffffffffffffffffffffffffffffffffff168673ffffffffffffffffffffffffffffffffffffffff168273ffffffffffffffffffffffffffffffffffffffff167f4a39dc06d4c0dbc64b70af90fd698a233a518aa5d07e595d983b8c0526c8f7fb8787604051808060200180602001838103835285818151815260200191508051906020019060200280838360005b83811015611bfe578082015181840152602081019050611be3565b50505050905001838103825284818151815260200191508051906020019060200280838360005b83811015611c40578082015181840152602081019050611c25565b5050505090500194505050505060405180910390a4611c63818787878787613e55565b505050505050565b60045481565b611cb3876040518060400160405280600481526020017f6d696e7400000000000000000000000000000000000000000000000000000000815250858585613a8b565b6000861415611ce0577fffffffffffffffffffffffffffffffffffffffffffffffffffffffffffffffff95505b60006080600854901b9050611d0f611cf7826141e4565b89611d0189614254565b611d0a896141e4565b6142f2565b611d2a8882896040518060200160405280600081525061442d565b6008600081548092919060010191905055506001600d6000838152602001908152602001600020819055505050505050505050565b600d6020528060005260406000206000915090505481565b60608151835114611dd3576040517f08c379a00000000000000000000000000000000000000000000000000000000081526004018080602001828103825260298152602001806152a36029913960400191505060405180910390fd5b6060835167ffffffffffffffff81118015611ded57600080fd5b50604051908082528060200260200182016040528015611e1c5781602001602082028036833780820191505090505b50905060005b8451811015611f5e57600073ffffffffffffffffffffffffffffffffffffffff16858281518110611e4f57fe5b602002602001015173ffffffffffffffffffffffffffffffffffffffff161415611ec4576040517f08c379a00000000000000000000000000000000000000000000000000000000081526004018080602001828103825260318152602001806151716031913960400191505060405180910390fd5b60016000858381518110611ed457fe5b602002602001015181526020019081526020016000206000868381518110611ef857fe5b602002602001015173ffffffffffffffffffffffffffffffffffffffff1673ffffffffffffffffffffffffffffffffffffffff16815260200190815260200160002054828281518110611f4757fe5b602002602001018181525050806001019050611e22565b508091505092915050565b611fab876040518060400160405280600481526020017f6d696e7400000000000000000000000000000000000000000000000000000000815250858585613a8b565b6060865167ffffffffffffffff81118015611fc557600080fd5b50604051908082528060200260200182016040528015611ff45781602001602082028036833780820191505090505b50905060005b87518110156120c357600088828151811061201157fe5b60200260200101511415612059577fffffffffffffffffffffffffffffffffffffffffffffffffffffffffffffffff88828151811061204c57fe5b6020026020010181815250505b6080600854901b82828151811061206c57fe5b6020026020010181815250506008600081548092919060010191905055506001600d600084848151811061209c57fe5b60200260200101518152602001908152602001600020819055508080600101915050611ffa565b506120d0818988886142f2565b6120eb88828960405180602001604052806000815250614621565b5050505050505050565b6000807f800000000000000000000000000000000000000000000000000000000000000083161461218e576040517f08c379a00000000000000000000000000000000000000000000000000000000081526004018080602001828103825260178152602001807f5175616c6c612f57726f6e672d546f6b656e2d5479706500000000000000000081525060200191505060405180910390fd5b60007fffffffffffffffffffffffffffffffffffffffffffffffffffffffffffffffff6fffffffffffffffffffffffffffffffff1683161161221b576040517f08c379a00000000000000000000000000000000000000000000000000000000081526004018080602001828103825260218152602001806152596021913960400191505060405180910390fd5b60807fffffffffffffffffffffffffffffffffffffffffffffffffffffffffffffffff6fffffffffffffffffffffffffffffffff16901b82169050919050565b6040518060400160405280600181526020017f310000000000000000000000000000000000000000000000000000000000000081525081565b600760009054906101000a900473ffffffffffffffffffffffffffffffffffffffff1673ffffffffffffffffffffffffffffffffffffffff163373ffffffffffffffffffffffffffffffffffffffff1614612357576040517f08c379a00000000000000000000000000000000000000000000000000000000081526004018080602001828103825260098152602001807f464f5242494444454e000000000000000000000000000000000000000000000081525060200191505060405180910390fd5b60065481106123ce576040517f08c379a00000000000000000000000000000000000000000000000000000000081526004018080602001828103825260148152602001807f494e56414c49442046454520494e43524541534500000000000000000000000081525060200191505060405180910390fd5b806006819055507f7e0a74b35d445065e31b4bb43f5c458582046e0b718b9a56e261d5b1b22a3fc3600760009054906101000a900473ffffffffffffffffffffffffffffffffffffffff16600654604051808373ffffffffffffffffffffffffffffffffffffffff1681526020018281526020019250505060405180910390a150565b60085481565b60007f80000000000000000000000000000000000000000000000000000000000000008616146124ef576040517f08c379a00000000000000000000000000000000000000000000000000000000081526004018080602001828103825260178152602001807f5175616c6c612f57726f6e672d546f6b656e2d5479706500000000000000000081525060200191505060405180910390fd5b60007fffffffffffffffffffffffffffffffffffffffffffffffffffffffffffffffff6fffffffffffffffffffffffffffffffff1686161461257c576040517f08c379a00000000000000000000000000000000000000000000000000000000081526004018080602001828103825260218152602001806152596021913960400191505060405180910390fd5b6000600e600087815260200190815260200160002060009054906101000a900473ffffffffffffffffffffffffffffffffffffffff1690506125f6816040518060400160405280600481526020017f6275726e00000000000000000000000000000000000000000000000000000000815250868686613a8b565b612601818787614943565b505050505050565b600f6020528060005260406000206000915090505481565b60055481565b60007f80000000000000000000000000000000000000000000000000000000000000008316146126bf576040517f08c379a00000000000000000000000000000000000000000000000000000000081526004018080602001828103825260178152602001807f5175616c6c612f57726f6e672d546f6b656e2d5479706500000000000000000081525060200191505060405180910390fd5b60007fffffffffffffffffffffffffffffffffffffffffffffffffffffffffffffffff6fffffffffffffffffffffffffffffffff1683161161274c576040517f08c379a00000000000000000000000000000000000000000000000000000000081526004018080602001828103825260218152602001806152596021913960400191505060405180910390fd5b600180600084815260200190815260200160002060008373ffffffffffffffffffffffffffffffffffffffff1673ffffffffffffffffffffffffffffffffffffffff1681526020019081526020016000205414612811576040517f08c379a00000000000000000000000000000000000000000000000000000000081526004018080602001828103825260198152602001807f5175616c6c612f496e76616c69642d537562736372696265720000000000000081525060200191505060405180910390fd5b42600c60008481526020019081526020016000205410612899576040517f08c379a000000000000000000000000000000000000000000000000000000000815260040180806020018281038252601d8152602001807f5175616c6c612f537562736372697074696f6e2d4e6f742d526561647900000081525060200191505060405180910390fd5b600060807fffffffffffffffffffffffffffffffffffffffffffffffffffffffffffffffff6fffffffffffffffffffffffffffffffff16901b831690506000600e600083815260200190815260200160002060009054906101000a900473ffffffffffffffffffffffffffffffffffffffff1690506000600b600084815260200190815260200160002060009054906101000a900473ffffffffffffffffffffffffffffffffffffffff1690506000600a60008581526020019081526020016000205490506000600f6000888152602001908152602001600020549050600481106129ab5761298a86886001614943565b6129a6848660016040518060200160405280600081525061442d565b6129ce565b6001600f6000898152602001908152602001600020600082825401925050819055505b60006006546064039050600a600087815260200190815260200160002054600b600088815260200190815260200160002060009054906101000a900473ffffffffffffffffffffffffffffffffffffffff1673ffffffffffffffffffffffffffffffffffffffff1663dd62ed3e89306040518363ffffffff1660e01b8152600401808373ffffffffffffffffffffffffffffffffffffffff1681526020018273ffffffffffffffffffffffffffffffffffffffff1681526020019250505060206040518083038186803b158015612aa457600080fd5b505afa158015612ab8573d6000803e3d6000fd5b505050506040513d6020811015612ace57600080fd5b81019080805190602001909291905050501080612bd15750600a600087815260200190815260200160002054600b600088815260200190815260200160002060009054906101000a900473ffffffffffffffffffffffffffffffffffffffff1673ffffffffffffffffffffffffffffffffffffffff166370a08231896040518263ffffffff1660e01b8152600401808273ffffffffffffffffffffffffffffffffffffffff16815260200191505060206040518083038186803b158015612b9457600080fd5b505afa158015612ba8573d6000803e3d6000fd5b505050506040513d6020811015612bbe57600080fd5b8101908080519060200190929190505050105b15612bff57612be287896001614943565b612bfe858760016040518060200160405280600081525061442d565b5b8373ffffffffffffffffffffffffffffffffffffffff166323b872dd88600760009054906101000a900473ffffffffffffffffffffffffffffffffffffffff16612c676064612c596006548a614b5f90919063ffffffff16565b614be590919063ffffffff16565b6040518463ffffffff1660e01b8152600401808473ffffffffffffffffffffffffffffffffffffffff1681526020018373ffffffffffffffffffffffffffffffffffffffff1681526020018281526020019350505050602060405180830381600087803b158015612cd757600080fd5b505af1158015612ceb573d6000803e3d6000fd5b505050506040513d6020811015612d0157600080fd5b8101908080519060200190929190505050508373ffffffffffffffffffffffffffffffffffffffff166323b872dd8887612d576064612d49878a614b5f90919063ffffffff16565b614be590919063ffffffff16565b6040518463ffffffff1660e01b8152600401808473ffffffffffffffffffffffffffffffffffffffff1681526020018373ffffffffffffffffffffffffffffffffffffffff1681526020018281526020019350505050602060405180830381600087803b158015612dc757600080fd5b505af1158015612ddb573d6000803e3d6000fd5b505050506040513d6020811015612df157600080fd5b810190808051906020019092919050505050600f600c60008a8152602001908152602001600020600082825401925050819055505050505050505050565b8173ffffffffffffffffffffffffffffffffffffffff16612e4e613cfd565b73ffffffffffffffffffffffffffffffffffffffff161415612ebb576040517f08c379a000000000000000000000000000000000000000000000000000000000815260040180806020018281038252602981526020018061527a6029913960400191505060405180910390fd5b8060026000612ec8613cfd565b73ffffffffffffffffffffffffffffffffffffffff1673ffffffffffffffffffffffffffffffffffffffff16815260200190815260200160002060008473ffffffffffffffffffffffffffffffffffffffff1673ffffffffffffffffffffffffffffffffffffffff16815260200190815260200160002060006101000a81548160ff0219169083151502179055508173ffffffffffffffffffffffffffffffffffffffff16612f75613cfd565b73ffffffffffffffffffffffffffffffffffffffff167f17307eab39ab6107e8899845ad3d59bd9653f200f220920489ca2b5937696c318360405180821515815260200191505060405180910390a35050565b60007f8000000000000000000000000000000000000000000000000000000000000000851614613060576040517f08c379a00000000000000000000000000000000000000000000000000000000081526004018080602001828103825260178152602001807f5175616c6c612f57726f6e672d546f6b656e2d5479706500000000000000000081525060200191505060405180910390fd5b60007fffffffffffffffffffffffffffffffffffffffffffffffffffffffffffffffff6fffffffffffffffffffffffffffffffff168516116130ed576040517f08c379a00000000000000000000000000000000000000000000000000000000081526004018080602001828103825260218152602001806152596021913960400191505060405180910390fd5b61312f856040518060400160405280600b81526020017f756e737562736372696265000000000000000000000000000000000000000000815250858585613a8b565b600060807fffffffffffffffffffffffffffffffffffffffffffffffffffffffffffffffff6fffffffffffffffffffffffffffffffff16901b8516905061317886866001614943565b6131c7600e600083815260200190815260200160002060009054906101000a900473ffffffffffffffffffffffffffffffffffffffff168260016040518060200160405280600081525061442d565b505050505050565b60065481565b600a6020528060005260406000206000915090505481565b600c6020528060005260406000206000915090505481565b6000600260008473ffffffffffffffffffffffffffffffffffffffff1673ffffffffffffffffffffffffffffffffffffffff16815260200190815260200160002060008373ffffffffffffffffffffffffffffffffffffffff1673ffffffffffffffffffffffffffffffffffffffff16815260200190815260200160002060009054906101000a900460ff16905092915050565b600b6020528060005260406000206000915054906101000a900473ffffffffffffffffffffffffffffffffffffffff1681565b600073ffffffffffffffffffffffffffffffffffffffff168473ffffffffffffffffffffffffffffffffffffffff161415613352576040517f08c379a00000000000000000000000000000000000000000000000000000000081526004018080602001828103825260258152602001806151c66025913960400191505060405180910390fd5b600061335c613cfd565b905061337c81878761336d886141e4565b613376886141e4565b87613d05565b6133f9836040518060600160405280602a815260200161520e602a91396001600088815260200190815260200160002060008a73ffffffffffffffffffffffffffffffffffffffff1673ffffffffffffffffffffffffffffffffffffffff16815260200190815260200160002054613d0d9092919063ffffffff16565b6001600086815260200190815260200160002060008873ffffffffffffffffffffffffffffffffffffffff1673ffffffffffffffffffffffffffffffffffffffff168152602001908152602001600020819055506134b0836001600087815260200190815260200160002060008873ffffffffffffffffffffffffffffffffffffffff1673ffffffffffffffffffffffffffffffffffffffff16815260200190815260200160002054613dcd90919063ffffffff16565b6001600086815260200190815260200160002060008773ffffffffffffffffffffffffffffffffffffffff1673ffffffffffffffffffffffffffffffffffffffff168152602001908152602001600020819055508473ffffffffffffffffffffffffffffffffffffffff168673ffffffffffffffffffffffffffffffffffffffff168273ffffffffffffffffffffffffffffffffffffffff167fc3d58168c5ae7397731d063d5bbf3d657854427343f4c083240f7aacaa2d0f628787604051808381526020018281526020019250505060405180910390a4613596818787878787614c2f565b505050505050565b60007f8000000000000000000000000000000000000000000000000000000000000000851614613636576040517f08c379a00000000000000000000000000000000000000000000000000000000081526004018080602001828103825260178152602001807f5175616c6c612f57726f6e672d546f6b656e2d5479706500000000000000000081525060200191505060405180910390fd5b60007fffffffffffffffffffffffffffffffffffffffffffffffffffffffffffffffff6fffffffffffffffffffffffffffffffff168516146136c3576040517f08c379a00000000000000000000000000000000000000000000000000000000081526004018080602001828103825260218152602001806152596021913960400191505060405180910390fd5b600a600085815260200190815260200160002054600b600086815260200190815260200160002060009054906101000a900473ffffffffffffffffffffffffffffffffffffffff1673ffffffffffffffffffffffffffffffffffffffff166370a08231876040518263ffffffff1660e01b8152600401808273ffffffffffffffffffffffffffffffffffffffff16815260200191505060206040518083038186803b15801561377157600080fd5b505afa158015613785573d6000803e3d6000fd5b505050506040513d602081101561379b57600080fd5b81019080805190602001909291905050501161381f576040517f08c379a000000000000000000000000000000000000000000000000000000000815260040180806020018281038252601b8152602001807f5175616c6c612f496e73756666696369656e742d42616c616e6365000000000081525060200191505060405180910390fd5b600a600085815260200190815260200160002054600b600086815260200190815260200160002060009054906101000a900473ffffffffffffffffffffffffffffffffffffffff1673ffffffffffffffffffffffffffffffffffffffff1663dd62ed3e87306040518363ffffffff1660e01b8152600401808373ffffffffffffffffffffffffffffffffffffffff1681526020018273ffffffffffffffffffffffffffffffffffffffff1681526020019250505060206040518083038186803b1580156138eb57600080fd5b505afa1580156138ff573d6000803e3d6000fd5b505050506040513d602081101561391557600080fd5b810190808051906020019092919050505011613999576040517f08c379a000000000000000000000000000000000000000000000000000000000815260040180806020018281038252601d8152602001807f5175616c6c612f496e73756666696369656e742d416c6c6f77616e636500000081525060200191505060405180910390fd5b6139db856040518060400160405280600981526020017f7375627363726962650000000000000000000000000000000000000000000000815250858585613a8b565b6000600d600086815260200190815260200160002054905060008186179050613a39600e600088815260200190815260200160002060009054906101000a900473ffffffffffffffffffffffffffffffffffffffff16876001614943565b613a55878260016040518060200160405280600081525061442d565b600d600087815260200190815260200160002060008154809291906001019190505550613a828188612627565b50505050505050565b60006004547f58110846b49f70e49168dab9f7743d70e8da96a3773a194c36bcb67faf9bbdc587600960008a73ffffffffffffffffffffffffffffffffffffffff1673ffffffffffffffffffffffffffffffffffffffff168152602001908152602001600020548880519060200120604051602001808581526020018473ffffffffffffffffffffffffffffffffffffffff1681526020018381526020018281526020019450505050506040516020818303038152906040528051906020012060405160200180807f19010000000000000000000000000000000000000000000000000000000000008152506002018381526020018281526020019250505060405160208183030381529060405280519060200120905060018185858560405160008152602001604052604051808581526020018460ff1681526020018381526020018281526020019450505050506020604051602081039080840390855afa158015613bfc573d6000803e3d6000fd5b5050506020604051035173ffffffffffffffffffffffffffffffffffffffff168673ffffffffffffffffffffffffffffffffffffffff1614613ca6576040517f08c379a00000000000000000000000000000000000000000000000000000000081526004018080602001828103825260158152602001807f5175616c6c612f696e76616c69642d7065726d6974000000000000000000000081525060200191505060405180910390fd5b600960008773ffffffffffffffffffffffffffffffffffffffff1673ffffffffffffffffffffffffffffffffffffffff16815260200190815260200160002060008154809291906001019190505550505050505050565b600033905090565b505050505050565b6000838311158290613dba576040517f08c379a00000000000000000000000000000000000000000000000000000000081526004018080602001828103825283818151815260200191508051906020019080838360005b83811015613d7f578082015181840152602081019050613d64565b50505050905090810190601f168015613dac5780820380516001836020036101000a031916815260200191505b509250505060405180910390fd5b5060008385039050809150509392505050565b600080828401905083811015613e4b576040517f08c379a000000000000000000000000000000000000000000000000000000000815260040180806020018281038252601b8152602001807f536166654d6174683a206164646974696f6e206f766572666c6f77000000000081525060200191505060405180910390fd5b8091505092915050565b613e748473ffffffffffffffffffffffffffffffffffffffff16614f3c565b156141dc578373ffffffffffffffffffffffffffffffffffffffff1663bc197c8187878686866040518663ffffffff1660e01b8152600401808673ffffffffffffffffffffffffffffffffffffffff1681526020018573ffffffffffffffffffffffffffffffffffffffff168152602001806020018060200180602001848103845287818151815260200191508051906020019060200280838360005b83811015613f2c578082015181840152602081019050613f11565b50505050905001848103835286818151815260200191508051906020019060200280838360005b83811015613f6e578082015181840152602081019050613f53565b50505050905001848103825285818151815260200191508051906020019080838360005b83811015613fad578082015181840152602081019050613f92565b50505050905090810190601f168015613fda5780820380516001836020036101000a031916815260200191505b5098505050505050505050602060405180830381600087803b158015613fff57600080fd5b505af192505050801561403357506040513d602081101561401f57600080fd5b810190808051906020019092919050505060015b61413d5761403f615033565b8061404a57506140ec565b806040517f08c379a00000000000000000000000000000000000000000000000000000000081526004018080602001828103825283818151815260200191508051906020019080838360005b838110156140b1578082015181840152602081019050614096565b50505050905090810190601f1680156140de5780820380516001836020036101000a031916815260200191505b509250505060405180910390fd5b6040517f08c379a00000000000000000000000000000000000000000000000000000000081526004018080602001828103825260348152602001806150ea6034913960400191505060405180910390fd5b63bc197c8160e01b7bffffffffffffffffffffffffffffffffffffffffffffffffffffffff1916817bffffffffffffffffffffffffffffffffffffffffffffffffffffffff1916146141da576040517f08c379a000000000000000000000000000000000000000000000000000000000815260040180806020018281038252602881526020018061511e6028913960400191505060405180910390fd5b505b505050505050565b606080600167ffffffffffffffff811180156141ff57600080fd5b5060405190808252806020026020018201604052801561422e5781602001602082028036833780820191505090505b509050828160008151811061423f57fe5b60200260200101818152505080915050919050565b606080600167ffffffffffffffff8111801561426f57600080fd5b5060405190808252806020026020018201604052801561429e5781602001602082028036833780820191505090505b50905082816000815181106142af57fe5b602002602001019073ffffffffffffffffffffffffffffffffffffffff16908173ffffffffffffffffffffffffffffffffffffffff168152505080915050919050565b60005b84518110156144265781818151811061430a57fe5b6020026020010151600a600087848151811061432257fe5b602002602001015181526020019081526020016000208190555082818151811061434857fe5b6020026020010151600b600087848151811061436057fe5b6020026020010151815260200190815260200160002060006101000a81548173ffffffffffffffffffffffffffffffffffffffff021916908373ffffffffffffffffffffffffffffffffffffffff16021790555083600e60008784815181106143c557fe5b6020026020010151815260200190815260200160002060006101000a81548173ffffffffffffffffffffffffffffffffffffffff021916908373ffffffffffffffffffffffffffffffffffffffff16021790555080806001019150506142f5565b5050505050565b600073ffffffffffffffffffffffffffffffffffffffff168473ffffffffffffffffffffffffffffffffffffffff1614156144b3576040517f08c379a00000000000000000000000000000000000000000000000000000000081526004018080602001828103825260218152602001806152f46021913960400191505060405180910390fd5b60006144bd613cfd565b90506144de816000876144cf886141e4565b6144d8886141e4565b87613d05565b614541836001600087815260200190815260200160002060008873ffffffffffffffffffffffffffffffffffffffff1673ffffffffffffffffffffffffffffffffffffffff16815260200190815260200160002054613dcd90919063ffffffff16565b6001600086815260200190815260200160002060008773ffffffffffffffffffffffffffffffffffffffff1673ffffffffffffffffffffffffffffffffffffffff168152602001908152602001600020819055508473ffffffffffffffffffffffffffffffffffffffff16600073ffffffffffffffffffffffffffffffffffffffff168273ffffffffffffffffffffffffffffffffffffffff167fc3d58168c5ae7397731d063d5bbf3d657854427343f4c083240f7aacaa2d0f628787604051808381526020018281526020019250505060405180910390a45050505050565b600073ffffffffffffffffffffffffffffffffffffffff168473ffffffffffffffffffffffffffffffffffffffff1614156146a7576040517f08c379a00000000000000000000000000000000000000000000000000000000081526004018080602001828103825260218152602001806152f46021913960400191505060405180910390fd5b8151835114614701576040517f08c379a00000000000000000000000000000000000000000000000000000000081526004018080602001828103825260288152602001806152cc6028913960400191505060405180910390fd5b600061470b613cfd565b905061471c81600087878787613d05565b60005b8451811015614825576147b16001600087848151811061473b57fe5b6020026020010151815260200190815260200160002060008873ffffffffffffffffffffffffffffffffffffffff1673ffffffffffffffffffffffffffffffffffffffff1681526020019081526020016000205485838151811061479b57fe5b6020026020010151613dcd90919063ffffffff16565b600160008784815181106147c157fe5b6020026020010151815260200190815260200160002060008873ffffffffffffffffffffffffffffffffffffffff1673ffffffffffffffffffffffffffffffffffffffff16815260200190815260200160002081905550808060010191505061471f565b508473ffffffffffffffffffffffffffffffffffffffff16600073ffffffffffffffffffffffffffffffffffffffff168273ffffffffffffffffffffffffffffffffffffffff167f4a39dc06d4c0dbc64b70af90fd698a233a518aa5d07e595d983b8c0526c8f7fb8787604051808060200180602001838103835285818151815260200191508051906020019060200280838360005b838110156148d65780820151818401526020810190506148bb565b50505050905001838103825284818151815260200191508051906020019060200280838360005b838110156149185780820151818401526020810190506148fd565b5050505090500194505050505060405180910390a461493c81600087878787613e55565b5050505050565b600073ffffffffffffffffffffffffffffffffffffffff168373ffffffffffffffffffffffffffffffffffffffff1614156149c9576040517f08c379a00000000000000000000000000000000000000000000000000000000081526004018080602001828103825260238152602001806151eb6023913960400191505060405180910390fd5b60006149d3613cfd565b9050614a03818560006149e5876141e4565b6149ee876141e4565b60405180602001604052806000815250613d05565b614a80826040518060600160405280602481526020016151a2602491396001600087815260200190815260200160002060008873ffffffffffffffffffffffffffffffffffffffff1673ffffffffffffffffffffffffffffffffffffffff16815260200190815260200160002054613d0d9092919063ffffffff16565b6001600085815260200190815260200160002060008673ffffffffffffffffffffffffffffffffffffffff1673ffffffffffffffffffffffffffffffffffffffff16815260200190815260200160002081905550600073ffffffffffffffffffffffffffffffffffffffff168473ffffffffffffffffffffffffffffffffffffffff168273ffffffffffffffffffffffffffffffffffffffff167fc3d58168c5ae7397731d063d5bbf3d657854427343f4c083240f7aacaa2d0f628686604051808381526020018281526020019250505060405180910390a450505050565b600080831415614b725760009050614bdf565b6000828402905082848281614b8357fe5b0414614bda576040517f08c379a00000000000000000000000000000000000000000000000000000000081526004018080602001828103825260218152602001806152386021913960400191505060405180910390fd5b809150505b92915050565b6000614c2783836040518060400160405280601a81526020017f536166654d6174683a206469766973696f6e206279207a65726f000000000000815250614f4f565b905092915050565b614c4e8473ffffffffffffffffffffffffffffffffffffffff16614f3c565b15614f34578373ffffffffffffffffffffffffffffffffffffffff1663f23a6e6187878686866040518663ffffffff1660e01b8152600401808673ffffffffffffffffffffffffffffffffffffffff1681526020018573ffffffffffffffffffffffffffffffffffffffff16815260200184815260200183815260200180602001828103825283818151815260200191508051906020019080838360005b83811015614d07578082015181840152602081019050614cec565b50505050905090810190601f168015614d345780820380516001836020036101000a031916815260200191505b509650505050505050602060405180830381600087803b158015614d5757600080fd5b505af1925050508015614d8b57506040513d6020811015614d7757600080fd5b810190808051906020019092919050505060015b614e9557614d97615033565b80614da25750614e44565b806040517f08c379a00000000000000000000000000000000000000000000000000000000081526004018080602001828103825283818151815260200191508051906020019080838360005b83811015614e09578082015181840152602081019050614dee565b50505050905090810190601f168015614e365780820380516001836020036101000a031916815260200191505b509250505060405180910390fd5b6040517f08c379a00000000000000000000000000000000000000000000000000000000081526004018080602001828103825260348152602001806150ea6034913960400191505060405180910390fd5b63f23a6e6160e01b7bffffffffffffffffffffffffffffffffffffffffffffffffffffffff1916817bffffffffffffffffffffffffffffffffffffffffffffffffffffffff191614614f32576040517f08c379a000000000000000000000000000000000000000000000000000000000815260040180806020018281038252602881526020018061511e6028913960400191505060405180910390fd5b505b505050505050565b600080823b905060008111915050919050565b60008083118290614ffb576040517f08c379a00000000000000000000000000000000000000000000000000000000081526004018080602001828103825283818151815260200191508051906020019080838360005b83811015614fc0578082015181840152602081019050614fa5565b50505050905090810190601f168015614fed5780820380516001836020036101000a031916815260200191505b509250505060405180910390fd5b50600083858161500757fe5b049050809150509392505050565b6000601f19601f8301169050919050565b60008160e01c9050919050565b600060443d1015615043576150e6565b60046000803e615054600051615026565b6308c379a0811461506557506150e6565b60405160043d036004823e80513d602482011167ffffffffffffffff82111715615091575050506150e6565b808201805167ffffffffffffffff8111156150b05750505050506150e6565b8060208301013d85018111156150cb575050505050506150e6565b6150d482615015565b60208401016040528296505050505050505b9056fe455243313135353a207472616e7366657220746f206e6f6e2045524331313535526563656976657220696d706c656d656e746572455243313135353a204552433131353552656365697665722072656a656374656420746f6b656e73455243313135353a2062616c616e636520717565727920666f7220746865207a65726f2061646472657373455243313135353a2062617463682062616c616e636520717565727920666f7220746865207a65726f2061646472657373455243313135353a206275726e20616d6f756e7420657863656564732062616c616e6365455243313135353a207472616e7366657220746f20746865207a65726f2061646472657373455243313135353a206275726e2066726f6d20746865207a65726f2061646472657373455243313135353a20696e73756666696369656e742062616c616e636520666f72207472616e73666572536166654d6174683a206d756c7469706c69636174696f6e206f766572666c6f775175616c6c612f496e76616c69642d537562736372697074696f6e2d496e646578455243313135353a2073657474696e6720617070726f76616c2073746174757320666f722073656c66455243313135353a206163636f756e747320616e6420696473206c656e677468206d69736d61746368455243313135353a2069647320616e6420616d6f756e7473206c656e677468206d69736d61746368455243313135353a206d696e7420746f20746865207a65726f2061646472657373a2646970667358221220cca7866d31061d4150c52f1267bacd4cfcb700d7b9c88d694329ab1b4ba2bda364736f6c63430007030033",
  "linkReferences": {},
  "deployedLinkReferences": {}
}