{
  "_format": "hh-sol-artifact-1",
  "contractName": "Qtoken",
  "sourceName": "contracts/tokens/Qtoken.sol",
  "abi": [
    {
      "inputs": [],
      "stateMutability": "nonpayable",
      "type": "constructor"
    },
    {
      "anonymous": false,
      "inputs": [
        {
          "indexed": true,
          "internalType": "address",
          "name": "owner",
          "type": "address"
        },
        {
          "indexed": true,
          "internalType": "address",
          "name": "spender",
          "type": "address"
        },
        {
          "indexed": false,
          "internalType": "uint256",
          "name": "value",
          "type": "uint256"
        }
      ],
      "name": "Approval",
      "type": "event"
    },
    {
      "anonymous": false,
      "inputs": [
        {
          "indexed": true,
          "internalType": "address",
          "name": "from",
          "type": "address"
        },
        {
          "indexed": true,
          "internalType": "address",
          "name": "to",
          "type": "address"
        },
        {
          "indexed": false,
          "internalType": "uint256",
          "name": "value",
          "type": "uint256"
        }
      ],
      "name": "Transfer",
      "type": "event"
    },
    {
      "inputs": [
        {
          "internalType": "address",
          "name": "owner",
          "type": "address"
        },
        {
          "internalType": "address",
          "name": "spender",
          "type": "address"
        }
      ],
      "name": "allowance",
      "outputs": [
        {
          "internalType": "uint256",
          "name": "",
          "type": "uint256"
        }
      ],
      "stateMutability": "view",
      "type": "function"
    },
    {
      "inputs": [
        {
          "internalType": "address",
          "name": "spender",
          "type": "address"
        },
        {
          "internalType": "uint256",
          "name": "amount",
          "type": "uint256"
        }
      ],
      "name": "approve",
      "outputs": [
        {
          "internalType": "bool",
          "name": "",
          "type": "bool"
        }
      ],
      "stateMutability": "nonpayable",
      "type": "function"
    },
    {
      "inputs": [
        {
          "internalType": "address",
          "name": "account",
          "type": "address"
        }
      ],
      "name": "balanceOf",
      "outputs": [
        {
          "internalType": "uint256",
          "name": "",
          "type": "uint256"
        }
      ],
      "stateMutability": "view",
      "type": "function"
    },
    {
      "inputs": [],
      "name": "decimals",
      "outputs": [
        {
          "internalType": "uint8",
          "name": "",
          "type": "uint8"
        }
      ],
      "stateMutability": "view",
      "type": "function"
    },
    {
      "inputs": [
        {
          "internalType": "address",
          "name": "spender",
          "type": "address"
        },
        {
          "internalType": "uint256",
          "name": "subtractedValue",
          "type": "uint256"
        }
      ],
      "name": "decreaseAllowance",
      "outputs": [
        {
          "internalType": "bool",
          "name": "",
          "type": "bool"
        }
      ],
      "stateMutability": "nonpayable",
      "type": "function"
    },
    {
      "inputs": [
        {
          "internalType": "address",
          "name": "account",
          "type": "address"
        },
        {
          "internalType": "uint256",
          "name": "amount",
          "type": "uint256"
        }
      ],
      "name": "demoMint",
      "outputs": [],
      "stateMutability": "nonpayable",
      "type": "function"
    },
    {
      "inputs": [
        {
          "internalType": "uint256",
          "name": "amount",
          "type": "uint256"
        }
      ],
      "name": "downgrade",
      "outputs": [],
      "stateMutability": "nonpayable",
      "type": "function"
    },
    {
      "inputs": [],
      "name": "getUnderlyingToken",
      "outputs": [
        {
          "internalType": "address",
          "name": "",
          "type": "address"
        }
      ],
      "stateMutability": "view",
      "type": "function"
    },
    {
      "inputs": [
        {
          "internalType": "address",
          "name": "spender",
          "type": "address"
        },
        {
          "internalType": "uint256",
          "name": "addedValue",
          "type": "uint256"
        }
      ],
      "name": "increaseAllowance",
      "outputs": [
        {
          "internalType": "bool",
          "name": "",
          "type": "bool"
        }
      ],
      "stateMutability": "nonpayable",
      "type": "function"
    },
    {
      "inputs": [
        {
          "internalType": "contract IERC20",
          "name": "underlyingToken_",
          "type": "address"
        },
        {
          "internalType": "uint8",
          "name": "decimals_",
          "type": "uint8"
        },
        {
          "internalType": "string",
          "name": "name_",
          "type": "string"
        },
        {
          "internalType": "string",
          "name": "symbol_",
          "type": "string"
        }
      ],
      "name": "initialize",
      "outputs": [],
      "stateMutability": "nonpayable",
      "type": "function"
    },
    {
      "inputs": [],
      "name": "name",
      "outputs": [
        {
          "internalType": "string",
          "name": "",
          "type": "string"
        }
      ],
      "stateMutability": "view",
      "type": "function"
    },
    {
      "inputs": [
        {
          "internalType": "address",
          "name": "account",
          "type": "address"
        },
        {
          "internalType": "uint256",
          "name": "amount",
          "type": "uint256"
        }
      ],
      "name": "operatorDowngrade",
      "outputs": [],
      "stateMutability": "nonpayable",
      "type": "function"
    },
    {
      "inputs": [
        {
          "internalType": "address",
          "name": "account",
          "type": "address"
        },
        {
          "internalType": "uint256",
          "name": "amount",
          "type": "uint256"
        }
      ],
      "name": "operatorUpgrade",
      "outputs": [],
      "stateMutability": "nonpayable",
      "type": "function"
    },
    {
      "inputs": [
        {
          "internalType": "address",
          "name": "account",
          "type": "address"
        },
        {
          "internalType": "uint256",
          "name": "timestamp",
          "type": "uint256"
        }
      ],
      "name": "realtimeBalanceOf",
      "outputs": [],
      "stateMutability": "view",
      "type": "function"
    },
    {
      "inputs": [],
      "name": "symbol",
      "outputs": [
        {
          "internalType": "string",
          "name": "",
          "type": "string"
        }
      ],
      "stateMutability": "view",
      "type": "function"
    },
    {
      "inputs": [],
      "name": "totalSupply",
      "outputs": [
        {
          "internalType": "uint256",
          "name": "",
          "type": "uint256"
        }
      ],
      "stateMutability": "view",
      "type": "function"
    },
    {
      "inputs": [
        {
          "internalType": "address",
          "name": "recipient",
          "type": "address"
        },
        {
          "internalType": "uint256",
          "name": "amount",
          "type": "uint256"
        }
      ],
      "name": "transfer",
      "outputs": [
        {
          "internalType": "bool",
          "name": "",
          "type": "bool"
        }
      ],
      "stateMutability": "nonpayable",
      "type": "function"
    },
    {
      "inputs": [
        {
          "internalType": "address",
          "name": "sender",
          "type": "address"
        },
        {
          "internalType": "address",
          "name": "recipient",
          "type": "address"
        },
        {
          "internalType": "uint256",
          "name": "amount",
          "type": "uint256"
        }
      ],
      "name": "transferFrom",
      "outputs": [
        {
          "internalType": "bool",
          "name": "",
          "type": "bool"
        }
      ],
      "stateMutability": "nonpayable",
      "type": "function"
    },
    {
      "inputs": [
        {
          "internalType": "uint256",
          "name": "amount",
          "type": "uint256"
        }
      ],
      "name": "upgrade",
      "outputs": [],
      "stateMutability": "nonpayable",
      "type": "function"
    }
  ],
  "bytecode": "0x608060405234801561001057600080fd5b5061211c806100206000396000f3fe608060405234801561001057600080fd5b50600436106101215760003560e01c806351819b43116100ad578063a9059cbb11610071578063a9059cbb1461031a578063dd62ed3e1461034a578063eb3537cc1461037a578063ee719bc814610396578063f3d4759c146103b457610121565b806351819b431461026457806370a08231146102805780638b12a262146102b057806395d89b41146102cc578063a457c2d7146102ea57610121565b806323b872dd116100f457806323b872dd146101ae578063313ce567146101de57806339509351146101fc57806342fe09801461022c57806345977d031461024857610121565b806306fdde0314610126578063095ea7b31461014457806311bcc81e1461017457806318160ddd14610190575b600080fd5b61012e6103d0565b60405161013b9190611d5f565b60405180910390f35b61015e600480360381019061015991906118f5565b610472565b60405161016b9190611d44565b60405180910390f35b61018e600480360381019061018991906119ed565b610490565b005b61019861049d565b6040516101a59190611e41565b60405180910390f35b6101c860048036038101906101c391906118a6565b6104a7565b6040516101d59190611d44565b60405180910390f35b6101e6610580565b6040516101f39190611e5c565b60405180910390f35b610216600480360381019061021191906118f5565b610597565b6040516102239190611d44565b60405180910390f35b6102466004803603810190610241919061195a565b61064a565b005b610262600480360381019061025d91906119ed565b610817565b005b61027e600480360381019061027991906118f5565b610824565b005b61029a60048036038101906102959190611841565b61088c565b6040516102a79190611e41565b60405180910390f35b6102ca60048036038101906102c591906118f5565b6108d5565b005b6102d461093d565b6040516102e19190611d5f565b60405180910390f35b61030460048036038101906102ff91906118f5565b6109df565b6040516103119190611d44565b60405180910390f35b610334600480360381019061032f91906118f5565b610aac565b6040516103419190611d44565b60405180910390f35b610364600480360381019061035f919061186a565b610aca565b6040516103719190611e41565b60405180910390f35b610394600480360381019061038f91906118f5565b610b51565b005b61039e610b55565b6040516103ab9190611cc9565b60405180910390f35b6103ce60048036038101906103c991906118f5565b610b7f565b005b606060048054600181600116156101000203166002900480601f0160208091040260200160405190810160405280929190818152602001828054600181600116156101000203166002900480156104685780601f1061043d57610100808354040283529160200191610468565b820191906000526020600020905b81548152906001019060200180831161044b57829003601f168201915b5050505050905090565b600061048661047f610be7565b8484610bef565b6001905092915050565b61049a3382610dba565b50565b6000600354905090565b60006104b4848484610e78565b610575846104c0610be7565b6105708560405180606001604052806028815260200161209a60289139600260008b73ffffffffffffffffffffffffffffffffffffffff1673ffffffffffffffffffffffffffffffffffffffff1681526020019081526020016000206000610526610be7565b73ffffffffffffffffffffffffffffffffffffffff1673ffffffffffffffffffffffffffffffffffffffff168152602001908152602001600020546111119092919063ffffffff16565b610bef565b600190509392505050565b6000600660009054906101000a900460ff16905090565b60006106406105a4610be7565b8461063b85600260006105b5610be7565b73ffffffffffffffffffffffffffffffffffffffff1673ffffffffffffffffffffffffffffffffffffffff16815260200190815260200160002060008973ffffffffffffffffffffffffffffffffffffffff1673ffffffffffffffffffffffffffffffffffffffff168152602001908152602001600020546111d190919063ffffffff16565b610bef565b6001905092915050565b600060019054906101000a900460ff16806106695750610668611259565b5b8061067f575060008054906101000a900460ff16155b6106d4576040517f08c379a000000000000000000000000000000000000000000000000000000000815260040180806020018281038252602e81526020018061206c602e913960400191505060405180910390fd5b60008060019054906101000a900460ff161590508015610724576001600060016101000a81548160ff02191690831515021790555060016000806101000a81548160ff0219169083151502179055505b84600660016101000a81548173ffffffffffffffffffffffffffffffffffffffff021916908373ffffffffffffffffffffffffffffffffffffffff16021790555083600660006101000a81548160ff021916908360ff16021790555082600490805190602001906107969291906116c5565b5081600590805190602001906107ad9291906116c5565b5033600760006101000a81548173ffffffffffffffffffffffffffffffffffffffff021916908373ffffffffffffffffffffffffffffffffffffffff16021790555080156108105760008060016101000a81548160ff0219169083151502179055505b5050505050565b6108213382611270565b50565b600760009054906101000a900473ffffffffffffffffffffffffffffffffffffffff1673ffffffffffffffffffffffffffffffffffffffff163373ffffffffffffffffffffffffffffffffffffffff161461087e57600080fd5b6108888282611270565b5050565b6000600160008373ffffffffffffffffffffffffffffffffffffffff1673ffffffffffffffffffffffffffffffffffffffff168152602001908152602001600020549050919050565b600760009054906101000a900473ffffffffffffffffffffffffffffffffffffffff1673ffffffffffffffffffffffffffffffffffffffff163373ffffffffffffffffffffffffffffffffffffffff161461092f57600080fd5b6109398282611330565b5050565b606060058054600181600116156101000203166002900480601f0160208091040260200160405190810160405280929190818152602001828054600181600116156101000203166002900480156109d55780601f106109aa576101008083540402835291602001916109d5565b820191906000526020600020905b8154815290600101906020018083116109b857829003601f168201915b5050505050905090565b6000610aa26109ec610be7565b84610a9d856040518060600160405280602581526020016120c26025913960026000610a16610be7565b73ffffffffffffffffffffffffffffffffffffffff1673ffffffffffffffffffffffffffffffffffffffff16815260200190815260200160002060008a73ffffffffffffffffffffffffffffffffffffffff1673ffffffffffffffffffffffffffffffffffffffff168152602001908152602001600020546111119092919063ffffffff16565b610bef565b6001905092915050565b6000610ac0610ab9610be7565b8484610e78565b6001905092915050565b6000600260008473ffffffffffffffffffffffffffffffffffffffff1673ffffffffffffffffffffffffffffffffffffffff16815260200190815260200160002060008373ffffffffffffffffffffffffffffffffffffffff1673ffffffffffffffffffffffffffffffffffffffff16815260200190815260200160002054905092915050565b5050565b6000600660019054906101000a900473ffffffffffffffffffffffffffffffffffffffff16905090565b600760009054906101000a900473ffffffffffffffffffffffffffffffffffffffff1673ffffffffffffffffffffffffffffffffffffffff163373ffffffffffffffffffffffffffffffffffffffff1614610bd957600080fd5b610be38282610dba565b5050565b600033905090565b600073ffffffffffffffffffffffffffffffffffffffff168373ffffffffffffffffffffffffffffffffffffffff161415610c5f576040517f08c379a0000000000000000000000000000000000000000000000000000000008152600401610c5690611e01565b60405180910390fd5b600073ffffffffffffffffffffffffffffffffffffffff168273ffffffffffffffffffffffffffffffffffffffff161415610ccf576040517f08c379a0000000000000000000000000000000000000000000000000000000008152600401610cc690611da1565b60405180910390fd5b80600260008573ffffffffffffffffffffffffffffffffffffffff1673ffffffffffffffffffffffffffffffffffffffff16815260200190815260200160002060008473ffffffffffffffffffffffffffffffffffffffff1673ffffffffffffffffffffffffffffffffffffffff168152602001908152602001600020819055508173ffffffffffffffffffffffffffffffffffffffff168373ffffffffffffffffffffffffffffffffffffffff167f8c5be1e5ebec7d5bd14f71427d1e84f3dd0314c0f7b2291e5b200ac8c7c3b92583604051610dad9190611e41565b60405180910390a3505050565b600660019054906101000a900473ffffffffffffffffffffffffffffffffffffffff1673ffffffffffffffffffffffffffffffffffffffff1663a9059cbb83836040518363ffffffff1660e01b8152600401610e17929190611d1b565b602060405180830381600087803b158015610e3157600080fd5b505af1158015610e45573d6000803e3d6000fd5b505050506040513d601f19601f82011682018060405250810190610e699190611931565b50610e7482826114c6565b5050565b600073ffffffffffffffffffffffffffffffffffffffff168373ffffffffffffffffffffffffffffffffffffffff161415610ee8576040517f08c379a0000000000000000000000000000000000000000000000000000000008152600401610edf90611de1565b60405180910390fd5b600073ffffffffffffffffffffffffffffffffffffffff168273ffffffffffffffffffffffffffffffffffffffff161415610f58576040517f08c379a0000000000000000000000000000000000000000000000000000000008152600401610f4f90611d81565b60405180910390fd5b610f63838383611676565b610fcf8160405180606001604052806026815260200161204660269139600160008773ffffffffffffffffffffffffffffffffffffffff1673ffffffffffffffffffffffffffffffffffffffff168152602001908152602001600020546111119092919063ffffffff16565b600160008573ffffffffffffffffffffffffffffffffffffffff1673ffffffffffffffffffffffffffffffffffffffff1681526020019081526020016000208190555061106481600160008573ffffffffffffffffffffffffffffffffffffffff1673ffffffffffffffffffffffffffffffffffffffff168152602001908152602001600020546111d190919063ffffffff16565b600160008473ffffffffffffffffffffffffffffffffffffffff1673ffffffffffffffffffffffffffffffffffffffff168152602001908152602001600020819055508173ffffffffffffffffffffffffffffffffffffffff168373ffffffffffffffffffffffffffffffffffffffff167fddf252ad1be2c89b69c2b068fc378daa952ba7f163c4a11628f55a4df523b3ef836040516111049190611e41565b60405180910390a3505050565b60008383111582906111be576040517f08c379a00000000000000000000000000000000000000000000000000000000081526004018080602001828103825283818151815260200191508051906020019080838360005b83811015611183578082015181840152602081019050611168565b50505050905090810190601f1680156111b05780820380516001836020036101000a031916815260200191505b509250505060405180910390fd5b5060008385039050809150509392505050565b60008082840190508381101561124f576040517f08c379a000000000000000000000000000000000000000000000000000000000815260040180806020018281038252601b8152602001807f536166654d6174683a206164646974696f6e206f766572666c6f77000000000081525060200191505060405180910390fd5b8091505092915050565b6000803090506000813b9050600081149250505090565b600660019054906101000a900473ffffffffffffffffffffffffffffffffffffffff1673ffffffffffffffffffffffffffffffffffffffff166323b872dd8330846040518463ffffffff1660e01b81526004016112cf93929190611ce4565b602060405180830381600087803b1580156112e957600080fd5b505af11580156112fd573d6000803e3d6000fd5b505050506040513d601f19601f820116820180604052508101906113219190611931565b5061132c8282611330565b5050565b600073ffffffffffffffffffffffffffffffffffffffff168273ffffffffffffffffffffffffffffffffffffffff1614156113a0576040517f08c379a000000000000000000000000000000000000000000000000000000000815260040161139790611e21565b60405180910390fd5b6113ac60008383611676565b6113c1816003546111d190919063ffffffff16565b60038190555061141981600160008573ffffffffffffffffffffffffffffffffffffffff1673ffffffffffffffffffffffffffffffffffffffff168152602001908152602001600020546111d190919063ffffffff16565b600160008473ffffffffffffffffffffffffffffffffffffffff1673ffffffffffffffffffffffffffffffffffffffff168152602001908152602001600020819055508173ffffffffffffffffffffffffffffffffffffffff16600073ffffffffffffffffffffffffffffffffffffffff167fddf252ad1be2c89b69c2b068fc378daa952ba7f163c4a11628f55a4df523b3ef836040516114ba9190611e41565b60405180910390a35050565b600073ffffffffffffffffffffffffffffffffffffffff168273ffffffffffffffffffffffffffffffffffffffff161415611536576040517f08c379a000000000000000000000000000000000000000000000000000000000815260040161152d90611dc1565b60405180910390fd5b61154282600083611676565b6115ae8160405180606001604052806022815260200161202460229139600160008673ffffffffffffffffffffffffffffffffffffffff1673ffffffffffffffffffffffffffffffffffffffff168152602001908152602001600020546111119092919063ffffffff16565b600160008473ffffffffffffffffffffffffffffffffffffffff1673ffffffffffffffffffffffffffffffffffffffff168152602001908152602001600020819055506116068160035461167b90919063ffffffff16565b600381905550600073ffffffffffffffffffffffffffffffffffffffff168273ffffffffffffffffffffffffffffffffffffffff167fddf252ad1be2c89b69c2b068fc378daa952ba7f163c4a11628f55a4df523b3ef8360405161166a9190611e41565b60405180910390a35050565b505050565b60006116bd83836040518060400160405280601e81526020017f536166654d6174683a207375627472616374696f6e206f766572666c6f770000815250611111565b905092915050565b828054600181600116156101000203166002900490600052602060002090601f0160209004810192826116fb5760008555611742565b82601f1061171457805160ff1916838001178555611742565b82800160010185558215611742579182015b82811115611741578251825591602001919060010190611726565b5b50905061174f9190611753565b5090565b5b8082111561176c576000816000905550600101611754565b5090565b600061178361177e84611ea8565b611e77565b90508281526020810184848401111561179b57600080fd5b6117a6848285611f5b565b509392505050565b6000813590506117bd81611fb0565b92915050565b6000815190506117d281611fc7565b92915050565b6000813590506117e781611fde565b92915050565b600082601f8301126117fe57600080fd5b813561180e848260208601611770565b91505092915050565b60008135905061182681611ff5565b92915050565b60008135905061183b8161200c565b92915050565b60006020828403121561185357600080fd5b6000611861848285016117ae565b91505092915050565b6000806040838503121561187d57600080fd5b600061188b858286016117ae565b925050602061189c858286016117ae565b9150509250929050565b6000806000606084860312156118bb57600080fd5b60006118c9868287016117ae565b93505060206118da868287016117ae565b92505060406118eb86828701611817565b9150509250925092565b6000806040838503121561190857600080fd5b6000611916858286016117ae565b925050602061192785828601611817565b9150509250929050565b60006020828403121561194357600080fd5b6000611951848285016117c3565b91505092915050565b6000806000806080858703121561197057600080fd5b600061197e878288016117d8565b945050602061198f8782880161182c565b935050604085013567ffffffffffffffff8111156119ac57600080fd5b6119b8878288016117ed565b925050606085013567ffffffffffffffff8111156119d557600080fd5b6119e1878288016117ed565b91505092959194509250565b6000602082840312156119ff57600080fd5b6000611a0d84828501611817565b91505092915050565b611a1f81611ef4565b82525050565b611a2e81611f06565b82525050565b6000611a3f82611ed8565b611a498185611ee3565b9350611a59818560208601611f6a565b611a6281611f9f565b840191505092915050565b6000611a7a602383611ee3565b91507f45524332303a207472616e7366657220746f20746865207a65726f206164647260008301527f65737300000000000000000000000000000000000000000000000000000000006020830152604082019050919050565b6000611ae0602283611ee3565b91507f45524332303a20617070726f766520746f20746865207a65726f20616464726560008301527f73730000000000000000000000000000000000000000000000000000000000006020830152604082019050919050565b6000611b46602183611ee3565b91507f45524332303a206275726e2066726f6d20746865207a65726f2061646472657360008301527f73000000000000000000000000000000000000000000000000000000000000006020830152604082019050919050565b6000611bac602583611ee3565b91507f45524332303a207472616e736665722066726f6d20746865207a65726f20616460008301527f64726573730000000000000000000000000000000000000000000000000000006020830152604082019050919050565b6000611c12602483611ee3565b91507f45524332303a20617070726f76652066726f6d20746865207a65726f2061646460008301527f72657373000000000000000000000000000000000000000000000000000000006020830152604082019050919050565b6000611c78601f83611ee3565b91507f45524332303a206d696e7420746f20746865207a65726f2061646472657373006000830152602082019050919050565b611cb481611f44565b82525050565b611cc381611f4e565b82525050565b6000602082019050611cde6000830184611a16565b92915050565b6000606082019050611cf96000830186611a16565b611d066020830185611a16565b611d136040830184611cab565b949350505050565b6000604082019050611d306000830185611a16565b611d3d6020830184611cab565b9392505050565b6000602082019050611d596000830184611a25565b92915050565b60006020820190508181036000830152611d798184611a34565b905092915050565b60006020820190508181036000830152611d9a81611a6d565b9050919050565b60006020820190508181036000830152611dba81611ad3565b9050919050565b60006020820190508181036000830152611dda81611b39565b9050919050565b60006020820190508181036000830152611dfa81611b9f565b9050919050565b60006020820190508181036000830152611e1a81611c05565b9050919050565b60006020820190508181036000830152611e3a81611c6b565b9050919050565b6000602082019050611e566000830184611cab565b92915050565b6000602082019050611e716000830184611cba565b92915050565b6000604051905081810181811067ffffffffffffffff82111715611e9e57611e9d611f9d565b5b8060405250919050565b600067ffffffffffffffff821115611ec357611ec2611f9d565b5b601f19601f8301169050602081019050919050565b600081519050919050565b600082825260208201905092915050565b6000611eff82611f24565b9050919050565b60008115159050919050565b6000611f1d82611ef4565b9050919050565b600073ffffffffffffffffffffffffffffffffffffffff82169050919050565b6000819050919050565b600060ff82169050919050565b82818337600083830152505050565b60005b83811015611f88578082015181840152602081019050611f6d565b83811115611f97576000848401525b50505050565bfe5b6000601f19601f8301169050919050565b611fb981611ef4565b8114611fc457600080fd5b50565b611fd081611f06565b8114611fdb57600080fd5b50565b611fe781611f12565b8114611ff257600080fd5b50565b611ffe81611f44565b811461200957600080fd5b50565b61201581611f4e565b811461202057600080fd5b5056fe45524332303a206275726e20616d6f756e7420657863656564732062616c616e636545524332303a207472616e7366657220616d6f756e7420657863656564732062616c616e6365496e697469616c697a61626c653a20636f6e747261637420697320616c726561647920696e697469616c697a656445524332303a207472616e7366657220616d6f756e74206578636565647320616c6c6f77616e636545524332303a2064656372656173656420616c6c6f77616e63652062656c6f77207a65726fa2646970667358221220824708fc1b853296102a80be2005eb8330998c7dbc2d7d21aa9a256ac7cb73d364736f6c63430007060033",
  "linkReferences": {},
  "deployedLinkReferences": {}
}