{
  "_format": "hh-sol-artifact-1",
  "contractName": "Qtoken",
  "sourceName": "contracts/tokens/Qtoken.sol",
  "abi": [
    {
      "anonymous": false,
      "inputs": [
        {
          "indexed": true,
          "internalType": "address",
          "name": "owner",
          "type": "address"
        },
        {
          "indexed": true,
          "internalType": "address",
          "name": "spender",
          "type": "address"
        },
        {
          "indexed": false,
          "internalType": "uint256",
          "name": "value",
          "type": "uint256"
        }
      ],
      "name": "Approval",
      "type": "event"
    },
    {
      "anonymous": false,
      "inputs": [
        {
          "indexed": true,
          "internalType": "address",
          "name": "account",
          "type": "address"
        },
        {
          "indexed": false,
          "internalType": "int256",
          "name": "amount",
          "type": "int256"
        }
      ],
      "name": "Settle",
      "type": "event"
    },
    {
      "anonymous": false,
      "inputs": [
        {
          "indexed": true,
          "internalType": "address",
          "name": "from",
          "type": "address"
        },
        {
          "indexed": true,
          "internalType": "address",
          "name": "to",
          "type": "address"
        },
        {
          "indexed": false,
          "internalType": "uint256",
          "name": "value",
          "type": "uint256"
        }
      ],
      "name": "Transfer",
      "type": "event"
    },
    {
      "inputs": [
        {
          "internalType": "address",
          "name": "owner",
          "type": "address"
        },
        {
          "internalType": "address",
          "name": "spender",
          "type": "address"
        }
      ],
      "name": "allowance",
      "outputs": [
        {
          "internalType": "uint256",
          "name": "",
          "type": "uint256"
        }
      ],
      "stateMutability": "view",
      "type": "function"
    },
    {
      "inputs": [
        {
          "internalType": "address",
          "name": "spender",
          "type": "address"
        },
        {
          "internalType": "uint256",
          "name": "amount",
          "type": "uint256"
        }
      ],
      "name": "approve",
      "outputs": [
        {
          "internalType": "bool",
          "name": "",
          "type": "bool"
        }
      ],
      "stateMutability": "nonpayable",
      "type": "function"
    },
    {
      "inputs": [
        {
          "internalType": "address",
          "name": "account",
          "type": "address"
        }
      ],
      "name": "balanceOf",
      "outputs": [
        {
          "internalType": "uint256",
          "name": "balance",
          "type": "uint256"
        }
      ],
      "stateMutability": "view",
      "type": "function"
    },
    {
      "inputs": [],
      "name": "decimals",
      "outputs": [
        {
          "internalType": "uint8",
          "name": "",
          "type": "uint8"
        }
      ],
      "stateMutability": "view",
      "type": "function"
    },
    {
      "inputs": [
        {
          "internalType": "address",
          "name": "spender",
          "type": "address"
        },
        {
          "internalType": "uint256",
          "name": "subtractedValue",
          "type": "uint256"
        }
      ],
      "name": "decreaseAllowance",
      "outputs": [
        {
          "internalType": "bool",
          "name": "",
          "type": "bool"
        }
      ],
      "stateMutability": "nonpayable",
      "type": "function"
    },
    {
      "inputs": [
        {
          "internalType": "address",
          "name": "account",
          "type": "address"
        },
        {
          "internalType": "uint256",
          "name": "amount",
          "type": "uint256"
        }
      ],
      "name": "demoMint",
      "outputs": [],
      "stateMutability": "nonpayable",
      "type": "function"
    },
    {
      "inputs": [
        {
          "internalType": "uint256",
          "name": "amount",
          "type": "uint256"
        }
      ],
      "name": "downgrade",
      "outputs": [],
      "stateMutability": "nonpayable",
      "type": "function"
    },
    {
      "inputs": [],
      "name": "getUnderlyingToken",
      "outputs": [
        {
          "internalType": "address",
          "name": "",
          "type": "address"
        }
      ],
      "stateMutability": "view",
      "type": "function"
    },
    {
      "inputs": [
        {
          "internalType": "address",
          "name": "spender",
          "type": "address"
        },
        {
          "internalType": "uint256",
          "name": "addedValue",
          "type": "uint256"
        }
      ],
      "name": "increaseAllowance",
      "outputs": [
        {
          "internalType": "bool",
          "name": "",
          "type": "bool"
        }
      ],
      "stateMutability": "nonpayable",
      "type": "function"
    },
    {
      "inputs": [
        {
          "internalType": "contract IERC20",
          "name": "underlyingToken_",
          "type": "address"
        },
        {
          "internalType": "uint8",
          "name": "decimals_",
          "type": "uint8"
        },
        {
          "internalType": "string",
          "name": "name_",
          "type": "string"
        },
        {
          "internalType": "string",
          "name": "symbol_",
          "type": "string"
        }
      ],
      "name": "initialize",
      "outputs": [],
      "stateMutability": "nonpayable",
      "type": "function"
    },
    {
      "inputs": [
        {
          "internalType": "address",
          "name": "account",
          "type": "address"
        },
        {
          "internalType": "uint256",
          "name": "timestamp",
          "type": "uint256"
        }
      ],
      "name": "isAccoundCritical",
      "outputs": [
        {
          "internalType": "bool",
          "name": "critical",
          "type": "bool"
        }
      ],
      "stateMutability": "view",
      "type": "function"
    },
    {
      "inputs": [
        {
          "internalType": "address",
          "name": "account",
          "type": "address"
        },
        {
          "internalType": "uint256",
          "name": "timestamp",
          "type": "uint256"
        }
      ],
      "name": "isAccountLiquid",
      "outputs": [
        {
          "internalType": "bool",
          "name": "liquid",
          "type": "bool"
        }
      ],
      "stateMutability": "view",
      "type": "function"
    },
    {
      "inputs": [],
      "name": "name",
      "outputs": [
        {
          "internalType": "string",
          "name": "",
          "type": "string"
        }
      ],
      "stateMutability": "view",
      "type": "function"
    },
    {
      "inputs": [
        {
          "internalType": "address",
          "name": "account",
          "type": "address"
        },
        {
          "internalType": "uint256",
          "name": "amount",
          "type": "uint256"
        }
      ],
      "name": "operatorDowngrade",
      "outputs": [],
      "stateMutability": "nonpayable",
      "type": "function"
    },
    {
      "inputs": [
        {
          "internalType": "address",
          "name": "account",
          "type": "address"
        },
        {
          "internalType": "uint256",
          "name": "amount",
          "type": "uint256"
        }
      ],
      "name": "operatorUpgrade",
      "outputs": [],
      "stateMutability": "nonpayable",
      "type": "function"
    },
    {
      "inputs": [
        {
          "internalType": "address",
          "name": "account",
          "type": "address"
        },
        {
          "internalType": "uint256",
          "name": "timestamp",
          "type": "uint256"
        }
      ],
      "name": "realtimeBalanceOf",
      "outputs": [
        {
          "internalType": "int256",
          "name": "availableBalance",
          "type": "int256"
        },
        {
          "internalType": "uint256",
          "name": "deposit",
          "type": "uint256"
        }
      ],
      "stateMutability": "view",
      "type": "function"
    },
    {
      "inputs": [
        {
          "internalType": "address",
          "name": "account",
          "type": "address"
        },
        {
          "internalType": "int256",
          "name": "amount",
          "type": "int256"
        }
      ],
      "name": "settleBalance",
      "outputs": [],
      "stateMutability": "nonpayable",
      "type": "function"
    },
    {
      "inputs": [],
      "name": "symbol",
      "outputs": [
        {
          "internalType": "string",
          "name": "",
          "type": "string"
        }
      ],
      "stateMutability": "view",
      "type": "function"
    },
    {
      "inputs": [],
      "name": "totalSupply",
      "outputs": [
        {
          "internalType": "uint256",
          "name": "",
          "type": "uint256"
        }
      ],
      "stateMutability": "view",
      "type": "function"
    },
    {
      "inputs": [
        {
          "internalType": "address",
          "name": "recipient",
          "type": "address"
        },
        {
          "internalType": "uint256",
          "name": "amount",
          "type": "uint256"
        }
      ],
      "name": "transfer",
      "outputs": [
        {
          "internalType": "bool",
          "name": "",
          "type": "bool"
        }
      ],
      "stateMutability": "nonpayable",
      "type": "function"
    },
    {
      "inputs": [
        {
          "internalType": "address",
          "name": "sender",
          "type": "address"
        },
        {
          "internalType": "address",
          "name": "recipient",
          "type": "address"
        },
        {
          "internalType": "uint256",
          "name": "amount",
          "type": "uint256"
        }
      ],
      "name": "transferFrom",
      "outputs": [
        {
          "internalType": "bool",
          "name": "",
          "type": "bool"
        }
      ],
      "stateMutability": "nonpayable",
      "type": "function"
    },
    {
      "inputs": [
        {
          "internalType": "uint256",
          "name": "amount",
          "type": "uint256"
        }
      ],
      "name": "upgrade",
      "outputs": [],
      "stateMutability": "nonpayable",
      "type": "function"
    }
  ],
  "bytecode": "0x608060405234801561001057600080fd5b5061283a806100206000396000f3fe608060405234801561001057600080fd5b50600436106101425760003560e01c806370a08231116100b8578063cf97256d1161007c578063cf97256d1461039b578063dd62ed3e146103b7578063e165f1ae146103e7578063eb3537cc14610417578063ee719bc814610448578063f3d4759c1461046657610142565b806370a08231146102d15780638b12a2621461030157806395d89b411461031d578063a457c2d71461033b578063a9059cbb1461036b57610142565b8063313ce5671161010a578063313ce567146101ff578063395093511461021d57806342fe09801461024d57806345977d031461026957806351819b4314610285578063553851b4146102a157610142565b806306fdde0314610147578063095ea7b31461016557806311bcc81e1461019557806318160ddd146101b157806323b872dd146101cf575b600080fd5b61014f610482565b60405161015c9190612413565b60405180910390f35b61017f600480360381019061017a9190611eae565b610524565b60405161018c919061237d565b60405180910390f35b6101af60048036038101906101aa9190611fe2565b610542565b005b6101b961054f565b6040516101c691906124f5565b60405180910390f35b6101e960048036038101906101e49190611e23565b610559565b6040516101f6919061237d565b60405180910390f35b610207610632565b6040516102149190612510565b60405180910390f35b61023760048036038101906102329190611eae565b610649565b604051610244919061237d565b60405180910390f35b61026760048036038101906102629190611f13565b6106fc565b005b610283600480360381019061027e9190611fe2565b6108c9565b005b61029f600480360381019061029a9190611eae565b6108d6565b005b6102bb60048036038101906102b69190611eae565b61093e565b6040516102c8919061237d565b60405180910390f35b6102eb60048036038101906102e69190611dbe565b61095b565b6040516102f891906124f5565b60405180910390f35b61031b60048036038101906103169190611eae565b61098c565b005b6103256109f4565b6040516103329190612413565b60405180910390f35b61035560048036038101906103509190611eae565b610a96565b604051610362919061237d565b60405180910390f35b61038560048036038101906103809190611eae565b610b63565b604051610392919061237d565b60405180910390f35b6103b560048036038101906103b09190611e72565b610b81565b005b6103d160048036038101906103cc9190611de7565b610cc2565b6040516103de91906124f5565b60405180910390f35b61040160048036038101906103fc9190611eae565b610d49565b60405161040e919061237d565b60405180910390f35b610431600480360381019061042c9190611eae565b610d84565b60405161043f9291906123ea565b60405180910390f35b610450610ecb565b60405161045d9190612302565b60405180910390f35b610480600480360381019061047b9190611eae565b610ef5565b005b606060048054600181600116156101000203166002900480601f01602080910402602001604051908101604052809291908181526020018280546001816001161561010002031660029004801561051a5780601f106104ef5761010080835404028352916020019161051a565b820191906000526020600020905b8154815290600101906020018083116104fd57829003601f168201915b5050505050905090565b6000610538610531610f5d565b8484610f65565b6001905092915050565b61054c3382611130565b50565b6000600354905090565b60006105668484846111ee565b61062784610572610f5d565b6106228560405180606001604052806028815260200161276c60289139600260008b73ffffffffffffffffffffffffffffffffffffffff1673ffffffffffffffffffffffffffffffffffffffff16815260200190815260200160002060006105d8610f5d565b73ffffffffffffffffffffffffffffffffffffffff1673ffffffffffffffffffffffffffffffffffffffff168152602001908152602001600020546114d89092919063ffffffff16565b610f65565b600190509392505050565b6000600660009054906101000a900460ff16905090565b60006106f2610656610f5d565b846106ed8560026000610667610f5d565b73ffffffffffffffffffffffffffffffffffffffff1673ffffffffffffffffffffffffffffffffffffffff16815260200190815260200160002060008973ffffffffffffffffffffffffffffffffffffffff1673ffffffffffffffffffffffffffffffffffffffff1681526020019081526020016000205461159890919063ffffffff16565b610f65565b6001905092915050565b600060019054906101000a900460ff168061071b575061071a611620565b5b80610731575060008054906101000a900460ff16155b610786576040517f08c379a000000000000000000000000000000000000000000000000000000000815260040180806020018281038252602e81526020018061273e602e913960400191505060405180910390fd5b60008060019054906101000a900460ff1615905080156107d6576001600060016101000a81548160ff02191690831515021790555060016000806101000a81548160ff0219169083151502179055505b84600660016101000a81548173ffffffffffffffffffffffffffffffffffffffff021916908373ffffffffffffffffffffffffffffffffffffffff16021790555083600660006101000a81548160ff021916908360ff1602179055508260049080519060200190610848929190611c03565b50816005908051906020019061085f929190611c03565b5033600760006101000a81548173ffffffffffffffffffffffffffffffffffffffff021916908373ffffffffffffffffffffffffffffffffffffffff16021790555080156108c25760008060016101000a81548160ff0219169083151502179055505b5050505050565b6108d33382611637565b50565b600760009054906101000a900473ffffffffffffffffffffffffffffffffffffffff1673ffffffffffffffffffffffffffffffffffffffff163373ffffffffffffffffffffffffffffffffffffffff161461093057600080fd5b61093a8282611637565b5050565b60008061094b8484610d84565b5090506000811391505092915050565b6000806109688342610d84565b5090506000811361097a576000610984565b610983816116f7565b5b915050919050565b600760009054906101000a900473ffffffffffffffffffffffffffffffffffffffff1673ffffffffffffffffffffffffffffffffffffffff163373ffffffffffffffffffffffffffffffffffffffff16146109e657600080fd5b6109f08282611777565b5050565b606060058054600181600116156101000203166002900480601f016020809104026020016040519081016040528092919081815260200182805460018160011615610100020316600290048015610a8c5780601f10610a6157610100808354040283529160200191610a8c565b820191906000526020600020905b815481529060010190602001808311610a6f57829003601f168201915b5050505050905090565b6000610b59610aa3610f5d565b84610b54856040518060600160405280602581526020016127e06025913960026000610acd610f5d565b73ffffffffffffffffffffffffffffffffffffffff1673ffffffffffffffffffffffffffffffffffffffff16815260200190815260200160002060008a73ffffffffffffffffffffffffffffffffffffffff1673ffffffffffffffffffffffffffffffffffffffff168152602001908152602001600020546114d89092919063ffffffff16565b610f65565b6001905092915050565b6000610b77610b70610f5d565b84846111ee565b6001905092915050565b600760009054906101000a900473ffffffffffffffffffffffffffffffffffffffff1673ffffffffffffffffffffffffffffffffffffffff163373ffffffffffffffffffffffffffffffffffffffff1614610bdb57600080fd5b610c2d81600160008573ffffffffffffffffffffffffffffffffffffffff1673ffffffffffffffffffffffffffffffffffffffff1681526020019081526020016000205461189990919063ffffffff16565b600160008473ffffffffffffffffffffffffffffffffffffffff1673ffffffffffffffffffffffffffffffffffffffff168152602001908152602001600020819055508173ffffffffffffffffffffffffffffffffffffffff167f3e86c1a06405584982a3ba6ba062092430b0418370fb979c67c1d4c6e77dbeeb82604051610cb691906123cf565b60405180910390a25050565b6000600260008473ffffffffffffffffffffffffffffffffffffffff1673ffffffffffffffffffffffffffffffffffffffff16815260200190815260200160002060008373ffffffffffffffffffffffffffffffffffffffff1673ffffffffffffffffffffffffffffffffffffffff16815260200190815260200160002054905092915050565b6000806000610d588585610d84565b915091506000610d79610d6a83611927565b8461189990919063ffffffff16565b139250505092915050565b600080600160008573ffffffffffffffffffffffffffffffffffffffff1673ffffffffffffffffffffffffffffffffffffffff168152602001908152602001600020549150600080600760009054906101000a900473ffffffffffffffffffffffffffffffffffffffff1673ffffffffffffffffffffffffffffffffffffffff16639b2e48bc3088886040518463ffffffff1660e01b8152600401610e2b93929190612398565b604080518083038186803b158015610e4257600080fd5b505afa158015610e56573d6000803e3d6000fd5b505050506040513d601f19601f82011682018060405250810190610e7a9190611fa6565b91509150610eab610e8a82611927565b610e9d848761189990919063ffffffff16565b6119a990919063ffffffff16565b9350610ec0818461159890919063ffffffff16565b925050509250929050565b6000600660019054906101000a900473ffffffffffffffffffffffffffffffffffffffff16905090565b600760009054906101000a900473ffffffffffffffffffffffffffffffffffffffff1673ffffffffffffffffffffffffffffffffffffffff163373ffffffffffffffffffffffffffffffffffffffff1614610f4f57600080fd5b610f598282611130565b5050565b600033905090565b600073ffffffffffffffffffffffffffffffffffffffff168373ffffffffffffffffffffffffffffffffffffffff161415610fd5576040517f08c379a0000000000000000000000000000000000000000000000000000000008152600401610fcc906124d5565b60405180910390fd5b600073ffffffffffffffffffffffffffffffffffffffff168273ffffffffffffffffffffffffffffffffffffffff161415611045576040517f08c379a000000000000000000000000000000000000000000000000000000000815260040161103c90612475565b60405180910390fd5b80600260008573ffffffffffffffffffffffffffffffffffffffff1673ffffffffffffffffffffffffffffffffffffffff16815260200190815260200160002060008473ffffffffffffffffffffffffffffffffffffffff1673ffffffffffffffffffffffffffffffffffffffff168152602001908152602001600020819055508173ffffffffffffffffffffffffffffffffffffffff168373ffffffffffffffffffffffffffffffffffffffff167f8c5be1e5ebec7d5bd14f71427d1e84f3dd0314c0f7b2291e5b200ac8c7c3b9258360405161112391906124f5565b60405180910390a3505050565b600660019054906101000a900473ffffffffffffffffffffffffffffffffffffffff1673ffffffffffffffffffffffffffffffffffffffff1663a9059cbb83836040518363ffffffff1660e01b815260040161118d929190612354565b602060405180830381600087803b1580156111a757600080fd5b505af11580156111bb573d6000803e3d6000fd5b505050506040513d601f19601f820116820180604052508101906111df9190611eea565b506111ea8282611a37565b5050565b600073ffffffffffffffffffffffffffffffffffffffff168373ffffffffffffffffffffffffffffffffffffffff16141561125e576040517f08c379a0000000000000000000000000000000000000000000000000000000008152600401611255906124b5565b60405180910390fd5b600073ffffffffffffffffffffffffffffffffffffffff168273ffffffffffffffffffffffffffffffffffffffff1614156112ce576040517f08c379a00000000000000000000000000000000000000000000000000000000081526004016112c590612435565b60405180910390fd5b6112d9838383611bb4565b60006112e58442610d84565b5090506112f182611927565b811215611333576040517f08c379a000000000000000000000000000000000000000000000000000000000815260040161132a90612495565b60405180910390fd5b61138d61133f83611927565b600160008773ffffffffffffffffffffffffffffffffffffffff1673ffffffffffffffffffffffffffffffffffffffff168152602001908152602001600020546119a990919063ffffffff16565b600160008673ffffffffffffffffffffffffffffffffffffffff1673ffffffffffffffffffffffffffffffffffffffff1681526020019081526020016000208190555061142a6113dc83611927565b600160008673ffffffffffffffffffffffffffffffffffffffff1673ffffffffffffffffffffffffffffffffffffffff1681526020019081526020016000205461189990919063ffffffff16565b600160008573ffffffffffffffffffffffffffffffffffffffff1673ffffffffffffffffffffffffffffffffffffffff168152602001908152602001600020819055508273ffffffffffffffffffffffffffffffffffffffff168473ffffffffffffffffffffffffffffffffffffffff167fddf252ad1be2c89b69c2b068fc378daa952ba7f163c4a11628f55a4df523b3ef846040516114ca91906124f5565b60405180910390a350505050565b6000838311158290611585576040517f08c379a00000000000000000000000000000000000000000000000000000000081526004018080602001828103825283818151815260200191508051906020019080838360005b8381101561154a57808201518184015260208101905061152f565b50505050905090810190601f1680156115775780820380516001836020036101000a031916815260200191505b509250505060405180910390fd5b5060008385039050809150509392505050565b600080828401905083811015611616576040517f08c379a000000000000000000000000000000000000000000000000000000000815260040180806020018281038252601b8152602001807f536166654d6174683a206164646974696f6e206f766572666c6f77000000000081525060200191505060405180910390fd5b8091505092915050565b6000803090506000813b9050600081149250505090565b600660019054906101000a900473ffffffffffffffffffffffffffffffffffffffff1673ffffffffffffffffffffffffffffffffffffffff166323b872dd8330846040518463ffffffff1660e01b81526004016116969392919061231d565b602060405180830381600087803b1580156116b057600080fd5b505af11580156116c4573d6000803e3d6000fd5b505050506040513d601f19601f820116820180604052508101906116e89190611eea565b506116f38282611777565b5050565b60008082121561176f576040517f08c379a00000000000000000000000000000000000000000000000000000000081526004018080602001828103825260208152602001807f53616665436173743a2076616c7565206d75737420626520706f73697469766581525060200191505060405180910390fd5b819050919050565b6117d161178382611927565b600160008573ffffffffffffffffffffffffffffffffffffffff1673ffffffffffffffffffffffffffffffffffffffff1681526020019081526020016000205461189990919063ffffffff16565b600160008473ffffffffffffffffffffffffffffffffffffffff1673ffffffffffffffffffffffffffffffffffffffff168152602001908152602001600020819055506118298160035461159890919063ffffffff16565b6003819055508173ffffffffffffffffffffffffffffffffffffffff16600073ffffffffffffffffffffffffffffffffffffffff167fddf252ad1be2c89b69c2b068fc378daa952ba7f163c4a11628f55a4df523b3ef8360405161188d91906124f5565b60405180910390a35050565b6000808284019050600083121580156118b25750838112155b806118c857506000831280156118c757508381125b5b61191d576040517f08c379a000000000000000000000000000000000000000000000000000000000815260040180806020018281038252602181526020018061271d6021913960400191505060405180910390fd5b8091505092915050565b60007f800000000000000000000000000000000000000000000000000000000000000082106119a1576040517f08c379a00000000000000000000000000000000000000000000000000000000081526004018080602001828103825260288152602001806127946028913960400191505060405180910390fd5b819050919050565b6000808284039050600083121580156119c25750838113155b806119d857506000831280156119d757508381135b5b611a2d576040517f08c379a00000000000000000000000000000000000000000000000000000000081526004018080602001828103825260248152602001806127bc6024913960400191505060405180910390fd5b8091505092915050565b6000611a438342610d84565b509050611a4f82611927565b811215611a91576040517f08c379a0000000000000000000000000000000000000000000000000000000008152600401611a8890612455565b60405180910390fd5b611aeb611a9d83611927565b600160008673ffffffffffffffffffffffffffffffffffffffff1673ffffffffffffffffffffffffffffffffffffffff168152602001908152602001600020546119a990919063ffffffff16565b600160008573ffffffffffffffffffffffffffffffffffffffff1673ffffffffffffffffffffffffffffffffffffffff16815260200190815260200160002081905550611b4382600354611bb990919063ffffffff16565b600381905550600073ffffffffffffffffffffffffffffffffffffffff168373ffffffffffffffffffffffffffffffffffffffff167fddf252ad1be2c89b69c2b068fc378daa952ba7f163c4a11628f55a4df523b3ef84604051611ba791906124f5565b60405180910390a3505050565b505050565b6000611bfb83836040518060400160405280601e81526020017f536166654d6174683a207375627472616374696f6e206f766572666c6f7700008152506114d8565b905092915050565b828054600181600116156101000203166002900490600052602060002090601f016020900481019282611c395760008555611c80565b82601f10611c5257805160ff1916838001178555611c80565b82800160010185558215611c80579182015b82811115611c7f578251825591602001919060010190611c64565b5b509050611c8d9190611c91565b5090565b5b80821115611caa576000816000905550600101611c92565b5090565b6000611cc1611cbc8461255c565b61252b565b905082815260208101848484011115611cd957600080fd5b611ce484828561263d565b509392505050565b600081359050611cfb81612692565b92915050565b600081519050611d10816126a9565b92915050565b600081359050611d25816126c0565b92915050565b600081359050611d3a816126d7565b92915050565b600081519050611d4f816126d7565b92915050565b600082601f830112611d6657600080fd5b8135611d76848260208601611cae565b91505092915050565b600081359050611d8e816126ee565b92915050565b600081519050611da3816126ee565b92915050565b600081359050611db881612705565b92915050565b600060208284031215611dd057600080fd5b6000611dde84828501611cec565b91505092915050565b60008060408385031215611dfa57600080fd5b6000611e0885828601611cec565b9250506020611e1985828601611cec565b9150509250929050565b600080600060608486031215611e3857600080fd5b6000611e4686828701611cec565b9350506020611e5786828701611cec565b9250506040611e6886828701611d7f565b9150509250925092565b60008060408385031215611e8557600080fd5b6000611e9385828601611cec565b9250506020611ea485828601611d2b565b9150509250929050565b60008060408385031215611ec157600080fd5b6000611ecf85828601611cec565b9250506020611ee085828601611d7f565b9150509250929050565b600060208284031215611efc57600080fd5b6000611f0a84828501611d01565b91505092915050565b60008060008060808587031215611f2957600080fd5b6000611f3787828801611d16565b9450506020611f4887828801611da9565b935050604085013567ffffffffffffffff811115611f6557600080fd5b611f7187828801611d55565b925050606085013567ffffffffffffffff811115611f8e57600080fd5b611f9a87828801611d55565b91505092959194509250565b60008060408385031215611fb957600080fd5b6000611fc785828601611d40565b9250506020611fd885828601611d94565b9150509250929050565b600060208284031215611ff457600080fd5b600061200284828501611d7f565b91505092915050565b612014816125a8565b82525050565b612023816125ba565b82525050565b61203281612619565b82525050565b612041816125d8565b82525050565b60006120528261258c565b61205c8185612597565b935061206c81856020860161264c565b61207581612681565b840191505092915050565b600061208d602383612597565b91507f45524332303a207472616e7366657220746f20746865207a65726f206164647260008301527f65737300000000000000000000000000000000000000000000000000000000006020830152604082019050919050565b60006120f3602283612597565b91507f45524332303a206275726e20616d6f756e7420657863656564732062616c616e60008301527f63650000000000000000000000000000000000000000000000000000000000006020830152604082019050919050565b6000612159602283612597565b91507f45524332303a20617070726f766520746f20746865207a65726f20616464726560008301527f73730000000000000000000000000000000000000000000000000000000000006020830152604082019050919050565b60006121bf602683612597565b91507f45524332303a207472616e7366657220616d6f756e742065786365656473206260008301527f616c616e636500000000000000000000000000000000000000000000000000006020830152604082019050919050565b6000612225602583612597565b91507f45524332303a207472616e736665722066726f6d20746865207a65726f20616460008301527f64726573730000000000000000000000000000000000000000000000000000006020830152604082019050919050565b600061228b602483612597565b91507f45524332303a20617070726f76652066726f6d20746865207a65726f2061646460008301527f72657373000000000000000000000000000000000000000000000000000000006020830152604082019050919050565b6122ed81612602565b82525050565b6122fc8161260c565b82525050565b6000602082019050612317600083018461200b565b92915050565b6000606082019050612332600083018661200b565b61233f602083018561200b565b61234c60408301846122e4565b949350505050565b6000604082019050612369600083018561200b565b61237660208301846122e4565b9392505050565b6000602082019050612392600083018461201a565b92915050565b60006060820190506123ad6000830186612029565b6123ba602083018561200b565b6123c760408301846122e4565b949350505050565b60006020820190506123e46000830184612038565b92915050565b60006040820190506123ff6000830185612038565b61240c60208301846122e4565b9392505050565b6000602082019050818103600083015261242d8184612047565b905092915050565b6000602082019050818103600083015261244e81612080565b9050919050565b6000602082019050818103600083015261246e816120e6565b9050919050565b6000602082019050818103600083015261248e8161214c565b9050919050565b600060208201905081810360008301526124ae816121b2565b9050919050565b600060208201905081810360008301526124ce81612218565b9050919050565b600060208201905081810360008301526124ee8161227e565b9050919050565b600060208201905061250a60008301846122e4565b92915050565b600060208201905061252560008301846122f3565b92915050565b6000604051905081810181811067ffffffffffffffff821117156125525761255161267f565b5b8060405250919050565b600067ffffffffffffffff8211156125775761257661267f565b5b601f19601f8301169050602081019050919050565b600081519050919050565b600082825260208201905092915050565b60006125b3826125e2565b9050919050565b60008115159050919050565b60006125d1826125a8565b9050919050565b6000819050919050565b600073ffffffffffffffffffffffffffffffffffffffff82169050919050565b6000819050919050565b600060ff82169050919050565b60006126248261262b565b9050919050565b6000612636826125e2565b9050919050565b82818337600083830152505050565b60005b8381101561266a57808201518184015260208101905061264f565b83811115612679576000848401525b50505050565bfe5b6000601f19601f8301169050919050565b61269b816125a8565b81146126a657600080fd5b50565b6126b2816125ba565b81146126bd57600080fd5b50565b6126c9816125c6565b81146126d457600080fd5b50565b6126e0816125d8565b81146126eb57600080fd5b50565b6126f781612602565b811461270257600080fd5b50565b61270e8161260c565b811461271957600080fd5b5056fe5369676e6564536166654d6174683a206164646974696f6e206f766572666c6f77496e697469616c697a61626c653a20636f6e747261637420697320616c726561647920696e697469616c697a656445524332303a207472616e7366657220616d6f756e74206578636565647320616c6c6f77616e636553616665436173743a2076616c756520646f65736e27742066697420696e20616e20696e743235365369676e6564536166654d6174683a207375627472616374696f6e206f766572666c6f7745524332303a2064656372656173656420616c6c6f77616e63652062656c6f77207a65726fa2646970667358221220176927374b16036d7158dc872cf54ee187181e850f40a2f55d6284f45fc2b7d764736f6c63430007060033",
  "linkReferences": {},
  "deployedLinkReferences": {}
}