{
  "_format": "hh-sol-artifact-1",
  "contractName": "Qtoken",
  "sourceName": "contracts/tokens/Qtoken.sol",
  "abi": [
    {
      "anonymous": false,
      "inputs": [
        {
          "indexed": true,
          "internalType": "address",
          "name": "owner",
          "type": "address"
        },
        {
          "indexed": true,
          "internalType": "address",
          "name": "spender",
          "type": "address"
        },
        {
          "indexed": false,
          "internalType": "uint256",
          "name": "value",
          "type": "uint256"
        }
      ],
      "name": "Approval",
      "type": "event"
    },
    {
      "anonymous": false,
      "inputs": [
        {
          "indexed": true,
          "internalType": "address",
          "name": "from",
          "type": "address"
        },
        {
          "indexed": true,
          "internalType": "address",
          "name": "to",
          "type": "address"
        },
        {
          "indexed": false,
          "internalType": "uint256",
          "name": "value",
          "type": "uint256"
        }
      ],
      "name": "Transfer",
      "type": "event"
    },
    {
      "inputs": [
        {
          "internalType": "address",
          "name": "owner",
          "type": "address"
        },
        {
          "internalType": "address",
          "name": "spender",
          "type": "address"
        }
      ],
      "name": "allowance",
      "outputs": [
        {
          "internalType": "uint256",
          "name": "",
          "type": "uint256"
        }
      ],
      "stateMutability": "view",
      "type": "function"
    },
    {
      "inputs": [
        {
          "internalType": "address",
          "name": "spender",
          "type": "address"
        },
        {
          "internalType": "uint256",
          "name": "amount",
          "type": "uint256"
        }
      ],
      "name": "approve",
      "outputs": [
        {
          "internalType": "bool",
          "name": "",
          "type": "bool"
        }
      ],
      "stateMutability": "nonpayable",
      "type": "function"
    },
    {
      "inputs": [
        {
          "internalType": "address",
          "name": "account",
          "type": "address"
        }
      ],
      "name": "balanceOf",
      "outputs": [
        {
          "internalType": "uint256",
          "name": "",
          "type": "uint256"
        }
      ],
      "stateMutability": "view",
      "type": "function"
    },
    {
      "inputs": [],
      "name": "decimals",
      "outputs": [
        {
          "internalType": "uint8",
          "name": "",
          "type": "uint8"
        }
      ],
      "stateMutability": "view",
      "type": "function"
    },
    {
      "inputs": [
        {
          "internalType": "address",
          "name": "spender",
          "type": "address"
        },
        {
          "internalType": "uint256",
          "name": "subtractedValue",
          "type": "uint256"
        }
      ],
      "name": "decreaseAllowance",
      "outputs": [
        {
          "internalType": "bool",
          "name": "",
          "type": "bool"
        }
      ],
      "stateMutability": "nonpayable",
      "type": "function"
    },
    {
      "inputs": [
        {
          "internalType": "address",
          "name": "spender",
          "type": "address"
        },
        {
          "internalType": "uint256",
          "name": "addedValue",
          "type": "uint256"
        }
      ],
      "name": "increaseAllowance",
      "outputs": [
        {
          "internalType": "bool",
          "name": "",
          "type": "bool"
        }
      ],
      "stateMutability": "nonpayable",
      "type": "function"
    },
    {
      "inputs": [
        {
          "internalType": "contract IERC20",
          "name": "underlyingToken_",
          "type": "address"
        },
        {
          "internalType": "uint8",
          "name": "decimals_",
          "type": "uint8"
        },
        {
          "internalType": "string",
          "name": "name_",
          "type": "string"
        },
        {
          "internalType": "string",
          "name": "symbol_",
          "type": "string"
        }
      ],
      "name": "initialize",
      "outputs": [],
      "stateMutability": "nonpayable",
      "type": "function"
    },
    {
      "inputs": [],
      "name": "name",
      "outputs": [
        {
          "internalType": "string",
          "name": "",
          "type": "string"
        }
      ],
      "stateMutability": "view",
      "type": "function"
    },
    {
      "inputs": [],
      "name": "symbol",
      "outputs": [
        {
          "internalType": "string",
          "name": "",
          "type": "string"
        }
      ],
      "stateMutability": "view",
      "type": "function"
    },
    {
      "inputs": [],
      "name": "totalSupply",
      "outputs": [
        {
          "internalType": "uint256",
          "name": "",
          "type": "uint256"
        }
      ],
      "stateMutability": "view",
      "type": "function"
    },
    {
      "inputs": [
        {
          "internalType": "address",
          "name": "recipient",
          "type": "address"
        },
        {
          "internalType": "uint256",
          "name": "amount",
          "type": "uint256"
        }
      ],
      "name": "transfer",
      "outputs": [
        {
          "internalType": "bool",
          "name": "",
          "type": "bool"
        }
      ],
      "stateMutability": "nonpayable",
      "type": "function"
    },
    {
      "inputs": [
        {
          "internalType": "address",
          "name": "sender",
          "type": "address"
        },
        {
          "internalType": "address",
          "name": "recipient",
          "type": "address"
        },
        {
          "internalType": "uint256",
          "name": "amount",
          "type": "uint256"
        }
      ],
      "name": "transferFrom",
      "outputs": [
        {
          "internalType": "bool",
          "name": "",
          "type": "bool"
        }
      ],
      "stateMutability": "nonpayable",
      "type": "function"
    }
  ],
  "bytecode": "0x608060405234801561001057600080fd5b5061170a806100206000396000f3fe608060405234801561001057600080fd5b50600436106100b45760003560e01c806342fe09801161007157806342fe0980146101a357806370a08231146101bf57806395d89b41146101ef578063a457c2d71461020d578063a9059cbb1461023d578063dd62ed3e1461026d576100b4565b806306fdde03146100b9578063095ea7b3146100d757806318160ddd1461010757806323b872dd14610125578063313ce567146101555780633950935114610173575b600080fd5b6100c161029d565b6040516100ce91906113c6565b60405180910390f35b6100f160048036038101906100ec91906110de565b61033f565b6040516100fe91906113ab565b60405180910390f35b61010f61035d565b60405161011c9190611468565b60405180910390f35b61013f600480360381019061013a919061108f565b610367565b60405161014c91906113ab565b60405180910390f35b61015d610440565b60405161016a9190611483565b60405180910390f35b61018d600480360381019061018891906110de565b610457565b60405161019a91906113ab565b60405180910390f35b6101bd60048036038101906101b8919061111a565b61050a565b005b6101d960048036038101906101d4919061102a565b610696565b6040516101e69190611468565b60405180910390f35b6101f76106df565b60405161020491906113c6565b60405180910390f35b610227600480360381019061022291906110de565b610781565b60405161023491906113ab565b60405180910390f35b610257600480360381019061025291906110de565b61084e565b60405161026491906113ab565b60405180910390f35b61028760048036038101906102829190611053565b61086c565b6040516102949190611468565b60405180910390f35b606060048054600181600116156101000203166002900480601f0160208091040260200160405190810160405280929190818152602001828054600181600116156101000203166002900480156103355780601f1061030a57610100808354040283529160200191610335565b820191906000526020600020905b81548152906001019060200180831161031857829003601f168201915b5050505050905090565b600061035361034c6108f3565b84846108fb565b6001905092915050565b6000600354905090565b6000610374848484610ac6565b610435846103806108f3565b6104308560405180606001604052806028815260200161168860289139600260008b73ffffffffffffffffffffffffffffffffffffffff1673ffffffffffffffffffffffffffffffffffffffff16815260200190815260200160002060006103e66108f3565b73ffffffffffffffffffffffffffffffffffffffff1673ffffffffffffffffffffffffffffffffffffffff16815260200190815260200160002054610d5f9092919063ffffffff16565b6108fb565b600190509392505050565b6000600660009054906101000a900460ff16905090565b60006105006104646108f3565b846104fb85600260006104756108f3565b73ffffffffffffffffffffffffffffffffffffffff1673ffffffffffffffffffffffffffffffffffffffff16815260200190815260200160002060008973ffffffffffffffffffffffffffffffffffffffff1673ffffffffffffffffffffffffffffffffffffffff16815260200190815260200160002054610e1f90919063ffffffff16565b6108fb565b6001905092915050565b600060019054906101000a900460ff16806105295750610528610ea7565b5b8061053f575060008054906101000a900460ff16155b610594576040517f08c379a000000000000000000000000000000000000000000000000000000000815260040180806020018281038252602e81526020018061165a602e913960400191505060405180910390fd5b60008060019054906101000a900460ff1615905080156105e4576001600060016101000a81548160ff02191690831515021790555060016000806101000a81548160ff0219169083151502179055505b84600660016101000a81548173ffffffffffffffffffffffffffffffffffffffff021916908373ffffffffffffffffffffffffffffffffffffffff16021790555083600660006101000a81548160ff021916908360ff1602179055508260049080519060200190610656929190610ec3565b50816005908051906020019061066d929190610ec3565b50801561068f5760008060016101000a81548160ff0219169083151502179055505b5050505050565b6000600160008373ffffffffffffffffffffffffffffffffffffffff1673ffffffffffffffffffffffffffffffffffffffff168152602001908152602001600020549050919050565b606060058054600181600116156101000203166002900480601f0160208091040260200160405190810160405280929190818152602001828054600181600116156101000203166002900480156107775780601f1061074c57610100808354040283529160200191610777565b820191906000526020600020905b81548152906001019060200180831161075a57829003601f168201915b5050505050905090565b600061084461078e6108f3565b8461083f856040518060600160405280602581526020016116b060259139600260006107b86108f3565b73ffffffffffffffffffffffffffffffffffffffff1673ffffffffffffffffffffffffffffffffffffffff16815260200190815260200160002060008a73ffffffffffffffffffffffffffffffffffffffff1673ffffffffffffffffffffffffffffffffffffffff16815260200190815260200160002054610d5f9092919063ffffffff16565b6108fb565b6001905092915050565b600061086261085b6108f3565b8484610ac6565b6001905092915050565b6000600260008473ffffffffffffffffffffffffffffffffffffffff1673ffffffffffffffffffffffffffffffffffffffff16815260200190815260200160002060008373ffffffffffffffffffffffffffffffffffffffff1673ffffffffffffffffffffffffffffffffffffffff16815260200190815260200160002054905092915050565b600033905090565b600073ffffffffffffffffffffffffffffffffffffffff168373ffffffffffffffffffffffffffffffffffffffff16141561096b576040517f08c379a000000000000000000000000000000000000000000000000000000000815260040161096290611448565b60405180910390fd5b600073ffffffffffffffffffffffffffffffffffffffff168273ffffffffffffffffffffffffffffffffffffffff1614156109db576040517f08c379a00000000000000000000000000000000000000000000000000000000081526004016109d290611408565b60405180910390fd5b80600260008573ffffffffffffffffffffffffffffffffffffffff1673ffffffffffffffffffffffffffffffffffffffff16815260200190815260200160002060008473ffffffffffffffffffffffffffffffffffffffff1673ffffffffffffffffffffffffffffffffffffffff168152602001908152602001600020819055508173ffffffffffffffffffffffffffffffffffffffff168373ffffffffffffffffffffffffffffffffffffffff167f8c5be1e5ebec7d5bd14f71427d1e84f3dd0314c0f7b2291e5b200ac8c7c3b92583604051610ab99190611468565b60405180910390a3505050565b600073ffffffffffffffffffffffffffffffffffffffff168373ffffffffffffffffffffffffffffffffffffffff161415610b36576040517f08c379a0000000000000000000000000000000000000000000000000000000008152600401610b2d90611428565b60405180910390fd5b600073ffffffffffffffffffffffffffffffffffffffff168273ffffffffffffffffffffffffffffffffffffffff161415610ba6576040517f08c379a0000000000000000000000000000000000000000000000000000000008152600401610b9d906113e8565b60405180910390fd5b610bb1838383610ebe565b610c1d8160405180606001604052806026815260200161163460269139600160008773ffffffffffffffffffffffffffffffffffffffff1673ffffffffffffffffffffffffffffffffffffffff16815260200190815260200160002054610d5f9092919063ffffffff16565b600160008573ffffffffffffffffffffffffffffffffffffffff1673ffffffffffffffffffffffffffffffffffffffff16815260200190815260200160002081905550610cb281600160008573ffffffffffffffffffffffffffffffffffffffff1673ffffffffffffffffffffffffffffffffffffffff16815260200190815260200160002054610e1f90919063ffffffff16565b600160008473ffffffffffffffffffffffffffffffffffffffff1673ffffffffffffffffffffffffffffffffffffffff168152602001908152602001600020819055508173ffffffffffffffffffffffffffffffffffffffff168373ffffffffffffffffffffffffffffffffffffffff167fddf252ad1be2c89b69c2b068fc378daa952ba7f163c4a11628f55a4df523b3ef83604051610d529190611468565b60405180910390a3505050565b6000838311158290610e0c576040517f08c379a00000000000000000000000000000000000000000000000000000000081526004018080602001828103825283818151815260200191508051906020019080838360005b83811015610dd1578082015181840152602081019050610db6565b50505050905090810190601f168015610dfe5780820380516001836020036101000a031916815260200191505b509250505060405180910390fd5b5060008385039050809150509392505050565b600080828401905083811015610e9d576040517f08c379a000000000000000000000000000000000000000000000000000000000815260040180806020018281038252601b8152602001807f536166654d6174683a206164646974696f6e206f766572666c6f77000000000081525060200191505060405180910390fd5b8091505092915050565b6000803090506000813b9050600081149250505090565b505050565b828054600181600116156101000203166002900490600052602060002090601f016020900481019282610ef95760008555610f40565b82601f10610f1257805160ff1916838001178555610f40565b82800160010185558215610f40579182015b82811115610f3f578251825591602001919060010190610f24565b5b509050610f4d9190610f51565b5090565b5b80821115610f6a576000816000905550600101610f52565b5090565b6000610f81610f7c846114cf565b61149e565b905082815260208101848484011115610f9957600080fd5b610fa4848285611582565b509392505050565b600081359050610fbb816115d7565b92915050565b600081359050610fd0816115ee565b92915050565b600082601f830112610fe757600080fd5b8135610ff7848260208601610f6e565b91505092915050565b60008135905061100f81611605565b92915050565b6000813590506110248161161c565b92915050565b60006020828403121561103c57600080fd5b600061104a84828501610fac565b91505092915050565b6000806040838503121561106657600080fd5b600061107485828601610fac565b925050602061108585828601610fac565b9150509250929050565b6000806000606084860312156110a457600080fd5b60006110b286828701610fac565b93505060206110c386828701610fac565b92505060406110d486828701611000565b9150509250925092565b600080604083850312156110f157600080fd5b60006110ff85828601610fac565b925050602061111085828601611000565b9150509250929050565b6000806000806080858703121561113057600080fd5b600061113e87828801610fc1565b945050602061114f87828801611015565b935050604085013567ffffffffffffffff81111561116c57600080fd5b61117887828801610fd6565b925050606085013567ffffffffffffffff81111561119557600080fd5b6111a187828801610fd6565b91505092959194509250565b6111b68161152d565b82525050565b60006111c7826114ff565b6111d1818561150a565b93506111e1818560208601611591565b6111ea816115c6565b840191505092915050565b600061120260238361150a565b91507f45524332303a207472616e7366657220746f20746865207a65726f206164647260008301527f65737300000000000000000000000000000000000000000000000000000000006020830152604082019050919050565b600061126860228361150a565b91507f45524332303a20617070726f766520746f20746865207a65726f20616464726560008301527f73730000000000000000000000000000000000000000000000000000000000006020830152604082019050919050565b60006112ce60258361150a565b91507f45524332303a207472616e736665722066726f6d20746865207a65726f20616460008301527f64726573730000000000000000000000000000000000000000000000000000006020830152604082019050919050565b600061133460248361150a565b91507f45524332303a20617070726f76652066726f6d20746865207a65726f2061646460008301527f72657373000000000000000000000000000000000000000000000000000000006020830152604082019050919050565b6113968161156b565b82525050565b6113a581611575565b82525050565b60006020820190506113c060008301846111ad565b92915050565b600060208201905081810360008301526113e081846111bc565b905092915050565b60006020820190508181036000830152611401816111f5565b9050919050565b600060208201905081810360008301526114218161125b565b9050919050565b60006020820190508181036000830152611441816112c1565b9050919050565b6000602082019050818103600083015261146181611327565b9050919050565b600060208201905061147d600083018461138d565b92915050565b6000602082019050611498600083018461139c565b92915050565b6000604051905081810181811067ffffffffffffffff821117156114c5576114c46115c4565b5b8060405250919050565b600067ffffffffffffffff8211156114ea576114e96115c4565b5b601f19601f8301169050602081019050919050565b600081519050919050565b600082825260208201905092915050565b60006115268261154b565b9050919050565b60008115159050919050565b60006115448261151b565b9050919050565b600073ffffffffffffffffffffffffffffffffffffffff82169050919050565b6000819050919050565b600060ff82169050919050565b82818337600083830152505050565b60005b838110156115af578082015181840152602081019050611594565b838111156115be576000848401525b50505050565bfe5b6000601f19601f8301169050919050565b6115e08161151b565b81146115eb57600080fd5b50565b6115f781611539565b811461160257600080fd5b50565b61160e8161156b565b811461161957600080fd5b50565b61162581611575565b811461163057600080fd5b5056fe45524332303a207472616e7366657220616d6f756e7420657863656564732062616c616e6365496e697469616c697a61626c653a20636f6e747261637420697320616c726561647920696e697469616c697a656445524332303a207472616e7366657220616d6f756e74206578636565647320616c6c6f77616e636545524332303a2064656372656173656420616c6c6f77616e63652062656c6f77207a65726fa264697066735822122061e920003f76bdc9aed36aa330d9a1d5f7e4dec703c5dbcfe700122aac2084eb64736f6c63430007060033",
  "linkReferences": {},
  "deployedLinkReferences": {}
}