{
  "_format": "hh-sol-artifact-1",
  "contractName": "NFTFacet",
  "sourceName": "contracts/facets/NFTFacet.sol",
  "abi": [
    {
      "inputs": [
        {
          "internalType": "address",
          "name": "user",
          "type": "address"
        },
        {
          "internalType": "uint256",
          "name": "beamTokenId",
          "type": "uint256"
        },
        {
          "internalType": "uint256",
          "name": "nftTokenId",
          "type": "uint256"
        },
        {
          "internalType": "uint8",
          "name": "v",
          "type": "uint8"
        },
        {
          "internalType": "bytes32",
          "name": "r",
          "type": "bytes32"
        },
        {
          "internalType": "bytes32",
          "name": "s",
          "type": "bytes32"
        }
      ],
      "name": "claimNFT",
      "outputs": [],
      "stateMutability": "nonpayable",
      "type": "function"
    },
    {
      "inputs": [
        {
          "internalType": "uint256",
          "name": "baseTokenId",
          "type": "uint256"
        },
        {
          "internalType": "string",
          "name": "_uri",
          "type": "string"
        },
        {
          "internalType": "uint8",
          "name": "v",
          "type": "uint8"
        },
        {
          "internalType": "bytes32",
          "name": "r",
          "type": "bytes32"
        },
        {
          "internalType": "bytes32",
          "name": "s",
          "type": "bytes32"
        }
      ],
      "name": "mintNFTtoSubscribers",
      "outputs": [],
      "stateMutability": "nonpayable",
      "type": "function"
    },
    {
      "inputs": [
        {
          "internalType": "uint256[]",
          "name": "baseTokenId",
          "type": "uint256[]"
        },
        {
          "internalType": "string",
          "name": "_uri",
          "type": "string"
        },
        {
          "internalType": "uint8",
          "name": "v",
          "type": "uint8"
        },
        {
          "internalType": "bytes32",
          "name": "r",
          "type": "bytes32"
        },
        {
          "internalType": "bytes32",
          "name": "s",
          "type": "bytes32"
        }
      ],
      "name": "mintNFTtoSubscribersBatch",
      "outputs": [],
      "stateMutability": "nonpayable",
      "type": "function"
    }
  ],
  "bytecode": "0x608060405234801561001057600080fd5b506124a5806100206000396000f3fe608060405234801561001057600080fd5b50600436106100415760003560e01c806349380056146100465780635b50b69d14610062578063ef783f111461007e575b600080fd5b610060600480360381019061005b9190611911565b61009a565b005b61007c60048036038101906100779190611888565b6104f1565b005b610098600480360381019061009391906119e1565b610820565b005b6000806000016000876000815181106100af57fe5b6020026020010151815260200190815260200160002060000160009054906101000a900473ffffffffffffffffffffffffffffffffffffffff16905061012d816040518060400160405280600381526020017f6e66740000000000000000000000000000000000000000000000000000000000815250868686610a90565b6000865167ffffffffffffffff8111801561014757600080fd5b506040519080825280602002602001820160405280156101765781602001602082028036833780820191505090505b5090506000875167ffffffffffffffff8111801561019357600080fd5b506040519080825280602002602001820160405280156101c25781602001602082028036833780820191505090505b50905060005b885181101561047f578373ffffffffffffffffffffffffffffffffffffffff166000800160008b84815181106101fa57fe5b6020026020010151815260200190815260200160002060000160009054906101000a900473ffffffffffffffffffffffffffffffffffffffff1673ffffffffffffffffffffffffffffffffffffffff161461028a576040517f08c379a000000000000000000000000000000000000000000000000000000000815260040161028190612153565b60405180910390fd5b60806102a56001600060090154610cad90919063ffffffff16565b901b8382815181106102b357fe5b6020026020010181815250507f80000000000000000000000000000000000000000000000000000000000000008382815181106102ec57fe5b60200260200101511783828151811061030157fe5b6020026020010181815250506000800160008a838151811061031f57fe5b602002602001015181526020019081526020016000206004015482828151811061034557fe5b6020026020010181815250506040518060a001604052808981526020014281526020018a838151811061037457fe5b60200260200101518152602001600181526020018573ffffffffffffffffffffffffffffffffffffffff16815250600060030160008584815181106103b557fe5b6020026020010151815260200190815260200160002060008201518160000190805190602001906103e7929190611676565b5060208201518160010155604082015181600201556060820151816003015560808201518160040160006101000a81548173ffffffffffffffffffffffffffffffffffffffff021916908373ffffffffffffffffffffffffffffffffffffffff1602179055509050506104696001600060090154610cad90919063ffffffff16565b60006009018190555080806001019150506101c8565b506104e76000800160008a60008151811061049657fe5b6020026020010151815260200190815260200160002060000160009054906101000a900473ffffffffffffffffffffffffffffffffffffffff16838360405180602001604052806000815250610d35565b5050505050505050565b610533866040518060400160405280600581526020017f636c61696d000000000000000000000000000000000000000000000000000000815250858585610a90565b600061053d610f61565b9050600081600001600088815260200190815260200160002060008973ffffffffffffffffffffffffffffffffffffffff1673ffffffffffffffffffffffffffffffffffffffff16815260200190815260200160002054116105d4576040517f08c379a00000000000000000000000000000000000000000000000000000000081526004016105cb906120f3565b60405180910390fd5b600060030160008681526020019081526020016000206002015460807fffffffffffffffffffffffffffffffffffffffffffffffffffffffffffffffff6fffffffffffffffffffffffffffffffff16901b871614610667576040517f08c379a000000000000000000000000000000000000000000000000000000000815260040161065e90612173565b60405180910390fd5b60006003016000868152602001908152602001600020600101546000600101600088815260200190815260200160002060040154106106db576040517f08c379a00000000000000000000000000000000000000000000000000000000081526004016106d290612133565b60405180910390fd5b6000151560006004016000878152602001908152602001600020600088815260200190815260200160002060009054906101000a900460ff16151514610756576040517f08c379a000000000000000000000000000000000000000000000000000000000815260040161074d90612113565b60405180910390fd5b600080600301600087815260200190815260200160002060030154861790506107918882600160405180602001604052806000815250610f8e565b6107d66000600301600088815260200190815260200160002060040160009054906101000a900473ffffffffffffffffffffffffffffffffffffffff16876001611167565b600160006004016000888152602001908152602001600020600089815260200190815260200160002060006101000a81548160ff0219169083151502179055505050505050505050565b61089a60008001600087815260200190815260200160002060000160009054906101000a900473ffffffffffffffffffffffffffffffffffffffff166040518060400160405280600381526020017f6e66740000000000000000000000000000000000000000000000000000000000815250858585610a90565b600060806108b76001600060090154610cad90919063ffffffff16565b901b90507f800000000000000000000000000000000000000000000000000000000000000081179050806000600a01819055506040518060a001604052808681526020014281526020018781526020016001815260200160008001600089815260200190815260200160002060000160009054906101000a900473ffffffffffffffffffffffffffffffffffffffff1673ffffffffffffffffffffffffffffffffffffffff16815250600060030160008381526020019081526020016000206000820151816000019080519060200190610992929190611676565b5060208201518160010155604082015181600201556060820151816003015560808201518160040160006101000a81548173ffffffffffffffffffffffffffffffffffffffff021916908373ffffffffffffffffffffffffffffffffffffffff160217905550905050610a6660008001600088815260200190815260200160002060000160009054906101000a900473ffffffffffffffffffffffffffffffffffffffff16826000800160008a81526020019081526020016000206004015460405180602001604052806000815250610f8e565b610a7f6001600060090154610cad90919063ffffffff16565b600060090181905550505050505050565b6000610a9a610f61565b9050600081600301548260040154888460020160008b73ffffffffffffffffffffffffffffffffffffffff1673ffffffffffffffffffffffffffffffffffffffff168152602001908152602001600020600001548980519060200120604051602001610b099493929190612009565b60405160208183030381529060405280519060200120604051602001610b30929190611ed9565b60405160208183030381529060405280519060200120905060018186868660405160008152602001604052604051610b6b949392919061204e565b6020604051602081039080840390855afa158015610b8d573d6000803e3d6000fd5b5050506020604051035173ffffffffffffffffffffffffffffffffffffffff168773ffffffffffffffffffffffffffffffffffffffff1614610c04576040517f08c379a0000000000000000000000000000000000000000000000000000000008152600401610bfb906120b3565b60405180910390fd5b610c5c60018360020160008a73ffffffffffffffffffffffffffffffffffffffff1673ffffffffffffffffffffffffffffffffffffffff16815260200190815260200160002060000154610cad90919063ffffffff16565b8260020160008973ffffffffffffffffffffffffffffffffffffffff1673ffffffffffffffffffffffffffffffffffffffff1681526020019081526020016000206000018190555050505050505050565b600080828401905083811015610d2b576040517f08c379a000000000000000000000000000000000000000000000000000000000815260040180806020018281038252601b8152602001807f536166654d6174683a206164646974696f6e206f766572666c6f77000000000081525060200191505060405180910390fd5b8091505092915050565b600073ffffffffffffffffffffffffffffffffffffffff168473ffffffffffffffffffffffffffffffffffffffff161415610da5576040517f08c379a0000000000000000000000000000000000000000000000000000000008152600401610d9c906121b3565b60405180910390fd5b6000610daf61134a565b90506000610dbb610f61565b905060005b8551811015610eca57610e54826000016000888481518110610dde57fe5b6020026020010151815260200190815260200160002060008973ffffffffffffffffffffffffffffffffffffffff1673ffffffffffffffffffffffffffffffffffffffff16815260200190815260200160002054868381518110610e3e57fe5b6020026020010151610cad90919063ffffffff16565b826000016000888481518110610e6657fe5b6020026020010151815260200190815260200160002060008973ffffffffffffffffffffffffffffffffffffffff1673ffffffffffffffffffffffffffffffffffffffff168152602001908152602001600020819055508080600101915050610dc0565b508573ffffffffffffffffffffffffffffffffffffffff16600073ffffffffffffffffffffffffffffffffffffffff168373ffffffffffffffffffffffffffffffffffffffff167f4a39dc06d4c0dbc64b70af90fd698a233a518aa5d07e595d983b8c0526c8f7fb8888604051610f42929190611fd2565b60405180910390a4610f5982600088888888611352565b505050505050565b6000807fd1fd1ec9eb6f457e5e32da0d2921ff6daf7fd2085ec060a076b391ca2400b28290508091505090565b600073ffffffffffffffffffffffffffffffffffffffff168473ffffffffffffffffffffffffffffffffffffffff161415610ffe576040517f08c379a0000000000000000000000000000000000000000000000000000000008152600401610ff5906121b3565b60405180910390fd5b600061100861134a565b90506000611014610f61565b905061107b8482600001600088815260200190815260200160002060008973ffffffffffffffffffffffffffffffffffffffff1673ffffffffffffffffffffffffffffffffffffffff16815260200190815260200160002054610cad90919063ffffffff16565b81600001600087815260200190815260200160002060008873ffffffffffffffffffffffffffffffffffffffff1673ffffffffffffffffffffffffffffffffffffffff168152602001908152602001600020819055508573ffffffffffffffffffffffffffffffffffffffff16600073ffffffffffffffffffffffffffffffffffffffff168373ffffffffffffffffffffffffffffffffffffffff167fc3d58168c5ae7397731d063d5bbf3d657854427343f4c083240f7aacaa2d0f6288886040516111489291906121d3565b60405180910390a461115f82600088888888611484565b505050505050565b600073ffffffffffffffffffffffffffffffffffffffff168373ffffffffffffffffffffffffffffffffffffffff1614156111d7576040517f08c379a00000000000000000000000000000000000000000000000000000000081526004016111ce90612193565b60405180910390fd5b60006111e161134a565b905060006111ed610f61565b905061126e8360405180606001604052806024815260200161244c6024913983600001600088815260200190815260200160002060008973ffffffffffffffffffffffffffffffffffffffff1673ffffffffffffffffffffffffffffffffffffffff168152602001908152602001600020546115b69092919063ffffffff16565b81600001600086815260200190815260200160002060008773ffffffffffffffffffffffffffffffffffffffff1673ffffffffffffffffffffffffffffffffffffffff16815260200190815260200160002081905550600073ffffffffffffffffffffffffffffffffffffffff168573ffffffffffffffffffffffffffffffffffffffff168373ffffffffffffffffffffffffffffffffffffffff167fc3d58168c5ae7397731d063d5bbf3d657854427343f4c083240f7aacaa2d0f62878760405161133b9291906121d3565b60405180910390a45050505050565b600033905090565b6000843b9050600081111561147b578473ffffffffffffffffffffffffffffffffffffffff1663bc197c8188888787876040518663ffffffff1660e01b81526004016113a2959493929190611f10565b602060405180830381600087803b1580156113bc57600080fd5b505af11580156113d0573d6000803e3d6000fd5b505050506040513d601f19601f820116820180604052508101906113f491906119b8565b7bffffffffffffffffffffffffffffffffffffffffffffffffffffffff191663bc197c8160e01b7bffffffffffffffffffffffffffffffffffffffffffffffffffffffff19161461147a576040517f08c379a0000000000000000000000000000000000000000000000000000000008152600401611471906120d3565b60405180910390fd5b5b50505050505050565b6000843b905060008111156115ad578473ffffffffffffffffffffffffffffffffffffffff1663f23a6e6188888787876040518663ffffffff1660e01b81526004016114d4959493929190611f78565b602060405180830381600087803b1580156114ee57600080fd5b505af1158015611502573d6000803e3d6000fd5b505050506040513d601f19601f8201168201806040525081019061152691906119b8565b7bffffffffffffffffffffffffffffffffffffffffffffffffffffffff191663f23a6e6160e01b7bffffffffffffffffffffffffffffffffffffffffffffffffffffffff1916146115ac576040517f08c379a00000000000000000000000000000000000000000000000000000000081526004016115a390612093565b60405180910390fd5b5b50505050505050565b6000838311158290611663576040517f08c379a00000000000000000000000000000000000000000000000000000000081526004018080602001828103825283818151815260200191508051906020019080838360005b8381101561162857808201518184015260208101905061160d565b50505050905090810190601f1680156116555780820380516001836020036101000a031916815260200191505b509250505060405180910390fd5b5060008385039050809150509392505050565b828054600181600116156101000203166002900490600052602060002090601f0160209004810192826116ac57600085556116f3565b82601f106116c557805160ff19168380011785556116f3565b828001600101855582156116f3579182015b828111156116f25782518255916020019190600101906116d7565b5b5090506117009190611704565b5090565b5b8082111561171d576000816000905550600101611705565b5090565b600061173461172f8461222d565b6121fc565b9050808382526020820190508285602086028201111561175357600080fd5b60005b858110156117835781611769888261185e565b845260208401935060208301925050600181019050611756565b5050509392505050565b60006117a061179b84612259565b6121fc565b9050828152602081018484840111156117b857600080fd5b6117c3848285612379565b509392505050565b6000813590506117da816123d8565b92915050565b600082601f8301126117f157600080fd5b8135611801848260208601611721565b91505092915050565b600081359050611819816123ef565b92915050565b60008151905061182e81612406565b92915050565b600082601f83011261184557600080fd5b813561185584826020860161178d565b91505092915050565b60008135905061186d8161241d565b92915050565b60008135905061188281612434565b92915050565b60008060008060008060c087890312156118a157600080fd5b60006118af89828a016117cb565b96505060206118c089828a0161185e565b95505060406118d189828a0161185e565b94505060606118e289828a01611873565b93505060806118f389828a0161180a565b92505060a061190489828a0161180a565b9150509295509295509295565b600080600080600060a0868803121561192957600080fd5b600086013567ffffffffffffffff81111561194357600080fd5b61194f888289016117e0565b955050602086013567ffffffffffffffff81111561196c57600080fd5b61197888828901611834565b945050604061198988828901611873565b935050606061199a8882890161180a565b92505060806119ab8882890161180a565b9150509295509295909350565b6000602082840312156119ca57600080fd5b60006119d88482850161181f565b91505092915050565b600080600080600060a086880312156119f957600080fd5b6000611a078882890161185e565b955050602086013567ffffffffffffffff811115611a2457600080fd5b611a3088828901611834565b9450506040611a4188828901611873565b9350506060611a528882890161180a565b9250506080611a638882890161180a565b9150509295509295909350565b6000611a7c8383611eac565b60208301905092915050565b611a91816122fa565b82525050565b6000611aa282612299565b611aac81856122bc565b9350611ab783612289565b8060005b83811015611ae8578151611acf8882611a70565b9750611ada836122af565b925050600181019050611abb565b5085935050505092915050565b611afe8161230c565b82525050565b611b15611b108261230c565b6123bb565b82525050565b6000611b26826122a4565b611b3081856122cd565b9350611b40818560208601612388565b611b49816123c7565b840191505092915050565b6000611b616034836122de565b91507f455243313135353a207472616e7366657220746f206e6f6e204552433131353560008301527f526563656976657220696d706c656d656e7465720000000000000000000000006020830152604082019050919050565b6000611bc76015836122de565b91507f5175616c6c612f696e76616c69642d7065726d697400000000000000000000006000830152602082019050919050565b6000611c076028836122de565b91507f455243313135353a204552433131353552656365697665722072656a6563746560008301527f6420746f6b656e730000000000000000000000000000000000000000000000006020830152604082019050919050565b6000611c6d6013836122de565b91507f5175616c6c612f496e76616c69642055736572000000000000000000000000006000830152602082019050919050565b6000611cad6017836122de565b91507f5175616c6c612f416c72656164792052656465656d65640000000000000000006000830152602082019050919050565b6000611ced6002836122ef565b91507f19010000000000000000000000000000000000000000000000000000000000006000830152600282019050919050565b6000611d2d6018836122de565b91507f5175616c6c612f496e76616c6964206d696e747374616d7000000000000000006000830152602082019050919050565b6000611d6d6016836122de565b91507f5175616c6c612f496e76616c69642043726561746f72000000000000000000006000830152602082019050919050565b6000611dad6015836122de565b91507f5175616c6c612f496e76616c69642052656465656d00000000000000000000006000830152602082019050919050565b6000611ded6023836122de565b91507f455243313135353a206275726e2066726f6d20746865207a65726f206164647260008301527f65737300000000000000000000000000000000000000000000000000000000006020830152604082019050919050565b6000611e536021836122de565b91507f455243313135353a206d696e7420746f20746865207a65726f2061646472657360008301527f73000000000000000000000000000000000000000000000000000000000000006020830152604082019050919050565b611eb581612362565b82525050565b611ec481612362565b82525050565b611ed38161236c565b82525050565b6000611ee482611ce0565b9150611ef08285611b04565b602082019150611f008284611b04565b6020820191508190509392505050565b600060a082019050611f256000830188611a88565b611f326020830187611a88565b8181036040830152611f448186611a97565b90508181036060830152611f588185611a97565b90508181036080830152611f6c8184611b1b565b90509695505050505050565b600060a082019050611f8d6000830188611a88565b611f9a6020830187611a88565b611fa76040830186611ebb565b611fb46060830185611ebb565b8181036080830152611fc68184611b1b565b90509695505050505050565b60006040820190508181036000830152611fec8185611a97565b905081810360208301526120008184611a97565b90509392505050565b600060808201905061201e6000830187611af5565b61202b6020830186611a88565b6120386040830185611ebb565b6120456060830184611af5565b95945050505050565b60006080820190506120636000830187611af5565b6120706020830186611eca565b61207d6040830185611af5565b61208a6060830184611af5565b95945050505050565b600060208201905081810360008301526120ac81611b54565b9050919050565b600060208201905081810360008301526120cc81611bba565b9050919050565b600060208201905081810360008301526120ec81611bfa565b9050919050565b6000602082019050818103600083015261210c81611c60565b9050919050565b6000602082019050818103600083015261212c81611ca0565b9050919050565b6000602082019050818103600083015261214c81611d20565b9050919050565b6000602082019050818103600083015261216c81611d60565b9050919050565b6000602082019050818103600083015261218c81611da0565b9050919050565b600060208201905081810360008301526121ac81611de0565b9050919050565b600060208201905081810360008301526121cc81611e46565b9050919050565b60006040820190506121e86000830185611ebb565b6121f56020830184611ebb565b9392505050565b6000604051905081810181811067ffffffffffffffff82111715612223576122226123c5565b5b8060405250919050565b600067ffffffffffffffff821115612248576122476123c5565b5b602082029050602081019050919050565b600067ffffffffffffffff821115612274576122736123c5565b5b601f19601f8301169050602081019050919050565b6000819050602082019050919050565b600081519050919050565b600081519050919050565b6000602082019050919050565b600082825260208201905092915050565b600082825260208201905092915050565b600082825260208201905092915050565b600081905092915050565b600061230582612342565b9050919050565b6000819050919050565b60007fffffffff0000000000000000000000000000000000000000000000000000000082169050919050565b600073ffffffffffffffffffffffffffffffffffffffff82169050919050565b6000819050919050565b600060ff82169050919050565b82818337600083830152505050565b60005b838110156123a657808201518184015260208101905061238b565b838111156123b5576000848401525b50505050565b6000819050919050565bfe5b6000601f19601f8301169050919050565b6123e1816122fa565b81146123ec57600080fd5b50565b6123f88161230c565b811461240357600080fd5b50565b61240f81612316565b811461241a57600080fd5b50565b61242681612362565b811461243157600080fd5b50565b61243d8161236c565b811461244857600080fd5b5056fe455243313135353a206275726e20616d6f756e7420657863656564732062616c616e6365a26469706673582212205a84a190086a9656823ce32713644c48e19bc5f01e9b72c9f8015eaacf24080464736f6c63430007060033",
  "linkReferences": {},
  "deployedLinkReferences": {}
}