{
  "_format": "hh-sol-artifact-1",
  "contractName": "ERC1155Facet",
  "sourceName": "contracts/facets/ERC1155Factet.sol",
  "abi": [
    {
      "anonymous": false,
      "inputs": [
        {
          "indexed": true,
          "internalType": "address",
          "name": "account",
          "type": "address"
        },
        {
          "indexed": true,
          "internalType": "address",
          "name": "operator",
          "type": "address"
        },
        {
          "indexed": false,
          "internalType": "bool",
          "name": "approved",
          "type": "bool"
        }
      ],
      "name": "ApprovalForAll",
      "type": "event"
    },
    {
      "anonymous": false,
      "inputs": [
        {
          "indexed": true,
          "internalType": "address",
          "name": "operator",
          "type": "address"
        },
        {
          "indexed": true,
          "internalType": "address",
          "name": "from",
          "type": "address"
        },
        {
          "indexed": true,
          "internalType": "address",
          "name": "to",
          "type": "address"
        },
        {
          "indexed": false,
          "internalType": "uint256[]",
          "name": "ids",
          "type": "uint256[]"
        },
        {
          "indexed": false,
          "internalType": "uint256[]",
          "name": "values",
          "type": "uint256[]"
        }
      ],
      "name": "TransferBatch",
      "type": "event"
    },
    {
      "anonymous": false,
      "inputs": [
        {
          "indexed": true,
          "internalType": "address",
          "name": "operator",
          "type": "address"
        },
        {
          "indexed": true,
          "internalType": "address",
          "name": "from",
          "type": "address"
        },
        {
          "indexed": true,
          "internalType": "address",
          "name": "to",
          "type": "address"
        },
        {
          "indexed": false,
          "internalType": "uint256",
          "name": "id",
          "type": "uint256"
        },
        {
          "indexed": false,
          "internalType": "uint256",
          "name": "value",
          "type": "uint256"
        }
      ],
      "name": "TransferSingle",
      "type": "event"
    },
    {
      "anonymous": false,
      "inputs": [
        {
          "indexed": false,
          "internalType": "string",
          "name": "value",
          "type": "string"
        },
        {
          "indexed": true,
          "internalType": "uint256",
          "name": "id",
          "type": "uint256"
        }
      ],
      "name": "URI",
      "type": "event"
    },
    {
      "inputs": [
        {
          "internalType": "address",
          "name": "account",
          "type": "address"
        },
        {
          "internalType": "uint256",
          "name": "id",
          "type": "uint256"
        }
      ],
      "name": "balanceOf",
      "outputs": [
        {
          "internalType": "uint256",
          "name": "",
          "type": "uint256"
        }
      ],
      "stateMutability": "view",
      "type": "function"
    },
    {
      "inputs": [
        {
          "internalType": "address[]",
          "name": "accounts",
          "type": "address[]"
        },
        {
          "internalType": "uint256[]",
          "name": "ids",
          "type": "uint256[]"
        }
      ],
      "name": "balanceOfBatch",
      "outputs": [
        {
          "internalType": "uint256[]",
          "name": "",
          "type": "uint256[]"
        }
      ],
      "stateMutability": "view",
      "type": "function"
    },
    {
      "inputs": [
        {
          "internalType": "address",
          "name": "account",
          "type": "address"
        },
        {
          "internalType": "address",
          "name": "operator",
          "type": "address"
        }
      ],
      "name": "isApprovedForAll",
      "outputs": [
        {
          "internalType": "bool",
          "name": "",
          "type": "bool"
        }
      ],
      "stateMutability": "view",
      "type": "function"
    },
    {
      "inputs": [
        {
          "internalType": "address",
          "name": "from",
          "type": "address"
        },
        {
          "internalType": "address",
          "name": "to",
          "type": "address"
        },
        {
          "internalType": "uint256[]",
          "name": "ids",
          "type": "uint256[]"
        },
        {
          "internalType": "uint256[]",
          "name": "amounts",
          "type": "uint256[]"
        },
        {
          "internalType": "bytes",
          "name": "data",
          "type": "bytes"
        }
      ],
      "name": "safeBatchTransferFrom",
      "outputs": [],
      "stateMutability": "nonpayable",
      "type": "function"
    },
    {
      "inputs": [
        {
          "internalType": "address",
          "name": "from",
          "type": "address"
        },
        {
          "internalType": "address",
          "name": "to",
          "type": "address"
        },
        {
          "internalType": "uint256",
          "name": "id",
          "type": "uint256"
        },
        {
          "internalType": "uint256",
          "name": "amount",
          "type": "uint256"
        },
        {
          "internalType": "bytes",
          "name": "data",
          "type": "bytes"
        }
      ],
      "name": "safeTransferFrom",
      "outputs": [],
      "stateMutability": "nonpayable",
      "type": "function"
    },
    {
      "inputs": [
        {
          "internalType": "address",
          "name": "operator",
          "type": "address"
        },
        {
          "internalType": "bool",
          "name": "approved",
          "type": "bool"
        }
      ],
      "name": "setApprovalForAll",
      "outputs": [],
      "stateMutability": "nonpayable",
      "type": "function"
    }
  ],
  "bytecode": "0x608060405234801561001057600080fd5b50611f4e806100206000396000f3fe608060405234801561001057600080fd5b50600436106100615760003560e01c8062fdd58e146100665780632eb2c2d6146100965780634e1273f4146100b2578063a22cb465146100e2578063e985e9c5146100fe578063f242432a1461012e575b600080fd5b610080600480360381019061007b9190611514565b61014a565b60405161008d9190611d21565b60405180910390f35b6100b060048036038101906100ab919061137a565b6101b3565b005b6100cc60048036038101906100c79190611550565b610659565b6040516100d99190611bc4565b60405180910390f35b6100fc60048036038101906100f791906114d8565b610851565b005b6101186004803603810190610113919061133e565b6109e1565b6040516101259190611be6565b60405180910390f35b61014860048036038101906101439190611446565b610a83565b005b600080610155610e02565b905080600001600084815260200190815260200160002060008573ffffffffffffffffffffffffffffffffffffffff1673ffffffffffffffffffffffffffffffffffffffff1681526020019081526020016000205491505092915050565b8383905086869050146101fb576040517f08c379a00000000000000000000000000000000000000000000000000000000081526004016101f290611d01565b60405180910390fd5b600073ffffffffffffffffffffffffffffffffffffffff168773ffffffffffffffffffffffffffffffffffffffff16141561026b576040517f08c379a000000000000000000000000000000000000000000000000000000000815260040161026290611c81565b60405180910390fd5b610273610e2f565b73ffffffffffffffffffffffffffffffffffffffff168873ffffffffffffffffffffffffffffffffffffffff1614806102b957506102b8886102b3610e2f565b6109e1565b5b6102f8576040517f08c379a00000000000000000000000000000000000000000000000000000000081526004016102ef90611ca1565b60405180910390fd5b6000610302610e02565b905060005b878790508110156104e957600088888381811061032057fe5b9050602002013590506103ba87878481811061033857fe5b905060200201356040518060600160405280602a8152602001611eef602a913985600001600085815260200190815260200160002060008f73ffffffffffffffffffffffffffffffffffffffff1673ffffffffffffffffffffffffffffffffffffffff16815260200190815260200160002054610e379092919063ffffffff16565b83600001600083815260200190815260200160002060008d73ffffffffffffffffffffffffffffffffffffffff1673ffffffffffffffffffffffffffffffffffffffff1681526020019081526020016000208190555061048787878481811061041f57fe5b9050602002013584600001600084815260200190815260200160002060008d73ffffffffffffffffffffffffffffffffffffffff1673ffffffffffffffffffffffffffffffffffffffff16815260200190815260200160002054610ef790919063ffffffff16565b83600001600083815260200190815260200160002060008c73ffffffffffffffffffffffffffffffffffffffff1673ffffffffffffffffffffffffffffffffffffffff1681526020019081526020016000208190555050806001019050610307565b508773ffffffffffffffffffffffffffffffffffffffff168973ffffffffffffffffffffffffffffffffffffffff16610520610e2f565b73ffffffffffffffffffffffffffffffffffffffff167f4a39dc06d4c0dbc64b70af90fd698a233a518aa5d07e595d983b8c0526c8f7fb8a8a8a8a60405161056b9493929190611b89565b60405180910390a461064e61057e610e2f565b8a8a8a8a80806020026020016040519081016040528093929190818152602001838360200280828437600081840152601f19601f82011690508083019250505050505050898980806020026020016040519081016040528093929190818152602001838360200280828437600081840152601f19601f8201169050808301925050505050505088888080601f016020809104026020016040519081016040528093929190818152602001838380828437600081840152601f19601f82011690508083019250505050505050610f7f565b505050505050505050565b60608282905085859050146106a3576040517f08c379a000000000000000000000000000000000000000000000000000000000815260040161069a90611ce1565b60405180910390fd5b60006106ad610e02565b905060008686905067ffffffffffffffff811180156106cb57600080fd5b506040519080825280602002602001820160405280156106fa5781602001602082028036833780820191505090505b50905060005b8787905081101561084357600073ffffffffffffffffffffffffffffffffffffffff1688888381811061072f57fe5b90506020020160208101906107449190611315565b73ffffffffffffffffffffffffffffffffffffffff16141561079b576040517f08c379a000000000000000000000000000000000000000000000000000000000815260040161079290611c41565b60405180910390fd5b8260000160008787848181106107ad57fe5b90506020020135815260200190815260200160002060008989848181106107d057fe5b90506020020160208101906107e59190611315565b73ffffffffffffffffffffffffffffffffffffffff1673ffffffffffffffffffffffffffffffffffffffff1681526020019081526020016000205482828151811061082c57fe5b602002602001018181525050806001019050610700565b508092505050949350505050565b8173ffffffffffffffffffffffffffffffffffffffff16610870610e2f565b73ffffffffffffffffffffffffffffffffffffffff1614156108c7576040517f08c379a00000000000000000000000000000000000000000000000000000000081526004016108be90611cc1565b60405180910390fd5b60006108d1610e02565b9050818160010160006108e2610e2f565b73ffffffffffffffffffffffffffffffffffffffff1673ffffffffffffffffffffffffffffffffffffffff16815260200190815260200160002060008573ffffffffffffffffffffffffffffffffffffffff1673ffffffffffffffffffffffffffffffffffffffff16815260200190815260200160002060006101000a81548160ff0219169083151502179055508273ffffffffffffffffffffffffffffffffffffffff1661098f610e2f565b73ffffffffffffffffffffffffffffffffffffffff167f17307eab39ab6107e8899845ad3d59bd9653f200f220920489ca2b5937696c31846040516109d49190611be6565b60405180910390a3505050565b6000806109ec610e02565b90508060010160008573ffffffffffffffffffffffffffffffffffffffff1673ffffffffffffffffffffffffffffffffffffffff16815260200190815260200160002060008473ffffffffffffffffffffffffffffffffffffffff1673ffffffffffffffffffffffffffffffffffffffff16815260200190815260200160002060009054906101000a900460ff1691505092915050565b600073ffffffffffffffffffffffffffffffffffffffff168573ffffffffffffffffffffffffffffffffffffffff161415610af3576040517f08c379a0000000000000000000000000000000000000000000000000000000008152600401610aea90611c81565b60405180910390fd5b610afb610e2f565b73ffffffffffffffffffffffffffffffffffffffff168673ffffffffffffffffffffffffffffffffffffffff161480610b415750610b4086610b3b610e2f565b6109e1565b5b610b80576040517f08c379a0000000000000000000000000000000000000000000000000000000008152600401610b7790611c61565b60405180910390fd5b6000610b8a610e02565b90506000610b96610e2f565b9050610c17856040518060600160405280602a8152602001611eef602a91398460000160008a815260200190815260200160002060008c73ffffffffffffffffffffffffffffffffffffffff1673ffffffffffffffffffffffffffffffffffffffff16815260200190815260200160002054610e379092919063ffffffff16565b82600001600088815260200190815260200160002060008a73ffffffffffffffffffffffffffffffffffffffff1673ffffffffffffffffffffffffffffffffffffffff16815260200190815260200160002081905550610cd28583600001600089815260200190815260200160002060008a73ffffffffffffffffffffffffffffffffffffffff1673ffffffffffffffffffffffffffffffffffffffff16815260200190815260200160002054610ef790919063ffffffff16565b82600001600088815260200190815260200160002060008973ffffffffffffffffffffffffffffffffffffffff1673ffffffffffffffffffffffffffffffffffffffff168152602001908152602001600020819055508673ffffffffffffffffffffffffffffffffffffffff168873ffffffffffffffffffffffffffffffffffffffff168273ffffffffffffffffffffffffffffffffffffffff167fc3d58168c5ae7397731d063d5bbf3d657854427343f4c083240f7aacaa2d0f628989604051610d9e929190611d3c565b60405180910390a4610df8818989898989898080601f016020809104026020016040519081016040528093929190818152602001838380828437600081840152601f19601f820116905080830192505050505050506110b1565b5050505050505050565b6000807fd1fd1ec9eb6f457e5e32da0d2921ff6daf7fd2085ec060a076b391ca2400b28290508091505090565b600033905090565b6000838311158290610ee4576040517f08c379a00000000000000000000000000000000000000000000000000000000081526004018080602001828103825283818151815260200191508051906020019080838360005b83811015610ea9578082015181840152602081019050610e8e565b50505050905090810190601f168015610ed65780820380516001836020036101000a031916815260200191505b509250505060405180910390fd5b5060008385039050809150509392505050565b600080828401905083811015610f75576040517f08c379a000000000000000000000000000000000000000000000000000000000815260040180806020018281038252601b8152602001807f536166654d6174683a206164646974696f6e206f766572666c6f77000000000081525060200191505060405180910390fd5b8091505092915050565b6000843b905060008111156110a8578473ffffffffffffffffffffffffffffffffffffffff1663bc197c8188888787876040518663ffffffff1660e01b8152600401610fcf959493929190611ac7565b602060405180830381600087803b158015610fe957600080fd5b505af1158015610ffd573d6000803e3d6000fd5b505050506040513d601f19601f8201168201806040525081019061102191906115c5565b7bffffffffffffffffffffffffffffffffffffffffffffffffffffffff191663bc197c8160e01b7bffffffffffffffffffffffffffffffffffffffffffffffffffffffff1916146110a7576040517f08c379a000000000000000000000000000000000000000000000000000000000815260040161109e90611c21565b60405180910390fd5b5b50505050505050565b6000843b905060008111156111da578473ffffffffffffffffffffffffffffffffffffffff1663f23a6e6188888787876040518663ffffffff1660e01b8152600401611101959493929190611b2f565b602060405180830381600087803b15801561111b57600080fd5b505af115801561112f573d6000803e3d6000fd5b505050506040513d601f19601f8201168201806040525081019061115391906115c5565b7bffffffffffffffffffffffffffffffffffffffffffffffffffffffff191663f23a6e6160e01b7bffffffffffffffffffffffffffffffffffffffffffffffffffffffff1916146111d9576040517f08c379a00000000000000000000000000000000000000000000000000000000081526004016111d090611c01565b60405180910390fd5b5b50505050505050565b6000813590506111f281611e92565b92915050565b60008083601f84011261120a57600080fd5b8235905067ffffffffffffffff81111561122357600080fd5b60208301915083602082028301111561123b57600080fd5b9250929050565b60008083601f84011261125457600080fd5b8235905067ffffffffffffffff81111561126d57600080fd5b60208301915083602082028301111561128557600080fd5b9250929050565b60008135905061129b81611ea9565b92915050565b6000815190506112b081611ec0565b92915050565b60008083601f8401126112c857600080fd5b8235905067ffffffffffffffff8111156112e157600080fd5b6020830191508360018202830111156112f957600080fd5b9250929050565b60008135905061130f81611ed7565b92915050565b60006020828403121561132757600080fd5b6000611335848285016111e3565b91505092915050565b6000806040838503121561135157600080fd5b600061135f858286016111e3565b9250506020611370858286016111e3565b9150509250929050565b60008060008060008060008060a0898b03121561139657600080fd5b60006113a48b828c016111e3565b98505060206113b58b828c016111e3565b975050604089013567ffffffffffffffff8111156113d257600080fd5b6113de8b828c01611242565b9650965050606089013567ffffffffffffffff8111156113fd57600080fd5b6114098b828c01611242565b9450945050608089013567ffffffffffffffff81111561142857600080fd5b6114348b828c016112b6565b92509250509295985092959890939650565b60008060008060008060a0878903121561145f57600080fd5b600061146d89828a016111e3565b965050602061147e89828a016111e3565b955050604061148f89828a01611300565b94505060606114a089828a01611300565b935050608087013567ffffffffffffffff8111156114bd57600080fd5b6114c989828a016112b6565b92509250509295509295509295565b600080604083850312156114eb57600080fd5b60006114f9858286016111e3565b925050602061150a8582860161128c565b9150509250929050565b6000806040838503121561152757600080fd5b6000611535858286016111e3565b925050602061154685828601611300565b9150509250929050565b6000806000806040858703121561156657600080fd5b600085013567ffffffffffffffff81111561158057600080fd5b61158c878288016111f8565b9450945050602085013567ffffffffffffffff8111156115ab57600080fd5b6115b787828801611242565b925092505092959194509250565b6000602082840312156115d757600080fd5b60006115e5848285016112a1565b91505092915050565b60006115fa8383611aa9565b60208301905092915050565b61160f81611dcb565b82525050565b60006116218385611d98565b93507f07ffffffffffffffffffffffffffffffffffffffffffffffffffffffffffffff83111561165057600080fd5b602083029250611661838584611e3f565b82840190509392505050565b600061167882611d75565b6116828185611d98565b935061168d83611d65565b8060005b838110156116be5781516116a588826115ee565b97506116b083611d8b565b925050600181019050611691565b5085935050505092915050565b6116d481611ddd565b82525050565b60006116e582611d80565b6116ef8185611da9565b93506116ff818560208601611e4e565b61170881611e81565b840191505092915050565b6000611720603483611dba565b91507f455243313135353a207472616e7366657220746f206e6f6e204552433131353560008301527f526563656976657220696d706c656d656e7465720000000000000000000000006020830152604082019050919050565b6000611786602883611dba565b91507f455243313135353a204552433131353552656365697665722072656a6563746560008301527f6420746f6b656e730000000000000000000000000000000000000000000000006020830152604082019050919050565b60006117ec603183611dba565b91507f455243313135353a2062617463682062616c616e636520717565727920666f7260008301527f20746865207a65726f20616464726573730000000000000000000000000000006020830152604082019050919050565b6000611852602983611dba565b91507f455243313135353a2063616c6c6572206973206e6f74206f776e6572206e6f7260008301527f20617070726f76656400000000000000000000000000000000000000000000006020830152604082019050919050565b60006118b8602583611dba565b91507f455243313135353a207472616e7366657220746f20746865207a65726f20616460008301527f64726573730000000000000000000000000000000000000000000000000000006020830152604082019050919050565b600061191e603283611dba565b91507f455243313135353a207472616e736665722063616c6c6572206973206e6f742060008301527f6f776e6572206e6f7220617070726f76656400000000000000000000000000006020830152604082019050919050565b6000611984602983611dba565b91507f455243313135353a2073657474696e6720617070726f76616c2073746174757360008301527f20666f722073656c6600000000000000000000000000000000000000000000006020830152604082019050919050565b60006119ea602983611dba565b91507f455243313135353a206163636f756e747320616e6420696473206c656e67746860008301527f206d69736d6174636800000000000000000000000000000000000000000000006020830152604082019050919050565b6000611a50602883611dba565b91507f455243313135353a2069647320616e6420616d6f756e7473206c656e6774682060008301527f6d69736d617463680000000000000000000000000000000000000000000000006020830152604082019050919050565b611ab281611e35565b82525050565b611ac181611e35565b82525050565b600060a082019050611adc6000830188611606565b611ae96020830187611606565b8181036040830152611afb818661166d565b90508181036060830152611b0f818561166d565b90508181036080830152611b2381846116da565b90509695505050505050565b600060a082019050611b446000830188611606565b611b516020830187611606565b611b5e6040830186611ab8565b611b6b6060830185611ab8565b8181036080830152611b7d81846116da565b90509695505050505050565b60006040820190508181036000830152611ba4818688611615565b90508181036020830152611bb9818486611615565b905095945050505050565b60006020820190508181036000830152611bde818461166d565b905092915050565b6000602082019050611bfb60008301846116cb565b92915050565b60006020820190508181036000830152611c1a81611713565b9050919050565b60006020820190508181036000830152611c3a81611779565b9050919050565b60006020820190508181036000830152611c5a816117df565b9050919050565b60006020820190508181036000830152611c7a81611845565b9050919050565b60006020820190508181036000830152611c9a816118ab565b9050919050565b60006020820190508181036000830152611cba81611911565b9050919050565b60006020820190508181036000830152611cda81611977565b9050919050565b60006020820190508181036000830152611cfa816119dd565b9050919050565b60006020820190508181036000830152611d1a81611a43565b9050919050565b6000602082019050611d366000830184611ab8565b92915050565b6000604082019050611d516000830185611ab8565b611d5e6020830184611ab8565b9392505050565b6000819050602082019050919050565b600081519050919050565b600081519050919050565b6000602082019050919050565b600082825260208201905092915050565b600082825260208201905092915050565b600082825260208201905092915050565b6000611dd682611e15565b9050919050565b60008115159050919050565b60007fffffffff0000000000000000000000000000000000000000000000000000000082169050919050565b600073ffffffffffffffffffffffffffffffffffffffff82169050919050565b6000819050919050565b82818337600083830152505050565b60005b83811015611e6c578082015181840152602081019050611e51565b83811115611e7b576000848401525b50505050565b6000601f19601f8301169050919050565b611e9b81611dcb565b8114611ea657600080fd5b50565b611eb281611ddd565b8114611ebd57600080fd5b50565b611ec981611de9565b8114611ed457600080fd5b50565b611ee081611e35565b8114611eeb57600080fd5b5056fe455243313135353a20696e73756666696369656e742062616c616e636520666f72207472616e73666572a2646970667358221220db53bf03717eb827cc10a136e5e4635bddf9f57094ce038f1e1bc0fed203cf1164736f6c63430007060033",
  "linkReferences": {},
  "deployedLinkReferences": {}
}