{
  "contractName": "SubscriptionFactory",
  "abi": [
    {
      "inputs": [
        {
          "internalType": "uint8",
          "name": "_fee",
          "type": "uint8"
        }
      ],
      "stateMutability": "nonpayable",
      "type": "constructor"
    },
    {
      "anonymous": false,
      "inputs": [
        {
          "indexed": false,
          "internalType": "address",
          "name": "master",
          "type": "address"
        },
        {
          "indexed": false,
          "internalType": "uint8",
          "name": "fee",
          "type": "uint8"
        }
      ],
      "name": "factoryModified",
      "type": "event"
    },
    {
      "anonymous": false,
      "inputs": [
        {
          "indexed": true,
          "internalType": "address",
          "name": "publisher",
          "type": "address"
        },
        {
          "indexed": false,
          "internalType": "address",
          "name": "subscription",
          "type": "address"
        },
        {
          "indexed": false,
          "internalType": "address[]",
          "name": "paymentTokens",
          "type": "address[]"
        },
        {
          "indexed": false,
          "internalType": "uint256[]",
          "name": "acceptedValues",
          "type": "uint256[]"
        }
      ],
      "name": "subscriptionCreated",
      "type": "event"
    },
    {
      "inputs": [
        {
          "internalType": "uint256",
          "name": "",
          "type": "uint256"
        }
      ],
      "name": "allSubscriptions",
      "outputs": [
        {
          "internalType": "address",
          "name": "",
          "type": "address"
        }
      ],
      "stateMutability": "view",
      "type": "function",
      "constant": true
    },
    {
      "inputs": [],
      "name": "fee",
      "outputs": [
        {
          "internalType": "uint8",
          "name": "",
          "type": "uint8"
        }
      ],
      "stateMutability": "view",
      "type": "function",
      "constant": true
    },
    {
      "inputs": [
        {
          "internalType": "address",
          "name": "",
          "type": "address"
        }
      ],
      "name": "getSubscription",
      "outputs": [
        {
          "internalType": "address",
          "name": "",
          "type": "address"
        }
      ],
      "stateMutability": "view",
      "type": "function",
      "constant": true
    },
    {
      "inputs": [],
      "name": "master",
      "outputs": [
        {
          "internalType": "address",
          "name": "",
          "type": "address"
        }
      ],
      "stateMutability": "view",
      "type": "function",
      "constant": true
    },
    {
      "inputs": [],
      "name": "allSubscriptionsLength",
      "outputs": [
        {
          "internalType": "uint256",
          "name": "",
          "type": "uint256"
        }
      ],
      "stateMutability": "view",
      "type": "function",
      "constant": true
    },
    {
      "inputs": [
        {
          "internalType": "address",
          "name": "publisher",
          "type": "address"
        },
        {
          "internalType": "address[]",
          "name": "paymentTokens",
          "type": "address[]"
        },
        {
          "internalType": "uint256[]",
          "name": "acceptedValues",
          "type": "uint256[]"
        }
      ],
      "name": "createSubscription",
      "outputs": [
        {
          "internalType": "address payable",
          "name": "subscription",
          "type": "address"
        }
      ],
      "stateMutability": "nonpayable",
      "type": "function"
    },
    {
      "inputs": [
        {
          "internalType": "uint8",
          "name": "_fee",
          "type": "uint8"
        }
      ],
      "name": "setFee",
      "outputs": [],
      "stateMutability": "nonpayable",
      "type": "function"
    },
    {
      "inputs": [
        {
          "internalType": "address",
          "name": "_master",
          "type": "address"
        }
      ],
      "name": "setMaster",
      "outputs": [],
      "stateMutability": "nonpayable",
      "type": "function"
    }
  ],
  "bytecode": "0x608060405234801561001057600080fd5b50604051614f38380380614f388339818101604052602081101561003357600080fd5b8101908080519060200190929190505050336000806101000a81548173ffffffffffffffffffffffffffffffffffffffff021916908373ffffffffffffffffffffffffffffffffffffffff16021790555080600060146101000a81548160ff021916908360ff1602179055507ff4bad58701ef044474159b96a4b3167cdbfcebd8efbc326b4070f2721dae2d9060008054906101000a900473ffffffffffffffffffffffffffffffffffffffff16600060149054906101000a900460ff16604051808373ffffffffffffffffffffffffffffffffffffffff1681526020018260ff1681526020019250505060405180910390a150614e02806101366000396000f3fe608060405234801561001057600080fd5b50600436106100885760003560e01c8063cb122a091161005b578063cb122a09146101b5578063ddca3f43146101e6578063ee1ba4f014610207578063ee97f7f31461039d57610088565b80630cbebc241461008d57806326fae0d3146100fb5780634f95bcb61461013f5780637bec44ac14610197575b600080fd5b6100cf600480360360208110156100a357600080fd5b81019080803573ffffffffffffffffffffffffffffffffffffffff1690602001909291905050506103d1565b604051808273ffffffffffffffffffffffffffffffffffffffff16815260200191505060405180910390f35b61013d6004803603602081101561011157600080fd5b81019080803573ffffffffffffffffffffffffffffffffffffffff169060200190929190505050610404565b005b61016b6004803603602081101561015557600080fd5b810190808035906020019092919050505061058f565b604051808273ffffffffffffffffffffffffffffffffffffffff16815260200191505060405180910390f35b61019f6105cb565b6040518082815260200191505060405180910390f35b6101e4600480360360208110156101cb57600080fd5b81019080803560ff1690602001909291905050506105d8565b005b6101ee6107c8565b604051808260ff16815260200191505060405180910390f35b6103716004803603606081101561021d57600080fd5b81019080803573ffffffffffffffffffffffffffffffffffffffff1690602001909291908035906020019064010000000081111561025a57600080fd5b82018360208201111561026c57600080fd5b8035906020019184602083028401116401000000008311171561028e57600080fd5b919080806020026020016040519081016040528093929190818152602001838360200280828437600081840152601f19601f820116905080830192505050505050509192919290803590602001906401000000008111156102ee57600080fd5b82018360208201111561030057600080fd5b8035906020019184602083028401116401000000008311171561032257600080fd5b919080806020026020016040519081016040528093929190818152602001838360200280828437600081840152601f19601f8201169050808301925050505050505091929192905050506107db565b604051808273ffffffffffffffffffffffffffffffffffffffff16815260200191505060405180910390f35b6103a5610c48565b604051808273ffffffffffffffffffffffffffffffffffffffff16815260200191505060405180910390f35b60026020528060005260406000206000915054906101000a900473ffffffffffffffffffffffffffffffffffffffff1681565b60008054906101000a900473ffffffffffffffffffffffffffffffffffffffff1673ffffffffffffffffffffffffffffffffffffffff163373ffffffffffffffffffffffffffffffffffffffff16146104c5576040517f08c379a00000000000000000000000000000000000000000000000000000000081526004018080602001828103825260098152602001807f464f5242494444454e000000000000000000000000000000000000000000000081525060200191505060405180910390fd5b806000806101000a81548173ffffffffffffffffffffffffffffffffffffffff021916908373ffffffffffffffffffffffffffffffffffffffff1602179055507ff4bad58701ef044474159b96a4b3167cdbfcebd8efbc326b4070f2721dae2d9060008054906101000a900473ffffffffffffffffffffffffffffffffffffffff16600060149054906101000a900460ff16604051808373ffffffffffffffffffffffffffffffffffffffff1681526020018260ff1681526020019250505060405180910390a150565b6001818154811061059c57fe5b906000526020600020016000915054906101000a900473ffffffffffffffffffffffffffffffffffffffff1681565b6000600180549050905090565b60008054906101000a900473ffffffffffffffffffffffffffffffffffffffff1673ffffffffffffffffffffffffffffffffffffffff163373ffffffffffffffffffffffffffffffffffffffff1614610699576040517f08c379a00000000000000000000000000000000000000000000000000000000081526004018080602001828103825260098152602001807f464f5242494444454e000000000000000000000000000000000000000000000081525060200191505060405180910390fd5b600060149054906101000a900460ff1660ff168160ff1610610723576040517f08c379a00000000000000000000000000000000000000000000000000000000081526004018080602001828103825260148152602001807f494e56414c49442046454520494e43524541534500000000000000000000000081525060200191505060405180910390fd5b80600060146101000a81548160ff021916908360ff1602179055507ff4bad58701ef044474159b96a4b3167cdbfcebd8efbc326b4070f2721dae2d9060008054906101000a900473ffffffffffffffffffffffffffffffffffffffff16600060149054906101000a900460ff16604051808373ffffffffffffffffffffffffffffffffffffffff1681526020018260ff1681526020019250505060405180910390a150565b600060149054906101000a900460ff1681565b60008073ffffffffffffffffffffffffffffffffffffffff16600260008673ffffffffffffffffffffffffffffffffffffffff1673ffffffffffffffffffffffffffffffffffffffff16815260200190815260200160002060009054906101000a900473ffffffffffffffffffffffffffffffffffffffff1673ffffffffffffffffffffffffffffffffffffffff16146108dd576040517f08c379a00000000000000000000000000000000000000000000000000000000081526004018080602001828103825260108152602001807f524550454154205055424c49534845520000000000000000000000000000000081525060200191505060405180910390fd5b6060604051806020016108ef90610c6c565b6020820181038252601f19601f820116604052509050600085604051602001808273ffffffffffffffffffffffffffffffffffffffff1660601b8152601401915050604051602081830303815290604052805190602001209050808251602084016000f592508273ffffffffffffffffffffffffffffffffffffffff1663ff1d57528787876040518463ffffffff1660e01b8152600401808473ffffffffffffffffffffffffffffffffffffffff1681526020018060200180602001838103835285818151815260200191508051906020019060200280838360005b838110156109e65780820151818401526020810190506109cb565b50505050905001838103825284818151815260200191508051906020019060200280838360005b83811015610a28578082015181840152602081019050610a0d565b5050505090500195505050505050600060405180830381600087803b158015610a5057600080fd5b505af1158015610a64573d6000803e3d6000fd5b505050508573ffffffffffffffffffffffffffffffffffffffff167f5ba216eccb04855809218c3016b65a5e452f492053f93e3c07391cf17310f5c1848787604051808473ffffffffffffffffffffffffffffffffffffffff1681526020018060200180602001838103835285818151815260200191508051906020019060200280838360005b83811015610b06578082015181840152602081019050610aeb565b50505050905001838103825284818151815260200191508051906020019060200280838360005b83811015610b48578082015181840152602081019050610b2d565b505050509050019550505050505060405180910390a282600260008873ffffffffffffffffffffffffffffffffffffffff1673ffffffffffffffffffffffffffffffffffffffff16815260200190815260200160002060006101000a81548173ffffffffffffffffffffffffffffffffffffffff021916908373ffffffffffffffffffffffffffffffffffffffff1602179055506001839080600181540180825580915050600190039060005260206000200160009091909190916101000a81548173ffffffffffffffffffffffffffffffffffffffff021916908373ffffffffffffffffffffffffffffffffffffffff16021790555050509392505050565b60008054906101000a900473ffffffffffffffffffffffffffffffffffffffff1681565b61415380610c7a8339019056fe6080604052600060055534801561001557600080fd5b50336000806101000a81548173ffffffffffffffffffffffffffffffffffffffff021916908373ffffffffffffffffffffffffffffffffffffffff1602179055506140ee806100656000396000f3fe60806040526004361061012e5760003560e01c80638c72c54e116100ab578063c6e225d61161006f578063c6e225d614610a83578063de66084114610aea578063e98ce89e14610b4f578063ee86b52914610bf5578063ef5d533114610c20578063ff1d575214610c7157610183565b80638c72c54e14610872578063ac196e4f146108b3578063ad57633014610902578063b7a046f91461092d578063c45a015514610a4257610183565b80633442bb44116100f25780633442bb44146103b75780633ccfd60b146105a75780633f9db3c6146105be57806349cce2ab146106d05780636b037abd1461084757610183565b80630ab7f1ad1461018857806319d7f5f4146102b15780631d09af95146102ec57806325a6e9d21461033b5780633184bd351461036657610183565b36610183573373ffffffffffffffffffffffffffffffffffffffff167f88a5966d370b9919b20f3e2c13ff65706f196a4e32cc2c12bf57088f88525874346040518082815260200191505060405180910390a2005b600080fd5b34801561019457600080fd5b506102af600480360360c08110156101ab57600080fd5b81019080803573ffffffffffffffffffffffffffffffffffffffff16906020019092919080359060200190929190803573ffffffffffffffffffffffffffffffffffffffff169060200190929190803560ff169060200190929190803590602001909291908035906020019064010000000081111561022957600080fd5b82018360208201111561023b57600080fd5b8035906020019184600183028401116401000000008311171561025d57600080fd5b91908080601f016020809104026020016040519081016040528093929190818152602001838380828437600081840152601f19601f820116905080830192505050505050509192919290505050610dea565b005b3480156102bd57600080fd5b506102ea600480360360208110156102d457600080fd5b8101908080359060200190929190505050611604565b005b3480156102f857600080fd5b506103256004803603602081101561030f57600080fd5b810190808035906020019092919050505061175f565b6040518082815260200191505060405180910390f35b34801561034757600080fd5b50610350611777565b6040518082815260200191505060405180910390f35b34801561037257600080fd5b5061039f6004803603602081101561038957600080fd5b8101908080359060200190929190505050611784565b60405180821515815260200191505060405180910390f35b3480156103c357600080fd5b506105a5600480360360608110156103da57600080fd5b81019080803590602001906401000000008111156103f757600080fd5b82018360208201111561040957600080fd5b8035906020019184602083028401116401000000008311171561042b57600080fd5b919080806020026020016040519081016040528093929190818152602001838360200280828437600081840152601f19601f8201169050808301925050505050505091929192908035906020019064010000000081111561048b57600080fd5b82018360208201111561049d57600080fd5b803590602001918460208302840111640100000000831117156104bf57600080fd5b919080806020026020016040519081016040528093929190818152602001838360200280828437600081840152601f19601f8201169050808301925050505050505091929192908035906020019064010000000081111561051f57600080fd5b82018360208201111561053157600080fd5b8035906020019184600183028401116401000000008311171561055357600080fd5b91908080601f016020809104026020016040519081016040528093929190818152602001838380828437600081840152601f19601f8201169050808301925050505050505091929192905050506117a4565b005b3480156105b357600080fd5b506105bc611bf9565b005b3480156105ca57600080fd5b506106ce600480360360808110156105e157600080fd5b81019080803573ffffffffffffffffffffffffffffffffffffffff16906020019092919080359060200190929190803573ffffffffffffffffffffffffffffffffffffffff1690602001909291908035906020019064010000000081111561064857600080fd5b82018360208201111561065a57600080fd5b8035906020019184600183028401116401000000008311171561067c57600080fd5b91908080601f016020809104026020016040519081016040528093929190818152602001838380828437600081840152601f19601f8201169050808301925050505050505091929192905050506122ff565b005b3480156106dc57600080fd5b50610831600480360360608110156106f357600080fd5b810190808035906020019064010000000081111561071057600080fd5b82018360208201111561072257600080fd5b8035906020019184602083028401116401000000008311171561074457600080fd5b919080806020026020016040519081016040528093929190818152602001838360200280828437600081840152601f19601f820116905080830192505050505050509192919290803590602001906401000000008111156107a457600080fd5b8201836020820111156107b657600080fd5b803590602001918460208302840111640100000000831117156107d857600080fd5b919080806020026020016040519081016040528093929190818152602001838360200280828437600081840152601f19601f82011690508083019250505050505050919291929080359060200190929190505050612849565b6040518082815260200191505060405180910390f35b34801561085357600080fd5b5061085c612984565b6040518082815260200191505060405180910390f35b34801561087e57600080fd5b5061088761298a565b604051808273ffffffffffffffffffffffffffffffffffffffff16815260200191505060405180910390f35b3480156108bf57600080fd5b506108ec600480360360208110156108d657600080fd5b81019080803590602001909291905050506129b0565b6040518082815260200191505060405180910390f35b34801561090e57600080fd5b506109176129d1565b6040518082815260200191505060405180910390f35b34801561093957600080fd5b506109666004803603602081101561095057600080fd5b81019080803590602001909291905050506129de565b604051808873ffffffffffffffffffffffffffffffffffffffff1681526020018773ffffffffffffffffffffffffffffffffffffffff1681526020018660038111156109ae57fe5b815260200185815260200184815260200183815260200180602001828103825283818151815260200191508051906020019080838360005b83811015610a015780820151818401526020810190506109e6565b50505050905090810190601f168015610a2e5780820380516001836020036101000a031916815260200191505b509850505050505050505060405180910390f35b348015610a4e57600080fd5b50610a57612b12565b604051808273ffffffffffffffffffffffffffffffffffffffff16815260200191505060405180910390f35b348015610a8f57600080fd5b50610ad260048036036020811015610aa657600080fd5b81019080803573ffffffffffffffffffffffffffffffffffffffff169060200190929190505050612b36565b60405180821515815260200191505060405180910390f35b348015610af657600080fd5b50610b2360048036036020811015610b0d57600080fd5b8101908080359060200190929190505050612b56565b604051808273ffffffffffffffffffffffffffffffffffffffff16815260200191505060405180910390f35b348015610b5b57600080fd5b50610bdf600480360360a0811015610b7257600080fd5b81019080803573ffffffffffffffffffffffffffffffffffffffff16906020019092919080359060200190929190803573ffffffffffffffffffffffffffffffffffffffff16906020019092919080359060200190929190803560ff169060200190929190505050612b92565b6040518082815260200191505060405180910390f35b348015610c0157600080fd5b50610c0a612c82565b6040518082815260200191505060405180910390f35b348015610c2c57600080fd5b50610c5960048036036020811015610c4357600080fd5b8101908080359060200190929190505050612c8f565b60405180821515815260200191505060405180910390f35b348015610c7d57600080fd5b50610de860048036036060811015610c9457600080fd5b81019080803573ffffffffffffffffffffffffffffffffffffffff16906020019092919080359060200190640100000000811115610cd157600080fd5b820183602082011115610ce357600080fd5b80359060200191846020830284011164010000000083111715610d0557600080fd5b919080806020026020016040519081016040528093929190818152602001838360200280828437600081840152601f19601f82011690508083019250505050505050919291929080359060200190640100000000811115610d6557600080fd5b820183602082011115610d7757600080fd5b80359060200191846020830284011164010000000083111715610d9957600080fd5b919080806020026020016040519081016040528093929190818152602001838360200280828437600081840152601f19601f820116905080830192505050505050509192919290505050612f2c565b005b60011515600760008673ffffffffffffffffffffffffffffffffffffffff1673ffffffffffffffffffffffffffffffffffffffff16815260200190815260200160002060009054906101000a900460ff16151514610eb0576040517f08c379a000000000000000000000000000000000000000000000000000000000815260040180806020018281038252600d8152602001807f494e56414c494420544f4b454e0000000000000000000000000000000000000081525060200191505060405180910390fd5b600115156008600087815260200190815260200160002060009054906101000a900460ff16151514610f4a576040517f08c379a000000000000000000000000000000000000000000000000000000000815260040180806020018281038252600d8152602001807f494e56414c49442056414c55450000000000000000000000000000000000000081525060200191505060405180910390fd5b6000600660008481526020019081526020016000205490506000811415610fd9576040517f08c379a00000000000000000000000000000000000000000000000000000000081526004018080602001828103825260148152602001807f494e56414c494420535542534352495054494f4e00000000000000000000000081525060200191505060405180910390fd5b610fe1613e30565b60048281548110610fee57fe5b90600052602060002090600602016040518060e00160405290816000820160009054906101000a900473ffffffffffffffffffffffffffffffffffffffff1673ffffffffffffffffffffffffffffffffffffffff1673ffffffffffffffffffffffffffffffffffffffff1681526020016001820160009054906101000a900473ffffffffffffffffffffffffffffffffffffffff1673ffffffffffffffffffffffffffffffffffffffff1673ffffffffffffffffffffffffffffffffffffffff1681526020016001820160149054906101000a900460ff1660038111156110d157fe5b60038111156110dc57fe5b8152602001600282015481526020016003820154815260200160048201548152602001600582018054600181600116156101000203166002900480601f0160208091040260200160405190810160405280929190818152602001828054600181600116156101000203166002900480156111975780601f1061116c57610100808354040283529160200191611197565b820191906000526020600020905b81548152906001019060200180831161117a57829003601f168201915b505050505081525050905060006111bf8989898560a00180518091906001018152508a612b92565b905060006111cd828661331d565b90508973ffffffffffffffffffffffffffffffffffffffff168173ffffffffffffffffffffffffffffffffffffffff1614611270576040517f08c379a00000000000000000000000000000000000000000000000000000000081526004018080602001828103825260118152602001807f494e56414c4944205349474e415455524500000000000000000000000000000081525060200191505060405180910390fd5b6004848154811061127d57fe5b906000526020600020906006020160000160009054906101000a900473ffffffffffffffffffffffffffffffffffffffff1673ffffffffffffffffffffffffffffffffffffffff168173ffffffffffffffffffffffffffffffffffffffff161461134f576040517f08c379a00000000000000000000000000000000000000000000000000000000081526004018080602001828103825260118152602001807f494e56414c4944205349474e415455524500000000000000000000000000000081525060200191505060405180910390fd5b6040518060e001604052808b73ffffffffffffffffffffffffffffffffffffffff1681526020018973ffffffffffffffffffffffffffffffffffffffff16815260200188600381111561139e57fe5b81526020018a8152602001846080015181526020018460a0018051809190600101815250815260200186815250600485815481106113d857fe5b906000526020600020906006020160008201518160000160006101000a81548173ffffffffffffffffffffffffffffffffffffffff021916908373ffffffffffffffffffffffffffffffffffffffff16021790555060208201518160010160006101000a81548173ffffffffffffffffffffffffffffffffffffffff021916908373ffffffffffffffffffffffffffffffffffffffff16021790555060408201518160010160146101000a81548160ff0219169083600381111561149857fe5b0217905550606082015181600201556080820151816003015560a0820151816004015560c08201518160050190805190602001906114d7929190613ea4565b50905050836006600084815260200190815260200160002081905550600060066000888152602001908152602001600020819055508973ffffffffffffffffffffffffffffffffffffffff167f32efa59a31911b3dd9540da974f3026403de1bef45336c29a3b59c032bd5aceb888b8660a0018051809190600101815250868a6040518086600381111561156757fe5b815260200185815260200184815260200183815260200180602001828103825283818151815260200191508051906020019080838360005b838110156115ba57808201518184015260208101905061159f565b50505050905090810190601f1680156115e75780820380516001836020036101000a031916815260200191505b50965050505050505060405180910390a250505050505050505050565b61160d81612c8f565b61167f576040517f08c379a000000000000000000000000000000000000000000000000000000000815260040180806020018281038252600c8152602001807f494e56414c49442048415348000000000000000000000000000000000000000081525060200191505060405180910390fd5b6000600660008381526020019081526020016000205490506116a081613342565b6116a9816137c1565b600481815481106116b657fe5b906000526020600020906006020160000160009054906101000a900473ffffffffffffffffffffffffffffffffffffffff1673ffffffffffffffffffffffffffffffffffffffff167fa8faf0307ddb9c29d516f465f64cde087f6e907fa9945a867055f04ae43ac0056004838154811061172c57fe5b90600052602060002090600602016003015483604051808381526020018281526020019250505060405180910390a25050565b60066020528060005260406000206000915090505481565b6000600280549050905090565b60086020528060005260406000206000915054906101000a900460ff1681565b60006117c184846005600081548092919060010191905055612849565b905060006117cf828461331d565b9050600160009054906101000a900473ffffffffffffffffffffffffffffffffffffffff1673ffffffffffffffffffffffffffffffffffffffff168173ffffffffffffffffffffffffffffffffffffffff1614611894576040517f08c379a00000000000000000000000000000000000000000000000000000000081526004018080602001828103825260118152602001807f494e56414c4944205349474e415455524500000000000000000000000000000081525060200191505060405180910390fd5b60005b60028054905081101561194057600060076000600284815481106118b757fe5b9060005260206000200160009054906101000a900473ffffffffffffffffffffffffffffffffffffffff1673ffffffffffffffffffffffffffffffffffffffff1673ffffffffffffffffffffffffffffffffffffffff16815260200190815260200160002060006101000a81548160ff0219169083151502179055508080600101915050611897565b5060005b6003805490508110156119a1576000600860006003848154811061196457fe5b9060005260206000200154815260200190815260200160002060006101000a81548160ff0219169083151502179055508080600101915050611944565b5084600290805190602001906119b8929190613f24565b5083600390805190602001906119cf929190613fae565b50600560008154809291906001019190505560058190555060005b600280549050811015611a935760016007600060028481548110611a0a57fe5b9060005260206000200160009054906101000a900473ffffffffffffffffffffffffffffffffffffffff1673ffffffffffffffffffffffffffffffffffffffff1673ffffffffffffffffffffffffffffffffffffffff16815260200190815260200160002060006101000a81548160ff02191690831515021790555080806001019150506119ea565b5060005b600380549050811015611af45760016008600060038481548110611ab757fe5b9060005260206000200154815260200190815260200160002060006101000a81548160ff0219169083151502179055508080600101915050611a97565b507f268d61419e4e017db4ee747c79945f2c67fa5126450e10f74866edbd79371abe600260036005546040518080602001806020018481526020018381038352868181548152602001915080548015611ba257602002820191906000526020600020905b8160009054906101000a900473ffffffffffffffffffffffffffffffffffffffff1673ffffffffffffffffffffffffffffffffffffffff1681526020019060010190808311611b58575b50508381038252858181548152602001915080548015611be157602002820191906000526020600020905b815481526020019060010190808311611bcd575b50509550505050505060405180910390a15050505050565b60008060009054906101000a900473ffffffffffffffffffffffffffffffffffffffff1673ffffffffffffffffffffffffffffffffffffffff1663ddca3f436040518163ffffffff1660e01b815260040160206040518083038186803b158015611c6257600080fd5b505afa158015611c76573d6000803e3d6000fd5b505050506040513d6020811015611c8c57600080fd5b8101908080519060200190929190505050905060008060009054906101000a900473ffffffffffffffffffffffffffffffffffffffff1673ffffffffffffffffffffffffffffffffffffffff1663ee97f7f36040518163ffffffff1660e01b815260040160206040518083038186803b158015611d0857600080fd5b505afa158015611d1c573d6000803e3d6000fd5b505050506040513d6020811015611d3257600080fd5b8101908080519060200190929190505050905060005b6002805490508110156122fa57600060028281548110611d6457fe5b9060005260206000200160009054906101000a900473ffffffffffffffffffffffffffffffffffffffff1673ffffffffffffffffffffffffffffffffffffffff166370a08231600160009054906101000a900473ffffffffffffffffffffffffffffffffffffffff166040518263ffffffff1660e01b8152600401808273ffffffffffffffffffffffffffffffffffffffff16815260200191505060206040518083038186803b158015611e1757600080fd5b505afa158015611e2b573d6000803e3d6000fd5b505050506040513d6020811015611e4157600080fd5b81019080805190602001909291905050509050600060028381548110611e6357fe5b9060005260206000200160009054906101000a900473ffffffffffffffffffffffffffffffffffffffff1673ffffffffffffffffffffffffffffffffffffffff166370a08231306040518263ffffffff1660e01b8152600401808273ffffffffffffffffffffffffffffffffffffffff16815260200191505060206040518083038186803b158015611ef457600080fd5b505afa158015611f08573d6000803e3d6000fd5b505050506040513d6020811015611f1e57600080fd5b810190808051906020019092919050505090506000611f596064611f4b888561381890919063ffffffff16565b61389e90919063ffffffff16565b905060028481548110611f6857fe5b9060005260206000200160009054906101000a900473ffffffffffffffffffffffffffffffffffffffff1673ffffffffffffffffffffffffffffffffffffffff1663a9059cbb86836040518363ffffffff1660e01b8152600401808373ffffffffffffffffffffffffffffffffffffffff16815260200182815260200192505050602060405180830381600087803b15801561200357600080fd5b505af1158015612017573d6000803e3d6000fd5b505050506040513d602081101561202d57600080fd5b8101908080519060200190929190505050506002848154811061204c57fe5b9060005260206000200160009054906101000a900473ffffffffffffffffffffffffffffffffffffffff1673ffffffffffffffffffffffffffffffffffffffff1663a9059cbb600160009054906101000a900473ffffffffffffffffffffffffffffffffffffffff166120c884866138e890919063ffffffff16565b6040518363ffffffff1660e01b8152600401808373ffffffffffffffffffffffffffffffffffffffff16815260200182815260200192505050602060405180830381600087803b15801561211b57600080fd5b505af115801561212f573d6000803e3d6000fd5b505050506040513d602081101561214557600080fd5b8101908080519060200190929190505050506002848154811061216457fe5b9060005260206000200160009054906101000a900473ffffffffffffffffffffffffffffffffffffffff1673ffffffffffffffffffffffffffffffffffffffff166370a08231600160009054906101000a900473ffffffffffffffffffffffffffffffffffffffff166040518263ffffffff1660e01b8152600401808273ffffffffffffffffffffffffffffffffffffffff16815260200191505060206040518083038186803b15801561221757600080fd5b505afa15801561222b573d6000803e3d6000fd5b505050506040513d602081101561224157600080fd5b810190808051906020019092919050505061227782612269858761393290919063ffffffff16565b6138e890919063ffffffff16565b146122ea576040517f08c379a000000000000000000000000000000000000000000000000000000000815260040180806020018281038252600f8152602001807f4641494c4544205452414e53464552000000000000000000000000000000000081525060200191505060405180910390fd5b5050508080600101915050611d48565b505050565b600061230f858585600080612b92565b9050600060066000838152602001908152602001600020541461239a576040517f08c379a00000000000000000000000000000000000000000000000000000000081526004018080602001828103825260138152602001807f52455045415420535542534352495054494f4e0000000000000000000000000081525060200191505060405180910390fd5b60011515600760008573ffffffffffffffffffffffffffffffffffffffff1673ffffffffffffffffffffffffffffffffffffffff16815260200190815260200160002060009054906101000a900460ff16151514612460576040517f08c379a000000000000000000000000000000000000000000000000000000000815260040180806020018281038252600d8152602001807f494e56414c494420544f4b454e0000000000000000000000000000000000000081525060200191505060405180910390fd5b600115156008600086815260200190815260200160002060009054906101000a900460ff161515146124fa576040517f08c379a000000000000000000000000000000000000000000000000000000000815260040180806020018281038252600d8152602001807f494e56414c49442056414c55450000000000000000000000000000000000000081525060200191505060405180910390fd5b6000612506828461331d565b90508573ffffffffffffffffffffffffffffffffffffffff168173ffffffffffffffffffffffffffffffffffffffff16146125a9576040517f08c379a00000000000000000000000000000000000000000000000000000000081526004018080602001828103825260118152602001807f494e56414c4944205349474e415455524500000000000000000000000000000081525060200191505060405180910390fd5b60046040518060e001604052808873ffffffffffffffffffffffffffffffffffffffff1681526020018673ffffffffffffffffffffffffffffffffffffffff168152602001600060038111156125fb57fe5b81526020018781526020016001420381526020016000815260200185815250908060018154018082558091505060019003906000526020600020906006020160009091909190915060008201518160000160006101000a81548173ffffffffffffffffffffffffffffffffffffffff021916908373ffffffffffffffffffffffffffffffffffffffff16021790555060208201518160010160006101000a81548173ffffffffffffffffffffffffffffffffffffffff021916908373ffffffffffffffffffffffffffffffffffffffff16021790555060408201518160010160146101000a81548160ff021916908360038111156126f557fe5b0217905550606082015181600201556080820151816003015560a0820151816004015560c0820151816005019080519060200190612734929190613ea4565b50505060016004805490500360066000848152602001908152602001600020819055508373ffffffffffffffffffffffffffffffffffffffff168673ffffffffffffffffffffffffffffffffffffffff167ff52cb9805f0c52aa0594e7ecfe023c9086b0da126120d1d74036314fe8bece368760016004805490500386886040518085815260200184815260200183815260200180602001828103825283818151815260200191508051906020019080838360005b838110156128045780820151818401526020810190506127e9565b50505050905090810190601f1680156128315780820380516001836020036101000a031916815260200191505b509550505050505060405180910390a3505050505050565b6000601960f81b600060f81b600160009054906101000a900473ffffffffffffffffffffffffffffffffffffffff1686868660405160200180877effffffffffffffffffffffffffffffffffffffffffffffffffffffffffffff19168152600101867effffffffffffffffffffffffffffffffffffffffffffffffffffffffffffff191681526001018573ffffffffffffffffffffffffffffffffffffffff1660601b8152601401848051906020019060200280838360005b8381101561291d578082015181840152602081019050612902565b50505050905001838051906020019060200280838360005b83811015612950578082015181840152602081019050612935565b5050505090500182815260200196505050505050506040516020818303038152906040528051906020012090509392505050565b60055481565b600160009054906101000a900473ffffffffffffffffffffffffffffffffffffffff1681565b600381815481106129bd57fe5b906000526020600020016000915090505481565b6000600480549050905090565b600481815481106129eb57fe5b90600052602060002090600602016000915090508060000160009054906101000a900473ffffffffffffffffffffffffffffffffffffffff16908060010160009054906101000a900473ffffffffffffffffffffffffffffffffffffffff16908060010160149054906101000a900460ff1690806002015490806003015490806004015490806005018054600181600116156101000203166002900480601f016020809104026020016040519081016040528092919081815260200182805460018160011615610100020316600290048015612b085780601f10612add57610100808354040283529160200191612b08565b820191906000526020600020905b815481529060010190602001808311612aeb57829003601f168201915b5050505050905087565b60008054906101000a900473ffffffffffffffffffffffffffffffffffffffff1681565b60076020528060005260406000206000915054906101000a900460ff1681565b60028181548110612b6357fe5b906000526020600020016000915054906101000a900473ffffffffffffffffffffffffffffffffffffffff1681565b6000601960f81b600060f81b878786888760405160200180887effffffffffffffffffffffffffffffffffffffffffffffffffffffffffffff19168152600101877effffffffffffffffffffffffffffffffffffffffffffffffffffffffffffff191681526001018673ffffffffffffffffffffffffffffffffffffffff1660601b81526014018581526020018481526020018373ffffffffffffffffffffffffffffffffffffffff1660601b8152601401826003811115612c5057fe5b60f81b815260010197505050505050505060405160208183030381529060405280519060200120905095945050505050565b6000600380549050905090565b60008060066000848152602001908152602001600020549050612cb0613e30565b60048281548110612cbd57fe5b90600052602060002090600602016040518060e00160405290816000820160009054906101000a900473ffffffffffffffffffffffffffffffffffffffff1673ffffffffffffffffffffffffffffffffffffffff1673ffffffffffffffffffffffffffffffffffffffff1681526020016001820160009054906101000a900473ffffffffffffffffffffffffffffffffffffffff1673ffffffffffffffffffffffffffffffffffffffff1673ffffffffffffffffffffffffffffffffffffffff1681526020016001820160149054906101000a900460ff166003811115612da057fe5b6003811115612dab57fe5b8152602001600282015481526020016003820154815260200160048201548152602001600582018054600181600116156101000203166002900480601f016020809104026020016040519081016040528092919081815260200182805460018160011615610100020316600290048015612e665780601f10612e3b57610100808354040283529160200191612e66565b820191906000526020600020905b815481529060010190602001808311612e4957829003601f168201915b5050505050815250509050600073ffffffffffffffffffffffffffffffffffffffff16816000015173ffffffffffffffffffffffffffffffffffffffff1614158015612eb55750428160800151105b8015612edb575060006003811115612ec957fe5b81604001516003811115612ed957fe5b145b8015612f235750612ef0848260c0015161331d565b73ffffffffffffffffffffffffffffffffffffffff16816000015173ffffffffffffffffffffffffffffffffffffffff16145b92505050919050565b60008054906101000a900473ffffffffffffffffffffffffffffffffffffffff1673ffffffffffffffffffffffffffffffffffffffff163373ffffffffffffffffffffffffffffffffffffffff1614612fed576040517f08c379a00000000000000000000000000000000000000000000000000000000081526004018080602001828103825260098152602001807f464f5242494444454e000000000000000000000000000000000000000000000081525060200191505060405180910390fd5b82600160006101000a81548173ffffffffffffffffffffffffffffffffffffffff021916908373ffffffffffffffffffffffffffffffffffffffff1602179055508160029080519060200190613044929190613f24565b50806003908051906020019061305b929190613fae565b5060005b600280549050811015613108576001600760006002848154811061307f57fe5b9060005260206000200160009054906101000a900473ffffffffffffffffffffffffffffffffffffffff1673ffffffffffffffffffffffffffffffffffffffff1673ffffffffffffffffffffffffffffffffffffffff16815260200190815260200160002060006101000a81548160ff021916908315150217905550808060010191505061305f565b5060005b600380549050811015613169576001600860006003848154811061312c57fe5b9060005260206000200154815260200190815260200160002060006101000a81548160ff021916908315150217905550808060010191505061310c565b5060046040518060e00160405280600073ffffffffffffffffffffffffffffffffffffffff168152602001600073ffffffffffffffffffffffffffffffffffffffff1681526020016003808111156131bd57fe5b8152602001600081526020016000815260200160008152602001600060405160200180828152602001915050604051602081830303815290604052815250908060018154018082558091505060019003906000526020600020906006020160009091909190915060008201518160000160006101000a81548173ffffffffffffffffffffffffffffffffffffffff021916908373ffffffffffffffffffffffffffffffffffffffff16021790555060208201518160010160006101000a81548173ffffffffffffffffffffffffffffffffffffffff021916908373ffffffffffffffffffffffffffffffffffffffff16021790555060408201518160010160146101000a81548160ff021916908360038111156132d657fe5b0217905550606082015181600201556080820151816003015560a0820151816004015560c0820151816005019080519060200190613315929190613ea4565b505050505050565b600061333a8261332c856139ba565b613a1290919063ffffffff16565b905092915050565b61334a613e30565b6004828154811061335757fe5b90600052602060002090600602016040518060e00160405290816000820160009054906101000a900473ffffffffffffffffffffffffffffffffffffffff1673ffffffffffffffffffffffffffffffffffffffff1673ffffffffffffffffffffffffffffffffffffffff1681526020016001820160009054906101000a900473ffffffffffffffffffffffffffffffffffffffff1673ffffffffffffffffffffffffffffffffffffffff1673ffffffffffffffffffffffffffffffffffffffff1681526020016001820160149054906101000a900460ff16600381111561343a57fe5b600381111561344557fe5b8152602001600282015481526020016003820154815260200160048201548152602001600582018054600181600116156101000203166002900480601f0160208091040260200160405190810160405280929190818152602001828054600181600116156101000203166002900480156135005780601f106134d557610100808354040283529160200191613500565b820191906000526020600020905b8154815290600101906020018083116134e357829003601f168201915b50505050508152505090506000816020015173ffffffffffffffffffffffffffffffffffffffff166370a08231306040518263ffffffff1660e01b8152600401808273ffffffffffffffffffffffffffffffffffffffff16815260200191505060206040518083038186803b15801561357857600080fd5b505afa15801561358c573d6000803e3d6000fd5b505050506040513d60208110156135a257600080fd5b81019080805190602001909291905050509050816020015173ffffffffffffffffffffffffffffffffffffffff166323b872dd83600001513085606001516040518463ffffffff1660e01b8152600401808473ffffffffffffffffffffffffffffffffffffffff1681526020018373ffffffffffffffffffffffffffffffffffffffff1681526020018281526020019350505050602060405180830381600087803b15801561365057600080fd5b505af1158015613664573d6000803e3d6000fd5b505050506040513d602081101561367a57600080fd5b810190808051906020019092919050505050816020015173ffffffffffffffffffffffffffffffffffffffff166370a08231306040518263ffffffff1660e01b8152600401808273ffffffffffffffffffffffffffffffffffffffff16815260200191505060206040518083038186803b1580156136f757600080fd5b505afa15801561370b573d6000803e3d6000fd5b505050506040513d602081101561372157600080fd5b810190808051906020019092919050505061374983606001518361393290919063ffffffff16565b146137bc576040517f08c379a000000000000000000000000000000000000000000000000000000000815260040180806020018281038252600f8152602001807f5452414e53464552204641494c4544000000000000000000000000000000000081525060200191505060405180910390fd5b505050565b6137f36005600483815481106137d357fe5b90600052602060002090600602016003015461393290919063ffffffff16565b6004828154811061380057fe5b90600052602060002090600602016003018190555050565b60008083141561382b5760009050613898565b600082840290508284828161383c57fe5b0414613893576040517f08c379a00000000000000000000000000000000000000000000000000000000081526004018080602001828103825260218152602001806140986021913960400191505060405180910390fd5b809150505b92915050565b60006138e083836040518060400160405280601a81526020017f536166654d6174683a206469766973696f6e206279207a65726f000000000000815250613caa565b905092915050565b600061392a83836040518060400160405280601e81526020017f536166654d6174683a207375627472616374696f6e206f766572666c6f770000815250613d70565b905092915050565b6000808284019050838110156139b0576040517f08c379a000000000000000000000000000000000000000000000000000000000815260040180806020018281038252601b8152602001807f536166654d6174683a206164646974696f6e206f766572666c6f77000000000081525060200191505060405180910390fd5b8091505092915050565b60008160405160200180807f19457468657265756d205369676e6564204d6573736167653a0a333200000000815250601c01828152602001915050604051602081830303815290604052805190602001209050919050565b60006041825114613a8b576040517f08c379a000000000000000000000000000000000000000000000000000000000815260040180806020018281038252601f8152602001807f45434453413a20696e76616c6964207369676e6174757265206c656e6774680081525060200191505060405180910390fd5b60008060006020850151925060408501519150606085015160001a90507f7fffffffffffffffffffffffffffffff5d576e7357a4501ddfe92f46681b20a08260001c1115613b24576040517f08c379a00000000000000000000000000000000000000000000000000000000081526004018080602001828103825260228152602001806140546022913960400191505060405180910390fd5b601b8160ff1614158015613b3c5750601c8160ff1614155b15613b92576040517f08c379a00000000000000000000000000000000000000000000000000000000081526004018080602001828103825260228152602001806140766022913960400191505060405180910390fd5b600060018783868660405160008152602001604052604051808581526020018460ff1681526020018381526020018281526020019450505050506020604051602081039080840390855afa158015613bee573d6000803e3d6000fd5b505050602060405103519050600073ffffffffffffffffffffffffffffffffffffffff168173ffffffffffffffffffffffffffffffffffffffff161415613c9d576040517f08c379a00000000000000000000000000000000000000000000000000000000081526004018080602001828103825260188152602001807f45434453413a20696e76616c6964207369676e6174757265000000000000000081525060200191505060405180910390fd5b8094505050505092915050565b60008083118290613d56576040517f08c379a00000000000000000000000000000000000000000000000000000000081526004018080602001828103825283818151815260200191508051906020019080838360005b83811015613d1b578082015181840152602081019050613d00565b50505050905090810190601f168015613d485780820380516001836020036101000a031916815260200191505b509250505060405180910390fd5b506000838581613d6257fe5b049050809150509392505050565b6000838311158290613e1d576040517f08c379a00000000000000000000000000000000000000000000000000000000081526004018080602001828103825283818151815260200191508051906020019080838360005b83811015613de2578082015181840152602081019050613dc7565b50505050905090810190601f168015613e0f5780820380516001836020036101000a031916815260200191505b509250505060405180910390fd5b5060008385039050809150509392505050565b6040518060e00160405280600073ffffffffffffffffffffffffffffffffffffffff168152602001600073ffffffffffffffffffffffffffffffffffffffff16815260200160006003811115613e8257fe5b8152602001600081526020016000815260200160008152602001606081525090565b828054600181600116156101000203166002900490600052602060002090601f016020900481019282601f10613ee557805160ff1916838001178555613f13565b82800160010185558215613f13579182015b82811115613f12578251825591602001919060010190613ef7565b5b509050613f209190613ffb565b5090565b828054828255906000526020600020908101928215613f9d579160200282015b82811115613f9c5782518260006101000a81548173ffffffffffffffffffffffffffffffffffffffff021916908373ffffffffffffffffffffffffffffffffffffffff16021790555091602001919060010190613f44565b5b509050613faa9190614018565b5090565b828054828255906000526020600020908101928215613fea579160200282015b82811115613fe9578251825591602001919060010190613fce565b5b509050613ff79190613ffb565b5090565b5b80821115614014576000816000905550600101613ffc565b5090565b5b8082111561404f57600081816101000a81549073ffffffffffffffffffffffffffffffffffffffff021916905550600101614019565b509056fe45434453413a20696e76616c6964207369676e6174757265202773272076616c756545434453413a20696e76616c6964207369676e6174757265202776272076616c7565536166654d6174683a206d756c7469706c69636174696f6e206f766572666c6f77a26469706673582212209e02aad4b88d7f421c9eba7d4336d5d6fd077b6d6f6a983a324fb90b95c01a0964736f6c634300060c0033a264697066735822122052b6713bc636154395c6a99d3389a4d84ea7317e1703ca799920a45e7620868064736f6c634300060c0033",
  "immutableReferences": {},
  "source": "pragma solidity 0.6.12;\r\n\r\nimport \"./interfaces/ISubscriptionFactory.sol\";\r\nimport \"./SubscriptionV1.sol\";\r\n\r\n// contract SubscriptionFactory is ISubscriptionFactory {\r\n\r\ncontract SubscriptionFactory {\r\n    address public master;\r\n    uint8 public fee; //Percentage\r\n\r\n    event subscriptionCreated(\r\n        address indexed publisher,\r\n        address subscription,\r\n        address[] paymentTokens,\r\n        uint256[] acceptedValues\r\n    );\r\n\r\n    event factoryModified(address master, uint8 fee);\r\n\r\n    address[] public allSubscriptions;\r\n    mapping(address => address) public getSubscription;\r\n\r\n    constructor(uint8 _fee) public {\r\n        master = msg.sender;\r\n        fee = _fee;\r\n        emit factoryModified(master, fee);\r\n    }\r\n\r\n    function allSubscriptionsLength() external view returns (uint256) {\r\n        return allSubscriptions.length;\r\n    }\r\n\r\n    function createSubscription(\r\n        address publisher,\r\n        address[] memory paymentTokens,\r\n        uint256[] memory acceptedValues\r\n    ) external returns (address payable subscription) {\r\n        require(getSubscription[publisher] == address(0), \"REPEAT PUBLISHER\");\r\n        bytes memory bytecode = type(SubscriptionV1).creationCode;\r\n        bytes32 salt = keccak256(abi.encodePacked(publisher));\r\n        assembly {\r\n            subscription := create2(0, add(bytecode, 32), mload(bytecode), salt)\r\n        }\r\n        SubscriptionV1(subscription).initialize(\r\n            publisher,\r\n            paymentTokens,\r\n            acceptedValues\r\n        );\r\n        emit subscriptionCreated(\r\n            publisher,\r\n            subscription,\r\n            paymentTokens,\r\n            acceptedValues\r\n        );\r\n\r\n        getSubscription[publisher] = subscription;\r\n        allSubscriptions.push(subscription);\r\n    }\r\n\r\n    function setFee(uint8 _fee) external {\r\n        require(msg.sender == master, \"FORBIDDEN\");\r\n        require(_fee < fee, \"INVALID FEE INCREASE\");\r\n        fee = _fee;\r\n        emit factoryModified(master, fee);\r\n    }\r\n\r\n    function setMaster(address _master) external {\r\n        require(msg.sender == master, \"FORBIDDEN\");\r\n        master = _master;\r\n        emit factoryModified(master, fee);\r\n    }\r\n}\r\n",
  "sourcePath": "C:/Users/ghard/Documents/GitHub/qualla-demo/contracts/SubscriptionFactory.sol",
  "compiler": {
    "name": "solc",
    "version": "0.6.12+commit.27d51765.Emscripten.clang"
  },
  "schemaVersion": "3.3.1",
  "updatedAt": "2020-11-27T18:00:56.898Z",
  "networkType": "ethereum",
  "devdoc": {
    "kind": "dev",
    "methods": {},
    "version": 1
  },
  "userdoc": {
    "kind": "user",
    "methods": {},
    "version": 1
  }
}