{
  "_format": "hh-sol-artifact-1",
  "contractName": "TokenFactoryFacet",
  "sourceName": "contracts/facets/TokenFactoryFacet.sol",
  "abi": [
    {
      "anonymous": false,
      "inputs": [
        {
          "indexed": true,
          "internalType": "address",
          "name": "qToken",
          "type": "address"
        },
        {
          "indexed": true,
          "internalType": "address",
          "name": "token",
          "type": "address"
        }
      ],
      "name": "WrapperDeployed",
      "type": "event"
    },
    {
      "inputs": [
        {
          "internalType": "contract IQtoken",
          "name": "underlyingToken",
          "type": "address"
        },
        {
          "internalType": "address",
          "name": "account",
          "type": "address"
        },
        {
          "internalType": "uint256",
          "name": "amount",
          "type": "uint256"
        }
      ],
      "name": "demoMintWrappedERC20",
      "outputs": [],
      "stateMutability": "nonpayable",
      "type": "function"
    },
    {
      "inputs": [
        {
          "internalType": "contract IERC20",
          "name": "underlyingToken",
          "type": "address"
        },
        {
          "internalType": "uint8",
          "name": "underlyingDecimals",
          "type": "uint8"
        },
        {
          "internalType": "string",
          "name": "name",
          "type": "string"
        },
        {
          "internalType": "string",
          "name": "symbol",
          "type": "string"
        }
      ],
      "name": "deployERC20Wrapper",
      "outputs": [],
      "stateMutability": "nonpayable",
      "type": "function"
    },
    {
      "inputs": [
        {
          "internalType": "contract ERC20Info",
          "name": "underlyingToken",
          "type": "address"
        },
        {
          "internalType": "string",
          "name": "name",
          "type": "string"
        },
        {
          "internalType": "string",
          "name": "symbol",
          "type": "string"
        }
      ],
      "name": "deployERC20WrapperInfo",
      "outputs": [],
      "stateMutability": "nonpayable",
      "type": "function"
    },
    {
      "inputs": [
        {
          "internalType": "contract IERC20",
          "name": "token",
          "type": "address"
        }
      ],
      "name": "getTokenWrapper",
      "outputs": [
        {
          "internalType": "address",
          "name": "",
          "type": "address"
        }
      ],
      "stateMutability": "view",
      "type": "function"
    }
  ],
  "bytecode": "0x608060405234801561001057600080fd5b506131c5806100206000396000f3fe608060405234801561001057600080fd5b506004361061004c5760003560e01c80635419d925146100515780637784ff2314610081578063ddea0b251461009d578063ffe7a51d146100b9575b600080fd5b61006b6004803603810190610066919061066e565b6100d5565b6040516100789190610853565b60405180910390f35b61009b600480360381019061009691906105e5565b610140565b005b6100b760048036038101906100b29190610697565b6101d2565b005b6100d360048036038101906100ce9190610732565b610489565b005b60008060050160008373ffffffffffffffffffffffffffffffffffffffff1673ffffffffffffffffffffffffffffffffffffffff16815260200190815260200160002060009054906101000a900473ffffffffffffffffffffffffffffffffffffffff169050919050565b6101cb858673ffffffffffffffffffffffffffffffffffffffff1663313ce5676040518163ffffffff1660e01b815260040160206040518083038186803b15801561018a57600080fd5b505afa15801561019e573d6000803e3d6000fd5b505050506040513d601f19601f820116820180604052508101906101c29190610781565b868686866101d2565b5050505050565b600073ffffffffffffffffffffffffffffffffffffffff168673ffffffffffffffffffffffffffffffffffffffff161415610242576040517f08c379a0000000000000000000000000000000000000000000000000000000008152600401610239906108ee565b60405180910390fd5b6000604051610250906104fb565b604051809103906000f08015801561026c573d6000803e3d6000fd5b5090508073ffffffffffffffffffffffffffffffffffffffff166342fe09808888888888886040518763ffffffff1660e01b81526004016102b296959493929190610897565b600060405180830381600087803b1580156102cc57600080fd5b505af11580156102e0573d6000803e3d6000fd5b5050505080600060050160008973ffffffffffffffffffffffffffffffffffffffff1673ffffffffffffffffffffffffffffffffffffffff16815260200190815260200160002060006101000a81548173ffffffffffffffffffffffffffffffffffffffff021916908373ffffffffffffffffffffffffffffffffffffffff1602179055506001600060070160008373ffffffffffffffffffffffffffffffffffffffff1673ffffffffffffffffffffffffffffffffffffffff16815260200190815260200160002060006101000a81548160ff0219169083151502179055506000600801879080600181540180825580915050600190039060005260206000200160009091909190916101000a81548173ffffffffffffffffffffffffffffffffffffffff021916908373ffffffffffffffffffffffffffffffffffffffff1602179055508673ffffffffffffffffffffffffffffffffffffffff168173ffffffffffffffffffffffffffffffffffffffff167f317d343bad96f4924450e809267dcfa70e37270e3bb036b5d6d04e3befd47a6460405160405180910390a350505050505050565b8273ffffffffffffffffffffffffffffffffffffffff16638b12a26283836040518363ffffffff1660e01b81526004016104c492919061086e565b600060405180830381600087803b1580156104de57600080fd5b505af11580156104f2573d6000803e3d6000fd5b50505050505050565b61272380610a6d83390190565b600081359050610517816109e2565b92915050565b60008135905061052c816109f9565b92915050565b60008135905061054181610a10565b92915050565b60008135905061055681610a27565b92915050565b60008083601f84011261056e57600080fd5b8235905067ffffffffffffffff81111561058757600080fd5b60208301915083600182028301111561059f57600080fd5b9250929050565b6000813590506105b581610a3e565b92915050565b6000813590506105ca81610a55565b92915050565b6000815190506105df81610a55565b92915050565b6000806000806000606086880312156105fd57600080fd5b600061060b8882890161051d565b955050602086013567ffffffffffffffff81111561062857600080fd5b6106348882890161055c565b9450945050604086013567ffffffffffffffff81111561065357600080fd5b61065f8882890161055c565b92509250509295509295909350565b60006020828403121561068057600080fd5b600061068e84828501610532565b91505092915050565b600080600080600080608087890312156106b057600080fd5b60006106be89828a01610532565b96505060206106cf89828a016105bb565b955050604087013567ffffffffffffffff8111156106ec57600080fd5b6106f889828a0161055c565b9450945050606087013567ffffffffffffffff81111561071757600080fd5b61072389828a0161055c565b92509250509295509295509295565b60008060006060848603121561074757600080fd5b600061075586828701610547565b935050602061076686828701610508565b9250506040610777868287016105a6565b9150509250925092565b60006020828403121561079357600080fd5b60006107a1848285016105d0565b91505092915050565b6107b38161091f565b82525050565b6107c28161099e565b82525050565b60006107d4838561090e565b93506107e18385846109c2565b6107ea836109d1565b840190509392505050565b600061080260138361090e565b91507f5175616c6c612f7a65726f2d61646472657373000000000000000000000000006000830152602082019050919050565b61083e81610987565b82525050565b61084d81610991565b82525050565b600060208201905061086860008301846107aa565b92915050565b600060408201905061088360008301856107aa565b6108906020830184610835565b9392505050565b60006080820190506108ac60008301896107b9565b6108b96020830188610844565b81810360408301526108cc8186886107c8565b905081810360608301526108e18184866107c8565b9050979650505050505050565b60006020820190508181036000830152610907816107f5565b9050919050565b600082825260208201905092915050565b600061092a82610967565b9050919050565b600061093c8261091f565b9050919050565b600061094e8261091f565b9050919050565b60006109608261091f565b9050919050565b600073ffffffffffffffffffffffffffffffffffffffff82169050919050565b6000819050919050565b600060ff82169050919050565b60006109a9826109b0565b9050919050565b60006109bb82610967565b9050919050565b82818337600083830152505050565b6000601f19601f8301169050919050565b6109eb8161091f565b81146109f657600080fd5b50565b610a0281610931565b8114610a0d57600080fd5b50565b610a1981610943565b8114610a2457600080fd5b50565b610a3081610955565b8114610a3b57600080fd5b50565b610a4781610987565b8114610a5257600080fd5b50565b610a5e81610991565b8114610a6957600080fd5b5056fe608060405234801561001057600080fd5b50612703806100206000396000f3fe608060405234801561001057600080fd5b506004361061012c5760003560e01c806370a08231116100ad578063cf97256d11610071578063cf97256d14610355578063dd62ed3e14610371578063eb3537cc146103a1578063ee719bc8146103d2578063f3d4759c146103f05761012c565b806370a082311461028b5780638b12a262146102bb57806395d89b41146102d7578063a457c2d7146102f5578063a9059cbb146103255761012c565b8063313ce567116100f4578063313ce567146101e9578063395093511461020757806342fe09801461023757806345977d031461025357806351819b431461026f5761012c565b806306fdde0314610131578063095ea7b31461014f57806311bcc81e1461017f57806318160ddd1461019b57806323b872dd146101b9575b600080fd5b61013961040c565b60405161014691906122dc565b60405180910390f35b61016960048036038101906101649190611d92565b6104ae565b6040516101769190612261565b60405180910390f35b61019960048036038101906101949190611ec6565b6104cc565b005b6101a36104d9565b6040516101b091906123be565b60405180910390f35b6101d360048036038101906101ce9190611d07565b6104e3565b6040516101e09190612261565b60405180910390f35b6101f16105bc565b6040516101fe91906123d9565b60405180910390f35b610221600480360381019061021c9190611d92565b6105d3565b60405161022e9190612261565b60405180910390f35b610251600480360381019061024c9190611df7565b610686565b005b61026d60048036038101906102689190611ec6565b610853565b005b61028960048036038101906102849190611d92565b610860565b005b6102a560048036038101906102a09190611ca2565b6108c8565b6040516102b291906123be565b60405180910390f35b6102d560048036038101906102d09190611d92565b6108f9565b005b6102df610961565b6040516102ec91906122dc565b60405180910390f35b61030f600480360381019061030a9190611d92565b610a03565b60405161031c9190612261565b60405180910390f35b61033f600480360381019061033a9190611d92565b610ad0565b60405161034c9190612261565b60405180910390f35b61036f600480360381019061036a9190611d56565b610aee565b005b61038b60048036038101906103869190611ccb565b610be1565b60405161039891906123be565b60405180910390f35b6103bb60048036038101906103b69190611d92565b610c68565b6040516103c99291906122b3565b60405180910390f35b6103da610daf565b6040516103e791906121e6565b60405180910390f35b61040a60048036038101906104059190611d92565b610dd9565b005b606060048054600181600116156101000203166002900480601f0160208091040260200160405190810160405280929190818152602001828054600181600116156101000203166002900480156104a45780601f10610479576101008083540402835291602001916104a4565b820191906000526020600020905b81548152906001019060200180831161048757829003601f168201915b5050505050905090565b60006104c26104bb610e41565b8484610e49565b6001905092915050565b6104d63382611014565b50565b6000600354905090565b60006104f08484846110d2565b6105b1846104fc610e41565b6105ac8560405180606001604052806028815260200161263560289139600260008b73ffffffffffffffffffffffffffffffffffffffff1673ffffffffffffffffffffffffffffffffffffffff1681526020019081526020016000206000610562610e41565b73ffffffffffffffffffffffffffffffffffffffff1673ffffffffffffffffffffffffffffffffffffffff168152602001908152602001600020546113bc9092919063ffffffff16565b610e49565b600190509392505050565b6000600660009054906101000a900460ff16905090565b600061067c6105e0610e41565b8461067785600260006105f1610e41565b73ffffffffffffffffffffffffffffffffffffffff1673ffffffffffffffffffffffffffffffffffffffff16815260200190815260200160002060008973ffffffffffffffffffffffffffffffffffffffff1673ffffffffffffffffffffffffffffffffffffffff1681526020019081526020016000205461147c90919063ffffffff16565b610e49565b6001905092915050565b600060019054906101000a900460ff16806106a557506106a4611504565b5b806106bb575060008054906101000a900460ff16155b610710576040517f08c379a000000000000000000000000000000000000000000000000000000000815260040180806020018281038252602e815260200180612607602e913960400191505060405180910390fd5b60008060019054906101000a900460ff161590508015610760576001600060016101000a81548160ff02191690831515021790555060016000806101000a81548160ff0219169083151502179055505b84600660016101000a81548173ffffffffffffffffffffffffffffffffffffffff021916908373ffffffffffffffffffffffffffffffffffffffff16021790555083600660006101000a81548160ff021916908360ff16021790555082600490805190602001906107d2929190611ae7565b5081600590805190602001906107e9929190611ae7565b5033600760006101000a81548173ffffffffffffffffffffffffffffffffffffffff021916908373ffffffffffffffffffffffffffffffffffffffff160217905550801561084c5760008060016101000a81548160ff0219169083151502179055505b5050505050565b61085d338261151b565b50565b600760009054906101000a900473ffffffffffffffffffffffffffffffffffffffff1673ffffffffffffffffffffffffffffffffffffffff163373ffffffffffffffffffffffffffffffffffffffff16146108ba57600080fd5b6108c4828261151b565b5050565b6000806108d58342610c68565b509050600081136108e75760006108f1565b6108f0816115db565b5b915050919050565b600760009054906101000a900473ffffffffffffffffffffffffffffffffffffffff1673ffffffffffffffffffffffffffffffffffffffff163373ffffffffffffffffffffffffffffffffffffffff161461095357600080fd5b61095d828261165b565b5050565b606060058054600181600116156101000203166002900480601f0160208091040260200160405190810160405280929190818152602001828054600181600116156101000203166002900480156109f95780601f106109ce576101008083540402835291602001916109f9565b820191906000526020600020905b8154815290600101906020018083116109dc57829003601f168201915b5050505050905090565b6000610ac6610a10610e41565b84610ac1856040518060600160405280602581526020016126a96025913960026000610a3a610e41565b73ffffffffffffffffffffffffffffffffffffffff1673ffffffffffffffffffffffffffffffffffffffff16815260200190815260200160002060008a73ffffffffffffffffffffffffffffffffffffffff1673ffffffffffffffffffffffffffffffffffffffff168152602001908152602001600020546113bc9092919063ffffffff16565b610e49565b6001905092915050565b6000610ae4610add610e41565b84846110d2565b6001905092915050565b600760009054906101000a900473ffffffffffffffffffffffffffffffffffffffff1673ffffffffffffffffffffffffffffffffffffffff163373ffffffffffffffffffffffffffffffffffffffff1614610b4857600080fd5b610b9a81600160008573ffffffffffffffffffffffffffffffffffffffff1673ffffffffffffffffffffffffffffffffffffffff1681526020019081526020016000205461177d90919063ffffffff16565b600160008473ffffffffffffffffffffffffffffffffffffffff1673ffffffffffffffffffffffffffffffffffffffff168152602001908152602001600020819055505050565b6000600260008473ffffffffffffffffffffffffffffffffffffffff1673ffffffffffffffffffffffffffffffffffffffff16815260200190815260200160002060008373ffffffffffffffffffffffffffffffffffffffff1673ffffffffffffffffffffffffffffffffffffffff16815260200190815260200160002054905092915050565b600080600160008573ffffffffffffffffffffffffffffffffffffffff1673ffffffffffffffffffffffffffffffffffffffff168152602001908152602001600020549150600080600760009054906101000a900473ffffffffffffffffffffffffffffffffffffffff1673ffffffffffffffffffffffffffffffffffffffff16639b2e48bc3088886040518463ffffffff1660e01b8152600401610d0f9392919061227c565b604080518083038186803b158015610d2657600080fd5b505afa158015610d3a573d6000803e3d6000fd5b505050506040513d601f19601f82011682018060405250810190610d5e9190611e8a565b91509150610d8f610d6e8261180b565b610d81848761177d90919063ffffffff16565b61188d90919063ffffffff16565b9350610da4818461147c90919063ffffffff16565b925050509250929050565b6000600660019054906101000a900473ffffffffffffffffffffffffffffffffffffffff16905090565b600760009054906101000a900473ffffffffffffffffffffffffffffffffffffffff1673ffffffffffffffffffffffffffffffffffffffff163373ffffffffffffffffffffffffffffffffffffffff1614610e3357600080fd5b610e3d8282611014565b5050565b600033905090565b600073ffffffffffffffffffffffffffffffffffffffff168373ffffffffffffffffffffffffffffffffffffffff161415610eb9576040517f08c379a0000000000000000000000000000000000000000000000000000000008152600401610eb09061239e565b60405180910390fd5b600073ffffffffffffffffffffffffffffffffffffffff168273ffffffffffffffffffffffffffffffffffffffff161415610f29576040517f08c379a0000000000000000000000000000000000000000000000000000000008152600401610f209061233e565b60405180910390fd5b80600260008573ffffffffffffffffffffffffffffffffffffffff1673ffffffffffffffffffffffffffffffffffffffff16815260200190815260200160002060008473ffffffffffffffffffffffffffffffffffffffff1673ffffffffffffffffffffffffffffffffffffffff168152602001908152602001600020819055508173ffffffffffffffffffffffffffffffffffffffff168373ffffffffffffffffffffffffffffffffffffffff167f8c5be1e5ebec7d5bd14f71427d1e84f3dd0314c0f7b2291e5b200ac8c7c3b9258360405161100791906123be565b60405180910390a3505050565b600660019054906101000a900473ffffffffffffffffffffffffffffffffffffffff1673ffffffffffffffffffffffffffffffffffffffff1663a9059cbb83836040518363ffffffff1660e01b8152600401611071929190612238565b602060405180830381600087803b15801561108b57600080fd5b505af115801561109f573d6000803e3d6000fd5b505050506040513d601f19601f820116820180604052508101906110c39190611dce565b506110ce828261191b565b5050565b600073ffffffffffffffffffffffffffffffffffffffff168373ffffffffffffffffffffffffffffffffffffffff161415611142576040517f08c379a00000000000000000000000000000000000000000000000000000000081526004016111399061237e565b60405180910390fd5b600073ffffffffffffffffffffffffffffffffffffffff168273ffffffffffffffffffffffffffffffffffffffff1614156111b2576040517f08c379a00000000000000000000000000000000000000000000000000000000081526004016111a9906122fe565b60405180910390fd5b6111bd838383611a98565b60006111c98442610c68565b5090506111d58261180b565b811215611217576040517f08c379a000000000000000000000000000000000000000000000000000000000815260040161120e9061235e565b60405180910390fd5b6112716112238361180b565b600160008773ffffffffffffffffffffffffffffffffffffffff1673ffffffffffffffffffffffffffffffffffffffff1681526020019081526020016000205461188d90919063ffffffff16565b600160008673ffffffffffffffffffffffffffffffffffffffff1673ffffffffffffffffffffffffffffffffffffffff1681526020019081526020016000208190555061130e6112c08361180b565b600160008673ffffffffffffffffffffffffffffffffffffffff1673ffffffffffffffffffffffffffffffffffffffff1681526020019081526020016000205461177d90919063ffffffff16565b600160008573ffffffffffffffffffffffffffffffffffffffff1673ffffffffffffffffffffffffffffffffffffffff168152602001908152602001600020819055508273ffffffffffffffffffffffffffffffffffffffff168473ffffffffffffffffffffffffffffffffffffffff167fddf252ad1be2c89b69c2b068fc378daa952ba7f163c4a11628f55a4df523b3ef846040516113ae91906123be565b60405180910390a350505050565b6000838311158290611469576040517f08c379a00000000000000000000000000000000000000000000000000000000081526004018080602001828103825283818151815260200191508051906020019080838360005b8381101561142e578082015181840152602081019050611413565b50505050905090810190601f16801561145b5780820380516001836020036101000a031916815260200191505b509250505060405180910390fd5b5060008385039050809150509392505050565b6000808284019050838110156114fa576040517f08c379a000000000000000000000000000000000000000000000000000000000815260040180806020018281038252601b8152602001807f536166654d6174683a206164646974696f6e206f766572666c6f77000000000081525060200191505060405180910390fd5b8091505092915050565b6000803090506000813b9050600081149250505090565b600660019054906101000a900473ffffffffffffffffffffffffffffffffffffffff1673ffffffffffffffffffffffffffffffffffffffff166323b872dd8330846040518463ffffffff1660e01b815260040161157a93929190612201565b602060405180830381600087803b15801561159457600080fd5b505af11580156115a8573d6000803e3d6000fd5b505050506040513d601f19601f820116820180604052508101906115cc9190611dce565b506115d7828261165b565b5050565b600080821215611653576040517f08c379a00000000000000000000000000000000000000000000000000000000081526004018080602001828103825260208152602001807f53616665436173743a2076616c7565206d75737420626520706f73697469766581525060200191505060405180910390fd5b819050919050565b6116b56116678261180b565b600160008573ffffffffffffffffffffffffffffffffffffffff1673ffffffffffffffffffffffffffffffffffffffff1681526020019081526020016000205461177d90919063ffffffff16565b600160008473ffffffffffffffffffffffffffffffffffffffff1673ffffffffffffffffffffffffffffffffffffffff1681526020019081526020016000208190555061170d8160035461147c90919063ffffffff16565b6003819055508173ffffffffffffffffffffffffffffffffffffffff16600073ffffffffffffffffffffffffffffffffffffffff167fddf252ad1be2c89b69c2b068fc378daa952ba7f163c4a11628f55a4df523b3ef8360405161177191906123be565b60405180910390a35050565b6000808284019050600083121580156117965750838112155b806117ac57506000831280156117ab57508381125b5b611801576040517f08c379a00000000000000000000000000000000000000000000000000000000081526004018080602001828103825260218152602001806125e66021913960400191505060405180910390fd5b8091505092915050565b60007f80000000000000000000000000000000000000000000000000000000000000008210611885576040517f08c379a000000000000000000000000000000000000000000000000000000000815260040180806020018281038252602881526020018061265d6028913960400191505060405180910390fd5b819050919050565b6000808284039050600083121580156118a65750838113155b806118bc57506000831280156118bb57508381135b5b611911576040517f08c379a00000000000000000000000000000000000000000000000000000000081526004018080602001828103825260248152602001806126856024913960400191505060405180910390fd5b8091505092915050565b60006119278342610c68565b5090506119338261180b565b811215611975576040517f08c379a000000000000000000000000000000000000000000000000000000000815260040161196c9061231e565b60405180910390fd5b6119cf6119818361180b565b600160008673ffffffffffffffffffffffffffffffffffffffff1673ffffffffffffffffffffffffffffffffffffffff1681526020019081526020016000205461188d90919063ffffffff16565b600160008573ffffffffffffffffffffffffffffffffffffffff1673ffffffffffffffffffffffffffffffffffffffff16815260200190815260200160002081905550611a2782600354611a9d90919063ffffffff16565b600381905550600073ffffffffffffffffffffffffffffffffffffffff168373ffffffffffffffffffffffffffffffffffffffff167fddf252ad1be2c89b69c2b068fc378daa952ba7f163c4a11628f55a4df523b3ef84604051611a8b91906123be565b60405180910390a3505050565b505050565b6000611adf83836040518060400160405280601e81526020017f536166654d6174683a207375627472616374696f6e206f766572666c6f7700008152506113bc565b905092915050565b828054600181600116156101000203166002900490600052602060002090601f016020900481019282611b1d5760008555611b64565b82601f10611b3657805160ff1916838001178555611b64565b82800160010185558215611b64579182015b82811115611b63578251825591602001919060010190611b48565b5b509050611b719190611b75565b5090565b5b80821115611b8e576000816000905550600101611b76565b5090565b6000611ba5611ba084612425565b6123f4565b905082815260208101848484011115611bbd57600080fd5b611bc8848285612506565b509392505050565b600081359050611bdf8161255b565b92915050565b600081519050611bf481612572565b92915050565b600081359050611c0981612589565b92915050565b600081359050611c1e816125a0565b92915050565b600081519050611c33816125a0565b92915050565b600082601f830112611c4a57600080fd5b8135611c5a848260208601611b92565b91505092915050565b600081359050611c72816125b7565b92915050565b600081519050611c87816125b7565b92915050565b600081359050611c9c816125ce565b92915050565b600060208284031215611cb457600080fd5b6000611cc284828501611bd0565b91505092915050565b60008060408385031215611cde57600080fd5b6000611cec85828601611bd0565b9250506020611cfd85828601611bd0565b9150509250929050565b600080600060608486031215611d1c57600080fd5b6000611d2a86828701611bd0565b9350506020611d3b86828701611bd0565b9250506040611d4c86828701611c63565b9150509250925092565b60008060408385031215611d6957600080fd5b6000611d7785828601611bd0565b9250506020611d8885828601611c0f565b9150509250929050565b60008060408385031215611da557600080fd5b6000611db385828601611bd0565b9250506020611dc485828601611c63565b9150509250929050565b600060208284031215611de057600080fd5b6000611dee84828501611be5565b91505092915050565b60008060008060808587031215611e0d57600080fd5b6000611e1b87828801611bfa565b9450506020611e2c87828801611c8d565b935050604085013567ffffffffffffffff811115611e4957600080fd5b611e5587828801611c39565b925050606085013567ffffffffffffffff811115611e7257600080fd5b611e7e87828801611c39565b91505092959194509250565b60008060408385031215611e9d57600080fd5b6000611eab85828601611c24565b9250506020611ebc85828601611c78565b9150509250929050565b600060208284031215611ed857600080fd5b6000611ee684828501611c63565b91505092915050565b611ef881612471565b82525050565b611f0781612483565b82525050565b611f16816124e2565b82525050565b611f25816124a1565b82525050565b6000611f3682612455565b611f408185612460565b9350611f50818560208601612515565b611f598161254a565b840191505092915050565b6000611f71602383612460565b91507f45524332303a207472616e7366657220746f20746865207a65726f206164647260008301527f65737300000000000000000000000000000000000000000000000000000000006020830152604082019050919050565b6000611fd7602283612460565b91507f45524332303a206275726e20616d6f756e7420657863656564732062616c616e60008301527f63650000000000000000000000000000000000000000000000000000000000006020830152604082019050919050565b600061203d602283612460565b91507f45524332303a20617070726f766520746f20746865207a65726f20616464726560008301527f73730000000000000000000000000000000000000000000000000000000000006020830152604082019050919050565b60006120a3602683612460565b91507f45524332303a207472616e7366657220616d6f756e742065786365656473206260008301527f616c616e636500000000000000000000000000000000000000000000000000006020830152604082019050919050565b6000612109602583612460565b91507f45524332303a207472616e736665722066726f6d20746865207a65726f20616460008301527f64726573730000000000000000000000000000000000000000000000000000006020830152604082019050919050565b600061216f602483612460565b91507f45524332303a20617070726f76652066726f6d20746865207a65726f2061646460008301527f72657373000000000000000000000000000000000000000000000000000000006020830152604082019050919050565b6121d1816124cb565b82525050565b6121e0816124d5565b82525050565b60006020820190506121fb6000830184611eef565b92915050565b60006060820190506122166000830186611eef565b6122236020830185611eef565b61223060408301846121c8565b949350505050565b600060408201905061224d6000830185611eef565b61225a60208301846121c8565b9392505050565b60006020820190506122766000830184611efe565b92915050565b60006060820190506122916000830186611f0d565b61229e6020830185611eef565b6122ab60408301846121c8565b949350505050565b60006040820190506122c86000830185611f1c565b6122d560208301846121c8565b9392505050565b600060208201905081810360008301526122f68184611f2b565b905092915050565b6000602082019050818103600083015261231781611f64565b9050919050565b6000602082019050818103600083015261233781611fca565b9050919050565b6000602082019050818103600083015261235781612030565b9050919050565b6000602082019050818103600083015261237781612096565b9050919050565b60006020820190508181036000830152612397816120fc565b9050919050565b600060208201905081810360008301526123b781612162565b9050919050565b60006020820190506123d360008301846121c8565b92915050565b60006020820190506123ee60008301846121d7565b92915050565b6000604051905081810181811067ffffffffffffffff8211171561241b5761241a612548565b5b8060405250919050565b600067ffffffffffffffff8211156124405761243f612548565b5b601f19601f8301169050602081019050919050565b600081519050919050565b600082825260208201905092915050565b600061247c826124ab565b9050919050565b60008115159050919050565b600061249a82612471565b9050919050565b6000819050919050565b600073ffffffffffffffffffffffffffffffffffffffff82169050919050565b6000819050919050565b600060ff82169050919050565b60006124ed826124f4565b9050919050565b60006124ff826124ab565b9050919050565b82818337600083830152505050565b60005b83811015612533578082015181840152602081019050612518565b83811115612542576000848401525b50505050565bfe5b6000601f19601f8301169050919050565b61256481612471565b811461256f57600080fd5b50565b61257b81612483565b811461258657600080fd5b50565b6125928161248f565b811461259d57600080fd5b50565b6125a9816124a1565b81146125b457600080fd5b50565b6125c0816124cb565b81146125cb57600080fd5b50565b6125d7816124d5565b81146125e257600080fd5b5056fe5369676e6564536166654d6174683a206164646974696f6e206f766572666c6f77496e697469616c697a61626c653a20636f6e747261637420697320616c726561647920696e697469616c697a656445524332303a207472616e7366657220616d6f756e74206578636565647320616c6c6f77616e636553616665436173743a2076616c756520646f65736e27742066697420696e20616e20696e743235365369676e6564536166654d6174683a207375627472616374696f6e206f766572666c6f7745524332303a2064656372656173656420616c6c6f77616e63652062656c6f77207a65726fa26469706673582212200e399445d9e7cc604b82e8ea8b5c12b465bd6e80ab08478d5a839e19b9387ae764736f6c63430007060033a2646970667358221220fdc988ebe21c79b32e38ec25090d09c95585bf315a6abd4fdcf86ad75ffb62d964736f6c63430007060033",
  "linkReferences": {},
  "deployedLinkReferences": {}
}