{
  "_format": "hh-sol-artifact-1",
  "contractName": "QuallaNFTFacet",
  "sourceName": "contracts/facets/QuallaNFTFactet.sol",
  "abi": [
    {
      "inputs": [
        {
          "internalType": "address",
          "name": "user",
          "type": "address"
        },
        {
          "internalType": "uint256",
          "name": "subTokenId",
          "type": "uint256"
        },
        {
          "internalType": "uint256",
          "name": "nftTokenId",
          "type": "uint256"
        },
        {
          "internalType": "uint8",
          "name": "v",
          "type": "uint8"
        },
        {
          "internalType": "bytes32",
          "name": "r",
          "type": "bytes32"
        },
        {
          "internalType": "bytes32",
          "name": "s",
          "type": "bytes32"
        }
      ],
      "name": "claimNFT",
      "outputs": [],
      "stateMutability": "nonpayable",
      "type": "function"
    },
    {
      "inputs": [
        {
          "internalType": "uint256",
          "name": "baseTokenId",
          "type": "uint256"
        },
        {
          "internalType": "string",
          "name": "_uri",
          "type": "string"
        },
        {
          "internalType": "uint8",
          "name": "v",
          "type": "uint8"
        },
        {
          "internalType": "bytes32",
          "name": "r",
          "type": "bytes32"
        },
        {
          "internalType": "bytes32",
          "name": "s",
          "type": "bytes32"
        }
      ],
      "name": "mintNFTtoSubscribers",
      "outputs": [],
      "stateMutability": "nonpayable",
      "type": "function"
    },
    {
      "inputs": [
        {
          "internalType": "uint256[]",
          "name": "baseTokenId",
          "type": "uint256[]"
        },
        {
          "internalType": "string",
          "name": "_uri",
          "type": "string"
        },
        {
          "internalType": "uint8",
          "name": "v",
          "type": "uint8"
        },
        {
          "internalType": "bytes32",
          "name": "r",
          "type": "bytes32"
        },
        {
          "internalType": "bytes32",
          "name": "s",
          "type": "bytes32"
        }
      ],
      "name": "mintNFTtoSubscribersBatch",
      "outputs": [],
      "stateMutability": "nonpayable",
      "type": "function"
    }
  ],
  "bytecode": "0x608060405234801561001057600080fd5b506124ea806100206000396000f3fe608060405234801561001057600080fd5b50600436106100415760003560e01c806349380056146100465780635b50b69d14610062578063ef783f111461007e575b600080fd5b610060600480360381019061005b9190611956565b61009a565b005b61007c600480360381019061007791906118cd565b6104fa565b005b61009860048036038101906100939190611a26565b610830565b005b60006100a4610aa8565b90506000816000016000886000815181106100bb57fe5b6020026020010151815260200190815260200160002060000160009054906101000a900473ffffffffffffffffffffffffffffffffffffffff169050610139816040518060400160405280600381526020017f6e66740000000000000000000000000000000000000000000000000000000000815250878787610ad5565b6000875167ffffffffffffffff8111801561015357600080fd5b506040519080825280602002602001820160405280156101825781602001602082028036833780820191505090505b5090506000885167ffffffffffffffff8111801561019f57600080fd5b506040519080825280602002602001820160405280156101ce5781602001602082028036833780820191505090505b50905060005b8951811015610487578373ffffffffffffffffffffffffffffffffffffffff168560000160008c848151811061020657fe5b6020026020010151815260200190815260200160002060000160009054906101000a900473ffffffffffffffffffffffffffffffffffffffff1673ffffffffffffffffffffffffffffffffffffffff1614610296576040517f08c379a000000000000000000000000000000000000000000000000000000000815260040161028d90612198565b60405180910390fd5b60806102b060018760040154610cf290919063ffffffff16565b901b8382815181106102be57fe5b6020026020010181815250507f80000000000000000000000000000000000000000000000000000000000000008382815181106102f757fe5b60200260200101511783828151811061030c57fe5b6020026020010181815250508460000160008b838151811061032a57fe5b602002602001015181526020019081526020016000206003015482828151811061035057fe5b6020026020010181815250506040518060a001604052808a81526020014281526020018b838151811061037f57fe5b60200260200101518152602001600181526020018573ffffffffffffffffffffffffffffffffffffffff168152508560020160008584815181106103bf57fe5b6020026020010151815260200190815260200160002060008201518160000190805190602001906103f19291906116bb565b5060208201518160010155604082015181600201556060820151816003015560808201518160040160006101000a81548173ffffffffffffffffffffffffffffffffffffffff021916908373ffffffffffffffffffffffffffffffffffffffff16021790555090505061047260018660040154610cf290919063ffffffff16565b856004018190555080806001019150506101d4565b506104ef8460000160008b60008151811061049e57fe5b6020026020010151815260200190815260200160002060000160009054906101000a900473ffffffffffffffffffffffffffffffffffffffff16838360405180602001604052806000815250610d7a565b505050505050505050565b61053c866040518060400160405280600581526020017f636c61696d000000000000000000000000000000000000000000000000000000815250858585610ad5565b6000610546610aa8565b90506000610552610fa6565b9050600081600001600089815260200190815260200160002060008a73ffffffffffffffffffffffffffffffffffffffff1673ffffffffffffffffffffffffffffffffffffffff16815260200190815260200160002054116105e9576040517f08c379a00000000000000000000000000000000000000000000000000000000081526004016105e090612138565b60405180910390fd5b8160020160008781526020019081526020016000206002015460807fffffffffffffffffffffffffffffffffffffffffffffffffffffffffffffffff6fffffffffffffffffffffffffffffffff16901b88161461067b576040517f08c379a0000000000000000000000000000000000000000000000000000000008152600401610672906121b8565b60405180910390fd5b8160020160008781526020019081526020016000206001015482600101600089815260200190815260200160002060020154106106ed576040517f08c379a00000000000000000000000000000000000000000000000000000000081526004016106e490612178565b60405180910390fd5b60001515826003016000888152602001908152602001600020600089815260200190815260200160002060009054906101000a900460ff16151514610767576040517f08c379a000000000000000000000000000000000000000000000000000000000815260040161075e90612158565b60405180910390fd5b600082600201600088815260200190815260200160002060030154871790506107a28982600160405180602001604052806000815250610fd3565b6107e683600201600089815260200190815260200160002060040160009054906101000a900473ffffffffffffffffffffffffffffffffffffffff168860016111ac565b600183600301600089815260200190815260200160002060008a815260200190815260200160002060006101000a81548160ff021916908315150217905550505050505050505050565b600061083a610aa8565b90506108b681600001600088815260200190815260200160002060000160009054906101000a900473ffffffffffffffffffffffffffffffffffffffff166040518060400160405280600381526020017f6e66740000000000000000000000000000000000000000000000000000000000815250868686610ad5565b600060806108d260018460040154610cf290919063ffffffff16565b901b90507f8000000000000000000000000000000000000000000000000000000000000000811790508082600501819055506040518060a00160405280878152602001428152602001888152602001600181526020018360000160008a815260200190815260200160002060000160009054906101000a900473ffffffffffffffffffffffffffffffffffffffff1673ffffffffffffffffffffffffffffffffffffffff1681525082600201600083815260200190815260200160002060008201518160000190805190602001906109ab9291906116bb565b5060208201518160010155604082015181600201556060820151816003015560808201518160040160006101000a81548173ffffffffffffffffffffffffffffffffffffffff021916908373ffffffffffffffffffffffffffffffffffffffff160217905550905050610a7f82600001600089815260200190815260200160002060000160009054906101000a900473ffffffffffffffffffffffffffffffffffffffff16828460000160008b81526020019081526020016000206003015460405180602001604052806000815250610fd3565b610a9760018360040154610cf290919063ffffffff16565b826004018190555050505050505050565b6000807f8011e08e256fd2a672b7720b7587378b9f27bfa5a95803a3cee7cf21a0a3def890508091505090565b6000610adf610fa6565b9050600081600301548260040154888460020160008b73ffffffffffffffffffffffffffffffffffffffff1673ffffffffffffffffffffffffffffffffffffffff168152602001908152602001600020600001548980519060200120604051602001610b4e949392919061204e565b60405160208183030381529060405280519060200120604051602001610b75929190611f1e565b60405160208183030381529060405280519060200120905060018186868660405160008152602001604052604051610bb09493929190612093565b6020604051602081039080840390855afa158015610bd2573d6000803e3d6000fd5b5050506020604051035173ffffffffffffffffffffffffffffffffffffffff168773ffffffffffffffffffffffffffffffffffffffff1614610c49576040517f08c379a0000000000000000000000000000000000000000000000000000000008152600401610c40906120f8565b60405180910390fd5b610ca160018360020160008a73ffffffffffffffffffffffffffffffffffffffff1673ffffffffffffffffffffffffffffffffffffffff16815260200190815260200160002060000154610cf290919063ffffffff16565b8260020160008973ffffffffffffffffffffffffffffffffffffffff1673ffffffffffffffffffffffffffffffffffffffff1681526020019081526020016000206000018190555050505050505050565b600080828401905083811015610d70576040517f08c379a000000000000000000000000000000000000000000000000000000000815260040180806020018281038252601b8152602001807f536166654d6174683a206164646974696f6e206f766572666c6f77000000000081525060200191505060405180910390fd5b8091505092915050565b600073ffffffffffffffffffffffffffffffffffffffff168473ffffffffffffffffffffffffffffffffffffffff161415610dea576040517f08c379a0000000000000000000000000000000000000000000000000000000008152600401610de1906121f8565b60405180910390fd5b6000610df461138f565b90506000610e00610fa6565b905060005b8551811015610f0f57610e99826000016000888481518110610e2357fe5b6020026020010151815260200190815260200160002060008973ffffffffffffffffffffffffffffffffffffffff1673ffffffffffffffffffffffffffffffffffffffff16815260200190815260200160002054868381518110610e8357fe5b6020026020010151610cf290919063ffffffff16565b826000016000888481518110610eab57fe5b6020026020010151815260200190815260200160002060008973ffffffffffffffffffffffffffffffffffffffff1673ffffffffffffffffffffffffffffffffffffffff168152602001908152602001600020819055508080600101915050610e05565b508573ffffffffffffffffffffffffffffffffffffffff16600073ffffffffffffffffffffffffffffffffffffffff168373ffffffffffffffffffffffffffffffffffffffff167f4a39dc06d4c0dbc64b70af90fd698a233a518aa5d07e595d983b8c0526c8f7fb8888604051610f87929190612017565b60405180910390a4610f9e82600088888888611397565b505050505050565b6000807fd1fd1ec9eb6f457e5e32da0d2921ff6daf7fd2085ec060a076b391ca2400b28290508091505090565b600073ffffffffffffffffffffffffffffffffffffffff168473ffffffffffffffffffffffffffffffffffffffff161415611043576040517f08c379a000000000000000000000000000000000000000000000000000000000815260040161103a906121f8565b60405180910390fd5b600061104d61138f565b90506000611059610fa6565b90506110c08482600001600088815260200190815260200160002060008973ffffffffffffffffffffffffffffffffffffffff1673ffffffffffffffffffffffffffffffffffffffff16815260200190815260200160002054610cf290919063ffffffff16565b81600001600087815260200190815260200160002060008873ffffffffffffffffffffffffffffffffffffffff1673ffffffffffffffffffffffffffffffffffffffff168152602001908152602001600020819055508573ffffffffffffffffffffffffffffffffffffffff16600073ffffffffffffffffffffffffffffffffffffffff168373ffffffffffffffffffffffffffffffffffffffff167fc3d58168c5ae7397731d063d5bbf3d657854427343f4c083240f7aacaa2d0f62888860405161118d929190612218565b60405180910390a46111a4826000888888886114c9565b505050505050565b600073ffffffffffffffffffffffffffffffffffffffff168373ffffffffffffffffffffffffffffffffffffffff16141561121c576040517f08c379a0000000000000000000000000000000000000000000000000000000008152600401611213906121d8565b60405180910390fd5b600061122661138f565b90506000611232610fa6565b90506112b3836040518060600160405280602481526020016124916024913983600001600088815260200190815260200160002060008973ffffffffffffffffffffffffffffffffffffffff1673ffffffffffffffffffffffffffffffffffffffff168152602001908152602001600020546115fb9092919063ffffffff16565b81600001600086815260200190815260200160002060008773ffffffffffffffffffffffffffffffffffffffff1673ffffffffffffffffffffffffffffffffffffffff16815260200190815260200160002081905550600073ffffffffffffffffffffffffffffffffffffffff168573ffffffffffffffffffffffffffffffffffffffff168373ffffffffffffffffffffffffffffffffffffffff167fc3d58168c5ae7397731d063d5bbf3d657854427343f4c083240f7aacaa2d0f628787604051611380929190612218565b60405180910390a45050505050565b600033905090565b6000843b905060008111156114c0578473ffffffffffffffffffffffffffffffffffffffff1663bc197c8188888787876040518663ffffffff1660e01b81526004016113e7959493929190611f55565b602060405180830381600087803b15801561140157600080fd5b505af1158015611415573d6000803e3d6000fd5b505050506040513d601f19601f8201168201806040525081019061143991906119fd565b7bffffffffffffffffffffffffffffffffffffffffffffffffffffffff191663bc197c8160e01b7bffffffffffffffffffffffffffffffffffffffffffffffffffffffff1916146114bf576040517f08c379a00000000000000000000000000000000000000000000000000000000081526004016114b690612118565b60405180910390fd5b5b50505050505050565b6000843b905060008111156115f2578473ffffffffffffffffffffffffffffffffffffffff1663f23a6e6188888787876040518663ffffffff1660e01b8152600401611519959493929190611fbd565b602060405180830381600087803b15801561153357600080fd5b505af1158015611547573d6000803e3d6000fd5b505050506040513d601f19601f8201168201806040525081019061156b91906119fd565b7bffffffffffffffffffffffffffffffffffffffffffffffffffffffff191663f23a6e6160e01b7bffffffffffffffffffffffffffffffffffffffffffffffffffffffff1916146115f1576040517f08c379a00000000000000000000000000000000000000000000000000000000081526004016115e8906120d8565b60405180910390fd5b5b50505050505050565b60008383111582906116a8576040517f08c379a00000000000000000000000000000000000000000000000000000000081526004018080602001828103825283818151815260200191508051906020019080838360005b8381101561166d578082015181840152602081019050611652565b50505050905090810190601f16801561169a5780820380516001836020036101000a031916815260200191505b509250505060405180910390fd5b5060008385039050809150509392505050565b828054600181600116156101000203166002900490600052602060002090601f0160209004810192826116f15760008555611738565b82601f1061170a57805160ff1916838001178555611738565b82800160010185558215611738579182015b8281111561173757825182559160200191906001019061171c565b5b5090506117459190611749565b5090565b5b8082111561176257600081600090555060010161174a565b5090565b600061177961177484612272565b612241565b9050808382526020820190508285602086028201111561179857600080fd5b60005b858110156117c857816117ae88826118a3565b84526020840193506020830192505060018101905061179b565b5050509392505050565b60006117e56117e08461229e565b612241565b9050828152602081018484840111156117fd57600080fd5b6118088482856123be565b509392505050565b60008135905061181f8161241d565b92915050565b600082601f83011261183657600080fd5b8135611846848260208601611766565b91505092915050565b60008135905061185e81612434565b92915050565b6000815190506118738161244b565b92915050565b600082601f83011261188a57600080fd5b813561189a8482602086016117d2565b91505092915050565b6000813590506118b281612462565b92915050565b6000813590506118c781612479565b92915050565b60008060008060008060c087890312156118e657600080fd5b60006118f489828a01611810565b965050602061190589828a016118a3565b955050604061191689828a016118a3565b945050606061192789828a016118b8565b935050608061193889828a0161184f565b92505060a061194989828a0161184f565b9150509295509295509295565b600080600080600060a0868803121561196e57600080fd5b600086013567ffffffffffffffff81111561198857600080fd5b61199488828901611825565b955050602086013567ffffffffffffffff8111156119b157600080fd5b6119bd88828901611879565b94505060406119ce888289016118b8565b93505060606119df8882890161184f565b92505060806119f08882890161184f565b9150509295509295909350565b600060208284031215611a0f57600080fd5b6000611a1d84828501611864565b91505092915050565b600080600080600060a08688031215611a3e57600080fd5b6000611a4c888289016118a3565b955050602086013567ffffffffffffffff811115611a6957600080fd5b611a7588828901611879565b9450506040611a86888289016118b8565b9350506060611a978882890161184f565b9250506080611aa88882890161184f565b9150509295509295909350565b6000611ac18383611ef1565b60208301905092915050565b611ad68161233f565b82525050565b6000611ae7826122de565b611af18185612301565b9350611afc836122ce565b8060005b83811015611b2d578151611b148882611ab5565b9750611b1f836122f4565b925050600181019050611b00565b5085935050505092915050565b611b4381612351565b82525050565b611b5a611b5582612351565b612400565b82525050565b6000611b6b826122e9565b611b758185612312565b9350611b858185602086016123cd565b611b8e8161240c565b840191505092915050565b6000611ba6603483612323565b91507f455243313135353a207472616e7366657220746f206e6f6e204552433131353560008301527f526563656976657220696d706c656d656e7465720000000000000000000000006020830152604082019050919050565b6000611c0c601583612323565b91507f5175616c6c612f696e76616c69642d7065726d697400000000000000000000006000830152602082019050919050565b6000611c4c602883612323565b91507f455243313135353a204552433131353552656365697665722072656a6563746560008301527f6420746f6b656e730000000000000000000000000000000000000000000000006020830152604082019050919050565b6000611cb2601383612323565b91507f5175616c6c612f496e76616c69642055736572000000000000000000000000006000830152602082019050919050565b6000611cf2601783612323565b91507f5175616c6c612f416c72656164792052656465656d65640000000000000000006000830152602082019050919050565b6000611d32600283612334565b91507f19010000000000000000000000000000000000000000000000000000000000006000830152600282019050919050565b6000611d72601883612323565b91507f5175616c6c612f496e76616c6964206d696e747374616d7000000000000000006000830152602082019050919050565b6000611db2601683612323565b91507f5175616c6c612f496e76616c69642043726561746f72000000000000000000006000830152602082019050919050565b6000611df2601583612323565b91507f5175616c6c612f496e76616c69642052656465656d00000000000000000000006000830152602082019050919050565b6000611e32602383612323565b91507f455243313135353a206275726e2066726f6d20746865207a65726f206164647260008301527f65737300000000000000000000000000000000000000000000000000000000006020830152604082019050919050565b6000611e98602183612323565b91507f455243313135353a206d696e7420746f20746865207a65726f2061646472657360008301527f73000000000000000000000000000000000000000000000000000000000000006020830152604082019050919050565b611efa816123a7565b82525050565b611f09816123a7565b82525050565b611f18816123b1565b82525050565b6000611f2982611d25565b9150611f358285611b49565b602082019150611f458284611b49565b6020820191508190509392505050565b600060a082019050611f6a6000830188611acd565b611f776020830187611acd565b8181036040830152611f898186611adc565b90508181036060830152611f9d8185611adc565b90508181036080830152611fb18184611b60565b90509695505050505050565b600060a082019050611fd26000830188611acd565b611fdf6020830187611acd565b611fec6040830186611f00565b611ff96060830185611f00565b818103608083015261200b8184611b60565b90509695505050505050565b600060408201905081810360008301526120318185611adc565b905081810360208301526120458184611adc565b90509392505050565b60006080820190506120636000830187611b3a565b6120706020830186611acd565b61207d6040830185611f00565b61208a6060830184611b3a565b95945050505050565b60006080820190506120a86000830187611b3a565b6120b56020830186611f0f565b6120c26040830185611b3a565b6120cf6060830184611b3a565b95945050505050565b600060208201905081810360008301526120f181611b99565b9050919050565b6000602082019050818103600083015261211181611bff565b9050919050565b6000602082019050818103600083015261213181611c3f565b9050919050565b6000602082019050818103600083015261215181611ca5565b9050919050565b6000602082019050818103600083015261217181611ce5565b9050919050565b6000602082019050818103600083015261219181611d65565b9050919050565b600060208201905081810360008301526121b181611da5565b9050919050565b600060208201905081810360008301526121d181611de5565b9050919050565b600060208201905081810360008301526121f181611e25565b9050919050565b6000602082019050818103600083015261221181611e8b565b9050919050565b600060408201905061222d6000830185611f00565b61223a6020830184611f00565b9392505050565b6000604051905081810181811067ffffffffffffffff821117156122685761226761240a565b5b8060405250919050565b600067ffffffffffffffff82111561228d5761228c61240a565b5b602082029050602081019050919050565b600067ffffffffffffffff8211156122b9576122b861240a565b5b601f19601f8301169050602081019050919050565b6000819050602082019050919050565b600081519050919050565b600081519050919050565b6000602082019050919050565b600082825260208201905092915050565b600082825260208201905092915050565b600082825260208201905092915050565b600081905092915050565b600061234a82612387565b9050919050565b6000819050919050565b60007fffffffff0000000000000000000000000000000000000000000000000000000082169050919050565b600073ffffffffffffffffffffffffffffffffffffffff82169050919050565b6000819050919050565b600060ff82169050919050565b82818337600083830152505050565b60005b838110156123eb5780820151818401526020810190506123d0565b838111156123fa576000848401525b50505050565b6000819050919050565bfe5b6000601f19601f8301169050919050565b6124268161233f565b811461243157600080fd5b50565b61243d81612351565b811461244857600080fd5b50565b6124548161235b565b811461245f57600080fd5b50565b61246b816123a7565b811461247657600080fd5b50565b612482816123b1565b811461248d57600080fd5b5056fe455243313135353a206275726e20616d6f756e7420657863656564732062616c616e6365a2646970667358221220c1597769254e2dd899dde8318c20cf5fee8ff187d676cf872091746a22b8872264736f6c63430007060033",
  "linkReferences": {},
  "deployedLinkReferences": {}
}