{
  "_format": "hh-sol-artifact-1",
  "contractName": "BaseTokenFacet",
  "sourceName": "contracts/facets/BaseTokenFacet.sol",
  "abi": [
    {
      "inputs": [
        {
          "internalType": "uint256",
          "name": "id",
          "type": "uint256"
        },
        {
          "internalType": "uint256",
          "name": "amount",
          "type": "uint256"
        },
        {
          "internalType": "uint8",
          "name": "v",
          "type": "uint8"
        },
        {
          "internalType": "bytes32",
          "name": "r",
          "type": "bytes32"
        },
        {
          "internalType": "bytes32",
          "name": "s",
          "type": "bytes32"
        }
      ],
      "name": "burnBase",
      "outputs": [],
      "stateMutability": "nonpayable",
      "type": "function"
    },
    {
      "inputs": [
        {
          "internalType": "uint256",
          "name": "id",
          "type": "uint256"
        }
      ],
      "name": "getBaseToken",
      "outputs": [
        {
          "components": [
            {
              "internalType": "address",
              "name": "creator",
              "type": "address"
            },
            {
              "internalType": "contract IQtoken",
              "name": "paymentToken",
              "type": "address"
            },
            {
              "internalType": "uint256",
              "name": "flowRate",
              "type": "uint256"
            },
            {
              "internalType": "uint256",
              "name": "nonce",
              "type": "uint256"
            },
            {
              "internalType": "uint256",
              "name": "activeBeams",
              "type": "uint256"
            }
          ],
          "internalType": "struct BaseToken",
          "name": "",
          "type": "tuple"
        }
      ],
      "stateMutability": "view",
      "type": "function"
    },
    {
      "inputs": [
        {
          "internalType": "address",
          "name": "creator",
          "type": "address"
        },
        {
          "internalType": "uint256",
          "name": "amount",
          "type": "uint256"
        },
        {
          "internalType": "contract IQtoken",
          "name": "paymentToken",
          "type": "address"
        },
        {
          "internalType": "uint256",
          "name": "flowRate",
          "type": "uint256"
        },
        {
          "internalType": "uint8",
          "name": "v",
          "type": "uint8"
        },
        {
          "internalType": "bytes32",
          "name": "r",
          "type": "bytes32"
        },
        {
          "internalType": "bytes32",
          "name": "s",
          "type": "bytes32"
        }
      ],
      "name": "mintBase",
      "outputs": [],
      "stateMutability": "nonpayable",
      "type": "function"
    },
    {
      "inputs": [
        {
          "internalType": "address",
          "name": "creator",
          "type": "address"
        },
        {
          "internalType": "uint256[]",
          "name": "amounts",
          "type": "uint256[]"
        },
        {
          "internalType": "contract IQtoken[]",
          "name": "paymentTokens",
          "type": "address[]"
        },
        {
          "internalType": "uint256[]",
          "name": "flowRates",
          "type": "uint256[]"
        },
        {
          "internalType": "uint8",
          "name": "v",
          "type": "uint8"
        },
        {
          "internalType": "bytes32",
          "name": "r",
          "type": "bytes32"
        },
        {
          "internalType": "bytes32",
          "name": "s",
          "type": "bytes32"
        }
      ],
      "name": "mintBatchBase",
      "outputs": [],
      "stateMutability": "nonpayable",
      "type": "function"
    }
  ],
  "bytecode": "0x608060405234801561001057600080fd5b506125f3806100206000396000f3fe608060405234801561001057600080fd5b506004361061004c5760003560e01c806392fcf31614610051578063ac4e17e31461006d578063bbf9ff0814610089578063ffb651e0146100a5575b600080fd5b61006b60048036038101906100669190611a26565b6100d5565b005b6100876004803603810190610082919061181f565b610243565b005b6100a3600480360381019061009e919061190d565b610658565b005b6100bf60048036038101906100ba91906119fd565b6108d7565b6040516100cc91906122f8565b60405180910390f35b60007f800000000000000000000000000000000000000000000000000000000000000086161461013a576040517f08c379a000000000000000000000000000000000000000000000000000000000815260040161013190612278565b60405180910390fd5b60007fffffffffffffffffffffffffffffffffffffffffffffffffffffffffffffffff6fffffffffffffffffffffffffffffffff168616146101b1576040517f08c379a00000000000000000000000000000000000000000000000000000000081526004016101a890612298565b60405180910390fd5b600080600001600087815260200190815260200160002060000160009054906101000a900473ffffffffffffffffffffffffffffffffffffffff169050610230816040518060400160405280600481526020017f6275726e00000000000000000000000000000000000000000000000000000000815250868686610a36565b61023b818787610c53565b505050505050565b86869050885114610289576040517f08c379a000000000000000000000000000000000000000000000000000000000815260040161028090612218565b60405180910390fd5b848490508851146102cf576040517f08c379a00000000000000000000000000000000000000000000000000000000081526004016102c6906122b8565b60405180910390fd5b610311896040518060400160405280600481526020017f6d696e7400000000000000000000000000000000000000000000000000000000815250858585610a36565b6000885167ffffffffffffffff8111801561032b57600080fd5b5060405190808252806020026020018201604052801561035a5781602001602082028036833780820191505090505b50905060005b895181101561063057600060070160008a8a8481811061037c57fe5b905060200201602081019061039191906119d4565b73ffffffffffffffffffffffffffffffffffffffff1673ffffffffffffffffffffffffffffffffffffffff16815260200190815260200160002060009054906101000a900460ff16610418576040517f08c379a000000000000000000000000000000000000000000000000000000000815260040161040f90612238565b60405180910390fd5b60008a828151811061042657fe5b6020026020010151141561046e577fffffffffffffffffffffffffffffffffffffffffffffffffffffffffffffffff8a828151811061046157fe5b6020026020010181815250505b60806104896001600060090154610e3690919063ffffffff16565b901b82828151811061049757fe5b6020026020010181815250506040518060a001604052808c73ffffffffffffffffffffffffffffffffffffffff1681526020018a8a848181106104d657fe5b90506020020160208101906104eb91906119d4565b73ffffffffffffffffffffffffffffffffffffffff16815260200188888481811061051257fe5b90506020020135815260200160018152602001600081525060008001600084848151811061053c57fe5b6020026020010151815260200190815260200160002060008201518160000160006101000a81548173ffffffffffffffffffffffffffffffffffffffff021916908373ffffffffffffffffffffffffffffffffffffffff16021790555060208201518160010160006101000a81548173ffffffffffffffffffffffffffffffffffffffff021916908373ffffffffffffffffffffffffffffffffffffffff16021790555060408201518160020155606082015181600301556080820151816004015590505061061a6001600060090154610e3690919063ffffffff16565b6000600901819055508080600101915050610360565b5061064c8a828b60405180602001604052806000815250610ebe565b50505050505050505050565b61069a876040518060400160405280600481526020017f6d696e7400000000000000000000000000000000000000000000000000000000815250858585610a36565b600060070160008673ffffffffffffffffffffffffffffffffffffffff1673ffffffffffffffffffffffffffffffffffffffff16815260200190815260200160002060009054906101000a900460ff16610729576040517f08c379a000000000000000000000000000000000000000000000000000000000815260040161072090612238565b60405180910390fd5b6000861415610756577fffffffffffffffffffffffffffffffffffffffffffffffffffffffffffffffff95505b600060806107736001600060090154610e3690919063ffffffff16565b901b90506040518060a001604052808973ffffffffffffffffffffffffffffffffffffffff1681526020018773ffffffffffffffffffffffffffffffffffffffff16815260200186815260200160018152602001600081525060008001600083815260200190815260200160002060008201518160000160006101000a81548173ffffffffffffffffffffffffffffffffffffffff021916908373ffffffffffffffffffffffffffffffffffffffff16021790555060208201518160010160006101000a81548173ffffffffffffffffffffffffffffffffffffffff021916908373ffffffffffffffffffffffffffffffffffffffff1602179055506040820151816002015560608201518160030155608082015181600401559050506108a96001600060090154610e3690919063ffffffff16565b6000600901819055506108cd888289604051806020016040528060008152506110ea565b5050505050505050565b6108df61161c565b6108e761161c565b60008001600084815260200190815260200160002060000160009054906101000a900473ffffffffffffffffffffffffffffffffffffffff16816000019073ffffffffffffffffffffffffffffffffffffffff16908173ffffffffffffffffffffffffffffffffffffffff168152505060008001600084815260200190815260200160002060010160009054906101000a900473ffffffffffffffffffffffffffffffffffffffff16816020019073ffffffffffffffffffffffffffffffffffffffff16908173ffffffffffffffffffffffffffffffffffffffff168152505060008001600084815260200190815260200160002060020154816040018181525050600080016000848152602001908152602001600020600301548160600181815250506000800160008481526020019081526020016000206004015481608001818152505080915050919050565b6000610a406112c3565b9050600081600301548260040154888460020160008b73ffffffffffffffffffffffffffffffffffffffff1673ffffffffffffffffffffffffffffffffffffffff168152602001908152602001600020600001548980519060200120604051602001610aaf949392919061212e565b60405160208183030381529060405280519060200120604051602001610ad6929190611ffe565b60405160208183030381529060405280519060200120905060018186868660405160008152602001604052604051610b119493929190612173565b6020604051602081039080840390855afa158015610b33573d6000803e3d6000fd5b5050506020604051035173ffffffffffffffffffffffffffffffffffffffff168773ffffffffffffffffffffffffffffffffffffffff1614610baa576040517f08c379a0000000000000000000000000000000000000000000000000000000008152600401610ba1906121d8565b60405180910390fd5b610c0260018360020160008a73ffffffffffffffffffffffffffffffffffffffff1673ffffffffffffffffffffffffffffffffffffffff16815260200190815260200160002060000154610e3690919063ffffffff16565b8260020160008973ffffffffffffffffffffffffffffffffffffffff1673ffffffffffffffffffffffffffffffffffffffff1681526020019081526020016000206000018190555050505050505050565b600073ffffffffffffffffffffffffffffffffffffffff168373ffffffffffffffffffffffffffffffffffffffff161415610cc3576040517f08c379a0000000000000000000000000000000000000000000000000000000008152600401610cba90612258565b60405180910390fd5b6000610ccd6112f0565b90506000610cd96112c3565b9050610d5a8360405180606001604052806024815260200161259a6024913983600001600088815260200190815260200160002060008973ffffffffffffffffffffffffffffffffffffffff1673ffffffffffffffffffffffffffffffffffffffff168152602001908152602001600020546112f89092919063ffffffff16565b81600001600086815260200190815260200160002060008773ffffffffffffffffffffffffffffffffffffffff1673ffffffffffffffffffffffffffffffffffffffff16815260200190815260200160002081905550600073ffffffffffffffffffffffffffffffffffffffff168573ffffffffffffffffffffffffffffffffffffffff168373ffffffffffffffffffffffffffffffffffffffff167fc3d58168c5ae7397731d063d5bbf3d657854427343f4c083240f7aacaa2d0f628787604051610e27929190612313565b60405180910390a45050505050565b600080828401905083811015610eb4576040517f08c379a000000000000000000000000000000000000000000000000000000000815260040180806020018281038252601b8152602001807f536166654d6174683a206164646974696f6e206f766572666c6f77000000000081525060200191505060405180910390fd5b8091505092915050565b600073ffffffffffffffffffffffffffffffffffffffff168473ffffffffffffffffffffffffffffffffffffffff161415610f2e576040517f08c379a0000000000000000000000000000000000000000000000000000000008152600401610f25906122d8565b60405180910390fd5b6000610f386112f0565b90506000610f446112c3565b905060005b855181101561105357610fdd826000016000888481518110610f6757fe5b6020026020010151815260200190815260200160002060008973ffffffffffffffffffffffffffffffffffffffff1673ffffffffffffffffffffffffffffffffffffffff16815260200190815260200160002054868381518110610fc757fe5b6020026020010151610e3690919063ffffffff16565b826000016000888481518110610fef57fe5b6020026020010151815260200190815260200160002060008973ffffffffffffffffffffffffffffffffffffffff1673ffffffffffffffffffffffffffffffffffffffff168152602001908152602001600020819055508080600101915050610f49565b508573ffffffffffffffffffffffffffffffffffffffff16600073ffffffffffffffffffffffffffffffffffffffff168373ffffffffffffffffffffffffffffffffffffffff167f4a39dc06d4c0dbc64b70af90fd698a233a518aa5d07e595d983b8c0526c8f7fb88886040516110cb9291906120f7565b60405180910390a46110e2826000888888886113b8565b505050505050565b600073ffffffffffffffffffffffffffffffffffffffff168473ffffffffffffffffffffffffffffffffffffffff16141561115a576040517f08c379a0000000000000000000000000000000000000000000000000000000008152600401611151906122d8565b60405180910390fd5b60006111646112f0565b905060006111706112c3565b90506111d78482600001600088815260200190815260200160002060008973ffffffffffffffffffffffffffffffffffffffff1673ffffffffffffffffffffffffffffffffffffffff16815260200190815260200160002054610e3690919063ffffffff16565b81600001600087815260200190815260200160002060008873ffffffffffffffffffffffffffffffffffffffff1673ffffffffffffffffffffffffffffffffffffffff168152602001908152602001600020819055508573ffffffffffffffffffffffffffffffffffffffff16600073ffffffffffffffffffffffffffffffffffffffff168373ffffffffffffffffffffffffffffffffffffffff167fc3d58168c5ae7397731d063d5bbf3d657854427343f4c083240f7aacaa2d0f6288886040516112a4929190612313565b60405180910390a46112bb826000888888886114ea565b505050505050565b6000807fd1fd1ec9eb6f457e5e32da0d2921ff6daf7fd2085ec060a076b391ca2400b28290508091505090565b600033905090565b60008383111582906113a5576040517f08c379a00000000000000000000000000000000000000000000000000000000081526004018080602001828103825283818151815260200191508051906020019080838360005b8381101561136a57808201518184015260208101905061134f565b50505050905090810190601f1680156113975780820380516001836020036101000a031916815260200191505b509250505060405180910390fd5b5060008385039050809150509392505050565b6000843b905060008111156114e1578473ffffffffffffffffffffffffffffffffffffffff1663bc197c8188888787876040518663ffffffff1660e01b8152600401611408959493929190612035565b602060405180830381600087803b15801561142257600080fd5b505af1158015611436573d6000803e3d6000fd5b505050506040513d601f19601f8201168201806040525081019061145a91906119ab565b7bffffffffffffffffffffffffffffffffffffffffffffffffffffffff191663bc197c8160e01b7bffffffffffffffffffffffffffffffffffffffffffffffffffffffff1916146114e0576040517f08c379a00000000000000000000000000000000000000000000000000000000081526004016114d7906121f8565b60405180910390fd5b5b50505050505050565b6000843b90506000811115611613578473ffffffffffffffffffffffffffffffffffffffff1663f23a6e6188888787876040518663ffffffff1660e01b815260040161153a95949392919061209d565b602060405180830381600087803b15801561155457600080fd5b505af1158015611568573d6000803e3d6000fd5b505050506040513d601f19601f8201168201806040525081019061158c91906119ab565b7bffffffffffffffffffffffffffffffffffffffffffffffffffffffff191663f23a6e6160e01b7bffffffffffffffffffffffffffffffffffffffffffffffffffffffff191614611612576040517f08c379a0000000000000000000000000000000000000000000000000000000008152600401611609906121b8565b60405180910390fd5b5b50505050505050565b6040518060a00160405280600073ffffffffffffffffffffffffffffffffffffffff168152602001600073ffffffffffffffffffffffffffffffffffffffff1681526020016000815260200160008152602001600081525090565b600061168a6116858461236d565b61233c565b905080838252602082019050828560208602820111156116a957600080fd5b60005b858110156116d957816116bf88826117f5565b8452602084019350602083019250506001810190506116ac565b5050509392505050565b6000813590506116f28161250f565b92915050565b60008083601f84011261170a57600080fd5b8235905067ffffffffffffffff81111561172357600080fd5b60208301915083602082028301111561173b57600080fd5b9250929050565b60008083601f84011261175457600080fd5b8235905067ffffffffffffffff81111561176d57600080fd5b60208301915083602082028301111561178557600080fd5b9250929050565b600082601f83011261179d57600080fd5b81356117ad848260208601611677565b91505092915050565b6000813590506117c581612526565b92915050565b6000815190506117da8161253d565b92915050565b6000813590506117ef81612554565b92915050565b6000813590506118048161256b565b92915050565b60008135905061181981612582565b92915050565b600080600080600080600080600060e08a8c03121561183d57600080fd5b600061184b8c828d016116e3565b99505060208a013567ffffffffffffffff81111561186857600080fd5b6118748c828d0161178c565b98505060408a013567ffffffffffffffff81111561189157600080fd5b61189d8c828d016116f8565b975097505060608a013567ffffffffffffffff8111156118bc57600080fd5b6118c88c828d01611742565b955095505060806118db8c828d0161180a565b93505060a06118ec8c828d016117b6565b92505060c06118fd8c828d016117b6565b9150509295985092959850929598565b600080600080600080600060e0888a03121561192857600080fd5b60006119368a828b016116e3565b97505060206119478a828b016117f5565b96505060406119588a828b016117e0565b95505060606119698a828b016117f5565b945050608061197a8a828b0161180a565b93505060a061198b8a828b016117b6565b92505060c061199c8a828b016117b6565b91505092959891949750929550565b6000602082840312156119bd57600080fd5b60006119cb848285016117cb565b91505092915050565b6000602082840312156119e657600080fd5b60006119f4848285016117e0565b91505092915050565b600060208284031215611a0f57600080fd5b6000611a1d848285016117f5565b91505092915050565b600080600080600060a08688031215611a3e57600080fd5b6000611a4c888289016117f5565b9550506020611a5d888289016117f5565b9450506040611a6e8882890161180a565b9350506060611a7f888289016117b6565b9250506080611a90888289016117b6565b9150509295509295909350565b6000611aa98383611fd1565b60208301905092915050565b611abe8161240a565b82525050565b611acd8161240a565b82525050565b6000611ade826123a9565b611ae881856123cc565b9350611af383612399565b8060005b83811015611b24578151611b0b8882611a9d565b9750611b16836123bf565b925050600181019050611af7565b5085935050505092915050565b611b3a8161241c565b82525050565b611b51611b4c8261241c565b6124f2565b82525050565b6000611b62826123b4565b611b6c81856123dd565b9350611b7c8185602086016124bf565b611b85816124fe565b840191505092915050565b611b998161249b565b82525050565b6000611bac6034836123ee565b91507f455243313135353a207472616e7366657220746f206e6f6e204552433131353560008301527f526563656976657220696d706c656d656e7465720000000000000000000000006020830152604082019050919050565b6000611c126015836123ee565b91507f5175616c6c612f696e76616c69642d7065726d697400000000000000000000006000830152602082019050919050565b6000611c526028836123ee565b91507f455243313135353a204552433131353552656365697665722072656a6563746560008301527f6420746f6b656e730000000000000000000000000000000000000000000000006020830152604082019050919050565b6000611cb86031836123ee565b91507f5175616c6c613a20616d6f756e747320616e64207061796d656e74546f6b656e60008301527f73206c656e677468206d69736d617463680000000000000000000000000000006020830152604082019050919050565b6000611d1e6002836123ff565b91507f19010000000000000000000000000000000000000000000000000000000000006000830152600282019050919050565b6000611d5e601b836123ee565b91507f5175616c6c612f496e76616c69642d7061796d656e74546f6b656e00000000006000830152602082019050919050565b6000611d9e6023836123ee565b91507f455243313135353a206275726e2066726f6d20746865207a65726f206164647260008301527f65737300000000000000000000000000000000000000000000000000000000006020830152604082019050919050565b6000611e046017836123ee565b91507f5175616c6c612f57726f6e672d546f6b656e2d547970650000000000000000006000830152602082019050919050565b6000611e446021836123ee565b91507f5175616c6c612f496e76616c69642d537562736372697074696f6e2d496e646560008301527f78000000000000000000000000000000000000000000000000000000000000006020830152604082019050919050565b6000611eaa6031836123ee565b91507f5175616c6c613a20616d6f756e747320616e64207061796d656e7456616c756560008301527f73206c656e677468206d69736d617463680000000000000000000000000000006020830152604082019050919050565b6000611f106021836123ee565b91507f455243313135353a206d696e7420746f20746865207a65726f2061646472657360008301527f73000000000000000000000000000000000000000000000000000000000000006020830152604082019050919050565b60a082016000820151611f7f6000850182611ab5565b506020820151611f926020850182611b90565b506040820151611fa56040850182611fd1565b506060820151611fb86060850182611fd1565b506080820151611fcb6080850182611fd1565b50505050565b611fda81612484565b82525050565b611fe981612484565b82525050565b611ff88161248e565b82525050565b600061200982611d11565b91506120158285611b40565b6020820191506120258284611b40565b6020820191508190509392505050565b600060a08201905061204a6000830188611ac4565b6120576020830187611ac4565b81810360408301526120698186611ad3565b9050818103606083015261207d8185611ad3565b905081810360808301526120918184611b57565b90509695505050505050565b600060a0820190506120b26000830188611ac4565b6120bf6020830187611ac4565b6120cc6040830186611fe0565b6120d96060830185611fe0565b81810360808301526120eb8184611b57565b90509695505050505050565b600060408201905081810360008301526121118185611ad3565b905081810360208301526121258184611ad3565b90509392505050565b60006080820190506121436000830187611b31565b6121506020830186611ac4565b61215d6040830185611fe0565b61216a6060830184611b31565b95945050505050565b60006080820190506121886000830187611b31565b6121956020830186611fef565b6121a26040830185611b31565b6121af6060830184611b31565b95945050505050565b600060208201905081810360008301526121d181611b9f565b9050919050565b600060208201905081810360008301526121f181611c05565b9050919050565b6000602082019050818103600083015261221181611c45565b9050919050565b6000602082019050818103600083015261223181611cab565b9050919050565b6000602082019050818103600083015261225181611d51565b9050919050565b6000602082019050818103600083015261227181611d91565b9050919050565b6000602082019050818103600083015261229181611df7565b9050919050565b600060208201905081810360008301526122b181611e37565b9050919050565b600060208201905081810360008301526122d181611e9d565b9050919050565b600060208201905081810360008301526122f181611f03565b9050919050565b600060a08201905061230d6000830184611f69565b92915050565b60006040820190506123286000830185611fe0565b6123356020830184611fe0565b9392505050565b6000604051905081810181811067ffffffffffffffff82111715612363576123626124fc565b5b8060405250919050565b600067ffffffffffffffff821115612388576123876124fc565b5b602082029050602081019050919050565b6000819050602082019050919050565b600081519050919050565b600081519050919050565b6000602082019050919050565b600082825260208201905092915050565b600082825260208201905092915050565b600082825260208201905092915050565b600081905092915050565b600061241582612464565b9050919050565b6000819050919050565b60007fffffffff0000000000000000000000000000000000000000000000000000000082169050919050565b600061245d8261240a565b9050919050565b600073ffffffffffffffffffffffffffffffffffffffff82169050919050565b6000819050919050565b600060ff82169050919050565b60006124a6826124ad565b9050919050565b60006124b882612464565b9050919050565b60005b838110156124dd5780820151818401526020810190506124c2565b838111156124ec576000848401525b50505050565b6000819050919050565bfe5b6000601f19601f8301169050919050565b6125188161240a565b811461252357600080fd5b50565b61252f8161241c565b811461253a57600080fd5b50565b61254681612426565b811461255157600080fd5b50565b61255d81612452565b811461256857600080fd5b50565b61257481612484565b811461257f57600080fd5b50565b61258b8161248e565b811461259657600080fd5b5056fe455243313135353a206275726e20616d6f756e7420657863656564732062616c616e6365a26469706673582212206e9d8b81607dd04f74d619878092a79b5baa034a14cac56426b59052d5b2d70d64736f6c63430007060033",
  "linkReferences": {},
  "deployedLinkReferences": {}
}