{
  "_format": "hh-sol-artifact-1",
  "contractName": "BaseTokenFacet",
  "sourceName": "contracts/facets/BaseTokenFacet.sol",
  "abi": [
    {
      "inputs": [
        {
          "internalType": "uint256",
          "name": "id",
          "type": "uint256"
        },
        {
          "internalType": "uint256",
          "name": "amount",
          "type": "uint256"
        },
        {
          "internalType": "uint8",
          "name": "v",
          "type": "uint8"
        },
        {
          "internalType": "bytes32",
          "name": "r",
          "type": "bytes32"
        },
        {
          "internalType": "bytes32",
          "name": "s",
          "type": "bytes32"
        }
      ],
      "name": "burnBase",
      "outputs": [],
      "stateMutability": "nonpayable",
      "type": "function"
    },
    {
      "inputs": [
        {
          "internalType": "uint256",
          "name": "id",
          "type": "uint256"
        }
      ],
      "name": "getBaseToken",
      "outputs": [
        {
          "components": [
            {
              "internalType": "address",
              "name": "creator",
              "type": "address"
            },
            {
              "internalType": "contract IERC20",
              "name": "paymentToken",
              "type": "address"
            },
            {
              "internalType": "uint256",
              "name": "flowRate",
              "type": "uint256"
            },
            {
              "internalType": "uint256",
              "name": "nonce",
              "type": "uint256"
            },
            {
              "internalType": "uint256",
              "name": "activeBeams",
              "type": "uint256"
            }
          ],
          "internalType": "struct BaseToken",
          "name": "",
          "type": "tuple"
        }
      ],
      "stateMutability": "view",
      "type": "function"
    },
    {
      "inputs": [
        {
          "internalType": "address",
          "name": "creator",
          "type": "address"
        },
        {
          "internalType": "uint256",
          "name": "amount",
          "type": "uint256"
        },
        {
          "internalType": "contract IERC20",
          "name": "paymentToken",
          "type": "address"
        },
        {
          "internalType": "uint256",
          "name": "flowRate",
          "type": "uint256"
        },
        {
          "internalType": "uint8",
          "name": "v",
          "type": "uint8"
        },
        {
          "internalType": "bytes32",
          "name": "r",
          "type": "bytes32"
        },
        {
          "internalType": "bytes32",
          "name": "s",
          "type": "bytes32"
        }
      ],
      "name": "mintBase",
      "outputs": [],
      "stateMutability": "nonpayable",
      "type": "function"
    },
    {
      "inputs": [
        {
          "internalType": "address",
          "name": "creator",
          "type": "address"
        },
        {
          "internalType": "uint256[]",
          "name": "amounts",
          "type": "uint256[]"
        },
        {
          "internalType": "contract IERC20[]",
          "name": "paymentTokens",
          "type": "address[]"
        },
        {
          "internalType": "uint256[]",
          "name": "flowRates",
          "type": "uint256[]"
        },
        {
          "internalType": "uint8",
          "name": "v",
          "type": "uint8"
        },
        {
          "internalType": "bytes32",
          "name": "r",
          "type": "bytes32"
        },
        {
          "internalType": "bytes32",
          "name": "s",
          "type": "bytes32"
        }
      ],
      "name": "mintBatchBase",
      "outputs": [],
      "stateMutability": "nonpayable",
      "type": "function"
    }
  ],
  "bytecode": "0x608060405234801561001057600080fd5b50612679806100206000396000f3fe608060405234801561001057600080fd5b506004361061004c5760003560e01c806392fcf31614610051578063ac4e17e31461006d578063bbf9ff0814610089578063ffb651e0146100a5575b600080fd5b61006b60048036038101906100669190611aac565b6100d5565b005b610087600480360381019061008291906118a5565b610243565b005b6100a3600480360381019061009e9190611993565b61069b565b005b6100bf60048036038101906100ba9190611a83565b61095d565b6040516100cc919061237e565b60405180910390f35b60007f800000000000000000000000000000000000000000000000000000000000000086161461013a576040517f08c379a00000000000000000000000000000000000000000000000000000000081526004016101319061231e565b60405180910390fd5b60007fffffffffffffffffffffffffffffffffffffffffffffffffffffffffffffffff6fffffffffffffffffffffffffffffffff168616146101b1576040517f08c379a00000000000000000000000000000000000000000000000000000000081526004016101a89061233e565b60405180910390fd5b600080600001600087815260200190815260200160002060000160009054906101000a900473ffffffffffffffffffffffffffffffffffffffff169050610230816040518060400160405280600481526020017f6275726e00000000000000000000000000000000000000000000000000000000815250868686610abc565b61023b818787610cd9565b505050505050565b86869050885114610289576040517f08c379a00000000000000000000000000000000000000000000000000000000081526004016102809061229e565b60405180910390fd5b848490508851146102cf576040517f08c379a00000000000000000000000000000000000000000000000000000000081526004016102c6906122de565b60405180910390fd5b610311896040518060400160405280600481526020017f6d696e7400000000000000000000000000000000000000000000000000000000815250858585610abc565b6000885167ffffffffffffffff8111801561032b57600080fd5b5060405190808252806020026020018201604052801561035a5781602001602082028036833780820191505090505b50905060005b895181101561067357600073ffffffffffffffffffffffffffffffffffffffff16600060050160008b8b8581811061039457fe5b90506020020160208101906103a99190611a5a565b73ffffffffffffffffffffffffffffffffffffffff1673ffffffffffffffffffffffffffffffffffffffff16815260200190815260200160002060009054906101000a900473ffffffffffffffffffffffffffffffffffffffff1673ffffffffffffffffffffffffffffffffffffffff16141561045b576040517f08c379a0000000000000000000000000000000000000000000000000000000008152600401610452906122be565b60405180910390fd5b60008a828151811061046957fe5b602002602001015114156104b1577fffffffffffffffffffffffffffffffffffffffffffffffffffffffffffffffff8a82815181106104a457fe5b6020026020010181815250505b60806104cc6001600060070154610ebc90919063ffffffff16565b901b8282815181106104da57fe5b6020026020010181815250506040518060a001604052808c73ffffffffffffffffffffffffffffffffffffffff1681526020018a8a8481811061051957fe5b905060200201602081019061052e9190611a5a565b73ffffffffffffffffffffffffffffffffffffffff16815260200188888481811061055557fe5b90506020020135815260200160018152602001600081525060008001600084848151811061057f57fe5b6020026020010151815260200190815260200160002060008201518160000160006101000a81548173ffffffffffffffffffffffffffffffffffffffff021916908373ffffffffffffffffffffffffffffffffffffffff16021790555060208201518160010160006101000a81548173ffffffffffffffffffffffffffffffffffffffff021916908373ffffffffffffffffffffffffffffffffffffffff16021790555060408201518160020155606082015181600301556080820151816004015590505061065d6001600060070154610ebc90919063ffffffff16565b6000600701819055508080600101915050610360565b5061068f8a828b60405180602001604052806000815250610f44565b50505050505050505050565b6106dd876040518060400160405280600481526020017f6d696e7400000000000000000000000000000000000000000000000000000000815250858585610abc565b600073ffffffffffffffffffffffffffffffffffffffff16600060050160008773ffffffffffffffffffffffffffffffffffffffff1673ffffffffffffffffffffffffffffffffffffffff16815260200190815260200160002060009054906101000a900473ffffffffffffffffffffffffffffffffffffffff1673ffffffffffffffffffffffffffffffffffffffff1614156107af576040517f08c379a00000000000000000000000000000000000000000000000000000000081526004016107a6906122be565b60405180910390fd5b60008614156107dc577fffffffffffffffffffffffffffffffffffffffffffffffffffffffffffffffff95505b600060806107f96001600060070154610ebc90919063ffffffff16565b901b90506040518060a001604052808973ffffffffffffffffffffffffffffffffffffffff1681526020018773ffffffffffffffffffffffffffffffffffffffff16815260200186815260200160018152602001600081525060008001600083815260200190815260200160002060008201518160000160006101000a81548173ffffffffffffffffffffffffffffffffffffffff021916908373ffffffffffffffffffffffffffffffffffffffff16021790555060208201518160010160006101000a81548173ffffffffffffffffffffffffffffffffffffffff021916908373ffffffffffffffffffffffffffffffffffffffff16021790555060408201518160020155606082015181600301556080820151816004015590505061092f6001600060070154610ebc90919063ffffffff16565b60006007018190555061095388828960405180602001604052806000815250611170565b5050505050505050565b6109656116a2565b61096d6116a2565b60008001600084815260200190815260200160002060000160009054906101000a900473ffffffffffffffffffffffffffffffffffffffff16816000019073ffffffffffffffffffffffffffffffffffffffff16908173ffffffffffffffffffffffffffffffffffffffff168152505060008001600084815260200190815260200160002060010160009054906101000a900473ffffffffffffffffffffffffffffffffffffffff16816020019073ffffffffffffffffffffffffffffffffffffffff16908173ffffffffffffffffffffffffffffffffffffffff168152505060008001600084815260200190815260200160002060020154816040018181525050600080016000848152602001908152602001600020600301548160600181815250506000800160008481526020019081526020016000206004015481608001818152505080915050919050565b6000610ac6611349565b9050600081600301548260040154888460020160008b73ffffffffffffffffffffffffffffffffffffffff1673ffffffffffffffffffffffffffffffffffffffff168152602001908152602001600020600001548980519060200120604051602001610b3594939291906121b4565b60405160208183030381529060405280519060200120604051602001610b5c929190612084565b60405160208183030381529060405280519060200120905060018186868660405160008152602001604052604051610b9794939291906121f9565b6020604051602081039080840390855afa158015610bb9573d6000803e3d6000fd5b5050506020604051035173ffffffffffffffffffffffffffffffffffffffff168773ffffffffffffffffffffffffffffffffffffffff1614610c30576040517f08c379a0000000000000000000000000000000000000000000000000000000008152600401610c279061225e565b60405180910390fd5b610c8860018360020160008a73ffffffffffffffffffffffffffffffffffffffff1673ffffffffffffffffffffffffffffffffffffffff16815260200190815260200160002060000154610ebc90919063ffffffff16565b8260020160008973ffffffffffffffffffffffffffffffffffffffff1673ffffffffffffffffffffffffffffffffffffffff1681526020019081526020016000206000018190555050505050505050565b600073ffffffffffffffffffffffffffffffffffffffff168373ffffffffffffffffffffffffffffffffffffffff161415610d49576040517f08c379a0000000000000000000000000000000000000000000000000000000008152600401610d40906122fe565b60405180910390fd5b6000610d53611376565b90506000610d5f611349565b9050610de0836040518060600160405280602481526020016126206024913983600001600088815260200190815260200160002060008973ffffffffffffffffffffffffffffffffffffffff1673ffffffffffffffffffffffffffffffffffffffff1681526020019081526020016000205461137e9092919063ffffffff16565b81600001600086815260200190815260200160002060008773ffffffffffffffffffffffffffffffffffffffff1673ffffffffffffffffffffffffffffffffffffffff16815260200190815260200160002081905550600073ffffffffffffffffffffffffffffffffffffffff168573ffffffffffffffffffffffffffffffffffffffff168373ffffffffffffffffffffffffffffffffffffffff167fc3d58168c5ae7397731d063d5bbf3d657854427343f4c083240f7aacaa2d0f628787604051610ead929190612399565b60405180910390a45050505050565b600080828401905083811015610f3a576040517f08c379a000000000000000000000000000000000000000000000000000000000815260040180806020018281038252601b8152602001807f536166654d6174683a206164646974696f6e206f766572666c6f77000000000081525060200191505060405180910390fd5b8091505092915050565b600073ffffffffffffffffffffffffffffffffffffffff168473ffffffffffffffffffffffffffffffffffffffff161415610fb4576040517f08c379a0000000000000000000000000000000000000000000000000000000008152600401610fab9061235e565b60405180910390fd5b6000610fbe611376565b90506000610fca611349565b905060005b85518110156110d957611063826000016000888481518110610fed57fe5b6020026020010151815260200190815260200160002060008973ffffffffffffffffffffffffffffffffffffffff1673ffffffffffffffffffffffffffffffffffffffff1681526020019081526020016000205486838151811061104d57fe5b6020026020010151610ebc90919063ffffffff16565b82600001600088848151811061107557fe5b6020026020010151815260200190815260200160002060008973ffffffffffffffffffffffffffffffffffffffff1673ffffffffffffffffffffffffffffffffffffffff168152602001908152602001600020819055508080600101915050610fcf565b508573ffffffffffffffffffffffffffffffffffffffff16600073ffffffffffffffffffffffffffffffffffffffff168373ffffffffffffffffffffffffffffffffffffffff167f4a39dc06d4c0dbc64b70af90fd698a233a518aa5d07e595d983b8c0526c8f7fb888860405161115192919061217d565b60405180910390a46111688260008888888861143e565b505050505050565b600073ffffffffffffffffffffffffffffffffffffffff168473ffffffffffffffffffffffffffffffffffffffff1614156111e0576040517f08c379a00000000000000000000000000000000000000000000000000000000081526004016111d79061235e565b60405180910390fd5b60006111ea611376565b905060006111f6611349565b905061125d8482600001600088815260200190815260200160002060008973ffffffffffffffffffffffffffffffffffffffff1673ffffffffffffffffffffffffffffffffffffffff16815260200190815260200160002054610ebc90919063ffffffff16565b81600001600087815260200190815260200160002060008873ffffffffffffffffffffffffffffffffffffffff1673ffffffffffffffffffffffffffffffffffffffff168152602001908152602001600020819055508573ffffffffffffffffffffffffffffffffffffffff16600073ffffffffffffffffffffffffffffffffffffffff168373ffffffffffffffffffffffffffffffffffffffff167fc3d58168c5ae7397731d063d5bbf3d657854427343f4c083240f7aacaa2d0f62888860405161132a929190612399565b60405180910390a461134182600088888888611570565b505050505050565b6000807fd1fd1ec9eb6f457e5e32da0d2921ff6daf7fd2085ec060a076b391ca2400b28290508091505090565b600033905090565b600083831115829061142b576040517f08c379a00000000000000000000000000000000000000000000000000000000081526004018080602001828103825283818151815260200191508051906020019080838360005b838110156113f05780820151818401526020810190506113d5565b50505050905090810190601f16801561141d5780820380516001836020036101000a031916815260200191505b509250505060405180910390fd5b5060008385039050809150509392505050565b6000843b90506000811115611567578473ffffffffffffffffffffffffffffffffffffffff1663bc197c8188888787876040518663ffffffff1660e01b815260040161148e9594939291906120bb565b602060405180830381600087803b1580156114a857600080fd5b505af11580156114bc573d6000803e3d6000fd5b505050506040513d601f19601f820116820180604052508101906114e09190611a31565b7bffffffffffffffffffffffffffffffffffffffffffffffffffffffff191663bc197c8160e01b7bffffffffffffffffffffffffffffffffffffffffffffffffffffffff191614611566576040517f08c379a000000000000000000000000000000000000000000000000000000000815260040161155d9061227e565b60405180910390fd5b5b50505050505050565b6000843b90506000811115611699578473ffffffffffffffffffffffffffffffffffffffff1663f23a6e6188888787876040518663ffffffff1660e01b81526004016115c0959493929190612123565b602060405180830381600087803b1580156115da57600080fd5b505af11580156115ee573d6000803e3d6000fd5b505050506040513d601f19601f820116820180604052508101906116129190611a31565b7bffffffffffffffffffffffffffffffffffffffffffffffffffffffff191663f23a6e6160e01b7bffffffffffffffffffffffffffffffffffffffffffffffffffffffff191614611698576040517f08c379a000000000000000000000000000000000000000000000000000000000815260040161168f9061223e565b60405180910390fd5b5b50505050505050565b6040518060a00160405280600073ffffffffffffffffffffffffffffffffffffffff168152602001600073ffffffffffffffffffffffffffffffffffffffff1681526020016000815260200160008152602001600081525090565b600061171061170b846123f3565b6123c2565b9050808382526020820190508285602086028201111561172f57600080fd5b60005b8581101561175f5781611745888261187b565b845260208401935060208301925050600181019050611732565b5050509392505050565b60008135905061177881612595565b92915050565b60008083601f84011261179057600080fd5b8235905067ffffffffffffffff8111156117a957600080fd5b6020830191508360208202830111156117c157600080fd5b9250929050565b60008083601f8401126117da57600080fd5b8235905067ffffffffffffffff8111156117f357600080fd5b60208301915083602082028301111561180b57600080fd5b9250929050565b600082601f83011261182357600080fd5b81356118338482602086016116fd565b91505092915050565b60008135905061184b816125ac565b92915050565b600081519050611860816125c3565b92915050565b600081359050611875816125da565b92915050565b60008135905061188a816125f1565b92915050565b60008135905061189f81612608565b92915050565b600080600080600080600080600060e08a8c0312156118c357600080fd5b60006118d18c828d01611769565b99505060208a013567ffffffffffffffff8111156118ee57600080fd5b6118fa8c828d01611812565b98505060408a013567ffffffffffffffff81111561191757600080fd5b6119238c828d0161177e565b975097505060608a013567ffffffffffffffff81111561194257600080fd5b61194e8c828d016117c8565b955095505060806119618c828d01611890565b93505060a06119728c828d0161183c565b92505060c06119838c828d0161183c565b9150509295985092959850929598565b600080600080600080600060e0888a0312156119ae57600080fd5b60006119bc8a828b01611769565b97505060206119cd8a828b0161187b565b96505060406119de8a828b01611866565b95505060606119ef8a828b0161187b565b9450506080611a008a828b01611890565b93505060a0611a118a828b0161183c565b92505060c0611a228a828b0161183c565b91505092959891949750929550565b600060208284031215611a4357600080fd5b6000611a5184828501611851565b91505092915050565b600060208284031215611a6c57600080fd5b6000611a7a84828501611866565b91505092915050565b600060208284031215611a9557600080fd5b6000611aa38482850161187b565b91505092915050565b600080600080600060a08688031215611ac457600080fd5b6000611ad28882890161187b565b9550506020611ae38882890161187b565b9450506040611af488828901611890565b9350506060611b058882890161183c565b9250506080611b168882890161183c565b9150509295509295909350565b6000611b2f8383612057565b60208301905092915050565b611b4481612490565b82525050565b611b5381612490565b82525050565b6000611b648261242f565b611b6e8185612452565b9350611b798361241f565b8060005b83811015611baa578151611b918882611b23565b9750611b9c83612445565b925050600181019050611b7d565b5085935050505092915050565b611bc0816124a2565b82525050565b611bd7611bd2826124a2565b612578565b82525050565b6000611be88261243a565b611bf28185612463565b9350611c02818560208601612545565b611c0b81612584565b840191505092915050565b611c1f81612521565b82525050565b6000611c32603483612474565b91507f455243313135353a207472616e7366657220746f206e6f6e204552433131353560008301527f526563656976657220696d706c656d656e7465720000000000000000000000006020830152604082019050919050565b6000611c98601583612474565b91507f5175616c6c612f696e76616c69642d7065726d697400000000000000000000006000830152602082019050919050565b6000611cd8602883612474565b91507f455243313135353a204552433131353552656365697665722072656a6563746560008301527f6420746f6b656e730000000000000000000000000000000000000000000000006020830152604082019050919050565b6000611d3e603183612474565b91507f5175616c6c613a20616d6f756e747320616e64207061796d656e74546f6b656e60008301527f73206c656e677468206d69736d617463680000000000000000000000000000006020830152604082019050919050565b6000611da4600283612485565b91507f19010000000000000000000000000000000000000000000000000000000000006000830152600282019050919050565b6000611de4601b83612474565b91507f5175616c6c612f496e76616c69642d7061796d656e74546f6b656e00000000006000830152602082019050919050565b6000611e24603283612474565b91507f455243313135353a20616d6f756e747320616e64207061796d656e7456616c7560008301527f6573206c656e677468206d69736d6174636800000000000000000000000000006020830152604082019050919050565b6000611e8a602383612474565b91507f455243313135353a206275726e2066726f6d20746865207a65726f206164647260008301527f65737300000000000000000000000000000000000000000000000000000000006020830152604082019050919050565b6000611ef0601783612474565b91507f5175616c6c612f57726f6e672d546f6b656e2d547970650000000000000000006000830152602082019050919050565b6000611f30602183612474565b91507f5175616c6c612f496e76616c69642d537562736372697074696f6e2d496e646560008301527f78000000000000000000000000000000000000000000000000000000000000006020830152604082019050919050565b6000611f96602183612474565b91507f455243313135353a206d696e7420746f20746865207a65726f2061646472657360008301527f73000000000000000000000000000000000000000000000000000000000000006020830152604082019050919050565b60a0820160008201516120056000850182611b3b565b5060208201516120186020850182611c16565b50604082015161202b6040850182612057565b50606082015161203e6060850182612057565b5060808201516120516080850182612057565b50505050565b6120608161250a565b82525050565b61206f8161250a565b82525050565b61207e81612514565b82525050565b600061208f82611d97565b915061209b8285611bc6565b6020820191506120ab8284611bc6565b6020820191508190509392505050565b600060a0820190506120d06000830188611b4a565b6120dd6020830187611b4a565b81810360408301526120ef8186611b59565b905081810360608301526121038185611b59565b905081810360808301526121178184611bdd565b90509695505050505050565b600060a0820190506121386000830188611b4a565b6121456020830187611b4a565b6121526040830186612066565b61215f6060830185612066565b81810360808301526121718184611bdd565b90509695505050505050565b600060408201905081810360008301526121978185611b59565b905081810360208301526121ab8184611b59565b90509392505050565b60006080820190506121c96000830187611bb7565b6121d66020830186611b4a565b6121e36040830185612066565b6121f06060830184611bb7565b95945050505050565b600060808201905061220e6000830187611bb7565b61221b6020830186612075565b6122286040830185611bb7565b6122356060830184611bb7565b95945050505050565b6000602082019050818103600083015261225781611c25565b9050919050565b6000602082019050818103600083015261227781611c8b565b9050919050565b6000602082019050818103600083015261229781611ccb565b9050919050565b600060208201905081810360008301526122b781611d31565b9050919050565b600060208201905081810360008301526122d781611dd7565b9050919050565b600060208201905081810360008301526122f781611e17565b9050919050565b6000602082019050818103600083015261231781611e7d565b9050919050565b6000602082019050818103600083015261233781611ee3565b9050919050565b6000602082019050818103600083015261235781611f23565b9050919050565b6000602082019050818103600083015261237781611f89565b9050919050565b600060a0820190506123936000830184611fef565b92915050565b60006040820190506123ae6000830185612066565b6123bb6020830184612066565b9392505050565b6000604051905081810181811067ffffffffffffffff821117156123e9576123e8612582565b5b8060405250919050565b600067ffffffffffffffff82111561240e5761240d612582565b5b602082029050602081019050919050565b6000819050602082019050919050565b600081519050919050565b600081519050919050565b6000602082019050919050565b600082825260208201905092915050565b600082825260208201905092915050565b600082825260208201905092915050565b600081905092915050565b600061249b826124ea565b9050919050565b6000819050919050565b60007fffffffff0000000000000000000000000000000000000000000000000000000082169050919050565b60006124e382612490565b9050919050565b600073ffffffffffffffffffffffffffffffffffffffff82169050919050565b6000819050919050565b600060ff82169050919050565b600061252c82612533565b9050919050565b600061253e826124ea565b9050919050565b60005b83811015612563578082015181840152602081019050612548565b83811115612572576000848401525b50505050565b6000819050919050565bfe5b6000601f19601f8301169050919050565b61259e81612490565b81146125a957600080fd5b50565b6125b5816124a2565b81146125c057600080fd5b50565b6125cc816124ac565b81146125d757600080fd5b50565b6125e3816124d8565b81146125ee57600080fd5b50565b6125fa8161250a565b811461260557600080fd5b50565b61261181612514565b811461261c57600080fd5b5056fe455243313135353a206275726e20616d6f756e7420657863656564732062616c616e6365a264697066735822122053d696aa7f08659296c1f35f01f2c5ba4eaeec2ebb69f5662be0f4355cdeb22464736f6c63430007060033",
  "linkReferences": {},
  "deployedLinkReferences": {}
}