{
  "_format": "hh-sol-artifact-1",
  "contractName": "QuallaNFT",
  "sourceName": "contracts/QuallaNFT.sol",
  "abi": [
    {
      "inputs": [
        {
          "internalType": "string",
          "name": "uri_",
          "type": "string"
        },
        {
          "internalType": "uint256",
          "name": "chainId_",
          "type": "uint256"
        }
      ],
      "stateMutability": "nonpayable",
      "type": "constructor"
    },
    {
      "anonymous": false,
      "inputs": [
        {
          "indexed": true,
          "internalType": "address",
          "name": "account",
          "type": "address"
        },
        {
          "indexed": true,
          "internalType": "address",
          "name": "operator",
          "type": "address"
        },
        {
          "indexed": false,
          "internalType": "bool",
          "name": "approved",
          "type": "bool"
        }
      ],
      "name": "ApprovalForAll",
      "type": "event"
    },
    {
      "anonymous": false,
      "inputs": [
        {
          "indexed": true,
          "internalType": "address",
          "name": "operator",
          "type": "address"
        },
        {
          "indexed": true,
          "internalType": "address",
          "name": "from",
          "type": "address"
        },
        {
          "indexed": true,
          "internalType": "address",
          "name": "to",
          "type": "address"
        },
        {
          "indexed": false,
          "internalType": "uint256[]",
          "name": "ids",
          "type": "uint256[]"
        },
        {
          "indexed": false,
          "internalType": "uint256[]",
          "name": "values",
          "type": "uint256[]"
        }
      ],
      "name": "TransferBatch",
      "type": "event"
    },
    {
      "anonymous": false,
      "inputs": [
        {
          "indexed": true,
          "internalType": "address",
          "name": "operator",
          "type": "address"
        },
        {
          "indexed": true,
          "internalType": "address",
          "name": "from",
          "type": "address"
        },
        {
          "indexed": true,
          "internalType": "address",
          "name": "to",
          "type": "address"
        },
        {
          "indexed": false,
          "internalType": "uint256",
          "name": "id",
          "type": "uint256"
        },
        {
          "indexed": false,
          "internalType": "uint256",
          "name": "value",
          "type": "uint256"
        }
      ],
      "name": "TransferSingle",
      "type": "event"
    },
    {
      "anonymous": false,
      "inputs": [
        {
          "indexed": false,
          "internalType": "string",
          "name": "value",
          "type": "string"
        },
        {
          "indexed": true,
          "internalType": "uint256",
          "name": "id",
          "type": "uint256"
        }
      ],
      "name": "URI",
      "type": "event"
    },
    {
      "anonymous": false,
      "inputs": [
        {
          "indexed": false,
          "internalType": "address",
          "name": "master",
          "type": "address"
        },
        {
          "indexed": false,
          "internalType": "uint256",
          "name": "fee",
          "type": "uint256"
        }
      ],
      "name": "contractModified",
      "type": "event"
    },
    {
      "inputs": [],
      "name": "DOMAIN_SEPARATOR",
      "outputs": [
        {
          "internalType": "bytes32",
          "name": "",
          "type": "bytes32"
        }
      ],
      "stateMutability": "view",
      "type": "function"
    },
    {
      "inputs": [],
      "name": "USER_TYPEHASH",
      "outputs": [
        {
          "internalType": "bytes32",
          "name": "",
          "type": "bytes32"
        }
      ],
      "stateMutability": "view",
      "type": "function"
    },
    {
      "inputs": [
        {
          "internalType": "address",
          "name": "account",
          "type": "address"
        },
        {
          "internalType": "uint256",
          "name": "id",
          "type": "uint256"
        }
      ],
      "name": "balanceOf",
      "outputs": [
        {
          "internalType": "uint256",
          "name": "",
          "type": "uint256"
        }
      ],
      "stateMutability": "view",
      "type": "function"
    },
    {
      "inputs": [
        {
          "internalType": "address[]",
          "name": "accounts",
          "type": "address[]"
        },
        {
          "internalType": "uint256[]",
          "name": "ids",
          "type": "uint256[]"
        }
      ],
      "name": "balanceOfBatch",
      "outputs": [
        {
          "internalType": "uint256[]",
          "name": "",
          "type": "uint256[]"
        }
      ],
      "stateMutability": "view",
      "type": "function"
    },
    {
      "inputs": [
        {
          "internalType": "uint256",
          "name": "id",
          "type": "uint256"
        },
        {
          "internalType": "uint256",
          "name": "amount",
          "type": "uint256"
        },
        {
          "internalType": "uint8",
          "name": "v",
          "type": "uint8"
        },
        {
          "internalType": "bytes32",
          "name": "r",
          "type": "bytes32"
        },
        {
          "internalType": "bytes32",
          "name": "s",
          "type": "bytes32"
        }
      ],
      "name": "burnSubscription",
      "outputs": [],
      "stateMutability": "nonpayable",
      "type": "function"
    },
    {
      "inputs": [
        {
          "internalType": "address",
          "name": "subscriber",
          "type": "address"
        },
        {
          "internalType": "uint256",
          "name": "id",
          "type": "uint256"
        },
        {
          "internalType": "uint8",
          "name": "v",
          "type": "uint8"
        },
        {
          "internalType": "bytes32",
          "name": "r",
          "type": "bytes32"
        },
        {
          "internalType": "bytes32",
          "name": "s",
          "type": "bytes32"
        }
      ],
      "name": "buySubscription",
      "outputs": [],
      "stateMutability": "nonpayable",
      "type": "function"
    },
    {
      "inputs": [],
      "name": "chainId",
      "outputs": [
        {
          "internalType": "uint256",
          "name": "",
          "type": "uint256"
        }
      ],
      "stateMutability": "view",
      "type": "function"
    },
    {
      "inputs": [
        {
          "internalType": "uint256",
          "name": "id_",
          "type": "uint256"
        },
        {
          "internalType": "address",
          "name": "subscriber",
          "type": "address"
        }
      ],
      "name": "executeSubscription",
      "outputs": [],
      "stateMutability": "nonpayable",
      "type": "function"
    },
    {
      "inputs": [],
      "name": "fee",
      "outputs": [
        {
          "internalType": "uint256",
          "name": "",
          "type": "uint256"
        }
      ],
      "stateMutability": "view",
      "type": "function"
    },
    {
      "inputs": [
        {
          "internalType": "uint256",
          "name": "id_",
          "type": "uint256"
        }
      ],
      "name": "getBaseIdFromToken",
      "outputs": [
        {
          "internalType": "uint256",
          "name": "id",
          "type": "uint256"
        }
      ],
      "stateMutability": "pure",
      "type": "function"
    },
    {
      "inputs": [
        {
          "internalType": "address",
          "name": "account",
          "type": "address"
        },
        {
          "internalType": "address",
          "name": "operator",
          "type": "address"
        }
      ],
      "name": "isApprovedForAll",
      "outputs": [
        {
          "internalType": "bool",
          "name": "",
          "type": "bool"
        }
      ],
      "stateMutability": "view",
      "type": "function"
    },
    {
      "inputs": [
        {
          "internalType": "address",
          "name": "creator",
          "type": "address"
        },
        {
          "internalType": "uint256",
          "name": "amount",
          "type": "uint256"
        },
        {
          "internalType": "string",
          "name": "_uri",
          "type": "string"
        },
        {
          "internalType": "uint8",
          "name": "v",
          "type": "uint8"
        },
        {
          "internalType": "bytes32",
          "name": "r",
          "type": "bytes32"
        },
        {
          "internalType": "bytes32",
          "name": "s",
          "type": "bytes32"
        }
      ],
      "name": "mintBatchNFT",
      "outputs": [],
      "stateMutability": "nonpayable",
      "type": "function"
    },
    {
      "inputs": [
        {
          "internalType": "address",
          "name": "creator",
          "type": "address"
        },
        {
          "internalType": "uint256[]",
          "name": "amounts",
          "type": "uint256[]"
        },
        {
          "internalType": "address[]",
          "name": "paymentTokens",
          "type": "address[]"
        },
        {
          "internalType": "uint256[]",
          "name": "paymentValues",
          "type": "uint256[]"
        },
        {
          "internalType": "uint8",
          "name": "v",
          "type": "uint8"
        },
        {
          "internalType": "bytes32",
          "name": "r",
          "type": "bytes32"
        },
        {
          "internalType": "bytes32",
          "name": "s",
          "type": "bytes32"
        }
      ],
      "name": "mintBatchSubscription",
      "outputs": [],
      "stateMutability": "nonpayable",
      "type": "function"
    },
    {
      "inputs": [
        {
          "internalType": "address",
          "name": "creator",
          "type": "address"
        },
        {
          "internalType": "uint256",
          "name": "amount",
          "type": "uint256"
        },
        {
          "internalType": "address",
          "name": "paymentToken",
          "type": "address"
        },
        {
          "internalType": "uint256",
          "name": "paymentValue",
          "type": "uint256"
        },
        {
          "internalType": "uint8",
          "name": "v",
          "type": "uint8"
        },
        {
          "internalType": "bytes32",
          "name": "r",
          "type": "bytes32"
        },
        {
          "internalType": "bytes32",
          "name": "s",
          "type": "bytes32"
        }
      ],
      "name": "mintSubscription",
      "outputs": [],
      "stateMutability": "nonpayable",
      "type": "function"
    },
    {
      "inputs": [],
      "name": "name",
      "outputs": [
        {
          "internalType": "string",
          "name": "",
          "type": "string"
        }
      ],
      "stateMutability": "view",
      "type": "function"
    },
    {
      "inputs": [
        {
          "internalType": "address",
          "name": "from",
          "type": "address"
        },
        {
          "internalType": "address",
          "name": "to",
          "type": "address"
        },
        {
          "internalType": "uint256[]",
          "name": "ids",
          "type": "uint256[]"
        },
        {
          "internalType": "uint256[]",
          "name": "amounts",
          "type": "uint256[]"
        },
        {
          "internalType": "bytes",
          "name": "data",
          "type": "bytes"
        }
      ],
      "name": "safeBatchTransferFrom",
      "outputs": [],
      "stateMutability": "nonpayable",
      "type": "function"
    },
    {
      "inputs": [
        {
          "internalType": "address",
          "name": "from",
          "type": "address"
        },
        {
          "internalType": "address",
          "name": "to",
          "type": "address"
        },
        {
          "internalType": "uint256",
          "name": "id",
          "type": "uint256"
        },
        {
          "internalType": "uint256",
          "name": "amount",
          "type": "uint256"
        },
        {
          "internalType": "bytes",
          "name": "data",
          "type": "bytes"
        }
      ],
      "name": "safeTransferFrom",
      "outputs": [],
      "stateMutability": "nonpayable",
      "type": "function"
    },
    {
      "inputs": [
        {
          "internalType": "address",
          "name": "operator",
          "type": "address"
        },
        {
          "internalType": "bool",
          "name": "approved",
          "type": "bool"
        }
      ],
      "name": "setApprovalForAll",
      "outputs": [],
      "stateMutability": "nonpayable",
      "type": "function"
    },
    {
      "inputs": [
        {
          "internalType": "uint256",
          "name": "_fee",
          "type": "uint256"
        }
      ],
      "name": "setFee",
      "outputs": [],
      "stateMutability": "nonpayable",
      "type": "function"
    },
    {
      "inputs": [
        {
          "internalType": "address",
          "name": "_master",
          "type": "address"
        }
      ],
      "name": "setMaster",
      "outputs": [],
      "stateMutability": "nonpayable",
      "type": "function"
    },
    {
      "inputs": [
        {
          "internalType": "bytes4",
          "name": "interfaceId",
          "type": "bytes4"
        }
      ],
      "name": "supportsInterface",
      "outputs": [
        {
          "internalType": "bool",
          "name": "",
          "type": "bool"
        }
      ],
      "stateMutability": "view",
      "type": "function"
    },
    {
      "inputs": [
        {
          "internalType": "uint256",
          "name": "",
          "type": "uint256"
        }
      ],
      "name": "test",
      "outputs": [
        {
          "internalType": "uint256",
          "name": "",
          "type": "uint256"
        }
      ],
      "stateMutability": "view",
      "type": "function"
    },
    {
      "inputs": [
        {
          "internalType": "uint256",
          "name": "",
          "type": "uint256"
        }
      ],
      "name": "tokenIdToCreator",
      "outputs": [
        {
          "internalType": "address",
          "name": "",
          "type": "address"
        }
      ],
      "stateMutability": "view",
      "type": "function"
    },
    {
      "inputs": [
        {
          "internalType": "uint256",
          "name": "",
          "type": "uint256"
        }
      ],
      "name": "tokenIdToNextIndex",
      "outputs": [
        {
          "internalType": "uint256",
          "name": "",
          "type": "uint256"
        }
      ],
      "stateMutability": "view",
      "type": "function"
    },
    {
      "inputs": [
        {
          "internalType": "uint256",
          "name": "",
          "type": "uint256"
        }
      ],
      "name": "tokenIdToPaymentToken",
      "outputs": [
        {
          "internalType": "address",
          "name": "",
          "type": "address"
        }
      ],
      "stateMutability": "view",
      "type": "function"
    },
    {
      "inputs": [
        {
          "internalType": "uint256",
          "name": "",
          "type": "uint256"
        }
      ],
      "name": "tokenIdToPaymentValue",
      "outputs": [
        {
          "internalType": "uint256",
          "name": "",
          "type": "uint256"
        }
      ],
      "stateMutability": "view",
      "type": "function"
    },
    {
      "inputs": [
        {
          "internalType": "uint256",
          "name": "",
          "type": "uint256"
        }
      ],
      "name": "tokenId_ToExectuedNonce",
      "outputs": [
        {
          "internalType": "uint256",
          "name": "",
          "type": "uint256"
        }
      ],
      "stateMutability": "view",
      "type": "function"
    },
    {
      "inputs": [
        {
          "internalType": "uint256",
          "name": "",
          "type": "uint256"
        }
      ],
      "name": "tokenId_ToNextWithdraw",
      "outputs": [
        {
          "internalType": "uint256",
          "name": "",
          "type": "uint256"
        }
      ],
      "stateMutability": "view",
      "type": "function"
    },
    {
      "inputs": [],
      "name": "tokenNonce",
      "outputs": [
        {
          "internalType": "uint256",
          "name": "",
          "type": "uint256"
        }
      ],
      "stateMutability": "view",
      "type": "function"
    },
    {
      "inputs": [
        {
          "internalType": "address",
          "name": "subscriber",
          "type": "address"
        },
        {
          "internalType": "uint256",
          "name": "id_",
          "type": "uint256"
        },
        {
          "internalType": "uint8",
          "name": "v",
          "type": "uint8"
        },
        {
          "internalType": "bytes32",
          "name": "r",
          "type": "bytes32"
        },
        {
          "internalType": "bytes32",
          "name": "s",
          "type": "bytes32"
        }
      ],
      "name": "unSubscribe",
      "outputs": [],
      "stateMutability": "nonpayable",
      "type": "function"
    },
    {
      "inputs": [
        {
          "internalType": "address",
          "name": "newCreator",
          "type": "address"
        },
        {
          "internalType": "uint256",
          "name": "id",
          "type": "uint256"
        },
        {
          "internalType": "uint8",
          "name": "v",
          "type": "uint8"
        },
        {
          "internalType": "bytes32",
          "name": "r",
          "type": "bytes32"
        },
        {
          "internalType": "bytes32",
          "name": "s",
          "type": "bytes32"
        }
      ],
      "name": "updateSubscriptionCreator",
      "outputs": [],
      "stateMutability": "nonpayable",
      "type": "function"
    },
    {
      "inputs": [
        {
          "internalType": "uint256",
          "name": "id",
          "type": "uint256"
        }
      ],
      "name": "uri",
      "outputs": [
        {
          "internalType": "string",
          "name": "",
          "type": "string"
        }
      ],
      "stateMutability": "view",
      "type": "function"
    },
    {
      "inputs": [
        {
          "internalType": "address",
          "name": "",
          "type": "address"
        }
      ],
      "name": "userNonce",
      "outputs": [
        {
          "internalType": "uint256",
          "name": "",
          "type": "uint256"
        }
      ],
      "stateMutability": "view",
      "type": "function"
    },
    {
      "inputs": [],
      "name": "version",
      "outputs": [
        {
          "internalType": "string",
          "name": "",
          "type": "string"
        }
      ],
      "stateMutability": "view",
      "type": "function"
    }
  ],
  "bytecode": "0x6080604052600560065560016008553480156200001b57600080fd5b5060405162005cc238038062005cc2833981810160405260408110156200004157600080fd5b81019080805160405193929190846401000000008211156200006257600080fd5b838201915060208201858111156200007957600080fd5b82518660018202830111640100000000821117156200009757600080fd5b8083526020830192505050908051906020019080838360005b83811015620000cd578082015181840152602081019050620000b0565b50505050905090810190601f168015620000fb5780820380516001836020036101000a031916815260200191505b506040526020018051906020019092919050505081818181816200012c6301ffc9a760e01b620002ef60201b60201c565b6200013d81620003f860201b60201c565b6200015563d9b67a2660e01b620002ef60201b60201c565b6200016d630e89341c60e01b620002ef60201b60201c565b506200018663d9b67a2660e01b620002ef60201b60201c565b6200019e630e89341c60e01b620002ef60201b60201c565b806005819055507f8b73c3c69bb8fe3d512ecc4cf759cc79239f7b179b0ffacaa9a75d522b39400f6040518060400160405280601381526020017f5175616c6c6120537562736372697074696f6e00000000000000000000000000815250805190602001206040518060400160405280600181526020017f31000000000000000000000000000000000000000000000000000000000000008152508051906020012060055430604051602001808681526020018581526020018481526020018381526020018273ffffffffffffffffffffffffffffffffffffffff168152602001955050505050506040516020818303038152906040528051906020012060048190555033600760006101000a81548173ffffffffffffffffffffffffffffffffffffffff021916908373ffffffffffffffffffffffffffffffffffffffff160217905550505050505050620004ba565b63ffffffff60e01b817bffffffffffffffffffffffffffffffffffffffffffffffffffffffff191614156200038c576040517f08c379a000000000000000000000000000000000000000000000000000000000815260040180806020018281038252601c8152602001807f4552433136353a20696e76616c696420696e746572666163652069640000000081525060200191505060405180910390fd5b6001600080837bffffffffffffffffffffffffffffffffffffffffffffffffffffffff19167bffffffffffffffffffffffffffffffffffffffffffffffffffffffff1916815260200190815260200160002060006101000a81548160ff02191690831515021790555050565b80600390805190602001906200041092919062000414565b5050565b828054600181600116156101000203166002900490600052602060002090601f016020900481019282601f106200045757805160ff191683800117855562000488565b8280016001018555821562000488579182015b82811115620004875782518255916020019190600101906200046a565b5b5090506200049791906200049b565b5090565b5b80821115620004b65760008160009055506001016200049c565b5090565b6157f880620004ca6000396000f3fe608060405234801561001057600080fd5b50600436106102055760003560e01c806354fd4d501161011a578063b166acd1116100ad578063e1c7bc0a1161007c578063e1c7bc0a146110d7578063e985e9c514611119578063ede54d0214611193578063f242432a146111eb578063f73b43a8146112fa57610205565b8063b166acd114610f02578063ca2cd0f414610f71578063ddca3f4314611077578063e0be313f1461109557610205565b806397cf7003116100e957806397cf700314610e045780639a8a059214610e465780639eb9abde14610e64578063a22cb46514610eb257610205565b806354fd4d5014610cdc57806369fe0e2d14610d5f57806390f71b4414610d8d57806395fbbf5014610dab57610205565b806329e99f071161019d5780633a9e6e441161016c5780633a9e6e44146107fd5780633fbde260146108965780634e1273f4146108d85780634fce947414610a7957806353e2717314610c9a57610205565b806329e99f07146105225780632e04b8e7146105645780632eb2c2d6146105bc5780633644e515146107df57610205565b80630e89341c116101d95780630e89341c146103c15780631add3108146104685780631d059bbb1461048657806326fae0d3146104de57610205565b8062fdd58e1461020a57806301ffc9a71461026c57806302c561d8146102cf57806306fdde031461033e575b600080fd5b6102566004803603604081101561022057600080fd5b81019080803573ffffffffffffffffffffffffffffffffffffffff16906020019092919080359060200190929190505050611369565b6040518082815260200191505060405180910390f35b6102b76004803603602081101561028257600080fd5b8101908080357bffffffffffffffffffffffffffffffffffffffffffffffffffffffff19169060200190929190505050611449565b60405180821515815260200191505060405180910390f35b61033c600480360360a08110156102e557600080fd5b81019080803573ffffffffffffffffffffffffffffffffffffffff16906020019092919080359060200190929190803560ff16906020019092919080359060200190929190803590602001909291905050506114b0565b005b610346611715565b6040518080602001828103825283818151815260200191508051906020019080838360005b8381101561038657808201518184015260208101905061036b565b50505050905090810190601f1680156103b35780820380516001836020036101000a031916815260200191505b509250505060405180910390f35b6103ed600480360360208110156103d757600080fd5b810190808035906020019092919050505061174e565b6040518080602001828103825283818151815260200191508051906020019080838360005b8381101561042d578082015181840152602081019050610412565b50505050905090810190601f16801561045a5780820380516001836020036101000a031916815260200191505b509250505060405180910390f35b610470611841565b6040518082815260200191505060405180910390f35b6104b26004803603602081101561049c57600080fd5b8101908080359060200190929190505050611865565b604051808273ffffffffffffffffffffffffffffffffffffffff16815260200191505060405180910390f35b610520600480360360208110156104f457600080fd5b81019080803573ffffffffffffffffffffffffffffffffffffffff169060200190929190505050611898565b005b61054e6004803603602081101561053857600080fd5b8101908080359060200190929190505050611a18565b6040518082815260200191505060405180910390f35b6105a66004803603602081101561057a57600080fd5b81019080803573ffffffffffffffffffffffffffffffffffffffff169060200190929190505050611a30565b6040518082815260200191505060405180910390f35b6107dd600480360360a08110156105d257600080fd5b81019080803573ffffffffffffffffffffffffffffffffffffffff169060200190929190803573ffffffffffffffffffffffffffffffffffffffff1690602001909291908035906020019064010000000081111561062f57600080fd5b82018360208201111561064157600080fd5b8035906020019184602083028401116401000000008311171561066357600080fd5b919080806020026020016040519081016040528093929190818152602001838360200280828437600081840152601f19601f820116905080830192505050505050509192919290803590602001906401000000008111156106c357600080fd5b8201836020820111156106d557600080fd5b803590602001918460208302840111640100000000831117156106f757600080fd5b919080806020026020016040519081016040528093929190818152602001838360200280828437600081840152601f19601f8201169050808301925050505050505091929192908035906020019064010000000081111561075757600080fd5b82018360208201111561076957600080fd5b8035906020019184600183028401116401000000008311171561078b57600080fd5b91908080601f016020809104026020016040519081016040528093929190818152602001838380828437600081840152601f19601f820116905080830192505050505050509192919290505050611a48565b005b6107e7611e30565b6040518082815260200191505060405180910390f35b610894600480360360e081101561081357600080fd5b81019080803573ffffffffffffffffffffffffffffffffffffffff16906020019092919080359060200190929190803573ffffffffffffffffffffffffffffffffffffffff16906020019092919080359060200190929190803560ff1690602001909291908035906020019092919080359060200190929190505050611e36565b005b6108c2600480360360208110156108ac57600080fd5b8101908080359060200190929190505050611f24565b6040518082815260200191505060405180910390f35b610a22600480360360408110156108ee57600080fd5b810190808035906020019064010000000081111561090b57600080fd5b82018360208201111561091d57600080fd5b8035906020019184602083028401116401000000008311171561093f57600080fd5b919080806020026020016040519081016040528093929190818152602001838360200280828437600081840152601f19601f8201169050808301925050505050505091929192908035906020019064010000000081111561099f57600080fd5b8201836020820111156109b157600080fd5b803590602001918460208302840111640100000000831117156109d357600080fd5b919080806020026020016040519081016040528093929190818152602001838360200280828437600081840152601f19601f820116905080830192505050505050509192919290505050611f3c565b6040518080602001828103825283818151815260200191508051906020019060200280838360005b83811015610a65578082015181840152602081019050610a4a565b505050509050019250505060405180910390f35b610c98600480360360e0811015610a8f57600080fd5b81019080803573ffffffffffffffffffffffffffffffffffffffff16906020019092919080359060200190640100000000811115610acc57600080fd5b820183602082011115610ade57600080fd5b80359060200191846020830284011164010000000083111715610b0057600080fd5b919080806020026020016040519081016040528093929190818152602001838360200280828437600081840152601f19601f82011690508083019250505050505050919291929080359060200190640100000000811115610b6057600080fd5b820183602082011115610b7257600080fd5b80359060200191846020830284011164010000000083111715610b9457600080fd5b919080806020026020016040519081016040528093929190818152602001838360200280828437600081840152601f19601f82011690508083019250505050505050919291929080359060200190640100000000811115610bf457600080fd5b820183602082011115610c0657600080fd5b80359060200191846020830284011164010000000083111715610c2857600080fd5b919080806020026020016040519081016040528093929190818152602001838360200280828437600081840152601f19601f820116905080830192505050505050509192919290803560ff169060200190929190803590602001909291908035906020019092919050505061212e565b005b610cc660048036036020811015610cb057600080fd5b81019080803590602001909291905050506122ba565b6040518082815260200191505060405180910390f35b610ce4612420565b6040518080602001828103825283818151815260200191508051906020019080838360005b83811015610d24578082015181840152602081019050610d09565b50505050905090810190601f168015610d515780820380516001836020036101000a031916815260200191505b509250505060405180910390f35b610d8b60048036036020811015610d7557600080fd5b8101908080359060200190929190505050612459565b005b610d95612616565b6040518082815260200191505060405180910390f35b610e02600480360360a0811015610dc157600080fd5b810190808035906020019092919080359060200190929190803560ff169060200190929190803590602001909291908035906020019092919050505061261c565b005b610e3060048036036020811015610e1a57600080fd5b81019080803590602001909291905050506127ce565b6040518082815260200191505060405180910390f35b610e4e6127e6565b6040518082815260200191505060405180910390f35b610eb060048036036040811015610e7a57600080fd5b8101908080359060200190929190803573ffffffffffffffffffffffffffffffffffffffff1690602001909291905050506127ec565b005b610f0060048036036040811015610ec857600080fd5b81019080803573ffffffffffffffffffffffffffffffffffffffff169060200190929190803515159060200190929190505050612ff4565b005b610f6f600480360360a0811015610f1857600080fd5b81019080803573ffffffffffffffffffffffffffffffffffffffff16906020019092919080359060200190929190803560ff169060200190929190803590602001909291908035906020019092919050505061318d565b005b611075600480360360c0811015610f8757600080fd5b81019080803573ffffffffffffffffffffffffffffffffffffffff1690602001909291908035906020019092919080359060200190640100000000811115610fce57600080fd5b820183602082011115610fe057600080fd5b8035906020019184600183028401116401000000008311171561100257600080fd5b91908080601f016020809104026020016040519081016040528093929190818152602001838380828437600081840152601f19601f820116905080830192505050505050509192919290803560ff1690602001909291908035906020019092919080359060200190929190505050613394565b005b61107f6135e0565b6040518082815260200191505060405180910390f35b6110c1600480360360208110156110ab57600080fd5b81019080803590602001909291905050506135e6565b6040518082815260200191505060405180910390f35b611103600480360360208110156110ed57600080fd5b81019080803590602001909291905050506135fe565b6040518082815260200191505060405180910390f35b61117b6004803603604081101561112f57600080fd5b81019080803573ffffffffffffffffffffffffffffffffffffffff169060200190929190803573ffffffffffffffffffffffffffffffffffffffff169060200190929190505050613616565b60405180821515815260200191505060405180910390f35b6111bf600480360360208110156111a957600080fd5b81019080803590602001909291905050506136aa565b604051808273ffffffffffffffffffffffffffffffffffffffff16815260200191505060405180910390f35b6112f8600480360360a081101561120157600080fd5b81019080803573ffffffffffffffffffffffffffffffffffffffff169060200190929190803573ffffffffffffffffffffffffffffffffffffffff16906020019092919080359060200190929190803590602001909291908035906020019064010000000081111561127257600080fd5b82018360208201111561128457600080fd5b803590602001918460018302840111640100000000831117156112a657600080fd5b91908080601f016020809104026020016040519081016040528093929190818152602001838380828437600081840152601f19601f8201169050808301925050505050505091929192905050506136dd565b005b611367600480360360a081101561131057600080fd5b81019080803573ffffffffffffffffffffffffffffffffffffffff16906020019092919080359060200190929190803560ff16906020019092919080359060200190929190803590602001909291905050506139af565b005b60008073ffffffffffffffffffffffffffffffffffffffff168373ffffffffffffffffffffffffffffffffffffffff1614156113f0576040517f08c379a000000000000000000000000000000000000000000000000000000000815260040180806020018281038252602b8152602001806155f4602b913960400191505060405180910390fd5b6001600083815260200190815260200160002060008473ffffffffffffffffffffffffffffffffffffffff1673ffffffffffffffffffffffffffffffffffffffff16815260200190815260200160002054905092915050565b6000806000837bffffffffffffffffffffffffffffffffffffffffffffffffffffffff19167bffffffffffffffffffffffffffffffffffffffffffffffffffffffff1916815260200190815260200160002060009054906101000a900460ff169050919050565b60007f8000000000000000000000000000000000000000000000000000000000000000851614611548576040517f08c379a00000000000000000000000000000000000000000000000000000000081526004018080602001828103825260178152602001807f5175616c6c612f57726f6e672d546f6b656e2d5479706500000000000000000081525060200191505060405180910390fd5b60007fffffffffffffffffffffffffffffffffffffffffffffffffffffffffffffffff6fffffffffffffffffffffffffffffffff168516146115d5576040517f08c379a00000000000000000000000000000000000000000000000000000000081526004018080602001828103825260218152602001806157076021913960400191505060405180910390fd5b6000600e600086815260200190815260200160002060009054906101000a900473ffffffffffffffffffffffffffffffffffffffff16905061164f816040518060400160405280600681526020017f7570646174650000000000000000000000000000000000000000000000000000815250868686613e9c565b6116bb818787600160008a815260200190815260200160002060008673ffffffffffffffffffffffffffffffffffffffff1673ffffffffffffffffffffffffffffffffffffffff16815260200190815260200160002054604051806020016040528060008152506136dd565b85600e600087815260200190815260200160002060006101000a81548173ffffffffffffffffffffffffffffffffffffffff021916908373ffffffffffffffffffffffffffffffffffffffff160217905550505050505050565b6040518060400160405280601381526020017f5175616c6c6120537562736372697074696f6e0000000000000000000000000081525081565b6060600060807fffffffffffffffffffffffffffffffffffffffffffffffffffffffffffffffff6fffffffffffffffffffffffffffffffff16901b83169050601060008281526020019081526020016000208054600181600116156101000203166002900480601f0160208091040260200160405190810160405280929190818152602001828054600181600116156101000203166002900480156118345780601f1061180957610100808354040283529160200191611834565b820191906000526020600020905b81548152906001019060200180831161181757829003601f168201915b5050505050915050919050565b7f58110846b49f70e49168dab9f7743d70e8da96a3773a194c36bcb67faf9bbdc581565b600e6020528060005260406000206000915054906101000a900473ffffffffffffffffffffffffffffffffffffffff1681565b600760009054906101000a900473ffffffffffffffffffffffffffffffffffffffff1673ffffffffffffffffffffffffffffffffffffffff163373ffffffffffffffffffffffffffffffffffffffff161461195b576040517f08c379a00000000000000000000000000000000000000000000000000000000081526004018080602001828103825260098152602001807f464f5242494444454e000000000000000000000000000000000000000000000081525060200191505060405180910390fd5b80600760006101000a81548173ffffffffffffffffffffffffffffffffffffffff021916908373ffffffffffffffffffffffffffffffffffffffff1602179055507f7e0a74b35d445065e31b4bb43f5c458582046e0b718b9a56e261d5b1b22a3fc3600760009054906101000a900473ffffffffffffffffffffffffffffffffffffffff16600654604051808373ffffffffffffffffffffffffffffffffffffffff1681526020018281526020019250505060405180910390a150565b60116020528060005260406000206000915090505481565b60096020528060005260406000206000915090505481565b8151835114611aa2576040517f08c379a000000000000000000000000000000000000000000000000000000000815260040180806020018281038252602881526020018061577a6028913960400191505060405180910390fd5b600073ffffffffffffffffffffffffffffffffffffffff168473ffffffffffffffffffffffffffffffffffffffff161415611b28576040517f08c379a00000000000000000000000000000000000000000000000000000000081526004018080602001828103825260258152602001806156746025913960400191505060405180910390fd5b6000611b3261410e565b9050611b42818787878787614116565b60005b8451811015611d13576000858281518110611b5c57fe5b602002602001015190506000858381518110611b7457fe5b60200260200101519050611bfb816040518060600160405280602a81526020016156bc602a91396001600086815260200190815260200160002060008d73ffffffffffffffffffffffffffffffffffffffff1673ffffffffffffffffffffffffffffffffffffffff1681526020019081526020016000205461411e9092919063ffffffff16565b6001600084815260200190815260200160002060008b73ffffffffffffffffffffffffffffffffffffffff1673ffffffffffffffffffffffffffffffffffffffff16815260200190815260200160002081905550611cb2816001600085815260200190815260200160002060008b73ffffffffffffffffffffffffffffffffffffffff1673ffffffffffffffffffffffffffffffffffffffff168152602001908152602001600020546141de90919063ffffffff16565b6001600084815260200190815260200160002060008a73ffffffffffffffffffffffffffffffffffffffff1673ffffffffffffffffffffffffffffffffffffffff168152602001908152602001600020819055505050806001019050611b45565b508473ffffffffffffffffffffffffffffffffffffffff168673ffffffffffffffffffffffffffffffffffffffff168273ffffffffffffffffffffffffffffffffffffffff167f4a39dc06d4c0dbc64b70af90fd698a233a518aa5d07e595d983b8c0526c8f7fb8787604051808060200180602001838103835285818151815260200191508051906020019060200280838360005b83811015611dc3578082015181840152602081019050611da8565b50505050905001838103825284818151815260200191508051906020019060200280838360005b83811015611e05578082015181840152602081019050611dea565b5050505090500194505050505060405180910390a4611e28818787878787614266565b505050505050565b60045481565b611e78876040518060400160405280600481526020017f6d696e7400000000000000000000000000000000000000000000000000000000815250858585613e9c565b6000861415611ea5577fffffffffffffffffffffffffffffffffffffffffffffffffffffffffffffffff95505b60006080600854901b9050611ed4611ebc826145f5565b89611ec689614665565b611ecf896145f5565b614703565b611eef8882896040518060200160405280600081525061483e565b6008600081548092919060010191905055506001600d6000838152602001908152602001600020819055505050505050505050565b600d6020528060005260406000206000915090505481565b60608151835114611f98576040517f08c379a00000000000000000000000000000000000000000000000000000000081526004018080602001828103825260298152602001806157516029913960400191505060405180910390fd5b6060835167ffffffffffffffff81118015611fb257600080fd5b50604051908082528060200260200182016040528015611fe15781602001602082028036833780820191505090505b50905060005b845181101561212357600073ffffffffffffffffffffffffffffffffffffffff1685828151811061201457fe5b602002602001015173ffffffffffffffffffffffffffffffffffffffff161415612089576040517f08c379a000000000000000000000000000000000000000000000000000000000815260040180806020018281038252603181526020018061561f6031913960400191505060405180910390fd5b6001600085838151811061209957fe5b6020026020010151815260200190815260200160002060008683815181106120bd57fe5b602002602001015173ffffffffffffffffffffffffffffffffffffffff1673ffffffffffffffffffffffffffffffffffffffff1681526020019081526020016000205482828151811061210c57fe5b602002602001018181525050806001019050611fe7565b508091505092915050565b612170876040518060400160405280600481526020017f6d696e7400000000000000000000000000000000000000000000000000000000815250858585613e9c565b6060865167ffffffffffffffff8111801561218a57600080fd5b506040519080825280602002602001820160405280156121b95781602001602082028036833780820191505090505b50905060005b87518110156122885760008882815181106121d657fe5b6020026020010151141561221e577fffffffffffffffffffffffffffffffffffffffffffffffffffffffffffffffff88828151811061221157fe5b6020026020010181815250505b6080600854901b82828151811061223157fe5b6020026020010181815250506008600081548092919060010191905055506001600d600084848151811061226157fe5b602002602001015181526020019081526020016000208190555080806001019150506121bf565b5061229581898888614703565b6122b088828960405180602001604052806000815250614a32565b5050505050505050565b6000807f8000000000000000000000000000000000000000000000000000000000000000831614612353576040517f08c379a00000000000000000000000000000000000000000000000000000000081526004018080602001828103825260178152602001807f5175616c6c612f57726f6e672d546f6b656e2d5479706500000000000000000081525060200191505060405180910390fd5b60007fffffffffffffffffffffffffffffffffffffffffffffffffffffffffffffffff6fffffffffffffffffffffffffffffffff168316116123e0576040517f08c379a00000000000000000000000000000000000000000000000000000000081526004018080602001828103825260218152602001806157076021913960400191505060405180910390fd5b60807fffffffffffffffffffffffffffffffffffffffffffffffffffffffffffffffff6fffffffffffffffffffffffffffffffff16901b82169050919050565b6040518060400160405280600181526020017f310000000000000000000000000000000000000000000000000000000000000081525081565b600760009054906101000a900473ffffffffffffffffffffffffffffffffffffffff1673ffffffffffffffffffffffffffffffffffffffff163373ffffffffffffffffffffffffffffffffffffffff161461251c576040517f08c379a00000000000000000000000000000000000000000000000000000000081526004018080602001828103825260098152602001807f464f5242494444454e000000000000000000000000000000000000000000000081525060200191505060405180910390fd5b6006548110612593576040517f08c379a00000000000000000000000000000000000000000000000000000000081526004018080602001828103825260148152602001807f494e56414c49442046454520494e43524541534500000000000000000000000081525060200191505060405180910390fd5b806006819055507f7e0a74b35d445065e31b4bb43f5c458582046e0b718b9a56e261d5b1b22a3fc3600760009054906101000a900473ffffffffffffffffffffffffffffffffffffffff16600654604051808373ffffffffffffffffffffffffffffffffffffffff1681526020018281526020019250505060405180910390a150565b60085481565b60007f80000000000000000000000000000000000000000000000000000000000000008616146126b4576040517f08c379a00000000000000000000000000000000000000000000000000000000081526004018080602001828103825260178152602001807f5175616c6c612f57726f6e672d546f6b656e2d5479706500000000000000000081525060200191505060405180910390fd5b60007fffffffffffffffffffffffffffffffffffffffffffffffffffffffffffffffff6fffffffffffffffffffffffffffffffff16861614612741576040517f08c379a00000000000000000000000000000000000000000000000000000000081526004018080602001828103825260218152602001806157076021913960400191505060405180910390fd5b6000600e600087815260200190815260200160002060009054906101000a900473ffffffffffffffffffffffffffffffffffffffff1690506127bb816040518060400160405280600481526020017f6275726e00000000000000000000000000000000000000000000000000000000815250868686613e9c565b6127c6818787614d54565b505050505050565b600f6020528060005260406000206000915090505481565b60055481565b60007f8000000000000000000000000000000000000000000000000000000000000000831614612884576040517f08c379a00000000000000000000000000000000000000000000000000000000081526004018080602001828103825260178152602001807f5175616c6c612f57726f6e672d546f6b656e2d5479706500000000000000000081525060200191505060405180910390fd5b60007fffffffffffffffffffffffffffffffffffffffffffffffffffffffffffffffff6fffffffffffffffffffffffffffffffff16831611612911576040517f08c379a00000000000000000000000000000000000000000000000000000000081526004018080602001828103825260218152602001806157076021913960400191505060405180910390fd5b600180600084815260200190815260200160002060008373ffffffffffffffffffffffffffffffffffffffff1673ffffffffffffffffffffffffffffffffffffffff16815260200190815260200160002054146129d6576040517f08c379a00000000000000000000000000000000000000000000000000000000081526004018080602001828103825260198152602001807f5175616c6c612f496e76616c69642d537562736372696265720000000000000081525060200191505060405180910390fd5b42600c60008481526020019081526020016000205410612a5e576040517f08c379a000000000000000000000000000000000000000000000000000000000815260040180806020018281038252601d8152602001807f5175616c6c612f537562736372697074696f6e2d4e6f742d526561647900000081525060200191505060405180910390fd5b600060807fffffffffffffffffffffffffffffffffffffffffffffffffffffffffffffffff6fffffffffffffffffffffffffffffffff16901b831690506000600e600083815260200190815260200160002060009054906101000a900473ffffffffffffffffffffffffffffffffffffffff1690506000600b600084815260200190815260200160002060009054906101000a900473ffffffffffffffffffffffffffffffffffffffff1690506000600a60008581526020019081526020016000205490506000600f600088815260200190815260200160002054905060048110612b7057612b4f86886001614d54565b612b6b848660016040518060200160405280600081525061483e565b612b93565b6001600f6000898152602001908152602001600020600082825401925050819055505b60006006546064039050600a600087815260200190815260200160002054600b600088815260200190815260200160002060009054906101000a900473ffffffffffffffffffffffffffffffffffffffff1673ffffffffffffffffffffffffffffffffffffffff1663dd62ed3e89306040518363ffffffff1660e01b8152600401808373ffffffffffffffffffffffffffffffffffffffff1681526020018273ffffffffffffffffffffffffffffffffffffffff1681526020019250505060206040518083038186803b158015612c6957600080fd5b505afa158015612c7d573d6000803e3d6000fd5b505050506040513d6020811015612c9357600080fd5b81019080805190602001909291905050501080612d965750600a600087815260200190815260200160002054600b600088815260200190815260200160002060009054906101000a900473ffffffffffffffffffffffffffffffffffffffff1673ffffffffffffffffffffffffffffffffffffffff166370a08231896040518263ffffffff1660e01b8152600401808273ffffffffffffffffffffffffffffffffffffffff16815260200191505060206040518083038186803b158015612d5957600080fd5b505afa158015612d6d573d6000803e3d6000fd5b505050506040513d6020811015612d8357600080fd5b8101908080519060200190929190505050105b15612dc457612da787896001614d54565b612dc3858760016040518060200160405280600081525061483e565b5b8373ffffffffffffffffffffffffffffffffffffffff166323b872dd88600760009054906101000a900473ffffffffffffffffffffffffffffffffffffffff16612e2c6064612e1e6006548a614f7090919063ffffffff16565b614ff690919063ffffffff16565b6040518463ffffffff1660e01b8152600401808473ffffffffffffffffffffffffffffffffffffffff1681526020018373ffffffffffffffffffffffffffffffffffffffff1681526020018281526020019350505050602060405180830381600087803b158015612e9c57600080fd5b505af1158015612eb0573d6000803e3d6000fd5b505050506040513d6020811015612ec657600080fd5b8101908080519060200190929190505050508373ffffffffffffffffffffffffffffffffffffffff166323b872dd8887612f1c6064612f0e878a614f7090919063ffffffff16565b614ff690919063ffffffff16565b6040518463ffffffff1660e01b8152600401808473ffffffffffffffffffffffffffffffffffffffff1681526020018373ffffffffffffffffffffffffffffffffffffffff1681526020018281526020019350505050602060405180830381600087803b158015612f8c57600080fd5b505af1158015612fa0573d6000803e3d6000fd5b505050506040513d6020811015612fb657600080fd5b810190808051906020019092919050505050600f600c60008a8152602001908152602001600020600082825401925050819055505050505050505050565b8173ffffffffffffffffffffffffffffffffffffffff1661301361410e565b73ffffffffffffffffffffffffffffffffffffffff161415613080576040517f08c379a00000000000000000000000000000000000000000000000000000000081526004018080602001828103825260298152602001806157286029913960400191505060405180910390fd5b806002600061308d61410e565b73ffffffffffffffffffffffffffffffffffffffff1673ffffffffffffffffffffffffffffffffffffffff16815260200190815260200160002060008473ffffffffffffffffffffffffffffffffffffffff1673ffffffffffffffffffffffffffffffffffffffff16815260200190815260200160002060006101000a81548160ff0219169083151502179055508173ffffffffffffffffffffffffffffffffffffffff1661313a61410e565b73ffffffffffffffffffffffffffffffffffffffff167f17307eab39ab6107e8899845ad3d59bd9653f200f220920489ca2b5937696c318360405180821515815260200191505060405180910390a35050565b60007f8000000000000000000000000000000000000000000000000000000000000000851614613225576040517f08c379a00000000000000000000000000000000000000000000000000000000081526004018080602001828103825260178152602001807f5175616c6c612f57726f6e672d546f6b656e2d5479706500000000000000000081525060200191505060405180910390fd5b60007fffffffffffffffffffffffffffffffffffffffffffffffffffffffffffffffff6fffffffffffffffffffffffffffffffff168516116132b2576040517f08c379a00000000000000000000000000000000000000000000000000000000081526004018080602001828103825260218152602001806157076021913960400191505060405180910390fd5b6132f4856040518060400160405280600b81526020017f756e737562736372696265000000000000000000000000000000000000000000815250858585613e9c565b600060807fffffffffffffffffffffffffffffffffffffffffffffffffffffffffffffffff6fffffffffffffffffffffffffffffffff16901b8516905061333d86866001614d54565b61338c600e600083815260200190815260200160002060009054906101000a900473ffffffffffffffffffffffffffffffffffffffff168260016040518060200160405280600081525061483e565b505050505050565b6000851161340a576040517f08c379a000000000000000000000000000000000000000000000000000000000815260040180806020018281038252601a8152602001807f5175616c6c612f496e73756666696369656e742d416d6f756e7400000000000081525060200191505060405180910390fd5b61344c866040518060400160405280600381526020017f6e66740000000000000000000000000000000000000000000000000000000000815250858585613e9c565b60608567ffffffffffffffff8111801561346557600080fd5b506040519080825280602002602001820160405280156134945781602001602082028036833780820191505090505b50905060608667ffffffffffffffff811180156134b057600080fd5b506040519080825280602002602001820160405280156134df5781602001602082028036833780820191505090505b50905060006080600854901b90507f80000000000000000000000000000000000000000000000000000000000000008117905086601060008381526020019081526020016000209080519060200190613539929190615426565b5060005b600089018110156135a75780821784828151811061355757fe5b602002602001018181525050600183828151811061357157fe5b6020026020010181815250508082176011600060018401815260200190815260200160002081905550808060010191505061353d565b506135c333848460405180602001604052806000815250614a32565b600860008154809291906001019190505550505050505050505050565b60065481565b600a6020528060005260406000206000915090505481565b600c6020528060005260406000206000915090505481565b6000600260008473ffffffffffffffffffffffffffffffffffffffff1673ffffffffffffffffffffffffffffffffffffffff16815260200190815260200160002060008373ffffffffffffffffffffffffffffffffffffffff1673ffffffffffffffffffffffffffffffffffffffff16815260200190815260200160002060009054906101000a900460ff16905092915050565b600b6020528060005260406000206000915054906101000a900473ffffffffffffffffffffffffffffffffffffffff1681565b600073ffffffffffffffffffffffffffffffffffffffff168473ffffffffffffffffffffffffffffffffffffffff161415613763576040517f08c379a00000000000000000000000000000000000000000000000000000000081526004018080602001828103825260258152602001806156746025913960400191505060405180910390fd5b600061376d61410e565b905061378d81878761377e886145f5565b613787886145f5565b87614116565b61380a836040518060600160405280602a81526020016156bc602a91396001600088815260200190815260200160002060008a73ffffffffffffffffffffffffffffffffffffffff1673ffffffffffffffffffffffffffffffffffffffff1681526020019081526020016000205461411e9092919063ffffffff16565b6001600086815260200190815260200160002060008873ffffffffffffffffffffffffffffffffffffffff1673ffffffffffffffffffffffffffffffffffffffff168152602001908152602001600020819055506138c1836001600087815260200190815260200160002060008873ffffffffffffffffffffffffffffffffffffffff1673ffffffffffffffffffffffffffffffffffffffff168152602001908152602001600020546141de90919063ffffffff16565b6001600086815260200190815260200160002060008773ffffffffffffffffffffffffffffffffffffffff1673ffffffffffffffffffffffffffffffffffffffff168152602001908152602001600020819055508473ffffffffffffffffffffffffffffffffffffffff168673ffffffffffffffffffffffffffffffffffffffff168273ffffffffffffffffffffffffffffffffffffffff167fc3d58168c5ae7397731d063d5bbf3d657854427343f4c083240f7aacaa2d0f628787604051808381526020018281526020019250505060405180910390a46139a7818787878787615040565b505050505050565b60007f8000000000000000000000000000000000000000000000000000000000000000851614613a47576040517f08c379a00000000000000000000000000000000000000000000000000000000081526004018080602001828103825260178152602001807f5175616c6c612f57726f6e672d546f6b656e2d5479706500000000000000000081525060200191505060405180910390fd5b60007fffffffffffffffffffffffffffffffffffffffffffffffffffffffffffffffff6fffffffffffffffffffffffffffffffff16851614613ad4576040517f08c379a00000000000000000000000000000000000000000000000000000000081526004018080602001828103825260218152602001806157076021913960400191505060405180910390fd5b600a600085815260200190815260200160002054600b600086815260200190815260200160002060009054906101000a900473ffffffffffffffffffffffffffffffffffffffff1673ffffffffffffffffffffffffffffffffffffffff166370a08231876040518263ffffffff1660e01b8152600401808273ffffffffffffffffffffffffffffffffffffffff16815260200191505060206040518083038186803b158015613b8257600080fd5b505afa158015613b96573d6000803e3d6000fd5b505050506040513d6020811015613bac57600080fd5b810190808051906020019092919050505011613c30576040517f08c379a000000000000000000000000000000000000000000000000000000000815260040180806020018281038252601b8152602001807f5175616c6c612f496e73756666696369656e742d42616c616e6365000000000081525060200191505060405180910390fd5b600a600085815260200190815260200160002054600b600086815260200190815260200160002060009054906101000a900473ffffffffffffffffffffffffffffffffffffffff1673ffffffffffffffffffffffffffffffffffffffff1663dd62ed3e87306040518363ffffffff1660e01b8152600401808373ffffffffffffffffffffffffffffffffffffffff1681526020018273ffffffffffffffffffffffffffffffffffffffff1681526020019250505060206040518083038186803b158015613cfc57600080fd5b505afa158015613d10573d6000803e3d6000fd5b505050506040513d6020811015613d2657600080fd5b810190808051906020019092919050505011613daa576040517f08c379a000000000000000000000000000000000000000000000000000000000815260040180806020018281038252601d8152602001807f5175616c6c612f496e73756666696369656e742d416c6c6f77616e636500000081525060200191505060405180910390fd5b613dec856040518060400160405280600981526020017f7375627363726962650000000000000000000000000000000000000000000000815250858585613e9c565b6000600d600086815260200190815260200160002054905060008186179050613e4a600e600088815260200190815260200160002060009054906101000a900473ffffffffffffffffffffffffffffffffffffffff16876001614d54565b613e66878260016040518060200160405280600081525061483e565b600d600087815260200190815260200160002060008154809291906001019190505550613e9381886127ec565b50505050505050565b60006004547f58110846b49f70e49168dab9f7743d70e8da96a3773a194c36bcb67faf9bbdc587600960008a73ffffffffffffffffffffffffffffffffffffffff1673ffffffffffffffffffffffffffffffffffffffff168152602001908152602001600020548880519060200120604051602001808581526020018473ffffffffffffffffffffffffffffffffffffffff1681526020018381526020018281526020019450505050506040516020818303038152906040528051906020012060405160200180807f19010000000000000000000000000000000000000000000000000000000000008152506002018381526020018281526020019250505060405160208183030381529060405280519060200120905060018185858560405160008152602001604052604051808581526020018460ff1681526020018381526020018281526020019450505050506020604051602081039080840390855afa15801561400d573d6000803e3d6000fd5b5050506020604051035173ffffffffffffffffffffffffffffffffffffffff168673ffffffffffffffffffffffffffffffffffffffff16146140b7576040517f08c379a00000000000000000000000000000000000000000000000000000000081526004018080602001828103825260158152602001807f5175616c6c612f696e76616c69642d7065726d6974000000000000000000000081525060200191505060405180910390fd5b600960008773ffffffffffffffffffffffffffffffffffffffff1673ffffffffffffffffffffffffffffffffffffffff16815260200190815260200160002060008154809291906001019190505550505050505050565b600033905090565b505050505050565b60008383111582906141cb576040517f08c379a00000000000000000000000000000000000000000000000000000000081526004018080602001828103825283818151815260200191508051906020019080838360005b83811015614190578082015181840152602081019050614175565b50505050905090810190601f1680156141bd5780820380516001836020036101000a031916815260200191505b509250505060405180910390fd5b5060008385039050809150509392505050565b60008082840190508381101561425c576040517f08c379a000000000000000000000000000000000000000000000000000000000815260040180806020018281038252601b8152602001807f536166654d6174683a206164646974696f6e206f766572666c6f77000000000081525060200191505060405180910390fd5b8091505092915050565b6142858473ffffffffffffffffffffffffffffffffffffffff1661534d565b156145ed578373ffffffffffffffffffffffffffffffffffffffff1663bc197c8187878686866040518663ffffffff1660e01b8152600401808673ffffffffffffffffffffffffffffffffffffffff1681526020018573ffffffffffffffffffffffffffffffffffffffff168152602001806020018060200180602001848103845287818151815260200191508051906020019060200280838360005b8381101561433d578082015181840152602081019050614322565b50505050905001848103835286818151815260200191508051906020019060200280838360005b8381101561437f578082015181840152602081019050614364565b50505050905001848103825285818151815260200191508051906020019080838360005b838110156143be5780820151818401526020810190506143a3565b50505050905090810190601f1680156143eb5780820380516001836020036101000a031916815260200191505b5098505050505050505050602060405180830381600087803b15801561441057600080fd5b505af192505050801561444457506040513d602081101561443057600080fd5b810190808051906020019092919050505060015b61454e576144506154e1565b8061445b57506144fd565b806040517f08c379a00000000000000000000000000000000000000000000000000000000081526004018080602001828103825283818151815260200191508051906020019080838360005b838110156144c25780820151818401526020810190506144a7565b50505050905090810190601f1680156144ef5780820380516001836020036101000a031916815260200191505b509250505060405180910390fd5b6040517f08c379a00000000000000000000000000000000000000000000000000000000081526004018080602001828103825260348152602001806155986034913960400191505060405180910390fd5b63bc197c8160e01b7bffffffffffffffffffffffffffffffffffffffffffffffffffffffff1916817bffffffffffffffffffffffffffffffffffffffffffffffffffffffff1916146145eb576040517f08c379a00000000000000000000000000000000000000000000000000000000081526004018080602001828103825260288152602001806155cc6028913960400191505060405180910390fd5b505b505050505050565b606080600167ffffffffffffffff8111801561461057600080fd5b5060405190808252806020026020018201604052801561463f5781602001602082028036833780820191505090505b509050828160008151811061465057fe5b60200260200101818152505080915050919050565b606080600167ffffffffffffffff8111801561468057600080fd5b506040519080825280602002602001820160405280156146af5781602001602082028036833780820191505090505b50905082816000815181106146c057fe5b602002602001019073ffffffffffffffffffffffffffffffffffffffff16908173ffffffffffffffffffffffffffffffffffffffff168152505080915050919050565b60005b84518110156148375781818151811061471b57fe5b6020026020010151600a600087848151811061473357fe5b602002602001015181526020019081526020016000208190555082818151811061475957fe5b6020026020010151600b600087848151811061477157fe5b6020026020010151815260200190815260200160002060006101000a81548173ffffffffffffffffffffffffffffffffffffffff021916908373ffffffffffffffffffffffffffffffffffffffff16021790555083600e60008784815181106147d657fe5b6020026020010151815260200190815260200160002060006101000a81548173ffffffffffffffffffffffffffffffffffffffff021916908373ffffffffffffffffffffffffffffffffffffffff1602179055508080600101915050614706565b5050505050565b600073ffffffffffffffffffffffffffffffffffffffff168473ffffffffffffffffffffffffffffffffffffffff1614156148c4576040517f08c379a00000000000000000000000000000000000000000000000000000000081526004018080602001828103825260218152602001806157a26021913960400191505060405180910390fd5b60006148ce61410e565b90506148ef816000876148e0886145f5565b6148e9886145f5565b87614116565b614952836001600087815260200190815260200160002060008873ffffffffffffffffffffffffffffffffffffffff1673ffffffffffffffffffffffffffffffffffffffff168152602001908152602001600020546141de90919063ffffffff16565b6001600086815260200190815260200160002060008773ffffffffffffffffffffffffffffffffffffffff1673ffffffffffffffffffffffffffffffffffffffff168152602001908152602001600020819055508473ffffffffffffffffffffffffffffffffffffffff16600073ffffffffffffffffffffffffffffffffffffffff168273ffffffffffffffffffffffffffffffffffffffff167fc3d58168c5ae7397731d063d5bbf3d657854427343f4c083240f7aacaa2d0f628787604051808381526020018281526020019250505060405180910390a45050505050565b600073ffffffffffffffffffffffffffffffffffffffff168473ffffffffffffffffffffffffffffffffffffffff161415614ab8576040517f08c379a00000000000000000000000000000000000000000000000000000000081526004018080602001828103825260218152602001806157a26021913960400191505060405180910390fd5b8151835114614b12576040517f08c379a000000000000000000000000000000000000000000000000000000000815260040180806020018281038252602881526020018061577a6028913960400191505060405180910390fd5b6000614b1c61410e565b9050614b2d81600087878787614116565b60005b8451811015614c3657614bc260016000878481518110614b4c57fe5b6020026020010151815260200190815260200160002060008873ffffffffffffffffffffffffffffffffffffffff1673ffffffffffffffffffffffffffffffffffffffff16815260200190815260200160002054858381518110614bac57fe5b60200260200101516141de90919063ffffffff16565b60016000878481518110614bd257fe5b6020026020010151815260200190815260200160002060008873ffffffffffffffffffffffffffffffffffffffff1673ffffffffffffffffffffffffffffffffffffffff168152602001908152602001600020819055508080600101915050614b30565b508473ffffffffffffffffffffffffffffffffffffffff16600073ffffffffffffffffffffffffffffffffffffffff168273ffffffffffffffffffffffffffffffffffffffff167f4a39dc06d4c0dbc64b70af90fd698a233a518aa5d07e595d983b8c0526c8f7fb8787604051808060200180602001838103835285818151815260200191508051906020019060200280838360005b83811015614ce7578082015181840152602081019050614ccc565b50505050905001838103825284818151815260200191508051906020019060200280838360005b83811015614d29578082015181840152602081019050614d0e565b5050505090500194505050505060405180910390a4614d4d81600087878787614266565b5050505050565b600073ffffffffffffffffffffffffffffffffffffffff168373ffffffffffffffffffffffffffffffffffffffff161415614dda576040517f08c379a00000000000000000000000000000000000000000000000000000000081526004018080602001828103825260238152602001806156996023913960400191505060405180910390fd5b6000614de461410e565b9050614e1481856000614df6876145f5565b614dff876145f5565b60405180602001604052806000815250614116565b614e9182604051806060016040528060248152602001615650602491396001600087815260200190815260200160002060008873ffffffffffffffffffffffffffffffffffffffff1673ffffffffffffffffffffffffffffffffffffffff1681526020019081526020016000205461411e9092919063ffffffff16565b6001600085815260200190815260200160002060008673ffffffffffffffffffffffffffffffffffffffff1673ffffffffffffffffffffffffffffffffffffffff16815260200190815260200160002081905550600073ffffffffffffffffffffffffffffffffffffffff168473ffffffffffffffffffffffffffffffffffffffff168273ffffffffffffffffffffffffffffffffffffffff167fc3d58168c5ae7397731d063d5bbf3d657854427343f4c083240f7aacaa2d0f628686604051808381526020018281526020019250505060405180910390a450505050565b600080831415614f835760009050614ff0565b6000828402905082848281614f9457fe5b0414614feb576040517f08c379a00000000000000000000000000000000000000000000000000000000081526004018080602001828103825260218152602001806156e66021913960400191505060405180910390fd5b809150505b92915050565b600061503883836040518060400160405280601a81526020017f536166654d6174683a206469766973696f6e206279207a65726f000000000000815250615360565b905092915050565b61505f8473ffffffffffffffffffffffffffffffffffffffff1661534d565b15615345578373ffffffffffffffffffffffffffffffffffffffff1663f23a6e6187878686866040518663ffffffff1660e01b8152600401808673ffffffffffffffffffffffffffffffffffffffff1681526020018573ffffffffffffffffffffffffffffffffffffffff16815260200184815260200183815260200180602001828103825283818151815260200191508051906020019080838360005b838110156151185780820151818401526020810190506150fd565b50505050905090810190601f1680156151455780820380516001836020036101000a031916815260200191505b509650505050505050602060405180830381600087803b15801561516857600080fd5b505af192505050801561519c57506040513d602081101561518857600080fd5b810190808051906020019092919050505060015b6152a6576151a86154e1565b806151b35750615255565b806040517f08c379a00000000000000000000000000000000000000000000000000000000081526004018080602001828103825283818151815260200191508051906020019080838360005b8381101561521a5780820151818401526020810190506151ff565b50505050905090810190601f1680156152475780820380516001836020036101000a031916815260200191505b509250505060405180910390fd5b6040517f08c379a00000000000000000000000000000000000000000000000000000000081526004018080602001828103825260348152602001806155986034913960400191505060405180910390fd5b63f23a6e6160e01b7bffffffffffffffffffffffffffffffffffffffffffffffffffffffff1916817bffffffffffffffffffffffffffffffffffffffffffffffffffffffff191614615343576040517f08c379a00000000000000000000000000000000000000000000000000000000081526004018080602001828103825260288152602001806155cc6028913960400191505060405180910390fd5b505b505050505050565b600080823b905060008111915050919050565b6000808311829061540c576040517f08c379a00000000000000000000000000000000000000000000000000000000081526004018080602001828103825283818151815260200191508051906020019080838360005b838110156153d15780820151818401526020810190506153b6565b50505050905090810190601f1680156153fe5780820380516001836020036101000a031916815260200191505b509250505060405180910390fd5b50600083858161541857fe5b049050809150509392505050565b828054600181600116156101000203166002900490600052602060002090601f016020900481019282601f1061546757805160ff1916838001178555615495565b82800160010185558215615495579182015b82811115615494578251825591602001919060010190615479565b5b5090506154a291906154a6565b5090565b5b808211156154bf5760008160009055506001016154a7565b5090565b6000601f19601f8301169050919050565b60008160e01c9050919050565b600060443d10156154f157615594565b60046000803e6155026000516154d4565b6308c379a081146155135750615594565b60405160043d036004823e80513d602482011167ffffffffffffffff8211171561553f57505050615594565b808201805167ffffffffffffffff81111561555e575050505050615594565b8060208301013d850181111561557957505050505050615594565b615582826154c3565b60208401016040528296505050505050505b9056fe455243313135353a207472616e7366657220746f206e6f6e2045524331313535526563656976657220696d706c656d656e746572455243313135353a204552433131353552656365697665722072656a656374656420746f6b656e73455243313135353a2062616c616e636520717565727920666f7220746865207a65726f2061646472657373455243313135353a2062617463682062616c616e636520717565727920666f7220746865207a65726f2061646472657373455243313135353a206275726e20616d6f756e7420657863656564732062616c616e6365455243313135353a207472616e7366657220746f20746865207a65726f2061646472657373455243313135353a206275726e2066726f6d20746865207a65726f2061646472657373455243313135353a20696e73756666696369656e742062616c616e636520666f72207472616e73666572536166654d6174683a206d756c7469706c69636174696f6e206f766572666c6f775175616c6c612f496e76616c69642d537562736372697074696f6e2d496e646578455243313135353a2073657474696e6720617070726f76616c2073746174757320666f722073656c66455243313135353a206163636f756e747320616e6420696473206c656e677468206d69736d61746368455243313135353a2069647320616e6420616d6f756e7473206c656e677468206d69736d61746368455243313135353a206d696e7420746f20746865207a65726f2061646472657373a26469706673582212204a0e241aba005ffc24cbab9033a537701d38afd46cbfacee47f75466de2428ca64736f6c63430007030033",
  "linkReferences": {},
  "deployedLinkReferences": {}
}