{
  "_format": "hh-sol-artifact-1",
  "contractName": "BeamTokenFacet",
  "sourceName": "contracts/facets/BeamTokenFacet.sol",
  "abi": [
    {
      "inputs": [
        {
          "internalType": "uint256",
          "name": "id_",
          "type": "uint256"
        }
      ],
      "name": "getBaseIdFromBeamToken",
      "outputs": [
        {
          "internalType": "uint256",
          "name": "id",
          "type": "uint256"
        }
      ],
      "stateMutability": "pure",
      "type": "function"
    },
    {
      "inputs": [
        {
          "internalType": "uint256",
          "name": "id",
          "type": "uint256"
        }
      ],
      "name": "getBeamToken",
      "outputs": [
        {
          "components": [
            {
              "internalType": "uint256",
              "name": "mintStamp",
              "type": "uint256"
            }
          ],
          "internalType": "struct BeamToken",
          "name": "",
          "type": "tuple"
        }
      ],
      "stateMutability": "view",
      "type": "function"
    },
    {
      "inputs": [
        {
          "internalType": "uint256",
          "name": "beamTokenID",
          "type": "uint256"
        },
        {
          "internalType": "uint256",
          "name": "timestamp",
          "type": "uint256"
        }
      ],
      "name": "getRealtimeBalance",
      "outputs": [],
      "stateMutability": "view",
      "type": "function"
    },
    {
      "inputs": [
        {
          "internalType": "address",
          "name": "user",
          "type": "address"
        }
      ],
      "name": "getUserBeams",
      "outputs": [
        {
          "components": [
            {
              "internalType": "uint256",
              "name": "mintStamp",
              "type": "uint256"
            }
          ],
          "internalType": "struct BeamToken[]",
          "name": "",
          "type": "tuple[]"
        }
      ],
      "stateMutability": "view",
      "type": "function"
    },
    {
      "inputs": [
        {
          "internalType": "address",
          "name": "subscriber",
          "type": "address"
        },
        {
          "internalType": "uint256",
          "name": "id",
          "type": "uint256"
        },
        {
          "internalType": "uint8",
          "name": "v",
          "type": "uint8"
        },
        {
          "internalType": "bytes32",
          "name": "r",
          "type": "bytes32"
        },
        {
          "internalType": "bytes32",
          "name": "s",
          "type": "bytes32"
        }
      ],
      "name": "mintBeam",
      "outputs": [],
      "stateMutability": "nonpayable",
      "type": "function"
    },
    {
      "inputs": [
        {
          "internalType": "address",
          "name": "subscriber",
          "type": "address"
        },
        {
          "internalType": "uint256",
          "name": "id_",
          "type": "uint256"
        },
        {
          "internalType": "uint8",
          "name": "v",
          "type": "uint8"
        },
        {
          "internalType": "bytes32",
          "name": "r",
          "type": "bytes32"
        },
        {
          "internalType": "bytes32",
          "name": "s",
          "type": "bytes32"
        }
      ],
      "name": "unSubscribe",
      "outputs": [],
      "stateMutability": "nonpayable",
      "type": "function"
    }
  ],
  "bytecode": "0x608060405234801561001057600080fd5b50611b7a806100206000396000f3fe608060405234801561001057600080fd5b50600436106100625760003560e01c8063125f21dc1461006757806324994457146100975780637934714b146100b357806385d44740146100cf5780638c685d2f146100ff578063b166acd11461012f575b600080fd5b610081600480360381019061007c9190611184565b61014b565b60405161008e9190611764565b60405180910390f35b6100b160048036038101906100ac9190611276565b610152565b005b6100cd60048036038101906100c891906111ad565b610156565b005b6100e960048036038101906100e4919061124d565b610490565b6040516100f69190611910565b60405180910390f35b6101196004803603810190610114919061124d565b6104cc565b604051610126919061192b565b60405180910390f35b610149600480360381019061014491906111ad565b6105e9565b005b6060919050565b5050565b60007f80000000000000000000000000000000000000000000000000000000000000008516146101bb576040517f08c379a00000000000000000000000000000000000000000000000000000000081526004016101b2906118b0565b60405180910390fd5b60007fffffffffffffffffffffffffffffffffffffffffffffffffffffffffffffffff6fffffffffffffffffffffffffffffffff16851614610232576040517f08c379a0000000000000000000000000000000000000000000000000000000008152600401610229906118d0565b60405180910390fd5b60008060000160008681526020019081526020016000206040518060a00160405290816000820160009054906101000a900473ffffffffffffffffffffffffffffffffffffffff1673ffffffffffffffffffffffffffffffffffffffff1673ffffffffffffffffffffffffffffffffffffffff1681526020016001820160009054906101000a900473ffffffffffffffffffffffffffffffffffffffff1673ffffffffffffffffffffffffffffffffffffffff1673ffffffffffffffffffffffffffffffffffffffff16815260200160028201548152602001600382015481526020016004820154815250509050600073ffffffffffffffffffffffffffffffffffffffff16816000015173ffffffffffffffffffffffffffffffffffffffff161415610394576040517f08c379a000000000000000000000000000000000000000000000000000000000815260040161038b90611870565b60405180910390fd5b6103d6866040518060400160405280600981526020017f7375627363726962650000000000000000000000000000000000000000000000815250868686610880565b600081606001518617905060405180602001604052804281525060006001016000838152602001908152602001600020600082015181600001559050506104238260000151876001610a9d565b61043f8782600160405180602001604052806000815250610c80565b61046b600160008001600089815260200190815260200160002060030154610e5990919063ffffffff16565b6000800160008881526020019081526020016000206003018190555050505050505050565b610498611108565b6104a0611108565b600060010160008481526020019081526020016000206000015481600001818152505080915050919050565b6000807f8000000000000000000000000000000000000000000000000000000000000000831614610532576040517f08c379a0000000000000000000000000000000000000000000000000000000008152600401610529906118b0565b60405180910390fd5b60007fffffffffffffffffffffffffffffffffffffffffffffffffffffffffffffffff6fffffffffffffffffffffffffffffffff168316116105a9576040517f08c379a00000000000000000000000000000000000000000000000000000000081526004016105a0906118d0565b60405180910390fd5b60807fffffffffffffffffffffffffffffffffffffffffffffffffffffffffffffffff6fffffffffffffffffffffffffffffffff16901b82169050919050565b60007f800000000000000000000000000000000000000000000000000000000000000085161461064e576040517f08c379a0000000000000000000000000000000000000000000000000000000008152600401610645906118b0565b60405180910390fd5b60007fffffffffffffffffffffffffffffffffffffffffffffffffffffffffffffffff6fffffffffffffffffffffffffffffffff168516116106c5576040517f08c379a00000000000000000000000000000000000000000000000000000000081526004016106bc906118d0565b60405180910390fd5b60006106cf610ee1565b9050600081600001600087815260200190815260200160002060008873ffffffffffffffffffffffffffffffffffffffff1673ffffffffffffffffffffffffffffffffffffffff1681526020019081526020016000205411610766576040517f08c379a000000000000000000000000000000000000000000000000000000000815260040161075d90611850565b60405180910390fd5b6107a8866040518060400160405280600b81526020017f756e737562736372696265000000000000000000000000000000000000000000815250868686610880565b6107b486866001610a9d565b61087860008001600060807fffffffffffffffffffffffffffffffffffffffffffffffffffffffffffffffff6fffffffffffffffffffffffffffffffff16901b8816815260200190815260200160002060000160009054906101000a900473ffffffffffffffffffffffffffffffffffffffff1660807fffffffffffffffffffffffffffffffffffffffffffffffffffffffffffffffff6fffffffffffffffffffffffffffffffff16901b8716600160405180602001604052806000815250610c80565b505050505050565b600061088a610ee1565b9050600081600301548260040154888460020160008b73ffffffffffffffffffffffffffffffffffffffff1673ffffffffffffffffffffffffffffffffffffffff1681526020019081526020016000206000015489805190602001206040516020016108f99493929190611786565b604051602081830303815290604052805190602001206040516020016109209291906116d3565b6040516020818303038152906040528051906020012090506001818686866040516000815260200160405260405161095b94939291906117cb565b6020604051602081039080840390855afa15801561097d573d6000803e3d6000fd5b5050506020604051035173ffffffffffffffffffffffffffffffffffffffff168773ffffffffffffffffffffffffffffffffffffffff16146109f4576040517f08c379a00000000000000000000000000000000000000000000000000000000081526004016109eb90611830565b60405180910390fd5b610a4c60018360020160008a73ffffffffffffffffffffffffffffffffffffffff1673ffffffffffffffffffffffffffffffffffffffff16815260200190815260200160002060000154610e5990919063ffffffff16565b8260020160008973ffffffffffffffffffffffffffffffffffffffff1673ffffffffffffffffffffffffffffffffffffffff1681526020019081526020016000206000018190555050505050505050565b600073ffffffffffffffffffffffffffffffffffffffff168373ffffffffffffffffffffffffffffffffffffffff161415610b0d576040517f08c379a0000000000000000000000000000000000000000000000000000000008152600401610b0490611890565b60405180910390fd5b6000610b17610f0e565b90506000610b23610ee1565b9050610ba483604051806060016040528060248152602001611b216024913983600001600088815260200190815260200160002060008973ffffffffffffffffffffffffffffffffffffffff1673ffffffffffffffffffffffffffffffffffffffff16815260200190815260200160002054610f169092919063ffffffff16565b81600001600086815260200190815260200160002060008773ffffffffffffffffffffffffffffffffffffffff1673ffffffffffffffffffffffffffffffffffffffff16815260200190815260200160002081905550600073ffffffffffffffffffffffffffffffffffffffff168573ffffffffffffffffffffffffffffffffffffffff168373ffffffffffffffffffffffffffffffffffffffff167fc3d58168c5ae7397731d063d5bbf3d657854427343f4c083240f7aacaa2d0f628787604051610c71929190611946565b60405180910390a45050505050565b600073ffffffffffffffffffffffffffffffffffffffff168473ffffffffffffffffffffffffffffffffffffffff161415610cf0576040517f08c379a0000000000000000000000000000000000000000000000000000000008152600401610ce7906118f0565b60405180910390fd5b6000610cfa610f0e565b90506000610d06610ee1565b9050610d6d8482600001600088815260200190815260200160002060008973ffffffffffffffffffffffffffffffffffffffff1673ffffffffffffffffffffffffffffffffffffffff16815260200190815260200160002054610e5990919063ffffffff16565b81600001600087815260200190815260200160002060008873ffffffffffffffffffffffffffffffffffffffff1673ffffffffffffffffffffffffffffffffffffffff168152602001908152602001600020819055508573ffffffffffffffffffffffffffffffffffffffff16600073ffffffffffffffffffffffffffffffffffffffff168373ffffffffffffffffffffffffffffffffffffffff167fc3d58168c5ae7397731d063d5bbf3d657854427343f4c083240f7aacaa2d0f628888604051610e3a929190611946565b60405180910390a4610e5182600088888888610fd6565b505050505050565b600080828401905083811015610ed7576040517f08c379a000000000000000000000000000000000000000000000000000000000815260040180806020018281038252601b8152602001807f536166654d6174683a206164646974696f6e206f766572666c6f77000000000081525060200191505060405180910390fd5b8091505092915050565b6000807fd1fd1ec9eb6f457e5e32da0d2921ff6daf7fd2085ec060a076b391ca2400b28290508091505090565b600033905090565b6000838311158290610fc3576040517f08c379a00000000000000000000000000000000000000000000000000000000081526004018080602001828103825283818151815260200191508051906020019080838360005b83811015610f88578082015181840152602081019050610f6d565b50505050905090810190601f168015610fb55780820380516001836020036101000a031916815260200191505b509250505060405180910390fd5b5060008385039050809150509392505050565b6000843b905060008111156110ff578473ffffffffffffffffffffffffffffffffffffffff1663f23a6e6188888787876040518663ffffffff1660e01b815260040161102695949392919061170a565b602060405180830381600087803b15801561104057600080fd5b505af1158015611054573d6000803e3d6000fd5b505050506040513d601f19601f820116820180604052508101906110789190611224565b7bffffffffffffffffffffffffffffffffffffffffffffffffffffffff191663f23a6e6160e01b7bffffffffffffffffffffffffffffffffffffffffffffffffffffffff1916146110fe576040517f08c379a00000000000000000000000000000000000000000000000000000000081526004016110f590611810565b60405180910390fd5b5b50505050505050565b6040518060200160405280600081525090565b60008135905061112a81611aad565b92915050565b60008135905061113f81611ac4565b92915050565b60008151905061115481611adb565b92915050565b60008135905061116981611af2565b92915050565b60008135905061117e81611b09565b92915050565b60006020828403121561119657600080fd5b60006111a48482850161111b565b91505092915050565b600080600080600060a086880312156111c557600080fd5b60006111d38882890161111b565b95505060206111e48882890161115a565b94505060406111f58882890161116f565b935050606061120688828901611130565b925050608061121788828901611130565b9150509295509295909350565b60006020828403121561123657600080fd5b600061124484828501611145565b91505092915050565b60006020828403121561125f57600080fd5b600061126d8482850161115a565b91505092915050565b6000806040838503121561128957600080fd5b60006112978582860161115a565b92505060206112a88582860161115a565b9150509250929050565b60006112be838361166e565b60208301905092915050565b6112d3816119e0565b82525050565b60006112e48261197f565b6112ee81856119a2565b93506112f98361196f565b8060005b8381101561132a57815161131188826112b2565b975061131c83611995565b9250506001810190506112fd565b5085935050505092915050565b611340816119f2565b82525050565b611357611352826119f2565b611a92565b82525050565b60006113688261198a565b61137281856119b3565b9350611382818560208601611a5f565b61138b81611a9c565b840191505092915050565b60006113a36034836119c4565b91507f455243313135353a207472616e7366657220746f206e6f6e204552433131353560008301527f526563656976657220696d706c656d656e7465720000000000000000000000006020830152604082019050919050565b60006114096015836119c4565b91507f5175616c6c612f696e76616c69642d7065726d697400000000000000000000006000830152602082019050919050565b60006114496019836119c4565b91507f5175616c6c612f496e76616c69642d53756273637269626572000000000000006000830152602082019050919050565b60006114896002836119d5565b91507f19010000000000000000000000000000000000000000000000000000000000006000830152600282019050919050565b60006114c96017836119c4565b91507f5175616c6c612f496e76616c69642d546f6b656e2d49640000000000000000006000830152602082019050919050565b60006115096023836119c4565b91507f455243313135353a206275726e2066726f6d20746865207a65726f206164647260008301527f65737300000000000000000000000000000000000000000000000000000000006020830152604082019050919050565b600061156f6017836119c4565b91507f5175616c6c612f57726f6e672d546f6b656e2d547970650000000000000000006000830152602082019050919050565b60006115af6021836119c4565b91507f5175616c6c612f496e76616c69642d537562736372697074696f6e2d496e646560008301527f78000000000000000000000000000000000000000000000000000000000000006020830152604082019050919050565b60006116156021836119c4565b91507f455243313135353a206d696e7420746f20746865207a65726f2061646472657360008301527f73000000000000000000000000000000000000000000000000000000000000006020830152604082019050919050565b60208201600082015161168460008501826116a6565b50505050565b6020820160008201516116a060008501826116a6565b50505050565b6116af81611a48565b82525050565b6116be81611a48565b82525050565b6116cd81611a52565b82525050565b60006116de8261147c565b91506116ea8285611346565b6020820191506116fa8284611346565b6020820191508190509392505050565b600060a08201905061171f60008301886112ca565b61172c60208301876112ca565b61173960408301866116b5565b61174660608301856116b5565b8181036080830152611758818461135d565b90509695505050505050565b6000602082019050818103600083015261177e81846112d9565b905092915050565b600060808201905061179b6000830187611337565b6117a860208301866112ca565b6117b560408301856116b5565b6117c26060830184611337565b95945050505050565b60006080820190506117e06000830187611337565b6117ed60208301866116c4565b6117fa6040830185611337565b6118076060830184611337565b95945050505050565b6000602082019050818103600083015261182981611396565b9050919050565b60006020820190508181036000830152611849816113fc565b9050919050565b600060208201905081810360008301526118698161143c565b9050919050565b60006020820190508181036000830152611889816114bc565b9050919050565b600060208201905081810360008301526118a9816114fc565b9050919050565b600060208201905081810360008301526118c981611562565b9050919050565b600060208201905081810360008301526118e9816115a2565b9050919050565b6000602082019050818103600083015261190981611608565b9050919050565b6000602082019050611925600083018461168a565b92915050565b600060208201905061194060008301846116b5565b92915050565b600060408201905061195b60008301856116b5565b61196860208301846116b5565b9392505050565b6000819050602082019050919050565b600081519050919050565b600081519050919050565b6000602082019050919050565b600082825260208201905092915050565b600082825260208201905092915050565b600082825260208201905092915050565b600081905092915050565b60006119eb82611a28565b9050919050565b6000819050919050565b60007fffffffff0000000000000000000000000000000000000000000000000000000082169050919050565b600073ffffffffffffffffffffffffffffffffffffffff82169050919050565b6000819050919050565b600060ff82169050919050565b60005b83811015611a7d578082015181840152602081019050611a62565b83811115611a8c576000848401525b50505050565b6000819050919050565b6000601f19601f8301169050919050565b611ab6816119e0565b8114611ac157600080fd5b50565b611acd816119f2565b8114611ad857600080fd5b50565b611ae4816119fc565b8114611aef57600080fd5b50565b611afb81611a48565b8114611b0657600080fd5b50565b611b1281611a52565b8114611b1d57600080fd5b5056fe455243313135353a206275726e20616d6f756e7420657863656564732062616c616e6365a264697066735822122007c70c8e456292a8550f6d396d6672612c2fed21516bbaa5a558689d8f35f82164736f6c63430007060033",
  "linkReferences": {},
  "deployedLinkReferences": {}
}