{
  "_format": "hh-sol-artifact-1",
  "contractName": "BeamTokenFacet",
  "sourceName": "contracts/facets/BeamTokenFacet.sol",
  "abi": [
    {
      "inputs": [
        {
          "internalType": "uint256",
          "name": "id_",
          "type": "uint256"
        }
      ],
      "name": "getBaseIdFromBeamToken",
      "outputs": [
        {
          "internalType": "uint256",
          "name": "id",
          "type": "uint256"
        }
      ],
      "stateMutability": "pure",
      "type": "function"
    },
    {
      "inputs": [
        {
          "internalType": "uint256",
          "name": "id",
          "type": "uint256"
        }
      ],
      "name": "getBeamToken",
      "outputs": [
        {
          "components": [
            {
              "internalType": "address",
              "name": "to",
              "type": "address"
            },
            {
              "internalType": "address",
              "name": "from",
              "type": "address"
            },
            {
              "internalType": "uint256",
              "name": "flowRate",
              "type": "uint256"
            },
            {
              "internalType": "uint256",
              "name": "deposit",
              "type": "uint256"
            },
            {
              "internalType": "uint256",
              "name": "mintStamp",
              "type": "uint256"
            },
            {
              "internalType": "contract IQtoken",
              "name": "paymentToken",
              "type": "address"
            }
          ],
          "internalType": "struct BeamToken",
          "name": "",
          "type": "tuple"
        }
      ],
      "stateMutability": "view",
      "type": "function"
    },
    {
      "inputs": [
        {
          "internalType": "address",
          "name": "user",
          "type": "address"
        }
      ],
      "name": "getUserBeams",
      "outputs": [
        {
          "components": [
            {
              "internalType": "address",
              "name": "to",
              "type": "address"
            },
            {
              "internalType": "address",
              "name": "from",
              "type": "address"
            },
            {
              "internalType": "uint256",
              "name": "flowRate",
              "type": "uint256"
            },
            {
              "internalType": "uint256",
              "name": "deposit",
              "type": "uint256"
            },
            {
              "internalType": "uint256",
              "name": "mintStamp",
              "type": "uint256"
            },
            {
              "internalType": "contract IQtoken",
              "name": "paymentToken",
              "type": "address"
            }
          ],
          "internalType": "struct BeamToken[]",
          "name": "",
          "type": "tuple[]"
        }
      ],
      "stateMutability": "view",
      "type": "function"
    },
    {
      "inputs": [],
      "name": "liquidateBeam",
      "outputs": [],
      "stateMutability": "nonpayable",
      "type": "function"
    },
    {
      "inputs": [
        {
          "internalType": "address",
          "name": "subscriber",
          "type": "address"
        },
        {
          "internalType": "uint256",
          "name": "id",
          "type": "uint256"
        },
        {
          "internalType": "uint8",
          "name": "v",
          "type": "uint8"
        },
        {
          "internalType": "bytes32",
          "name": "r",
          "type": "bytes32"
        },
        {
          "internalType": "bytes32",
          "name": "s",
          "type": "bytes32"
        }
      ],
      "name": "mintBeam",
      "outputs": [],
      "stateMutability": "nonpayable",
      "type": "function"
    },
    {
      "inputs": [
        {
          "internalType": "contract IQtoken",
          "name": "token",
          "type": "address"
        },
        {
          "internalType": "address",
          "name": "account",
          "type": "address"
        },
        {
          "internalType": "uint256",
          "name": "timestamp",
          "type": "uint256"
        }
      ],
      "name": "realtimeBalanceOf",
      "outputs": [
        {
          "internalType": "int256",
          "name": "dynamicBal",
          "type": "int256"
        },
        {
          "internalType": "uint256",
          "name": "deposit",
          "type": "uint256"
        }
      ],
      "stateMutability": "view",
      "type": "function"
    },
    {
      "inputs": [
        {
          "internalType": "contract IQtoken",
          "name": "token",
          "type": "address"
        },
        {
          "internalType": "address",
          "name": "account",
          "type": "address"
        }
      ],
      "name": "reatimeBalanceNow",
      "outputs": [
        {
          "internalType": "int256",
          "name": "dynamicBal",
          "type": "int256"
        },
        {
          "internalType": "uint256",
          "name": "deposit",
          "type": "uint256"
        }
      ],
      "stateMutability": "view",
      "type": "function"
    },
    {
      "inputs": [
        {
          "internalType": "address",
          "name": "subscriber",
          "type": "address"
        },
        {
          "internalType": "uint256",
          "name": "id_",
          "type": "uint256"
        },
        {
          "internalType": "uint8",
          "name": "v",
          "type": "uint8"
        },
        {
          "internalType": "bytes32",
          "name": "r",
          "type": "bytes32"
        },
        {
          "internalType": "bytes32",
          "name": "s",
          "type": "bytes32"
        }
      ],
      "name": "unSubscribe",
      "outputs": [],
      "stateMutability": "nonpayable",
      "type": "function"
    }
  ],
  "bytecode": "0x608060405234801561001057600080fd5b50613006806100206000396000f3fe608060405234801561001057600080fd5b50600436106100885760003560e01c80639b2e48bc1161005b5780639b2e48bc14610139578063b166acd11461016a578063bb97abcc14610186578063bd1ada501461019057610088565b8063125f21dc1461008d5780637934714b146100bd57806385d44740146100d95780638c685d2f14610109575b600080fd5b6100a760048036038101906100a29190612276565b6101c1565b6040516100b49190612a84565b60405180910390f35b6100d760048036038101906100d2919061229f565b6101c8565b005b6100f360048036038101906100ee9190612406565b6109f2565b6040516101009190612c79565b60405180910390f35b610123600480360381019061011e9190612406565b610a2e565b6040516101309190612c94565b60405180910390f35b610153600480360381019061014e919061237b565b610b4b565b604051610161929190612b30565b60405180910390f35b610184600480360381019061017f919061229f565b610d0e565b005b61018e611173565b005b6101aa60048036038101906101a5919061233f565b611175565b6040516101b8929190612b30565b60405180910390f35b6060919050565b60007f800000000000000000000000000000000000000000000000000000000000000085161461022d576040517f08c379a000000000000000000000000000000000000000000000000000000000815260040161022490612c19565b60405180910390fd5b60007fffffffffffffffffffffffffffffffffffffffffffffffffffffffffffffffff6fffffffffffffffffffffffffffffffff168516146102a4576040517f08c379a000000000000000000000000000000000000000000000000000000000815260040161029b90612c39565b60405180910390fd5b60008060000160008681526020019081526020016000206040518060a00160405290816000820160009054906101000a900473ffffffffffffffffffffffffffffffffffffffff1673ffffffffffffffffffffffffffffffffffffffff1673ffffffffffffffffffffffffffffffffffffffff1681526020016001820160009054906101000a900473ffffffffffffffffffffffffffffffffffffffff1673ffffffffffffffffffffffffffffffffffffffff1673ffffffffffffffffffffffffffffffffffffffff16815260200160028201548152602001600382015481526020016004820154815250509050600073ffffffffffffffffffffffffffffffffffffffff16816000015173ffffffffffffffffffffffffffffffffffffffff161415610406576040517f08c379a00000000000000000000000000000000000000000000000000000000081526004016103fd90612bd9565b60405180910390fd5b610448866040518060400160405280600981526020017f737562736372696265000000000000000000000000000000000000000000000081525086868661118e565b600081606001518617905060006104716000600b015484604001516113ab90919063ffffffff16565b905060006040518060c00160405280856000015173ffffffffffffffffffffffffffffffffffffffff1681526020018a73ffffffffffffffffffffffffffffffffffffffff16815260200185604001518152602001838152602001428152602001856020015173ffffffffffffffffffffffffffffffffffffffff168152509050806000600101600085815260200190815260200160002060008201518160000160006101000a81548173ffffffffffffffffffffffffffffffffffffffff021916908373ffffffffffffffffffffffffffffffffffffffff16021790555060208201518160010160006101000a81548173ffffffffffffffffffffffffffffffffffffffff021916908373ffffffffffffffffffffffffffffffffffffffff16021790555060408201518160020155606082015181600301556080820151816004015560a08201518160050160006101000a81548173ffffffffffffffffffffffffffffffffffffffff021916908373ffffffffffffffffffffffffffffffffffffffff160217905550905050610620846020015185600001516106198760400151611431565b60006114b3565b61065784602001518a6106496106398860400151611431565b600061170390919063ffffffff16565b61065286611431565b6114b3565b6106678460000151896001611791565b6106838984600160405180602001604052806000815250611974565b6106af60016000800160008b815260200190815260200160002060030154611b4d90919063ffffffff16565b6000800160008a8152602001908152602001600020600301819055506106f760016000800160008b815260200190815260200160002060040154611b4d90919063ffffffff16565b6000800160008a81526020019081526020016000206004018190555060006002016000856000015173ffffffffffffffffffffffffffffffffffffffff1673ffffffffffffffffffffffffffffffffffffffff16815260200190815260200160002081908060018154018082558091505060019003906000526020600020906006020160009091909190915060008201518160000160006101000a81548173ffffffffffffffffffffffffffffffffffffffff021916908373ffffffffffffffffffffffffffffffffffffffff16021790555060208201518160010160006101000a81548173ffffffffffffffffffffffffffffffffffffffff021916908373ffffffffffffffffffffffffffffffffffffffff16021790555060408201518160020155606082015181600301556080820151816004015560a08201518160050160006101000a81548173ffffffffffffffffffffffffffffffffffffffff021916908373ffffffffffffffffffffffffffffffffffffffff1602179055505050600060020160008a73ffffffffffffffffffffffffffffffffffffffff1673ffffffffffffffffffffffffffffffffffffffff16815260200190815260200160002081908060018154018082558091505060019003906000526020600020906006020160009091909190915060008201518160000160006101000a81548173ffffffffffffffffffffffffffffffffffffffff021916908373ffffffffffffffffffffffffffffffffffffffff16021790555060208201518160010160006101000a81548173ffffffffffffffffffffffffffffffffffffffff021916908373ffffffffffffffffffffffffffffffffffffffff16021790555060408201518160020155606082015181600301556080820151816004015560a08201518160050160006101000a81548173ffffffffffffffffffffffffffffffffffffffff021916908373ffffffffffffffffffffffffffffffffffffffff16021790555050506109e784602001518a611bd5565b505050505050505050565b6109fa612156565b610a02612156565b600060010160008481526020019081526020016000206004015481608001818152505080915050919050565b6000807f8000000000000000000000000000000000000000000000000000000000000000831614610a94576040517f08c379a0000000000000000000000000000000000000000000000000000000008152600401610a8b90612c19565b60405180910390fd5b60007fffffffffffffffffffffffffffffffffffffffffffffffffffffffffffffffff6fffffffffffffffffffffffffffffffff16831611610b0b576040517f08c379a0000000000000000000000000000000000000000000000000000000008152600401610b0290612c39565b60405180910390fd5b60807fffffffffffffffffffffffffffffffffffffffffffffffffffffffffffffffff6fffffffffffffffffffffffffffffffff16901b82169050919050565b600080610c7f600060060160008773ffffffffffffffffffffffffffffffffffffffff1673ffffffffffffffffffffffffffffffffffffffff16815260200190815260200160002060008673ffffffffffffffffffffffffffffffffffffffff1673ffffffffffffffffffffffffffffffffffffffff16815260200190815260200160002060000154610c71610c6c600060060160008a73ffffffffffffffffffffffffffffffffffffffff1673ffffffffffffffffffffffffffffffffffffffff16815260200190815260200160002060008973ffffffffffffffffffffffffffffffffffffffff1673ffffffffffffffffffffffffffffffffffffffff1681526020019081526020016000206002015487611cad90919063ffffffff16565b611431565b611cf790919063ffffffff16565b9150600060060160008673ffffffffffffffffffffffffffffffffffffffff1673ffffffffffffffffffffffffffffffffffffffff16815260200190815260200160002060008573ffffffffffffffffffffffffffffffffffffffff1673ffffffffffffffffffffffffffffffffffffffff168152602001908152602001600020600101549050935093915050565b60007f8000000000000000000000000000000000000000000000000000000000000000851614610d73576040517f08c379a0000000000000000000000000000000000000000000000000000000008152600401610d6a90612c19565b60405180910390fd5b60007fffffffffffffffffffffffffffffffffffffffffffffffffffffffffffffffff6fffffffffffffffffffffffffffffffff16851611610dea576040517f08c379a0000000000000000000000000000000000000000000000000000000008152600401610de190612c39565b60405180910390fd5b6000610df4611e21565b9050600081600001600087815260200190815260200160002060008873ffffffffffffffffffffffffffffffffffffffff1673ffffffffffffffffffffffffffffffffffffffff1681526020019081526020016000205411610e8b576040517f08c379a0000000000000000000000000000000000000000000000000000000008152600401610e8290612b99565b60405180910390fd5b610ecd866040518060400160405280600b81526020017f756e73756273637269626500000000000000000000000000000000000000000081525086868661118e565b610ed986866001611791565b610f666000600101600087815260200190815260200160002060000160009054906101000a900473ffffffffffffffffffffffffffffffffffffffff1660807fffffffffffffffffffffffffffffffffffffffffffffffffffffffffffffffff6fffffffffffffffffffffffffffffffff16901b8716600160405180602001604052806000815250611974565b610fca600160008001600060807fffffffffffffffffffffffffffffffffffffffffffffffffffffffffffffffff6fffffffffffffffffffffffffffffffff16901b8916815260200190815260200160002060040154611b4d90919063ffffffff16565b60008001600060807fffffffffffffffffffffffffffffffffffffffffffffffffffffffffffffffff6fffffffffffffffffffffffffffffffff16901b88168152602001908152602001600020600401819055506110d16000600101600087815260200190815260200160002060050160009054906101000a900473ffffffffffffffffffffffffffffffffffffffff166000600101600088815260200190815260200160002060000160009054906101000a900473ffffffffffffffffffffffffffffffffffffffff166110ca6110ba600060010160008b815260200190815260200160002060020154611431565b600061170390919063ffffffff16565b60006114b3565b61116b6000600101600087815260200190815260200160002060050160009054906101000a900473ffffffffffffffffffffffffffffffffffffffff1687611131600060010160008a815260200190815260200160002060020154611431565b611166611156600060010160008c815260200190815260200160002060030154611431565b600061170390919063ffffffff16565b6114b3565b505050505050565b565b600080611183848442610b4b565b915091509250929050565b6000611198611e21565b9050600081600301548260040154888460020160008b73ffffffffffffffffffffffffffffffffffffffff1673ffffffffffffffffffffffffffffffffffffffff1681526020019081526020016000206000015489805190602001206040516020016112079493929190612aa6565b6040516020818303038152906040528051906020012060405160200161122e9291906129a1565b604051602081830303815290604052805190602001209050600181868686604051600081526020016040526040516112699493929190612aeb565b6020604051602081039080840390855afa15801561128b573d6000803e3d6000fd5b5050506020604051035173ffffffffffffffffffffffffffffffffffffffff168773ffffffffffffffffffffffffffffffffffffffff1614611302576040517f08c379a00000000000000000000000000000000000000000000000000000000081526004016112f990612b79565b60405180910390fd5b61135a60018360020160008a73ffffffffffffffffffffffffffffffffffffffff1673ffffffffffffffffffffffffffffffffffffffff16815260200190815260200160002060000154611b4d90919063ffffffff16565b8260020160008973ffffffffffffffffffffffffffffffffffffffff1673ffffffffffffffffffffffffffffffffffffffff1681526020019081526020016000206000018190555050505050505050565b6000808314156113be576000905061142b565b60008284029050828482816113cf57fe5b0414611426576040517f08c379a0000000000000000000000000000000000000000000000000000000008152600401808060200182810382526021815260200180612f3d6021913960400191505060405180910390fd5b809150505b92915050565b60007f800000000000000000000000000000000000000000000000000000000000000082106114ab576040517f08c379a0000000000000000000000000000000000000000000000000000000008152600401808060200182810382526028815260200180612f856028913960400191505060405180910390fd5b819050919050565b60008060060160008673ffffffffffffffffffffffffffffffffffffffff1673ffffffffffffffffffffffffffffffffffffffff16815260200190815260200160002060008573ffffffffffffffffffffffffffffffffffffffff1673ffffffffffffffffffffffffffffffffffffffff1681526020019081526020016000206040518060600160405290816000820154815260200160018201548152602001600282015481525050905060006115958260000151611587611582856040015142611cad90919063ffffffff16565b611431565b611cf790919063ffffffff16565b90508573ffffffffffffffffffffffffffffffffffffffff1663cf97256d86836040518363ffffffff1660e01b81526004016115d2929190612a32565b600060405180830381600087803b1580156115ec57600080fd5b505af1158015611600573d6000803e3d6000fd5b505050506040518060600160405280611626868560000151611e4e90919063ffffffff16565b815260200161165261164d8661163f8760200151611431565b611e4e90919063ffffffff16565b611edc565b815260200142815250600060060160008873ffffffffffffffffffffffffffffffffffffffff1673ffffffffffffffffffffffffffffffffffffffff16815260200190815260200160002060008773ffffffffffffffffffffffffffffffffffffffff1673ffffffffffffffffffffffffffffffffffffffff168152602001908152602001600020600082015181600001556020820151816001015560408201518160020155905050505050505050565b60008082840390506000831215801561171c5750838113155b80611732575060008312801561173157508381135b5b611787576040517f08c379a0000000000000000000000000000000000000000000000000000000008152600401808060200182810382526024815260200180612fad6024913960400191505060405180910390fd5b8091505092915050565b600073ffffffffffffffffffffffffffffffffffffffff168373ffffffffffffffffffffffffffffffffffffffff161415611801576040517f08c379a00000000000000000000000000000000000000000000000000000000081526004016117f890612bf9565b60405180910390fd5b600061180b611f5c565b90506000611817611e21565b905061189883604051806060016040528060248152602001612ef86024913983600001600088815260200190815260200160002060008973ffffffffffffffffffffffffffffffffffffffff1673ffffffffffffffffffffffffffffffffffffffff16815260200190815260200160002054611f649092919063ffffffff16565b81600001600086815260200190815260200160002060008773ffffffffffffffffffffffffffffffffffffffff1673ffffffffffffffffffffffffffffffffffffffff16815260200190815260200160002081905550600073ffffffffffffffffffffffffffffffffffffffff168573ffffffffffffffffffffffffffffffffffffffff168373ffffffffffffffffffffffffffffffffffffffff167fc3d58168c5ae7397731d063d5bbf3d657854427343f4c083240f7aacaa2d0f628787604051611965929190612caf565b60405180910390a45050505050565b600073ffffffffffffffffffffffffffffffffffffffff168473ffffffffffffffffffffffffffffffffffffffff1614156119e4576040517f08c379a00000000000000000000000000000000000000000000000000000000081526004016119db90612c59565b60405180910390fd5b60006119ee611f5c565b905060006119fa611e21565b9050611a618482600001600088815260200190815260200160002060008973ffffffffffffffffffffffffffffffffffffffff1673ffffffffffffffffffffffffffffffffffffffff16815260200190815260200160002054611b4d90919063ffffffff16565b81600001600087815260200190815260200160002060008873ffffffffffffffffffffffffffffffffffffffff1673ffffffffffffffffffffffffffffffffffffffff168152602001908152602001600020819055508573ffffffffffffffffffffffffffffffffffffffff16600073ffffffffffffffffffffffffffffffffffffffff168373ffffffffffffffffffffffffffffffffffffffff167fc3d58168c5ae7397731d063d5bbf3d657854427343f4c083240f7aacaa2d0f628888604051611b2e929190612caf565b60405180910390a4611b4582600088888888612024565b505050505050565b600080828401905083811015611bcb576040517f08c379a000000000000000000000000000000000000000000000000000000000815260040180806020018281038252601b8152602001807f536166654d6174683a206164646974696f6e206f766572666c6f77000000000081525060200191505060405180910390fd5b8091505092915050565b60008273ffffffffffffffffffffffffffffffffffffffff1663eb3537cc83426040518363ffffffff1660e01b8152600401611c12929190612a5b565b604080518083038186803b158015611c2957600080fd5b505afa158015611c3d573d6000803e3d6000fd5b505050506040513d601f19601f82011682018060405250810190611c6191906123ca565b5090506000811215611ca8576040517f08c379a0000000000000000000000000000000000000000000000000000000008152600401611c9f90612bb9565b60405180910390fd5b505050565b6000611cef83836040518060400160405280601e81526020017f536166654d6174683a207375627472616374696f6e206f766572666c6f770000815250611f64565b905092915050565b600080831415611d0a5760009050611e1b565b7fffffffffffffffffffffffffffffffffffffffffffffffffffffffffffffffff83148015611d5857507f800000000000000000000000000000000000000000000000000000000000000082145b15611dae576040517f08c379a0000000000000000000000000000000000000000000000000000000008152600401808060200182810382526027815260200180612f5e6027913960400191505060405180910390fd5b6000828402905082848281611dbf57fe5b0514611e16576040517f08c379a0000000000000000000000000000000000000000000000000000000008152600401808060200182810382526027815260200180612f5e6027913960400191505060405180910390fd5b809150505b92915050565b6000807fd1fd1ec9eb6f457e5e32da0d2921ff6daf7fd2085ec060a076b391ca2400b28290508091505090565b600080828401905060008312158015611e675750838112155b80611e7d5750600083128015611e7c57508381125b5b611ed2576040517f08c379a0000000000000000000000000000000000000000000000000000000008152600401808060200182810382526021815260200180612f1c6021913960400191505060405180910390fd5b8091505092915050565b600080821215611f54576040517f08c379a00000000000000000000000000000000000000000000000000000000081526004018080602001828103825260208152602001807f53616665436173743a2076616c7565206d75737420626520706f73697469766581525060200191505060405180910390fd5b819050919050565b600033905090565b6000838311158290612011576040517f08c379a00000000000000000000000000000000000000000000000000000000081526004018080602001828103825283818151815260200191508051906020019080838360005b83811015611fd6578082015181840152602081019050611fbb565b50505050905090810190601f1680156120035780820380516001836020036101000a031916815260200191505b509250505060405180910390fd5b5060008385039050809150509392505050565b6000843b9050600081111561214d578473ffffffffffffffffffffffffffffffffffffffff1663f23a6e6188888787876040518663ffffffff1660e01b81526004016120749594939291906129d8565b602060405180830381600087803b15801561208e57600080fd5b505af11580156120a2573d6000803e3d6000fd5b505050506040513d601f19601f820116820180604052508101906120c69190612316565b7bffffffffffffffffffffffffffffffffffffffffffffffffffffffff191663f23a6e6160e01b7bffffffffffffffffffffffffffffffffffffffffffffffffffffffff19161461214c576040517f08c379a000000000000000000000000000000000000000000000000000000000815260040161214390612b59565b60405180910390fd5b5b50505050505050565b6040518060c00160405280600073ffffffffffffffffffffffffffffffffffffffff168152602001600073ffffffffffffffffffffffffffffffffffffffff168152602001600081526020016000815260200160008152602001600073ffffffffffffffffffffffffffffffffffffffff1681525090565b6000813590506121dd81612e56565b92915050565b6000813590506121f281612e6d565b92915050565b60008151905061220781612e84565b92915050565b60008135905061221c81612e9b565b92915050565b60008151905061223181612eb2565b92915050565b60008135905061224681612ec9565b92915050565b60008151905061225b81612ec9565b92915050565b60008135905061227081612ee0565b92915050565b60006020828403121561228857600080fd5b6000612296848285016121ce565b91505092915050565b600080600080600060a086880312156122b757600080fd5b60006122c5888289016121ce565b95505060206122d688828901612237565b94505060406122e788828901612261565b93505060606122f8888289016121e3565b9250506080612309888289016121e3565b9150509295509295909350565b60006020828403121561232857600080fd5b6000612336848285016121f8565b91505092915050565b6000806040838503121561235257600080fd5b60006123608582860161220d565b9250506020612371858286016121ce565b9150509250929050565b60008060006060848603121561239057600080fd5b600061239e8682870161220d565b93505060206123af868287016121ce565b92505060406123c086828701612237565b9150509250925092565b600080604083850312156123dd57600080fd5b60006123eb85828601612222565b92505060206123fc8582860161224c565b9150509250929050565b60006020828403121561241857600080fd5b600061242684828501612237565b91505092915050565b600061243b838361287e565b60c08301905092915050565b61245081612d49565b82525050565b61245f81612d49565b82525050565b600061247082612ce8565b61247a8185612d0b565b935061248583612cd8565b8060005b838110156124b657815161249d888261242f565b97506124a883612cfe565b925050600181019050612489565b5085935050505092915050565b6124cc81612d5b565b82525050565b6124e36124de82612d5b565b612e3b565b82525050565b60006124f482612cf3565b6124fe8185612d1c565b935061250e818560208601612e08565b61251781612e45565b840191505092915050565b61252b81612de4565b82525050565b61253a81612da3565b82525050565b600061254d603483612d2d565b91507f455243313135353a207472616e7366657220746f206e6f6e204552433131353560008301527f526563656976657220696d706c656d656e7465720000000000000000000000006020830152604082019050919050565b60006125b3601583612d2d565b91507f5175616c6c612f696e76616c69642d7065726d697400000000000000000000006000830152602082019050919050565b60006125f3601983612d2d565b91507f5175616c6c612f496e76616c69642d53756273637269626572000000000000006000830152602082019050919050565b6000612633602283612d2d565b91507f5175616c6c612f496e73756666696369656e742d7265616c74696d652d66756e60008301527f64730000000000000000000000000000000000000000000000000000000000006020830152604082019050919050565b6000612699600283612d3e565b91507f19010000000000000000000000000000000000000000000000000000000000006000830152600282019050919050565b60006126d9601783612d2d565b91507f5175616c6c612f496e76616c69642d546f6b656e2d49640000000000000000006000830152602082019050919050565b6000612719602383612d2d565b91507f455243313135353a206275726e2066726f6d20746865207a65726f206164647260008301527f65737300000000000000000000000000000000000000000000000000000000006020830152604082019050919050565b600061277f601783612d2d565b91507f5175616c6c612f57726f6e672d546f6b656e2d547970650000000000000000006000830152602082019050919050565b60006127bf602183612d2d565b91507f5175616c6c612f496e76616c69642d537562736372697074696f6e2d496e646560008301527f78000000000000000000000000000000000000000000000000000000000000006020830152604082019050919050565b6000612825602183612d2d565b91507f455243313135353a206d696e7420746f20746865207a65726f2061646472657360008301527f73000000000000000000000000000000000000000000000000000000000000006020830152604082019050919050565b60c0820160008201516128946000850182612447565b5060208201516128a76020850182612447565b5060408201516128ba6040850182612974565b5060608201516128cd6060850182612974565b5060808201516128e06080850182612974565b5060a08201516128f360a0850182612522565b50505050565b60c08201600082015161290f6000850182612447565b5060208201516129226020850182612447565b5060408201516129356040850182612974565b5060608201516129486060850182612974565b50608082015161295b6080850182612974565b5060a082015161296e60a0850182612522565b50505050565b61297d81612dcd565b82525050565b61298c81612dcd565b82525050565b61299b81612dd7565b82525050565b60006129ac8261268c565b91506129b882856124d2565b6020820191506129c882846124d2565b6020820191508190509392505050565b600060a0820190506129ed6000830188612456565b6129fa6020830187612456565b612a076040830186612983565b612a146060830185612983565b8181036080830152612a2681846124e9565b90509695505050505050565b6000604082019050612a476000830185612456565b612a546020830184612531565b9392505050565b6000604082019050612a706000830185612456565b612a7d6020830184612983565b9392505050565b60006020820190508181036000830152612a9e8184612465565b905092915050565b6000608082019050612abb60008301876124c3565b612ac86020830186612456565b612ad56040830185612983565b612ae260608301846124c3565b95945050505050565b6000608082019050612b0060008301876124c3565b612b0d6020830186612992565b612b1a60408301856124c3565b612b2760608301846124c3565b95945050505050565b6000604082019050612b456000830185612531565b612b526020830184612983565b9392505050565b60006020820190508181036000830152612b7281612540565b9050919050565b60006020820190508181036000830152612b92816125a6565b9050919050565b60006020820190508181036000830152612bb2816125e6565b9050919050565b60006020820190508181036000830152612bd281612626565b9050919050565b60006020820190508181036000830152612bf2816126cc565b9050919050565b60006020820190508181036000830152612c128161270c565b9050919050565b60006020820190508181036000830152612c3281612772565b9050919050565b60006020820190508181036000830152612c52816127b2565b9050919050565b60006020820190508181036000830152612c7281612818565b9050919050565b600060c082019050612c8e60008301846128f9565b92915050565b6000602082019050612ca96000830184612983565b92915050565b6000604082019050612cc46000830185612983565b612cd16020830184612983565b9392505050565b6000819050602082019050919050565b600081519050919050565b600081519050919050565b6000602082019050919050565b600082825260208201905092915050565b600082825260208201905092915050565b600082825260208201905092915050565b600081905092915050565b6000612d5482612dad565b9050919050565b6000819050919050565b60007fffffffff0000000000000000000000000000000000000000000000000000000082169050919050565b6000612d9c82612d49565b9050919050565b6000819050919050565b600073ffffffffffffffffffffffffffffffffffffffff82169050919050565b6000819050919050565b600060ff82169050919050565b6000612def82612df6565b9050919050565b6000612e0182612dad565b9050919050565b60005b83811015612e26578082015181840152602081019050612e0b565b83811115612e35576000848401525b50505050565b6000819050919050565b6000601f19601f8301169050919050565b612e5f81612d49565b8114612e6a57600080fd5b50565b612e7681612d5b565b8114612e8157600080fd5b50565b612e8d81612d65565b8114612e9857600080fd5b50565b612ea481612d91565b8114612eaf57600080fd5b50565b612ebb81612da3565b8114612ec657600080fd5b50565b612ed281612dcd565b8114612edd57600080fd5b50565b612ee981612dd7565b8114612ef457600080fd5b5056fe455243313135353a206275726e20616d6f756e7420657863656564732062616c616e63655369676e6564536166654d6174683a206164646974696f6e206f766572666c6f77536166654d6174683a206d756c7469706c69636174696f6e206f766572666c6f775369676e6564536166654d6174683a206d756c7469706c69636174696f6e206f766572666c6f7753616665436173743a2076616c756520646f65736e27742066697420696e20616e20696e743235365369676e6564536166654d6174683a207375627472616374696f6e206f766572666c6f77a2646970667358221220de4aa2514f630edeb51993aaba57f68b410875069bf29f36ef0211cd9ac7c9bd64736f6c63430007060033",
  "linkReferences": {},
  "deployedLinkReferences": {}
}