{
  "_format": "hh-sol-artifact-1",
  "contractName": "ERC1155Facet",
  "sourceName": "contracts/facets/ERC1155Facet.sol",
  "abi": [
    {
      "anonymous": false,
      "inputs": [
        {
          "indexed": true,
          "internalType": "address",
          "name": "account",
          "type": "address"
        },
        {
          "indexed": true,
          "internalType": "address",
          "name": "operator",
          "type": "address"
        },
        {
          "indexed": false,
          "internalType": "bool",
          "name": "approved",
          "type": "bool"
        }
      ],
      "name": "ApprovalForAll",
      "type": "event"
    },
    {
      "anonymous": false,
      "inputs": [
        {
          "indexed": true,
          "internalType": "address",
          "name": "operator",
          "type": "address"
        },
        {
          "indexed": true,
          "internalType": "address",
          "name": "from",
          "type": "address"
        },
        {
          "indexed": true,
          "internalType": "address",
          "name": "to",
          "type": "address"
        },
        {
          "indexed": false,
          "internalType": "uint256[]",
          "name": "ids",
          "type": "uint256[]"
        },
        {
          "indexed": false,
          "internalType": "uint256[]",
          "name": "values",
          "type": "uint256[]"
        }
      ],
      "name": "TransferBatch",
      "type": "event"
    },
    {
      "anonymous": false,
      "inputs": [
        {
          "indexed": true,
          "internalType": "address",
          "name": "operator",
          "type": "address"
        },
        {
          "indexed": true,
          "internalType": "address",
          "name": "from",
          "type": "address"
        },
        {
          "indexed": true,
          "internalType": "address",
          "name": "to",
          "type": "address"
        },
        {
          "indexed": false,
          "internalType": "uint256",
          "name": "id",
          "type": "uint256"
        },
        {
          "indexed": false,
          "internalType": "uint256",
          "name": "value",
          "type": "uint256"
        }
      ],
      "name": "TransferSingle",
      "type": "event"
    },
    {
      "anonymous": false,
      "inputs": [
        {
          "indexed": false,
          "internalType": "string",
          "name": "value",
          "type": "string"
        },
        {
          "indexed": true,
          "internalType": "uint256",
          "name": "id",
          "type": "uint256"
        }
      ],
      "name": "URI",
      "type": "event"
    },
    {
      "inputs": [
        {
          "internalType": "address",
          "name": "account",
          "type": "address"
        },
        {
          "internalType": "uint256",
          "name": "id",
          "type": "uint256"
        }
      ],
      "name": "balanceOf",
      "outputs": [
        {
          "internalType": "uint256",
          "name": "",
          "type": "uint256"
        }
      ],
      "stateMutability": "view",
      "type": "function"
    },
    {
      "inputs": [
        {
          "internalType": "address[]",
          "name": "accounts",
          "type": "address[]"
        },
        {
          "internalType": "uint256[]",
          "name": "ids",
          "type": "uint256[]"
        }
      ],
      "name": "balanceOfBatch",
      "outputs": [
        {
          "internalType": "uint256[]",
          "name": "",
          "type": "uint256[]"
        }
      ],
      "stateMutability": "view",
      "type": "function"
    },
    {
      "inputs": [
        {
          "internalType": "address",
          "name": "user",
          "type": "address"
        }
      ],
      "name": "getUserNonce",
      "outputs": [
        {
          "internalType": "uint256",
          "name": "",
          "type": "uint256"
        }
      ],
      "stateMutability": "view",
      "type": "function"
    },
    {
      "inputs": [
        {
          "internalType": "address",
          "name": "account",
          "type": "address"
        },
        {
          "internalType": "address",
          "name": "operator",
          "type": "address"
        }
      ],
      "name": "isApprovedForAll",
      "outputs": [
        {
          "internalType": "bool",
          "name": "",
          "type": "bool"
        }
      ],
      "stateMutability": "view",
      "type": "function"
    },
    {
      "inputs": [
        {
          "internalType": "address",
          "name": "from",
          "type": "address"
        },
        {
          "internalType": "address",
          "name": "to",
          "type": "address"
        },
        {
          "internalType": "uint256[]",
          "name": "ids",
          "type": "uint256[]"
        },
        {
          "internalType": "uint256[]",
          "name": "amounts",
          "type": "uint256[]"
        },
        {
          "internalType": "bytes",
          "name": "data",
          "type": "bytes"
        }
      ],
      "name": "safeBatchTransferFrom",
      "outputs": [],
      "stateMutability": "nonpayable",
      "type": "function"
    },
    {
      "inputs": [
        {
          "internalType": "address",
          "name": "from",
          "type": "address"
        },
        {
          "internalType": "address",
          "name": "to",
          "type": "address"
        },
        {
          "internalType": "uint256",
          "name": "id",
          "type": "uint256"
        },
        {
          "internalType": "uint256",
          "name": "amount",
          "type": "uint256"
        },
        {
          "internalType": "bytes",
          "name": "data",
          "type": "bytes"
        }
      ],
      "name": "safeTransferFrom",
      "outputs": [],
      "stateMutability": "nonpayable",
      "type": "function"
    },
    {
      "inputs": [
        {
          "internalType": "address",
          "name": "operator",
          "type": "address"
        },
        {
          "internalType": "bool",
          "name": "approved",
          "type": "bool"
        }
      ],
      "name": "setApprovalForAll",
      "outputs": [],
      "stateMutability": "nonpayable",
      "type": "function"
    },
    {
      "inputs": [
        {
          "internalType": "uint256",
          "name": "id",
          "type": "uint256"
        }
      ],
      "name": "uri",
      "outputs": [
        {
          "internalType": "string",
          "name": "",
          "type": "string"
        }
      ],
      "stateMutability": "view",
      "type": "function"
    }
  ],
  "bytecode": "0x608060405234801561001057600080fd5b506121b0806100206000396000f3fe608060405234801561001057600080fd5b50600436106100875760003560e01c80636834e3a81161005b5780636834e3a814610138578063a22cb46514610168578063e985e9c514610184578063f242432a146101b457610087565b8062fdd58e1461008c5780630e89341c146100bc5780632eb2c2d6146100ec5780634e1273f414610108575b600080fd5b6100a660048036038101906100a191906116e7565b6101d0565b6040516100b39190611f78565b60405180910390f35b6100d660048036038101906100d191906117c1565b610239565b6040516100e39190611e36565b60405180910390f35b6101066004803603810190610101919061154d565b61032c565b005b610122600480360381019061011d9190611723565b6107d2565b60405161012f9190611df9565b60405180910390f35b610152600480360381019061014d91906114e8565b6109ca565b60405161015f9190611f78565b60405180910390f35b610182600480360381019061017d91906116ab565b610a24565b005b61019e60048036038101906101999190611511565b610bb4565b6040516101ab9190611e1b565b60405180910390f35b6101ce60048036038101906101c99190611619565b610c56565b005b6000806101db610fd5565b905080600001600084815260200190815260200160002060008573ffffffffffffffffffffffffffffffffffffffff1673ffffffffffffffffffffffffffffffffffffffff1681526020019081526020016000205491505092915050565b60606000600301600060807fffffffffffffffffffffffffffffffffffffffffffffffffffffffffffffffff6fffffffffffffffffffffffffffffffff16901b841681526020019081526020016000206000018054600181600116156101000203166002900480601f0160208091040260200160405190810160405280929190818152602001828054600181600116156101000203166002900480156103205780601f106102f557610100808354040283529160200191610320565b820191906000526020600020905b81548152906001019060200180831161030357829003601f168201915b50505050509050919050565b838390508686905014610374576040517f08c379a000000000000000000000000000000000000000000000000000000000815260040161036b90611f58565b60405180910390fd5b600073ffffffffffffffffffffffffffffffffffffffff168773ffffffffffffffffffffffffffffffffffffffff1614156103e4576040517f08c379a00000000000000000000000000000000000000000000000000000000081526004016103db90611ed8565b60405180910390fd5b6103ec611002565b73ffffffffffffffffffffffffffffffffffffffff168873ffffffffffffffffffffffffffffffffffffffff16148061043257506104318861042c611002565b610bb4565b5b610471576040517f08c379a000000000000000000000000000000000000000000000000000000000815260040161046890611ef8565b60405180910390fd5b600061047b610fd5565b905060005b8787905081101561066257600088888381811061049957fe5b9050602002013590506105338787848181106104b157fe5b905060200201356040518060600160405280602a8152602001612151602a913985600001600085815260200190815260200160002060008f73ffffffffffffffffffffffffffffffffffffffff1673ffffffffffffffffffffffffffffffffffffffff1681526020019081526020016000205461100a9092919063ffffffff16565b83600001600083815260200190815260200160002060008d73ffffffffffffffffffffffffffffffffffffffff1673ffffffffffffffffffffffffffffffffffffffff1681526020019081526020016000208190555061060087878481811061059857fe5b9050602002013584600001600084815260200190815260200160002060008d73ffffffffffffffffffffffffffffffffffffffff1673ffffffffffffffffffffffffffffffffffffffff168152602001908152602001600020546110ca90919063ffffffff16565b83600001600083815260200190815260200160002060008c73ffffffffffffffffffffffffffffffffffffffff1673ffffffffffffffffffffffffffffffffffffffff1681526020019081526020016000208190555050806001019050610480565b508773ffffffffffffffffffffffffffffffffffffffff168973ffffffffffffffffffffffffffffffffffffffff16610699611002565b73ffffffffffffffffffffffffffffffffffffffff167f4a39dc06d4c0dbc64b70af90fd698a233a518aa5d07e595d983b8c0526c8f7fb8a8a8a8a6040516106e49493929190611dbe565b60405180910390a46107c76106f7611002565b8a8a8a8a80806020026020016040519081016040528093929190818152602001838360200280828437600081840152601f19601f82011690508083019250505050505050898980806020026020016040519081016040528093929190818152602001838360200280828437600081840152601f19601f8201169050808301925050505050505088888080601f016020809104026020016040519081016040528093929190818152602001838380828437600081840152601f19601f82011690508083019250505050505050611152565b505050505050505050565b606082829050858590501461081c576040517f08c379a000000000000000000000000000000000000000000000000000000000815260040161081390611f38565b60405180910390fd5b6000610826610fd5565b905060008686905067ffffffffffffffff8111801561084457600080fd5b506040519080825280602002602001820160405280156108735781602001602082028036833780820191505090505b50905060005b878790508110156109bc57600073ffffffffffffffffffffffffffffffffffffffff168888838181106108a857fe5b90506020020160208101906108bd91906114e8565b73ffffffffffffffffffffffffffffffffffffffff161415610914576040517f08c379a000000000000000000000000000000000000000000000000000000000815260040161090b90611e98565b60405180910390fd5b82600001600087878481811061092657fe5b905060200201358152602001908152602001600020600089898481811061094957fe5b905060200201602081019061095e91906114e8565b73ffffffffffffffffffffffffffffffffffffffff1673ffffffffffffffffffffffffffffffffffffffff168152602001908152602001600020548282815181106109a557fe5b602002602001018181525050806001019050610879565b508092505050949350505050565b6000806109d5610fd5565b90508060020160008473ffffffffffffffffffffffffffffffffffffffff1673ffffffffffffffffffffffffffffffffffffffff16815260200190815260200160002060000154915050919050565b8173ffffffffffffffffffffffffffffffffffffffff16610a43611002565b73ffffffffffffffffffffffffffffffffffffffff161415610a9a576040517f08c379a0000000000000000000000000000000000000000000000000000000008152600401610a9190611f18565b60405180910390fd5b6000610aa4610fd5565b905081816001016000610ab5611002565b73ffffffffffffffffffffffffffffffffffffffff1673ffffffffffffffffffffffffffffffffffffffff16815260200190815260200160002060008573ffffffffffffffffffffffffffffffffffffffff1673ffffffffffffffffffffffffffffffffffffffff16815260200190815260200160002060006101000a81548160ff0219169083151502179055508273ffffffffffffffffffffffffffffffffffffffff16610b62611002565b73ffffffffffffffffffffffffffffffffffffffff167f17307eab39ab6107e8899845ad3d59bd9653f200f220920489ca2b5937696c3184604051610ba79190611e1b565b60405180910390a3505050565b600080610bbf610fd5565b90508060010160008573ffffffffffffffffffffffffffffffffffffffff1673ffffffffffffffffffffffffffffffffffffffff16815260200190815260200160002060008473ffffffffffffffffffffffffffffffffffffffff1673ffffffffffffffffffffffffffffffffffffffff16815260200190815260200160002060009054906101000a900460ff1691505092915050565b600073ffffffffffffffffffffffffffffffffffffffff168573ffffffffffffffffffffffffffffffffffffffff161415610cc6576040517f08c379a0000000000000000000000000000000000000000000000000000000008152600401610cbd90611ed8565b60405180910390fd5b610cce611002565b73ffffffffffffffffffffffffffffffffffffffff168673ffffffffffffffffffffffffffffffffffffffff161480610d145750610d1386610d0e611002565b610bb4565b5b610d53576040517f08c379a0000000000000000000000000000000000000000000000000000000008152600401610d4a90611eb8565b60405180910390fd5b6000610d5d610fd5565b90506000610d69611002565b9050610dea856040518060600160405280602a8152602001612151602a91398460000160008a815260200190815260200160002060008c73ffffffffffffffffffffffffffffffffffffffff1673ffffffffffffffffffffffffffffffffffffffff1681526020019081526020016000205461100a9092919063ffffffff16565b82600001600088815260200190815260200160002060008a73ffffffffffffffffffffffffffffffffffffffff1673ffffffffffffffffffffffffffffffffffffffff16815260200190815260200160002081905550610ea58583600001600089815260200190815260200160002060008a73ffffffffffffffffffffffffffffffffffffffff1673ffffffffffffffffffffffffffffffffffffffff168152602001908152602001600020546110ca90919063ffffffff16565b82600001600088815260200190815260200160002060008973ffffffffffffffffffffffffffffffffffffffff1673ffffffffffffffffffffffffffffffffffffffff168152602001908152602001600020819055508673ffffffffffffffffffffffffffffffffffffffff168873ffffffffffffffffffffffffffffffffffffffff168273ffffffffffffffffffffffffffffffffffffffff167fc3d58168c5ae7397731d063d5bbf3d657854427343f4c083240f7aacaa2d0f628989604051610f71929190611f93565b60405180910390a4610fcb818989898989898080601f016020809104026020016040519081016040528093929190818152602001838380828437600081840152601f19601f82011690508083019250505050505050611284565b5050505050505050565b6000807fd1fd1ec9eb6f457e5e32da0d2921ff6daf7fd2085ec060a076b391ca2400b28290508091505090565b600033905090565b60008383111582906110b7576040517f08c379a00000000000000000000000000000000000000000000000000000000081526004018080602001828103825283818151815260200191508051906020019080838360005b8381101561107c578082015181840152602081019050611061565b50505050905090810190601f1680156110a95780820380516001836020036101000a031916815260200191505b509250505060405180910390fd5b5060008385039050809150509392505050565b600080828401905083811015611148576040517f08c379a000000000000000000000000000000000000000000000000000000000815260040180806020018281038252601b8152602001807f536166654d6174683a206164646974696f6e206f766572666c6f77000000000081525060200191505060405180910390fd5b8091505092915050565b6000843b9050600081111561127b578473ffffffffffffffffffffffffffffffffffffffff1663bc197c8188888787876040518663ffffffff1660e01b81526004016111a2959493929190611cfc565b602060405180830381600087803b1580156111bc57600080fd5b505af11580156111d0573d6000803e3d6000fd5b505050506040513d601f19601f820116820180604052508101906111f49190611798565b7bffffffffffffffffffffffffffffffffffffffffffffffffffffffff191663bc197c8160e01b7bffffffffffffffffffffffffffffffffffffffffffffffffffffffff19161461127a576040517f08c379a000000000000000000000000000000000000000000000000000000000815260040161127190611e78565b60405180910390fd5b5b50505050505050565b6000843b905060008111156113ad578473ffffffffffffffffffffffffffffffffffffffff1663f23a6e6188888787876040518663ffffffff1660e01b81526004016112d4959493929190611d64565b602060405180830381600087803b1580156112ee57600080fd5b505af1158015611302573d6000803e3d6000fd5b505050506040513d601f19601f820116820180604052508101906113269190611798565b7bffffffffffffffffffffffffffffffffffffffffffffffffffffffff191663f23a6e6160e01b7bffffffffffffffffffffffffffffffffffffffffffffffffffffffff1916146113ac576040517f08c379a00000000000000000000000000000000000000000000000000000000081526004016113a390611e58565b60405180910390fd5b5b50505050505050565b6000813590506113c5816120f4565b92915050565b60008083601f8401126113dd57600080fd5b8235905067ffffffffffffffff8111156113f657600080fd5b60208301915083602082028301111561140e57600080fd5b9250929050565b60008083601f84011261142757600080fd5b8235905067ffffffffffffffff81111561144057600080fd5b60208301915083602082028301111561145857600080fd5b9250929050565b60008135905061146e8161210b565b92915050565b60008151905061148381612122565b92915050565b60008083601f84011261149b57600080fd5b8235905067ffffffffffffffff8111156114b457600080fd5b6020830191508360018202830111156114cc57600080fd5b9250929050565b6000813590506114e281612139565b92915050565b6000602082840312156114fa57600080fd5b6000611508848285016113b6565b91505092915050565b6000806040838503121561152457600080fd5b6000611532858286016113b6565b9250506020611543858286016113b6565b9150509250929050565b60008060008060008060008060a0898b03121561156957600080fd5b60006115778b828c016113b6565b98505060206115888b828c016113b6565b975050604089013567ffffffffffffffff8111156115a557600080fd5b6115b18b828c01611415565b9650965050606089013567ffffffffffffffff8111156115d057600080fd5b6115dc8b828c01611415565b9450945050608089013567ffffffffffffffff8111156115fb57600080fd5b6116078b828c01611489565b92509250509295985092959890939650565b60008060008060008060a0878903121561163257600080fd5b600061164089828a016113b6565b965050602061165189828a016113b6565b955050604061166289828a016114d3565b945050606061167389828a016114d3565b935050608087013567ffffffffffffffff81111561169057600080fd5b61169c89828a01611489565b92509250509295509295509295565b600080604083850312156116be57600080fd5b60006116cc858286016113b6565b92505060206116dd8582860161145f565b9150509250929050565b600080604083850312156116fa57600080fd5b6000611708858286016113b6565b9250506020611719858286016114d3565b9150509250929050565b6000806000806040858703121561173957600080fd5b600085013567ffffffffffffffff81111561175357600080fd5b61175f878288016113cb565b9450945050602085013567ffffffffffffffff81111561177e57600080fd5b61178a87828801611415565b925092505092959194509250565b6000602082840312156117aa57600080fd5b60006117b884828501611474565b91505092915050565b6000602082840312156117d357600080fd5b60006117e1848285016114d3565b91505092915050565b60006117f68383611cde565b60208301905092915050565b61180b8161202d565b82525050565b600061181d8385611ffa565b93507f07ffffffffffffffffffffffffffffffffffffffffffffffffffffffffffffff83111561184c57600080fd5b60208302925061185d8385846120a1565b82840190509392505050565b600061187482611fcc565b61187e8185611ffa565b935061188983611fbc565b8060005b838110156118ba5781516118a188826117ea565b97506118ac83611fed565b92505060018101905061188d565b5085935050505092915050565b6118d08161203f565b82525050565b60006118e182611fd7565b6118eb818561200b565b93506118fb8185602086016120b0565b611904816120e3565b840191505092915050565b600061191a82611fe2565b611924818561201c565b93506119348185602086016120b0565b61193d816120e3565b840191505092915050565b600061195560348361201c565b91507f455243313135353a207472616e7366657220746f206e6f6e204552433131353560008301527f526563656976657220696d706c656d656e7465720000000000000000000000006020830152604082019050919050565b60006119bb60288361201c565b91507f455243313135353a204552433131353552656365697665722072656a6563746560008301527f6420746f6b656e730000000000000000000000000000000000000000000000006020830152604082019050919050565b6000611a2160318361201c565b91507f455243313135353a2062617463682062616c616e636520717565727920666f7260008301527f20746865207a65726f20616464726573730000000000000000000000000000006020830152604082019050919050565b6000611a8760298361201c565b91507f455243313135353a2063616c6c6572206973206e6f74206f776e6572206e6f7260008301527f20617070726f76656400000000000000000000000000000000000000000000006020830152604082019050919050565b6000611aed60258361201c565b91507f455243313135353a207472616e7366657220746f20746865207a65726f20616460008301527f64726573730000000000000000000000000000000000000000000000000000006020830152604082019050919050565b6000611b5360328361201c565b91507f455243313135353a207472616e736665722063616c6c6572206973206e6f742060008301527f6f776e6572206e6f7220617070726f76656400000000000000000000000000006020830152604082019050919050565b6000611bb960298361201c565b91507f455243313135353a2073657474696e6720617070726f76616c2073746174757360008301527f20666f722073656c6600000000000000000000000000000000000000000000006020830152604082019050919050565b6000611c1f60298361201c565b91507f455243313135353a206163636f756e747320616e6420696473206c656e67746860008301527f206d69736d6174636800000000000000000000000000000000000000000000006020830152604082019050919050565b6000611c8560288361201c565b91507f455243313135353a2069647320616e6420616d6f756e7473206c656e6774682060008301527f6d69736d617463680000000000000000000000000000000000000000000000006020830152604082019050919050565b611ce781612097565b82525050565b611cf681612097565b82525050565b600060a082019050611d116000830188611802565b611d1e6020830187611802565b8181036040830152611d308186611869565b90508181036060830152611d448185611869565b90508181036080830152611d5881846118d6565b90509695505050505050565b600060a082019050611d796000830188611802565b611d866020830187611802565b611d936040830186611ced565b611da06060830185611ced565b8181036080830152611db281846118d6565b90509695505050505050565b60006040820190508181036000830152611dd9818688611811565b90508181036020830152611dee818486611811565b905095945050505050565b60006020820190508181036000830152611e138184611869565b905092915050565b6000602082019050611e3060008301846118c7565b92915050565b60006020820190508181036000830152611e50818461190f565b905092915050565b60006020820190508181036000830152611e7181611948565b9050919050565b60006020820190508181036000830152611e91816119ae565b9050919050565b60006020820190508181036000830152611eb181611a14565b9050919050565b60006020820190508181036000830152611ed181611a7a565b9050919050565b60006020820190508181036000830152611ef181611ae0565b9050919050565b60006020820190508181036000830152611f1181611b46565b9050919050565b60006020820190508181036000830152611f3181611bac565b9050919050565b60006020820190508181036000830152611f5181611c12565b9050919050565b60006020820190508181036000830152611f7181611c78565b9050919050565b6000602082019050611f8d6000830184611ced565b92915050565b6000604082019050611fa86000830185611ced565b611fb56020830184611ced565b9392505050565b6000819050602082019050919050565b600081519050919050565b600081519050919050565b600081519050919050565b6000602082019050919050565b600082825260208201905092915050565b600082825260208201905092915050565b600082825260208201905092915050565b600061203882612077565b9050919050565b60008115159050919050565b60007fffffffff0000000000000000000000000000000000000000000000000000000082169050919050565b600073ffffffffffffffffffffffffffffffffffffffff82169050919050565b6000819050919050565b82818337600083830152505050565b60005b838110156120ce5780820151818401526020810190506120b3565b838111156120dd576000848401525b50505050565b6000601f19601f8301169050919050565b6120fd8161202d565b811461210857600080fd5b50565b6121148161203f565b811461211f57600080fd5b50565b61212b8161204b565b811461213657600080fd5b50565b61214281612097565b811461214d57600080fd5b5056fe455243313135353a20696e73756666696369656e742062616c616e636520666f72207472616e73666572a264697066735822122091f01ed0bbd8509938f8621277a38591ff6683f02070b33ae41373c30c97c03d64736f6c63430007060033",
  "linkReferences": {},
  "deployedLinkReferences": {}
}