{
  "_format": "hh-sol-artifact-1",
  "contractName": "ERC1155Facet",
  "sourceName": "contracts/facets/ERC1155Facet.sol",
  "abi": [
    {
      "anonymous": false,
      "inputs": [
        {
          "indexed": true,
          "internalType": "address",
          "name": "account",
          "type": "address"
        },
        {
          "indexed": true,
          "internalType": "address",
          "name": "operator",
          "type": "address"
        },
        {
          "indexed": false,
          "internalType": "bool",
          "name": "approved",
          "type": "bool"
        }
      ],
      "name": "ApprovalForAll",
      "type": "event"
    },
    {
      "anonymous": false,
      "inputs": [
        {
          "indexed": true,
          "internalType": "address",
          "name": "operator",
          "type": "address"
        },
        {
          "indexed": true,
          "internalType": "address",
          "name": "from",
          "type": "address"
        },
        {
          "indexed": true,
          "internalType": "address",
          "name": "to",
          "type": "address"
        },
        {
          "indexed": false,
          "internalType": "uint256[]",
          "name": "ids",
          "type": "uint256[]"
        },
        {
          "indexed": false,
          "internalType": "uint256[]",
          "name": "values",
          "type": "uint256[]"
        }
      ],
      "name": "TransferBatch",
      "type": "event"
    },
    {
      "anonymous": false,
      "inputs": [
        {
          "indexed": true,
          "internalType": "address",
          "name": "operator",
          "type": "address"
        },
        {
          "indexed": true,
          "internalType": "address",
          "name": "from",
          "type": "address"
        },
        {
          "indexed": true,
          "internalType": "address",
          "name": "to",
          "type": "address"
        },
        {
          "indexed": false,
          "internalType": "uint256",
          "name": "id",
          "type": "uint256"
        },
        {
          "indexed": false,
          "internalType": "uint256",
          "name": "value",
          "type": "uint256"
        }
      ],
      "name": "TransferSingle",
      "type": "event"
    },
    {
      "anonymous": false,
      "inputs": [
        {
          "indexed": false,
          "internalType": "string",
          "name": "value",
          "type": "string"
        },
        {
          "indexed": true,
          "internalType": "uint256",
          "name": "id",
          "type": "uint256"
        }
      ],
      "name": "URI",
      "type": "event"
    },
    {
      "inputs": [
        {
          "internalType": "address",
          "name": "account",
          "type": "address"
        },
        {
          "internalType": "uint256",
          "name": "id",
          "type": "uint256"
        }
      ],
      "name": "balanceOf",
      "outputs": [
        {
          "internalType": "uint256",
          "name": "",
          "type": "uint256"
        }
      ],
      "stateMutability": "view",
      "type": "function"
    },
    {
      "inputs": [
        {
          "internalType": "address[]",
          "name": "accounts",
          "type": "address[]"
        },
        {
          "internalType": "uint256[]",
          "name": "ids",
          "type": "uint256[]"
        }
      ],
      "name": "balanceOfBatch",
      "outputs": [
        {
          "internalType": "uint256[]",
          "name": "",
          "type": "uint256[]"
        }
      ],
      "stateMutability": "view",
      "type": "function"
    },
    {
      "inputs": [
        {
          "internalType": "address",
          "name": "user",
          "type": "address"
        }
      ],
      "name": "getUserNonce",
      "outputs": [
        {
          "internalType": "uint256",
          "name": "",
          "type": "uint256"
        }
      ],
      "stateMutability": "view",
      "type": "function"
    },
    {
      "inputs": [
        {
          "internalType": "address",
          "name": "account",
          "type": "address"
        },
        {
          "internalType": "address",
          "name": "operator",
          "type": "address"
        }
      ],
      "name": "isApprovedForAll",
      "outputs": [
        {
          "internalType": "bool",
          "name": "",
          "type": "bool"
        }
      ],
      "stateMutability": "view",
      "type": "function"
    },
    {
      "inputs": [
        {
          "internalType": "address",
          "name": "from",
          "type": "address"
        },
        {
          "internalType": "address",
          "name": "to",
          "type": "address"
        },
        {
          "internalType": "uint256[]",
          "name": "ids",
          "type": "uint256[]"
        },
        {
          "internalType": "uint256[]",
          "name": "amounts",
          "type": "uint256[]"
        },
        {
          "internalType": "bytes",
          "name": "data",
          "type": "bytes"
        }
      ],
      "name": "safeBatchTransferFrom",
      "outputs": [],
      "stateMutability": "nonpayable",
      "type": "function"
    },
    {
      "inputs": [
        {
          "internalType": "address",
          "name": "from",
          "type": "address"
        },
        {
          "internalType": "address",
          "name": "to",
          "type": "address"
        },
        {
          "internalType": "uint256",
          "name": "id",
          "type": "uint256"
        },
        {
          "internalType": "uint256",
          "name": "amount",
          "type": "uint256"
        },
        {
          "internalType": "bytes",
          "name": "data",
          "type": "bytes"
        }
      ],
      "name": "safeTransferFrom",
      "outputs": [],
      "stateMutability": "nonpayable",
      "type": "function"
    },
    {
      "inputs": [
        {
          "internalType": "address",
          "name": "operator",
          "type": "address"
        },
        {
          "internalType": "bool",
          "name": "approved",
          "type": "bool"
        }
      ],
      "name": "setApprovalForAll",
      "outputs": [],
      "stateMutability": "nonpayable",
      "type": "function"
    },
    {
      "inputs": [
        {
          "internalType": "uint256",
          "name": "id",
          "type": "uint256"
        }
      ],
      "name": "uri",
      "outputs": [
        {
          "internalType": "string",
          "name": "",
          "type": "string"
        }
      ],
      "stateMutability": "view",
      "type": "function"
    }
  ],
  "bytecode": "0x608060405234801561001057600080fd5b506121e9806100206000396000f3fe608060405234801561001057600080fd5b50600436106100875760003560e01c80636834e3a81161005b5780636834e3a814610138578063a22cb46514610168578063e985e9c514610184578063f242432a146101b457610087565b8062fdd58e1461008c5780630e89341c146100bc5780632eb2c2d6146100ec5780634e1273f414610108575b600080fd5b6100a660048036038101906100a19190611720565b6101d0565b6040516100b39190611fb1565b60405180910390f35b6100d660048036038101906100d191906117fa565b610239565b6040516100e39190611e6f565b60405180910390f35b61010660048036038101906101019190611586565b610338565b005b610122600480360381019061011d919061175c565b6107de565b60405161012f9190611e32565b60405180910390f35b610152600480360381019061014d9190611521565b6109d6565b60405161015f9190611fb1565b60405180910390f35b610182600480360381019061017d91906116e4565b610a30565b005b61019e6004803603810190610199919061154a565b610bc0565b6040516101ab9190611e54565b60405180910390f35b6101ce60048036038101906101c99190611652565b610c62565b005b6000806101db610fe1565b905080600001600084815260200190815260200160002060008573ffffffffffffffffffffffffffffffffffffffff1673ffffffffffffffffffffffffffffffffffffffff1681526020019081526020016000205491505092915050565b6060600061024561100e565b905080600201600060807fffffffffffffffffffffffffffffffffffffffffffffffffffffffffffffffff6fffffffffffffffffffffffffffffffff16901b851681526020019081526020016000206000018054600181600116156101000203166002900480601f01602080910402602001604051908101604052809291908181526020018280546001816001161561010002031660029004801561032b5780601f106103005761010080835404028352916020019161032b565b820191906000526020600020905b81548152906001019060200180831161030e57829003601f168201915b5050505050915050919050565b838390508686905014610380576040517f08c379a000000000000000000000000000000000000000000000000000000000815260040161037790611f91565b60405180910390fd5b600073ffffffffffffffffffffffffffffffffffffffff168773ffffffffffffffffffffffffffffffffffffffff1614156103f0576040517f08c379a00000000000000000000000000000000000000000000000000000000081526004016103e790611f11565b60405180910390fd5b6103f861103b565b73ffffffffffffffffffffffffffffffffffffffff168873ffffffffffffffffffffffffffffffffffffffff16148061043e575061043d8861043861103b565b610bc0565b5b61047d576040517f08c379a000000000000000000000000000000000000000000000000000000000815260040161047490611f31565b60405180910390fd5b6000610487610fe1565b905060005b8787905081101561066e5760008888838181106104a557fe5b90506020020135905061053f8787848181106104bd57fe5b905060200201356040518060600160405280602a815260200161218a602a913985600001600085815260200190815260200160002060008f73ffffffffffffffffffffffffffffffffffffffff1673ffffffffffffffffffffffffffffffffffffffff168152602001908152602001600020546110439092919063ffffffff16565b83600001600083815260200190815260200160002060008d73ffffffffffffffffffffffffffffffffffffffff1673ffffffffffffffffffffffffffffffffffffffff1681526020019081526020016000208190555061060c8787848181106105a457fe5b9050602002013584600001600084815260200190815260200160002060008d73ffffffffffffffffffffffffffffffffffffffff1673ffffffffffffffffffffffffffffffffffffffff1681526020019081526020016000205461110390919063ffffffff16565b83600001600083815260200190815260200160002060008c73ffffffffffffffffffffffffffffffffffffffff1673ffffffffffffffffffffffffffffffffffffffff168152602001908152602001600020819055505080600101905061048c565b508773ffffffffffffffffffffffffffffffffffffffff168973ffffffffffffffffffffffffffffffffffffffff166106a561103b565b73ffffffffffffffffffffffffffffffffffffffff167f4a39dc06d4c0dbc64b70af90fd698a233a518aa5d07e595d983b8c0526c8f7fb8a8a8a8a6040516106f09493929190611df7565b60405180910390a46107d361070361103b565b8a8a8a8a80806020026020016040519081016040528093929190818152602001838360200280828437600081840152601f19601f82011690508083019250505050505050898980806020026020016040519081016040528093929190818152602001838360200280828437600081840152601f19601f8201169050808301925050505050505088888080601f016020809104026020016040519081016040528093929190818152602001838380828437600081840152601f19601f8201169050808301925050505050505061118b565b505050505050505050565b6060828290508585905014610828576040517f08c379a000000000000000000000000000000000000000000000000000000000815260040161081f90611f71565b60405180910390fd5b6000610832610fe1565b905060008686905067ffffffffffffffff8111801561085057600080fd5b5060405190808252806020026020018201604052801561087f5781602001602082028036833780820191505090505b50905060005b878790508110156109c857600073ffffffffffffffffffffffffffffffffffffffff168888838181106108b457fe5b90506020020160208101906108c99190611521565b73ffffffffffffffffffffffffffffffffffffffff161415610920576040517f08c379a000000000000000000000000000000000000000000000000000000000815260040161091790611ed1565b60405180910390fd5b82600001600087878481811061093257fe5b905060200201358152602001908152602001600020600089898481811061095557fe5b905060200201602081019061096a9190611521565b73ffffffffffffffffffffffffffffffffffffffff1673ffffffffffffffffffffffffffffffffffffffff168152602001908152602001600020548282815181106109b157fe5b602002602001018181525050806001019050610885565b508092505050949350505050565b6000806109e1610fe1565b90508060020160008473ffffffffffffffffffffffffffffffffffffffff1673ffffffffffffffffffffffffffffffffffffffff16815260200190815260200160002060000154915050919050565b8173ffffffffffffffffffffffffffffffffffffffff16610a4f61103b565b73ffffffffffffffffffffffffffffffffffffffff161415610aa6576040517f08c379a0000000000000000000000000000000000000000000000000000000008152600401610a9d90611f51565b60405180910390fd5b6000610ab0610fe1565b905081816001016000610ac161103b565b73ffffffffffffffffffffffffffffffffffffffff1673ffffffffffffffffffffffffffffffffffffffff16815260200190815260200160002060008573ffffffffffffffffffffffffffffffffffffffff1673ffffffffffffffffffffffffffffffffffffffff16815260200190815260200160002060006101000a81548160ff0219169083151502179055508273ffffffffffffffffffffffffffffffffffffffff16610b6e61103b565b73ffffffffffffffffffffffffffffffffffffffff167f17307eab39ab6107e8899845ad3d59bd9653f200f220920489ca2b5937696c3184604051610bb39190611e54565b60405180910390a3505050565b600080610bcb610fe1565b90508060010160008573ffffffffffffffffffffffffffffffffffffffff1673ffffffffffffffffffffffffffffffffffffffff16815260200190815260200160002060008473ffffffffffffffffffffffffffffffffffffffff1673ffffffffffffffffffffffffffffffffffffffff16815260200190815260200160002060009054906101000a900460ff1691505092915050565b600073ffffffffffffffffffffffffffffffffffffffff168573ffffffffffffffffffffffffffffffffffffffff161415610cd2576040517f08c379a0000000000000000000000000000000000000000000000000000000008152600401610cc990611f11565b60405180910390fd5b610cda61103b565b73ffffffffffffffffffffffffffffffffffffffff168673ffffffffffffffffffffffffffffffffffffffff161480610d205750610d1f86610d1a61103b565b610bc0565b5b610d5f576040517f08c379a0000000000000000000000000000000000000000000000000000000008152600401610d5690611ef1565b60405180910390fd5b6000610d69610fe1565b90506000610d7561103b565b9050610df6856040518060600160405280602a815260200161218a602a91398460000160008a815260200190815260200160002060008c73ffffffffffffffffffffffffffffffffffffffff1673ffffffffffffffffffffffffffffffffffffffff168152602001908152602001600020546110439092919063ffffffff16565b82600001600088815260200190815260200160002060008a73ffffffffffffffffffffffffffffffffffffffff1673ffffffffffffffffffffffffffffffffffffffff16815260200190815260200160002081905550610eb18583600001600089815260200190815260200160002060008a73ffffffffffffffffffffffffffffffffffffffff1673ffffffffffffffffffffffffffffffffffffffff1681526020019081526020016000205461110390919063ffffffff16565b82600001600088815260200190815260200160002060008973ffffffffffffffffffffffffffffffffffffffff1673ffffffffffffffffffffffffffffffffffffffff168152602001908152602001600020819055508673ffffffffffffffffffffffffffffffffffffffff168873ffffffffffffffffffffffffffffffffffffffff168273ffffffffffffffffffffffffffffffffffffffff167fc3d58168c5ae7397731d063d5bbf3d657854427343f4c083240f7aacaa2d0f628989604051610f7d929190611fcc565b60405180910390a4610fd7818989898989898080601f016020809104026020016040519081016040528093929190818152602001838380828437600081840152601f19601f820116905080830192505050505050506112bd565b5050505050505050565b6000807fd1fd1ec9eb6f457e5e32da0d2921ff6daf7fd2085ec060a076b391ca2400b28290508091505090565b6000807f8011e08e256fd2a672b7720b7587378b9f27bfa5a95803a3cee7cf21a0a3def890508091505090565b600033905090565b60008383111582906110f0576040517f08c379a00000000000000000000000000000000000000000000000000000000081526004018080602001828103825283818151815260200191508051906020019080838360005b838110156110b557808201518184015260208101905061109a565b50505050905090810190601f1680156110e25780820380516001836020036101000a031916815260200191505b509250505060405180910390fd5b5060008385039050809150509392505050565b600080828401905083811015611181576040517f08c379a000000000000000000000000000000000000000000000000000000000815260040180806020018281038252601b8152602001807f536166654d6174683a206164646974696f6e206f766572666c6f77000000000081525060200191505060405180910390fd5b8091505092915050565b6000843b905060008111156112b4578473ffffffffffffffffffffffffffffffffffffffff1663bc197c8188888787876040518663ffffffff1660e01b81526004016111db959493929190611d35565b602060405180830381600087803b1580156111f557600080fd5b505af1158015611209573d6000803e3d6000fd5b505050506040513d601f19601f8201168201806040525081019061122d91906117d1565b7bffffffffffffffffffffffffffffffffffffffffffffffffffffffff191663bc197c8160e01b7bffffffffffffffffffffffffffffffffffffffffffffffffffffffff1916146112b3576040517f08c379a00000000000000000000000000000000000000000000000000000000081526004016112aa90611eb1565b60405180910390fd5b5b50505050505050565b6000843b905060008111156113e6578473ffffffffffffffffffffffffffffffffffffffff1663f23a6e6188888787876040518663ffffffff1660e01b815260040161130d959493929190611d9d565b602060405180830381600087803b15801561132757600080fd5b505af115801561133b573d6000803e3d6000fd5b505050506040513d601f19601f8201168201806040525081019061135f91906117d1565b7bffffffffffffffffffffffffffffffffffffffffffffffffffffffff191663f23a6e6160e01b7bffffffffffffffffffffffffffffffffffffffffffffffffffffffff1916146113e5576040517f08c379a00000000000000000000000000000000000000000000000000000000081526004016113dc90611e91565b60405180910390fd5b5b50505050505050565b6000813590506113fe8161212d565b92915050565b60008083601f84011261141657600080fd5b8235905067ffffffffffffffff81111561142f57600080fd5b60208301915083602082028301111561144757600080fd5b9250929050565b60008083601f84011261146057600080fd5b8235905067ffffffffffffffff81111561147957600080fd5b60208301915083602082028301111561149157600080fd5b9250929050565b6000813590506114a781612144565b92915050565b6000815190506114bc8161215b565b92915050565b60008083601f8401126114d457600080fd5b8235905067ffffffffffffffff8111156114ed57600080fd5b60208301915083600182028301111561150557600080fd5b9250929050565b60008135905061151b81612172565b92915050565b60006020828403121561153357600080fd5b6000611541848285016113ef565b91505092915050565b6000806040838503121561155d57600080fd5b600061156b858286016113ef565b925050602061157c858286016113ef565b9150509250929050565b60008060008060008060008060a0898b0312156115a257600080fd5b60006115b08b828c016113ef565b98505060206115c18b828c016113ef565b975050604089013567ffffffffffffffff8111156115de57600080fd5b6115ea8b828c0161144e565b9650965050606089013567ffffffffffffffff81111561160957600080fd5b6116158b828c0161144e565b9450945050608089013567ffffffffffffffff81111561163457600080fd5b6116408b828c016114c2565b92509250509295985092959890939650565b60008060008060008060a0878903121561166b57600080fd5b600061167989828a016113ef565b965050602061168a89828a016113ef565b955050604061169b89828a0161150c565b94505060606116ac89828a0161150c565b935050608087013567ffffffffffffffff8111156116c957600080fd5b6116d589828a016114c2565b92509250509295509295509295565b600080604083850312156116f757600080fd5b6000611705858286016113ef565b925050602061171685828601611498565b9150509250929050565b6000806040838503121561173357600080fd5b6000611741858286016113ef565b92505060206117528582860161150c565b9150509250929050565b6000806000806040858703121561177257600080fd5b600085013567ffffffffffffffff81111561178c57600080fd5b61179887828801611404565b9450945050602085013567ffffffffffffffff8111156117b757600080fd5b6117c38782880161144e565b925092505092959194509250565b6000602082840312156117e357600080fd5b60006117f1848285016114ad565b91505092915050565b60006020828403121561180c57600080fd5b600061181a8482850161150c565b91505092915050565b600061182f8383611d17565b60208301905092915050565b61184481612066565b82525050565b60006118568385612033565b93507f07ffffffffffffffffffffffffffffffffffffffffffffffffffffffffffffff83111561188557600080fd5b6020830292506118968385846120da565b82840190509392505050565b60006118ad82612005565b6118b78185612033565b93506118c283611ff5565b8060005b838110156118f35781516118da8882611823565b97506118e583612026565b9250506001810190506118c6565b5085935050505092915050565b61190981612078565b82525050565b600061191a82612010565b6119248185612044565b93506119348185602086016120e9565b61193d8161211c565b840191505092915050565b60006119538261201b565b61195d8185612055565b935061196d8185602086016120e9565b6119768161211c565b840191505092915050565b600061198e603483612055565b91507f455243313135353a207472616e7366657220746f206e6f6e204552433131353560008301527f526563656976657220696d706c656d656e7465720000000000000000000000006020830152604082019050919050565b60006119f4602883612055565b91507f455243313135353a204552433131353552656365697665722072656a6563746560008301527f6420746f6b656e730000000000000000000000000000000000000000000000006020830152604082019050919050565b6000611a5a603183612055565b91507f455243313135353a2062617463682062616c616e636520717565727920666f7260008301527f20746865207a65726f20616464726573730000000000000000000000000000006020830152604082019050919050565b6000611ac0602983612055565b91507f455243313135353a2063616c6c6572206973206e6f74206f776e6572206e6f7260008301527f20617070726f76656400000000000000000000000000000000000000000000006020830152604082019050919050565b6000611b26602583612055565b91507f455243313135353a207472616e7366657220746f20746865207a65726f20616460008301527f64726573730000000000000000000000000000000000000000000000000000006020830152604082019050919050565b6000611b8c603283612055565b91507f455243313135353a207472616e736665722063616c6c6572206973206e6f742060008301527f6f776e6572206e6f7220617070726f76656400000000000000000000000000006020830152604082019050919050565b6000611bf2602983612055565b91507f455243313135353a2073657474696e6720617070726f76616c2073746174757360008301527f20666f722073656c6600000000000000000000000000000000000000000000006020830152604082019050919050565b6000611c58602983612055565b91507f455243313135353a206163636f756e747320616e6420696473206c656e67746860008301527f206d69736d6174636800000000000000000000000000000000000000000000006020830152604082019050919050565b6000611cbe602883612055565b91507f455243313135353a2069647320616e6420616d6f756e7473206c656e6774682060008301527f6d69736d617463680000000000000000000000000000000000000000000000006020830152604082019050919050565b611d20816120d0565b82525050565b611d2f816120d0565b82525050565b600060a082019050611d4a600083018861183b565b611d57602083018761183b565b8181036040830152611d6981866118a2565b90508181036060830152611d7d81856118a2565b90508181036080830152611d91818461190f565b90509695505050505050565b600060a082019050611db2600083018861183b565b611dbf602083018761183b565b611dcc6040830186611d26565b611dd96060830185611d26565b8181036080830152611deb818461190f565b90509695505050505050565b60006040820190508181036000830152611e1281868861184a565b90508181036020830152611e2781848661184a565b905095945050505050565b60006020820190508181036000830152611e4c81846118a2565b905092915050565b6000602082019050611e696000830184611900565b92915050565b60006020820190508181036000830152611e898184611948565b905092915050565b60006020820190508181036000830152611eaa81611981565b9050919050565b60006020820190508181036000830152611eca816119e7565b9050919050565b60006020820190508181036000830152611eea81611a4d565b9050919050565b60006020820190508181036000830152611f0a81611ab3565b9050919050565b60006020820190508181036000830152611f2a81611b19565b9050919050565b60006020820190508181036000830152611f4a81611b7f565b9050919050565b60006020820190508181036000830152611f6a81611be5565b9050919050565b60006020820190508181036000830152611f8a81611c4b565b9050919050565b60006020820190508181036000830152611faa81611cb1565b9050919050565b6000602082019050611fc66000830184611d26565b92915050565b6000604082019050611fe16000830185611d26565b611fee6020830184611d26565b9392505050565b6000819050602082019050919050565b600081519050919050565b600081519050919050565b600081519050919050565b6000602082019050919050565b600082825260208201905092915050565b600082825260208201905092915050565b600082825260208201905092915050565b6000612071826120b0565b9050919050565b60008115159050919050565b60007fffffffff0000000000000000000000000000000000000000000000000000000082169050919050565b600073ffffffffffffffffffffffffffffffffffffffff82169050919050565b6000819050919050565b82818337600083830152505050565b60005b838110156121075780820151818401526020810190506120ec565b83811115612116576000848401525b50505050565b6000601f19601f8301169050919050565b61213681612066565b811461214157600080fd5b50565b61214d81612078565b811461215857600080fd5b50565b61216481612084565b811461216f57600080fd5b50565b61217b816120d0565b811461218657600080fd5b5056fe455243313135353a20696e73756666696369656e742062616c616e636520666f72207472616e73666572a26469706673582212207416b001a6171588d8afe12d3c14a734e36f812e19d6944810c01c4c08be0a8164736f6c63430007060033",
  "linkReferences": {},
  "deployedLinkReferences": {}
}